{
	"contracts/Government.sol": {
		"Government": {
			"abi": [
				{
					"inputs": [],
					"stateMutability": "nonpayable",
					"type": "constructor"
				},
				{
					"inputs": [
						{
							"internalType": "uint256",
							"name": "",
							"type": "uint256"
						}
					],
					"name": "citizens",
					"outputs": [
						{
							"internalType": "address",
							"name": "",
							"type": "address"
						}
					],
					"stateMutability": "view",
					"type": "function"
				},
				{
					"inputs": [],
					"name": "destroy",
					"outputs": [],
					"stateMutability": "nonpayable",
					"type": "function"
				},
				{
					"inputs": [
						{
							"internalType": "address",
							"name": "candidate",
							"type": "address"
						}
					],
					"name": "enactLaw",
					"outputs": [],
					"stateMutability": "nonpayable",
					"type": "function"
				},
				{
					"inputs": [],
					"name": "getCitizens",
					"outputs": [
						{
							"internalType": "address[]",
							"name": "",
							"type": "address[]"
						}
					],
					"stateMutability": "view",
					"type": "function"
				},
				{
					"inputs": [],
					"name": "getOfficials",
					"outputs": [
						{
							"internalType": "address[]",
							"name": "",
							"type": "address[]"
						}
					],
					"stateMutability": "view",
					"type": "function"
				},
				{
					"inputs": [
						{
							"internalType": "address payable",
							"name": "user",
							"type": "address"
						}
					],
					"name": "grantAccess",
					"outputs": [],
					"stateMutability": "nonpayable",
					"type": "function"
				},
				{
					"inputs": [
						{
							"internalType": "address",
							"name": "",
							"type": "address"
						}
					],
					"name": "isOfficial",
					"outputs": [
						{
							"internalType": "bool",
							"name": "",
							"type": "bool"
						}
					],
					"stateMutability": "view",
					"type": "function"
				},
				{
					"inputs": [
						{
							"internalType": "uint256",
							"name": "",
							"type": "uint256"
						}
					],
					"name": "officials",
					"outputs": [
						{
							"internalType": "address",
							"name": "",
							"type": "address"
						}
					],
					"stateMutability": "view",
					"type": "function"
				},
				{
					"inputs": [
						{
							"internalType": "address",
							"name": "candidate",
							"type": "address"
						}
					],
					"name": "proposeLaw",
					"outputs": [],
					"stateMutability": "nonpayable",
					"type": "function"
				},
				{
					"inputs": [],
					"name": "registerAsCitizen",
					"outputs": [],
					"stateMutability": "nonpayable",
					"type": "function"
				},
				{
					"inputs": [],
					"name": "registerAsOfficial",
					"outputs": [],
					"stateMutability": "nonpayable",
					"type": "function"
				},
				{
					"inputs": [
						{
							"internalType": "address payable",
							"name": "user",
							"type": "address"
						}
					],
					"name": "revokeAccess",
					"outputs": [],
					"stateMutability": "nonpayable",
					"type": "function"
				},
				{
					"inputs": [
						{
							"internalType": "address",
							"name": "candidate",
							"type": "address"
						}
					],
					"name": "vote",
					"outputs": [],
					"stateMutability": "nonpayable",
					"type": "function"
				}
			],
			"devdoc": {
				"kind": "dev",
				"methods": {},
				"version": 1
			},
			"evm": {
				"assembly": "    /* \"contracts/Government.sol\":75:1968  contract Government {... */\n  mstore(0x40, 0x80)\n    /* \"contracts/Government.sol\":246:306  constructor() {... */\n  callvalue\n  dup1\n  iszero\n  tag_1\n  jumpi\n  0x00\n  dup1\n  revert\ntag_1:\n  pop\n    /* \"contracts/Government.sol\":287:297  msg.sender */\n  caller\n    /* \"contracts/Government.sol\":271:276  owner */\n  0x02\n  0x00\n    /* \"contracts/Government.sol\":271:298  owner = payable(msg.sender) */\n  0x0100\n  exp\n  dup2\n  sload\n  dup2\n  0xffffffffffffffffffffffffffffffffffffffff\n  mul\n  not\n  and\n  swap1\n  dup4\n  0xffffffffffffffffffffffffffffffffffffffff\n  and\n  mul\n  or\n  swap1\n  sstore\n  pop\n    /* \"contracts/Government.sol\":75:1968  contract Government {... */\n  dataSize(sub_0)\n  dup1\n  dataOffset(sub_0)\n  0x00\n  codecopy\n  0x00\n  return\nstop\n\nsub_0: assembly {\n        /* \"contracts/Government.sol\":75:1968  contract Government {... */\n      mstore(0x40, 0x80)\n      callvalue\n      dup1\n      iszero\n      tag_1\n      jumpi\n      0x00\n      dup1\n      revert\n    tag_1:\n      pop\n      jumpi(tag_2, lt(calldatasize, 0x04))\n      shr(0xe0, calldataload(0x00))\n      dup1\n      0x6dd7d8ea\n      gt\n      tag_16\n      jumpi\n      dup1\n      0x85e68531\n      gt\n      tag_17\n      jumpi\n      dup1\n      0x85e68531\n      eq\n      tag_12\n      jumpi\n      dup1\n      0x89907717\n      eq\n      tag_13\n      jumpi\n      dup1\n      0x97ad6afd\n      eq\n      tag_14\n      jumpi\n      dup1\n      0xeee8c7db\n      eq\n      tag_15\n      jumpi\n      jump(tag_2)\n    tag_17:\n      dup1\n      0x6dd7d8ea\n      eq\n      tag_9\n      jumpi\n      dup1\n      0x77b81aac\n      eq\n      tag_10\n      jumpi\n      dup1\n      0x83197ef0\n      eq\n      tag_11\n      jumpi\n      jump(tag_2)\n    tag_16:\n      dup1\n      0x09a34f00\n      eq\n      tag_3\n      jumpi\n      dup1\n      0x0ae5e739\n      eq\n      tag_4\n      jumpi\n      dup1\n      0x34c400e4\n      eq\n      tag_5\n      jumpi\n      dup1\n      0x3f94ba37\n      eq\n      tag_6\n      jumpi\n      dup1\n      0x58bc7331\n      eq\n      tag_7\n      jumpi\n      dup1\n      0x62e36eb8\n      eq\n      tag_8\n      jumpi\n    tag_2:\n      0x00\n      dup1\n      revert\n        /* \"contracts/Government.sol\":102:127  address[] public citizens */\n    tag_3:\n      tag_18\n      0x04\n      dup1\n      calldatasize\n      sub\n      dup2\n      add\n      swap1\n      tag_19\n      swap2\n      swap1\n      tag_20\n      jump\t// in\n    tag_19:\n      tag_21\n      jump\t// in\n    tag_18:\n      mload(0x40)\n      tag_22\n      swap2\n      swap1\n      tag_23\n      jump\t// in\n    tag_22:\n      mload(0x40)\n      dup1\n      swap2\n      sub\n      swap1\n      return\n        /* \"contracts/Government.sol\":1390:1545  function grantAccess(address payable user) public {... */\n    tag_4:\n      tag_24\n      0x04\n      dup1\n      calldatasize\n      sub\n      dup2\n      add\n      swap1\n      tag_25\n      swap2\n      swap1\n      tag_26\n      jump\t// in\n    tag_25:\n      tag_27\n      jump\t// in\n    tag_24:\n      stop\n        /* \"contracts/Government.sol\":910:1040  function proposeLaw(address candidate) public {... */\n    tag_5:\n      tag_28\n      0x04\n      dup1\n      calldatasize\n      sub\n      dup2\n      add\n      swap1\n      tag_29\n      swap2\n      swap1\n      tag_30\n      jump\t// in\n    tag_29:\n      tag_31\n      jump\t// in\n    tag_28:\n      stop\n        /* \"contracts/Government.sol\":1048:1174  function enactLaw(address candidate) public {... */\n    tag_6:\n      tag_32\n      0x04\n      dup1\n      calldatasize\n      sub\n      dup2\n      add\n      swap1\n      tag_33\n      swap2\n      swap1\n      tag_30\n      jump\t// in\n    tag_33:\n      tag_34\n      jump\t// in\n    tag_32:\n      stop\n        /* \"contracts/Government.sol\":1182:1279  function getOfficials() public view returns(address[] memory) {... */\n    tag_7:\n      tag_35\n      tag_36\n      jump\t// in\n    tag_35:\n      mload(0x40)\n      tag_37\n      swap2\n      swap1\n      tag_38\n      jump\t// in\n    tag_37:\n      mload(0x40)\n      dup1\n      swap2\n      sub\n      swap1\n      return\n        /* \"contracts/Government.sol\":314:488  function registerAsCitizen() public {... */\n    tag_8:\n      tag_39\n      tag_40\n      jump\t// in\n    tag_39:\n      stop\n        /* \"contracts/Government.sol\":720:902  function vote(address candidate) public {... */\n    tag_9:\n      tag_41\n      0x04\n      dup1\n      calldatasize\n      sub\n      dup2\n      add\n      swap1\n      tag_42\n      swap2\n      swap1\n      tag_30\n      jump\t// in\n    tag_42:\n      tag_43\n      jump\t// in\n    tag_41:\n      stop\n        /* \"contracts/Government.sol\":195:237  mapping(address => bool) public isOfficial */\n    tag_10:\n      tag_44\n      0x04\n      dup1\n      calldatasize\n      sub\n      dup2\n      add\n      swap1\n      tag_45\n      swap2\n      swap1\n      tag_30\n      jump\t// in\n    tag_45:\n      tag_46\n      jump\t// in\n    tag_44:\n      mload(0x40)\n      tag_47\n      swap2\n      swap1\n      tag_48\n      jump\t// in\n    tag_47:\n      mload(0x40)\n      dup1\n      swap2\n      sub\n      swap1\n      return\n        /* \"contracts/Government.sol\":1814:1961  function destroy() public {... */\n    tag_11:\n      tag_49\n      tag_50\n      jump\t// in\n    tag_49:\n      stop\n        /* \"contracts/Government.sol\":1554:1805  function revokeAccess(address payable user) public {... */\n    tag_12:\n      tag_51\n      0x04\n      dup1\n      calldatasize\n      sub\n      dup2\n      add\n      swap1\n      tag_52\n      swap2\n      swap1\n      tag_26\n      jump\t// in\n    tag_52:\n      tag_53\n      jump\t// in\n    tag_51:\n      stop\n        /* \"contracts/Government.sol\":496:712  function registerAsOfficial() public {... */\n    tag_13:\n      tag_54\n      tag_55\n      jump\t// in\n    tag_54:\n      stop\n        /* \"contracts/Government.sol\":134:160  address[] public officials */\n    tag_14:\n      tag_56\n      0x04\n      dup1\n      calldatasize\n      sub\n      dup2\n      add\n      swap1\n      tag_57\n      swap2\n      swap1\n      tag_20\n      jump\t// in\n    tag_57:\n      tag_58\n      jump\t// in\n    tag_56:\n      mload(0x40)\n      tag_59\n      swap2\n      swap1\n      tag_23\n      jump\t// in\n    tag_59:\n      mload(0x40)\n      dup1\n      swap2\n      sub\n      swap1\n      return\n        /* \"contracts/Government.sol\":1287:1382  function getCitizens() public view returns(address[] memory) {... */\n    tag_15:\n      tag_60\n      tag_61\n      jump\t// in\n    tag_60:\n      mload(0x40)\n      tag_62\n      swap2\n      swap1\n      tag_38\n      jump\t// in\n    tag_62:\n      mload(0x40)\n      dup1\n      swap2\n      sub\n      swap1\n      return\n        /* \"contracts/Government.sol\":102:127  address[] public citizens */\n    tag_21:\n      0x00\n      dup2\n      dup2\n      sload\n      dup2\n      lt\n      tag_63\n      jumpi\n      0x00\n      dup1\n      revert\n    tag_63:\n      swap1\n      0x00\n      mstore\n      keccak256(0x00, 0x20)\n      add\n      0x00\n      swap2\n      pop\n      sload\n      swap1\n      0x0100\n      exp\n      swap1\n      div\n      0xffffffffffffffffffffffffffffffffffffffff\n      and\n      dup2\n      jump\t// out\n        /* \"contracts/Government.sol\":1390:1545  function grantAccess(address payable user) public {... */\n    tag_27:\n        /* \"contracts/Government.sol\":1473:1478  owner */\n      0x02\n      0x00\n      swap1\n      sload\n      swap1\n      0x0100\n      exp\n      swap1\n      div\n      0xffffffffffffffffffffffffffffffffffffffff\n      and\n        /* \"contracts/Government.sol\":1459:1478  msg.sender == owner */\n      0xffffffffffffffffffffffffffffffffffffffff\n      and\n        /* \"contracts/Government.sol\":1459:1469  msg.sender */\n      caller\n        /* \"contracts/Government.sol\":1459:1478  msg.sender == owner */\n      0xffffffffffffffffffffffffffffffffffffffff\n      and\n      eq\n        /* \"contracts/Government.sol\":1451:1514  require(msg.sender == owner, \"Only the owner can grant access\") */\n      tag_66\n      jumpi\n      mload(0x40)\n      0x08c379a000000000000000000000000000000000000000000000000000000000\n      dup2\n      mstore\n      0x04\n      add\n      tag_67\n      swap1\n      tag_68\n      jump\t// in\n    tag_67:\n      mload(0x40)\n      dup1\n      swap2\n      sub\n      swap1\n      revert\n    tag_66:\n        /* \"contracts/Government.sol\":1533:1537  user */\n      dup1\n        /* \"contracts/Government.sol\":1525:1530  owner */\n      0x02\n      0x00\n        /* \"contracts/Government.sol\":1525:1537  owner = user */\n      0x0100\n      exp\n      dup2\n      sload\n      dup2\n      0xffffffffffffffffffffffffffffffffffffffff\n      mul\n      not\n      and\n      swap1\n      dup4\n      0xffffffffffffffffffffffffffffffffffffffff\n      and\n      mul\n      or\n      swap1\n      sstore\n      pop\n        /* \"contracts/Government.sol\":1390:1545  function grantAccess(address payable user) public {... */\n      pop\n      jump\t// out\n        /* \"contracts/Government.sol\":910:1040  function proposeLaw(address candidate) public {... */\n    tag_31:\n        /* \"contracts/Government.sol\":975:985  isOfficial */\n      0x03\n        /* \"contracts/Government.sol\":975:997  isOfficial[msg.sender] */\n      0x00\n        /* \"contracts/Government.sol\":986:996  msg.sender */\n      caller\n        /* \"contracts/Government.sol\":975:997  isOfficial[msg.sender] */\n      0xffffffffffffffffffffffffffffffffffffffff\n      and\n      0xffffffffffffffffffffffffffffffffffffffff\n      and\n      dup2\n      mstore\n      0x20\n      add\n      swap1\n      dup2\n      mstore\n      0x20\n      add\n      0x00\n      keccak256\n      0x00\n      swap1\n      sload\n      swap1\n      0x0100\n      exp\n      swap1\n      div\n      0xff\n      and\n        /* \"contracts/Government.sol\":967:1032  require(isOfficial[msg.sender],\"Only Officials can propose laws\") */\n      tag_70\n      jumpi\n      mload(0x40)\n      0x08c379a000000000000000000000000000000000000000000000000000000000\n      dup2\n      mstore\n      0x04\n      add\n      tag_71\n      swap1\n      tag_72\n      jump\t// in\n    tag_71:\n      mload(0x40)\n      dup1\n      swap2\n      sub\n      swap1\n      revert\n    tag_70:\n        /* \"contracts/Government.sol\":910:1040  function proposeLaw(address candidate) public {... */\n      pop\n      jump\t// out\n        /* \"contracts/Government.sol\":1048:1174  function enactLaw(address candidate) public {... */\n    tag_34:\n        /* \"contracts/Government.sol\":1125:1130  owner */\n      0x02\n      0x00\n      swap1\n      sload\n      swap1\n      0x0100\n      exp\n      swap1\n      div\n      0xffffffffffffffffffffffffffffffffffffffff\n      and\n        /* \"contracts/Government.sol\":1111:1130  msg.sender == owner */\n      0xffffffffffffffffffffffffffffffffffffffff\n      and\n        /* \"contracts/Government.sol\":1111:1121  msg.sender */\n      caller\n        /* \"contracts/Government.sol\":1111:1130  msg.sender == owner */\n      0xffffffffffffffffffffffffffffffffffffffff\n      and\n      eq\n        /* \"contracts/Government.sol\":1103:1166  require(msg.sender == owner ,\"Only Officials can propose laws\") */\n      tag_74\n      jumpi\n      mload(0x40)\n      0x08c379a000000000000000000000000000000000000000000000000000000000\n      dup2\n      mstore\n      0x04\n      add\n      tag_75\n      swap1\n      tag_72\n      jump\t// in\n    tag_75:\n      mload(0x40)\n      dup1\n      swap2\n      sub\n      swap1\n      revert\n    tag_74:\n        /* \"contracts/Government.sol\":1048:1174  function enactLaw(address candidate) public {... */\n      pop\n      jump\t// out\n        /* \"contracts/Government.sol\":1182:1279  function getOfficials() public view returns(address[] memory) {... */\n    tag_36:\n        /* \"contracts/Government.sol\":1226:1242  address[] memory */\n      0x60\n        /* \"contracts/Government.sol\":1262:1271  officials */\n      0x01\n        /* \"contracts/Government.sol\":1255:1271  return officials */\n      dup1\n      sload\n      dup1\n      0x20\n      mul\n      0x20\n      add\n      mload(0x40)\n      swap1\n      dup2\n      add\n      0x40\n      mstore\n      dup1\n      swap3\n      swap2\n      swap1\n      dup2\n      dup2\n      mstore\n      0x20\n      add\n      dup3\n      dup1\n      sload\n      dup1\n      iszero\n      tag_77\n      jumpi\n      0x20\n      mul\n      dup3\n      add\n      swap2\n      swap1\n      0x00\n      mstore\n      keccak256(0x00, 0x20)\n      swap1\n    tag_78:\n      dup2\n      0x00\n      swap1\n      sload\n      swap1\n      0x0100\n      exp\n      swap1\n      div\n      0xffffffffffffffffffffffffffffffffffffffff\n      and\n      0xffffffffffffffffffffffffffffffffffffffff\n      and\n      dup2\n      mstore\n      0x20\n      add\n      swap1\n      0x01\n      add\n      swap1\n      dup1\n      dup4\n      gt\n      tag_78\n      jumpi\n    tag_77:\n      pop\n      pop\n      pop\n      pop\n      pop\n      swap1\n      pop\n        /* \"contracts/Government.sol\":1182:1279  function getOfficials() public view returns(address[] memory) {... */\n      swap1\n      jump\t// out\n        /* \"contracts/Government.sol\":314:488  function registerAsCitizen() public {... */\n    tag_40:\n        /* \"contracts/Government.sol\":370:380  isOfficial */\n      0x03\n        /* \"contracts/Government.sol\":370:392  isOfficial[msg.sender] */\n      0x00\n        /* \"contracts/Government.sol\":381:391  msg.sender */\n      caller\n        /* \"contracts/Government.sol\":370:392  isOfficial[msg.sender] */\n      0xffffffffffffffffffffffffffffffffffffffff\n      and\n      0xffffffffffffffffffffffffffffffffffffffff\n      and\n      dup2\n      mstore\n      0x20\n      add\n      swap1\n      dup2\n      mstore\n      0x20\n      add\n      0x00\n      keccak256\n      0x00\n      swap1\n      sload\n      swap1\n      0x0100\n      exp\n      swap1\n      div\n      0xff\n      and\n        /* \"contracts/Government.sol\":369:392  !isOfficial[msg.sender] */\n      iszero\n        /* \"contracts/Government.sol\":361:444  require(!isOfficial[msg.sender], \"Cannot register as Citizen, Already an official\") */\n      tag_80\n      jumpi\n      mload(0x40)\n      0x08c379a000000000000000000000000000000000000000000000000000000000\n      dup2\n      mstore\n      0x04\n      add\n      tag_81\n      swap1\n      tag_82\n      jump\t// in\n    tag_81:\n      mload(0x40)\n      dup1\n      swap2\n      sub\n      swap1\n      revert\n    tag_80:\n        /* \"contracts/Government.sol\":455:463  citizens */\n      0x00\n        /* \"contracts/Government.sol\":469:479  msg.sender */\n      caller\n        /* \"contracts/Government.sol\":455:480  citizens.push(msg.sender) */\n      swap1\n      dup1\n      0x01\n      dup2\n      sload\n      add\n      dup1\n      dup3\n      sstore\n      dup1\n      swap2\n      pop\n      pop\n      0x01\n      swap1\n      sub\n      swap1\n      0x00\n      mstore\n      keccak256(0x00, 0x20)\n      add\n      0x00\n      swap1\n      swap2\n      swap1\n      swap2\n      swap1\n      swap2\n      0x0100\n      exp\n      dup2\n      sload\n      dup2\n      0xffffffffffffffffffffffffffffffffffffffff\n      mul\n      not\n      and\n      swap1\n      dup4\n      0xffffffffffffffffffffffffffffffffffffffff\n      and\n      mul\n      or\n      swap1\n      sstore\n      pop\n        /* \"contracts/Government.sol\":314:488  function registerAsCitizen() public {... */\n      jump\t// out\n        /* \"contracts/Government.sol\":720:902  function vote(address candidate) public {... */\n    tag_43:\n        /* \"contracts/Government.sol\":780:790  isOfficial */\n      0x03\n        /* \"contracts/Government.sol\":780:802  isOfficial[msg.sender] */\n      0x00\n        /* \"contracts/Government.sol\":791:801  msg.sender */\n      caller\n        /* \"contracts/Government.sol\":780:802  isOfficial[msg.sender] */\n      0xffffffffffffffffffffffffffffffffffffffff\n      and\n      0xffffffffffffffffffffffffffffffffffffffff\n      and\n      dup2\n      mstore\n      0x20\n      add\n      swap1\n      dup2\n      mstore\n      0x20\n      add\n      0x00\n      keccak256\n      0x00\n      swap1\n      sload\n      swap1\n      0x0100\n      exp\n      swap1\n      div\n      0xff\n      and\n        /* \"contracts/Government.sol\":779:802  !isOfficial[msg.sender] */\n      iszero\n        /* \"contracts/Government.sol\":771:827  require(!isOfficial[msg.sender],\"Officials cannot vote\") */\n      tag_85\n      jumpi\n      mload(0x40)\n      0x08c379a000000000000000000000000000000000000000000000000000000000\n      dup2\n      mstore\n      0x04\n      add\n      tag_86\n      swap1\n      tag_87\n      jump\t// in\n    tag_86:\n      mload(0x40)\n      dup1\n      swap2\n      sub\n      swap1\n      revert\n    tag_85:\n        /* \"contracts/Government.sol\":846:856  isOfficial */\n      0x03\n        /* \"contracts/Government.sol\":846:867  isOfficial[candidate] */\n      0x00\n        /* \"contracts/Government.sol\":857:866  candidate */\n      dup3\n        /* \"contracts/Government.sol\":846:867  isOfficial[candidate] */\n      0xffffffffffffffffffffffffffffffffffffffff\n      and\n      0xffffffffffffffffffffffffffffffffffffffff\n      and\n      dup2\n      mstore\n      0x20\n      add\n      swap1\n      dup2\n      mstore\n      0x20\n      add\n      0x00\n      keccak256\n      0x00\n      swap1\n      sload\n      swap1\n      0x0100\n      exp\n      swap1\n      div\n      0xff\n      and\n        /* \"contracts/Government.sol\":838:892  require(isOfficial[candidate],\"Officials cannot vote\") */\n      tag_88\n      jumpi\n      mload(0x40)\n      0x08c379a000000000000000000000000000000000000000000000000000000000\n      dup2\n      mstore\n      0x04\n      add\n      tag_89\n      swap1\n      tag_87\n      jump\t// in\n    tag_89:\n      mload(0x40)\n      dup1\n      swap2\n      sub\n      swap1\n      revert\n    tag_88:\n        /* \"contracts/Government.sol\":720:902  function vote(address candidate) public {... */\n      pop\n      jump\t// out\n        /* \"contracts/Government.sol\":195:237  mapping(address => bool) public isOfficial */\n    tag_46:\n      mstore(0x20, 0x03)\n      dup1\n      0x00\n      mstore\n      keccak256(0x00, 0x40)\n      0x00\n      swap2\n      pop\n      sload\n      swap1\n      0x0100\n      exp\n      swap1\n      div\n      0xff\n      and\n      dup2\n      jump\t// out\n        /* \"contracts/Government.sol\":1814:1961  function destroy() public {... */\n    tag_50:\n        /* \"contracts/Government.sol\":1873:1878  owner */\n      0x02\n      0x00\n      swap1\n      sload\n      swap1\n      0x0100\n      exp\n      swap1\n      div\n      0xffffffffffffffffffffffffffffffffffffffff\n      and\n        /* \"contracts/Government.sol\":1859:1878  msg.sender == owner */\n      0xffffffffffffffffffffffffffffffffffffffff\n      and\n        /* \"contracts/Government.sol\":1859:1869  msg.sender */\n      caller\n        /* \"contracts/Government.sol\":1859:1878  msg.sender == owner */\n      0xffffffffffffffffffffffffffffffffffffffff\n      and\n      eq\n        /* \"contracts/Government.sol\":1851:1923  require(msg.sender == owner, \"Only the owner can destroy this contract\") */\n      tag_91\n      jumpi\n      mload(0x40)\n      0x08c379a000000000000000000000000000000000000000000000000000000000\n      dup2\n      mstore\n      0x04\n      add\n      tag_92\n      swap1\n      tag_93\n      jump\t// in\n    tag_92:\n      mload(0x40)\n      dup1\n      swap2\n      sub\n      swap1\n      revert\n    tag_91:\n        /* \"contracts/Government.sol\":1947:1952  owner */\n      0x02\n      0x00\n      swap1\n      sload\n      swap1\n      0x0100\n      exp\n      swap1\n      div\n      0xffffffffffffffffffffffffffffffffffffffff\n      and\n        /* \"contracts/Government.sol\":1934:1953  selfdestruct(owner) */\n      0xffffffffffffffffffffffffffffffffffffffff\n      and\n      selfdestruct\n        /* \"contracts/Government.sol\":1554:1805  function revokeAccess(address payable user) public {... */\n    tag_53:\n        /* \"contracts/Government.sol\":1638:1643  owner */\n      0x02\n      0x00\n      swap1\n      sload\n      swap1\n      0x0100\n      exp\n      swap1\n      div\n      0xffffffffffffffffffffffffffffffffffffffff\n      and\n        /* \"contracts/Government.sol\":1624:1643  msg.sender == owner */\n      0xffffffffffffffffffffffffffffffffffffffff\n      and\n        /* \"contracts/Government.sol\":1624:1634  msg.sender */\n      caller\n        /* \"contracts/Government.sol\":1624:1643  msg.sender == owner */\n      0xffffffffffffffffffffffffffffffffffffffff\n      and\n      eq\n        /* \"contracts/Government.sol\":1616:1680  require(msg.sender == owner, \"Only the owner can revoke access\") */\n      tag_95\n      jumpi\n      mload(0x40)\n      0x08c379a000000000000000000000000000000000000000000000000000000000\n      dup2\n      mstore\n      0x04\n      add\n      tag_96\n      swap1\n      tag_97\n      jump\t// in\n    tag_96:\n      mload(0x40)\n      dup1\n      swap2\n      sub\n      swap1\n      revert\n    tag_95:\n        /* \"contracts/Government.sol\":1707:1712  owner */\n      0x02\n      0x00\n      swap1\n      sload\n      swap1\n      0x0100\n      exp\n      swap1\n      div\n      0xffffffffffffffffffffffffffffffffffffffff\n      and\n        /* \"contracts/Government.sol\":1699:1712  user != owner */\n      0xffffffffffffffffffffffffffffffffffffffff\n      and\n        /* \"contracts/Government.sol\":1699:1703  user */\n      dup2\n        /* \"contracts/Government.sol\":1699:1712  user != owner */\n      0xffffffffffffffffffffffffffffffffffffffff\n      and\n      sub\n        /* \"contracts/Government.sol\":1691:1759  require(user != owner, \"Cannot revoke access for the current owner\") */\n      tag_98\n      jumpi\n      mload(0x40)\n      0x08c379a000000000000000000000000000000000000000000000000000000000\n      dup2\n      mstore\n      0x04\n      add\n      tag_99\n      swap1\n      tag_100\n      jump\t// in\n    tag_99:\n      mload(0x40)\n      dup1\n      swap2\n      sub\n      swap1\n      revert\n    tag_98:\n        /* \"contracts/Government.sol\":1786:1796  msg.sender */\n      caller\n        /* \"contracts/Government.sol\":1770:1775  owner */\n      0x02\n      0x00\n        /* \"contracts/Government.sol\":1770:1797  owner = payable(msg.sender) */\n      0x0100\n      exp\n      dup2\n      sload\n      dup2\n      0xffffffffffffffffffffffffffffffffffffffff\n      mul\n      not\n      and\n      swap1\n      dup4\n      0xffffffffffffffffffffffffffffffffffffffff\n      and\n      mul\n      or\n      swap1\n      sstore\n      pop\n        /* \"contracts/Government.sol\":1554:1805  function revokeAccess(address payable user) public {... */\n      pop\n      jump\t// out\n        /* \"contracts/Government.sol\":496:712  function registerAsOfficial() public {... */\n    tag_55:\n        /* \"contracts/Government.sol\":553:563  isOfficial */\n      0x03\n        /* \"contracts/Government.sol\":553:575  isOfficial[msg.sender] */\n      0x00\n        /* \"contracts/Government.sol\":564:574  msg.sender */\n      caller\n        /* \"contracts/Government.sol\":553:575  isOfficial[msg.sender] */\n      0xffffffffffffffffffffffffffffffffffffffff\n      and\n      0xffffffffffffffffffffffffffffffffffffffff\n      and\n      dup2\n      mstore\n      0x20\n      add\n      swap1\n      dup2\n      mstore\n      0x20\n      add\n      0x00\n      keccak256\n      0x00\n      swap1\n      sload\n      swap1\n      0x0100\n      exp\n      swap1\n      div\n      0xff\n      and\n        /* \"contracts/Government.sol\":552:575  !isOfficial[msg.sender] */\n      iszero\n        /* \"contracts/Government.sol\":544:627  require(!isOfficial[msg.sender], \"Cannot register as Citizen, Already an official\") */\n      tag_102\n      jumpi\n      mload(0x40)\n      0x08c379a000000000000000000000000000000000000000000000000000000000\n      dup2\n      mstore\n      0x04\n      add\n      tag_103\n      swap1\n      tag_82\n      jump\t// in\n    tag_103:\n      mload(0x40)\n      dup1\n      swap2\n      sub\n      swap1\n      revert\n    tag_102:\n        /* \"contracts/Government.sol\":638:647  officials */\n      0x01\n        /* \"contracts/Government.sol\":653:663  msg.sender */\n      caller\n        /* \"contracts/Government.sol\":638:664  officials.push(msg.sender) */\n      swap1\n      dup1\n      0x01\n      dup2\n      sload\n      add\n      dup1\n      dup3\n      sstore\n      dup1\n      swap2\n      pop\n      pop\n      0x01\n      swap1\n      sub\n      swap1\n      0x00\n      mstore\n      keccak256(0x00, 0x20)\n      add\n      0x00\n      swap1\n      swap2\n      swap1\n      swap2\n      swap1\n      swap2\n      0x0100\n      exp\n      dup2\n      sload\n      dup2\n      0xffffffffffffffffffffffffffffffffffffffff\n      mul\n      not\n      and\n      swap1\n      dup4\n      0xffffffffffffffffffffffffffffffffffffffff\n      and\n      mul\n      or\n      swap1\n      sstore\n      pop\n        /* \"contracts/Government.sol\":700:704  true */\n      0x01\n        /* \"contracts/Government.sol\":675:685  isOfficial */\n      0x03\n        /* \"contracts/Government.sol\":675:697  isOfficial[msg.sender] */\n      0x00\n        /* \"contracts/Government.sol\":686:696  msg.sender */\n      caller\n        /* \"contracts/Government.sol\":675:697  isOfficial[msg.sender] */\n      0xffffffffffffffffffffffffffffffffffffffff\n      and\n      0xffffffffffffffffffffffffffffffffffffffff\n      and\n      dup2\n      mstore\n      0x20\n      add\n      swap1\n      dup2\n      mstore\n      0x20\n      add\n      0x00\n      keccak256\n      0x00\n        /* \"contracts/Government.sol\":675:704  isOfficial[msg.sender] = true */\n      0x0100\n      exp\n      dup2\n      sload\n      dup2\n      0xff\n      mul\n      not\n      and\n      swap1\n      dup4\n      iszero\n      iszero\n      mul\n      or\n      swap1\n      sstore\n      pop\n        /* \"contracts/Government.sol\":496:712  function registerAsOfficial() public {... */\n      jump\t// out\n        /* \"contracts/Government.sol\":134:160  address[] public officials */\n    tag_58:\n      0x01\n      dup2\n      dup2\n      sload\n      dup2\n      lt\n      tag_105\n      jumpi\n      0x00\n      dup1\n      revert\n    tag_105:\n      swap1\n      0x00\n      mstore\n      keccak256(0x00, 0x20)\n      add\n      0x00\n      swap2\n      pop\n      sload\n      swap1\n      0x0100\n      exp\n      swap1\n      div\n      0xffffffffffffffffffffffffffffffffffffffff\n      and\n      dup2\n      jump\t// out\n        /* \"contracts/Government.sol\":1287:1382  function getCitizens() public view returns(address[] memory) {... */\n    tag_61:\n        /* \"contracts/Government.sol\":1330:1346  address[] memory */\n      0x60\n        /* \"contracts/Government.sol\":1366:1374  citizens */\n      0x00\n        /* \"contracts/Government.sol\":1359:1374  return citizens */\n      dup1\n      sload\n      dup1\n      0x20\n      mul\n      0x20\n      add\n      mload(0x40)\n      swap1\n      dup2\n      add\n      0x40\n      mstore\n      dup1\n      swap3\n      swap2\n      swap1\n      dup2\n      dup2\n      mstore\n      0x20\n      add\n      dup3\n      dup1\n      sload\n      dup1\n      iszero\n      tag_108\n      jumpi\n      0x20\n      mul\n      dup3\n      add\n      swap2\n      swap1\n      0x00\n      mstore\n      keccak256(0x00, 0x20)\n      swap1\n    tag_109:\n      dup2\n      0x00\n      swap1\n      sload\n      swap1\n      0x0100\n      exp\n      swap1\n      div\n      0xffffffffffffffffffffffffffffffffffffffff\n      and\n      0xffffffffffffffffffffffffffffffffffffffff\n      and\n      dup2\n      mstore\n      0x20\n      add\n      swap1\n      0x01\n      add\n      swap1\n      dup1\n      dup4\n      gt\n      tag_109\n      jumpi\n    tag_108:\n      pop\n      pop\n      pop\n      pop\n      pop\n      swap1\n      pop\n        /* \"contracts/Government.sol\":1287:1382  function getCitizens() public view returns(address[] memory) {... */\n      swap1\n      jump\t// out\n        /* \"#utility.yul\":88:205   */\n    tag_111:\n        /* \"#utility.yul\":197:198   */\n      0x00\n        /* \"#utility.yul\":194:195   */\n      dup1\n        /* \"#utility.yul\":187:199   */\n      revert\n        /* \"#utility.yul\":334:411   */\n    tag_113:\n        /* \"#utility.yul\":371:378   */\n      0x00\n        /* \"#utility.yul\":400:405   */\n      dup2\n        /* \"#utility.yul\":389:405   */\n      swap1\n      pop\n        /* \"#utility.yul\":334:411   */\n      swap2\n      swap1\n      pop\n      jump\t// out\n        /* \"#utility.yul\":417:539   */\n    tag_114:\n        /* \"#utility.yul\":490:514   */\n      tag_154\n        /* \"#utility.yul\":508:513   */\n      dup2\n        /* \"#utility.yul\":490:514   */\n      tag_113\n      jump\t// in\n    tag_154:\n        /* \"#utility.yul\":483:488   */\n      dup2\n        /* \"#utility.yul\":480:515   */\n      eq\n        /* \"#utility.yul\":470:533   */\n      tag_155\n      jumpi\n        /* \"#utility.yul\":529:530   */\n      0x00\n        /* \"#utility.yul\":526:527   */\n      dup1\n        /* \"#utility.yul\":519:531   */\n      revert\n        /* \"#utility.yul\":470:533   */\n    tag_155:\n        /* \"#utility.yul\":417:539   */\n      pop\n      jump\t// out\n        /* \"#utility.yul\":545:684   */\n    tag_115:\n        /* \"#utility.yul\":591:596   */\n      0x00\n        /* \"#utility.yul\":629:635   */\n      dup2\n        /* \"#utility.yul\":616:636   */\n      calldataload\n        /* \"#utility.yul\":607:636   */\n      swap1\n      pop\n        /* \"#utility.yul\":645:678   */\n      tag_157\n        /* \"#utility.yul\":672:677   */\n      dup2\n        /* \"#utility.yul\":645:678   */\n      tag_114\n      jump\t// in\n    tag_157:\n        /* \"#utility.yul\":545:684   */\n      swap3\n      swap2\n      pop\n      pop\n      jump\t// out\n        /* \"#utility.yul\":690:1019   */\n    tag_20:\n        /* \"#utility.yul\":749:755   */\n      0x00\n        /* \"#utility.yul\":798:800   */\n      0x20\n        /* \"#utility.yul\":786:795   */\n      dup3\n        /* \"#utility.yul\":777:784   */\n      dup5\n        /* \"#utility.yul\":773:796   */\n      sub\n        /* \"#utility.yul\":769:801   */\n      slt\n        /* \"#utility.yul\":766:885   */\n      iszero\n      tag_159\n      jumpi\n        /* \"#utility.yul\":804:883   */\n      tag_160\n      tag_111\n      jump\t// in\n    tag_160:\n        /* \"#utility.yul\":766:885   */\n    tag_159:\n        /* \"#utility.yul\":924:925   */\n      0x00\n        /* \"#utility.yul\":949:1002   */\n      tag_161\n        /* \"#utility.yul\":994:1001   */\n      dup5\n        /* \"#utility.yul\":985:991   */\n      dup3\n        /* \"#utility.yul\":974:983   */\n      dup6\n        /* \"#utility.yul\":970:992   */\n      add\n        /* \"#utility.yul\":949:1002   */\n      tag_115\n      jump\t// in\n    tag_161:\n        /* \"#utility.yul\":939:1002   */\n      swap2\n      pop\n        /* \"#utility.yul\":895:1012   */\n      pop\n        /* \"#utility.yul\":690:1019   */\n      swap3\n      swap2\n      pop\n      pop\n      jump\t// out\n        /* \"#utility.yul\":1025:1151   */\n    tag_116:\n        /* \"#utility.yul\":1062:1069   */\n      0x00\n        /* \"#utility.yul\":1102:1144   */\n      0xffffffffffffffffffffffffffffffffffffffff\n        /* \"#utility.yul\":1095:1100   */\n      dup3\n        /* \"#utility.yul\":1091:1145   */\n      and\n        /* \"#utility.yul\":1080:1145   */\n      swap1\n      pop\n        /* \"#utility.yul\":1025:1151   */\n      swap2\n      swap1\n      pop\n      jump\t// out\n        /* \"#utility.yul\":1157:1253   */\n    tag_117:\n        /* \"#utility.yul\":1194:1201   */\n      0x00\n        /* \"#utility.yul\":1223:1247   */\n      tag_164\n        /* \"#utility.yul\":1241:1246   */\n      dup3\n        /* \"#utility.yul\":1223:1247   */\n      tag_116\n      jump\t// in\n    tag_164:\n        /* \"#utility.yul\":1212:1247   */\n      swap1\n      pop\n        /* \"#utility.yul\":1157:1253   */\n      swap2\n      swap1\n      pop\n      jump\t// out\n        /* \"#utility.yul\":1259:1377   */\n    tag_118:\n        /* \"#utility.yul\":1346:1370   */\n      tag_166\n        /* \"#utility.yul\":1364:1369   */\n      dup2\n        /* \"#utility.yul\":1346:1370   */\n      tag_117\n      jump\t// in\n    tag_166:\n        /* \"#utility.yul\":1341:1344   */\n      dup3\n        /* \"#utility.yul\":1334:1371   */\n      mstore\n        /* \"#utility.yul\":1259:1377   */\n      pop\n      pop\n      jump\t// out\n        /* \"#utility.yul\":1383:1605   */\n    tag_23:\n        /* \"#utility.yul\":1476:1480   */\n      0x00\n        /* \"#utility.yul\":1514:1516   */\n      0x20\n        /* \"#utility.yul\":1503:1512   */\n      dup3\n        /* \"#utility.yul\":1499:1517   */\n      add\n        /* \"#utility.yul\":1491:1517   */\n      swap1\n      pop\n        /* \"#utility.yul\":1527:1598   */\n      tag_168\n        /* \"#utility.yul\":1595:1596   */\n      0x00\n        /* \"#utility.yul\":1584:1593   */\n      dup4\n        /* \"#utility.yul\":1580:1597   */\n      add\n        /* \"#utility.yul\":1571:1577   */\n      dup5\n        /* \"#utility.yul\":1527:1598   */\n      tag_118\n      jump\t// in\n    tag_168:\n        /* \"#utility.yul\":1383:1605   */\n      swap3\n      swap2\n      pop\n      pop\n      jump\t// out\n        /* \"#utility.yul\":1611:1715   */\n    tag_119:\n        /* \"#utility.yul\":1656:1663   */\n      0x00\n        /* \"#utility.yul\":1685:1709   */\n      tag_170\n        /* \"#utility.yul\":1703:1708   */\n      dup3\n        /* \"#utility.yul\":1685:1709   */\n      tag_116\n      jump\t// in\n    tag_170:\n        /* \"#utility.yul\":1674:1709   */\n      swap1\n      pop\n        /* \"#utility.yul\":1611:1715   */\n      swap2\n      swap1\n      pop\n      jump\t// out\n        /* \"#utility.yul\":1721:1859   */\n    tag_120:\n        /* \"#utility.yul\":1802:1834   */\n      tag_172\n        /* \"#utility.yul\":1828:1833   */\n      dup2\n        /* \"#utility.yul\":1802:1834   */\n      tag_119\n      jump\t// in\n    tag_172:\n        /* \"#utility.yul\":1795:1800   */\n      dup2\n        /* \"#utility.yul\":1792:1835   */\n      eq\n        /* \"#utility.yul\":1782:1853   */\n      tag_173\n      jumpi\n        /* \"#utility.yul\":1849:1850   */\n      0x00\n        /* \"#utility.yul\":1846:1847   */\n      dup1\n        /* \"#utility.yul\":1839:1851   */\n      revert\n        /* \"#utility.yul\":1782:1853   */\n    tag_173:\n        /* \"#utility.yul\":1721:1859   */\n      pop\n      jump\t// out\n        /* \"#utility.yul\":1865:2020   */\n    tag_121:\n        /* \"#utility.yul\":1919:1924   */\n      0x00\n        /* \"#utility.yul\":1957:1963   */\n      dup2\n        /* \"#utility.yul\":1944:1964   */\n      calldataload\n        /* \"#utility.yul\":1935:1964   */\n      swap1\n      pop\n        /* \"#utility.yul\":1973:2014   */\n      tag_175\n        /* \"#utility.yul\":2008:2013   */\n      dup2\n        /* \"#utility.yul\":1973:2014   */\n      tag_120\n      jump\t// in\n    tag_175:\n        /* \"#utility.yul\":1865:2020   */\n      swap3\n      swap2\n      pop\n      pop\n      jump\t// out\n        /* \"#utility.yul\":2026:2371   */\n    tag_26:\n        /* \"#utility.yul\":2093:2099   */\n      0x00\n        /* \"#utility.yul\":2142:2144   */\n      0x20\n        /* \"#utility.yul\":2130:2139   */\n      dup3\n        /* \"#utility.yul\":2121:2128   */\n      dup5\n        /* \"#utility.yul\":2117:2140   */\n      sub\n        /* \"#utility.yul\":2113:2145   */\n      slt\n        /* \"#utility.yul\":2110:2229   */\n      iszero\n      tag_177\n      jumpi\n        /* \"#utility.yul\":2148:2227   */\n      tag_178\n      tag_111\n      jump\t// in\n    tag_178:\n        /* \"#utility.yul\":2110:2229   */\n    tag_177:\n        /* \"#utility.yul\":2268:2269   */\n      0x00\n        /* \"#utility.yul\":2293:2354   */\n      tag_179\n        /* \"#utility.yul\":2346:2353   */\n      dup5\n        /* \"#utility.yul\":2337:2343   */\n      dup3\n        /* \"#utility.yul\":2326:2335   */\n      dup6\n        /* \"#utility.yul\":2322:2344   */\n      add\n        /* \"#utility.yul\":2293:2354   */\n      tag_121\n      jump\t// in\n    tag_179:\n        /* \"#utility.yul\":2283:2354   */\n      swap2\n      pop\n        /* \"#utility.yul\":2239:2364   */\n      pop\n        /* \"#utility.yul\":2026:2371   */\n      swap3\n      swap2\n      pop\n      pop\n      jump\t// out\n        /* \"#utility.yul\":2377:2499   */\n    tag_122:\n        /* \"#utility.yul\":2450:2474   */\n      tag_181\n        /* \"#utility.yul\":2468:2473   */\n      dup2\n        /* \"#utility.yul\":2450:2474   */\n      tag_117\n      jump\t// in\n    tag_181:\n        /* \"#utility.yul\":2443:2448   */\n      dup2\n        /* \"#utility.yul\":2440:2475   */\n      eq\n        /* \"#utility.yul\":2430:2493   */\n      tag_182\n      jumpi\n        /* \"#utility.yul\":2489:2490   */\n      0x00\n        /* \"#utility.yul\":2486:2487   */\n      dup1\n        /* \"#utility.yul\":2479:2491   */\n      revert\n        /* \"#utility.yul\":2430:2493   */\n    tag_182:\n        /* \"#utility.yul\":2377:2499   */\n      pop\n      jump\t// out\n        /* \"#utility.yul\":2505:2644   */\n    tag_123:\n        /* \"#utility.yul\":2551:2556   */\n      0x00\n        /* \"#utility.yul\":2589:2595   */\n      dup2\n        /* \"#utility.yul\":2576:2596   */\n      calldataload\n        /* \"#utility.yul\":2567:2596   */\n      swap1\n      pop\n        /* \"#utility.yul\":2605:2638   */\n      tag_184\n        /* \"#utility.yul\":2632:2637   */\n      dup2\n        /* \"#utility.yul\":2605:2638   */\n      tag_122\n      jump\t// in\n    tag_184:\n        /* \"#utility.yul\":2505:2644   */\n      swap3\n      swap2\n      pop\n      pop\n      jump\t// out\n        /* \"#utility.yul\":2650:2979   */\n    tag_30:\n        /* \"#utility.yul\":2709:2715   */\n      0x00\n        /* \"#utility.yul\":2758:2760   */\n      0x20\n        /* \"#utility.yul\":2746:2755   */\n      dup3\n        /* \"#utility.yul\":2737:2744   */\n      dup5\n        /* \"#utility.yul\":2733:2756   */\n      sub\n        /* \"#utility.yul\":2729:2761   */\n      slt\n        /* \"#utility.yul\":2726:2845   */\n      iszero\n      tag_186\n      jumpi\n        /* \"#utility.yul\":2764:2843   */\n      tag_187\n      tag_111\n      jump\t// in\n    tag_187:\n        /* \"#utility.yul\":2726:2845   */\n    tag_186:\n        /* \"#utility.yul\":2884:2885   */\n      0x00\n        /* \"#utility.yul\":2909:2962   */\n      tag_188\n        /* \"#utility.yul\":2954:2961   */\n      dup5\n        /* \"#utility.yul\":2945:2951   */\n      dup3\n        /* \"#utility.yul\":2934:2943   */\n      dup6\n        /* \"#utility.yul\":2930:2952   */\n      add\n        /* \"#utility.yul\":2909:2962   */\n      tag_123\n      jump\t// in\n    tag_188:\n        /* \"#utility.yul\":2899:2962   */\n      swap2\n      pop\n        /* \"#utility.yul\":2855:2972   */\n      pop\n        /* \"#utility.yul\":2650:2979   */\n      swap3\n      swap2\n      pop\n      pop\n      jump\t// out\n        /* \"#utility.yul\":2985:3099   */\n    tag_124:\n        /* \"#utility.yul\":3052:3058   */\n      0x00\n        /* \"#utility.yul\":3086:3091   */\n      dup2\n        /* \"#utility.yul\":3080:3092   */\n      mload\n        /* \"#utility.yul\":3070:3092   */\n      swap1\n      pop\n        /* \"#utility.yul\":2985:3099   */\n      swap2\n      swap1\n      pop\n      jump\t// out\n        /* \"#utility.yul\":3105:3289   */\n    tag_125:\n        /* \"#utility.yul\":3204:3215   */\n      0x00\n        /* \"#utility.yul\":3238:3244   */\n      dup3\n        /* \"#utility.yul\":3233:3236   */\n      dup3\n        /* \"#utility.yul\":3226:3245   */\n      mstore\n        /* \"#utility.yul\":3278:3282   */\n      0x20\n        /* \"#utility.yul\":3273:3276   */\n      dup3\n        /* \"#utility.yul\":3269:3283   */\n      add\n        /* \"#utility.yul\":3254:3283   */\n      swap1\n      pop\n        /* \"#utility.yul\":3105:3289   */\n      swap3\n      swap2\n      pop\n      pop\n      jump\t// out\n        /* \"#utility.yul\":3295:3427   */\n    tag_126:\n        /* \"#utility.yul\":3362:3366   */\n      0x00\n        /* \"#utility.yul\":3385:3388   */\n      dup2\n        /* \"#utility.yul\":3377:3388   */\n      swap1\n      pop\n        /* \"#utility.yul\":3415:3419   */\n      0x20\n        /* \"#utility.yul\":3410:3413   */\n      dup3\n        /* \"#utility.yul\":3406:3420   */\n      add\n        /* \"#utility.yul\":3398:3420   */\n      swap1\n      pop\n        /* \"#utility.yul\":3295:3427   */\n      swap2\n      swap1\n      pop\n      jump\t// out\n        /* \"#utility.yul\":3433:3541   */\n    tag_127:\n        /* \"#utility.yul\":3510:3534   */\n      tag_193\n        /* \"#utility.yul\":3528:3533   */\n      dup2\n        /* \"#utility.yul\":3510:3534   */\n      tag_117\n      jump\t// in\n    tag_193:\n        /* \"#utility.yul\":3505:3508   */\n      dup3\n        /* \"#utility.yul\":3498:3535   */\n      mstore\n        /* \"#utility.yul\":3433:3541   */\n      pop\n      pop\n      jump\t// out\n        /* \"#utility.yul\":3547:3726   */\n    tag_128:\n        /* \"#utility.yul\":3616:3626   */\n      0x00\n        /* \"#utility.yul\":3637:3683   */\n      tag_195\n        /* \"#utility.yul\":3679:3682   */\n      dup4\n        /* \"#utility.yul\":3671:3677   */\n      dup4\n        /* \"#utility.yul\":3637:3683   */\n      tag_127\n      jump\t// in\n    tag_195:\n        /* \"#utility.yul\":3715:3719   */\n      0x20\n        /* \"#utility.yul\":3710:3713   */\n      dup4\n        /* \"#utility.yul\":3706:3720   */\n      add\n        /* \"#utility.yul\":3692:3720   */\n      swap1\n      pop\n        /* \"#utility.yul\":3547:3726   */\n      swap3\n      swap2\n      pop\n      pop\n      jump\t// out\n        /* \"#utility.yul\":3732:3845   */\n    tag_129:\n        /* \"#utility.yul\":3802:3806   */\n      0x00\n        /* \"#utility.yul\":3834:3838   */\n      0x20\n        /* \"#utility.yul\":3829:3832   */\n      dup3\n        /* \"#utility.yul\":3825:3839   */\n      add\n        /* \"#utility.yul\":3817:3839   */\n      swap1\n      pop\n        /* \"#utility.yul\":3732:3845   */\n      swap2\n      swap1\n      pop\n      jump\t// out\n        /* \"#utility.yul\":3881:4613   */\n    tag_130:\n        /* \"#utility.yul\":4000:4003   */\n      0x00\n        /* \"#utility.yul\":4029:4083   */\n      tag_198\n        /* \"#utility.yul\":4077:4082   */\n      dup3\n        /* \"#utility.yul\":4029:4083   */\n      tag_124\n      jump\t// in\n    tag_198:\n        /* \"#utility.yul\":4099:4185   */\n      tag_199\n        /* \"#utility.yul\":4178:4184   */\n      dup2\n        /* \"#utility.yul\":4173:4176   */\n      dup6\n        /* \"#utility.yul\":4099:4185   */\n      tag_125\n      jump\t// in\n    tag_199:\n        /* \"#utility.yul\":4092:4185   */\n      swap4\n      pop\n        /* \"#utility.yul\":4209:4265   */\n      tag_200\n        /* \"#utility.yul\":4259:4264   */\n      dup4\n        /* \"#utility.yul\":4209:4265   */\n      tag_126\n      jump\t// in\n    tag_200:\n        /* \"#utility.yul\":4288:4295   */\n      dup1\n        /* \"#utility.yul\":4319:4320   */\n      0x00\n        /* \"#utility.yul\":4304:4588   */\n    tag_201:\n        /* \"#utility.yul\":4329:4335   */\n      dup4\n        /* \"#utility.yul\":4326:4327   */\n      dup2\n        /* \"#utility.yul\":4323:4336   */\n      lt\n        /* \"#utility.yul\":4304:4588   */\n      iszero\n      tag_203\n      jumpi\n        /* \"#utility.yul\":4405:4411   */\n      dup2\n        /* \"#utility.yul\":4399:4412   */\n      mload\n        /* \"#utility.yul\":4432:4495   */\n      tag_204\n        /* \"#utility.yul\":4491:4494   */\n      dup9\n        /* \"#utility.yul\":4476:4489   */\n      dup3\n        /* \"#utility.yul\":4432:4495   */\n      tag_128\n      jump\t// in\n    tag_204:\n        /* \"#utility.yul\":4425:4495   */\n      swap8\n      pop\n        /* \"#utility.yul\":4518:4578   */\n      tag_205\n        /* \"#utility.yul\":4571:4577   */\n      dup4\n        /* \"#utility.yul\":4518:4578   */\n      tag_129\n      jump\t// in\n    tag_205:\n        /* \"#utility.yul\":4508:4578   */\n      swap3\n      pop\n        /* \"#utility.yul\":4364:4588   */\n      pop\n        /* \"#utility.yul\":4351:4352   */\n      0x01\n        /* \"#utility.yul\":4348:4349   */\n      dup2\n        /* \"#utility.yul\":4344:4353   */\n      add\n        /* \"#utility.yul\":4339:4353   */\n      swap1\n      pop\n        /* \"#utility.yul\":4304:4588   */\n      jump(tag_201)\n    tag_203:\n        /* \"#utility.yul\":4308:4322   */\n      pop\n        /* \"#utility.yul\":4604:4607   */\n      dup6\n        /* \"#utility.yul\":4597:4607   */\n      swap4\n      pop\n        /* \"#utility.yul\":4005:4613   */\n      pop\n      pop\n      pop\n        /* \"#utility.yul\":3881:4613   */\n      swap3\n      swap2\n      pop\n      pop\n      jump\t// out\n        /* \"#utility.yul\":4619:4992   */\n    tag_38:\n        /* \"#utility.yul\":4762:4766   */\n      0x00\n        /* \"#utility.yul\":4800:4802   */\n      0x20\n        /* \"#utility.yul\":4789:4798   */\n      dup3\n        /* \"#utility.yul\":4785:4803   */\n      add\n        /* \"#utility.yul\":4777:4803   */\n      swap1\n      pop\n        /* \"#utility.yul\":4849:4858   */\n      dup2\n        /* \"#utility.yul\":4843:4847   */\n      dup2\n        /* \"#utility.yul\":4839:4859   */\n      sub\n        /* \"#utility.yul\":4835:4836   */\n      0x00\n        /* \"#utility.yul\":4824:4833   */\n      dup4\n        /* \"#utility.yul\":4820:4837   */\n      add\n        /* \"#utility.yul\":4813:4860   */\n      mstore\n        /* \"#utility.yul\":4877:4985   */\n      tag_207\n        /* \"#utility.yul\":4980:4984   */\n      dup2\n        /* \"#utility.yul\":4971:4977   */\n      dup5\n        /* \"#utility.yul\":4877:4985   */\n      tag_130\n      jump\t// in\n    tag_207:\n        /* \"#utility.yul\":4869:4985   */\n      swap1\n      pop\n        /* \"#utility.yul\":4619:4992   */\n      swap3\n      swap2\n      pop\n      pop\n      jump\t// out\n        /* \"#utility.yul\":4998:5088   */\n    tag_131:\n        /* \"#utility.yul\":5032:5039   */\n      0x00\n        /* \"#utility.yul\":5075:5080   */\n      dup2\n        /* \"#utility.yul\":5068:5081   */\n      iszero\n        /* \"#utility.yul\":5061:5082   */\n      iszero\n        /* \"#utility.yul\":5050:5082   */\n      swap1\n      pop\n        /* \"#utility.yul\":4998:5088   */\n      swap2\n      swap1\n      pop\n      jump\t// out\n        /* \"#utility.yul\":5094:5203   */\n    tag_132:\n        /* \"#utility.yul\":5175:5196   */\n      tag_210\n        /* \"#utility.yul\":5190:5195   */\n      dup2\n        /* \"#utility.yul\":5175:5196   */\n      tag_131\n      jump\t// in\n    tag_210:\n        /* \"#utility.yul\":5170:5173   */\n      dup3\n        /* \"#utility.yul\":5163:5197   */\n      mstore\n        /* \"#utility.yul\":5094:5203   */\n      pop\n      pop\n      jump\t// out\n        /* \"#utility.yul\":5209:5419   */\n    tag_48:\n        /* \"#utility.yul\":5296:5300   */\n      0x00\n        /* \"#utility.yul\":5334:5336   */\n      0x20\n        /* \"#utility.yul\":5323:5332   */\n      dup3\n        /* \"#utility.yul\":5319:5337   */\n      add\n        /* \"#utility.yul\":5311:5337   */\n      swap1\n      pop\n        /* \"#utility.yul\":5347:5412   */\n      tag_212\n        /* \"#utility.yul\":5409:5410   */\n      0x00\n        /* \"#utility.yul\":5398:5407   */\n      dup4\n        /* \"#utility.yul\":5394:5411   */\n      add\n        /* \"#utility.yul\":5385:5391   */\n      dup5\n        /* \"#utility.yul\":5347:5412   */\n      tag_132\n      jump\t// in\n    tag_212:\n        /* \"#utility.yul\":5209:5419   */\n      swap3\n      swap2\n      pop\n      pop\n      jump\t// out\n        /* \"#utility.yul\":5425:5594   */\n    tag_133:\n        /* \"#utility.yul\":5509:5520   */\n      0x00\n        /* \"#utility.yul\":5543:5549   */\n      dup3\n        /* \"#utility.yul\":5538:5541   */\n      dup3\n        /* \"#utility.yul\":5531:5550   */\n      mstore\n        /* \"#utility.yul\":5583:5587   */\n      0x20\n        /* \"#utility.yul\":5578:5581   */\n      dup3\n        /* \"#utility.yul\":5574:5588   */\n      add\n        /* \"#utility.yul\":5559:5588   */\n      swap1\n      pop\n        /* \"#utility.yul\":5425:5594   */\n      swap3\n      swap2\n      pop\n      pop\n      jump\t// out\n        /* \"#utility.yul\":5600:5781   */\n    tag_134:\n        /* \"#utility.yul\":5740:5773   */\n      0x4f6e6c7920746865206f776e65722063616e206772616e742061636365737300\n        /* \"#utility.yul\":5736:5737   */\n      0x00\n        /* \"#utility.yul\":5728:5734   */\n      dup3\n        /* \"#utility.yul\":5724:5738   */\n      add\n        /* \"#utility.yul\":5717:5774   */\n      mstore\n        /* \"#utility.yul\":5600:5781   */\n      pop\n      jump\t// out\n        /* \"#utility.yul\":5787:6153   */\n    tag_135:\n        /* \"#utility.yul\":5929:5932   */\n      0x00\n        /* \"#utility.yul\":5950:6017   */\n      tag_216\n        /* \"#utility.yul\":6014:6016   */\n      0x1f\n        /* \"#utility.yul\":6009:6012   */\n      dup4\n        /* \"#utility.yul\":5950:6017   */\n      tag_133\n      jump\t// in\n    tag_216:\n        /* \"#utility.yul\":5943:6017   */\n      swap2\n      pop\n        /* \"#utility.yul\":6026:6119   */\n      tag_217\n        /* \"#utility.yul\":6115:6118   */\n      dup3\n        /* \"#utility.yul\":6026:6119   */\n      tag_134\n      jump\t// in\n    tag_217:\n        /* \"#utility.yul\":6144:6146   */\n      0x20\n        /* \"#utility.yul\":6139:6142   */\n      dup3\n        /* \"#utility.yul\":6135:6147   */\n      add\n        /* \"#utility.yul\":6128:6147   */\n      swap1\n      pop\n        /* \"#utility.yul\":5787:6153   */\n      swap2\n      swap1\n      pop\n      jump\t// out\n        /* \"#utility.yul\":6159:6578   */\n    tag_68:\n        /* \"#utility.yul\":6325:6329   */\n      0x00\n        /* \"#utility.yul\":6363:6365   */\n      0x20\n        /* \"#utility.yul\":6352:6361   */\n      dup3\n        /* \"#utility.yul\":6348:6366   */\n      add\n        /* \"#utility.yul\":6340:6366   */\n      swap1\n      pop\n        /* \"#utility.yul\":6412:6421   */\n      dup2\n        /* \"#utility.yul\":6406:6410   */\n      dup2\n        /* \"#utility.yul\":6402:6422   */\n      sub\n        /* \"#utility.yul\":6398:6399   */\n      0x00\n        /* \"#utility.yul\":6387:6396   */\n      dup4\n        /* \"#utility.yul\":6383:6400   */\n      add\n        /* \"#utility.yul\":6376:6423   */\n      mstore\n        /* \"#utility.yul\":6440:6571   */\n      tag_219\n        /* \"#utility.yul\":6566:6570   */\n      dup2\n        /* \"#utility.yul\":6440:6571   */\n      tag_135\n      jump\t// in\n    tag_219:\n        /* \"#utility.yul\":6432:6571   */\n      swap1\n      pop\n        /* \"#utility.yul\":6159:6578   */\n      swap2\n      swap1\n      pop\n      jump\t// out\n        /* \"#utility.yul\":6584:6765   */\n    tag_136:\n        /* \"#utility.yul\":6724:6757   */\n      0x4f6e6c79204f6666696369616c732063616e2070726f706f7365206c61777300\n        /* \"#utility.yul\":6720:6721   */\n      0x00\n        /* \"#utility.yul\":6712:6718   */\n      dup3\n        /* \"#utility.yul\":6708:6722   */\n      add\n        /* \"#utility.yul\":6701:6758   */\n      mstore\n        /* \"#utility.yul\":6584:6765   */\n      pop\n      jump\t// out\n        /* \"#utility.yul\":6771:7137   */\n    tag_137:\n        /* \"#utility.yul\":6913:6916   */\n      0x00\n        /* \"#utility.yul\":6934:7001   */\n      tag_222\n        /* \"#utility.yul\":6998:7000   */\n      0x1f\n        /* \"#utility.yul\":6993:6996   */\n      dup4\n        /* \"#utility.yul\":6934:7001   */\n      tag_133\n      jump\t// in\n    tag_222:\n        /* \"#utility.yul\":6927:7001   */\n      swap2\n      pop\n        /* \"#utility.yul\":7010:7103   */\n      tag_223\n        /* \"#utility.yul\":7099:7102   */\n      dup3\n        /* \"#utility.yul\":7010:7103   */\n      tag_136\n      jump\t// in\n    tag_223:\n        /* \"#utility.yul\":7128:7130   */\n      0x20\n        /* \"#utility.yul\":7123:7126   */\n      dup3\n        /* \"#utility.yul\":7119:7131   */\n      add\n        /* \"#utility.yul\":7112:7131   */\n      swap1\n      pop\n        /* \"#utility.yul\":6771:7137   */\n      swap2\n      swap1\n      pop\n      jump\t// out\n        /* \"#utility.yul\":7143:7562   */\n    tag_72:\n        /* \"#utility.yul\":7309:7313   */\n      0x00\n        /* \"#utility.yul\":7347:7349   */\n      0x20\n        /* \"#utility.yul\":7336:7345   */\n      dup3\n        /* \"#utility.yul\":7332:7350   */\n      add\n        /* \"#utility.yul\":7324:7350   */\n      swap1\n      pop\n        /* \"#utility.yul\":7396:7405   */\n      dup2\n        /* \"#utility.yul\":7390:7394   */\n      dup2\n        /* \"#utility.yul\":7386:7406   */\n      sub\n        /* \"#utility.yul\":7382:7383   */\n      0x00\n        /* \"#utility.yul\":7371:7380   */\n      dup4\n        /* \"#utility.yul\":7367:7384   */\n      add\n        /* \"#utility.yul\":7360:7407   */\n      mstore\n        /* \"#utility.yul\":7424:7555   */\n      tag_225\n        /* \"#utility.yul\":7550:7554   */\n      dup2\n        /* \"#utility.yul\":7424:7555   */\n      tag_137\n      jump\t// in\n    tag_225:\n        /* \"#utility.yul\":7416:7555   */\n      swap1\n      pop\n        /* \"#utility.yul\":7143:7562   */\n      swap2\n      swap1\n      pop\n      jump\t// out\n        /* \"#utility.yul\":7568:7802   */\n    tag_138:\n        /* \"#utility.yul\":7708:7742   */\n      0x43616e6e6f7420726567697374657220617320436974697a656e2c20416c7265\n        /* \"#utility.yul\":7704:7705   */\n      0x00\n        /* \"#utility.yul\":7696:7702   */\n      dup3\n        /* \"#utility.yul\":7692:7706   */\n      add\n        /* \"#utility.yul\":7685:7743   */\n      mstore\n        /* \"#utility.yul\":7777:7794   */\n      0x61647920616e206f6666696369616c0000000000000000000000000000000000\n        /* \"#utility.yul\":7772:7774   */\n      0x20\n        /* \"#utility.yul\":7764:7770   */\n      dup3\n        /* \"#utility.yul\":7760:7775   */\n      add\n        /* \"#utility.yul\":7753:7795   */\n      mstore\n        /* \"#utility.yul\":7568:7802   */\n      pop\n      jump\t// out\n        /* \"#utility.yul\":7808:8174   */\n    tag_139:\n        /* \"#utility.yul\":7950:7953   */\n      0x00\n        /* \"#utility.yul\":7971:8038   */\n      tag_228\n        /* \"#utility.yul\":8035:8037   */\n      0x2f\n        /* \"#utility.yul\":8030:8033   */\n      dup4\n        /* \"#utility.yul\":7971:8038   */\n      tag_133\n      jump\t// in\n    tag_228:\n        /* \"#utility.yul\":7964:8038   */\n      swap2\n      pop\n        /* \"#utility.yul\":8047:8140   */\n      tag_229\n        /* \"#utility.yul\":8136:8139   */\n      dup3\n        /* \"#utility.yul\":8047:8140   */\n      tag_138\n      jump\t// in\n    tag_229:\n        /* \"#utility.yul\":8165:8167   */\n      0x40\n        /* \"#utility.yul\":8160:8163   */\n      dup3\n        /* \"#utility.yul\":8156:8168   */\n      add\n        /* \"#utility.yul\":8149:8168   */\n      swap1\n      pop\n        /* \"#utility.yul\":7808:8174   */\n      swap2\n      swap1\n      pop\n      jump\t// out\n        /* \"#utility.yul\":8180:8599   */\n    tag_82:\n        /* \"#utility.yul\":8346:8350   */\n      0x00\n        /* \"#utility.yul\":8384:8386   */\n      0x20\n        /* \"#utility.yul\":8373:8382   */\n      dup3\n        /* \"#utility.yul\":8369:8387   */\n      add\n        /* \"#utility.yul\":8361:8387   */\n      swap1\n      pop\n        /* \"#utility.yul\":8433:8442   */\n      dup2\n        /* \"#utility.yul\":8427:8431   */\n      dup2\n        /* \"#utility.yul\":8423:8443   */\n      sub\n        /* \"#utility.yul\":8419:8420   */\n      0x00\n        /* \"#utility.yul\":8408:8417   */\n      dup4\n        /* \"#utility.yul\":8404:8421   */\n      add\n        /* \"#utility.yul\":8397:8444   */\n      mstore\n        /* \"#utility.yul\":8461:8592   */\n      tag_231\n        /* \"#utility.yul\":8587:8591   */\n      dup2\n        /* \"#utility.yul\":8461:8592   */\n      tag_139\n      jump\t// in\n    tag_231:\n        /* \"#utility.yul\":8453:8592   */\n      swap1\n      pop\n        /* \"#utility.yul\":8180:8599   */\n      swap2\n      swap1\n      pop\n      jump\t// out\n        /* \"#utility.yul\":8605:8776   */\n    tag_140:\n        /* \"#utility.yul\":8745:8768   */\n      0x4f6666696369616c732063616e6e6f7420766f74650000000000000000000000\n        /* \"#utility.yul\":8741:8742   */\n      0x00\n        /* \"#utility.yul\":8733:8739   */\n      dup3\n        /* \"#utility.yul\":8729:8743   */\n      add\n        /* \"#utility.yul\":8722:8769   */\n      mstore\n        /* \"#utility.yul\":8605:8776   */\n      pop\n      jump\t// out\n        /* \"#utility.yul\":8782:9148   */\n    tag_141:\n        /* \"#utility.yul\":8924:8927   */\n      0x00\n        /* \"#utility.yul\":8945:9012   */\n      tag_234\n        /* \"#utility.yul\":9009:9011   */\n      0x15\n        /* \"#utility.yul\":9004:9007   */\n      dup4\n        /* \"#utility.yul\":8945:9012   */\n      tag_133\n      jump\t// in\n    tag_234:\n        /* \"#utility.yul\":8938:9012   */\n      swap2\n      pop\n        /* \"#utility.yul\":9021:9114   */\n      tag_235\n        /* \"#utility.yul\":9110:9113   */\n      dup3\n        /* \"#utility.yul\":9021:9114   */\n      tag_140\n      jump\t// in\n    tag_235:\n        /* \"#utility.yul\":9139:9141   */\n      0x20\n        /* \"#utility.yul\":9134:9137   */\n      dup3\n        /* \"#utility.yul\":9130:9142   */\n      add\n        /* \"#utility.yul\":9123:9142   */\n      swap1\n      pop\n        /* \"#utility.yul\":8782:9148   */\n      swap2\n      swap1\n      pop\n      jump\t// out\n        /* \"#utility.yul\":9154:9573   */\n    tag_87:\n        /* \"#utility.yul\":9320:9324   */\n      0x00\n        /* \"#utility.yul\":9358:9360   */\n      0x20\n        /* \"#utility.yul\":9347:9356   */\n      dup3\n        /* \"#utility.yul\":9343:9361   */\n      add\n        /* \"#utility.yul\":9335:9361   */\n      swap1\n      pop\n        /* \"#utility.yul\":9407:9416   */\n      dup2\n        /* \"#utility.yul\":9401:9405   */\n      dup2\n        /* \"#utility.yul\":9397:9417   */\n      sub\n        /* \"#utility.yul\":9393:9394   */\n      0x00\n        /* \"#utility.yul\":9382:9391   */\n      dup4\n        /* \"#utility.yul\":9378:9395   */\n      add\n        /* \"#utility.yul\":9371:9418   */\n      mstore\n        /* \"#utility.yul\":9435:9566   */\n      tag_237\n        /* \"#utility.yul\":9561:9565   */\n      dup2\n        /* \"#utility.yul\":9435:9566   */\n      tag_141\n      jump\t// in\n    tag_237:\n        /* \"#utility.yul\":9427:9566   */\n      swap1\n      pop\n        /* \"#utility.yul\":9154:9573   */\n      swap2\n      swap1\n      pop\n      jump\t// out\n        /* \"#utility.yul\":9579:9806   */\n    tag_142:\n        /* \"#utility.yul\":9719:9753   */\n      0x4f6e6c7920746865206f776e65722063616e2064657374726f79207468697320\n        /* \"#utility.yul\":9715:9716   */\n      0x00\n        /* \"#utility.yul\":9707:9713   */\n      dup3\n        /* \"#utility.yul\":9703:9717   */\n      add\n        /* \"#utility.yul\":9696:9754   */\n      mstore\n        /* \"#utility.yul\":9788:9798   */\n      0x636f6e7472616374000000000000000000000000000000000000000000000000\n        /* \"#utility.yul\":9783:9785   */\n      0x20\n        /* \"#utility.yul\":9775:9781   */\n      dup3\n        /* \"#utility.yul\":9771:9786   */\n      add\n        /* \"#utility.yul\":9764:9799   */\n      mstore\n        /* \"#utility.yul\":9579:9806   */\n      pop\n      jump\t// out\n        /* \"#utility.yul\":9812:10178   */\n    tag_143:\n        /* \"#utility.yul\":9954:9957   */\n      0x00\n        /* \"#utility.yul\":9975:10042   */\n      tag_240\n        /* \"#utility.yul\":10039:10041   */\n      0x28\n        /* \"#utility.yul\":10034:10037   */\n      dup4\n        /* \"#utility.yul\":9975:10042   */\n      tag_133\n      jump\t// in\n    tag_240:\n        /* \"#utility.yul\":9968:10042   */\n      swap2\n      pop\n        /* \"#utility.yul\":10051:10144   */\n      tag_241\n        /* \"#utility.yul\":10140:10143   */\n      dup3\n        /* \"#utility.yul\":10051:10144   */\n      tag_142\n      jump\t// in\n    tag_241:\n        /* \"#utility.yul\":10169:10171   */\n      0x40\n        /* \"#utility.yul\":10164:10167   */\n      dup3\n        /* \"#utility.yul\":10160:10172   */\n      add\n        /* \"#utility.yul\":10153:10172   */\n      swap1\n      pop\n        /* \"#utility.yul\":9812:10178   */\n      swap2\n      swap1\n      pop\n      jump\t// out\n        /* \"#utility.yul\":10184:10603   */\n    tag_93:\n        /* \"#utility.yul\":10350:10354   */\n      0x00\n        /* \"#utility.yul\":10388:10390   */\n      0x20\n        /* \"#utility.yul\":10377:10386   */\n      dup3\n        /* \"#utility.yul\":10373:10391   */\n      add\n        /* \"#utility.yul\":10365:10391   */\n      swap1\n      pop\n        /* \"#utility.yul\":10437:10446   */\n      dup2\n        /* \"#utility.yul\":10431:10435   */\n      dup2\n        /* \"#utility.yul\":10427:10447   */\n      sub\n        /* \"#utility.yul\":10423:10424   */\n      0x00\n        /* \"#utility.yul\":10412:10421   */\n      dup4\n        /* \"#utility.yul\":10408:10425   */\n      add\n        /* \"#utility.yul\":10401:10448   */\n      mstore\n        /* \"#utility.yul\":10465:10596   */\n      tag_243\n        /* \"#utility.yul\":10591:10595   */\n      dup2\n        /* \"#utility.yul\":10465:10596   */\n      tag_143\n      jump\t// in\n    tag_243:\n        /* \"#utility.yul\":10457:10596   */\n      swap1\n      pop\n        /* \"#utility.yul\":10184:10603   */\n      swap2\n      swap1\n      pop\n      jump\t// out\n        /* \"#utility.yul\":10609:10791   */\n    tag_144:\n        /* \"#utility.yul\":10749:10783   */\n      0x4f6e6c7920746865206f776e65722063616e207265766f6b6520616363657373\n        /* \"#utility.yul\":10745:10746   */\n      0x00\n        /* \"#utility.yul\":10737:10743   */\n      dup3\n        /* \"#utility.yul\":10733:10747   */\n      add\n        /* \"#utility.yul\":10726:10784   */\n      mstore\n        /* \"#utility.yul\":10609:10791   */\n      pop\n      jump\t// out\n        /* \"#utility.yul\":10797:11163   */\n    tag_145:\n        /* \"#utility.yul\":10939:10942   */\n      0x00\n        /* \"#utility.yul\":10960:11027   */\n      tag_246\n        /* \"#utility.yul\":11024:11026   */\n      0x20\n        /* \"#utility.yul\":11019:11022   */\n      dup4\n        /* \"#utility.yul\":10960:11027   */\n      tag_133\n      jump\t// in\n    tag_246:\n        /* \"#utility.yul\":10953:11027   */\n      swap2\n      pop\n        /* \"#utility.yul\":11036:11129   */\n      tag_247\n        /* \"#utility.yul\":11125:11128   */\n      dup3\n        /* \"#utility.yul\":11036:11129   */\n      tag_144\n      jump\t// in\n    tag_247:\n        /* \"#utility.yul\":11154:11156   */\n      0x20\n        /* \"#utility.yul\":11149:11152   */\n      dup3\n        /* \"#utility.yul\":11145:11157   */\n      add\n        /* \"#utility.yul\":11138:11157   */\n      swap1\n      pop\n        /* \"#utility.yul\":10797:11163   */\n      swap2\n      swap1\n      pop\n      jump\t// out\n        /* \"#utility.yul\":11169:11588   */\n    tag_97:\n        /* \"#utility.yul\":11335:11339   */\n      0x00\n        /* \"#utility.yul\":11373:11375   */\n      0x20\n        /* \"#utility.yul\":11362:11371   */\n      dup3\n        /* \"#utility.yul\":11358:11376   */\n      add\n        /* \"#utility.yul\":11350:11376   */\n      swap1\n      pop\n        /* \"#utility.yul\":11422:11431   */\n      dup2\n        /* \"#utility.yul\":11416:11420   */\n      dup2\n        /* \"#utility.yul\":11412:11432   */\n      sub\n        /* \"#utility.yul\":11408:11409   */\n      0x00\n        /* \"#utility.yul\":11397:11406   */\n      dup4\n        /* \"#utility.yul\":11393:11410   */\n      add\n        /* \"#utility.yul\":11386:11433   */\n      mstore\n        /* \"#utility.yul\":11450:11581   */\n      tag_249\n        /* \"#utility.yul\":11576:11580   */\n      dup2\n        /* \"#utility.yul\":11450:11581   */\n      tag_145\n      jump\t// in\n    tag_249:\n        /* \"#utility.yul\":11442:11581   */\n      swap1\n      pop\n        /* \"#utility.yul\":11169:11588   */\n      swap2\n      swap1\n      pop\n      jump\t// out\n        /* \"#utility.yul\":11594:11823   */\n    tag_146:\n        /* \"#utility.yul\":11734:11768   */\n      0x43616e6e6f74207265766f6b652061636365737320666f722074686520637572\n        /* \"#utility.yul\":11730:11731   */\n      0x00\n        /* \"#utility.yul\":11722:11728   */\n      dup3\n        /* \"#utility.yul\":11718:11732   */\n      add\n        /* \"#utility.yul\":11711:11769   */\n      mstore\n        /* \"#utility.yul\":11803:11815   */\n      0x72656e74206f776e657200000000000000000000000000000000000000000000\n        /* \"#utility.yul\":11798:11800   */\n      0x20\n        /* \"#utility.yul\":11790:11796   */\n      dup3\n        /* \"#utility.yul\":11786:11801   */\n      add\n        /* \"#utility.yul\":11779:11816   */\n      mstore\n        /* \"#utility.yul\":11594:11823   */\n      pop\n      jump\t// out\n        /* \"#utility.yul\":11829:12195   */\n    tag_147:\n        /* \"#utility.yul\":11971:11974   */\n      0x00\n        /* \"#utility.yul\":11992:12059   */\n      tag_252\n        /* \"#utility.yul\":12056:12058   */\n      0x2a\n        /* \"#utility.yul\":12051:12054   */\n      dup4\n        /* \"#utility.yul\":11992:12059   */\n      tag_133\n      jump\t// in\n    tag_252:\n        /* \"#utility.yul\":11985:12059   */\n      swap2\n      pop\n        /* \"#utility.yul\":12068:12161   */\n      tag_253\n        /* \"#utility.yul\":12157:12160   */\n      dup3\n        /* \"#utility.yul\":12068:12161   */\n      tag_146\n      jump\t// in\n    tag_253:\n        /* \"#utility.yul\":12186:12188   */\n      0x40\n        /* \"#utility.yul\":12181:12184   */\n      dup3\n        /* \"#utility.yul\":12177:12189   */\n      add\n        /* \"#utility.yul\":12170:12189   */\n      swap1\n      pop\n        /* \"#utility.yul\":11829:12195   */\n      swap2\n      swap1\n      pop\n      jump\t// out\n        /* \"#utility.yul\":12201:12620   */\n    tag_100:\n        /* \"#utility.yul\":12367:12371   */\n      0x00\n        /* \"#utility.yul\":12405:12407   */\n      0x20\n        /* \"#utility.yul\":12394:12403   */\n      dup3\n        /* \"#utility.yul\":12390:12408   */\n      add\n        /* \"#utility.yul\":12382:12408   */\n      swap1\n      pop\n        /* \"#utility.yul\":12454:12463   */\n      dup2\n        /* \"#utility.yul\":12448:12452   */\n      dup2\n        /* \"#utility.yul\":12444:12464   */\n      sub\n        /* \"#utility.yul\":12440:12441   */\n      0x00\n        /* \"#utility.yul\":12429:12438   */\n      dup4\n        /* \"#utility.yul\":12425:12442   */\n      add\n        /* \"#utility.yul\":12418:12465   */\n      mstore\n        /* \"#utility.yul\":12482:12613   */\n      tag_255\n        /* \"#utility.yul\":12608:12612   */\n      dup2\n        /* \"#utility.yul\":12482:12613   */\n      tag_147\n      jump\t// in\n    tag_255:\n        /* \"#utility.yul\":12474:12613   */\n      swap1\n      pop\n        /* \"#utility.yul\":12201:12620   */\n      swap2\n      swap1\n      pop\n      jump\t// out\n\n    auxdata: 0xa2646970667358221220b3cd8a616975b179a7a26a2d0cf39d599ff5bcfa3fa378dcebb0e0eb7b0e517664736f6c63430008160033\n}\n",
				"bytecode": {
					"linkReferences": {},
					"object": "608060405234801561000f575f80fd5b503360025f6101000a81548173ffffffffffffffffffffffffffffffffffffffff021916908373ffffffffffffffffffffffffffffffffffffffff1602179055506111598061005d5f395ff3fe608060405234801561000f575f80fd5b50600436106100cd575f3560e01c80636dd7d8ea1161008a57806385e685311161006457806385e68531146101d357806389907717146101ef57806397ad6afd146101f9578063eee8c7db14610229576100cd565b80636dd7d8ea1461017d57806377b81aac1461019957806383197ef0146101c9576100cd565b806309a34f00146100d15780630ae5e7391461010157806334c400e41461011d5780633f94ba371461013957806358bc73311461015557806362e36eb814610173575b5f80fd5b6100eb60048036038101906100e69190610b81565b610247565b6040516100f89190610beb565b60405180910390f35b61011b60048036038101906101169190610c3f565b610281565b005b61013760048036038101906101329190610c94565b610353565b005b610153600480360381019061014e9190610c94565b6103df565b005b61015d610471565b60405161016a9190610d76565b60405180910390f35b61017b6104fc565b005b61019760048036038101906101929190610c94565b6105e7565b005b6101b360048036038101906101ae9190610c94565b6106fd565b6040516101c09190610db0565b60405180910390f35b6101d161071a565b005b6101ed60048036038101906101e89190610c3f565b6107e3565b005b6101f7610944565b005b610213600480360381019061020e9190610b81565b610a85565b6040516102209190610beb565b60405180910390f35b610231610ac0565b60405161023e9190610d76565b60405180910390f35b5f8181548110610255575f80fd5b905f5260205f20015f915054906101000a900473ffffffffffffffffffffffffffffffffffffffff1681565b60025f9054906101000a900473ffffffffffffffffffffffffffffffffffffffff1673ffffffffffffffffffffffffffffffffffffffff163373ffffffffffffffffffffffffffffffffffffffff1614610310576040517f08c379a000000000000000000000000000000000000000000000000000000000815260040161030790610e23565b60405180910390fd5b8060025f6101000a81548173ffffffffffffffffffffffffffffffffffffffff021916908373ffffffffffffffffffffffffffffffffffffffff16021790555050565b60035f3373ffffffffffffffffffffffffffffffffffffffff1673ffffffffffffffffffffffffffffffffffffffff1681526020019081526020015f205f9054906101000a900460ff166103dc576040517f08c379a00000000000000000000000000000000000000000000000000000000081526004016103d390610e8b565b60405180910390fd5b50565b60025f9054906101000a900473ffffffffffffffffffffffffffffffffffffffff1673ffffffffffffffffffffffffffffffffffffffff163373ffffffffffffffffffffffffffffffffffffffff161461046e576040517f08c379a000000000000000000000000000000000000000000000000000000000815260040161046590610e8b565b60405180910390fd5b50565b606060018054806020026020016040519081016040528092919081815260200182805480156104f257602002820191905f5260205f20905b815f9054906101000a900473ffffffffffffffffffffffffffffffffffffffff1673ffffffffffffffffffffffffffffffffffffffff16815260200190600101908083116104a9575b5050505050905090565b60035f3373ffffffffffffffffffffffffffffffffffffffff1673ffffffffffffffffffffffffffffffffffffffff1681526020019081526020015f205f9054906101000a900460ff1615610586576040517f08c379a000000000000000000000000000000000000000000000000000000000815260040161057d90610f19565b60405180910390fd5b5f33908060018154018082558091505060019003905f5260205f20015f9091909190916101000a81548173ffffffffffffffffffffffffffffffffffffffff021916908373ffffffffffffffffffffffffffffffffffffffff160217905550565b60035f3373ffffffffffffffffffffffffffffffffffffffff1673ffffffffffffffffffffffffffffffffffffffff1681526020019081526020015f205f9054906101000a900460ff1615610671576040517f08c379a000000000000000000000000000000000000000000000000000000000815260040161066890610f81565b60405180910390fd5b60035f8273ffffffffffffffffffffffffffffffffffffffff1673ffffffffffffffffffffffffffffffffffffffff1681526020019081526020015f205f9054906101000a900460ff166106fa576040517f08c379a00000000000000000000000000000000000000000000000000000000081526004016106f190610f81565b60405180910390fd5b50565b6003602052805f5260405f205f915054906101000a900460ff1681565b60025f9054906101000a900473ffffffffffffffffffffffffffffffffffffffff1673ffffffffffffffffffffffffffffffffffffffff163373ffffffffffffffffffffffffffffffffffffffff16146107a9576040517f08c379a00000000000000000000000000000000000000000000000000000000081526004016107a09061100f565b60405180910390fd5b60025f9054906101000a900473ffffffffffffffffffffffffffffffffffffffff1673ffffffffffffffffffffffffffffffffffffffff16ff5b60025f9054906101000a900473ffffffffffffffffffffffffffffffffffffffff1673ffffffffffffffffffffffffffffffffffffffff163373ffffffffffffffffffffffffffffffffffffffff1614610872576040517f08c379a000000000000000000000000000000000000000000000000000000000815260040161086990611077565b60405180910390fd5b60025f9054906101000a900473ffffffffffffffffffffffffffffffffffffffff1673ffffffffffffffffffffffffffffffffffffffff168173ffffffffffffffffffffffffffffffffffffffff1603610901576040517f08c379a00000000000000000000000000000000000000000000000000000000081526004016108f890611105565b60405180910390fd5b3360025f6101000a81548173ffffffffffffffffffffffffffffffffffffffff021916908373ffffffffffffffffffffffffffffffffffffffff16021790555050565b60035f3373ffffffffffffffffffffffffffffffffffffffff1673ffffffffffffffffffffffffffffffffffffffff1681526020019081526020015f205f9054906101000a900460ff16156109ce576040517f08c379a00000000000000000000000000000000000000000000000000000000081526004016109c590610f19565b60405180910390fd5b600133908060018154018082558091505060019003905f5260205f20015f9091909190916101000a81548173ffffffffffffffffffffffffffffffffffffffff021916908373ffffffffffffffffffffffffffffffffffffffff160217905550600160035f3373ffffffffffffffffffffffffffffffffffffffff1673ffffffffffffffffffffffffffffffffffffffff1681526020019081526020015f205f6101000a81548160ff021916908315150217905550565b60018181548110610a94575f80fd5b905f5260205f20015f915054906101000a900473ffffffffffffffffffffffffffffffffffffffff1681565b60605f805480602002602001604051908101604052809291908181526020018280548015610b4057602002820191905f5260205f20905b815f9054906101000a900473ffffffffffffffffffffffffffffffffffffffff1673ffffffffffffffffffffffffffffffffffffffff1681526020019060010190808311610af7575b5050505050905090565b5f80fd5b5f819050919050565b610b6081610b4e565b8114610b6a575f80fd5b50565b5f81359050610b7b81610b57565b92915050565b5f60208284031215610b9657610b95610b4a565b5b5f610ba384828501610b6d565b91505092915050565b5f73ffffffffffffffffffffffffffffffffffffffff82169050919050565b5f610bd582610bac565b9050919050565b610be581610bcb565b82525050565b5f602082019050610bfe5f830184610bdc565b92915050565b5f610c0e82610bac565b9050919050565b610c1e81610c04565b8114610c28575f80fd5b50565b5f81359050610c3981610c15565b92915050565b5f60208284031215610c5457610c53610b4a565b5b5f610c6184828501610c2b565b91505092915050565b610c7381610bcb565b8114610c7d575f80fd5b50565b5f81359050610c8e81610c6a565b92915050565b5f60208284031215610ca957610ca8610b4a565b5b5f610cb684828501610c80565b91505092915050565b5f81519050919050565b5f82825260208201905092915050565b5f819050602082019050919050565b610cf181610bcb565b82525050565b5f610d028383610ce8565b60208301905092915050565b5f602082019050919050565b5f610d2482610cbf565b610d2e8185610cc9565b9350610d3983610cd9565b805f5b83811015610d69578151610d508882610cf7565b9750610d5b83610d0e565b925050600181019050610d3c565b5085935050505092915050565b5f6020820190508181035f830152610d8e8184610d1a565b905092915050565b5f8115159050919050565b610daa81610d96565b82525050565b5f602082019050610dc35f830184610da1565b92915050565b5f82825260208201905092915050565b7f4f6e6c7920746865206f776e65722063616e206772616e7420616363657373005f82015250565b5f610e0d601f83610dc9565b9150610e1882610dd9565b602082019050919050565b5f6020820190508181035f830152610e3a81610e01565b9050919050565b7f4f6e6c79204f6666696369616c732063616e2070726f706f7365206c617773005f82015250565b5f610e75601f83610dc9565b9150610e8082610e41565b602082019050919050565b5f6020820190508181035f830152610ea281610e69565b9050919050565b7f43616e6e6f7420726567697374657220617320436974697a656e2c20416c72655f8201527f61647920616e206f6666696369616c0000000000000000000000000000000000602082015250565b5f610f03602f83610dc9565b9150610f0e82610ea9565b604082019050919050565b5f6020820190508181035f830152610f3081610ef7565b9050919050565b7f4f6666696369616c732063616e6e6f7420766f746500000000000000000000005f82015250565b5f610f6b601583610dc9565b9150610f7682610f37565b602082019050919050565b5f6020820190508181035f830152610f9881610f5f565b9050919050565b7f4f6e6c7920746865206f776e65722063616e2064657374726f792074686973205f8201527f636f6e7472616374000000000000000000000000000000000000000000000000602082015250565b5f610ff9602883610dc9565b915061100482610f9f565b604082019050919050565b5f6020820190508181035f83015261102681610fed565b9050919050565b7f4f6e6c7920746865206f776e65722063616e207265766f6b65206163636573735f82015250565b5f611061602083610dc9565b915061106c8261102d565b602082019050919050565b5f6020820190508181035f83015261108e81611055565b9050919050565b7f43616e6e6f74207265766f6b652061636365737320666f7220746865206375725f8201527f72656e74206f776e657200000000000000000000000000000000000000000000602082015250565b5f6110ef602a83610dc9565b91506110fa82611095565b604082019050919050565b5f6020820190508181035f83015261111c816110e3565b905091905056fea2646970667358221220b3cd8a616975b179a7a26a2d0cf39d599ff5bcfa3fa378dcebb0e0eb7b0e517664736f6c63430008160033",
					"opcodes": "PUSH1 0x80 PUSH1 0x40 MSTORE CALLVALUE DUP1 ISZERO PUSH2 0xF JUMPI PUSH0 DUP1 REVERT JUMPDEST POP CALLER PUSH1 0x2 PUSH0 PUSH2 0x100 EXP DUP2 SLOAD DUP2 PUSH20 0xFFFFFFFFFFFFFFFFFFFFFFFFFFFFFFFFFFFFFFFF MUL NOT AND SWAP1 DUP4 PUSH20 0xFFFFFFFFFFFFFFFFFFFFFFFFFFFFFFFFFFFFFFFF AND MUL OR SWAP1 SSTORE POP PUSH2 0x1159 DUP1 PUSH2 0x5D PUSH0 CODECOPY PUSH0 RETURN INVALID PUSH1 0x80 PUSH1 0x40 MSTORE CALLVALUE DUP1 ISZERO PUSH2 0xF JUMPI PUSH0 DUP1 REVERT JUMPDEST POP PUSH1 0x4 CALLDATASIZE LT PUSH2 0xCD JUMPI PUSH0 CALLDATALOAD PUSH1 0xE0 SHR DUP1 PUSH4 0x6DD7D8EA GT PUSH2 0x8A JUMPI DUP1 PUSH4 0x85E68531 GT PUSH2 0x64 JUMPI DUP1 PUSH4 0x85E68531 EQ PUSH2 0x1D3 JUMPI DUP1 PUSH4 0x89907717 EQ PUSH2 0x1EF JUMPI DUP1 PUSH4 0x97AD6AFD EQ PUSH2 0x1F9 JUMPI DUP1 PUSH4 0xEEE8C7DB EQ PUSH2 0x229 JUMPI PUSH2 0xCD JUMP JUMPDEST DUP1 PUSH4 0x6DD7D8EA EQ PUSH2 0x17D JUMPI DUP1 PUSH4 0x77B81AAC EQ PUSH2 0x199 JUMPI DUP1 PUSH4 0x83197EF0 EQ PUSH2 0x1C9 JUMPI PUSH2 0xCD JUMP JUMPDEST DUP1 PUSH4 0x9A34F00 EQ PUSH2 0xD1 JUMPI DUP1 PUSH4 0xAE5E739 EQ PUSH2 0x101 JUMPI DUP1 PUSH4 0x34C400E4 EQ PUSH2 0x11D JUMPI DUP1 PUSH4 0x3F94BA37 EQ PUSH2 0x139 JUMPI DUP1 PUSH4 0x58BC7331 EQ PUSH2 0x155 JUMPI DUP1 PUSH4 0x62E36EB8 EQ PUSH2 0x173 JUMPI JUMPDEST PUSH0 DUP1 REVERT JUMPDEST PUSH2 0xEB PUSH1 0x4 DUP1 CALLDATASIZE SUB DUP2 ADD SWAP1 PUSH2 0xE6 SWAP2 SWAP1 PUSH2 0xB81 JUMP JUMPDEST PUSH2 0x247 JUMP JUMPDEST PUSH1 0x40 MLOAD PUSH2 0xF8 SWAP2 SWAP1 PUSH2 0xBEB JUMP JUMPDEST PUSH1 0x40 MLOAD DUP1 SWAP2 SUB SWAP1 RETURN JUMPDEST PUSH2 0x11B PUSH1 0x4 DUP1 CALLDATASIZE SUB DUP2 ADD SWAP1 PUSH2 0x116 SWAP2 SWAP1 PUSH2 0xC3F JUMP JUMPDEST PUSH2 0x281 JUMP JUMPDEST STOP JUMPDEST PUSH2 0x137 PUSH1 0x4 DUP1 CALLDATASIZE SUB DUP2 ADD SWAP1 PUSH2 0x132 SWAP2 SWAP1 PUSH2 0xC94 JUMP JUMPDEST PUSH2 0x353 JUMP JUMPDEST STOP JUMPDEST PUSH2 0x153 PUSH1 0x4 DUP1 CALLDATASIZE SUB DUP2 ADD SWAP1 PUSH2 0x14E SWAP2 SWAP1 PUSH2 0xC94 JUMP JUMPDEST PUSH2 0x3DF JUMP JUMPDEST STOP JUMPDEST PUSH2 0x15D PUSH2 0x471 JUMP JUMPDEST PUSH1 0x40 MLOAD PUSH2 0x16A SWAP2 SWAP1 PUSH2 0xD76 JUMP JUMPDEST PUSH1 0x40 MLOAD DUP1 SWAP2 SUB SWAP1 RETURN JUMPDEST PUSH2 0x17B PUSH2 0x4FC JUMP JUMPDEST STOP JUMPDEST PUSH2 0x197 PUSH1 0x4 DUP1 CALLDATASIZE SUB DUP2 ADD SWAP1 PUSH2 0x192 SWAP2 SWAP1 PUSH2 0xC94 JUMP JUMPDEST PUSH2 0x5E7 JUMP JUMPDEST STOP JUMPDEST PUSH2 0x1B3 PUSH1 0x4 DUP1 CALLDATASIZE SUB DUP2 ADD SWAP1 PUSH2 0x1AE SWAP2 SWAP1 PUSH2 0xC94 JUMP JUMPDEST PUSH2 0x6FD JUMP JUMPDEST PUSH1 0x40 MLOAD PUSH2 0x1C0 SWAP2 SWAP1 PUSH2 0xDB0 JUMP JUMPDEST PUSH1 0x40 MLOAD DUP1 SWAP2 SUB SWAP1 RETURN JUMPDEST PUSH2 0x1D1 PUSH2 0x71A JUMP JUMPDEST STOP JUMPDEST PUSH2 0x1ED PUSH1 0x4 DUP1 CALLDATASIZE SUB DUP2 ADD SWAP1 PUSH2 0x1E8 SWAP2 SWAP1 PUSH2 0xC3F JUMP JUMPDEST PUSH2 0x7E3 JUMP JUMPDEST STOP JUMPDEST PUSH2 0x1F7 PUSH2 0x944 JUMP JUMPDEST STOP JUMPDEST PUSH2 0x213 PUSH1 0x4 DUP1 CALLDATASIZE SUB DUP2 ADD SWAP1 PUSH2 0x20E SWAP2 SWAP1 PUSH2 0xB81 JUMP JUMPDEST PUSH2 0xA85 JUMP JUMPDEST PUSH1 0x40 MLOAD PUSH2 0x220 SWAP2 SWAP1 PUSH2 0xBEB JUMP JUMPDEST PUSH1 0x40 MLOAD DUP1 SWAP2 SUB SWAP1 RETURN JUMPDEST PUSH2 0x231 PUSH2 0xAC0 JUMP JUMPDEST PUSH1 0x40 MLOAD PUSH2 0x23E SWAP2 SWAP1 PUSH2 0xD76 JUMP JUMPDEST PUSH1 0x40 MLOAD DUP1 SWAP2 SUB SWAP1 RETURN JUMPDEST PUSH0 DUP2 DUP2 SLOAD DUP2 LT PUSH2 0x255 JUMPI PUSH0 DUP1 REVERT JUMPDEST SWAP1 PUSH0 MSTORE PUSH1 0x20 PUSH0 KECCAK256 ADD PUSH0 SWAP2 POP SLOAD SWAP1 PUSH2 0x100 EXP SWAP1 DIV PUSH20 0xFFFFFFFFFFFFFFFFFFFFFFFFFFFFFFFFFFFFFFFF AND DUP2 JUMP JUMPDEST PUSH1 0x2 PUSH0 SWAP1 SLOAD SWAP1 PUSH2 0x100 EXP SWAP1 DIV PUSH20 0xFFFFFFFFFFFFFFFFFFFFFFFFFFFFFFFFFFFFFFFF AND PUSH20 0xFFFFFFFFFFFFFFFFFFFFFFFFFFFFFFFFFFFFFFFF AND CALLER PUSH20 0xFFFFFFFFFFFFFFFFFFFFFFFFFFFFFFFFFFFFFFFF AND EQ PUSH2 0x310 JUMPI PUSH1 0x40 MLOAD PUSH32 0x8C379A000000000000000000000000000000000000000000000000000000000 DUP2 MSTORE PUSH1 0x4 ADD PUSH2 0x307 SWAP1 PUSH2 0xE23 JUMP JUMPDEST PUSH1 0x40 MLOAD DUP1 SWAP2 SUB SWAP1 REVERT JUMPDEST DUP1 PUSH1 0x2 PUSH0 PUSH2 0x100 EXP DUP2 SLOAD DUP2 PUSH20 0xFFFFFFFFFFFFFFFFFFFFFFFFFFFFFFFFFFFFFFFF MUL NOT AND SWAP1 DUP4 PUSH20 0xFFFFFFFFFFFFFFFFFFFFFFFFFFFFFFFFFFFFFFFF AND MUL OR SWAP1 SSTORE POP POP JUMP JUMPDEST PUSH1 0x3 PUSH0 CALLER PUSH20 0xFFFFFFFFFFFFFFFFFFFFFFFFFFFFFFFFFFFFFFFF AND PUSH20 0xFFFFFFFFFFFFFFFFFFFFFFFFFFFFFFFFFFFFFFFF AND DUP2 MSTORE PUSH1 0x20 ADD SWAP1 DUP2 MSTORE PUSH1 0x20 ADD PUSH0 KECCAK256 PUSH0 SWAP1 SLOAD SWAP1 PUSH2 0x100 EXP SWAP1 DIV PUSH1 0xFF AND PUSH2 0x3DC JUMPI PUSH1 0x40 MLOAD PUSH32 0x8C379A000000000000000000000000000000000000000000000000000000000 DUP2 MSTORE PUSH1 0x4 ADD PUSH2 0x3D3 SWAP1 PUSH2 0xE8B JUMP JUMPDEST PUSH1 0x40 MLOAD DUP1 SWAP2 SUB SWAP1 REVERT JUMPDEST POP JUMP JUMPDEST PUSH1 0x2 PUSH0 SWAP1 SLOAD SWAP1 PUSH2 0x100 EXP SWAP1 DIV PUSH20 0xFFFFFFFFFFFFFFFFFFFFFFFFFFFFFFFFFFFFFFFF AND PUSH20 0xFFFFFFFFFFFFFFFFFFFFFFFFFFFFFFFFFFFFFFFF AND CALLER PUSH20 0xFFFFFFFFFFFFFFFFFFFFFFFFFFFFFFFFFFFFFFFF AND EQ PUSH2 0x46E JUMPI PUSH1 0x40 MLOAD PUSH32 0x8C379A000000000000000000000000000000000000000000000000000000000 DUP2 MSTORE PUSH1 0x4 ADD PUSH2 0x465 SWAP1 PUSH2 0xE8B JUMP JUMPDEST PUSH1 0x40 MLOAD DUP1 SWAP2 SUB SWAP1 REVERT JUMPDEST POP JUMP JUMPDEST PUSH1 0x60 PUSH1 0x1 DUP1 SLOAD DUP1 PUSH1 0x20 MUL PUSH1 0x20 ADD PUSH1 0x40 MLOAD SWAP1 DUP2 ADD PUSH1 0x40 MSTORE DUP1 SWAP3 SWAP2 SWAP1 DUP2 DUP2 MSTORE PUSH1 0x20 ADD DUP3 DUP1 SLOAD DUP1 ISZERO PUSH2 0x4F2 JUMPI PUSH1 0x20 MUL DUP3 ADD SWAP2 SWAP1 PUSH0 MSTORE PUSH1 0x20 PUSH0 KECCAK256 SWAP1 JUMPDEST DUP2 PUSH0 SWAP1 SLOAD SWAP1 PUSH2 0x100 EXP SWAP1 DIV PUSH20 0xFFFFFFFFFFFFFFFFFFFFFFFFFFFFFFFFFFFFFFFF AND PUSH20 0xFFFFFFFFFFFFFFFFFFFFFFFFFFFFFFFFFFFFFFFF AND DUP2 MSTORE PUSH1 0x20 ADD SWAP1 PUSH1 0x1 ADD SWAP1 DUP1 DUP4 GT PUSH2 0x4A9 JUMPI JUMPDEST POP POP POP POP POP SWAP1 POP SWAP1 JUMP JUMPDEST PUSH1 0x3 PUSH0 CALLER PUSH20 0xFFFFFFFFFFFFFFFFFFFFFFFFFFFFFFFFFFFFFFFF AND PUSH20 0xFFFFFFFFFFFFFFFFFFFFFFFFFFFFFFFFFFFFFFFF AND DUP2 MSTORE PUSH1 0x20 ADD SWAP1 DUP2 MSTORE PUSH1 0x20 ADD PUSH0 KECCAK256 PUSH0 SWAP1 SLOAD SWAP1 PUSH2 0x100 EXP SWAP1 DIV PUSH1 0xFF AND ISZERO PUSH2 0x586 JUMPI PUSH1 0x40 MLOAD PUSH32 0x8C379A000000000000000000000000000000000000000000000000000000000 DUP2 MSTORE PUSH1 0x4 ADD PUSH2 0x57D SWAP1 PUSH2 0xF19 JUMP JUMPDEST PUSH1 0x40 MLOAD DUP1 SWAP2 SUB SWAP1 REVERT JUMPDEST PUSH0 CALLER SWAP1 DUP1 PUSH1 0x1 DUP2 SLOAD ADD DUP1 DUP3 SSTORE DUP1 SWAP2 POP POP PUSH1 0x1 SWAP1 SUB SWAP1 PUSH0 MSTORE PUSH1 0x20 PUSH0 KECCAK256 ADD PUSH0 SWAP1 SWAP2 SWAP1 SWAP2 SWAP1 SWAP2 PUSH2 0x100 EXP DUP2 SLOAD DUP2 PUSH20 0xFFFFFFFFFFFFFFFFFFFFFFFFFFFFFFFFFFFFFFFF MUL NOT AND SWAP1 DUP4 PUSH20 0xFFFFFFFFFFFFFFFFFFFFFFFFFFFFFFFFFFFFFFFF AND MUL OR SWAP1 SSTORE POP JUMP JUMPDEST PUSH1 0x3 PUSH0 CALLER PUSH20 0xFFFFFFFFFFFFFFFFFFFFFFFFFFFFFFFFFFFFFFFF AND PUSH20 0xFFFFFFFFFFFFFFFFFFFFFFFFFFFFFFFFFFFFFFFF AND DUP2 MSTORE PUSH1 0x20 ADD SWAP1 DUP2 MSTORE PUSH1 0x20 ADD PUSH0 KECCAK256 PUSH0 SWAP1 SLOAD SWAP1 PUSH2 0x100 EXP SWAP1 DIV PUSH1 0xFF AND ISZERO PUSH2 0x671 JUMPI PUSH1 0x40 MLOAD PUSH32 0x8C379A000000000000000000000000000000000000000000000000000000000 DUP2 MSTORE PUSH1 0x4 ADD PUSH2 0x668 SWAP1 PUSH2 0xF81 JUMP JUMPDEST PUSH1 0x40 MLOAD DUP1 SWAP2 SUB SWAP1 REVERT JUMPDEST PUSH1 0x3 PUSH0 DUP3 PUSH20 0xFFFFFFFFFFFFFFFFFFFFFFFFFFFFFFFFFFFFFFFF AND PUSH20 0xFFFFFFFFFFFFFFFFFFFFFFFFFFFFFFFFFFFFFFFF AND DUP2 MSTORE PUSH1 0x20 ADD SWAP1 DUP2 MSTORE PUSH1 0x20 ADD PUSH0 KECCAK256 PUSH0 SWAP1 SLOAD SWAP1 PUSH2 0x100 EXP SWAP1 DIV PUSH1 0xFF AND PUSH2 0x6FA JUMPI PUSH1 0x40 MLOAD PUSH32 0x8C379A000000000000000000000000000000000000000000000000000000000 DUP2 MSTORE PUSH1 0x4 ADD PUSH2 0x6F1 SWAP1 PUSH2 0xF81 JUMP JUMPDEST PUSH1 0x40 MLOAD DUP1 SWAP2 SUB SWAP1 REVERT JUMPDEST POP JUMP JUMPDEST PUSH1 0x3 PUSH1 0x20 MSTORE DUP1 PUSH0 MSTORE PUSH1 0x40 PUSH0 KECCAK256 PUSH0 SWAP2 POP SLOAD SWAP1 PUSH2 0x100 EXP SWAP1 DIV PUSH1 0xFF AND DUP2 JUMP JUMPDEST PUSH1 0x2 PUSH0 SWAP1 SLOAD SWAP1 PUSH2 0x100 EXP SWAP1 DIV PUSH20 0xFFFFFFFFFFFFFFFFFFFFFFFFFFFFFFFFFFFFFFFF AND PUSH20 0xFFFFFFFFFFFFFFFFFFFFFFFFFFFFFFFFFFFFFFFF AND CALLER PUSH20 0xFFFFFFFFFFFFFFFFFFFFFFFFFFFFFFFFFFFFFFFF AND EQ PUSH2 0x7A9 JUMPI PUSH1 0x40 MLOAD PUSH32 0x8C379A000000000000000000000000000000000000000000000000000000000 DUP2 MSTORE PUSH1 0x4 ADD PUSH2 0x7A0 SWAP1 PUSH2 0x100F JUMP JUMPDEST PUSH1 0x40 MLOAD DUP1 SWAP2 SUB SWAP1 REVERT JUMPDEST PUSH1 0x2 PUSH0 SWAP1 SLOAD SWAP1 PUSH2 0x100 EXP SWAP1 DIV PUSH20 0xFFFFFFFFFFFFFFFFFFFFFFFFFFFFFFFFFFFFFFFF AND PUSH20 0xFFFFFFFFFFFFFFFFFFFFFFFFFFFFFFFFFFFFFFFF AND SELFDESTRUCT JUMPDEST PUSH1 0x2 PUSH0 SWAP1 SLOAD SWAP1 PUSH2 0x100 EXP SWAP1 DIV PUSH20 0xFFFFFFFFFFFFFFFFFFFFFFFFFFFFFFFFFFFFFFFF AND PUSH20 0xFFFFFFFFFFFFFFFFFFFFFFFFFFFFFFFFFFFFFFFF AND CALLER PUSH20 0xFFFFFFFFFFFFFFFFFFFFFFFFFFFFFFFFFFFFFFFF AND EQ PUSH2 0x872 JUMPI PUSH1 0x40 MLOAD PUSH32 0x8C379A000000000000000000000000000000000000000000000000000000000 DUP2 MSTORE PUSH1 0x4 ADD PUSH2 0x869 SWAP1 PUSH2 0x1077 JUMP JUMPDEST PUSH1 0x40 MLOAD DUP1 SWAP2 SUB SWAP1 REVERT JUMPDEST PUSH1 0x2 PUSH0 SWAP1 SLOAD SWAP1 PUSH2 0x100 EXP SWAP1 DIV PUSH20 0xFFFFFFFFFFFFFFFFFFFFFFFFFFFFFFFFFFFFFFFF AND PUSH20 0xFFFFFFFFFFFFFFFFFFFFFFFFFFFFFFFFFFFFFFFF AND DUP2 PUSH20 0xFFFFFFFFFFFFFFFFFFFFFFFFFFFFFFFFFFFFFFFF AND SUB PUSH2 0x901 JUMPI PUSH1 0x40 MLOAD PUSH32 0x8C379A000000000000000000000000000000000000000000000000000000000 DUP2 MSTORE PUSH1 0x4 ADD PUSH2 0x8F8 SWAP1 PUSH2 0x1105 JUMP JUMPDEST PUSH1 0x40 MLOAD DUP1 SWAP2 SUB SWAP1 REVERT JUMPDEST CALLER PUSH1 0x2 PUSH0 PUSH2 0x100 EXP DUP2 SLOAD DUP2 PUSH20 0xFFFFFFFFFFFFFFFFFFFFFFFFFFFFFFFFFFFFFFFF MUL NOT AND SWAP1 DUP4 PUSH20 0xFFFFFFFFFFFFFFFFFFFFFFFFFFFFFFFFFFFFFFFF AND MUL OR SWAP1 SSTORE POP POP JUMP JUMPDEST PUSH1 0x3 PUSH0 CALLER PUSH20 0xFFFFFFFFFFFFFFFFFFFFFFFFFFFFFFFFFFFFFFFF AND PUSH20 0xFFFFFFFFFFFFFFFFFFFFFFFFFFFFFFFFFFFFFFFF AND DUP2 MSTORE PUSH1 0x20 ADD SWAP1 DUP2 MSTORE PUSH1 0x20 ADD PUSH0 KECCAK256 PUSH0 SWAP1 SLOAD SWAP1 PUSH2 0x100 EXP SWAP1 DIV PUSH1 0xFF AND ISZERO PUSH2 0x9CE JUMPI PUSH1 0x40 MLOAD PUSH32 0x8C379A000000000000000000000000000000000000000000000000000000000 DUP2 MSTORE PUSH1 0x4 ADD PUSH2 0x9C5 SWAP1 PUSH2 0xF19 JUMP JUMPDEST PUSH1 0x40 MLOAD DUP1 SWAP2 SUB SWAP1 REVERT JUMPDEST PUSH1 0x1 CALLER SWAP1 DUP1 PUSH1 0x1 DUP2 SLOAD ADD DUP1 DUP3 SSTORE DUP1 SWAP2 POP POP PUSH1 0x1 SWAP1 SUB SWAP1 PUSH0 MSTORE PUSH1 0x20 PUSH0 KECCAK256 ADD PUSH0 SWAP1 SWAP2 SWAP1 SWAP2 SWAP1 SWAP2 PUSH2 0x100 EXP DUP2 SLOAD DUP2 PUSH20 0xFFFFFFFFFFFFFFFFFFFFFFFFFFFFFFFFFFFFFFFF MUL NOT AND SWAP1 DUP4 PUSH20 0xFFFFFFFFFFFFFFFFFFFFFFFFFFFFFFFFFFFFFFFF AND MUL OR SWAP1 SSTORE POP PUSH1 0x1 PUSH1 0x3 PUSH0 CALLER PUSH20 0xFFFFFFFFFFFFFFFFFFFFFFFFFFFFFFFFFFFFFFFF AND PUSH20 0xFFFFFFFFFFFFFFFFFFFFFFFFFFFFFFFFFFFFFFFF AND DUP2 MSTORE PUSH1 0x20 ADD SWAP1 DUP2 MSTORE PUSH1 0x20 ADD PUSH0 KECCAK256 PUSH0 PUSH2 0x100 EXP DUP2 SLOAD DUP2 PUSH1 0xFF MUL NOT AND SWAP1 DUP4 ISZERO ISZERO MUL OR SWAP1 SSTORE POP JUMP JUMPDEST PUSH1 0x1 DUP2 DUP2 SLOAD DUP2 LT PUSH2 0xA94 JUMPI PUSH0 DUP1 REVERT JUMPDEST SWAP1 PUSH0 MSTORE PUSH1 0x20 PUSH0 KECCAK256 ADD PUSH0 SWAP2 POP SLOAD SWAP1 PUSH2 0x100 EXP SWAP1 DIV PUSH20 0xFFFFFFFFFFFFFFFFFFFFFFFFFFFFFFFFFFFFFFFF AND DUP2 JUMP JUMPDEST PUSH1 0x60 PUSH0 DUP1 SLOAD DUP1 PUSH1 0x20 MUL PUSH1 0x20 ADD PUSH1 0x40 MLOAD SWAP1 DUP2 ADD PUSH1 0x40 MSTORE DUP1 SWAP3 SWAP2 SWAP1 DUP2 DUP2 MSTORE PUSH1 0x20 ADD DUP3 DUP1 SLOAD DUP1 ISZERO PUSH2 0xB40 JUMPI PUSH1 0x20 MUL DUP3 ADD SWAP2 SWAP1 PUSH0 MSTORE PUSH1 0x20 PUSH0 KECCAK256 SWAP1 JUMPDEST DUP2 PUSH0 SWAP1 SLOAD SWAP1 PUSH2 0x100 EXP SWAP1 DIV PUSH20 0xFFFFFFFFFFFFFFFFFFFFFFFFFFFFFFFFFFFFFFFF AND PUSH20 0xFFFFFFFFFFFFFFFFFFFFFFFFFFFFFFFFFFFFFFFF AND DUP2 MSTORE PUSH1 0x20 ADD SWAP1 PUSH1 0x1 ADD SWAP1 DUP1 DUP4 GT PUSH2 0xAF7 JUMPI JUMPDEST POP POP POP POP POP SWAP1 POP SWAP1 JUMP JUMPDEST PUSH0 DUP1 REVERT JUMPDEST PUSH0 DUP2 SWAP1 POP SWAP2 SWAP1 POP JUMP JUMPDEST PUSH2 0xB60 DUP2 PUSH2 0xB4E JUMP JUMPDEST DUP2 EQ PUSH2 0xB6A JUMPI PUSH0 DUP1 REVERT JUMPDEST POP JUMP JUMPDEST PUSH0 DUP2 CALLDATALOAD SWAP1 POP PUSH2 0xB7B DUP2 PUSH2 0xB57 JUMP JUMPDEST SWAP3 SWAP2 POP POP JUMP JUMPDEST PUSH0 PUSH1 0x20 DUP3 DUP5 SUB SLT ISZERO PUSH2 0xB96 JUMPI PUSH2 0xB95 PUSH2 0xB4A JUMP JUMPDEST JUMPDEST PUSH0 PUSH2 0xBA3 DUP5 DUP3 DUP6 ADD PUSH2 0xB6D JUMP JUMPDEST SWAP2 POP POP SWAP3 SWAP2 POP POP JUMP JUMPDEST PUSH0 PUSH20 0xFFFFFFFFFFFFFFFFFFFFFFFFFFFFFFFFFFFFFFFF DUP3 AND SWAP1 POP SWAP2 SWAP1 POP JUMP JUMPDEST PUSH0 PUSH2 0xBD5 DUP3 PUSH2 0xBAC JUMP JUMPDEST SWAP1 POP SWAP2 SWAP1 POP JUMP JUMPDEST PUSH2 0xBE5 DUP2 PUSH2 0xBCB JUMP JUMPDEST DUP3 MSTORE POP POP JUMP JUMPDEST PUSH0 PUSH1 0x20 DUP3 ADD SWAP1 POP PUSH2 0xBFE PUSH0 DUP4 ADD DUP5 PUSH2 0xBDC JUMP JUMPDEST SWAP3 SWAP2 POP POP JUMP JUMPDEST PUSH0 PUSH2 0xC0E DUP3 PUSH2 0xBAC JUMP JUMPDEST SWAP1 POP SWAP2 SWAP1 POP JUMP JUMPDEST PUSH2 0xC1E DUP2 PUSH2 0xC04 JUMP JUMPDEST DUP2 EQ PUSH2 0xC28 JUMPI PUSH0 DUP1 REVERT JUMPDEST POP JUMP JUMPDEST PUSH0 DUP2 CALLDATALOAD SWAP1 POP PUSH2 0xC39 DUP2 PUSH2 0xC15 JUMP JUMPDEST SWAP3 SWAP2 POP POP JUMP JUMPDEST PUSH0 PUSH1 0x20 DUP3 DUP5 SUB SLT ISZERO PUSH2 0xC54 JUMPI PUSH2 0xC53 PUSH2 0xB4A JUMP JUMPDEST JUMPDEST PUSH0 PUSH2 0xC61 DUP5 DUP3 DUP6 ADD PUSH2 0xC2B JUMP JUMPDEST SWAP2 POP POP SWAP3 SWAP2 POP POP JUMP JUMPDEST PUSH2 0xC73 DUP2 PUSH2 0xBCB JUMP JUMPDEST DUP2 EQ PUSH2 0xC7D JUMPI PUSH0 DUP1 REVERT JUMPDEST POP JUMP JUMPDEST PUSH0 DUP2 CALLDATALOAD SWAP1 POP PUSH2 0xC8E DUP2 PUSH2 0xC6A JUMP JUMPDEST SWAP3 SWAP2 POP POP JUMP JUMPDEST PUSH0 PUSH1 0x20 DUP3 DUP5 SUB SLT ISZERO PUSH2 0xCA9 JUMPI PUSH2 0xCA8 PUSH2 0xB4A JUMP JUMPDEST JUMPDEST PUSH0 PUSH2 0xCB6 DUP5 DUP3 DUP6 ADD PUSH2 0xC80 JUMP JUMPDEST SWAP2 POP POP SWAP3 SWAP2 POP POP JUMP JUMPDEST PUSH0 DUP2 MLOAD SWAP1 POP SWAP2 SWAP1 POP JUMP JUMPDEST PUSH0 DUP3 DUP3 MSTORE PUSH1 0x20 DUP3 ADD SWAP1 POP SWAP3 SWAP2 POP POP JUMP JUMPDEST PUSH0 DUP2 SWAP1 POP PUSH1 0x20 DUP3 ADD SWAP1 POP SWAP2 SWAP1 POP JUMP JUMPDEST PUSH2 0xCF1 DUP2 PUSH2 0xBCB JUMP JUMPDEST DUP3 MSTORE POP POP JUMP JUMPDEST PUSH0 PUSH2 0xD02 DUP4 DUP4 PUSH2 0xCE8 JUMP JUMPDEST PUSH1 0x20 DUP4 ADD SWAP1 POP SWAP3 SWAP2 POP POP JUMP JUMPDEST PUSH0 PUSH1 0x20 DUP3 ADD SWAP1 POP SWAP2 SWAP1 POP JUMP JUMPDEST PUSH0 PUSH2 0xD24 DUP3 PUSH2 0xCBF JUMP JUMPDEST PUSH2 0xD2E DUP2 DUP6 PUSH2 0xCC9 JUMP JUMPDEST SWAP4 POP PUSH2 0xD39 DUP4 PUSH2 0xCD9 JUMP JUMPDEST DUP1 PUSH0 JUMPDEST DUP4 DUP2 LT ISZERO PUSH2 0xD69 JUMPI DUP2 MLOAD PUSH2 0xD50 DUP9 DUP3 PUSH2 0xCF7 JUMP JUMPDEST SWAP8 POP PUSH2 0xD5B DUP4 PUSH2 0xD0E JUMP JUMPDEST SWAP3 POP POP PUSH1 0x1 DUP2 ADD SWAP1 POP PUSH2 0xD3C JUMP JUMPDEST POP DUP6 SWAP4 POP POP POP POP SWAP3 SWAP2 POP POP JUMP JUMPDEST PUSH0 PUSH1 0x20 DUP3 ADD SWAP1 POP DUP2 DUP2 SUB PUSH0 DUP4 ADD MSTORE PUSH2 0xD8E DUP2 DUP5 PUSH2 0xD1A JUMP JUMPDEST SWAP1 POP SWAP3 SWAP2 POP POP JUMP JUMPDEST PUSH0 DUP2 ISZERO ISZERO SWAP1 POP SWAP2 SWAP1 POP JUMP JUMPDEST PUSH2 0xDAA DUP2 PUSH2 0xD96 JUMP JUMPDEST DUP3 MSTORE POP POP JUMP JUMPDEST PUSH0 PUSH1 0x20 DUP3 ADD SWAP1 POP PUSH2 0xDC3 PUSH0 DUP4 ADD DUP5 PUSH2 0xDA1 JUMP JUMPDEST SWAP3 SWAP2 POP POP JUMP JUMPDEST PUSH0 DUP3 DUP3 MSTORE PUSH1 0x20 DUP3 ADD SWAP1 POP SWAP3 SWAP2 POP POP JUMP JUMPDEST PUSH32 0x4F6E6C7920746865206F776E65722063616E206772616E742061636365737300 PUSH0 DUP3 ADD MSTORE POP JUMP JUMPDEST PUSH0 PUSH2 0xE0D PUSH1 0x1F DUP4 PUSH2 0xDC9 JUMP JUMPDEST SWAP2 POP PUSH2 0xE18 DUP3 PUSH2 0xDD9 JUMP JUMPDEST PUSH1 0x20 DUP3 ADD SWAP1 POP SWAP2 SWAP1 POP JUMP JUMPDEST PUSH0 PUSH1 0x20 DUP3 ADD SWAP1 POP DUP2 DUP2 SUB PUSH0 DUP4 ADD MSTORE PUSH2 0xE3A DUP2 PUSH2 0xE01 JUMP JUMPDEST SWAP1 POP SWAP2 SWAP1 POP JUMP JUMPDEST PUSH32 0x4F6E6C79204F6666696369616C732063616E2070726F706F7365206C61777300 PUSH0 DUP3 ADD MSTORE POP JUMP JUMPDEST PUSH0 PUSH2 0xE75 PUSH1 0x1F DUP4 PUSH2 0xDC9 JUMP JUMPDEST SWAP2 POP PUSH2 0xE80 DUP3 PUSH2 0xE41 JUMP JUMPDEST PUSH1 0x20 DUP3 ADD SWAP1 POP SWAP2 SWAP1 POP JUMP JUMPDEST PUSH0 PUSH1 0x20 DUP3 ADD SWAP1 POP DUP2 DUP2 SUB PUSH0 DUP4 ADD MSTORE PUSH2 0xEA2 DUP2 PUSH2 0xE69 JUMP JUMPDEST SWAP1 POP SWAP2 SWAP1 POP JUMP JUMPDEST PUSH32 0x43616E6E6F7420726567697374657220617320436974697A656E2C20416C7265 PUSH0 DUP3 ADD MSTORE PUSH32 0x61647920616E206F6666696369616C0000000000000000000000000000000000 PUSH1 0x20 DUP3 ADD MSTORE POP JUMP JUMPDEST PUSH0 PUSH2 0xF03 PUSH1 0x2F DUP4 PUSH2 0xDC9 JUMP JUMPDEST SWAP2 POP PUSH2 0xF0E DUP3 PUSH2 0xEA9 JUMP JUMPDEST PUSH1 0x40 DUP3 ADD SWAP1 POP SWAP2 SWAP1 POP JUMP JUMPDEST PUSH0 PUSH1 0x20 DUP3 ADD SWAP1 POP DUP2 DUP2 SUB PUSH0 DUP4 ADD MSTORE PUSH2 0xF30 DUP2 PUSH2 0xEF7 JUMP JUMPDEST SWAP1 POP SWAP2 SWAP1 POP JUMP JUMPDEST PUSH32 0x4F6666696369616C732063616E6E6F7420766F74650000000000000000000000 PUSH0 DUP3 ADD MSTORE POP JUMP JUMPDEST PUSH0 PUSH2 0xF6B PUSH1 0x15 DUP4 PUSH2 0xDC9 JUMP JUMPDEST SWAP2 POP PUSH2 0xF76 DUP3 PUSH2 0xF37 JUMP JUMPDEST PUSH1 0x20 DUP3 ADD SWAP1 POP SWAP2 SWAP1 POP JUMP JUMPDEST PUSH0 PUSH1 0x20 DUP3 ADD SWAP1 POP DUP2 DUP2 SUB PUSH0 DUP4 ADD MSTORE PUSH2 0xF98 DUP2 PUSH2 0xF5F JUMP JUMPDEST SWAP1 POP SWAP2 SWAP1 POP JUMP JUMPDEST PUSH32 0x4F6E6C7920746865206F776E65722063616E2064657374726F79207468697320 PUSH0 DUP3 ADD MSTORE PUSH32 0x636F6E7472616374000000000000000000000000000000000000000000000000 PUSH1 0x20 DUP3 ADD MSTORE POP JUMP JUMPDEST PUSH0 PUSH2 0xFF9 PUSH1 0x28 DUP4 PUSH2 0xDC9 JUMP JUMPDEST SWAP2 POP PUSH2 0x1004 DUP3 PUSH2 0xF9F JUMP JUMPDEST PUSH1 0x40 DUP3 ADD SWAP1 POP SWAP2 SWAP1 POP JUMP JUMPDEST PUSH0 PUSH1 0x20 DUP3 ADD SWAP1 POP DUP2 DUP2 SUB PUSH0 DUP4 ADD MSTORE PUSH2 0x1026 DUP2 PUSH2 0xFED JUMP JUMPDEST SWAP1 POP SWAP2 SWAP1 POP JUMP JUMPDEST PUSH32 0x4F6E6C7920746865206F776E65722063616E207265766F6B6520616363657373 PUSH0 DUP3 ADD MSTORE POP JUMP JUMPDEST PUSH0 PUSH2 0x1061 PUSH1 0x20 DUP4 PUSH2 0xDC9 JUMP JUMPDEST SWAP2 POP PUSH2 0x106C DUP3 PUSH2 0x102D JUMP JUMPDEST PUSH1 0x20 DUP3 ADD SWAP1 POP SWAP2 SWAP1 POP JUMP JUMPDEST PUSH0 PUSH1 0x20 DUP3 ADD SWAP1 POP DUP2 DUP2 SUB PUSH0 DUP4 ADD MSTORE PUSH2 0x108E DUP2 PUSH2 0x1055 JUMP JUMPDEST SWAP1 POP SWAP2 SWAP1 POP JUMP JUMPDEST PUSH32 0x43616E6E6F74207265766F6B652061636365737320666F722074686520637572 PUSH0 DUP3 ADD MSTORE PUSH32 0x72656E74206F776E657200000000000000000000000000000000000000000000 PUSH1 0x20 DUP3 ADD MSTORE POP JUMP JUMPDEST PUSH0 PUSH2 0x10EF PUSH1 0x2A DUP4 PUSH2 0xDC9 JUMP JUMPDEST SWAP2 POP PUSH2 0x10FA DUP3 PUSH2 0x1095 JUMP JUMPDEST PUSH1 0x40 DUP3 ADD SWAP1 POP SWAP2 SWAP1 POP JUMP JUMPDEST PUSH0 PUSH1 0x20 DUP3 ADD SWAP1 POP DUP2 DUP2 SUB PUSH0 DUP4 ADD MSTORE PUSH2 0x111C DUP2 PUSH2 0x10E3 JUMP JUMPDEST SWAP1 POP SWAP2 SWAP1 POP JUMP INVALID LOG2 PUSH5 0x6970667358 0x22 SLT KECCAK256 0xB3 0xCD DUP11 PUSH2 0x6975 0xB1 PUSH26 0xA7A26A2D0CF39D599FF5BCFA3FA378DCEBB0E0EB7B0E51766473 PUSH16 0x6C634300081600330000000000000000 "
				},
				"gasEstimates": {
					"creation": {
						"codeDepositCost": "888200",
						"executionCost": "25185",
						"totalCost": "913385"
					},
					"external": {
						"citizens(uint256)": "4944",
						"destroy()": "32114",
						"enactLaw(address)": "2967",
						"getCitizens()": "infinite",
						"getOfficials()": "infinite",
						"grantAccess(address)": "26907",
						"isOfficial(address)": "2878",
						"officials(uint256)": "5010",
						"proposeLaw(address)": "3015",
						"registerAsCitizen()": "51070",
						"registerAsOfficial()": "75357",
						"revokeAccess(address)": "29075",
						"vote(address)": "5236"
					}
				},
				"methodIdentifiers": {
					"citizens(uint256)": "09a34f00",
					"destroy()": "83197ef0",
					"enactLaw(address)": "3f94ba37",
					"getCitizens()": "eee8c7db",
					"getOfficials()": "58bc7331",
					"grantAccess(address)": "0ae5e739",
					"isOfficial(address)": "77b81aac",
					"officials(uint256)": "97ad6afd",
					"proposeLaw(address)": "34c400e4",
					"registerAsCitizen()": "62e36eb8",
					"registerAsOfficial()": "89907717",
					"revokeAccess(address)": "85e68531",
					"vote(address)": "6dd7d8ea"
				}
			},
			"storageLayout": {
				"storage": [
					{
						"astId": 4,
						"contract": "contracts/Government.sol:Government",
						"label": "citizens",
						"offset": 0,
						"slot": "0",
						"type": "t_array(t_address)dyn_storage"
					},
					{
						"astId": 7,
						"contract": "contracts/Government.sol:Government",
						"label": "officials",
						"offset": 0,
						"slot": "1",
						"type": "t_array(t_address)dyn_storage"
					},
					{
						"astId": 9,
						"contract": "contracts/Government.sol:Government",
						"label": "owner",
						"offset": 0,
						"slot": "2",
						"type": "t_address_payable"
					},
					{
						"astId": 13,
						"contract": "contracts/Government.sol:Government",
						"label": "isOfficial",
						"offset": 0,
						"slot": "3",
						"type": "t_mapping(t_address,t_bool)"
					}
				],
				"types": {
					"t_address": {
						"encoding": "inplace",
						"label": "address",
						"numberOfBytes": "20"
					},
					"t_address_payable": {
						"encoding": "inplace",
						"label": "address payable",
						"numberOfBytes": "20"
					},
					"t_array(t_address)dyn_storage": {
						"base": "t_address",
						"encoding": "dynamic_array",
						"label": "address[]",
						"numberOfBytes": "32"
					},
					"t_bool": {
						"encoding": "inplace",
						"label": "bool",
						"numberOfBytes": "1"
					},
					"t_mapping(t_address,t_bool)": {
						"encoding": "mapping",
						"key": "t_address",
						"label": "mapping(address => bool)",
						"numberOfBytes": "32",
						"value": "t_bool"
					}
				}
			},
			"userdoc": {
				"kind": "user",
				"methods": {},
				"version": 1
			}
		}
	}
}