{
	"contracts/RealAdvancedFundMe.sol": {
		"FundMeAdvanced": {
			"abi": [
				{
					"inputs": [
						{
							"internalType": "address",
							"name": "_priceFeedAddress",
							"type": "address"
						}
					],
					"stateMutability": "nonpayable",
					"type": "constructor"
				},
				{
					"anonymous": false,
					"inputs": [
						{
							"indexed": true,
							"internalType": "address",
							"name": "creator",
							"type": "address"
						},
						{
							"indexed": false,
							"internalType": "uint256",
							"name": "fundraiserIndex",
							"type": "uint256"
						}
					],
					"name": "FundraiserCreated",
					"type": "event"
				},
				{
					"anonymous": false,
					"inputs": [
						{
							"indexed": true,
							"internalType": "address",
							"name": "funder",
							"type": "address"
						},
						{
							"indexed": false,
							"internalType": "uint256",
							"name": "fundraiserIndex",
							"type": "uint256"
						},
						{
							"indexed": false,
							"internalType": "uint256",
							"name": "amount",
							"type": "uint256"
						}
					],
					"name": "FundraiserFunded",
					"type": "event"
				},
				{
					"inputs": [
						{
							"internalType": "string",
							"name": "name",
							"type": "string"
						},
						{
							"internalType": "string",
							"name": "description",
							"type": "string"
						},
						{
							"internalType": "uint256",
							"name": "goal",
							"type": "uint256"
						}
					],
					"name": "createFundraiser",
					"outputs": [],
					"stateMutability": "nonpayable",
					"type": "function"
				},
				{
					"inputs": [
						{
							"internalType": "uint256",
							"name": "fundraiserIndex",
							"type": "uint256"
						}
					],
					"name": "fund",
					"outputs": [],
					"stateMutability": "payable",
					"type": "function"
				},
				{
					"inputs": [
						{
							"internalType": "uint256",
							"name": "",
							"type": "uint256"
						}
					],
					"name": "fundraisers",
					"outputs": [
						{
							"internalType": "address",
							"name": "creator",
							"type": "address"
						},
						{
							"internalType": "string",
							"name": "name",
							"type": "string"
						},
						{
							"internalType": "string",
							"name": "description",
							"type": "string"
						},
						{
							"internalType": "uint256",
							"name": "goal",
							"type": "uint256"
						},
						{
							"internalType": "uint256",
							"name": "amountRaised",
							"type": "uint256"
						},
						{
							"internalType": "enum FundMeAdvanced.FundraiserStatus",
							"name": "status",
							"type": "uint8"
						}
					],
					"stateMutability": "view",
					"type": "function"
				},
				{
					"inputs": [],
					"name": "minimumUSD",
					"outputs": [
						{
							"internalType": "uint256",
							"name": "",
							"type": "uint256"
						}
					],
					"stateMutability": "view",
					"type": "function"
				},
				{
					"inputs": [],
					"name": "owner",
					"outputs": [
						{
							"internalType": "address",
							"name": "",
							"type": "address"
						}
					],
					"stateMutability": "view",
					"type": "function"
				},
				{
					"inputs": [],
					"name": "priceFeed",
					"outputs": [
						{
							"internalType": "contract AggregatorV3Interface",
							"name": "",
							"type": "address"
						}
					],
					"stateMutability": "view",
					"type": "function"
				},
				{
					"inputs": [
						{
							"internalType": "uint256",
							"name": "fundraiserIndex",
							"type": "uint256"
						}
					],
					"name": "withdrawFunds",
					"outputs": [],
					"stateMutability": "nonpayable",
					"type": "function"
				}
			],
			"devdoc": {
				"kind": "dev",
				"methods": {},
				"version": 1
			},
			"evm": {
				"assembly": "    /* \"contracts/RealAdvancedFundMe.sol\":172:3458  contract FundMeAdvanced {... */\n  mstore(0x40, 0x80)\n    /* \"contracts/RealAdvancedFundMe.sol\":615:627  500 * 10**18 */\n  0x1b1ae4d6e2ef500000\n    /* \"contracts/RealAdvancedFundMe.sol\":590:627  uint public minimumUSD = 500 * 10**18 */\n  0x02\n  sstore\n    /* \"contracts/RealAdvancedFundMe.sol\":915:1054  constructor(address _priceFeedAddress) {... */\n  callvalue\n  dup1\n  iszero\n  tag_1\n  jumpi\n  0x00\n  dup1\n  revert\ntag_1:\n  pop\n  mload(0x40)\n  sub(codesize, bytecodeSize)\n  dup1\n  bytecodeSize\n  dup4\n  codecopy\n  dup2\n  dup2\n  add\n  0x40\n  mstore\n  dup2\n  add\n  swap1\n  tag_2\n  swap2\n  swap1\n  tag_3\n  jump\t// in\ntag_2:\n    /* \"contracts/RealAdvancedFundMe.sol\":973:983  msg.sender */\n  caller\n    /* \"contracts/RealAdvancedFundMe.sol\":965:970  owner */\n  0x01\n  0x00\n    /* \"contracts/RealAdvancedFundMe.sol\":965:983  owner = msg.sender */\n  0x0100\n  exp\n  dup2\n  sload\n  dup2\n  0xffffffffffffffffffffffffffffffffffffffff\n  mul\n  not\n  and\n  swap1\n  dup4\n  0xffffffffffffffffffffffffffffffffffffffff\n  and\n  mul\n  or\n  swap1\n  sstore\n  pop\n    /* \"contracts/RealAdvancedFundMe.sol\":1028:1045  _priceFeedAddress */\n  dup1\n    /* \"contracts/RealAdvancedFundMe.sol\":994:1003  priceFeed */\n  0x03\n  0x00\n    /* \"contracts/RealAdvancedFundMe.sol\":994:1046  priceFeed = AggregatorV3Interface(_priceFeedAddress) */\n  0x0100\n  exp\n  dup2\n  sload\n  dup2\n  0xffffffffffffffffffffffffffffffffffffffff\n  mul\n  not\n  and\n  swap1\n  dup4\n  0xffffffffffffffffffffffffffffffffffffffff\n  and\n  mul\n  or\n  swap1\n  sstore\n  pop\n    /* \"contracts/RealAdvancedFundMe.sol\":915:1054  constructor(address _priceFeedAddress) {... */\n  pop\n    /* \"contracts/RealAdvancedFundMe.sol\":172:3458  contract FundMeAdvanced {... */\n  jump(tag_6)\n    /* \"#utility.yul\":88:205   */\ntag_8:\n    /* \"#utility.yul\":197:198   */\n  0x00\n    /* \"#utility.yul\":194:195   */\n  dup1\n    /* \"#utility.yul\":187:199   */\n  revert\n    /* \"#utility.yul\":334:460   */\ntag_10:\n    /* \"#utility.yul\":371:378   */\n  0x00\n    /* \"#utility.yul\":411:453   */\n  0xffffffffffffffffffffffffffffffffffffffff\n    /* \"#utility.yul\":404:409   */\n  dup3\n    /* \"#utility.yul\":400:454   */\n  and\n    /* \"#utility.yul\":389:454   */\n  swap1\n  pop\n    /* \"#utility.yul\":334:460   */\n  swap2\n  swap1\n  pop\n  jump\t// out\n    /* \"#utility.yul\":466:562   */\ntag_11:\n    /* \"#utility.yul\":503:510   */\n  0x00\n    /* \"#utility.yul\":532:556   */\n  tag_20\n    /* \"#utility.yul\":550:555   */\n  dup3\n    /* \"#utility.yul\":532:556   */\n  tag_10\n  jump\t// in\ntag_20:\n    /* \"#utility.yul\":521:556   */\n  swap1\n  pop\n    /* \"#utility.yul\":466:562   */\n  swap2\n  swap1\n  pop\n  jump\t// out\n    /* \"#utility.yul\":568:690   */\ntag_12:\n    /* \"#utility.yul\":641:665   */\n  tag_22\n    /* \"#utility.yul\":659:664   */\n  dup2\n    /* \"#utility.yul\":641:665   */\n  tag_11\n  jump\t// in\ntag_22:\n    /* \"#utility.yul\":634:639   */\n  dup2\n    /* \"#utility.yul\":631:666   */\n  eq\n    /* \"#utility.yul\":621:684   */\n  tag_23\n  jumpi\n    /* \"#utility.yul\":680:681   */\n  0x00\n    /* \"#utility.yul\":677:678   */\n  dup1\n    /* \"#utility.yul\":670:682   */\n  revert\n    /* \"#utility.yul\":621:684   */\ntag_23:\n    /* \"#utility.yul\":568:690   */\n  pop\n  jump\t// out\n    /* \"#utility.yul\":696:839   */\ntag_13:\n    /* \"#utility.yul\":753:758   */\n  0x00\n    /* \"#utility.yul\":784:790   */\n  dup2\n    /* \"#utility.yul\":778:791   */\n  mload\n    /* \"#utility.yul\":769:791   */\n  swap1\n  pop\n    /* \"#utility.yul\":800:833   */\n  tag_25\n    /* \"#utility.yul\":827:832   */\n  dup2\n    /* \"#utility.yul\":800:833   */\n  tag_12\n  jump\t// in\ntag_25:\n    /* \"#utility.yul\":696:839   */\n  swap3\n  swap2\n  pop\n  pop\n  jump\t// out\n    /* \"#utility.yul\":845:1196   */\ntag_3:\n    /* \"#utility.yul\":915:921   */\n  0x00\n    /* \"#utility.yul\":964:966   */\n  0x20\n    /* \"#utility.yul\":952:961   */\n  dup3\n    /* \"#utility.yul\":943:950   */\n  dup5\n    /* \"#utility.yul\":939:962   */\n  sub\n    /* \"#utility.yul\":935:967   */\n  slt\n    /* \"#utility.yul\":932:1051   */\n  iszero\n  tag_27\n  jumpi\n    /* \"#utility.yul\":970:1049   */\n  tag_28\n  tag_8\n  jump\t// in\ntag_28:\n    /* \"#utility.yul\":932:1051   */\ntag_27:\n    /* \"#utility.yul\":1090:1091   */\n  0x00\n    /* \"#utility.yul\":1115:1179   */\n  tag_29\n    /* \"#utility.yul\":1171:1178   */\n  dup5\n    /* \"#utility.yul\":1162:1168   */\n  dup3\n    /* \"#utility.yul\":1151:1160   */\n  dup6\n    /* \"#utility.yul\":1147:1169   */\n  add\n    /* \"#utility.yul\":1115:1179   */\n  tag_13\n  jump\t// in\ntag_29:\n    /* \"#utility.yul\":1105:1179   */\n  swap2\n  pop\n    /* \"#utility.yul\":1061:1189   */\n  pop\n    /* \"#utility.yul\":845:1196   */\n  swap3\n  swap2\n  pop\n  pop\n  jump\t// out\n    /* \"contracts/RealAdvancedFundMe.sol\":172:3458  contract FundMeAdvanced {... */\ntag_6:\n  dataSize(sub_0)\n  dup1\n  dataOffset(sub_0)\n  0x00\n  codecopy\n  0x00\n  return\nstop\n\nsub_0: assembly {\n        /* \"contracts/RealAdvancedFundMe.sol\":172:3458  contract FundMeAdvanced {... */\n      mstore(0x40, 0x80)\n      jumpi(tag_1, lt(calldatasize, 0x04))\n      shr(0xe0, calldataload(0x00))\n      dup1\n      0x8da5cb5b\n      gt\n      tag_9\n      jumpi\n      dup1\n      0x8da5cb5b\n      eq\n      tag_5\n      jumpi\n      dup1\n      0xc50870b1\n      eq\n      tag_6\n      jumpi\n      dup1\n      0xca1d209d\n      eq\n      tag_7\n      jumpi\n      dup1\n      0xf38f72fb\n      eq\n      tag_8\n      jumpi\n      jump(tag_1)\n    tag_9:\n      dup1\n      0x155dd5ee\n      eq\n      tag_2\n      jumpi\n      dup1\n      0x3430a88c\n      eq\n      tag_3\n      jumpi\n      dup1\n      0x741bef1a\n      eq\n      tag_4\n      jumpi\n    tag_1:\n      0x00\n      dup1\n      revert\n        /* \"contracts/RealAdvancedFundMe.sol\":2882:3455  function withdrawFunds(uint fundraiserIndex) public onlyOwner {... */\n    tag_2:\n      callvalue\n      dup1\n      iszero\n      tag_10\n      jumpi\n      0x00\n      dup1\n      revert\n    tag_10:\n      pop\n      tag_11\n      0x04\n      dup1\n      calldatasize\n      sub\n      dup2\n      add\n      swap1\n      tag_12\n      swap2\n      swap1\n      tag_13\n      jump\t// in\n    tag_12:\n      tag_14\n      jump\t// in\n    tag_11:\n      stop\n        /* \"contracts/RealAdvancedFundMe.sol\":590:627  uint public minimumUSD = 500 * 10**18 */\n    tag_3:\n      callvalue\n      dup1\n      iszero\n      tag_15\n      jumpi\n      0x00\n      dup1\n      revert\n    tag_15:\n      pop\n      tag_16\n      tag_17\n      jump\t// in\n    tag_16:\n      mload(0x40)\n      tag_18\n      swap2\n      swap1\n      tag_19\n      jump\t// in\n    tag_18:\n      mload(0x40)\n      dup1\n      swap2\n      sub\n      swap1\n      return\n        /* \"contracts/RealAdvancedFundMe.sol\":667:705  AggregatorV3Interface public priceFeed */\n    tag_4:\n      callvalue\n      dup1\n      iszero\n      tag_20\n      jumpi\n      0x00\n      dup1\n      revert\n    tag_20:\n      pop\n      tag_21\n      tag_22\n      jump\t// in\n    tag_21:\n      mload(0x40)\n      tag_23\n      swap2\n      swap1\n      tag_24\n      jump\t// in\n    tag_23:\n      mload(0x40)\n      dup1\n      swap2\n      sub\n      swap1\n      return\n        /* \"contracts/RealAdvancedFundMe.sol\":563:583  address public owner */\n    tag_5:\n      callvalue\n      dup1\n      iszero\n      tag_25\n      jumpi\n      0x00\n      dup1\n      revert\n    tag_25:\n      pop\n      tag_26\n      tag_27\n      jump\t// in\n    tag_26:\n      mload(0x40)\n      tag_28\n      swap2\n      swap1\n      tag_29\n      jump\t// in\n    tag_28:\n      mload(0x40)\n      dup1\n      swap2\n      sub\n      swap1\n      return\n        /* \"contracts/RealAdvancedFundMe.sol\":1191:1933  function createFundraiser(string memory name, string memory description, uint goal) public {... */\n    tag_6:\n      callvalue\n      dup1\n      iszero\n      tag_30\n      jumpi\n      0x00\n      dup1\n      revert\n    tag_30:\n      pop\n      tag_31\n      0x04\n      dup1\n      calldatasize\n      sub\n      dup2\n      add\n      swap1\n      tag_32\n      swap2\n      swap1\n      tag_33\n      jump\t// in\n    tag_32:\n      tag_34\n      jump\t// in\n    tag_31:\n      stop\n        /* \"contracts/RealAdvancedFundMe.sol\":1941:2872  function fund(uint fundraiserIndex) public payable {... */\n    tag_7:\n      tag_35\n      0x04\n      dup1\n      calldatasize\n      sub\n      dup2\n      add\n      swap1\n      tag_36\n      swap2\n      swap1\n      tag_13\n      jump\t// in\n    tag_36:\n      tag_37\n      jump\t// in\n    tag_35:\n      stop\n        /* \"contracts/RealAdvancedFundMe.sol\":525:556  Fundraiser[] public fundraisers */\n    tag_8:\n      callvalue\n      dup1\n      iszero\n      tag_38\n      jumpi\n      0x00\n      dup1\n      revert\n    tag_38:\n      pop\n      tag_39\n      0x04\n      dup1\n      calldatasize\n      sub\n      dup2\n      add\n      swap1\n      tag_40\n      swap2\n      swap1\n      tag_13\n      jump\t// in\n    tag_40:\n      tag_41\n      jump\t// in\n    tag_39:\n      mload(0x40)\n      tag_42\n      swap7\n      swap6\n      swap5\n      swap4\n      swap3\n      swap2\n      swap1\n      tag_43\n      jump\t// in\n    tag_42:\n      mload(0x40)\n      dup1\n      swap2\n      sub\n      swap1\n      return\n        /* \"contracts/RealAdvancedFundMe.sol\":2882:3455  function withdrawFunds(uint fundraiserIndex) public onlyOwner {... */\n    tag_14:\n        /* \"contracts/RealAdvancedFundMe.sol\":1116:1121  owner */\n      0x01\n      0x00\n      swap1\n      sload\n      swap1\n      0x0100\n      exp\n      swap1\n      div\n      0xffffffffffffffffffffffffffffffffffffffff\n      and\n        /* \"contracts/RealAdvancedFundMe.sol\":1102:1121  msg.sender == owner */\n      0xffffffffffffffffffffffffffffffffffffffff\n      and\n        /* \"contracts/RealAdvancedFundMe.sol\":1102:1112  msg.sender */\n      caller\n        /* \"contracts/RealAdvancedFundMe.sol\":1102:1121  msg.sender == owner */\n      0xffffffffffffffffffffffffffffffffffffffff\n      and\n      eq\n        /* \"contracts/RealAdvancedFundMe.sol\":1094:1163  require(msg.sender == owner, \"Only the owner can call this function\") */\n      tag_45\n      jumpi\n      mload(0x40)\n      0x08c379a000000000000000000000000000000000000000000000000000000000\n      dup2\n      mstore\n      0x04\n      add\n      tag_46\n      swap1\n      tag_47\n      jump\t// in\n    tag_46:\n      mload(0x40)\n      dup1\n      swap2\n      sub\n      swap1\n      revert\n    tag_45:\n        /* \"contracts/RealAdvancedFundMe.sol\":2981:2992  fundraisers */\n      0x00\n        /* \"contracts/RealAdvancedFundMe.sol\":2981:2999  fundraisers.length */\n      dup1\n      sload\n      swap1\n      pop\n        /* \"contracts/RealAdvancedFundMe.sol\":2963:2978  fundraiserIndex */\n      dup2\n        /* \"contracts/RealAdvancedFundMe.sol\":2963:2999  fundraiserIndex < fundraisers.length */\n      lt\n        /* \"contracts/RealAdvancedFundMe.sol\":2955:3029  require(fundraiserIndex < fundraisers.length, \"Fundraiser does not exist\") */\n      tag_49\n      jumpi\n      mload(0x40)\n      0x08c379a000000000000000000000000000000000000000000000000000000000\n      dup2\n      mstore\n      0x04\n      add\n      tag_50\n      swap1\n      tag_51\n      jump\t// in\n    tag_50:\n      mload(0x40)\n      dup1\n      swap2\n      sub\n      swap1\n      revert\n    tag_49:\n        /* \"contracts/RealAdvancedFundMe.sol\":3040:3069  Fundraiser storage fundraiser */\n      0x00\n        /* \"contracts/RealAdvancedFundMe.sol\":3072:3083  fundraisers */\n      dup1\n        /* \"contracts/RealAdvancedFundMe.sol\":3084:3099  fundraiserIndex */\n      dup3\n        /* \"contracts/RealAdvancedFundMe.sol\":3072:3100  fundraisers[fundraiserIndex] */\n      dup2\n      sload\n      dup2\n      lt\n      tag_52\n      jumpi\n      tag_53\n      tag_54\n      jump\t// in\n    tag_53:\n    tag_52:\n      swap1\n      0x00\n      mstore\n      keccak256(0x00, 0x20)\n      swap1\n      0x06\n      mul\n      add\n        /* \"contracts/RealAdvancedFundMe.sol\":3040:3100  Fundraiser storage fundraiser = fundraisers[fundraiserIndex] */\n      swap1\n      pop\n        /* \"contracts/RealAdvancedFundMe.sol\":3142:3168  FundraiserStatus.Completed */\n      0x01\n        /* \"contracts/RealAdvancedFundMe.sol\":3121:3168  fundraiser.status == FundraiserStatus.Completed */\n      dup1\n      dup2\n      gt\n      iszero\n      tag_56\n      jumpi\n      tag_57\n      tag_58\n      jump\t// in\n    tag_57:\n    tag_56:\n        /* \"contracts/RealAdvancedFundMe.sol\":3121:3131  fundraiser */\n      dup2\n        /* \"contracts/RealAdvancedFundMe.sol\":3121:3138  fundraiser.status */\n      0x05\n      add\n      0x00\n      swap1\n      sload\n      swap1\n      0x0100\n      exp\n      swap1\n      div\n      0xff\n      and\n        /* \"contracts/RealAdvancedFundMe.sol\":3121:3168  fundraiser.status == FundraiserStatus.Completed */\n      0x01\n      dup2\n      gt\n      iszero\n      tag_59\n      jumpi\n      tag_60\n      tag_58\n      jump\t// in\n    tag_60:\n    tag_59:\n      eq\n        /* \"contracts/RealAdvancedFundMe.sol\":3113:3200  require(fundraiser.status == FundraiserStatus.Completed, \"Fundraiser is not completed\") */\n      tag_61\n      jumpi\n      mload(0x40)\n      0x08c379a000000000000000000000000000000000000000000000000000000000\n      dup2\n      mstore\n      0x04\n      add\n      tag_62\n      swap1\n      tag_63\n      jump\t// in\n    tag_62:\n      mload(0x40)\n      dup1\n      swap2\n      sub\n      swap1\n      revert\n    tag_61:\n        /* \"contracts/RealAdvancedFundMe.sol\":3213:3235  uint balanceToWithdraw */\n      0x00\n        /* \"contracts/RealAdvancedFundMe.sol\":3238:3248  fundraiser */\n      dup2\n        /* \"contracts/RealAdvancedFundMe.sol\":3238:3261  fundraiser.amountRaised */\n      0x04\n      add\n      sload\n        /* \"contracts/RealAdvancedFundMe.sol\":3213:3261  uint balanceToWithdraw = fundraiser.amountRaised */\n      swap1\n      pop\n        /* \"contracts/RealAdvancedFundMe.sol\":3298:3299  0 */\n      0x00\n        /* \"contracts/RealAdvancedFundMe.sol\":3272:3282  fundraiser */\n      dup3\n        /* \"contracts/RealAdvancedFundMe.sol\":3272:3295  fundraiser.amountRaised */\n      0x04\n      add\n        /* \"contracts/RealAdvancedFundMe.sol\":3272:3299  fundraiser.amountRaised = 0 */\n      dup2\n      swap1\n      sstore\n      pop\n        /* \"contracts/RealAdvancedFundMe.sol\":3313:3325  bool success */\n      0x00\n        /* \"contracts/RealAdvancedFundMe.sol\":3331:3336  owner */\n      0x01\n      0x00\n      swap1\n      sload\n      swap1\n      0x0100\n      exp\n      swap1\n      div\n      0xffffffffffffffffffffffffffffffffffffffff\n      and\n        /* \"contracts/RealAdvancedFundMe.sol\":3331:3341  owner.call */\n      0xffffffffffffffffffffffffffffffffffffffff\n      and\n        /* \"contracts/RealAdvancedFundMe.sol\":3349:3366  balanceToWithdraw */\n      dup3\n        /* \"contracts/RealAdvancedFundMe.sol\":3331:3371  owner.call{value: balanceToWithdraw}(\"\") */\n      mload(0x40)\n      tag_64\n      swap1\n      tag_65\n      jump\t// in\n    tag_64:\n      0x00\n      mload(0x40)\n      dup1\n      dup4\n      sub\n      dup2\n      dup6\n      dup8\n      gas\n      call\n      swap3\n      pop\n      pop\n      pop\n      returndatasize\n      dup1\n      0x00\n      dup2\n      eq\n      tag_68\n      jumpi\n      mload(0x40)\n      swap2\n      pop\n      and(add(returndatasize, 0x3f), not(0x1f))\n      dup3\n      add\n      0x40\n      mstore\n      returndatasize\n      dup3\n      mstore\n      returndatasize\n      0x00\n      0x20\n      dup5\n      add\n      returndatacopy\n      jump(tag_67)\n    tag_68:\n      0x60\n      swap2\n      pop\n    tag_67:\n      pop\n        /* \"contracts/RealAdvancedFundMe.sol\":3312:3371  (bool success, ) = owner.call{value: balanceToWithdraw}(\"\") */\n      pop\n      swap1\n      pop\n        /* \"contracts/RealAdvancedFundMe.sol\":3390:3397  success */\n      dup1\n        /* \"contracts/RealAdvancedFundMe.sol\":3382:3419  require(success, \"Withdrawal failed\") */\n      tag_69\n      jumpi\n      mload(0x40)\n      0x08c379a000000000000000000000000000000000000000000000000000000000\n      dup2\n      mstore\n      0x04\n      add\n      tag_70\n      swap1\n      tag_71\n      jump\t// in\n    tag_70:\n      mload(0x40)\n      dup1\n      swap2\n      sub\n      swap1\n      revert\n    tag_69:\n        /* \"contracts/RealAdvancedFundMe.sol\":2944:3455  {... */\n      pop\n      pop\n      pop\n        /* \"contracts/RealAdvancedFundMe.sol\":2882:3455  function withdrawFunds(uint fundraiserIndex) public onlyOwner {... */\n      pop\n      jump\t// out\n        /* \"contracts/RealAdvancedFundMe.sol\":590:627  uint public minimumUSD = 500 * 10**18 */\n    tag_17:\n      sload(0x02)\n      dup2\n      jump\t// out\n        /* \"contracts/RealAdvancedFundMe.sol\":667:705  AggregatorV3Interface public priceFeed */\n    tag_22:\n      0x03\n      0x00\n      swap1\n      sload\n      swap1\n      0x0100\n      exp\n      swap1\n      div\n      0xffffffffffffffffffffffffffffffffffffffff\n      and\n      dup2\n      jump\t// out\n        /* \"contracts/RealAdvancedFundMe.sol\":563:583  address public owner */\n    tag_27:\n      0x01\n      0x00\n      swap1\n      sload\n      swap1\n      0x0100\n      exp\n      swap1\n      div\n      0xffffffffffffffffffffffffffffffffffffffff\n      and\n      dup2\n      jump\t// out\n        /* \"contracts/RealAdvancedFundMe.sol\":1191:1933  function createFundraiser(string memory name, string memory description, uint goal) public {... */\n    tag_34:\n        /* \"contracts/RealAdvancedFundMe.sol\":1351:1352  0 */\n      0x00\n        /* \"contracts/RealAdvancedFundMe.sol\":1336:1340  name */\n      dup4\n        /* \"contracts/RealAdvancedFundMe.sol\":1330:1348  bytes(name).length */\n      mload\n        /* \"contracts/RealAdvancedFundMe.sol\":1330:1352  bytes(name).length > 0 */\n      gt\n        /* \"contracts/RealAdvancedFundMe.sol\":1322:1388  require(bytes(name).length > 0, \"Fundraiser name cannot be empty\") */\n      tag_73\n      jumpi\n      mload(0x40)\n      0x08c379a000000000000000000000000000000000000000000000000000000000\n      dup2\n      mstore\n      0x04\n      add\n      tag_74\n      swap1\n      tag_75\n      jump\t// in\n    tag_74:\n      mload(0x40)\n      dup1\n      swap2\n      sub\n      swap1\n      revert\n    tag_73:\n        /* \"contracts/RealAdvancedFundMe.sol\":1435:1436  0 */\n      0x00\n        /* \"contracts/RealAdvancedFundMe.sol\":1413:1424  description */\n      dup3\n        /* \"contracts/RealAdvancedFundMe.sol\":1407:1432  bytes(description).length */\n      mload\n        /* \"contracts/RealAdvancedFundMe.sol\":1407:1436  bytes(description).length > 0 */\n      gt\n        /* \"contracts/RealAdvancedFundMe.sol\":1399:1479  require(bytes(description).length > 0, \"Fundraiser description cannot be empty\") */\n      tag_76\n      jumpi\n      mload(0x40)\n      0x08c379a000000000000000000000000000000000000000000000000000000000\n      dup2\n      mstore\n      0x04\n      add\n      tag_77\n      swap1\n      tag_78\n      jump\t// in\n    tag_77:\n      mload(0x40)\n      dup1\n      swap2\n      sub\n      swap1\n      revert\n    tag_76:\n        /* \"contracts/RealAdvancedFundMe.sol\":1505:1506  0 */\n      0x00\n        /* \"contracts/RealAdvancedFundMe.sol\":1498:1502  goal */\n      dup2\n        /* \"contracts/RealAdvancedFundMe.sol\":1498:1506  goal > 0 */\n      gt\n        /* \"contracts/RealAdvancedFundMe.sol\":1490:1556  require(goal > 0, \"Fundraiser goal amount must be greater than 0\") */\n      tag_79\n      jumpi\n      mload(0x40)\n      0x08c379a000000000000000000000000000000000000000000000000000000000\n      dup2\n      mstore\n      0x04\n      add\n      tag_80\n      swap1\n      tag_81\n      jump\t// in\n    tag_80:\n      mload(0x40)\n      dup1\n      swap2\n      sub\n      swap1\n      revert\n    tag_79:\n        /* \"contracts/RealAdvancedFundMe.sol\":1569:1589  uint fundraiserIndex */\n      0x00\n        /* \"contracts/RealAdvancedFundMe.sol\":1592:1603  fundraisers */\n      dup1\n        /* \"contracts/RealAdvancedFundMe.sol\":1592:1610  fundraisers.length */\n      dup1\n      sload\n      swap1\n      pop\n        /* \"contracts/RealAdvancedFundMe.sol\":1569:1610  uint fundraiserIndex = fundraisers.length */\n      swap1\n      pop\n        /* \"contracts/RealAdvancedFundMe.sol\":1621:1632  fundraisers */\n      0x00\n        /* \"contracts/RealAdvancedFundMe.sol\":1638:1860  Fundraiser({... */\n      mload(0x40)\n      dup1\n      0xc0\n      add\n      0x40\n      mstore\n      dup1\n        /* \"contracts/RealAdvancedFundMe.sol\":1673:1683  msg.sender */\n      caller\n        /* \"contracts/RealAdvancedFundMe.sol\":1638:1860  Fundraiser({... */\n      0xffffffffffffffffffffffffffffffffffffffff\n      and\n      dup2\n      mstore\n      0x20\n      add\n        /* \"contracts/RealAdvancedFundMe.sol\":1704:1708  name */\n      dup7\n        /* \"contracts/RealAdvancedFundMe.sol\":1638:1860  Fundraiser({... */\n      dup2\n      mstore\n      0x20\n      add\n        /* \"contracts/RealAdvancedFundMe.sol\":1736:1747  description */\n      dup6\n        /* \"contracts/RealAdvancedFundMe.sol\":1638:1860  Fundraiser({... */\n      dup2\n      mstore\n      0x20\n      add\n        /* \"contracts/RealAdvancedFundMe.sol\":1768:1772  goal */\n      dup5\n        /* \"contracts/RealAdvancedFundMe.sol\":1638:1860  Fundraiser({... */\n      dup2\n      mstore\n      0x20\n      add\n        /* \"contracts/RealAdvancedFundMe.sol\":1801:1802  0 */\n      0x00\n        /* \"contracts/RealAdvancedFundMe.sol\":1638:1860  Fundraiser({... */\n      dup2\n      mstore\n      0x20\n      add\n        /* \"contracts/RealAdvancedFundMe.sol\":1825:1848  FundraiserStatus.Active */\n      0x00\n        /* \"contracts/RealAdvancedFundMe.sol\":1638:1860  Fundraiser({... */\n      0x01\n      dup2\n      gt\n      iszero\n      tag_82\n      jumpi\n      tag_83\n      tag_58\n      jump\t// in\n    tag_83:\n    tag_82:\n      dup2\n      mstore\n      pop\n        /* \"contracts/RealAdvancedFundMe.sol\":1621:1861  fundraisers.push(Fundraiser({... */\n      swap1\n      dup1\n      0x01\n      dup2\n      sload\n      add\n      dup1\n      dup3\n      sstore\n      dup1\n      swap2\n      pop\n      pop\n      0x01\n      swap1\n      sub\n      swap1\n      0x00\n      mstore\n      keccak256(0x00, 0x20)\n      swap1\n      0x06\n      mul\n      add\n      0x00\n      swap1\n      swap2\n      swap1\n      swap2\n      swap1\n      swap2\n      pop\n      0x00\n      dup3\n      add\n      mload\n      dup2\n      0x00\n      add\n      exp(0x0100, 0x00)\n      dup2\n      sload\n      dup2\n      0xffffffffffffffffffffffffffffffffffffffff\n      mul\n      not\n      and\n      swap1\n      dup4\n      0xffffffffffffffffffffffffffffffffffffffff\n      and\n      mul\n      or\n      swap1\n      sstore\n      pop\n      0x20\n      dup3\n      add\n      mload\n      dup2\n      0x01\n      add\n      swap1\n      dup2\n      tag_85\n      swap2\n      swap1\n      tag_86\n      jump\t// in\n    tag_85:\n      pop\n      0x40\n      dup3\n      add\n      mload\n      dup2\n      0x02\n      add\n      swap1\n      dup2\n      tag_87\n      swap2\n      swap1\n      tag_86\n      jump\t// in\n    tag_87:\n      pop\n      0x60\n      dup3\n      add\n      mload\n      dup2\n      0x03\n      add\n      sstore\n      0x80\n      dup3\n      add\n      mload\n      dup2\n      0x04\n      add\n      sstore\n      0xa0\n      dup3\n      add\n      mload\n      dup2\n      0x05\n      add\n      exp(0x0100, 0x00)\n      dup2\n      sload\n      dup2\n      0xff\n      mul\n      not\n      and\n      swap1\n      dup4\n      0x01\n      dup2\n      gt\n      iszero\n      tag_88\n      jumpi\n      tag_89\n      tag_58\n      jump\t// in\n    tag_89:\n    tag_88:\n      mul\n      or\n      swap1\n      sstore\n      pop\n      pop\n      pop\n        /* \"contracts/RealAdvancedFundMe.sol\":1897:1907  msg.sender */\n      caller\n        /* \"contracts/RealAdvancedFundMe.sol\":1879:1925  FundraiserCreated(msg.sender, fundraiserIndex) */\n      0xffffffffffffffffffffffffffffffffffffffff\n      and\n      0x04fb5dc09970f675e2e724d4f46a295bbee1e840664a9079b476bbd65d99c0fa\n        /* \"contracts/RealAdvancedFundMe.sol\":1909:1924  fundraiserIndex */\n      dup3\n        /* \"contracts/RealAdvancedFundMe.sol\":1879:1925  FundraiserCreated(msg.sender, fundraiserIndex) */\n      mload(0x40)\n      tag_90\n      swap2\n      swap1\n      tag_19\n      jump\t// in\n    tag_90:\n      mload(0x40)\n      dup1\n      swap2\n      sub\n      swap1\n      log2\n        /* \"contracts/RealAdvancedFundMe.sol\":1282:1933  {... */\n      pop\n        /* \"contracts/RealAdvancedFundMe.sol\":1191:1933  function createFundraiser(string memory name, string memory description, uint goal) public {... */\n      pop\n      pop\n      pop\n      jump\t// out\n        /* \"contracts/RealAdvancedFundMe.sol\":1941:2872  function fund(uint fundraiserIndex) public payable {... */\n    tag_37:\n        /* \"contracts/RealAdvancedFundMe.sol\":2025:2036  fundraisers */\n      0x00\n        /* \"contracts/RealAdvancedFundMe.sol\":2025:2043  fundraisers.length */\n      dup1\n      sload\n      swap1\n      pop\n        /* \"contracts/RealAdvancedFundMe.sol\":2007:2022  fundraiserIndex */\n      dup2\n        /* \"contracts/RealAdvancedFundMe.sol\":2007:2043  fundraiserIndex < fundraisers.length */\n      lt\n        /* \"contracts/RealAdvancedFundMe.sol\":1999:2073  require(fundraiserIndex < fundraisers.length, \"Fundraiser does not exist\") */\n      tag_92\n      jumpi\n      mload(0x40)\n      0x08c379a000000000000000000000000000000000000000000000000000000000\n      dup2\n      mstore\n      0x04\n      add\n      tag_93\n      swap1\n      tag_51\n      jump\t// in\n    tag_93:\n      mload(0x40)\n      dup1\n      swap2\n      sub\n      swap1\n      revert\n    tag_92:\n        /* \"contracts/RealAdvancedFundMe.sol\":2080:2109  Fundraiser storage fundraiser */\n      0x00\n        /* \"contracts/RealAdvancedFundMe.sol\":2112:2123  fundraisers */\n      dup1\n        /* \"contracts/RealAdvancedFundMe.sol\":2124:2139  fundraiserIndex */\n      dup3\n        /* \"contracts/RealAdvancedFundMe.sol\":2112:2140  fundraisers[fundraiserIndex] */\n      dup2\n      sload\n      dup2\n      lt\n      tag_94\n      jumpi\n      tag_95\n      tag_54\n      jump\t// in\n    tag_95:\n    tag_94:\n      swap1\n      0x00\n      mstore\n      keccak256(0x00, 0x20)\n      swap1\n      0x06\n      mul\n      add\n        /* \"contracts/RealAdvancedFundMe.sol\":2080:2140  Fundraiser storage fundraiser = fundraisers[fundraiserIndex] */\n      swap1\n      pop\n        /* \"contracts/RealAdvancedFundMe.sol\":2178:2201  FundraiserStatus.Active */\n      0x00\n        /* \"contracts/RealAdvancedFundMe.sol\":2157:2201  fundraiser.status == FundraiserStatus.Active */\n      0x01\n      dup2\n      gt\n      iszero\n      tag_97\n      jumpi\n      tag_98\n      tag_58\n      jump\t// in\n    tag_98:\n    tag_97:\n        /* \"contracts/RealAdvancedFundMe.sol\":2157:2167  fundraiser */\n      dup2\n        /* \"contracts/RealAdvancedFundMe.sol\":2157:2174  fundraiser.status */\n      0x05\n      add\n      0x00\n      swap1\n      sload\n      swap1\n      0x0100\n      exp\n      swap1\n      div\n      0xff\n      and\n        /* \"contracts/RealAdvancedFundMe.sol\":2157:2201  fundraiser.status == FundraiserStatus.Active */\n      0x01\n      dup2\n      gt\n      iszero\n      tag_99\n      jumpi\n      tag_100\n      tag_58\n      jump\t// in\n    tag_100:\n    tag_99:\n      eq\n        /* \"contracts/RealAdvancedFundMe.sol\":2149:2230  require(fundraiser.status == FundraiserStatus.Active, \"Fundraiser is not active\") */\n      tag_101\n      jumpi\n      mload(0x40)\n      0x08c379a000000000000000000000000000000000000000000000000000000000\n      dup2\n      mstore\n      0x04\n      add\n      tag_102\n      swap1\n      tag_103\n      jump\t// in\n    tag_102:\n      mload(0x40)\n      dup1\n      swap2\n      sub\n      swap1\n      revert\n    tag_101:\n        /* \"contracts/RealAdvancedFundMe.sol\":2257:2258  0 */\n      0x00\n        /* \"contracts/RealAdvancedFundMe.sol\":2245:2254  msg.value */\n      callvalue\n        /* \"contracts/RealAdvancedFundMe.sol\":2245:2258  msg.value > 0 */\n      gt\n        /* \"contracts/RealAdvancedFundMe.sol\":2237:2297  require(msg.value > 0, \"Sent amount must be greater than 0\") */\n      tag_104\n      jumpi\n      mload(0x40)\n      0x08c379a000000000000000000000000000000000000000000000000000000000\n      dup2\n      mstore\n      0x04\n      add\n      tag_105\n      swap1\n      tag_106\n      jump\t// in\n    tag_105:\n      mload(0x40)\n      dup1\n      swap2\n      sub\n      swap1\n      revert\n    tag_104:\n        /* \"contracts/RealAdvancedFundMe.sol\":2382:2401  uint ethAmountInUsd */\n      0x00\n        /* \"contracts/RealAdvancedFundMe.sol\":2404:2433  msg.value.getConversionRate() */\n      tag_107\n        /* \"contracts/RealAdvancedFundMe.sol\":2404:2413  msg.value */\n      callvalue\n        /* \"contracts/RealAdvancedFundMe.sol\":2404:2431  msg.value.getConversionRate */\n      tag_108\n        /* \"contracts/RealAdvancedFundMe.sol\":2404:2433  msg.value.getConversionRate() */\n      jump\t// in\n    tag_107:\n        /* \"contracts/RealAdvancedFundMe.sol\":2382:2433  uint ethAmountInUsd = msg.value.getConversionRate() */\n      swap1\n      pop\n        /* \"contracts/RealAdvancedFundMe.sol\":2442:2463  uint currentRaisedUSD */\n      0x00\n        /* \"contracts/RealAdvancedFundMe.sol\":2466:2509  fundraiser.amountRaised.getConversionRate() */\n      tag_109\n        /* \"contracts/RealAdvancedFundMe.sol\":2466:2476  fundraiser */\n      dup4\n        /* \"contracts/RealAdvancedFundMe.sol\":2466:2489  fundraiser.amountRaised */\n      0x04\n      add\n      sload\n        /* \"contracts/RealAdvancedFundMe.sol\":2466:2507  fundraiser.amountRaised.getConversionRate */\n      tag_108\n        /* \"contracts/RealAdvancedFundMe.sol\":2466:2509  fundraiser.amountRaised.getConversionRate() */\n      jump\t// in\n    tag_109:\n        /* \"contracts/RealAdvancedFundMe.sol\":2442:2509  uint currentRaisedUSD = fundraiser.amountRaised.getConversionRate() */\n      swap1\n      pop\n        /* \"contracts/RealAdvancedFundMe.sol\":2563:2573  minimumUSD */\n      sload(0x02)\n        /* \"contracts/RealAdvancedFundMe.sol\":2543:2559  currentRaisedUSD */\n      dup2\n        /* \"contracts/RealAdvancedFundMe.sol\":2526:2540  ethAmountInUsd */\n      dup4\n        /* \"contracts/RealAdvancedFundMe.sol\":2526:2559  ethAmountInUsd + currentRaisedUSD */\n      tag_110\n      swap2\n      swap1\n      tag_111\n      jump\t// in\n    tag_110:\n        /* \"contracts/RealAdvancedFundMe.sol\":2526:2573  ethAmountInUsd + currentRaisedUSD >= minimumUSD */\n      lt\n      iszero\n        /* \"contracts/RealAdvancedFundMe.sol\":2518:2634  require(ethAmountInUsd + currentRaisedUSD >= minimumUSD, \"Fundraiser does not meet the minimum funding requirement\") */\n      tag_112\n      jumpi\n      mload(0x40)\n      0x08c379a000000000000000000000000000000000000000000000000000000000\n      dup2\n      mstore\n      0x04\n      add\n      tag_113\n      swap1\n      tag_114\n      jump\t// in\n    tag_113:\n      mload(0x40)\n      dup1\n      swap2\n      sub\n      swap1\n      revert\n    tag_112:\n        /* \"contracts/RealAdvancedFundMe.sol\":2670:2679  msg.value */\n      callvalue\n        /* \"contracts/RealAdvancedFundMe.sol\":2643:2653  fundraiser */\n      dup4\n        /* \"contracts/RealAdvancedFundMe.sol\":2643:2666  fundraiser.amountRaised */\n      0x04\n      add\n      0x00\n        /* \"contracts/RealAdvancedFundMe.sol\":2643:2679  fundraiser.amountRaised += msg.value */\n      dup3\n      dup3\n      sload\n      tag_115\n      swap2\n      swap1\n      tag_111\n      jump\t// in\n    tag_115:\n      swap3\n      pop\n      pop\n      dup2\n      swap1\n      sstore\n      pop\n        /* \"contracts/RealAdvancedFundMe.sol\":2708:2718  msg.sender */\n      caller\n        /* \"contracts/RealAdvancedFundMe.sol\":2691:2747  FundraiserFunded(msg.sender, fundraiserIndex, msg.value) */\n      0xffffffffffffffffffffffffffffffffffffffff\n      and\n      0x1b3bc3684e732e6309ed2cfc5bafc8464574a7d92a3fa931a3b83606f087b3e2\n        /* \"contracts/RealAdvancedFundMe.sol\":2720:2735  fundraiserIndex */\n      dup6\n        /* \"contracts/RealAdvancedFundMe.sol\":2737:2746  msg.value */\n      callvalue\n        /* \"contracts/RealAdvancedFundMe.sol\":2691:2747  FundraiserFunded(msg.sender, fundraiserIndex, msg.value) */\n      mload(0x40)\n      tag_116\n      swap3\n      swap2\n      swap1\n      tag_117\n      jump\t// in\n    tag_116:\n      mload(0x40)\n      dup1\n      swap2\n      sub\n      swap1\n      log2\n        /* \"contracts/RealAdvancedFundMe.sol\":2787:2797  fundraiser */\n      dup3\n        /* \"contracts/RealAdvancedFundMe.sol\":2787:2802  fundraiser.goal */\n      0x03\n      add\n      sload\n        /* \"contracts/RealAdvancedFundMe.sol\":2760:2770  fundraiser */\n      dup4\n        /* \"contracts/RealAdvancedFundMe.sol\":2760:2783  fundraiser.amountRaised */\n      0x04\n      add\n      sload\n        /* \"contracts/RealAdvancedFundMe.sol\":2760:2802  fundraiser.amountRaised >= fundraiser.goal */\n      lt\n        /* \"contracts/RealAdvancedFundMe.sol\":2756:2869  if (fundraiser.amountRaised >= fundraiser.goal) {... */\n      tag_118\n      jumpi\n        /* \"contracts/RealAdvancedFundMe.sol\":2835:2861  FundraiserStatus.Completed */\n      0x01\n        /* \"contracts/RealAdvancedFundMe.sol\":2815:2825  fundraiser */\n      dup4\n        /* \"contracts/RealAdvancedFundMe.sol\":2815:2832  fundraiser.status */\n      0x05\n      add\n      0x00\n        /* \"contracts/RealAdvancedFundMe.sol\":2815:2861  fundraiser.status = FundraiserStatus.Completed */\n      0x0100\n      exp\n      dup2\n      sload\n      dup2\n      0xff\n      mul\n      not\n      and\n      swap1\n      dup4\n      0x01\n      dup2\n      gt\n      iszero\n      tag_119\n      jumpi\n      tag_120\n      tag_58\n      jump\t// in\n    tag_120:\n    tag_119:\n      mul\n      or\n      swap1\n      sstore\n      pop\n        /* \"contracts/RealAdvancedFundMe.sol\":2756:2869  if (fundraiser.amountRaised >= fundraiser.goal) {... */\n    tag_118:\n        /* \"contracts/RealAdvancedFundMe.sol\":1992:2872  {... */\n      pop\n      pop\n      pop\n        /* \"contracts/RealAdvancedFundMe.sol\":1941:2872  function fund(uint fundraiserIndex) public payable {... */\n      pop\n      jump\t// out\n        /* \"contracts/RealAdvancedFundMe.sol\":525:556  Fundraiser[] public fundraisers */\n    tag_41:\n      0x00\n      dup2\n      dup2\n      sload\n      dup2\n      lt\n      tag_121\n      jumpi\n      0x00\n      dup1\n      revert\n    tag_121:\n      swap1\n      0x00\n      mstore\n      keccak256(0x00, 0x20)\n      swap1\n      0x06\n      mul\n      add\n      0x00\n      swap2\n      pop\n      swap1\n      pop\n      dup1\n      0x00\n      add\n      0x00\n      swap1\n      sload\n      swap1\n      0x0100\n      exp\n      swap1\n      div\n      0xffffffffffffffffffffffffffffffffffffffff\n      and\n      swap1\n      dup1\n      0x01\n      add\n      dup1\n      sload\n      tag_123\n      swap1\n      tag_124\n      jump\t// in\n    tag_123:\n      dup1\n      0x1f\n      add\n      0x20\n      dup1\n      swap2\n      div\n      mul\n      0x20\n      add\n      mload(0x40)\n      swap1\n      dup2\n      add\n      0x40\n      mstore\n      dup1\n      swap3\n      swap2\n      swap1\n      dup2\n      dup2\n      mstore\n      0x20\n      add\n      dup3\n      dup1\n      sload\n      tag_125\n      swap1\n      tag_124\n      jump\t// in\n    tag_125:\n      dup1\n      iszero\n      tag_126\n      jumpi\n      dup1\n      0x1f\n      lt\n      tag_127\n      jumpi\n      0x0100\n      dup1\n      dup4\n      sload\n      div\n      mul\n      dup4\n      mstore\n      swap2\n      0x20\n      add\n      swap2\n      jump(tag_126)\n    tag_127:\n      dup3\n      add\n      swap2\n      swap1\n      0x00\n      mstore\n      keccak256(0x00, 0x20)\n      swap1\n    tag_128:\n      dup2\n      sload\n      dup2\n      mstore\n      swap1\n      0x01\n      add\n      swap1\n      0x20\n      add\n      dup1\n      dup4\n      gt\n      tag_128\n      jumpi\n      dup3\n      swap1\n      sub\n      0x1f\n      and\n      dup3\n      add\n      swap2\n    tag_126:\n      pop\n      pop\n      pop\n      pop\n      pop\n      swap1\n      dup1\n      0x02\n      add\n      dup1\n      sload\n      tag_129\n      swap1\n      tag_124\n      jump\t// in\n    tag_129:\n      dup1\n      0x1f\n      add\n      0x20\n      dup1\n      swap2\n      div\n      mul\n      0x20\n      add\n      mload(0x40)\n      swap1\n      dup2\n      add\n      0x40\n      mstore\n      dup1\n      swap3\n      swap2\n      swap1\n      dup2\n      dup2\n      mstore\n      0x20\n      add\n      dup3\n      dup1\n      sload\n      tag_130\n      swap1\n      tag_124\n      jump\t// in\n    tag_130:\n      dup1\n      iszero\n      tag_131\n      jumpi\n      dup1\n      0x1f\n      lt\n      tag_132\n      jumpi\n      0x0100\n      dup1\n      dup4\n      sload\n      div\n      mul\n      dup4\n      mstore\n      swap2\n      0x20\n      add\n      swap2\n      jump(tag_131)\n    tag_132:\n      dup3\n      add\n      swap2\n      swap1\n      0x00\n      mstore\n      keccak256(0x00, 0x20)\n      swap1\n    tag_133:\n      dup2\n      sload\n      dup2\n      mstore\n      swap1\n      0x01\n      add\n      swap1\n      0x20\n      add\n      dup1\n      dup4\n      gt\n      tag_133\n      jumpi\n      dup3\n      swap1\n      sub\n      0x1f\n      and\n      dup3\n      add\n      swap2\n    tag_131:\n      pop\n      pop\n      pop\n      pop\n      pop\n      swap1\n      dup1\n      0x03\n      add\n      sload\n      swap1\n      dup1\n      0x04\n      add\n      sload\n      swap1\n      dup1\n      0x05\n      add\n      0x00\n      swap1\n      sload\n      swap1\n      0x0100\n      exp\n      swap1\n      div\n      0xff\n      and\n      swap1\n      pop\n      dup7\n      jump\t// out\n        /* \"contracts/PriceConverter.sol\":919:1419  function getConversionRate(uint256 ethAmount)... */\n    tag_108:\n        /* \"contracts/PriceConverter.sol\":1015:1022  uint256 */\n      0x00\n        /* \"contracts/PriceConverter.sol\":1040:1056  uint256 ethPrice */\n      dup1\n        /* \"contracts/PriceConverter.sol\":1059:1069  getPrice() */\n      tag_135\n        /* \"contracts/PriceConverter.sol\":1059:1067  getPrice */\n      tag_136\n        /* \"contracts/PriceConverter.sol\":1059:1069  getPrice() */\n      jump\t// in\n    tag_135:\n        /* \"contracts/PriceConverter.sol\":1040:1069  uint256 ethPrice = getPrice() */\n      swap1\n      pop\n        /* \"contracts/PriceConverter.sol\":1080:1102  uint256 ethAmountInUsd */\n      0x00\n        /* \"contracts/PriceConverter.sol\":1130:1149  1000000000000000000 */\n      0x0de0b6b3a7640000\n        /* \"contracts/PriceConverter.sol\":1117:1126  ethAmount */\n      dup5\n        /* \"contracts/PriceConverter.sol\":1106:1114  ethPrice */\n      dup4\n        /* \"contracts/PriceConverter.sol\":1106:1126  ethPrice * ethAmount */\n      tag_137\n      swap2\n      swap1\n      tag_138\n      jump\t// in\n    tag_137:\n        /* \"contracts/PriceConverter.sol\":1105:1149  (ethPrice * ethAmount) / 1000000000000000000 */\n      tag_139\n      swap2\n      swap1\n      tag_140\n      jump\t// in\n    tag_139:\n        /* \"contracts/PriceConverter.sol\":1080:1149  uint256 ethAmountInUsd = (ethPrice * ethAmount) / 1000000000000000000 */\n      swap1\n      pop\n        /* \"contracts/PriceConverter.sol\":1397:1411  ethAmountInUsd */\n      dup1\n        /* \"contracts/PriceConverter.sol\":1390:1411  return ethAmountInUsd */\n      swap3\n      pop\n      pop\n      pop\n        /* \"contracts/PriceConverter.sol\":919:1419  function getConversionRate(uint256 ethAmount)... */\n      swap2\n      swap1\n      pop\n      jump\t// out\n        /* \"contracts/PriceConverter.sol\":307:892  function getPrice() internal view returns (uint256) {... */\n    tag_136:\n        /* \"contracts/PriceConverter.sol\":350:357  uint256 */\n      0x00\n        /* \"contracts/PriceConverter.sol\":495:526  AggregatorV3Interface priceFeed */\n      dup1\n        /* \"contracts/PriceConverter.sol\":565:607  0x694AA1769357215DE4FAC081bf1f309aDC325306 */\n      0x694aa1769357215de4fac081bf1f309adc325306\n        /* \"contracts/PriceConverter.sol\":495:618  AggregatorV3Interface priceFeed = AggregatorV3Interface(... */\n      swap1\n      pop\n        /* \"contracts/PriceConverter.sol\":632:645  int256 answer */\n      0x00\n        /* \"contracts/PriceConverter.sol\":655:664  priceFeed */\n      dup2\n        /* \"contracts/PriceConverter.sol\":655:680  priceFeed.latestRoundData */\n      0xffffffffffffffffffffffffffffffffffffffff\n      and\n      0xfeaf968c\n        /* \"contracts/PriceConverter.sol\":655:682  priceFeed.latestRoundData() */\n      mload(0x40)\n      dup2\n      0xffffffff\n      and\n      0xe0\n      shl\n      dup2\n      mstore\n      0x04\n      add\n      0xa0\n      mload(0x40)\n      dup1\n      dup4\n      sub\n      dup2\n      dup7\n      gas\n      staticcall\n      iszero\n      dup1\n      iszero\n      tag_143\n      jumpi\n      returndatasize\n      0x00\n      dup1\n      returndatacopy\n      revert(0x00, returndatasize)\n    tag_143:\n      pop\n      pop\n      pop\n      pop\n      mload(0x40)\n      returndatasize\n      not(0x1f)\n      0x1f\n      dup3\n      add\n      and\n      dup3\n      add\n      dup1\n      0x40\n      mstore\n      pop\n      dup2\n      add\n      swap1\n      tag_144\n      swap2\n      swap1\n      tag_145\n      jump\t// in\n    tag_144:\n        /* \"contracts/PriceConverter.sol\":629:682  (, int256 answer, , , ) = priceFeed.latestRoundData() */\n      pop\n      pop\n      pop\n      swap2\n      pop\n      pop\n        /* \"contracts/PriceConverter.sol\":754:765  10000000000 */\n      0x02540be400\n        /* \"contracts/PriceConverter.sol\":745:751  answer */\n      dup2\n        /* \"contracts/PriceConverter.sol\":745:765  answer * 10000000000 */\n      tag_146\n      swap2\n      swap1\n      tag_147\n      jump\t// in\n    tag_146:\n        /* \"contracts/PriceConverter.sol\":730:766  return uint256(answer * 10000000000) */\n      swap3\n      pop\n      pop\n      pop\n        /* \"contracts/PriceConverter.sol\":307:892  function getPrice() internal view returns (uint256) {... */\n      swap1\n      jump\t// out\n        /* \"#utility.yul\":7:82   */\n    tag_148:\n        /* \"#utility.yul\":40:46   */\n      0x00\n        /* \"#utility.yul\":73:75   */\n      0x40\n        /* \"#utility.yul\":67:76   */\n      mload\n        /* \"#utility.yul\":57:76   */\n      swap1\n      pop\n        /* \"#utility.yul\":7:82   */\n      swap1\n      jump\t// out\n        /* \"#utility.yul\":88:205   */\n    tag_149:\n        /* \"#utility.yul\":197:198   */\n      0x00\n        /* \"#utility.yul\":194:195   */\n      dup1\n        /* \"#utility.yul\":187:199   */\n      revert\n        /* \"#utility.yul\":211:328   */\n    tag_150:\n        /* \"#utility.yul\":320:321   */\n      0x00\n        /* \"#utility.yul\":317:318   */\n      dup1\n        /* \"#utility.yul\":310:322   */\n      revert\n        /* \"#utility.yul\":334:411   */\n    tag_151:\n        /* \"#utility.yul\":371:378   */\n      0x00\n        /* \"#utility.yul\":400:405   */\n      dup2\n        /* \"#utility.yul\":389:405   */\n      swap1\n      pop\n        /* \"#utility.yul\":334:411   */\n      swap2\n      swap1\n      pop\n      jump\t// out\n        /* \"#utility.yul\":417:539   */\n    tag_152:\n        /* \"#utility.yul\":490:514   */\n      tag_234\n        /* \"#utility.yul\":508:513   */\n      dup2\n        /* \"#utility.yul\":490:514   */\n      tag_151\n      jump\t// in\n    tag_234:\n        /* \"#utility.yul\":483:488   */\n      dup2\n        /* \"#utility.yul\":480:515   */\n      eq\n        /* \"#utility.yul\":470:533   */\n      tag_235\n      jumpi\n        /* \"#utility.yul\":529:530   */\n      0x00\n        /* \"#utility.yul\":526:527   */\n      dup1\n        /* \"#utility.yul\":519:531   */\n      revert\n        /* \"#utility.yul\":470:533   */\n    tag_235:\n        /* \"#utility.yul\":417:539   */\n      pop\n      jump\t// out\n        /* \"#utility.yul\":545:684   */\n    tag_153:\n        /* \"#utility.yul\":591:596   */\n      0x00\n        /* \"#utility.yul\":629:635   */\n      dup2\n        /* \"#utility.yul\":616:636   */\n      calldataload\n        /* \"#utility.yul\":607:636   */\n      swap1\n      pop\n        /* \"#utility.yul\":645:678   */\n      tag_237\n        /* \"#utility.yul\":672:677   */\n      dup2\n        /* \"#utility.yul\":645:678   */\n      tag_152\n      jump\t// in\n    tag_237:\n        /* \"#utility.yul\":545:684   */\n      swap3\n      swap2\n      pop\n      pop\n      jump\t// out\n        /* \"#utility.yul\":690:1019   */\n    tag_13:\n        /* \"#utility.yul\":749:755   */\n      0x00\n        /* \"#utility.yul\":798:800   */\n      0x20\n        /* \"#utility.yul\":786:795   */\n      dup3\n        /* \"#utility.yul\":777:784   */\n      dup5\n        /* \"#utility.yul\":773:796   */\n      sub\n        /* \"#utility.yul\":769:801   */\n      slt\n        /* \"#utility.yul\":766:885   */\n      iszero\n      tag_239\n      jumpi\n        /* \"#utility.yul\":804:883   */\n      tag_240\n      tag_149\n      jump\t// in\n    tag_240:\n        /* \"#utility.yul\":766:885   */\n    tag_239:\n        /* \"#utility.yul\":924:925   */\n      0x00\n        /* \"#utility.yul\":949:1002   */\n      tag_241\n        /* \"#utility.yul\":994:1001   */\n      dup5\n        /* \"#utility.yul\":985:991   */\n      dup3\n        /* \"#utility.yul\":974:983   */\n      dup6\n        /* \"#utility.yul\":970:992   */\n      add\n        /* \"#utility.yul\":949:1002   */\n      tag_153\n      jump\t// in\n    tag_241:\n        /* \"#utility.yul\":939:1002   */\n      swap2\n      pop\n        /* \"#utility.yul\":895:1012   */\n      pop\n        /* \"#utility.yul\":690:1019   */\n      swap3\n      swap2\n      pop\n      pop\n      jump\t// out\n        /* \"#utility.yul\":1025:1143   */\n    tag_154:\n        /* \"#utility.yul\":1112:1136   */\n      tag_243\n        /* \"#utility.yul\":1130:1135   */\n      dup2\n        /* \"#utility.yul\":1112:1136   */\n      tag_151\n      jump\t// in\n    tag_243:\n        /* \"#utility.yul\":1107:1110   */\n      dup3\n        /* \"#utility.yul\":1100:1137   */\n      mstore\n        /* \"#utility.yul\":1025:1143   */\n      pop\n      pop\n      jump\t// out\n        /* \"#utility.yul\":1149:1371   */\n    tag_19:\n        /* \"#utility.yul\":1242:1246   */\n      0x00\n        /* \"#utility.yul\":1280:1282   */\n      0x20\n        /* \"#utility.yul\":1269:1278   */\n      dup3\n        /* \"#utility.yul\":1265:1283   */\n      add\n        /* \"#utility.yul\":1257:1283   */\n      swap1\n      pop\n        /* \"#utility.yul\":1293:1364   */\n      tag_245\n        /* \"#utility.yul\":1361:1362   */\n      0x00\n        /* \"#utility.yul\":1350:1359   */\n      dup4\n        /* \"#utility.yul\":1346:1363   */\n      add\n        /* \"#utility.yul\":1337:1343   */\n      dup5\n        /* \"#utility.yul\":1293:1364   */\n      tag_154\n      jump\t// in\n    tag_245:\n        /* \"#utility.yul\":1149:1371   */\n      swap3\n      swap2\n      pop\n      pop\n      jump\t// out\n        /* \"#utility.yul\":1377:1503   */\n    tag_155:\n        /* \"#utility.yul\":1414:1421   */\n      0x00\n        /* \"#utility.yul\":1454:1496   */\n      0xffffffffffffffffffffffffffffffffffffffff\n        /* \"#utility.yul\":1447:1452   */\n      dup3\n        /* \"#utility.yul\":1443:1497   */\n      and\n        /* \"#utility.yul\":1432:1497   */\n      swap1\n      pop\n        /* \"#utility.yul\":1377:1503   */\n      swap2\n      swap1\n      pop\n      jump\t// out\n        /* \"#utility.yul\":1509:1569   */\n    tag_156:\n        /* \"#utility.yul\":1537:1540   */\n      0x00\n        /* \"#utility.yul\":1558:1563   */\n      dup2\n        /* \"#utility.yul\":1551:1563   */\n      swap1\n      pop\n        /* \"#utility.yul\":1509:1569   */\n      swap2\n      swap1\n      pop\n      jump\t// out\n        /* \"#utility.yul\":1575:1717   */\n    tag_157:\n        /* \"#utility.yul\":1625:1634   */\n      0x00\n        /* \"#utility.yul\":1658:1711   */\n      tag_249\n        /* \"#utility.yul\":1676:1710   */\n      tag_250\n        /* \"#utility.yul\":1685:1709   */\n      tag_251\n        /* \"#utility.yul\":1703:1708   */\n      dup5\n        /* \"#utility.yul\":1685:1709   */\n      tag_155\n      jump\t// in\n    tag_251:\n        /* \"#utility.yul\":1676:1710   */\n      tag_156\n      jump\t// in\n    tag_250:\n        /* \"#utility.yul\":1658:1711   */\n      tag_155\n      jump\t// in\n    tag_249:\n        /* \"#utility.yul\":1645:1711   */\n      swap1\n      pop\n        /* \"#utility.yul\":1575:1717   */\n      swap2\n      swap1\n      pop\n      jump\t// out\n        /* \"#utility.yul\":1723:1849   */\n    tag_158:\n        /* \"#utility.yul\":1773:1782   */\n      0x00\n        /* \"#utility.yul\":1806:1843   */\n      tag_253\n        /* \"#utility.yul\":1837:1842   */\n      dup3\n        /* \"#utility.yul\":1806:1843   */\n      tag_157\n      jump\t// in\n    tag_253:\n        /* \"#utility.yul\":1793:1843   */\n      swap1\n      pop\n        /* \"#utility.yul\":1723:1849   */\n      swap2\n      swap1\n      pop\n      jump\t// out\n        /* \"#utility.yul\":1855:2009   */\n    tag_159:\n        /* \"#utility.yul\":1933:1942   */\n      0x00\n        /* \"#utility.yul\":1966:2003   */\n      tag_255\n        /* \"#utility.yul\":1997:2002   */\n      dup3\n        /* \"#utility.yul\":1966:2003   */\n      tag_158\n      jump\t// in\n    tag_255:\n        /* \"#utility.yul\":1953:2003   */\n      swap1\n      pop\n        /* \"#utility.yul\":1855:2009   */\n      swap2\n      swap1\n      pop\n      jump\t// out\n        /* \"#utility.yul\":2015:2202   */\n    tag_160:\n        /* \"#utility.yul\":2130:2195   */\n      tag_257\n        /* \"#utility.yul\":2189:2194   */\n      dup2\n        /* \"#utility.yul\":2130:2195   */\n      tag_159\n      jump\t// in\n    tag_257:\n        /* \"#utility.yul\":2125:2128   */\n      dup3\n        /* \"#utility.yul\":2118:2196   */\n      mstore\n        /* \"#utility.yul\":2015:2202   */\n      pop\n      pop\n      jump\t// out\n        /* \"#utility.yul\":2208:2486   */\n    tag_24:\n        /* \"#utility.yul\":2329:2333   */\n      0x00\n        /* \"#utility.yul\":2367:2369   */\n      0x20\n        /* \"#utility.yul\":2356:2365   */\n      dup3\n        /* \"#utility.yul\":2352:2370   */\n      add\n        /* \"#utility.yul\":2344:2370   */\n      swap1\n      pop\n        /* \"#utility.yul\":2380:2479   */\n      tag_259\n        /* \"#utility.yul\":2476:2477   */\n      0x00\n        /* \"#utility.yul\":2465:2474   */\n      dup4\n        /* \"#utility.yul\":2461:2478   */\n      add\n        /* \"#utility.yul\":2452:2458   */\n      dup5\n        /* \"#utility.yul\":2380:2479   */\n      tag_160\n      jump\t// in\n    tag_259:\n        /* \"#utility.yul\":2208:2486   */\n      swap3\n      swap2\n      pop\n      pop\n      jump\t// out\n        /* \"#utility.yul\":2492:2588   */\n    tag_161:\n        /* \"#utility.yul\":2529:2536   */\n      0x00\n        /* \"#utility.yul\":2558:2582   */\n      tag_261\n        /* \"#utility.yul\":2576:2581   */\n      dup3\n        /* \"#utility.yul\":2558:2582   */\n      tag_155\n      jump\t// in\n    tag_261:\n        /* \"#utility.yul\":2547:2582   */\n      swap1\n      pop\n        /* \"#utility.yul\":2492:2588   */\n      swap2\n      swap1\n      pop\n      jump\t// out\n        /* \"#utility.yul\":2594:2712   */\n    tag_162:\n        /* \"#utility.yul\":2681:2705   */\n      tag_263\n        /* \"#utility.yul\":2699:2704   */\n      dup2\n        /* \"#utility.yul\":2681:2705   */\n      tag_161\n      jump\t// in\n    tag_263:\n        /* \"#utility.yul\":2676:2679   */\n      dup3\n        /* \"#utility.yul\":2669:2706   */\n      mstore\n        /* \"#utility.yul\":2594:2712   */\n      pop\n      pop\n      jump\t// out\n        /* \"#utility.yul\":2718:2940   */\n    tag_29:\n        /* \"#utility.yul\":2811:2815   */\n      0x00\n        /* \"#utility.yul\":2849:2851   */\n      0x20\n        /* \"#utility.yul\":2838:2847   */\n      dup3\n        /* \"#utility.yul\":2834:2852   */\n      add\n        /* \"#utility.yul\":2826:2852   */\n      swap1\n      pop\n        /* \"#utility.yul\":2862:2933   */\n      tag_265\n        /* \"#utility.yul\":2930:2931   */\n      0x00\n        /* \"#utility.yul\":2919:2928   */\n      dup4\n        /* \"#utility.yul\":2915:2932   */\n      add\n        /* \"#utility.yul\":2906:2912   */\n      dup5\n        /* \"#utility.yul\":2862:2933   */\n      tag_162\n      jump\t// in\n    tag_265:\n        /* \"#utility.yul\":2718:2940   */\n      swap3\n      swap2\n      pop\n      pop\n      jump\t// out\n        /* \"#utility.yul\":2946:3063   */\n    tag_163:\n        /* \"#utility.yul\":3055:3056   */\n      0x00\n        /* \"#utility.yul\":3052:3053   */\n      dup1\n        /* \"#utility.yul\":3045:3057   */\n      revert\n        /* \"#utility.yul\":3069:3186   */\n    tag_164:\n        /* \"#utility.yul\":3178:3179   */\n      0x00\n        /* \"#utility.yul\":3175:3176   */\n      dup1\n        /* \"#utility.yul\":3168:3180   */\n      revert\n        /* \"#utility.yul\":3192:3294   */\n    tag_165:\n        /* \"#utility.yul\":3233:3239   */\n      0x00\n        /* \"#utility.yul\":3284:3286   */\n      0x1f\n        /* \"#utility.yul\":3280:3287   */\n      not\n        /* \"#utility.yul\":3275:3277   */\n      0x1f\n        /* \"#utility.yul\":3268:3273   */\n      dup4\n        /* \"#utility.yul\":3264:3278   */\n      add\n        /* \"#utility.yul\":3260:3288   */\n      and\n        /* \"#utility.yul\":3250:3288   */\n      swap1\n      pop\n        /* \"#utility.yul\":3192:3294   */\n      swap2\n      swap1\n      pop\n      jump\t// out\n        /* \"#utility.yul\":3300:3480   */\n    tag_166:\n        /* \"#utility.yul\":3348:3425   */\n      0x4e487b7100000000000000000000000000000000000000000000000000000000\n        /* \"#utility.yul\":3345:3346   */\n      0x00\n        /* \"#utility.yul\":3338:3426   */\n      mstore\n        /* \"#utility.yul\":3445:3449   */\n      0x41\n        /* \"#utility.yul\":3442:3443   */\n      0x04\n        /* \"#utility.yul\":3435:3450   */\n      mstore\n        /* \"#utility.yul\":3469:3473   */\n      0x24\n        /* \"#utility.yul\":3466:3467   */\n      0x00\n        /* \"#utility.yul\":3459:3474   */\n      revert\n        /* \"#utility.yul\":3486:3767   */\n    tag_167:\n        /* \"#utility.yul\":3569:3596   */\n      tag_271\n        /* \"#utility.yul\":3591:3595   */\n      dup3\n        /* \"#utility.yul\":3569:3596   */\n      tag_165\n      jump\t// in\n    tag_271:\n        /* \"#utility.yul\":3561:3567   */\n      dup2\n        /* \"#utility.yul\":3557:3597   */\n      add\n        /* \"#utility.yul\":3699:3705   */\n      dup2\n        /* \"#utility.yul\":3687:3697   */\n      dup2\n        /* \"#utility.yul\":3684:3706   */\n      lt\n        /* \"#utility.yul\":3663:3681   */\n      0xffffffffffffffff\n        /* \"#utility.yul\":3651:3661   */\n      dup3\n        /* \"#utility.yul\":3648:3682   */\n      gt\n        /* \"#utility.yul\":3645:3707   */\n      or\n        /* \"#utility.yul\":3642:3730   */\n      iszero\n      tag_272\n      jumpi\n        /* \"#utility.yul\":3710:3728   */\n      tag_273\n      tag_166\n      jump\t// in\n    tag_273:\n        /* \"#utility.yul\":3642:3730   */\n    tag_272:\n        /* \"#utility.yul\":3750:3760   */\n      dup1\n        /* \"#utility.yul\":3746:3748   */\n      0x40\n        /* \"#utility.yul\":3739:3761   */\n      mstore\n        /* \"#utility.yul\":3529:3767   */\n      pop\n        /* \"#utility.yul\":3486:3767   */\n      pop\n      pop\n      jump\t// out\n        /* \"#utility.yul\":3773:3902   */\n    tag_168:\n        /* \"#utility.yul\":3807:3813   */\n      0x00\n        /* \"#utility.yul\":3834:3854   */\n      tag_275\n      tag_148\n      jump\t// in\n    tag_275:\n        /* \"#utility.yul\":3824:3854   */\n      swap1\n      pop\n        /* \"#utility.yul\":3863:3896   */\n      tag_276\n        /* \"#utility.yul\":3891:3895   */\n      dup3\n        /* \"#utility.yul\":3883:3889   */\n      dup3\n        /* \"#utility.yul\":3863:3896   */\n      tag_167\n      jump\t// in\n    tag_276:\n        /* \"#utility.yul\":3773:3902   */\n      swap2\n      swap1\n      pop\n      jump\t// out\n        /* \"#utility.yul\":3908:4216   */\n    tag_169:\n        /* \"#utility.yul\":3970:3974   */\n      0x00\n        /* \"#utility.yul\":4060:4078   */\n      0xffffffffffffffff\n        /* \"#utility.yul\":4052:4058   */\n      dup3\n        /* \"#utility.yul\":4049:4079   */\n      gt\n        /* \"#utility.yul\":4046:4102   */\n      iszero\n      tag_278\n      jumpi\n        /* \"#utility.yul\":4082:4100   */\n      tag_279\n      tag_166\n      jump\t// in\n    tag_279:\n        /* \"#utility.yul\":4046:4102   */\n    tag_278:\n        /* \"#utility.yul\":4120:4149   */\n      tag_280\n        /* \"#utility.yul\":4142:4148   */\n      dup3\n        /* \"#utility.yul\":4120:4149   */\n      tag_165\n      jump\t// in\n    tag_280:\n        /* \"#utility.yul\":4112:4149   */\n      swap1\n      pop\n        /* \"#utility.yul\":4204:4208   */\n      0x20\n        /* \"#utility.yul\":4198:4202   */\n      dup2\n        /* \"#utility.yul\":4194:4209   */\n      add\n        /* \"#utility.yul\":4186:4209   */\n      swap1\n      pop\n        /* \"#utility.yul\":3908:4216   */\n      swap2\n      swap1\n      pop\n      jump\t// out\n        /* \"#utility.yul\":4222:4368   */\n    tag_170:\n        /* \"#utility.yul\":4319:4325   */\n      dup3\n        /* \"#utility.yul\":4314:4317   */\n      dup2\n        /* \"#utility.yul\":4309:4312   */\n      dup4\n        /* \"#utility.yul\":4296:4326   */\n      calldatacopy\n        /* \"#utility.yul\":4360:4361   */\n      0x00\n        /* \"#utility.yul\":4351:4357   */\n      dup4\n        /* \"#utility.yul\":4346:4349   */\n      dup4\n        /* \"#utility.yul\":4342:4358   */\n      add\n        /* \"#utility.yul\":4335:4362   */\n      mstore\n        /* \"#utility.yul\":4222:4368   */\n      pop\n      pop\n      pop\n      jump\t// out\n        /* \"#utility.yul\":4374:4799   */\n    tag_171:\n        /* \"#utility.yul\":4452:4457   */\n      0x00\n        /* \"#utility.yul\":4477:4543   */\n      tag_283\n        /* \"#utility.yul\":4493:4542   */\n      tag_284\n        /* \"#utility.yul\":4535:4541   */\n      dup5\n        /* \"#utility.yul\":4493:4542   */\n      tag_169\n      jump\t// in\n    tag_284:\n        /* \"#utility.yul\":4477:4543   */\n      tag_168\n      jump\t// in\n    tag_283:\n        /* \"#utility.yul\":4468:4543   */\n      swap1\n      pop\n        /* \"#utility.yul\":4566:4572   */\n      dup3\n        /* \"#utility.yul\":4559:4564   */\n      dup2\n        /* \"#utility.yul\":4552:4573   */\n      mstore\n        /* \"#utility.yul\":4604:4608   */\n      0x20\n        /* \"#utility.yul\":4597:4602   */\n      dup2\n        /* \"#utility.yul\":4593:4609   */\n      add\n        /* \"#utility.yul\":4642:4645   */\n      dup5\n        /* \"#utility.yul\":4633:4639   */\n      dup5\n        /* \"#utility.yul\":4628:4631   */\n      dup5\n        /* \"#utility.yul\":4624:4640   */\n      add\n        /* \"#utility.yul\":4621:4646   */\n      gt\n        /* \"#utility.yul\":4618:4730   */\n      iszero\n      tag_285\n      jumpi\n        /* \"#utility.yul\":4649:4728   */\n      tag_286\n      tag_164\n      jump\t// in\n    tag_286:\n        /* \"#utility.yul\":4618:4730   */\n    tag_285:\n        /* \"#utility.yul\":4739:4793   */\n      tag_287\n        /* \"#utility.yul\":4786:4792   */\n      dup5\n        /* \"#utility.yul\":4781:4784   */\n      dup3\n        /* \"#utility.yul\":4776:4779   */\n      dup6\n        /* \"#utility.yul\":4739:4793   */\n      tag_170\n      jump\t// in\n    tag_287:\n        /* \"#utility.yul\":4458:4799   */\n      pop\n        /* \"#utility.yul\":4374:4799   */\n      swap4\n      swap3\n      pop\n      pop\n      pop\n      jump\t// out\n        /* \"#utility.yul\":4819:5159   */\n    tag_172:\n        /* \"#utility.yul\":4875:4880   */\n      0x00\n        /* \"#utility.yul\":4924:4927   */\n      dup3\n        /* \"#utility.yul\":4917:4921   */\n      0x1f\n        /* \"#utility.yul\":4909:4915   */\n      dup4\n        /* \"#utility.yul\":4905:4922   */\n      add\n        /* \"#utility.yul\":4901:4928   */\n      slt\n        /* \"#utility.yul\":4891:5013   */\n      tag_289\n      jumpi\n        /* \"#utility.yul\":4932:5011   */\n      tag_290\n      tag_163\n      jump\t// in\n    tag_290:\n        /* \"#utility.yul\":4891:5013   */\n    tag_289:\n        /* \"#utility.yul\":5049:5055   */\n      dup2\n        /* \"#utility.yul\":5036:5056   */\n      calldataload\n        /* \"#utility.yul\":5074:5153   */\n      tag_291\n        /* \"#utility.yul\":5149:5152   */\n      dup5\n        /* \"#utility.yul\":5141:5147   */\n      dup3\n        /* \"#utility.yul\":5134:5138   */\n      0x20\n        /* \"#utility.yul\":5126:5132   */\n      dup7\n        /* \"#utility.yul\":5122:5139   */\n      add\n        /* \"#utility.yul\":5074:5153   */\n      tag_171\n      jump\t// in\n    tag_291:\n        /* \"#utility.yul\":5065:5153   */\n      swap2\n      pop\n        /* \"#utility.yul\":4881:5159   */\n      pop\n        /* \"#utility.yul\":4819:5159   */\n      swap3\n      swap2\n      pop\n      pop\n      jump\t// out\n        /* \"#utility.yul\":5165:6144   */\n    tag_33:\n        /* \"#utility.yul\":5262:5268   */\n      0x00\n        /* \"#utility.yul\":5270:5276   */\n      dup1\n        /* \"#utility.yul\":5278:5284   */\n      0x00\n        /* \"#utility.yul\":5327:5329   */\n      0x60\n        /* \"#utility.yul\":5315:5324   */\n      dup5\n        /* \"#utility.yul\":5306:5313   */\n      dup7\n        /* \"#utility.yul\":5302:5325   */\n      sub\n        /* \"#utility.yul\":5298:5330   */\n      slt\n        /* \"#utility.yul\":5295:5414   */\n      iszero\n      tag_293\n      jumpi\n        /* \"#utility.yul\":5333:5412   */\n      tag_294\n      tag_149\n      jump\t// in\n    tag_294:\n        /* \"#utility.yul\":5295:5414   */\n    tag_293:\n        /* \"#utility.yul\":5481:5482   */\n      0x00\n        /* \"#utility.yul\":5470:5479   */\n      dup5\n        /* \"#utility.yul\":5466:5483   */\n      add\n        /* \"#utility.yul\":5453:5484   */\n      calldataload\n        /* \"#utility.yul\":5511:5529   */\n      0xffffffffffffffff\n        /* \"#utility.yul\":5503:5509   */\n      dup2\n        /* \"#utility.yul\":5500:5530   */\n      gt\n        /* \"#utility.yul\":5497:5614   */\n      iszero\n      tag_295\n      jumpi\n        /* \"#utility.yul\":5533:5612   */\n      tag_296\n      tag_150\n      jump\t// in\n    tag_296:\n        /* \"#utility.yul\":5497:5614   */\n    tag_295:\n        /* \"#utility.yul\":5638:5701   */\n      tag_297\n        /* \"#utility.yul\":5693:5700   */\n      dup7\n        /* \"#utility.yul\":5684:5690   */\n      dup3\n        /* \"#utility.yul\":5673:5682   */\n      dup8\n        /* \"#utility.yul\":5669:5691   */\n      add\n        /* \"#utility.yul\":5638:5701   */\n      tag_172\n      jump\t// in\n    tag_297:\n        /* \"#utility.yul\":5628:5701   */\n      swap4\n      pop\n        /* \"#utility.yul\":5424:5711   */\n      pop\n        /* \"#utility.yul\":5778:5780   */\n      0x20\n        /* \"#utility.yul\":5767:5776   */\n      dup5\n        /* \"#utility.yul\":5763:5781   */\n      add\n        /* \"#utility.yul\":5750:5782   */\n      calldataload\n        /* \"#utility.yul\":5809:5827   */\n      0xffffffffffffffff\n        /* \"#utility.yul\":5801:5807   */\n      dup2\n        /* \"#utility.yul\":5798:5828   */\n      gt\n        /* \"#utility.yul\":5795:5912   */\n      iszero\n      tag_298\n      jumpi\n        /* \"#utility.yul\":5831:5910   */\n      tag_299\n      tag_150\n      jump\t// in\n    tag_299:\n        /* \"#utility.yul\":5795:5912   */\n    tag_298:\n        /* \"#utility.yul\":5936:5999   */\n      tag_300\n        /* \"#utility.yul\":5991:5998   */\n      dup7\n        /* \"#utility.yul\":5982:5988   */\n      dup3\n        /* \"#utility.yul\":5971:5980   */\n      dup8\n        /* \"#utility.yul\":5967:5989   */\n      add\n        /* \"#utility.yul\":5936:5999   */\n      tag_172\n      jump\t// in\n    tag_300:\n        /* \"#utility.yul\":5926:5999   */\n      swap3\n      pop\n        /* \"#utility.yul\":5721:6009   */\n      pop\n        /* \"#utility.yul\":6048:6050   */\n      0x40\n        /* \"#utility.yul\":6074:6127   */\n      tag_301\n        /* \"#utility.yul\":6119:6126   */\n      dup7\n        /* \"#utility.yul\":6110:6116   */\n      dup3\n        /* \"#utility.yul\":6099:6108   */\n      dup8\n        /* \"#utility.yul\":6095:6117   */\n      add\n        /* \"#utility.yul\":6074:6127   */\n      tag_153\n      jump\t// in\n    tag_301:\n        /* \"#utility.yul\":6064:6127   */\n      swap2\n      pop\n        /* \"#utility.yul\":6019:6137   */\n      pop\n        /* \"#utility.yul\":5165:6144   */\n      swap3\n      pop\n      swap3\n      pop\n      swap3\n      jump\t// out\n        /* \"#utility.yul\":6150:6249   */\n    tag_173:\n        /* \"#utility.yul\":6202:6208   */\n      0x00\n        /* \"#utility.yul\":6236:6241   */\n      dup2\n        /* \"#utility.yul\":6230:6242   */\n      mload\n        /* \"#utility.yul\":6220:6242   */\n      swap1\n      pop\n        /* \"#utility.yul\":6150:6249   */\n      swap2\n      swap1\n      pop\n      jump\t// out\n        /* \"#utility.yul\":6255:6424   */\n    tag_174:\n        /* \"#utility.yul\":6339:6350   */\n      0x00\n        /* \"#utility.yul\":6373:6379   */\n      dup3\n        /* \"#utility.yul\":6368:6371   */\n      dup3\n        /* \"#utility.yul\":6361:6380   */\n      mstore\n        /* \"#utility.yul\":6413:6417   */\n      0x20\n        /* \"#utility.yul\":6408:6411   */\n      dup3\n        /* \"#utility.yul\":6404:6418   */\n      add\n        /* \"#utility.yul\":6389:6418   */\n      swap1\n      pop\n        /* \"#utility.yul\":6255:6424   */\n      swap3\n      swap2\n      pop\n      pop\n      jump\t// out\n        /* \"#utility.yul\":6430:6676   */\n    tag_175:\n        /* \"#utility.yul\":6511:6512   */\n      0x00\n        /* \"#utility.yul\":6521:6634   */\n    tag_305:\n        /* \"#utility.yul\":6535:6541   */\n      dup4\n        /* \"#utility.yul\":6532:6533   */\n      dup2\n        /* \"#utility.yul\":6529:6542   */\n      lt\n        /* \"#utility.yul\":6521:6634   */\n      iszero\n      tag_307\n      jumpi\n        /* \"#utility.yul\":6620:6621   */\n      dup1\n        /* \"#utility.yul\":6615:6618   */\n      dup3\n        /* \"#utility.yul\":6611:6622   */\n      add\n        /* \"#utility.yul\":6605:6623   */\n      mload\n        /* \"#utility.yul\":6601:6602   */\n      dup2\n        /* \"#utility.yul\":6596:6599   */\n      dup5\n        /* \"#utility.yul\":6592:6603   */\n      add\n        /* \"#utility.yul\":6585:6624   */\n      mstore\n        /* \"#utility.yul\":6557:6559   */\n      0x20\n        /* \"#utility.yul\":6554:6555   */\n      dup2\n        /* \"#utility.yul\":6550:6560   */\n      add\n        /* \"#utility.yul\":6545:6560   */\n      swap1\n      pop\n        /* \"#utility.yul\":6521:6634   */\n      jump(tag_305)\n    tag_307:\n        /* \"#utility.yul\":6668:6669   */\n      0x00\n        /* \"#utility.yul\":6659:6665   */\n      dup5\n        /* \"#utility.yul\":6654:6657   */\n      dup5\n        /* \"#utility.yul\":6650:6666   */\n      add\n        /* \"#utility.yul\":6643:6670   */\n      mstore\n        /* \"#utility.yul\":6492:6676   */\n      pop\n        /* \"#utility.yul\":6430:6676   */\n      pop\n      pop\n      pop\n      jump\t// out\n        /* \"#utility.yul\":6682:7059   */\n    tag_176:\n        /* \"#utility.yul\":6770:6773   */\n      0x00\n        /* \"#utility.yul\":6798:6837   */\n      tag_309\n        /* \"#utility.yul\":6831:6836   */\n      dup3\n        /* \"#utility.yul\":6798:6837   */\n      tag_173\n      jump\t// in\n    tag_309:\n        /* \"#utility.yul\":6853:6924   */\n      tag_310\n        /* \"#utility.yul\":6917:6923   */\n      dup2\n        /* \"#utility.yul\":6912:6915   */\n      dup6\n        /* \"#utility.yul\":6853:6924   */\n      tag_174\n      jump\t// in\n    tag_310:\n        /* \"#utility.yul\":6846:6924   */\n      swap4\n      pop\n        /* \"#utility.yul\":6933:6998   */\n      tag_311\n        /* \"#utility.yul\":6991:6997   */\n      dup2\n        /* \"#utility.yul\":6986:6989   */\n      dup6\n        /* \"#utility.yul\":6979:6983   */\n      0x20\n        /* \"#utility.yul\":6972:6977   */\n      dup7\n        /* \"#utility.yul\":6968:6984   */\n      add\n        /* \"#utility.yul\":6933:6998   */\n      tag_175\n      jump\t// in\n    tag_311:\n        /* \"#utility.yul\":7023:7052   */\n      tag_312\n        /* \"#utility.yul\":7045:7051   */\n      dup2\n        /* \"#utility.yul\":7023:7052   */\n      tag_165\n      jump\t// in\n    tag_312:\n        /* \"#utility.yul\":7018:7021   */\n      dup5\n        /* \"#utility.yul\":7014:7053   */\n      add\n        /* \"#utility.yul\":7007:7053   */\n      swap2\n      pop\n        /* \"#utility.yul\":6774:7059   */\n      pop\n        /* \"#utility.yul\":6682:7059   */\n      swap3\n      swap2\n      pop\n      pop\n      jump\t// out\n        /* \"#utility.yul\":7065:7245   */\n    tag_58:\n        /* \"#utility.yul\":7113:7190   */\n      0x4e487b7100000000000000000000000000000000000000000000000000000000\n        /* \"#utility.yul\":7110:7111   */\n      0x00\n        /* \"#utility.yul\":7103:7191   */\n      mstore\n        /* \"#utility.yul\":7210:7214   */\n      0x21\n        /* \"#utility.yul\":7207:7208   */\n      0x04\n        /* \"#utility.yul\":7200:7215   */\n      mstore\n        /* \"#utility.yul\":7234:7238   */\n      0x24\n        /* \"#utility.yul\":7231:7232   */\n      0x00\n        /* \"#utility.yul\":7224:7239   */\n      revert\n        /* \"#utility.yul\":7251:7376   */\n    tag_177:\n        /* \"#utility.yul\":7344:7345   */\n      0x02\n        /* \"#utility.yul\":7337:7342   */\n      dup2\n        /* \"#utility.yul\":7334:7346   */\n      lt\n        /* \"#utility.yul\":7324:7370   */\n      tag_315\n      jumpi\n        /* \"#utility.yul\":7350:7368   */\n      tag_316\n      tag_58\n      jump\t// in\n    tag_316:\n        /* \"#utility.yul\":7324:7370   */\n    tag_315:\n        /* \"#utility.yul\":7251:7376   */\n      pop\n      jump\t// out\n        /* \"#utility.yul\":7382:7533   */\n    tag_178:\n        /* \"#utility.yul\":7439:7446   */\n      0x00\n        /* \"#utility.yul\":7468:7473   */\n      dup2\n        /* \"#utility.yul\":7457:7473   */\n      swap1\n      pop\n        /* \"#utility.yul\":7474:7527   */\n      tag_318\n        /* \"#utility.yul\":7521:7526   */\n      dup3\n        /* \"#utility.yul\":7474:7527   */\n      tag_177\n      jump\t// in\n    tag_318:\n        /* \"#utility.yul\":7382:7533   */\n      swap2\n      swap1\n      pop\n      jump\t// out\n        /* \"#utility.yul\":7539:7690   */\n    tag_179:\n        /* \"#utility.yul\":7607:7616   */\n      0x00\n        /* \"#utility.yul\":7640:7684   */\n      tag_320\n        /* \"#utility.yul\":7678:7683   */\n      dup3\n        /* \"#utility.yul\":7640:7684   */\n      tag_178\n      jump\t// in\n    tag_320:\n        /* \"#utility.yul\":7627:7684   */\n      swap1\n      pop\n        /* \"#utility.yul\":7539:7690   */\n      swap2\n      swap1\n      pop\n      jump\t// out\n        /* \"#utility.yul\":7696:7863   */\n    tag_180:\n        /* \"#utility.yul\":7801:7856   */\n      tag_322\n        /* \"#utility.yul\":7850:7855   */\n      dup2\n        /* \"#utility.yul\":7801:7856   */\n      tag_179\n      jump\t// in\n    tag_322:\n        /* \"#utility.yul\":7796:7799   */\n      dup3\n        /* \"#utility.yul\":7789:7857   */\n      mstore\n        /* \"#utility.yul\":7696:7863   */\n      pop\n      pop\n      jump\t// out\n        /* \"#utility.yul\":7869:8862   */\n    tag_43:\n        /* \"#utility.yul\":8160:8164   */\n      0x00\n        /* \"#utility.yul\":8198:8201   */\n      0xc0\n        /* \"#utility.yul\":8187:8196   */\n      dup3\n        /* \"#utility.yul\":8183:8202   */\n      add\n        /* \"#utility.yul\":8175:8202   */\n      swap1\n      pop\n        /* \"#utility.yul\":8212:8283   */\n      tag_324\n        /* \"#utility.yul\":8280:8281   */\n      0x00\n        /* \"#utility.yul\":8269:8278   */\n      dup4\n        /* \"#utility.yul\":8265:8282   */\n      add\n        /* \"#utility.yul\":8256:8262   */\n      dup10\n        /* \"#utility.yul\":8212:8283   */\n      tag_162\n      jump\t// in\n    tag_324:\n        /* \"#utility.yul\":8330:8339   */\n      dup2\n        /* \"#utility.yul\":8324:8328   */\n      dup2\n        /* \"#utility.yul\":8320:8340   */\n      sub\n        /* \"#utility.yul\":8315:8317   */\n      0x20\n        /* \"#utility.yul\":8304:8313   */\n      dup4\n        /* \"#utility.yul\":8300:8318   */\n      add\n        /* \"#utility.yul\":8293:8341   */\n      mstore\n        /* \"#utility.yul\":8358:8436   */\n      tag_325\n        /* \"#utility.yul\":8431:8435   */\n      dup2\n        /* \"#utility.yul\":8422:8428   */\n      dup9\n        /* \"#utility.yul\":8358:8436   */\n      tag_176\n      jump\t// in\n    tag_325:\n        /* \"#utility.yul\":8350:8436   */\n      swap1\n      pop\n        /* \"#utility.yul\":8483:8492   */\n      dup2\n        /* \"#utility.yul\":8477:8481   */\n      dup2\n        /* \"#utility.yul\":8473:8493   */\n      sub\n        /* \"#utility.yul\":8468:8470   */\n      0x40\n        /* \"#utility.yul\":8457:8466   */\n      dup4\n        /* \"#utility.yul\":8453:8471   */\n      add\n        /* \"#utility.yul\":8446:8494   */\n      mstore\n        /* \"#utility.yul\":8511:8589   */\n      tag_326\n        /* \"#utility.yul\":8584:8588   */\n      dup2\n        /* \"#utility.yul\":8575:8581   */\n      dup8\n        /* \"#utility.yul\":8511:8589   */\n      tag_176\n      jump\t// in\n    tag_326:\n        /* \"#utility.yul\":8503:8589   */\n      swap1\n      pop\n        /* \"#utility.yul\":8599:8671   */\n      tag_327\n        /* \"#utility.yul\":8667:8669   */\n      0x60\n        /* \"#utility.yul\":8656:8665   */\n      dup4\n        /* \"#utility.yul\":8652:8670   */\n      add\n        /* \"#utility.yul\":8643:8649   */\n      dup7\n        /* \"#utility.yul\":8599:8671   */\n      tag_154\n      jump\t// in\n    tag_327:\n        /* \"#utility.yul\":8681:8754   */\n      tag_328\n        /* \"#utility.yul\":8749:8752   */\n      0x80\n        /* \"#utility.yul\":8738:8747   */\n      dup4\n        /* \"#utility.yul\":8734:8753   */\n      add\n        /* \"#utility.yul\":8725:8731   */\n      dup6\n        /* \"#utility.yul\":8681:8754   */\n      tag_154\n      jump\t// in\n    tag_328:\n        /* \"#utility.yul\":8764:8855   */\n      tag_329\n        /* \"#utility.yul\":8850:8853   */\n      0xa0\n        /* \"#utility.yul\":8839:8848   */\n      dup4\n        /* \"#utility.yul\":8835:8854   */\n      add\n        /* \"#utility.yul\":8826:8832   */\n      dup5\n        /* \"#utility.yul\":8764:8855   */\n      tag_180\n      jump\t// in\n    tag_329:\n        /* \"#utility.yul\":7869:8862   */\n      swap8\n      swap7\n      pop\n      pop\n      pop\n      pop\n      pop\n      pop\n      pop\n      jump\t// out\n        /* \"#utility.yul\":8868:9092   */\n    tag_181:\n        /* \"#utility.yul\":9008:9042   */\n      0x4f6e6c7920746865206f776e65722063616e2063616c6c20746869732066756e\n        /* \"#utility.yul\":9004:9005   */\n      0x00\n        /* \"#utility.yul\":8996:9002   */\n      dup3\n        /* \"#utility.yul\":8992:9006   */\n      add\n        /* \"#utility.yul\":8985:9043   */\n      mstore\n        /* \"#utility.yul\":9077:9084   */\n      0x6374696f6e000000000000000000000000000000000000000000000000000000\n        /* \"#utility.yul\":9072:9074   */\n      0x20\n        /* \"#utility.yul\":9064:9070   */\n      dup3\n        /* \"#utility.yul\":9060:9075   */\n      add\n        /* \"#utility.yul\":9053:9085   */\n      mstore\n        /* \"#utility.yul\":8868:9092   */\n      pop\n      jump\t// out\n        /* \"#utility.yul\":9098:9464   */\n    tag_182:\n        /* \"#utility.yul\":9240:9243   */\n      0x00\n        /* \"#utility.yul\":9261:9328   */\n      tag_332\n        /* \"#utility.yul\":9325:9327   */\n      0x25\n        /* \"#utility.yul\":9320:9323   */\n      dup4\n        /* \"#utility.yul\":9261:9328   */\n      tag_174\n      jump\t// in\n    tag_332:\n        /* \"#utility.yul\":9254:9328   */\n      swap2\n      pop\n        /* \"#utility.yul\":9337:9430   */\n      tag_333\n        /* \"#utility.yul\":9426:9429   */\n      dup3\n        /* \"#utility.yul\":9337:9430   */\n      tag_181\n      jump\t// in\n    tag_333:\n        /* \"#utility.yul\":9455:9457   */\n      0x40\n        /* \"#utility.yul\":9450:9453   */\n      dup3\n        /* \"#utility.yul\":9446:9458   */\n      add\n        /* \"#utility.yul\":9439:9458   */\n      swap1\n      pop\n        /* \"#utility.yul\":9098:9464   */\n      swap2\n      swap1\n      pop\n      jump\t// out\n        /* \"#utility.yul\":9470:9889   */\n    tag_47:\n        /* \"#utility.yul\":9636:9640   */\n      0x00\n        /* \"#utility.yul\":9674:9676   */\n      0x20\n        /* \"#utility.yul\":9663:9672   */\n      dup3\n        /* \"#utility.yul\":9659:9677   */\n      add\n        /* \"#utility.yul\":9651:9677   */\n      swap1\n      pop\n        /* \"#utility.yul\":9723:9732   */\n      dup2\n        /* \"#utility.yul\":9717:9721   */\n      dup2\n        /* \"#utility.yul\":9713:9733   */\n      sub\n        /* \"#utility.yul\":9709:9710   */\n      0x00\n        /* \"#utility.yul\":9698:9707   */\n      dup4\n        /* \"#utility.yul\":9694:9711   */\n      add\n        /* \"#utility.yul\":9687:9734   */\n      mstore\n        /* \"#utility.yul\":9751:9882   */\n      tag_335\n        /* \"#utility.yul\":9877:9881   */\n      dup2\n        /* \"#utility.yul\":9751:9882   */\n      tag_182\n      jump\t// in\n    tag_335:\n        /* \"#utility.yul\":9743:9882   */\n      swap1\n      pop\n        /* \"#utility.yul\":9470:9889   */\n      swap2\n      swap1\n      pop\n      jump\t// out\n        /* \"#utility.yul\":9895:10070   */\n    tag_183:\n        /* \"#utility.yul\":10035:10062   */\n      0x46756e6472616973657220646f6573206e6f7420657869737400000000000000\n        /* \"#utility.yul\":10031:10032   */\n      0x00\n        /* \"#utility.yul\":10023:10029   */\n      dup3\n        /* \"#utility.yul\":10019:10033   */\n      add\n        /* \"#utility.yul\":10012:10063   */\n      mstore\n        /* \"#utility.yul\":9895:10070   */\n      pop\n      jump\t// out\n        /* \"#utility.yul\":10076:10442   */\n    tag_184:\n        /* \"#utility.yul\":10218:10221   */\n      0x00\n        /* \"#utility.yul\":10239:10306   */\n      tag_338\n        /* \"#utility.yul\":10303:10305   */\n      0x19\n        /* \"#utility.yul\":10298:10301   */\n      dup4\n        /* \"#utility.yul\":10239:10306   */\n      tag_174\n      jump\t// in\n    tag_338:\n        /* \"#utility.yul\":10232:10306   */\n      swap2\n      pop\n        /* \"#utility.yul\":10315:10408   */\n      tag_339\n        /* \"#utility.yul\":10404:10407   */\n      dup3\n        /* \"#utility.yul\":10315:10408   */\n      tag_183\n      jump\t// in\n    tag_339:\n        /* \"#utility.yul\":10433:10435   */\n      0x20\n        /* \"#utility.yul\":10428:10431   */\n      dup3\n        /* \"#utility.yul\":10424:10436   */\n      add\n        /* \"#utility.yul\":10417:10436   */\n      swap1\n      pop\n        /* \"#utility.yul\":10076:10442   */\n      swap2\n      swap1\n      pop\n      jump\t// out\n        /* \"#utility.yul\":10448:10867   */\n    tag_51:\n        /* \"#utility.yul\":10614:10618   */\n      0x00\n        /* \"#utility.yul\":10652:10654   */\n      0x20\n        /* \"#utility.yul\":10641:10650   */\n      dup3\n        /* \"#utility.yul\":10637:10655   */\n      add\n        /* \"#utility.yul\":10629:10655   */\n      swap1\n      pop\n        /* \"#utility.yul\":10701:10710   */\n      dup2\n        /* \"#utility.yul\":10695:10699   */\n      dup2\n        /* \"#utility.yul\":10691:10711   */\n      sub\n        /* \"#utility.yul\":10687:10688   */\n      0x00\n        /* \"#utility.yul\":10676:10685   */\n      dup4\n        /* \"#utility.yul\":10672:10689   */\n      add\n        /* \"#utility.yul\":10665:10712   */\n      mstore\n        /* \"#utility.yul\":10729:10860   */\n      tag_341\n        /* \"#utility.yul\":10855:10859   */\n      dup2\n        /* \"#utility.yul\":10729:10860   */\n      tag_184\n      jump\t// in\n    tag_341:\n        /* \"#utility.yul\":10721:10860   */\n      swap1\n      pop\n        /* \"#utility.yul\":10448:10867   */\n      swap2\n      swap1\n      pop\n      jump\t// out\n        /* \"#utility.yul\":10873:11053   */\n    tag_54:\n        /* \"#utility.yul\":10921:10998   */\n      0x4e487b7100000000000000000000000000000000000000000000000000000000\n        /* \"#utility.yul\":10918:10919   */\n      0x00\n        /* \"#utility.yul\":10911:10999   */\n      mstore\n        /* \"#utility.yul\":11018:11022   */\n      0x32\n        /* \"#utility.yul\":11015:11016   */\n      0x04\n        /* \"#utility.yul\":11008:11023   */\n      mstore\n        /* \"#utility.yul\":11042:11046   */\n      0x24\n        /* \"#utility.yul\":11039:11040   */\n      0x00\n        /* \"#utility.yul\":11032:11047   */\n      revert\n        /* \"#utility.yul\":11059:11236   */\n    tag_185:\n        /* \"#utility.yul\":11199:11228   */\n      0x46756e64726169736572206973206e6f7420636f6d706c657465640000000000\n        /* \"#utility.yul\":11195:11196   */\n      0x00\n        /* \"#utility.yul\":11187:11193   */\n      dup3\n        /* \"#utility.yul\":11183:11197   */\n      add\n        /* \"#utility.yul\":11176:11229   */\n      mstore\n        /* \"#utility.yul\":11059:11236   */\n      pop\n      jump\t// out\n        /* \"#utility.yul\":11242:11608   */\n    tag_186:\n        /* \"#utility.yul\":11384:11387   */\n      0x00\n        /* \"#utility.yul\":11405:11472   */\n      tag_345\n        /* \"#utility.yul\":11469:11471   */\n      0x1b\n        /* \"#utility.yul\":11464:11467   */\n      dup4\n        /* \"#utility.yul\":11405:11472   */\n      tag_174\n      jump\t// in\n    tag_345:\n        /* \"#utility.yul\":11398:11472   */\n      swap2\n      pop\n        /* \"#utility.yul\":11481:11574   */\n      tag_346\n        /* \"#utility.yul\":11570:11573   */\n      dup3\n        /* \"#utility.yul\":11481:11574   */\n      tag_185\n      jump\t// in\n    tag_346:\n        /* \"#utility.yul\":11599:11601   */\n      0x20\n        /* \"#utility.yul\":11594:11597   */\n      dup3\n        /* \"#utility.yul\":11590:11602   */\n      add\n        /* \"#utility.yul\":11583:11602   */\n      swap1\n      pop\n        /* \"#utility.yul\":11242:11608   */\n      swap2\n      swap1\n      pop\n      jump\t// out\n        /* \"#utility.yul\":11614:12033   */\n    tag_63:\n        /* \"#utility.yul\":11780:11784   */\n      0x00\n        /* \"#utility.yul\":11818:11820   */\n      0x20\n        /* \"#utility.yul\":11807:11816   */\n      dup3\n        /* \"#utility.yul\":11803:11821   */\n      add\n        /* \"#utility.yul\":11795:11821   */\n      swap1\n      pop\n        /* \"#utility.yul\":11867:11876   */\n      dup2\n        /* \"#utility.yul\":11861:11865   */\n      dup2\n        /* \"#utility.yul\":11857:11877   */\n      sub\n        /* \"#utility.yul\":11853:11854   */\n      0x00\n        /* \"#utility.yul\":11842:11851   */\n      dup4\n        /* \"#utility.yul\":11838:11855   */\n      add\n        /* \"#utility.yul\":11831:11878   */\n      mstore\n        /* \"#utility.yul\":11895:12026   */\n      tag_348\n        /* \"#utility.yul\":12021:12025   */\n      dup2\n        /* \"#utility.yul\":11895:12026   */\n      tag_186\n      jump\t// in\n    tag_348:\n        /* \"#utility.yul\":11887:12026   */\n      swap1\n      pop\n        /* \"#utility.yul\":11614:12033   */\n      swap2\n      swap1\n      pop\n      jump\t// out\n        /* \"#utility.yul\":12039:12186   */\n    tag_187:\n        /* \"#utility.yul\":12140:12151   */\n      0x00\n        /* \"#utility.yul\":12177:12180   */\n      dup2\n        /* \"#utility.yul\":12162:12180   */\n      swap1\n      pop\n        /* \"#utility.yul\":12039:12186   */\n      swap3\n      swap2\n      pop\n      pop\n      jump\t// out\n        /* \"#utility.yul\":12192:12306   */\n    tag_188:\n      pop\n      jump\t// out\n        /* \"#utility.yul\":12312:12710   */\n    tag_189:\n        /* \"#utility.yul\":12471:12474   */\n      0x00\n        /* \"#utility.yul\":12492:12575   */\n      tag_352\n        /* \"#utility.yul\":12573:12574   */\n      0x00\n        /* \"#utility.yul\":12568:12571   */\n      dup4\n        /* \"#utility.yul\":12492:12575   */\n      tag_187\n      jump\t// in\n    tag_352:\n        /* \"#utility.yul\":12485:12575   */\n      swap2\n      pop\n        /* \"#utility.yul\":12584:12677   */\n      tag_353\n        /* \"#utility.yul\":12673:12676   */\n      dup3\n        /* \"#utility.yul\":12584:12677   */\n      tag_188\n      jump\t// in\n    tag_353:\n        /* \"#utility.yul\":12702:12703   */\n      0x00\n        /* \"#utility.yul\":12697:12700   */\n      dup3\n        /* \"#utility.yul\":12693:12704   */\n      add\n        /* \"#utility.yul\":12686:12704   */\n      swap1\n      pop\n        /* \"#utility.yul\":12312:12710   */\n      swap2\n      swap1\n      pop\n      jump\t// out\n        /* \"#utility.yul\":12716:13095   */\n    tag_65:\n        /* \"#utility.yul\":12900:12903   */\n      0x00\n        /* \"#utility.yul\":12922:13069   */\n      tag_355\n        /* \"#utility.yul\":13065:13068   */\n      dup3\n        /* \"#utility.yul\":12922:13069   */\n      tag_189\n      jump\t// in\n    tag_355:\n        /* \"#utility.yul\":12915:13069   */\n      swap2\n      pop\n        /* \"#utility.yul\":13086:13089   */\n      dup2\n        /* \"#utility.yul\":13079:13089   */\n      swap1\n      pop\n        /* \"#utility.yul\":12716:13095   */\n      swap2\n      swap1\n      pop\n      jump\t// out\n        /* \"#utility.yul\":13101:13268   */\n    tag_190:\n        /* \"#utility.yul\":13241:13260   */\n      0x5769746864726177616c206661696c6564000000000000000000000000000000\n        /* \"#utility.yul\":13237:13238   */\n      0x00\n        /* \"#utility.yul\":13229:13235   */\n      dup3\n        /* \"#utility.yul\":13225:13239   */\n      add\n        /* \"#utility.yul\":13218:13261   */\n      mstore\n        /* \"#utility.yul\":13101:13268   */\n      pop\n      jump\t// out\n        /* \"#utility.yul\":13274:13640   */\n    tag_191:\n        /* \"#utility.yul\":13416:13419   */\n      0x00\n        /* \"#utility.yul\":13437:13504   */\n      tag_358\n        /* \"#utility.yul\":13501:13503   */\n      0x11\n        /* \"#utility.yul\":13496:13499   */\n      dup4\n        /* \"#utility.yul\":13437:13504   */\n      tag_174\n      jump\t// in\n    tag_358:\n        /* \"#utility.yul\":13430:13504   */\n      swap2\n      pop\n        /* \"#utility.yul\":13513:13606   */\n      tag_359\n        /* \"#utility.yul\":13602:13605   */\n      dup3\n        /* \"#utility.yul\":13513:13606   */\n      tag_190\n      jump\t// in\n    tag_359:\n        /* \"#utility.yul\":13631:13633   */\n      0x20\n        /* \"#utility.yul\":13626:13629   */\n      dup3\n        /* \"#utility.yul\":13622:13634   */\n      add\n        /* \"#utility.yul\":13615:13634   */\n      swap1\n      pop\n        /* \"#utility.yul\":13274:13640   */\n      swap2\n      swap1\n      pop\n      jump\t// out\n        /* \"#utility.yul\":13646:14065   */\n    tag_71:\n        /* \"#utility.yul\":13812:13816   */\n      0x00\n        /* \"#utility.yul\":13850:13852   */\n      0x20\n        /* \"#utility.yul\":13839:13848   */\n      dup3\n        /* \"#utility.yul\":13835:13853   */\n      add\n        /* \"#utility.yul\":13827:13853   */\n      swap1\n      pop\n        /* \"#utility.yul\":13899:13908   */\n      dup2\n        /* \"#utility.yul\":13893:13897   */\n      dup2\n        /* \"#utility.yul\":13889:13909   */\n      sub\n        /* \"#utility.yul\":13885:13886   */\n      0x00\n        /* \"#utility.yul\":13874:13883   */\n      dup4\n        /* \"#utility.yul\":13870:13887   */\n      add\n        /* \"#utility.yul\":13863:13910   */\n      mstore\n        /* \"#utility.yul\":13927:14058   */\n      tag_361\n        /* \"#utility.yul\":14053:14057   */\n      dup2\n        /* \"#utility.yul\":13927:14058   */\n      tag_191\n      jump\t// in\n    tag_361:\n        /* \"#utility.yul\":13919:14058   */\n      swap1\n      pop\n        /* \"#utility.yul\":13646:14065   */\n      swap2\n      swap1\n      pop\n      jump\t// out\n        /* \"#utility.yul\":14071:14252   */\n    tag_192:\n        /* \"#utility.yul\":14211:14244   */\n      0x46756e64726169736572206e616d652063616e6e6f7420626520656d70747900\n        /* \"#utility.yul\":14207:14208   */\n      0x00\n        /* \"#utility.yul\":14199:14205   */\n      dup3\n        /* \"#utility.yul\":14195:14209   */\n      add\n        /* \"#utility.yul\":14188:14245   */\n      mstore\n        /* \"#utility.yul\":14071:14252   */\n      pop\n      jump\t// out\n        /* \"#utility.yul\":14258:14624   */\n    tag_193:\n        /* \"#utility.yul\":14400:14403   */\n      0x00\n        /* \"#utility.yul\":14421:14488   */\n      tag_364\n        /* \"#utility.yul\":14485:14487   */\n      0x1f\n        /* \"#utility.yul\":14480:14483   */\n      dup4\n        /* \"#utility.yul\":14421:14488   */\n      tag_174\n      jump\t// in\n    tag_364:\n        /* \"#utility.yul\":14414:14488   */\n      swap2\n      pop\n        /* \"#utility.yul\":14497:14590   */\n      tag_365\n        /* \"#utility.yul\":14586:14589   */\n      dup3\n        /* \"#utility.yul\":14497:14590   */\n      tag_192\n      jump\t// in\n    tag_365:\n        /* \"#utility.yul\":14615:14617   */\n      0x20\n        /* \"#utility.yul\":14610:14613   */\n      dup3\n        /* \"#utility.yul\":14606:14618   */\n      add\n        /* \"#utility.yul\":14599:14618   */\n      swap1\n      pop\n        /* \"#utility.yul\":14258:14624   */\n      swap2\n      swap1\n      pop\n      jump\t// out\n        /* \"#utility.yul\":14630:15049   */\n    tag_75:\n        /* \"#utility.yul\":14796:14800   */\n      0x00\n        /* \"#utility.yul\":14834:14836   */\n      0x20\n        /* \"#utility.yul\":14823:14832   */\n      dup3\n        /* \"#utility.yul\":14819:14837   */\n      add\n        /* \"#utility.yul\":14811:14837   */\n      swap1\n      pop\n        /* \"#utility.yul\":14883:14892   */\n      dup2\n        /* \"#utility.yul\":14877:14881   */\n      dup2\n        /* \"#utility.yul\":14873:14893   */\n      sub\n        /* \"#utility.yul\":14869:14870   */\n      0x00\n        /* \"#utility.yul\":14858:14867   */\n      dup4\n        /* \"#utility.yul\":14854:14871   */\n      add\n        /* \"#utility.yul\":14847:14894   */\n      mstore\n        /* \"#utility.yul\":14911:15042   */\n      tag_367\n        /* \"#utility.yul\":15037:15041   */\n      dup2\n        /* \"#utility.yul\":14911:15042   */\n      tag_193\n      jump\t// in\n    tag_367:\n        /* \"#utility.yul\":14903:15042   */\n      swap1\n      pop\n        /* \"#utility.yul\":14630:15049   */\n      swap2\n      swap1\n      pop\n      jump\t// out\n        /* \"#utility.yul\":15055:15280   */\n    tag_194:\n        /* \"#utility.yul\":15195:15229   */\n      0x46756e64726169736572206465736372697074696f6e2063616e6e6f74206265\n        /* \"#utility.yul\":15191:15192   */\n      0x00\n        /* \"#utility.yul\":15183:15189   */\n      dup3\n        /* \"#utility.yul\":15179:15193   */\n      add\n        /* \"#utility.yul\":15172:15230   */\n      mstore\n        /* \"#utility.yul\":15264:15272   */\n      0x20656d7074790000000000000000000000000000000000000000000000000000\n        /* \"#utility.yul\":15259:15261   */\n      0x20\n        /* \"#utility.yul\":15251:15257   */\n      dup3\n        /* \"#utility.yul\":15247:15262   */\n      add\n        /* \"#utility.yul\":15240:15273   */\n      mstore\n        /* \"#utility.yul\":15055:15280   */\n      pop\n      jump\t// out\n        /* \"#utility.yul\":15286:15652   */\n    tag_195:\n        /* \"#utility.yul\":15428:15431   */\n      0x00\n        /* \"#utility.yul\":15449:15516   */\n      tag_370\n        /* \"#utility.yul\":15513:15515   */\n      0x26\n        /* \"#utility.yul\":15508:15511   */\n      dup4\n        /* \"#utility.yul\":15449:15516   */\n      tag_174\n      jump\t// in\n    tag_370:\n        /* \"#utility.yul\":15442:15516   */\n      swap2\n      pop\n        /* \"#utility.yul\":15525:15618   */\n      tag_371\n        /* \"#utility.yul\":15614:15617   */\n      dup3\n        /* \"#utility.yul\":15525:15618   */\n      tag_194\n      jump\t// in\n    tag_371:\n        /* \"#utility.yul\":15643:15645   */\n      0x40\n        /* \"#utility.yul\":15638:15641   */\n      dup3\n        /* \"#utility.yul\":15634:15646   */\n      add\n        /* \"#utility.yul\":15627:15646   */\n      swap1\n      pop\n        /* \"#utility.yul\":15286:15652   */\n      swap2\n      swap1\n      pop\n      jump\t// out\n        /* \"#utility.yul\":15658:16077   */\n    tag_78:\n        /* \"#utility.yul\":15824:15828   */\n      0x00\n        /* \"#utility.yul\":15862:15864   */\n      0x20\n        /* \"#utility.yul\":15851:15860   */\n      dup3\n        /* \"#utility.yul\":15847:15865   */\n      add\n        /* \"#utility.yul\":15839:15865   */\n      swap1\n      pop\n        /* \"#utility.yul\":15911:15920   */\n      dup2\n        /* \"#utility.yul\":15905:15909   */\n      dup2\n        /* \"#utility.yul\":15901:15921   */\n      sub\n        /* \"#utility.yul\":15897:15898   */\n      0x00\n        /* \"#utility.yul\":15886:15895   */\n      dup4\n        /* \"#utility.yul\":15882:15899   */\n      add\n        /* \"#utility.yul\":15875:15922   */\n      mstore\n        /* \"#utility.yul\":15939:16070   */\n      tag_373\n        /* \"#utility.yul\":16065:16069   */\n      dup2\n        /* \"#utility.yul\":15939:16070   */\n      tag_195\n      jump\t// in\n    tag_373:\n        /* \"#utility.yul\":15931:16070   */\n      swap1\n      pop\n        /* \"#utility.yul\":15658:16077   */\n      swap2\n      swap1\n      pop\n      jump\t// out\n        /* \"#utility.yul\":16083:16315   */\n    tag_196:\n        /* \"#utility.yul\":16223:16257   */\n      0x46756e6472616973657220676f616c20616d6f756e74206d7573742062652067\n        /* \"#utility.yul\":16219:16220   */\n      0x00\n        /* \"#utility.yul\":16211:16217   */\n      dup3\n        /* \"#utility.yul\":16207:16221   */\n      add\n        /* \"#utility.yul\":16200:16258   */\n      mstore\n        /* \"#utility.yul\":16292:16307   */\n      0x726561746572207468616e203000000000000000000000000000000000000000\n        /* \"#utility.yul\":16287:16289   */\n      0x20\n        /* \"#utility.yul\":16279:16285   */\n      dup3\n        /* \"#utility.yul\":16275:16290   */\n      add\n        /* \"#utility.yul\":16268:16308   */\n      mstore\n        /* \"#utility.yul\":16083:16315   */\n      pop\n      jump\t// out\n        /* \"#utility.yul\":16321:16687   */\n    tag_197:\n        /* \"#utility.yul\":16463:16466   */\n      0x00\n        /* \"#utility.yul\":16484:16551   */\n      tag_376\n        /* \"#utility.yul\":16548:16550   */\n      0x2d\n        /* \"#utility.yul\":16543:16546   */\n      dup4\n        /* \"#utility.yul\":16484:16551   */\n      tag_174\n      jump\t// in\n    tag_376:\n        /* \"#utility.yul\":16477:16551   */\n      swap2\n      pop\n        /* \"#utility.yul\":16560:16653   */\n      tag_377\n        /* \"#utility.yul\":16649:16652   */\n      dup3\n        /* \"#utility.yul\":16560:16653   */\n      tag_196\n      jump\t// in\n    tag_377:\n        /* \"#utility.yul\":16678:16680   */\n      0x40\n        /* \"#utility.yul\":16673:16676   */\n      dup3\n        /* \"#utility.yul\":16669:16681   */\n      add\n        /* \"#utility.yul\":16662:16681   */\n      swap1\n      pop\n        /* \"#utility.yul\":16321:16687   */\n      swap2\n      swap1\n      pop\n      jump\t// out\n        /* \"#utility.yul\":16693:17112   */\n    tag_81:\n        /* \"#utility.yul\":16859:16863   */\n      0x00\n        /* \"#utility.yul\":16897:16899   */\n      0x20\n        /* \"#utility.yul\":16886:16895   */\n      dup3\n        /* \"#utility.yul\":16882:16900   */\n      add\n        /* \"#utility.yul\":16874:16900   */\n      swap1\n      pop\n        /* \"#utility.yul\":16946:16955   */\n      dup2\n        /* \"#utility.yul\":16940:16944   */\n      dup2\n        /* \"#utility.yul\":16936:16956   */\n      sub\n        /* \"#utility.yul\":16932:16933   */\n      0x00\n        /* \"#utility.yul\":16921:16930   */\n      dup4\n        /* \"#utility.yul\":16917:16934   */\n      add\n        /* \"#utility.yul\":16910:16957   */\n      mstore\n        /* \"#utility.yul\":16974:17105   */\n      tag_379\n        /* \"#utility.yul\":17100:17104   */\n      dup2\n        /* \"#utility.yul\":16974:17105   */\n      tag_197\n      jump\t// in\n    tag_379:\n        /* \"#utility.yul\":16966:17105   */\n      swap1\n      pop\n        /* \"#utility.yul\":16693:17112   */\n      swap2\n      swap1\n      pop\n      jump\t// out\n        /* \"#utility.yul\":17118:17298   */\n    tag_198:\n        /* \"#utility.yul\":17166:17243   */\n      0x4e487b7100000000000000000000000000000000000000000000000000000000\n        /* \"#utility.yul\":17163:17164   */\n      0x00\n        /* \"#utility.yul\":17156:17244   */\n      mstore\n        /* \"#utility.yul\":17263:17267   */\n      0x22\n        /* \"#utility.yul\":17260:17261   */\n      0x04\n        /* \"#utility.yul\":17253:17268   */\n      mstore\n        /* \"#utility.yul\":17287:17291   */\n      0x24\n        /* \"#utility.yul\":17284:17285   */\n      0x00\n        /* \"#utility.yul\":17277:17292   */\n      revert\n        /* \"#utility.yul\":17304:17624   */\n    tag_124:\n        /* \"#utility.yul\":17348:17354   */\n      0x00\n        /* \"#utility.yul\":17385:17386   */\n      0x02\n        /* \"#utility.yul\":17379:17383   */\n      dup3\n        /* \"#utility.yul\":17375:17387   */\n      div\n        /* \"#utility.yul\":17365:17387   */\n      swap1\n      pop\n        /* \"#utility.yul\":17432:17433   */\n      0x01\n        /* \"#utility.yul\":17426:17430   */\n      dup3\n        /* \"#utility.yul\":17422:17434   */\n      and\n        /* \"#utility.yul\":17453:17471   */\n      dup1\n        /* \"#utility.yul\":17443:17524   */\n      tag_382\n      jumpi\n        /* \"#utility.yul\":17509:17513   */\n      0x7f\n        /* \"#utility.yul\":17501:17507   */\n      dup3\n        /* \"#utility.yul\":17497:17514   */\n      and\n        /* \"#utility.yul\":17487:17514   */\n      swap2\n      pop\n        /* \"#utility.yul\":17443:17524   */\n    tag_382:\n        /* \"#utility.yul\":17571:17573   */\n      0x20\n        /* \"#utility.yul\":17563:17569   */\n      dup3\n        /* \"#utility.yul\":17560:17574   */\n      lt\n        /* \"#utility.yul\":17540:17558   */\n      dup2\n        /* \"#utility.yul\":17537:17575   */\n      sub\n        /* \"#utility.yul\":17534:17618   */\n      tag_383\n      jumpi\n        /* \"#utility.yul\":17590:17608   */\n      tag_384\n      tag_198\n      jump\t// in\n    tag_384:\n        /* \"#utility.yul\":17534:17618   */\n    tag_383:\n        /* \"#utility.yul\":17355:17624   */\n      pop\n        /* \"#utility.yul\":17304:17624   */\n      swap2\n      swap1\n      pop\n      jump\t// out\n        /* \"#utility.yul\":17630:17771   */\n    tag_199:\n        /* \"#utility.yul\":17679:17683   */\n      0x00\n        /* \"#utility.yul\":17702:17705   */\n      dup2\n        /* \"#utility.yul\":17694:17705   */\n      swap1\n      pop\n        /* \"#utility.yul\":17725:17728   */\n      dup2\n        /* \"#utility.yul\":17722:17723   */\n      0x00\n        /* \"#utility.yul\":17715:17729   */\n      mstore\n        /* \"#utility.yul\":17759:17763   */\n      0x20\n        /* \"#utility.yul\":17756:17757   */\n      0x00\n        /* \"#utility.yul\":17746:17764   */\n      keccak256\n        /* \"#utility.yul\":17738:17764   */\n      swap1\n      pop\n        /* \"#utility.yul\":17630:17771   */\n      swap2\n      swap1\n      pop\n      jump\t// out\n        /* \"#utility.yul\":17777:17870   */\n    tag_200:\n        /* \"#utility.yul\":17814:17820   */\n      0x00\n        /* \"#utility.yul\":17861:17863   */\n      0x20\n        /* \"#utility.yul\":17856:17858   */\n      0x1f\n        /* \"#utility.yul\":17849:17854   */\n      dup4\n        /* \"#utility.yul\":17845:17859   */\n      add\n        /* \"#utility.yul\":17841:17864   */\n      div\n        /* \"#utility.yul\":17831:17864   */\n      swap1\n      pop\n        /* \"#utility.yul\":17777:17870   */\n      swap2\n      swap1\n      pop\n      jump\t// out\n        /* \"#utility.yul\":17876:17983   */\n    tag_201:\n        /* \"#utility.yul\":17920:17928   */\n      0x00\n        /* \"#utility.yul\":17970:17975   */\n      dup3\n        /* \"#utility.yul\":17964:17968   */\n      dup3\n        /* \"#utility.yul\":17960:17976   */\n      shl\n        /* \"#utility.yul\":17939:17976   */\n      swap1\n      pop\n        /* \"#utility.yul\":17876:17983   */\n      swap3\n      swap2\n      pop\n      pop\n      jump\t// out\n        /* \"#utility.yul\":17989:18382   */\n    tag_202:\n        /* \"#utility.yul\":18058:18064   */\n      0x00\n        /* \"#utility.yul\":18108:18109   */\n      0x08\n        /* \"#utility.yul\":18096:18106   */\n      dup4\n        /* \"#utility.yul\":18092:18110   */\n      mul\n        /* \"#utility.yul\":18131:18228   */\n      tag_389\n        /* \"#utility.yul\":18161:18227   */\n      0xffffffffffffffffffffffffffffffffffffffffffffffffffffffffffffffff\n        /* \"#utility.yul\":18150:18159   */\n      dup3\n        /* \"#utility.yul\":18131:18228   */\n      tag_201\n      jump\t// in\n    tag_389:\n        /* \"#utility.yul\":18249:18288   */\n      tag_390\n        /* \"#utility.yul\":18279:18287   */\n      dup7\n        /* \"#utility.yul\":18268:18277   */\n      dup4\n        /* \"#utility.yul\":18249:18288   */\n      tag_201\n      jump\t// in\n    tag_390:\n        /* \"#utility.yul\":18237:18288   */\n      swap6\n      pop\n        /* \"#utility.yul\":18321:18325   */\n      dup1\n        /* \"#utility.yul\":18317:18326   */\n      not\n        /* \"#utility.yul\":18310:18315   */\n      dup5\n        /* \"#utility.yul\":18306:18327   */\n      and\n        /* \"#utility.yul\":18297:18327   */\n      swap4\n      pop\n        /* \"#utility.yul\":18370:18374   */\n      dup1\n        /* \"#utility.yul\":18360:18368   */\n      dup7\n        /* \"#utility.yul\":18356:18375   */\n      and\n        /* \"#utility.yul\":18349:18354   */\n      dup5\n        /* \"#utility.yul\":18346:18376   */\n      or\n        /* \"#utility.yul\":18336:18376   */\n      swap3\n      pop\n        /* \"#utility.yul\":18065:18382   */\n      pop\n      pop\n        /* \"#utility.yul\":17989:18382   */\n      swap4\n      swap3\n      pop\n      pop\n      pop\n      jump\t// out\n        /* \"#utility.yul\":18388:18530   */\n    tag_203:\n        /* \"#utility.yul\":18438:18447   */\n      0x00\n        /* \"#utility.yul\":18471:18524   */\n      tag_392\n        /* \"#utility.yul\":18489:18523   */\n      tag_393\n        /* \"#utility.yul\":18498:18522   */\n      tag_394\n        /* \"#utility.yul\":18516:18521   */\n      dup5\n        /* \"#utility.yul\":18498:18522   */\n      tag_151\n      jump\t// in\n    tag_394:\n        /* \"#utility.yul\":18489:18523   */\n      tag_156\n      jump\t// in\n    tag_393:\n        /* \"#utility.yul\":18471:18524   */\n      tag_151\n      jump\t// in\n    tag_392:\n        /* \"#utility.yul\":18458:18524   */\n      swap1\n      pop\n        /* \"#utility.yul\":18388:18530   */\n      swap2\n      swap1\n      pop\n      jump\t// out\n        /* \"#utility.yul\":18536:18611   */\n    tag_204:\n        /* \"#utility.yul\":18579:18582   */\n      0x00\n        /* \"#utility.yul\":18600:18605   */\n      dup2\n        /* \"#utility.yul\":18593:18605   */\n      swap1\n      pop\n        /* \"#utility.yul\":18536:18611   */\n      swap2\n      swap1\n      pop\n      jump\t// out\n        /* \"#utility.yul\":18617:18886   */\n    tag_205:\n        /* \"#utility.yul\":18727:18766   */\n      tag_397\n        /* \"#utility.yul\":18758:18765   */\n      dup4\n        /* \"#utility.yul\":18727:18766   */\n      tag_203\n      jump\t// in\n    tag_397:\n        /* \"#utility.yul\":18788:18879   */\n      tag_398\n        /* \"#utility.yul\":18837:18878   */\n      tag_399\n        /* \"#utility.yul\":18861:18877   */\n      dup3\n        /* \"#utility.yul\":18837:18878   */\n      tag_204\n      jump\t// in\n    tag_399:\n        /* \"#utility.yul\":18829:18835   */\n      dup5\n        /* \"#utility.yul\":18822:18826   */\n      dup5\n        /* \"#utility.yul\":18816:18827   */\n      sload\n        /* \"#utility.yul\":18788:18879   */\n      tag_202\n      jump\t// in\n    tag_398:\n        /* \"#utility.yul\":18782:18786   */\n      dup3\n        /* \"#utility.yul\":18775:18880   */\n      sstore\n        /* \"#utility.yul\":18693:18886   */\n      pop\n        /* \"#utility.yul\":18617:18886   */\n      pop\n      pop\n      pop\n      jump\t// out\n        /* \"#utility.yul\":18892:18965   */\n    tag_206:\n        /* \"#utility.yul\":18937:18940   */\n      0x00\n        /* \"#utility.yul\":18892:18965   */\n      swap1\n      jump\t// out\n        /* \"#utility.yul\":18971:19160   */\n    tag_207:\n        /* \"#utility.yul\":19048:19080   */\n      tag_402\n      tag_206\n      jump\t// in\n    tag_402:\n        /* \"#utility.yul\":19089:19154   */\n      tag_403\n        /* \"#utility.yul\":19147:19153   */\n      dup2\n        /* \"#utility.yul\":19139:19145   */\n      dup5\n        /* \"#utility.yul\":19133:19137   */\n      dup5\n        /* \"#utility.yul\":19089:19154   */\n      tag_205\n      jump\t// in\n    tag_403:\n        /* \"#utility.yul\":19024:19160   */\n      pop\n        /* \"#utility.yul\":18971:19160   */\n      pop\n      pop\n      jump\t// out\n        /* \"#utility.yul\":19166:19352   */\n    tag_208:\n        /* \"#utility.yul\":19226:19346   */\n    tag_405:\n        /* \"#utility.yul\":19243:19246   */\n      dup2\n        /* \"#utility.yul\":19236:19241   */\n      dup2\n        /* \"#utility.yul\":19233:19247   */\n      lt\n        /* \"#utility.yul\":19226:19346   */\n      iszero\n      tag_407\n      jumpi\n        /* \"#utility.yul\":19297:19336   */\n      tag_408\n        /* \"#utility.yul\":19334:19335   */\n      0x00\n        /* \"#utility.yul\":19327:19332   */\n      dup3\n        /* \"#utility.yul\":19297:19336   */\n      tag_207\n      jump\t// in\n    tag_408:\n        /* \"#utility.yul\":19270:19271   */\n      0x01\n        /* \"#utility.yul\":19263:19268   */\n      dup2\n        /* \"#utility.yul\":19259:19272   */\n      add\n        /* \"#utility.yul\":19250:19272   */\n      swap1\n      pop\n        /* \"#utility.yul\":19226:19346   */\n      jump(tag_405)\n    tag_407:\n        /* \"#utility.yul\":19166:19352   */\n      pop\n      pop\n      jump\t// out\n        /* \"#utility.yul\":19358:19901   */\n    tag_209:\n        /* \"#utility.yul\":19459:19461   */\n      0x1f\n        /* \"#utility.yul\":19454:19457   */\n      dup3\n        /* \"#utility.yul\":19451:19462   */\n      gt\n        /* \"#utility.yul\":19448:19894   */\n      iszero\n      tag_410\n      jumpi\n        /* \"#utility.yul\":19493:19531   */\n      tag_411\n        /* \"#utility.yul\":19525:19530   */\n      dup2\n        /* \"#utility.yul\":19493:19531   */\n      tag_199\n      jump\t// in\n    tag_411:\n        /* \"#utility.yul\":19577:19606   */\n      tag_412\n        /* \"#utility.yul\":19595:19605   */\n      dup5\n        /* \"#utility.yul\":19577:19606   */\n      tag_200\n      jump\t// in\n    tag_412:\n        /* \"#utility.yul\":19567:19575   */\n      dup2\n        /* \"#utility.yul\":19563:19607   */\n      add\n        /* \"#utility.yul\":19760:19762   */\n      0x20\n        /* \"#utility.yul\":19748:19758   */\n      dup6\n        /* \"#utility.yul\":19745:19763   */\n      lt\n        /* \"#utility.yul\":19742:19791   */\n      iszero\n      tag_413\n      jumpi\n        /* \"#utility.yul\":19781:19789   */\n      dup2\n        /* \"#utility.yul\":19766:19789   */\n      swap1\n      pop\n        /* \"#utility.yul\":19742:19791   */\n    tag_413:\n        /* \"#utility.yul\":19804:19884   */\n      tag_414\n        /* \"#utility.yul\":19860:19882   */\n      tag_415\n        /* \"#utility.yul\":19878:19881   */\n      dup6\n        /* \"#utility.yul\":19860:19882   */\n      tag_200\n      jump\t// in\n    tag_415:\n        /* \"#utility.yul\":19850:19858   */\n      dup4\n        /* \"#utility.yul\":19846:19883   */\n      add\n        /* \"#utility.yul\":19833:19844   */\n      dup3\n        /* \"#utility.yul\":19804:19884   */\n      tag_208\n      jump\t// in\n    tag_414:\n        /* \"#utility.yul\":19463:19894   */\n      pop\n      pop\n        /* \"#utility.yul\":19448:19894   */\n    tag_410:\n        /* \"#utility.yul\":19358:19901   */\n      pop\n      pop\n      pop\n      jump\t// out\n        /* \"#utility.yul\":19907:20024   */\n    tag_210:\n        /* \"#utility.yul\":19961:19969   */\n      0x00\n        /* \"#utility.yul\":20011:20016   */\n      dup3\n        /* \"#utility.yul\":20005:20009   */\n      dup3\n        /* \"#utility.yul\":20001:20017   */\n      shr\n        /* \"#utility.yul\":19980:20017   */\n      swap1\n      pop\n        /* \"#utility.yul\":19907:20024   */\n      swap3\n      swap2\n      pop\n      pop\n      jump\t// out\n        /* \"#utility.yul\":20030:20199   */\n    tag_211:\n        /* \"#utility.yul\":20074:20080   */\n      0x00\n        /* \"#utility.yul\":20107:20158   */\n      tag_418\n        /* \"#utility.yul\":20155:20156   */\n      0x00\n        /* \"#utility.yul\":20151:20157   */\n      not\n        /* \"#utility.yul\":20143:20148   */\n      dup5\n        /* \"#utility.yul\":20140:20141   */\n      0x08\n        /* \"#utility.yul\":20136:20149   */\n      mul\n        /* \"#utility.yul\":20107:20158   */\n      tag_210\n      jump\t// in\n    tag_418:\n        /* \"#utility.yul\":20103:20159   */\n      not\n        /* \"#utility.yul\":20188:20192   */\n      dup1\n        /* \"#utility.yul\":20182:20186   */\n      dup4\n        /* \"#utility.yul\":20178:20193   */\n      and\n        /* \"#utility.yul\":20168:20193   */\n      swap2\n      pop\n        /* \"#utility.yul\":20081:20199   */\n      pop\n        /* \"#utility.yul\":20030:20199   */\n      swap3\n      swap2\n      pop\n      pop\n      jump\t// out\n        /* \"#utility.yul\":20204:20499   */\n    tag_212:\n        /* \"#utility.yul\":20280:20284   */\n      0x00\n        /* \"#utility.yul\":20426:20455   */\n      tag_420\n        /* \"#utility.yul\":20451:20454   */\n      dup4\n        /* \"#utility.yul\":20445:20449   */\n      dup4\n        /* \"#utility.yul\":20426:20455   */\n      tag_211\n      jump\t// in\n    tag_420:\n        /* \"#utility.yul\":20418:20455   */\n      swap2\n      pop\n        /* \"#utility.yul\":20488:20491   */\n      dup3\n        /* \"#utility.yul\":20485:20486   */\n      0x02\n        /* \"#utility.yul\":20481:20492   */\n      mul\n        /* \"#utility.yul\":20475:20479   */\n      dup3\n        /* \"#utility.yul\":20472:20493   */\n      or\n        /* \"#utility.yul\":20464:20493   */\n      swap1\n      pop\n        /* \"#utility.yul\":20204:20499   */\n      swap3\n      swap2\n      pop\n      pop\n      jump\t// out\n        /* \"#utility.yul\":20504:21899   */\n    tag_86:\n        /* \"#utility.yul\":20621:20658   */\n      tag_422\n        /* \"#utility.yul\":20654:20657   */\n      dup3\n        /* \"#utility.yul\":20621:20658   */\n      tag_173\n      jump\t// in\n    tag_422:\n        /* \"#utility.yul\":20723:20741   */\n      0xffffffffffffffff\n        /* \"#utility.yul\":20715:20721   */\n      dup2\n        /* \"#utility.yul\":20712:20742   */\n      gt\n        /* \"#utility.yul\":20709:20765   */\n      iszero\n      tag_423\n      jumpi\n        /* \"#utility.yul\":20745:20763   */\n      tag_424\n      tag_166\n      jump\t// in\n    tag_424:\n        /* \"#utility.yul\":20709:20765   */\n    tag_423:\n        /* \"#utility.yul\":20789:20827   */\n      tag_425\n        /* \"#utility.yul\":20821:20825   */\n      dup3\n        /* \"#utility.yul\":20815:20826   */\n      sload\n        /* \"#utility.yul\":20789:20827   */\n      tag_124\n      jump\t// in\n    tag_425:\n        /* \"#utility.yul\":20874:20941   */\n      tag_426\n        /* \"#utility.yul\":20934:20940   */\n      dup3\n        /* \"#utility.yul\":20926:20932   */\n      dup3\n        /* \"#utility.yul\":20920:20924   */\n      dup6\n        /* \"#utility.yul\":20874:20941   */\n      tag_209\n      jump\t// in\n    tag_426:\n        /* \"#utility.yul\":20968:20969   */\n      0x00\n        /* \"#utility.yul\":20992:20996   */\n      0x20\n        /* \"#utility.yul\":20979:20996   */\n      swap1\n      pop\n        /* \"#utility.yul\":21024:21026   */\n      0x1f\n        /* \"#utility.yul\":21016:21022   */\n      dup4\n        /* \"#utility.yul\":21013:21027   */\n      gt\n        /* \"#utility.yul\":21041:21042   */\n      0x01\n        /* \"#utility.yul\":21036:21654   */\n      dup2\n      eq\n      tag_428\n      jumpi\n        /* \"#utility.yul\":21698:21699   */\n      0x00\n        /* \"#utility.yul\":21715:21721   */\n      dup5\n        /* \"#utility.yul\":21712:21789   */\n      iszero\n      tag_429\n      jumpi\n        /* \"#utility.yul\":21764:21773   */\n      dup3\n        /* \"#utility.yul\":21759:21762   */\n      dup8\n        /* \"#utility.yul\":21755:21774   */\n      add\n        /* \"#utility.yul\":21749:21775   */\n      mload\n        /* \"#utility.yul\":21740:21775   */\n      swap1\n      pop\n        /* \"#utility.yul\":21712:21789   */\n    tag_429:\n        /* \"#utility.yul\":21815:21882   */\n      tag_430\n        /* \"#utility.yul\":21875:21881   */\n      dup6\n        /* \"#utility.yul\":21868:21873   */\n      dup3\n        /* \"#utility.yul\":21815:21882   */\n      tag_212\n      jump\t// in\n    tag_430:\n        /* \"#utility.yul\":21809:21813   */\n      dup7\n        /* \"#utility.yul\":21802:21883   */\n      sstore\n        /* \"#utility.yul\":21671:21893   */\n      pop\n        /* \"#utility.yul\":21006:21893   */\n      jump(tag_427)\n        /* \"#utility.yul\":21036:21654   */\n    tag_428:\n        /* \"#utility.yul\":21088:21092   */\n      0x1f\n        /* \"#utility.yul\":21084:21093   */\n      not\n        /* \"#utility.yul\":21076:21082   */\n      dup5\n        /* \"#utility.yul\":21072:21094   */\n      and\n        /* \"#utility.yul\":21122:21159   */\n      tag_431\n        /* \"#utility.yul\":21154:21158   */\n      dup7\n        /* \"#utility.yul\":21122:21159   */\n      tag_199\n      jump\t// in\n    tag_431:\n        /* \"#utility.yul\":21181:21182   */\n      0x00\n        /* \"#utility.yul\":21195:21403   */\n    tag_432:\n        /* \"#utility.yul\":21209:21216   */\n      dup3\n        /* \"#utility.yul\":21206:21207   */\n      dup2\n        /* \"#utility.yul\":21203:21217   */\n      lt\n        /* \"#utility.yul\":21195:21403   */\n      iszero\n      tag_434\n      jumpi\n        /* \"#utility.yul\":21288:21297   */\n      dup5\n        /* \"#utility.yul\":21283:21286   */\n      dup10\n        /* \"#utility.yul\":21279:21298   */\n      add\n        /* \"#utility.yul\":21273:21299   */\n      mload\n        /* \"#utility.yul\":21265:21271   */\n      dup3\n        /* \"#utility.yul\":21258:21300   */\n      sstore\n        /* \"#utility.yul\":21339:21340   */\n      0x01\n        /* \"#utility.yul\":21331:21337   */\n      dup3\n        /* \"#utility.yul\":21327:21341   */\n      add\n        /* \"#utility.yul\":21317:21341   */\n      swap2\n      pop\n        /* \"#utility.yul\":21386:21388   */\n      0x20\n        /* \"#utility.yul\":21375:21384   */\n      dup6\n        /* \"#utility.yul\":21371:21389   */\n      add\n        /* \"#utility.yul\":21358:21389   */\n      swap5\n      pop\n        /* \"#utility.yul\":21232:21236   */\n      0x20\n        /* \"#utility.yul\":21229:21230   */\n      dup2\n        /* \"#utility.yul\":21225:21237   */\n      add\n        /* \"#utility.yul\":21220:21237   */\n      swap1\n      pop\n        /* \"#utility.yul\":21195:21403   */\n      jump(tag_432)\n    tag_434:\n        /* \"#utility.yul\":21431:21437   */\n      dup7\n        /* \"#utility.yul\":21422:21429   */\n      dup4\n        /* \"#utility.yul\":21419:21438   */\n      lt\n        /* \"#utility.yul\":21416:21595   */\n      iszero\n      tag_435\n      jumpi\n        /* \"#utility.yul\":21489:21498   */\n      dup5\n        /* \"#utility.yul\":21484:21487   */\n      dup10\n        /* \"#utility.yul\":21480:21499   */\n      add\n        /* \"#utility.yul\":21474:21500   */\n      mload\n        /* \"#utility.yul\":21532:21580   */\n      tag_436\n        /* \"#utility.yul\":21574:21578   */\n      0x1f\n        /* \"#utility.yul\":21566:21572   */\n      dup10\n        /* \"#utility.yul\":21562:21579   */\n      and\n        /* \"#utility.yul\":21551:21560   */\n      dup3\n        /* \"#utility.yul\":21532:21580   */\n      tag_211\n      jump\t// in\n    tag_436:\n        /* \"#utility.yul\":21524:21530   */\n      dup4\n        /* \"#utility.yul\":21517:21581   */\n      sstore\n        /* \"#utility.yul\":21439:21595   */\n      pop\n        /* \"#utility.yul\":21416:21595   */\n    tag_435:\n        /* \"#utility.yul\":21641:21642   */\n      0x01\n        /* \"#utility.yul\":21637:21638   */\n      0x02\n        /* \"#utility.yul\":21629:21635   */\n      dup9\n        /* \"#utility.yul\":21625:21639   */\n      mul\n        /* \"#utility.yul\":21621:21643   */\n      add\n        /* \"#utility.yul\":21615:21619   */\n      dup9\n        /* \"#utility.yul\":21608:21644   */\n      sstore\n        /* \"#utility.yul\":21043:21654   */\n      pop\n      pop\n      pop\n        /* \"#utility.yul\":21006:21893   */\n    tag_427:\n      pop\n        /* \"#utility.yul\":20596:21899   */\n      pop\n      pop\n      pop\n        /* \"#utility.yul\":20504:21899   */\n      pop\n      pop\n      jump\t// out\n        /* \"#utility.yul\":21905:22079   */\n    tag_213:\n        /* \"#utility.yul\":22045:22071   */\n      0x46756e64726169736572206973206e6f74206163746976650000000000000000\n        /* \"#utility.yul\":22041:22042   */\n      0x00\n        /* \"#utility.yul\":22033:22039   */\n      dup3\n        /* \"#utility.yul\":22029:22043   */\n      add\n        /* \"#utility.yul\":22022:22072   */\n      mstore\n        /* \"#utility.yul\":21905:22079   */\n      pop\n      jump\t// out\n        /* \"#utility.yul\":22085:22451   */\n    tag_214:\n        /* \"#utility.yul\":22227:22230   */\n      0x00\n        /* \"#utility.yul\":22248:22315   */\n      tag_439\n        /* \"#utility.yul\":22312:22314   */\n      0x18\n        /* \"#utility.yul\":22307:22310   */\n      dup4\n        /* \"#utility.yul\":22248:22315   */\n      tag_174\n      jump\t// in\n    tag_439:\n        /* \"#utility.yul\":22241:22315   */\n      swap2\n      pop\n        /* \"#utility.yul\":22324:22417   */\n      tag_440\n        /* \"#utility.yul\":22413:22416   */\n      dup3\n        /* \"#utility.yul\":22324:22417   */\n      tag_213\n      jump\t// in\n    tag_440:\n        /* \"#utility.yul\":22442:22444   */\n      0x20\n        /* \"#utility.yul\":22437:22440   */\n      dup3\n        /* \"#utility.yul\":22433:22445   */\n      add\n        /* \"#utility.yul\":22426:22445   */\n      swap1\n      pop\n        /* \"#utility.yul\":22085:22451   */\n      swap2\n      swap1\n      pop\n      jump\t// out\n        /* \"#utility.yul\":22457:22876   */\n    tag_103:\n        /* \"#utility.yul\":22623:22627   */\n      0x00\n        /* \"#utility.yul\":22661:22663   */\n      0x20\n        /* \"#utility.yul\":22650:22659   */\n      dup3\n        /* \"#utility.yul\":22646:22664   */\n      add\n        /* \"#utility.yul\":22638:22664   */\n      swap1\n      pop\n        /* \"#utility.yul\":22710:22719   */\n      dup2\n        /* \"#utility.yul\":22704:22708   */\n      dup2\n        /* \"#utility.yul\":22700:22720   */\n      sub\n        /* \"#utility.yul\":22696:22697   */\n      0x00\n        /* \"#utility.yul\":22685:22694   */\n      dup4\n        /* \"#utility.yul\":22681:22698   */\n      add\n        /* \"#utility.yul\":22674:22721   */\n      mstore\n        /* \"#utility.yul\":22738:22869   */\n      tag_442\n        /* \"#utility.yul\":22864:22868   */\n      dup2\n        /* \"#utility.yul\":22738:22869   */\n      tag_214\n      jump\t// in\n    tag_442:\n        /* \"#utility.yul\":22730:22869   */\n      swap1\n      pop\n        /* \"#utility.yul\":22457:22876   */\n      swap2\n      swap1\n      pop\n      jump\t// out\n        /* \"#utility.yul\":22882:23103   */\n    tag_215:\n        /* \"#utility.yul\":23022:23056   */\n      0x53656e7420616d6f756e74206d7573742062652067726561746572207468616e\n        /* \"#utility.yul\":23018:23019   */\n      0x00\n        /* \"#utility.yul\":23010:23016   */\n      dup3\n        /* \"#utility.yul\":23006:23020   */\n      add\n        /* \"#utility.yul\":22999:23057   */\n      mstore\n        /* \"#utility.yul\":23091:23095   */\n      0x2030000000000000000000000000000000000000000000000000000000000000\n        /* \"#utility.yul\":23086:23088   */\n      0x20\n        /* \"#utility.yul\":23078:23084   */\n      dup3\n        /* \"#utility.yul\":23074:23089   */\n      add\n        /* \"#utility.yul\":23067:23096   */\n      mstore\n        /* \"#utility.yul\":22882:23103   */\n      pop\n      jump\t// out\n        /* \"#utility.yul\":23109:23475   */\n    tag_216:\n        /* \"#utility.yul\":23251:23254   */\n      0x00\n        /* \"#utility.yul\":23272:23339   */\n      tag_445\n        /* \"#utility.yul\":23336:23338   */\n      0x22\n        /* \"#utility.yul\":23331:23334   */\n      dup4\n        /* \"#utility.yul\":23272:23339   */\n      tag_174\n      jump\t// in\n    tag_445:\n        /* \"#utility.yul\":23265:23339   */\n      swap2\n      pop\n        /* \"#utility.yul\":23348:23441   */\n      tag_446\n        /* \"#utility.yul\":23437:23440   */\n      dup3\n        /* \"#utility.yul\":23348:23441   */\n      tag_215\n      jump\t// in\n    tag_446:\n        /* \"#utility.yul\":23466:23468   */\n      0x40\n        /* \"#utility.yul\":23461:23464   */\n      dup3\n        /* \"#utility.yul\":23457:23469   */\n      add\n        /* \"#utility.yul\":23450:23469   */\n      swap1\n      pop\n        /* \"#utility.yul\":23109:23475   */\n      swap2\n      swap1\n      pop\n      jump\t// out\n        /* \"#utility.yul\":23481:23900   */\n    tag_106:\n        /* \"#utility.yul\":23647:23651   */\n      0x00\n        /* \"#utility.yul\":23685:23687   */\n      0x20\n        /* \"#utility.yul\":23674:23683   */\n      dup3\n        /* \"#utility.yul\":23670:23688   */\n      add\n        /* \"#utility.yul\":23662:23688   */\n      swap1\n      pop\n        /* \"#utility.yul\":23734:23743   */\n      dup2\n        /* \"#utility.yul\":23728:23732   */\n      dup2\n        /* \"#utility.yul\":23724:23744   */\n      sub\n        /* \"#utility.yul\":23720:23721   */\n      0x00\n        /* \"#utility.yul\":23709:23718   */\n      dup4\n        /* \"#utility.yul\":23705:23722   */\n      add\n        /* \"#utility.yul\":23698:23745   */\n      mstore\n        /* \"#utility.yul\":23762:23893   */\n      tag_448\n        /* \"#utility.yul\":23888:23892   */\n      dup2\n        /* \"#utility.yul\":23762:23893   */\n      tag_216\n      jump\t// in\n    tag_448:\n        /* \"#utility.yul\":23754:23893   */\n      swap1\n      pop\n        /* \"#utility.yul\":23481:23900   */\n      swap2\n      swap1\n      pop\n      jump\t// out\n        /* \"#utility.yul\":23906:24086   */\n    tag_217:\n        /* \"#utility.yul\":23954:24031   */\n      0x4e487b7100000000000000000000000000000000000000000000000000000000\n        /* \"#utility.yul\":23951:23952   */\n      0x00\n        /* \"#utility.yul\":23944:24032   */\n      mstore\n        /* \"#utility.yul\":24051:24055   */\n      0x11\n        /* \"#utility.yul\":24048:24049   */\n      0x04\n        /* \"#utility.yul\":24041:24056   */\n      mstore\n        /* \"#utility.yul\":24075:24079   */\n      0x24\n        /* \"#utility.yul\":24072:24073   */\n      0x00\n        /* \"#utility.yul\":24065:24080   */\n      revert\n        /* \"#utility.yul\":24092:24283   */\n    tag_111:\n        /* \"#utility.yul\":24132:24135   */\n      0x00\n        /* \"#utility.yul\":24151:24171   */\n      tag_451\n        /* \"#utility.yul\":24169:24170   */\n      dup3\n        /* \"#utility.yul\":24151:24171   */\n      tag_151\n      jump\t// in\n    tag_451:\n        /* \"#utility.yul\":24146:24171   */\n      swap2\n      pop\n        /* \"#utility.yul\":24185:24205   */\n      tag_452\n        /* \"#utility.yul\":24203:24204   */\n      dup4\n        /* \"#utility.yul\":24185:24205   */\n      tag_151\n      jump\t// in\n    tag_452:\n        /* \"#utility.yul\":24180:24205   */\n      swap3\n      pop\n        /* \"#utility.yul\":24228:24229   */\n      dup3\n        /* \"#utility.yul\":24225:24226   */\n      dup3\n        /* \"#utility.yul\":24221:24230   */\n      add\n        /* \"#utility.yul\":24214:24230   */\n      swap1\n      pop\n        /* \"#utility.yul\":24249:24252   */\n      dup1\n        /* \"#utility.yul\":24246:24247   */\n      dup3\n        /* \"#utility.yul\":24243:24253   */\n      gt\n        /* \"#utility.yul\":24240:24276   */\n      iszero\n      tag_453\n      jumpi\n        /* \"#utility.yul\":24256:24274   */\n      tag_454\n      tag_217\n      jump\t// in\n    tag_454:\n        /* \"#utility.yul\":24240:24276   */\n    tag_453:\n        /* \"#utility.yul\":24092:24283   */\n      swap3\n      swap2\n      pop\n      pop\n      jump\t// out\n        /* \"#utility.yul\":24289:24532   */\n    tag_218:\n        /* \"#utility.yul\":24429:24463   */\n      0x46756e6472616973657220646f6573206e6f74206d65657420746865206d696e\n        /* \"#utility.yul\":24425:24426   */\n      0x00\n        /* \"#utility.yul\":24417:24423   */\n      dup3\n        /* \"#utility.yul\":24413:24427   */\n      add\n        /* \"#utility.yul\":24406:24464   */\n      mstore\n        /* \"#utility.yul\":24498:24524   */\n      0x696d756d2066756e64696e6720726571756972656d656e740000000000000000\n        /* \"#utility.yul\":24493:24495   */\n      0x20\n        /* \"#utility.yul\":24485:24491   */\n      dup3\n        /* \"#utility.yul\":24481:24496   */\n      add\n        /* \"#utility.yul\":24474:24525   */\n      mstore\n        /* \"#utility.yul\":24289:24532   */\n      pop\n      jump\t// out\n        /* \"#utility.yul\":24538:24904   */\n    tag_219:\n        /* \"#utility.yul\":24680:24683   */\n      0x00\n        /* \"#utility.yul\":24701:24768   */\n      tag_457\n        /* \"#utility.yul\":24765:24767   */\n      0x38\n        /* \"#utility.yul\":24760:24763   */\n      dup4\n        /* \"#utility.yul\":24701:24768   */\n      tag_174\n      jump\t// in\n    tag_457:\n        /* \"#utility.yul\":24694:24768   */\n      swap2\n      pop\n        /* \"#utility.yul\":24777:24870   */\n      tag_458\n        /* \"#utility.yul\":24866:24869   */\n      dup3\n        /* \"#utility.yul\":24777:24870   */\n      tag_218\n      jump\t// in\n    tag_458:\n        /* \"#utility.yul\":24895:24897   */\n      0x40\n        /* \"#utility.yul\":24890:24893   */\n      dup3\n        /* \"#utility.yul\":24886:24898   */\n      add\n        /* \"#utility.yul\":24879:24898   */\n      swap1\n      pop\n        /* \"#utility.yul\":24538:24904   */\n      swap2\n      swap1\n      pop\n      jump\t// out\n        /* \"#utility.yul\":24910:25329   */\n    tag_114:\n        /* \"#utility.yul\":25076:25080   */\n      0x00\n        /* \"#utility.yul\":25114:25116   */\n      0x20\n        /* \"#utility.yul\":25103:25112   */\n      dup3\n        /* \"#utility.yul\":25099:25117   */\n      add\n        /* \"#utility.yul\":25091:25117   */\n      swap1\n      pop\n        /* \"#utility.yul\":25163:25172   */\n      dup2\n        /* \"#utility.yul\":25157:25161   */\n      dup2\n        /* \"#utility.yul\":25153:25173   */\n      sub\n        /* \"#utility.yul\":25149:25150   */\n      0x00\n        /* \"#utility.yul\":25138:25147   */\n      dup4\n        /* \"#utility.yul\":25134:25151   */\n      add\n        /* \"#utility.yul\":25127:25174   */\n      mstore\n        /* \"#utility.yul\":25191:25322   */\n      tag_460\n        /* \"#utility.yul\":25317:25321   */\n      dup2\n        /* \"#utility.yul\":25191:25322   */\n      tag_219\n      jump\t// in\n    tag_460:\n        /* \"#utility.yul\":25183:25322   */\n      swap1\n      pop\n        /* \"#utility.yul\":24910:25329   */\n      swap2\n      swap1\n      pop\n      jump\t// out\n        /* \"#utility.yul\":25335:25667   */\n    tag_117:\n        /* \"#utility.yul\":25456:25460   */\n      0x00\n        /* \"#utility.yul\":25494:25496   */\n      0x40\n        /* \"#utility.yul\":25483:25492   */\n      dup3\n        /* \"#utility.yul\":25479:25497   */\n      add\n        /* \"#utility.yul\":25471:25497   */\n      swap1\n      pop\n        /* \"#utility.yul\":25507:25578   */\n      tag_462\n        /* \"#utility.yul\":25575:25576   */\n      0x00\n        /* \"#utility.yul\":25564:25573   */\n      dup4\n        /* \"#utility.yul\":25560:25577   */\n      add\n        /* \"#utility.yul\":25551:25557   */\n      dup6\n        /* \"#utility.yul\":25507:25578   */\n      tag_154\n      jump\t// in\n    tag_462:\n        /* \"#utility.yul\":25588:25660   */\n      tag_463\n        /* \"#utility.yul\":25656:25658   */\n      0x20\n        /* \"#utility.yul\":25645:25654   */\n      dup4\n        /* \"#utility.yul\":25641:25659   */\n      add\n        /* \"#utility.yul\":25632:25638   */\n      dup5\n        /* \"#utility.yul\":25588:25660   */\n      tag_154\n      jump\t// in\n    tag_463:\n        /* \"#utility.yul\":25335:25667   */\n      swap4\n      swap3\n      pop\n      pop\n      pop\n      jump\t// out\n        /* \"#utility.yul\":25673:26083   */\n    tag_138:\n        /* \"#utility.yul\":25713:25720   */\n      0x00\n        /* \"#utility.yul\":25736:25756   */\n      tag_465\n        /* \"#utility.yul\":25754:25755   */\n      dup3\n        /* \"#utility.yul\":25736:25756   */\n      tag_151\n      jump\t// in\n    tag_465:\n        /* \"#utility.yul\":25731:25756   */\n      swap2\n      pop\n        /* \"#utility.yul\":25770:25790   */\n      tag_466\n        /* \"#utility.yul\":25788:25789   */\n      dup4\n        /* \"#utility.yul\":25770:25790   */\n      tag_151\n      jump\t// in\n    tag_466:\n        /* \"#utility.yul\":25765:25790   */\n      swap3\n      pop\n        /* \"#utility.yul\":25825:25826   */\n      dup3\n        /* \"#utility.yul\":25822:25823   */\n      dup3\n        /* \"#utility.yul\":25818:25827   */\n      mul\n        /* \"#utility.yul\":25847:25877   */\n      tag_467\n        /* \"#utility.yul\":25865:25876   */\n      dup2\n        /* \"#utility.yul\":25847:25877   */\n      tag_151\n      jump\t// in\n    tag_467:\n        /* \"#utility.yul\":25836:25877   */\n      swap2\n      pop\n        /* \"#utility.yul\":26026:26027   */\n      dup3\n        /* \"#utility.yul\":26017:26024   */\n      dup3\n        /* \"#utility.yul\":26013:26028   */\n      div\n        /* \"#utility.yul\":26010:26011   */\n      dup5\n        /* \"#utility.yul\":26007:26029   */\n      eq\n        /* \"#utility.yul\":25987:25988   */\n      dup4\n        /* \"#utility.yul\":25980:25989   */\n      iszero\n        /* \"#utility.yul\":25960:26043   */\n      or\n        /* \"#utility.yul\":25937:26076   */\n      tag_468\n      jumpi\n        /* \"#utility.yul\":26056:26074   */\n      tag_469\n      tag_217\n      jump\t// in\n    tag_469:\n        /* \"#utility.yul\":25937:26076   */\n    tag_468:\n        /* \"#utility.yul\":25721:26083   */\n      pop\n        /* \"#utility.yul\":25673:26083   */\n      swap3\n      swap2\n      pop\n      pop\n      jump\t// out\n        /* \"#utility.yul\":26089:26269   */\n    tag_220:\n        /* \"#utility.yul\":26137:26214   */\n      0x4e487b7100000000000000000000000000000000000000000000000000000000\n        /* \"#utility.yul\":26134:26135   */\n      0x00\n        /* \"#utility.yul\":26127:26215   */\n      mstore\n        /* \"#utility.yul\":26234:26238   */\n      0x12\n        /* \"#utility.yul\":26231:26232   */\n      0x04\n        /* \"#utility.yul\":26224:26239   */\n      mstore\n        /* \"#utility.yul\":26258:26262   */\n      0x24\n        /* \"#utility.yul\":26255:26256   */\n      0x00\n        /* \"#utility.yul\":26248:26263   */\n      revert\n        /* \"#utility.yul\":26275:26460   */\n    tag_140:\n        /* \"#utility.yul\":26315:26316   */\n      0x00\n        /* \"#utility.yul\":26332:26352   */\n      tag_472\n        /* \"#utility.yul\":26350:26351   */\n      dup3\n        /* \"#utility.yul\":26332:26352   */\n      tag_151\n      jump\t// in\n    tag_472:\n        /* \"#utility.yul\":26327:26352   */\n      swap2\n      pop\n        /* \"#utility.yul\":26366:26386   */\n      tag_473\n        /* \"#utility.yul\":26384:26385   */\n      dup4\n        /* \"#utility.yul\":26366:26386   */\n      tag_151\n      jump\t// in\n    tag_473:\n        /* \"#utility.yul\":26361:26386   */\n      swap3\n      pop\n        /* \"#utility.yul\":26405:26406   */\n      dup3\n        /* \"#utility.yul\":26395:26430   */\n      tag_474\n      jumpi\n        /* \"#utility.yul\":26410:26428   */\n      tag_475\n      tag_220\n      jump\t// in\n    tag_475:\n        /* \"#utility.yul\":26395:26430   */\n    tag_474:\n        /* \"#utility.yul\":26452:26453   */\n      dup3\n        /* \"#utility.yul\":26449:26450   */\n      dup3\n        /* \"#utility.yul\":26445:26454   */\n      div\n        /* \"#utility.yul\":26440:26454   */\n      swap1\n      pop\n        /* \"#utility.yul\":26275:26460   */\n      swap3\n      swap2\n      pop\n      pop\n      jump\t// out\n        /* \"#utility.yul\":26466:26571   */\n    tag_221:\n        /* \"#utility.yul\":26502:26509   */\n      0x00\n        /* \"#utility.yul\":26542:26564   */\n      0xffffffffffffffffffff\n        /* \"#utility.yul\":26535:26540   */\n      dup3\n        /* \"#utility.yul\":26531:26565   */\n      and\n        /* \"#utility.yul\":26520:26565   */\n      swap1\n      pop\n        /* \"#utility.yul\":26466:26571   */\n      swap2\n      swap1\n      pop\n      jump\t// out\n        /* \"#utility.yul\":26577:26697   */\n    tag_222:\n        /* \"#utility.yul\":26649:26672   */\n      tag_478\n        /* \"#utility.yul\":26666:26671   */\n      dup2\n        /* \"#utility.yul\":26649:26672   */\n      tag_221\n      jump\t// in\n    tag_478:\n        /* \"#utility.yul\":26642:26647   */\n      dup2\n        /* \"#utility.yul\":26639:26673   */\n      eq\n        /* \"#utility.yul\":26629:26691   */\n      tag_479\n      jumpi\n        /* \"#utility.yul\":26687:26688   */\n      0x00\n        /* \"#utility.yul\":26684:26685   */\n      dup1\n        /* \"#utility.yul\":26677:26689   */\n      revert\n        /* \"#utility.yul\":26629:26691   */\n    tag_479:\n        /* \"#utility.yul\":26577:26697   */\n      pop\n      jump\t// out\n        /* \"#utility.yul\":26703:26844   */\n    tag_223:\n        /* \"#utility.yul\":26759:26764   */\n      0x00\n        /* \"#utility.yul\":26790:26796   */\n      dup2\n        /* \"#utility.yul\":26784:26797   */\n      mload\n        /* \"#utility.yul\":26775:26797   */\n      swap1\n      pop\n        /* \"#utility.yul\":26806:26838   */\n      tag_481\n        /* \"#utility.yul\":26832:26837   */\n      dup2\n        /* \"#utility.yul\":26806:26838   */\n      tag_222\n      jump\t// in\n    tag_481:\n        /* \"#utility.yul\":26703:26844   */\n      swap3\n      swap2\n      pop\n      pop\n      jump\t// out\n        /* \"#utility.yul\":26850:26926   */\n    tag_224:\n        /* \"#utility.yul\":26886:26893   */\n      0x00\n        /* \"#utility.yul\":26915:26920   */\n      dup2\n        /* \"#utility.yul\":26904:26920   */\n      swap1\n      pop\n        /* \"#utility.yul\":26850:26926   */\n      swap2\n      swap1\n      pop\n      jump\t// out\n        /* \"#utility.yul\":26932:27052   */\n    tag_225:\n        /* \"#utility.yul\":27004:27027   */\n      tag_484\n        /* \"#utility.yul\":27021:27026   */\n      dup2\n        /* \"#utility.yul\":27004:27027   */\n      tag_224\n      jump\t// in\n    tag_484:\n        /* \"#utility.yul\":26997:27002   */\n      dup2\n        /* \"#utility.yul\":26994:27028   */\n      eq\n        /* \"#utility.yul\":26984:27046   */\n      tag_485\n      jumpi\n        /* \"#utility.yul\":27042:27043   */\n      0x00\n        /* \"#utility.yul\":27039:27040   */\n      dup1\n        /* \"#utility.yul\":27032:27044   */\n      revert\n        /* \"#utility.yul\":26984:27046   */\n    tag_485:\n        /* \"#utility.yul\":26932:27052   */\n      pop\n      jump\t// out\n        /* \"#utility.yul\":27058:27199   */\n    tag_226:\n        /* \"#utility.yul\":27114:27119   */\n      0x00\n        /* \"#utility.yul\":27145:27151   */\n      dup2\n        /* \"#utility.yul\":27139:27152   */\n      mload\n        /* \"#utility.yul\":27130:27152   */\n      swap1\n      pop\n        /* \"#utility.yul\":27161:27193   */\n      tag_487\n        /* \"#utility.yul\":27187:27192   */\n      dup2\n        /* \"#utility.yul\":27161:27193   */\n      tag_225\n      jump\t// in\n    tag_487:\n        /* \"#utility.yul\":27058:27199   */\n      swap3\n      swap2\n      pop\n      pop\n      jump\t// out\n        /* \"#utility.yul\":27205:27348   */\n    tag_227:\n        /* \"#utility.yul\":27262:27267   */\n      0x00\n        /* \"#utility.yul\":27293:27299   */\n      dup2\n        /* \"#utility.yul\":27287:27300   */\n      mload\n        /* \"#utility.yul\":27278:27300   */\n      swap1\n      pop\n        /* \"#utility.yul\":27309:27342   */\n      tag_489\n        /* \"#utility.yul\":27336:27341   */\n      dup2\n        /* \"#utility.yul\":27309:27342   */\n      tag_152\n      jump\t// in\n    tag_489:\n        /* \"#utility.yul\":27205:27348   */\n      swap3\n      swap2\n      pop\n      pop\n      jump\t// out\n        /* \"#utility.yul\":27354:28325   */\n    tag_145:\n        /* \"#utility.yul\":27457:27463   */\n      0x00\n        /* \"#utility.yul\":27465:27471   */\n      dup1\n        /* \"#utility.yul\":27473:27479   */\n      0x00\n        /* \"#utility.yul\":27481:27487   */\n      dup1\n        /* \"#utility.yul\":27489:27495   */\n      0x00\n        /* \"#utility.yul\":27538:27541   */\n      0xa0\n        /* \"#utility.yul\":27526:27535   */\n      dup7\n        /* \"#utility.yul\":27517:27524   */\n      dup9\n        /* \"#utility.yul\":27513:27536   */\n      sub\n        /* \"#utility.yul\":27509:27542   */\n      slt\n        /* \"#utility.yul\":27506:27626   */\n      iszero\n      tag_491\n      jumpi\n        /* \"#utility.yul\":27545:27624   */\n      tag_492\n      tag_149\n      jump\t// in\n    tag_492:\n        /* \"#utility.yul\":27506:27626   */\n    tag_491:\n        /* \"#utility.yul\":27665:27666   */\n      0x00\n        /* \"#utility.yul\":27690:27753   */\n      tag_493\n        /* \"#utility.yul\":27745:27752   */\n      dup9\n        /* \"#utility.yul\":27736:27742   */\n      dup3\n        /* \"#utility.yul\":27725:27734   */\n      dup10\n        /* \"#utility.yul\":27721:27743   */\n      add\n        /* \"#utility.yul\":27690:27753   */\n      tag_223\n      jump\t// in\n    tag_493:\n        /* \"#utility.yul\":27680:27753   */\n      swap6\n      pop\n        /* \"#utility.yul\":27636:27763   */\n      pop\n        /* \"#utility.yul\":27802:27804   */\n      0x20\n        /* \"#utility.yul\":27828:27891   */\n      tag_494\n        /* \"#utility.yul\":27883:27890   */\n      dup9\n        /* \"#utility.yul\":27874:27880   */\n      dup3\n        /* \"#utility.yul\":27863:27872   */\n      dup10\n        /* \"#utility.yul\":27859:27881   */\n      add\n        /* \"#utility.yul\":27828:27891   */\n      tag_226\n      jump\t// in\n    tag_494:\n        /* \"#utility.yul\":27818:27891   */\n      swap5\n      pop\n        /* \"#utility.yul\":27773:27901   */\n      pop\n        /* \"#utility.yul\":27940:27942   */\n      0x40\n        /* \"#utility.yul\":27966:28030   */\n      tag_495\n        /* \"#utility.yul\":28022:28029   */\n      dup9\n        /* \"#utility.yul\":28013:28019   */\n      dup3\n        /* \"#utility.yul\":28002:28011   */\n      dup10\n        /* \"#utility.yul\":27998:28020   */\n      add\n        /* \"#utility.yul\":27966:28030   */\n      tag_227\n      jump\t// in\n    tag_495:\n        /* \"#utility.yul\":27956:28030   */\n      swap4\n      pop\n        /* \"#utility.yul\":27911:28040   */\n      pop\n        /* \"#utility.yul\":28079:28081   */\n      0x60\n        /* \"#utility.yul\":28105:28169   */\n      tag_496\n        /* \"#utility.yul\":28161:28168   */\n      dup9\n        /* \"#utility.yul\":28152:28158   */\n      dup3\n        /* \"#utility.yul\":28141:28150   */\n      dup10\n        /* \"#utility.yul\":28137:28159   */\n      add\n        /* \"#utility.yul\":28105:28169   */\n      tag_227\n      jump\t// in\n    tag_496:\n        /* \"#utility.yul\":28095:28169   */\n      swap3\n      pop\n        /* \"#utility.yul\":28050:28179   */\n      pop\n        /* \"#utility.yul\":28218:28221   */\n      0x80\n        /* \"#utility.yul\":28245:28308   */\n      tag_497\n        /* \"#utility.yul\":28300:28307   */\n      dup9\n        /* \"#utility.yul\":28291:28297   */\n      dup3\n        /* \"#utility.yul\":28280:28289   */\n      dup10\n        /* \"#utility.yul\":28276:28298   */\n      add\n        /* \"#utility.yul\":28245:28308   */\n      tag_223\n      jump\t// in\n    tag_497:\n        /* \"#utility.yul\":28235:28308   */\n      swap2\n      pop\n        /* \"#utility.yul\":28189:28318   */\n      pop\n        /* \"#utility.yul\":27354:28325   */\n      swap3\n      swap6\n      pop\n      swap3\n      swap6\n      swap1\n      swap4\n      pop\n      jump\t// out\n        /* \"#utility.yul\":28331:28887   */\n    tag_147:\n        /* \"#utility.yul\":28370:28377   */\n      0x00\n        /* \"#utility.yul\":28393:28412   */\n      tag_499\n        /* \"#utility.yul\":28410:28411   */\n      dup3\n        /* \"#utility.yul\":28393:28412   */\n      tag_224\n      jump\t// in\n    tag_499:\n        /* \"#utility.yul\":28388:28412   */\n      swap2\n      pop\n        /* \"#utility.yul\":28426:28445   */\n      tag_500\n        /* \"#utility.yul\":28443:28444   */\n      dup4\n        /* \"#utility.yul\":28426:28445   */\n      tag_224\n      jump\t// in\n    tag_500:\n        /* \"#utility.yul\":28421:28445   */\n      swap3\n      pop\n        /* \"#utility.yul\":28480:28481   */\n      dup3\n        /* \"#utility.yul\":28477:28478   */\n      dup3\n        /* \"#utility.yul\":28473:28482   */\n      mul\n        /* \"#utility.yul\":28502:28531   */\n      tag_501\n        /* \"#utility.yul\":28519:28530   */\n      dup2\n        /* \"#utility.yul\":28502:28531   */\n      tag_224\n      jump\t// in\n    tag_501:\n        /* \"#utility.yul\":28491:28531   */\n      swap2\n      pop\n        /* \"#utility.yul\":28589:28655   */\n      0x8000000000000000000000000000000000000000000000000000000000000000\n        /* \"#utility.yul\":28586:28587   */\n      dup5\n        /* \"#utility.yul\":28583:28656   */\n      eq\n        /* \"#utility.yul\":28579:28580   */\n      0x00\n        /* \"#utility.yul\":28576:28577   */\n      dup5\n        /* \"#utility.yul\":28572:28581   */\n      slt\n        /* \"#utility.yul\":28568:28657   */\n      and\n        /* \"#utility.yul\":28565:28680   */\n      iszero\n      tag_502\n      jumpi\n        /* \"#utility.yul\":28660:28678   */\n      tag_503\n      tag_217\n      jump\t// in\n    tag_503:\n        /* \"#utility.yul\":28565:28680   */\n    tag_502:\n        /* \"#utility.yul\":28830:28831   */\n      dup3\n        /* \"#utility.yul\":28821:28828   */\n      dup3\n        /* \"#utility.yul\":28816:28832   */\n      sdiv\n        /* \"#utility.yul\":28813:28814   */\n      dup5\n        /* \"#utility.yul\":28810:28833   */\n      eq\n        /* \"#utility.yul\":28790:28791   */\n      dup4\n        /* \"#utility.yul\":28783:28792   */\n      iszero\n        /* \"#utility.yul\":28763:28847   */\n      or\n        /* \"#utility.yul\":28740:28880   */\n      tag_504\n      jumpi\n        /* \"#utility.yul\":28860:28878   */\n      tag_505\n      tag_217\n      jump\t// in\n    tag_505:\n        /* \"#utility.yul\":28740:28880   */\n    tag_504:\n        /* \"#utility.yul\":28378:28887   */\n      pop\n        /* \"#utility.yul\":28331:28887   */\n      swap3\n      swap2\n      pop\n      pop\n      jump\t// out\n\n    auxdata: 0xa2646970667358221220d5a085db3a3f2d788ae92a71d8658dd2674f6176a00d9c4af5c913fd48b9635764736f6c63430008160033\n}\n",
				"bytecode": {
					"linkReferences": {},
					"object": "6080604052681b1ae4d6e2ef5000006002553480156200001d575f80fd5b5060405162001bda38038062001bda83398181016040528101906200004391906200012f565b3360015f6101000a81548173ffffffffffffffffffffffffffffffffffffffff021916908373ffffffffffffffffffffffffffffffffffffffff1602179055508060035f6101000a81548173ffffffffffffffffffffffffffffffffffffffff021916908373ffffffffffffffffffffffffffffffffffffffff160217905550506200015f565b5f80fd5b5f73ffffffffffffffffffffffffffffffffffffffff82169050919050565b5f620000f982620000ce565b9050919050565b6200010b81620000ed565b811462000116575f80fd5b50565b5f81519050620001298162000100565b92915050565b5f60208284031215620001475762000146620000ca565b5b5f620001568482850162000119565b91505092915050565b611a6d806200016d5f395ff3fe60806040526004361061006f575f3560e01c80638da5cb5b1161004d5780638da5cb5b146100ef578063c50870b114610119578063ca1d209d14610141578063f38f72fb1461015d5761006f565b8063155dd5ee146100735780633430a88c1461009b578063741bef1a146100c5575b5f80fd5b34801561007e575f80fd5b5061009960048036038101906100949190610b66565b61019e565b005b3480156100a6575f80fd5b506100af6103eb565b6040516100bc9190610ba0565b60405180910390f35b3480156100d0575f80fd5b506100d96103f1565b6040516100e69190610c33565b60405180910390f35b3480156100fa575f80fd5b50610103610416565b6040516101109190610c6c565b60405180910390f35b348015610124575f80fd5b5061013f600480360381019061013a9190610dc1565b61043b565b005b61015b60048036038101906101569190610b66565b610690565b005b348015610168575f80fd5b50610183600480360381019061017e9190610b66565b6108c8565b60405161019596959493929190610f36565b60405180910390f35b60015f9054906101000a900473ffffffffffffffffffffffffffffffffffffffff1673ffffffffffffffffffffffffffffffffffffffff163373ffffffffffffffffffffffffffffffffffffffff161461022d576040517f08c379a000000000000000000000000000000000000000000000000000000000815260040161022490611013565b60405180910390fd5b5f805490508110610273576040517f08c379a000000000000000000000000000000000000000000000000000000000815260040161026a9061107b565b60405180910390fd5b5f80828154811061028757610286611099565b5b905f5260205f20906006020190506001808111156102a8576102a7610ec3565b5b816005015f9054906101000a900460ff1660018111156102cb576102ca610ec3565b5b1461030b576040517f08c379a000000000000000000000000000000000000000000000000000000000815260040161030290611110565b60405180910390fd5b5f816004015490505f82600401819055505f60015f9054906101000a900473ffffffffffffffffffffffffffffffffffffffff1673ffffffffffffffffffffffffffffffffffffffff16826040516103629061115b565b5f6040518083038185875af1925050503d805f811461039c576040519150601f19603f3d011682016040523d82523d5f602084013e6103a1565b606091505b50509050806103e5576040517f08c379a00000000000000000000000000000000000000000000000000000000081526004016103dc906111b9565b60405180910390fd5b50505050565b60025481565b60035f9054906101000a900473ffffffffffffffffffffffffffffffffffffffff1681565b60015f9054906101000a900473ffffffffffffffffffffffffffffffffffffffff1681565b5f83511161047e576040517f08c379a000000000000000000000000000000000000000000000000000000000815260040161047590611221565b60405180910390fd5b5f8251116104c1576040517f08c379a00000000000000000000000000000000000000000000000000000000081526004016104b8906112af565b60405180910390fd5b5f8111610503576040517f08c379a00000000000000000000000000000000000000000000000000000000081526004016104fa9061133d565b60405180910390fd5b5f808054905090505f6040518060c001604052803373ffffffffffffffffffffffffffffffffffffffff1681526020018681526020018581526020018481526020015f81526020015f600181111561055e5761055d610ec3565b5b815250908060018154018082558091505060019003905f5260205f2090600602015f909190919091505f820151815f015f6101000a81548173ffffffffffffffffffffffffffffffffffffffff021916908373ffffffffffffffffffffffffffffffffffffffff16021790555060208201518160010190816105e0919061154c565b5060408201518160020190816105f6919061154c565b50606082015181600301556080820151816004015560a0820151816005015f6101000a81548160ff0219169083600181111561063557610634610ec3565b5b021790555050503373ffffffffffffffffffffffffffffffffffffffff167f04fb5dc09970f675e2e724d4f46a295bbee1e840664a9079b476bbd65d99c0fa826040516106829190610ba0565b60405180910390a250505050565b5f8054905081106106d6576040517f08c379a00000000000000000000000000000000000000000000000000000000081526004016106cd9061107b565b60405180910390fd5b5f8082815481106106ea576106e9611099565b5b905f5260205f20906006020190505f600181111561070b5761070a610ec3565b5b816005015f9054906101000a900460ff16600181111561072e5761072d610ec3565b5b1461076e576040517f08c379a000000000000000000000000000000000000000000000000000000000815260040161076590611665565b60405180910390fd5b5f34116107b0576040517f08c379a00000000000000000000000000000000000000000000000000000000081526004016107a7906116f3565b60405180910390fd5b5f6107ba34610a45565b90505f6107ca8360040154610a45565b905060025481836107db919061173e565b101561081c576040517f08c379a0000000000000000000000000000000000000000000000000000000008152600401610813906117e1565b60405180910390fd5b34836004015f82825461082f919061173e565b925050819055503373ffffffffffffffffffffffffffffffffffffffff167f1b3bc3684e732e6309ed2cfc5bafc8464574a7d92a3fa931a3b83606f087b3e2853460405161087e9291906117ff565b60405180910390a282600301548360040154106108c2576001836005015f6101000a81548160ff021916908360018111156108bc576108bb610ec3565b5b02179055505b50505050565b5f81815481106108d6575f80fd5b905f5260205f2090600602015f91509050805f015f9054906101000a900473ffffffffffffffffffffffffffffffffffffffff169080600101805461091a90611388565b80601f016020809104026020016040519081016040528092919081815260200182805461094690611388565b80156109915780601f1061096857610100808354040283529160200191610991565b820191905f5260205f20905b81548152906001019060200180831161097457829003601f168201915b5050505050908060020180546109a690611388565b80601f01602080910402602001604051908101604052809291908181526020018280546109d290611388565b8015610a1d5780601f106109f457610100808354040283529160200191610a1d565b820191905f5260205f20905b815481529060010190602001808311610a0057829003601f168201915b505050505090806003015490806004015490806005015f9054906101000a900460ff16905086565b5f80610a4f610a7d565b90505f670de0b6b3a76400008483610a679190611826565b610a719190611894565b90508092505050919050565b5f8073694aa1769357215de4fac081bf1f309adc32530690505f8173ffffffffffffffffffffffffffffffffffffffff1663feaf968c6040518163ffffffff1660e01b815260040160a060405180830381865afa158015610ae0573d5f803e3d5ffd5b505050506040513d601f19601f82011682018060405250810190610b04919061194a565b5050509150506402540be40081610b1b91906119c1565b9250505090565b5f604051905090565b5f80fd5b5f80fd5b5f819050919050565b610b4581610b33565b8114610b4f575f80fd5b50565b5f81359050610b6081610b3c565b92915050565b5f60208284031215610b7b57610b7a610b2b565b5b5f610b8884828501610b52565b91505092915050565b610b9a81610b33565b82525050565b5f602082019050610bb35f830184610b91565b92915050565b5f73ffffffffffffffffffffffffffffffffffffffff82169050919050565b5f819050919050565b5f610bfb610bf6610bf184610bb9565b610bd8565b610bb9565b9050919050565b5f610c0c82610be1565b9050919050565b5f610c1d82610c02565b9050919050565b610c2d81610c13565b82525050565b5f602082019050610c465f830184610c24565b92915050565b5f610c5682610bb9565b9050919050565b610c6681610c4c565b82525050565b5f602082019050610c7f5f830184610c5d565b92915050565b5f80fd5b5f80fd5b5f601f19601f8301169050919050565b7f4e487b71000000000000000000000000000000000000000000000000000000005f52604160045260245ffd5b610cd382610c8d565b810181811067ffffffffffffffff82111715610cf257610cf1610c9d565b5b80604052505050565b5f610d04610b22565b9050610d108282610cca565b919050565b5f67ffffffffffffffff821115610d2f57610d2e610c9d565b5b610d3882610c8d565b9050602081019050919050565b828183375f83830152505050565b5f610d65610d6084610d15565b610cfb565b905082815260208101848484011115610d8157610d80610c89565b5b610d8c848285610d45565b509392505050565b5f82601f830112610da857610da7610c85565b5b8135610db8848260208601610d53565b91505092915050565b5f805f60608486031215610dd857610dd7610b2b565b5b5f84013567ffffffffffffffff811115610df557610df4610b2f565b5b610e0186828701610d94565b935050602084013567ffffffffffffffff811115610e2257610e21610b2f565b5b610e2e86828701610d94565b9250506040610e3f86828701610b52565b9150509250925092565b5f81519050919050565b5f82825260208201905092915050565b5f5b83811015610e80578082015181840152602081019050610e65565b5f8484015250505050565b5f610e9582610e49565b610e9f8185610e53565b9350610eaf818560208601610e63565b610eb881610c8d565b840191505092915050565b7f4e487b71000000000000000000000000000000000000000000000000000000005f52602160045260245ffd5b60028110610f0157610f00610ec3565b5b50565b5f819050610f1182610ef0565b919050565b5f610f2082610f04565b9050919050565b610f3081610f16565b82525050565b5f60c082019050610f495f830189610c5d565b8181036020830152610f5b8188610e8b565b90508181036040830152610f6f8187610e8b565b9050610f7e6060830186610b91565b610f8b6080830185610b91565b610f9860a0830184610f27565b979650505050505050565b7f4f6e6c7920746865206f776e65722063616e2063616c6c20746869732066756e5f8201527f6374696f6e000000000000000000000000000000000000000000000000000000602082015250565b5f610ffd602583610e53565b915061100882610fa3565b604082019050919050565b5f6020820190508181035f83015261102a81610ff1565b9050919050565b7f46756e6472616973657220646f6573206e6f74206578697374000000000000005f82015250565b5f611065601983610e53565b915061107082611031565b602082019050919050565b5f6020820190508181035f83015261109281611059565b9050919050565b7f4e487b71000000000000000000000000000000000000000000000000000000005f52603260045260245ffd5b7f46756e64726169736572206973206e6f7420636f6d706c6574656400000000005f82015250565b5f6110fa601b83610e53565b9150611105826110c6565b602082019050919050565b5f6020820190508181035f830152611127816110ee565b9050919050565b5f81905092915050565b50565b5f6111465f8361112e565b915061115182611138565b5f82019050919050565b5f6111658261113b565b9150819050919050565b7f5769746864726177616c206661696c65640000000000000000000000000000005f82015250565b5f6111a3601183610e53565b91506111ae8261116f565b602082019050919050565b5f6020820190508181035f8301526111d081611197565b9050919050565b7f46756e64726169736572206e616d652063616e6e6f7420626520656d707479005f82015250565b5f61120b601f83610e53565b9150611216826111d7565b602082019050919050565b5f6020820190508181035f830152611238816111ff565b9050919050565b7f46756e64726169736572206465736372697074696f6e2063616e6e6f742062655f8201527f20656d7074790000000000000000000000000000000000000000000000000000602082015250565b5f611299602683610e53565b91506112a48261123f565b604082019050919050565b5f6020820190508181035f8301526112c68161128d565b9050919050565b7f46756e6472616973657220676f616c20616d6f756e74206d75737420626520675f8201527f726561746572207468616e203000000000000000000000000000000000000000602082015250565b5f611327602d83610e53565b9150611332826112cd565b604082019050919050565b5f6020820190508181035f8301526113548161131b565b9050919050565b7f4e487b71000000000000000000000000000000000000000000000000000000005f52602260045260245ffd5b5f600282049050600182168061139f57607f821691505b6020821081036113b2576113b161135b565b5b50919050565b5f819050815f5260205f209050919050565b5f6020601f8301049050919050565b5f82821b905092915050565b5f600883026114147fffffffffffffffffffffffffffffffffffffffffffffffffffffffffffffffff826113d9565b61141e86836113d9565b95508019841693508086168417925050509392505050565b5f61145061144b61144684610b33565b610bd8565b610b33565b9050919050565b5f819050919050565b61146983611436565b61147d61147582611457565b8484546113e5565b825550505050565b5f90565b611491611485565b61149c818484611460565b505050565b5b818110156114bf576114b45f82611489565b6001810190506114a2565b5050565b601f821115611504576114d5816113b8565b6114de846113ca565b810160208510156114ed578190505b6115016114f9856113ca565b8301826114a1565b50505b505050565b5f82821c905092915050565b5f6115245f1984600802611509565b1980831691505092915050565b5f61153c8383611515565b9150826002028217905092915050565b61155582610e49565b67ffffffffffffffff81111561156e5761156d610c9d565b5b6115788254611388565b6115838282856114c3565b5f60209050601f8311600181146115b4575f84156115a2578287015190505b6115ac8582611531565b865550611613565b601f1984166115c2866113b8565b5f5b828110156115e9578489015182556001820191506020850194506020810190506115c4565b868310156116065784890151611602601f891682611515565b8355505b6001600288020188555050505b505050505050565b7f46756e64726169736572206973206e6f742061637469766500000000000000005f82015250565b5f61164f601883610e53565b915061165a8261161b565b602082019050919050565b5f6020820190508181035f83015261167c81611643565b9050919050565b7f53656e7420616d6f756e74206d7573742062652067726561746572207468616e5f8201527f2030000000000000000000000000000000000000000000000000000000000000602082015250565b5f6116dd602283610e53565b91506116e882611683565b604082019050919050565b5f6020820190508181035f83015261170a816116d1565b9050919050565b7f4e487b71000000000000000000000000000000000000000000000000000000005f52601160045260245ffd5b5f61174882610b33565b915061175383610b33565b925082820190508082111561176b5761176a611711565b5b92915050565b7f46756e6472616973657220646f6573206e6f74206d65657420746865206d696e5f8201527f696d756d2066756e64696e6720726571756972656d656e740000000000000000602082015250565b5f6117cb603883610e53565b91506117d682611771565b604082019050919050565b5f6020820190508181035f8301526117f8816117bf565b9050919050565b5f6040820190506118125f830185610b91565b61181f6020830184610b91565b9392505050565b5f61183082610b33565b915061183b83610b33565b925082820261184981610b33565b915082820484148315176118605761185f611711565b5b5092915050565b7f4e487b71000000000000000000000000000000000000000000000000000000005f52601260045260245ffd5b5f61189e82610b33565b91506118a983610b33565b9250826118b9576118b8611867565b5b828204905092915050565b5f69ffffffffffffffffffff82169050919050565b6118e2816118c4565b81146118ec575f80fd5b50565b5f815190506118fd816118d9565b92915050565b5f819050919050565b61191581611903565b811461191f575f80fd5b50565b5f815190506119308161190c565b92915050565b5f8151905061194481610b3c565b92915050565b5f805f805f60a0868803121561196357611962610b2b565b5b5f611970888289016118ef565b955050602061198188828901611922565b945050604061199288828901611936565b93505060606119a388828901611936565b92505060806119b4888289016118ef565b9150509295509295909350565b5f6119cb82611903565b91506119d683611903565b92508282026119e481611903565b91507f800000000000000000000000000000000000000000000000000000000000000084145f84121615611a1b57611a1a611711565b5b8282058414831517611a3057611a2f611711565b5b509291505056fea2646970667358221220d5a085db3a3f2d788ae92a71d8658dd2674f6176a00d9c4af5c913fd48b9635764736f6c63430008160033",
					"opcodes": "PUSH1 0x80 PUSH1 0x40 MSTORE PUSH9 0x1B1AE4D6E2EF500000 PUSH1 0x2 SSTORE CALLVALUE DUP1 ISZERO PUSH3 0x1D JUMPI PUSH0 DUP1 REVERT JUMPDEST POP PUSH1 0x40 MLOAD PUSH3 0x1BDA CODESIZE SUB DUP1 PUSH3 0x1BDA DUP4 CODECOPY DUP2 DUP2 ADD PUSH1 0x40 MSTORE DUP2 ADD SWAP1 PUSH3 0x43 SWAP2 SWAP1 PUSH3 0x12F JUMP JUMPDEST CALLER PUSH1 0x1 PUSH0 PUSH2 0x100 EXP DUP2 SLOAD DUP2 PUSH20 0xFFFFFFFFFFFFFFFFFFFFFFFFFFFFFFFFFFFFFFFF MUL NOT AND SWAP1 DUP4 PUSH20 0xFFFFFFFFFFFFFFFFFFFFFFFFFFFFFFFFFFFFFFFF AND MUL OR SWAP1 SSTORE POP DUP1 PUSH1 0x3 PUSH0 PUSH2 0x100 EXP DUP2 SLOAD DUP2 PUSH20 0xFFFFFFFFFFFFFFFFFFFFFFFFFFFFFFFFFFFFFFFF MUL NOT AND SWAP1 DUP4 PUSH20 0xFFFFFFFFFFFFFFFFFFFFFFFFFFFFFFFFFFFFFFFF AND MUL OR SWAP1 SSTORE POP POP PUSH3 0x15F JUMP JUMPDEST PUSH0 DUP1 REVERT JUMPDEST PUSH0 PUSH20 0xFFFFFFFFFFFFFFFFFFFFFFFFFFFFFFFFFFFFFFFF DUP3 AND SWAP1 POP SWAP2 SWAP1 POP JUMP JUMPDEST PUSH0 PUSH3 0xF9 DUP3 PUSH3 0xCE JUMP JUMPDEST SWAP1 POP SWAP2 SWAP1 POP JUMP JUMPDEST PUSH3 0x10B DUP2 PUSH3 0xED JUMP JUMPDEST DUP2 EQ PUSH3 0x116 JUMPI PUSH0 DUP1 REVERT JUMPDEST POP JUMP JUMPDEST PUSH0 DUP2 MLOAD SWAP1 POP PUSH3 0x129 DUP2 PUSH3 0x100 JUMP JUMPDEST SWAP3 SWAP2 POP POP JUMP JUMPDEST PUSH0 PUSH1 0x20 DUP3 DUP5 SUB SLT ISZERO PUSH3 0x147 JUMPI PUSH3 0x146 PUSH3 0xCA JUMP JUMPDEST JUMPDEST PUSH0 PUSH3 0x156 DUP5 DUP3 DUP6 ADD PUSH3 0x119 JUMP JUMPDEST SWAP2 POP POP SWAP3 SWAP2 POP POP JUMP JUMPDEST PUSH2 0x1A6D DUP1 PUSH3 0x16D PUSH0 CODECOPY PUSH0 RETURN INVALID PUSH1 0x80 PUSH1 0x40 MSTORE PUSH1 0x4 CALLDATASIZE LT PUSH2 0x6F JUMPI PUSH0 CALLDATALOAD PUSH1 0xE0 SHR DUP1 PUSH4 0x8DA5CB5B GT PUSH2 0x4D JUMPI DUP1 PUSH4 0x8DA5CB5B EQ PUSH2 0xEF JUMPI DUP1 PUSH4 0xC50870B1 EQ PUSH2 0x119 JUMPI DUP1 PUSH4 0xCA1D209D EQ PUSH2 0x141 JUMPI DUP1 PUSH4 0xF38F72FB EQ PUSH2 0x15D JUMPI PUSH2 0x6F JUMP JUMPDEST DUP1 PUSH4 0x155DD5EE EQ PUSH2 0x73 JUMPI DUP1 PUSH4 0x3430A88C EQ PUSH2 0x9B JUMPI DUP1 PUSH4 0x741BEF1A EQ PUSH2 0xC5 JUMPI JUMPDEST PUSH0 DUP1 REVERT JUMPDEST CALLVALUE DUP1 ISZERO PUSH2 0x7E JUMPI PUSH0 DUP1 REVERT JUMPDEST POP PUSH2 0x99 PUSH1 0x4 DUP1 CALLDATASIZE SUB DUP2 ADD SWAP1 PUSH2 0x94 SWAP2 SWAP1 PUSH2 0xB66 JUMP JUMPDEST PUSH2 0x19E JUMP JUMPDEST STOP JUMPDEST CALLVALUE DUP1 ISZERO PUSH2 0xA6 JUMPI PUSH0 DUP1 REVERT JUMPDEST POP PUSH2 0xAF PUSH2 0x3EB JUMP JUMPDEST PUSH1 0x40 MLOAD PUSH2 0xBC SWAP2 SWAP1 PUSH2 0xBA0 JUMP JUMPDEST PUSH1 0x40 MLOAD DUP1 SWAP2 SUB SWAP1 RETURN JUMPDEST CALLVALUE DUP1 ISZERO PUSH2 0xD0 JUMPI PUSH0 DUP1 REVERT JUMPDEST POP PUSH2 0xD9 PUSH2 0x3F1 JUMP JUMPDEST PUSH1 0x40 MLOAD PUSH2 0xE6 SWAP2 SWAP1 PUSH2 0xC33 JUMP JUMPDEST PUSH1 0x40 MLOAD DUP1 SWAP2 SUB SWAP1 RETURN JUMPDEST CALLVALUE DUP1 ISZERO PUSH2 0xFA JUMPI PUSH0 DUP1 REVERT JUMPDEST POP PUSH2 0x103 PUSH2 0x416 JUMP JUMPDEST PUSH1 0x40 MLOAD PUSH2 0x110 SWAP2 SWAP1 PUSH2 0xC6C JUMP JUMPDEST PUSH1 0x40 MLOAD DUP1 SWAP2 SUB SWAP1 RETURN JUMPDEST CALLVALUE DUP1 ISZERO PUSH2 0x124 JUMPI PUSH0 DUP1 REVERT JUMPDEST POP PUSH2 0x13F PUSH1 0x4 DUP1 CALLDATASIZE SUB DUP2 ADD SWAP1 PUSH2 0x13A SWAP2 SWAP1 PUSH2 0xDC1 JUMP JUMPDEST PUSH2 0x43B JUMP JUMPDEST STOP JUMPDEST PUSH2 0x15B PUSH1 0x4 DUP1 CALLDATASIZE SUB DUP2 ADD SWAP1 PUSH2 0x156 SWAP2 SWAP1 PUSH2 0xB66 JUMP JUMPDEST PUSH2 0x690 JUMP JUMPDEST STOP JUMPDEST CALLVALUE DUP1 ISZERO PUSH2 0x168 JUMPI PUSH0 DUP1 REVERT JUMPDEST POP PUSH2 0x183 PUSH1 0x4 DUP1 CALLDATASIZE SUB DUP2 ADD SWAP1 PUSH2 0x17E SWAP2 SWAP1 PUSH2 0xB66 JUMP JUMPDEST PUSH2 0x8C8 JUMP JUMPDEST PUSH1 0x40 MLOAD PUSH2 0x195 SWAP7 SWAP6 SWAP5 SWAP4 SWAP3 SWAP2 SWAP1 PUSH2 0xF36 JUMP JUMPDEST PUSH1 0x40 MLOAD DUP1 SWAP2 SUB SWAP1 RETURN JUMPDEST PUSH1 0x1 PUSH0 SWAP1 SLOAD SWAP1 PUSH2 0x100 EXP SWAP1 DIV PUSH20 0xFFFFFFFFFFFFFFFFFFFFFFFFFFFFFFFFFFFFFFFF AND PUSH20 0xFFFFFFFFFFFFFFFFFFFFFFFFFFFFFFFFFFFFFFFF AND CALLER PUSH20 0xFFFFFFFFFFFFFFFFFFFFFFFFFFFFFFFFFFFFFFFF AND EQ PUSH2 0x22D JUMPI PUSH1 0x40 MLOAD PUSH32 0x8C379A000000000000000000000000000000000000000000000000000000000 DUP2 MSTORE PUSH1 0x4 ADD PUSH2 0x224 SWAP1 PUSH2 0x1013 JUMP JUMPDEST PUSH1 0x40 MLOAD DUP1 SWAP2 SUB SWAP1 REVERT JUMPDEST PUSH0 DUP1 SLOAD SWAP1 POP DUP2 LT PUSH2 0x273 JUMPI PUSH1 0x40 MLOAD PUSH32 0x8C379A000000000000000000000000000000000000000000000000000000000 DUP2 MSTORE PUSH1 0x4 ADD PUSH2 0x26A SWAP1 PUSH2 0x107B JUMP JUMPDEST PUSH1 0x40 MLOAD DUP1 SWAP2 SUB SWAP1 REVERT JUMPDEST PUSH0 DUP1 DUP3 DUP2 SLOAD DUP2 LT PUSH2 0x287 JUMPI PUSH2 0x286 PUSH2 0x1099 JUMP JUMPDEST JUMPDEST SWAP1 PUSH0 MSTORE PUSH1 0x20 PUSH0 KECCAK256 SWAP1 PUSH1 0x6 MUL ADD SWAP1 POP PUSH1 0x1 DUP1 DUP2 GT ISZERO PUSH2 0x2A8 JUMPI PUSH2 0x2A7 PUSH2 0xEC3 JUMP JUMPDEST JUMPDEST DUP2 PUSH1 0x5 ADD PUSH0 SWAP1 SLOAD SWAP1 PUSH2 0x100 EXP SWAP1 DIV PUSH1 0xFF AND PUSH1 0x1 DUP2 GT ISZERO PUSH2 0x2CB JUMPI PUSH2 0x2CA PUSH2 0xEC3 JUMP JUMPDEST JUMPDEST EQ PUSH2 0x30B JUMPI PUSH1 0x40 MLOAD PUSH32 0x8C379A000000000000000000000000000000000000000000000000000000000 DUP2 MSTORE PUSH1 0x4 ADD PUSH2 0x302 SWAP1 PUSH2 0x1110 JUMP JUMPDEST PUSH1 0x40 MLOAD DUP1 SWAP2 SUB SWAP1 REVERT JUMPDEST PUSH0 DUP2 PUSH1 0x4 ADD SLOAD SWAP1 POP PUSH0 DUP3 PUSH1 0x4 ADD DUP2 SWAP1 SSTORE POP PUSH0 PUSH1 0x1 PUSH0 SWAP1 SLOAD SWAP1 PUSH2 0x100 EXP SWAP1 DIV PUSH20 0xFFFFFFFFFFFFFFFFFFFFFFFFFFFFFFFFFFFFFFFF AND PUSH20 0xFFFFFFFFFFFFFFFFFFFFFFFFFFFFFFFFFFFFFFFF AND DUP3 PUSH1 0x40 MLOAD PUSH2 0x362 SWAP1 PUSH2 0x115B JUMP JUMPDEST PUSH0 PUSH1 0x40 MLOAD DUP1 DUP4 SUB DUP2 DUP6 DUP8 GAS CALL SWAP3 POP POP POP RETURNDATASIZE DUP1 PUSH0 DUP2 EQ PUSH2 0x39C JUMPI PUSH1 0x40 MLOAD SWAP2 POP PUSH1 0x1F NOT PUSH1 0x3F RETURNDATASIZE ADD AND DUP3 ADD PUSH1 0x40 MSTORE RETURNDATASIZE DUP3 MSTORE RETURNDATASIZE PUSH0 PUSH1 0x20 DUP5 ADD RETURNDATACOPY PUSH2 0x3A1 JUMP JUMPDEST PUSH1 0x60 SWAP2 POP JUMPDEST POP POP SWAP1 POP DUP1 PUSH2 0x3E5 JUMPI PUSH1 0x40 MLOAD PUSH32 0x8C379A000000000000000000000000000000000000000000000000000000000 DUP2 MSTORE PUSH1 0x4 ADD PUSH2 0x3DC SWAP1 PUSH2 0x11B9 JUMP JUMPDEST PUSH1 0x40 MLOAD DUP1 SWAP2 SUB SWAP1 REVERT JUMPDEST POP POP POP POP JUMP JUMPDEST PUSH1 0x2 SLOAD DUP2 JUMP JUMPDEST PUSH1 0x3 PUSH0 SWAP1 SLOAD SWAP1 PUSH2 0x100 EXP SWAP1 DIV PUSH20 0xFFFFFFFFFFFFFFFFFFFFFFFFFFFFFFFFFFFFFFFF AND DUP2 JUMP JUMPDEST PUSH1 0x1 PUSH0 SWAP1 SLOAD SWAP1 PUSH2 0x100 EXP SWAP1 DIV PUSH20 0xFFFFFFFFFFFFFFFFFFFFFFFFFFFFFFFFFFFFFFFF AND DUP2 JUMP JUMPDEST PUSH0 DUP4 MLOAD GT PUSH2 0x47E JUMPI PUSH1 0x40 MLOAD PUSH32 0x8C379A000000000000000000000000000000000000000000000000000000000 DUP2 MSTORE PUSH1 0x4 ADD PUSH2 0x475 SWAP1 PUSH2 0x1221 JUMP JUMPDEST PUSH1 0x40 MLOAD DUP1 SWAP2 SUB SWAP1 REVERT JUMPDEST PUSH0 DUP3 MLOAD GT PUSH2 0x4C1 JUMPI PUSH1 0x40 MLOAD PUSH32 0x8C379A000000000000000000000000000000000000000000000000000000000 DUP2 MSTORE PUSH1 0x4 ADD PUSH2 0x4B8 SWAP1 PUSH2 0x12AF JUMP JUMPDEST PUSH1 0x40 MLOAD DUP1 SWAP2 SUB SWAP1 REVERT JUMPDEST PUSH0 DUP2 GT PUSH2 0x503 JUMPI PUSH1 0x40 MLOAD PUSH32 0x8C379A000000000000000000000000000000000000000000000000000000000 DUP2 MSTORE PUSH1 0x4 ADD PUSH2 0x4FA SWAP1 PUSH2 0x133D JUMP JUMPDEST PUSH1 0x40 MLOAD DUP1 SWAP2 SUB SWAP1 REVERT JUMPDEST PUSH0 DUP1 DUP1 SLOAD SWAP1 POP SWAP1 POP PUSH0 PUSH1 0x40 MLOAD DUP1 PUSH1 0xC0 ADD PUSH1 0x40 MSTORE DUP1 CALLER PUSH20 0xFFFFFFFFFFFFFFFFFFFFFFFFFFFFFFFFFFFFFFFF AND DUP2 MSTORE PUSH1 0x20 ADD DUP7 DUP2 MSTORE PUSH1 0x20 ADD DUP6 DUP2 MSTORE PUSH1 0x20 ADD DUP5 DUP2 MSTORE PUSH1 0x20 ADD PUSH0 DUP2 MSTORE PUSH1 0x20 ADD PUSH0 PUSH1 0x1 DUP2 GT ISZERO PUSH2 0x55E JUMPI PUSH2 0x55D PUSH2 0xEC3 JUMP JUMPDEST JUMPDEST DUP2 MSTORE POP SWAP1 DUP1 PUSH1 0x1 DUP2 SLOAD ADD DUP1 DUP3 SSTORE DUP1 SWAP2 POP POP PUSH1 0x1 SWAP1 SUB SWAP1 PUSH0 MSTORE PUSH1 0x20 PUSH0 KECCAK256 SWAP1 PUSH1 0x6 MUL ADD PUSH0 SWAP1 SWAP2 SWAP1 SWAP2 SWAP1 SWAP2 POP PUSH0 DUP3 ADD MLOAD DUP2 PUSH0 ADD PUSH0 PUSH2 0x100 EXP DUP2 SLOAD DUP2 PUSH20 0xFFFFFFFFFFFFFFFFFFFFFFFFFFFFFFFFFFFFFFFF MUL NOT AND SWAP1 DUP4 PUSH20 0xFFFFFFFFFFFFFFFFFFFFFFFFFFFFFFFFFFFFFFFF AND MUL OR SWAP1 SSTORE POP PUSH1 0x20 DUP3 ADD MLOAD DUP2 PUSH1 0x1 ADD SWAP1 DUP2 PUSH2 0x5E0 SWAP2 SWAP1 PUSH2 0x154C JUMP JUMPDEST POP PUSH1 0x40 DUP3 ADD MLOAD DUP2 PUSH1 0x2 ADD SWAP1 DUP2 PUSH2 0x5F6 SWAP2 SWAP1 PUSH2 0x154C JUMP JUMPDEST POP PUSH1 0x60 DUP3 ADD MLOAD DUP2 PUSH1 0x3 ADD SSTORE PUSH1 0x80 DUP3 ADD MLOAD DUP2 PUSH1 0x4 ADD SSTORE PUSH1 0xA0 DUP3 ADD MLOAD DUP2 PUSH1 0x5 ADD PUSH0 PUSH2 0x100 EXP DUP2 SLOAD DUP2 PUSH1 0xFF MUL NOT AND SWAP1 DUP4 PUSH1 0x1 DUP2 GT ISZERO PUSH2 0x635 JUMPI PUSH2 0x634 PUSH2 0xEC3 JUMP JUMPDEST JUMPDEST MUL OR SWAP1 SSTORE POP POP POP CALLER PUSH20 0xFFFFFFFFFFFFFFFFFFFFFFFFFFFFFFFFFFFFFFFF AND PUSH32 0x4FB5DC09970F675E2E724D4F46A295BBEE1E840664A9079B476BBD65D99C0FA DUP3 PUSH1 0x40 MLOAD PUSH2 0x682 SWAP2 SWAP1 PUSH2 0xBA0 JUMP JUMPDEST PUSH1 0x40 MLOAD DUP1 SWAP2 SUB SWAP1 LOG2 POP POP POP POP JUMP JUMPDEST PUSH0 DUP1 SLOAD SWAP1 POP DUP2 LT PUSH2 0x6D6 JUMPI PUSH1 0x40 MLOAD PUSH32 0x8C379A000000000000000000000000000000000000000000000000000000000 DUP2 MSTORE PUSH1 0x4 ADD PUSH2 0x6CD SWAP1 PUSH2 0x107B JUMP JUMPDEST PUSH1 0x40 MLOAD DUP1 SWAP2 SUB SWAP1 REVERT JUMPDEST PUSH0 DUP1 DUP3 DUP2 SLOAD DUP2 LT PUSH2 0x6EA JUMPI PUSH2 0x6E9 PUSH2 0x1099 JUMP JUMPDEST JUMPDEST SWAP1 PUSH0 MSTORE PUSH1 0x20 PUSH0 KECCAK256 SWAP1 PUSH1 0x6 MUL ADD SWAP1 POP PUSH0 PUSH1 0x1 DUP2 GT ISZERO PUSH2 0x70B JUMPI PUSH2 0x70A PUSH2 0xEC3 JUMP JUMPDEST JUMPDEST DUP2 PUSH1 0x5 ADD PUSH0 SWAP1 SLOAD SWAP1 PUSH2 0x100 EXP SWAP1 DIV PUSH1 0xFF AND PUSH1 0x1 DUP2 GT ISZERO PUSH2 0x72E JUMPI PUSH2 0x72D PUSH2 0xEC3 JUMP JUMPDEST JUMPDEST EQ PUSH2 0x76E JUMPI PUSH1 0x40 MLOAD PUSH32 0x8C379A000000000000000000000000000000000000000000000000000000000 DUP2 MSTORE PUSH1 0x4 ADD PUSH2 0x765 SWAP1 PUSH2 0x1665 JUMP JUMPDEST PUSH1 0x40 MLOAD DUP1 SWAP2 SUB SWAP1 REVERT JUMPDEST PUSH0 CALLVALUE GT PUSH2 0x7B0 JUMPI PUSH1 0x40 MLOAD PUSH32 0x8C379A000000000000000000000000000000000000000000000000000000000 DUP2 MSTORE PUSH1 0x4 ADD PUSH2 0x7A7 SWAP1 PUSH2 0x16F3 JUMP JUMPDEST PUSH1 0x40 MLOAD DUP1 SWAP2 SUB SWAP1 REVERT JUMPDEST PUSH0 PUSH2 0x7BA CALLVALUE PUSH2 0xA45 JUMP JUMPDEST SWAP1 POP PUSH0 PUSH2 0x7CA DUP4 PUSH1 0x4 ADD SLOAD PUSH2 0xA45 JUMP JUMPDEST SWAP1 POP PUSH1 0x2 SLOAD DUP2 DUP4 PUSH2 0x7DB SWAP2 SWAP1 PUSH2 0x173E JUMP JUMPDEST LT ISZERO PUSH2 0x81C JUMPI PUSH1 0x40 MLOAD PUSH32 0x8C379A000000000000000000000000000000000000000000000000000000000 DUP2 MSTORE PUSH1 0x4 ADD PUSH2 0x813 SWAP1 PUSH2 0x17E1 JUMP JUMPDEST PUSH1 0x40 MLOAD DUP1 SWAP2 SUB SWAP1 REVERT JUMPDEST CALLVALUE DUP4 PUSH1 0x4 ADD PUSH0 DUP3 DUP3 SLOAD PUSH2 0x82F SWAP2 SWAP1 PUSH2 0x173E JUMP JUMPDEST SWAP3 POP POP DUP2 SWAP1 SSTORE POP CALLER PUSH20 0xFFFFFFFFFFFFFFFFFFFFFFFFFFFFFFFFFFFFFFFF AND PUSH32 0x1B3BC3684E732E6309ED2CFC5BAFC8464574A7D92A3FA931A3B83606F087B3E2 DUP6 CALLVALUE PUSH1 0x40 MLOAD PUSH2 0x87E SWAP3 SWAP2 SWAP1 PUSH2 0x17FF JUMP JUMPDEST PUSH1 0x40 MLOAD DUP1 SWAP2 SUB SWAP1 LOG2 DUP3 PUSH1 0x3 ADD SLOAD DUP4 PUSH1 0x4 ADD SLOAD LT PUSH2 0x8C2 JUMPI PUSH1 0x1 DUP4 PUSH1 0x5 ADD PUSH0 PUSH2 0x100 EXP DUP2 SLOAD DUP2 PUSH1 0xFF MUL NOT AND SWAP1 DUP4 PUSH1 0x1 DUP2 GT ISZERO PUSH2 0x8BC JUMPI PUSH2 0x8BB PUSH2 0xEC3 JUMP JUMPDEST JUMPDEST MUL OR SWAP1 SSTORE POP JUMPDEST POP POP POP POP JUMP JUMPDEST PUSH0 DUP2 DUP2 SLOAD DUP2 LT PUSH2 0x8D6 JUMPI PUSH0 DUP1 REVERT JUMPDEST SWAP1 PUSH0 MSTORE PUSH1 0x20 PUSH0 KECCAK256 SWAP1 PUSH1 0x6 MUL ADD PUSH0 SWAP2 POP SWAP1 POP DUP1 PUSH0 ADD PUSH0 SWAP1 SLOAD SWAP1 PUSH2 0x100 EXP SWAP1 DIV PUSH20 0xFFFFFFFFFFFFFFFFFFFFFFFFFFFFFFFFFFFFFFFF AND SWAP1 DUP1 PUSH1 0x1 ADD DUP1 SLOAD PUSH2 0x91A SWAP1 PUSH2 0x1388 JUMP JUMPDEST DUP1 PUSH1 0x1F ADD PUSH1 0x20 DUP1 SWAP2 DIV MUL PUSH1 0x20 ADD PUSH1 0x40 MLOAD SWAP1 DUP2 ADD PUSH1 0x40 MSTORE DUP1 SWAP3 SWAP2 SWAP1 DUP2 DUP2 MSTORE PUSH1 0x20 ADD DUP3 DUP1 SLOAD PUSH2 0x946 SWAP1 PUSH2 0x1388 JUMP JUMPDEST DUP1 ISZERO PUSH2 0x991 JUMPI DUP1 PUSH1 0x1F LT PUSH2 0x968 JUMPI PUSH2 0x100 DUP1 DUP4 SLOAD DIV MUL DUP4 MSTORE SWAP2 PUSH1 0x20 ADD SWAP2 PUSH2 0x991 JUMP JUMPDEST DUP3 ADD SWAP2 SWAP1 PUSH0 MSTORE PUSH1 0x20 PUSH0 KECCAK256 SWAP1 JUMPDEST DUP2 SLOAD DUP2 MSTORE SWAP1 PUSH1 0x1 ADD SWAP1 PUSH1 0x20 ADD DUP1 DUP4 GT PUSH2 0x974 JUMPI DUP3 SWAP1 SUB PUSH1 0x1F AND DUP3 ADD SWAP2 JUMPDEST POP POP POP POP POP SWAP1 DUP1 PUSH1 0x2 ADD DUP1 SLOAD PUSH2 0x9A6 SWAP1 PUSH2 0x1388 JUMP JUMPDEST DUP1 PUSH1 0x1F ADD PUSH1 0x20 DUP1 SWAP2 DIV MUL PUSH1 0x20 ADD PUSH1 0x40 MLOAD SWAP1 DUP2 ADD PUSH1 0x40 MSTORE DUP1 SWAP3 SWAP2 SWAP1 DUP2 DUP2 MSTORE PUSH1 0x20 ADD DUP3 DUP1 SLOAD PUSH2 0x9D2 SWAP1 PUSH2 0x1388 JUMP JUMPDEST DUP1 ISZERO PUSH2 0xA1D JUMPI DUP1 PUSH1 0x1F LT PUSH2 0x9F4 JUMPI PUSH2 0x100 DUP1 DUP4 SLOAD DIV MUL DUP4 MSTORE SWAP2 PUSH1 0x20 ADD SWAP2 PUSH2 0xA1D JUMP JUMPDEST DUP3 ADD SWAP2 SWAP1 PUSH0 MSTORE PUSH1 0x20 PUSH0 KECCAK256 SWAP1 JUMPDEST DUP2 SLOAD DUP2 MSTORE SWAP1 PUSH1 0x1 ADD SWAP1 PUSH1 0x20 ADD DUP1 DUP4 GT PUSH2 0xA00 JUMPI DUP3 SWAP1 SUB PUSH1 0x1F AND DUP3 ADD SWAP2 JUMPDEST POP POP POP POP POP SWAP1 DUP1 PUSH1 0x3 ADD SLOAD SWAP1 DUP1 PUSH1 0x4 ADD SLOAD SWAP1 DUP1 PUSH1 0x5 ADD PUSH0 SWAP1 SLOAD SWAP1 PUSH2 0x100 EXP SWAP1 DIV PUSH1 0xFF AND SWAP1 POP DUP7 JUMP JUMPDEST PUSH0 DUP1 PUSH2 0xA4F PUSH2 0xA7D JUMP JUMPDEST SWAP1 POP PUSH0 PUSH8 0xDE0B6B3A7640000 DUP5 DUP4 PUSH2 0xA67 SWAP2 SWAP1 PUSH2 0x1826 JUMP JUMPDEST PUSH2 0xA71 SWAP2 SWAP1 PUSH2 0x1894 JUMP JUMPDEST SWAP1 POP DUP1 SWAP3 POP POP POP SWAP2 SWAP1 POP JUMP JUMPDEST PUSH0 DUP1 PUSH20 0x694AA1769357215DE4FAC081BF1F309ADC325306 SWAP1 POP PUSH0 DUP2 PUSH20 0xFFFFFFFFFFFFFFFFFFFFFFFFFFFFFFFFFFFFFFFF AND PUSH4 0xFEAF968C PUSH1 0x40 MLOAD DUP2 PUSH4 0xFFFFFFFF AND PUSH1 0xE0 SHL DUP2 MSTORE PUSH1 0x4 ADD PUSH1 0xA0 PUSH1 0x40 MLOAD DUP1 DUP4 SUB DUP2 DUP7 GAS STATICCALL ISZERO DUP1 ISZERO PUSH2 0xAE0 JUMPI RETURNDATASIZE PUSH0 DUP1 RETURNDATACOPY RETURNDATASIZE PUSH0 REVERT JUMPDEST POP POP POP POP PUSH1 0x40 MLOAD RETURNDATASIZE PUSH1 0x1F NOT PUSH1 0x1F DUP3 ADD AND DUP3 ADD DUP1 PUSH1 0x40 MSTORE POP DUP2 ADD SWAP1 PUSH2 0xB04 SWAP2 SWAP1 PUSH2 0x194A JUMP JUMPDEST POP POP POP SWAP2 POP POP PUSH5 0x2540BE400 DUP2 PUSH2 0xB1B SWAP2 SWAP1 PUSH2 0x19C1 JUMP JUMPDEST SWAP3 POP POP POP SWAP1 JUMP JUMPDEST PUSH0 PUSH1 0x40 MLOAD SWAP1 POP SWAP1 JUMP JUMPDEST PUSH0 DUP1 REVERT JUMPDEST PUSH0 DUP1 REVERT JUMPDEST PUSH0 DUP2 SWAP1 POP SWAP2 SWAP1 POP JUMP JUMPDEST PUSH2 0xB45 DUP2 PUSH2 0xB33 JUMP JUMPDEST DUP2 EQ PUSH2 0xB4F JUMPI PUSH0 DUP1 REVERT JUMPDEST POP JUMP JUMPDEST PUSH0 DUP2 CALLDATALOAD SWAP1 POP PUSH2 0xB60 DUP2 PUSH2 0xB3C JUMP JUMPDEST SWAP3 SWAP2 POP POP JUMP JUMPDEST PUSH0 PUSH1 0x20 DUP3 DUP5 SUB SLT ISZERO PUSH2 0xB7B JUMPI PUSH2 0xB7A PUSH2 0xB2B JUMP JUMPDEST JUMPDEST PUSH0 PUSH2 0xB88 DUP5 DUP3 DUP6 ADD PUSH2 0xB52 JUMP JUMPDEST SWAP2 POP POP SWAP3 SWAP2 POP POP JUMP JUMPDEST PUSH2 0xB9A DUP2 PUSH2 0xB33 JUMP JUMPDEST DUP3 MSTORE POP POP JUMP JUMPDEST PUSH0 PUSH1 0x20 DUP3 ADD SWAP1 POP PUSH2 0xBB3 PUSH0 DUP4 ADD DUP5 PUSH2 0xB91 JUMP JUMPDEST SWAP3 SWAP2 POP POP JUMP JUMPDEST PUSH0 PUSH20 0xFFFFFFFFFFFFFFFFFFFFFFFFFFFFFFFFFFFFFFFF DUP3 AND SWAP1 POP SWAP2 SWAP1 POP JUMP JUMPDEST PUSH0 DUP2 SWAP1 POP SWAP2 SWAP1 POP JUMP JUMPDEST PUSH0 PUSH2 0xBFB PUSH2 0xBF6 PUSH2 0xBF1 DUP5 PUSH2 0xBB9 JUMP JUMPDEST PUSH2 0xBD8 JUMP JUMPDEST PUSH2 0xBB9 JUMP JUMPDEST SWAP1 POP SWAP2 SWAP1 POP JUMP JUMPDEST PUSH0 PUSH2 0xC0C DUP3 PUSH2 0xBE1 JUMP JUMPDEST SWAP1 POP SWAP2 SWAP1 POP JUMP JUMPDEST PUSH0 PUSH2 0xC1D DUP3 PUSH2 0xC02 JUMP JUMPDEST SWAP1 POP SWAP2 SWAP1 POP JUMP JUMPDEST PUSH2 0xC2D DUP2 PUSH2 0xC13 JUMP JUMPDEST DUP3 MSTORE POP POP JUMP JUMPDEST PUSH0 PUSH1 0x20 DUP3 ADD SWAP1 POP PUSH2 0xC46 PUSH0 DUP4 ADD DUP5 PUSH2 0xC24 JUMP JUMPDEST SWAP3 SWAP2 POP POP JUMP JUMPDEST PUSH0 PUSH2 0xC56 DUP3 PUSH2 0xBB9 JUMP JUMPDEST SWAP1 POP SWAP2 SWAP1 POP JUMP JUMPDEST PUSH2 0xC66 DUP2 PUSH2 0xC4C JUMP JUMPDEST DUP3 MSTORE POP POP JUMP JUMPDEST PUSH0 PUSH1 0x20 DUP3 ADD SWAP1 POP PUSH2 0xC7F PUSH0 DUP4 ADD DUP5 PUSH2 0xC5D JUMP JUMPDEST SWAP3 SWAP2 POP POP JUMP JUMPDEST PUSH0 DUP1 REVERT JUMPDEST PUSH0 DUP1 REVERT JUMPDEST PUSH0 PUSH1 0x1F NOT PUSH1 0x1F DUP4 ADD AND SWAP1 POP SWAP2 SWAP1 POP JUMP JUMPDEST PUSH32 0x4E487B7100000000000000000000000000000000000000000000000000000000 PUSH0 MSTORE PUSH1 0x41 PUSH1 0x4 MSTORE PUSH1 0x24 PUSH0 REVERT JUMPDEST PUSH2 0xCD3 DUP3 PUSH2 0xC8D JUMP JUMPDEST DUP2 ADD DUP2 DUP2 LT PUSH8 0xFFFFFFFFFFFFFFFF DUP3 GT OR ISZERO PUSH2 0xCF2 JUMPI PUSH2 0xCF1 PUSH2 0xC9D JUMP JUMPDEST JUMPDEST DUP1 PUSH1 0x40 MSTORE POP POP POP JUMP JUMPDEST PUSH0 PUSH2 0xD04 PUSH2 0xB22 JUMP JUMPDEST SWAP1 POP PUSH2 0xD10 DUP3 DUP3 PUSH2 0xCCA JUMP JUMPDEST SWAP2 SWAP1 POP JUMP JUMPDEST PUSH0 PUSH8 0xFFFFFFFFFFFFFFFF DUP3 GT ISZERO PUSH2 0xD2F JUMPI PUSH2 0xD2E PUSH2 0xC9D JUMP JUMPDEST JUMPDEST PUSH2 0xD38 DUP3 PUSH2 0xC8D JUMP JUMPDEST SWAP1 POP PUSH1 0x20 DUP2 ADD SWAP1 POP SWAP2 SWAP1 POP JUMP JUMPDEST DUP3 DUP2 DUP4 CALLDATACOPY PUSH0 DUP4 DUP4 ADD MSTORE POP POP POP JUMP JUMPDEST PUSH0 PUSH2 0xD65 PUSH2 0xD60 DUP5 PUSH2 0xD15 JUMP JUMPDEST PUSH2 0xCFB JUMP JUMPDEST SWAP1 POP DUP3 DUP2 MSTORE PUSH1 0x20 DUP2 ADD DUP5 DUP5 DUP5 ADD GT ISZERO PUSH2 0xD81 JUMPI PUSH2 0xD80 PUSH2 0xC89 JUMP JUMPDEST JUMPDEST PUSH2 0xD8C DUP5 DUP3 DUP6 PUSH2 0xD45 JUMP JUMPDEST POP SWAP4 SWAP3 POP POP POP JUMP JUMPDEST PUSH0 DUP3 PUSH1 0x1F DUP4 ADD SLT PUSH2 0xDA8 JUMPI PUSH2 0xDA7 PUSH2 0xC85 JUMP JUMPDEST JUMPDEST DUP2 CALLDATALOAD PUSH2 0xDB8 DUP5 DUP3 PUSH1 0x20 DUP7 ADD PUSH2 0xD53 JUMP JUMPDEST SWAP2 POP POP SWAP3 SWAP2 POP POP JUMP JUMPDEST PUSH0 DUP1 PUSH0 PUSH1 0x60 DUP5 DUP7 SUB SLT ISZERO PUSH2 0xDD8 JUMPI PUSH2 0xDD7 PUSH2 0xB2B JUMP JUMPDEST JUMPDEST PUSH0 DUP5 ADD CALLDATALOAD PUSH8 0xFFFFFFFFFFFFFFFF DUP2 GT ISZERO PUSH2 0xDF5 JUMPI PUSH2 0xDF4 PUSH2 0xB2F JUMP JUMPDEST JUMPDEST PUSH2 0xE01 DUP7 DUP3 DUP8 ADD PUSH2 0xD94 JUMP JUMPDEST SWAP4 POP POP PUSH1 0x20 DUP5 ADD CALLDATALOAD PUSH8 0xFFFFFFFFFFFFFFFF DUP2 GT ISZERO PUSH2 0xE22 JUMPI PUSH2 0xE21 PUSH2 0xB2F JUMP JUMPDEST JUMPDEST PUSH2 0xE2E DUP7 DUP3 DUP8 ADD PUSH2 0xD94 JUMP JUMPDEST SWAP3 POP POP PUSH1 0x40 PUSH2 0xE3F DUP7 DUP3 DUP8 ADD PUSH2 0xB52 JUMP JUMPDEST SWAP2 POP POP SWAP3 POP SWAP3 POP SWAP3 JUMP JUMPDEST PUSH0 DUP2 MLOAD SWAP1 POP SWAP2 SWAP1 POP JUMP JUMPDEST PUSH0 DUP3 DUP3 MSTORE PUSH1 0x20 DUP3 ADD SWAP1 POP SWAP3 SWAP2 POP POP JUMP JUMPDEST PUSH0 JUMPDEST DUP4 DUP2 LT ISZERO PUSH2 0xE80 JUMPI DUP1 DUP3 ADD MLOAD DUP2 DUP5 ADD MSTORE PUSH1 0x20 DUP2 ADD SWAP1 POP PUSH2 0xE65 JUMP JUMPDEST PUSH0 DUP5 DUP5 ADD MSTORE POP POP POP POP JUMP JUMPDEST PUSH0 PUSH2 0xE95 DUP3 PUSH2 0xE49 JUMP JUMPDEST PUSH2 0xE9F DUP2 DUP6 PUSH2 0xE53 JUMP JUMPDEST SWAP4 POP PUSH2 0xEAF DUP2 DUP6 PUSH1 0x20 DUP7 ADD PUSH2 0xE63 JUMP JUMPDEST PUSH2 0xEB8 DUP2 PUSH2 0xC8D JUMP JUMPDEST DUP5 ADD SWAP2 POP POP SWAP3 SWAP2 POP POP JUMP JUMPDEST PUSH32 0x4E487B7100000000000000000000000000000000000000000000000000000000 PUSH0 MSTORE PUSH1 0x21 PUSH1 0x4 MSTORE PUSH1 0x24 PUSH0 REVERT JUMPDEST PUSH1 0x2 DUP2 LT PUSH2 0xF01 JUMPI PUSH2 0xF00 PUSH2 0xEC3 JUMP JUMPDEST JUMPDEST POP JUMP JUMPDEST PUSH0 DUP2 SWAP1 POP PUSH2 0xF11 DUP3 PUSH2 0xEF0 JUMP JUMPDEST SWAP2 SWAP1 POP JUMP JUMPDEST PUSH0 PUSH2 0xF20 DUP3 PUSH2 0xF04 JUMP JUMPDEST SWAP1 POP SWAP2 SWAP1 POP JUMP JUMPDEST PUSH2 0xF30 DUP2 PUSH2 0xF16 JUMP JUMPDEST DUP3 MSTORE POP POP JUMP JUMPDEST PUSH0 PUSH1 0xC0 DUP3 ADD SWAP1 POP PUSH2 0xF49 PUSH0 DUP4 ADD DUP10 PUSH2 0xC5D JUMP JUMPDEST DUP2 DUP2 SUB PUSH1 0x20 DUP4 ADD MSTORE PUSH2 0xF5B DUP2 DUP9 PUSH2 0xE8B JUMP JUMPDEST SWAP1 POP DUP2 DUP2 SUB PUSH1 0x40 DUP4 ADD MSTORE PUSH2 0xF6F DUP2 DUP8 PUSH2 0xE8B JUMP JUMPDEST SWAP1 POP PUSH2 0xF7E PUSH1 0x60 DUP4 ADD DUP7 PUSH2 0xB91 JUMP JUMPDEST PUSH2 0xF8B PUSH1 0x80 DUP4 ADD DUP6 PUSH2 0xB91 JUMP JUMPDEST PUSH2 0xF98 PUSH1 0xA0 DUP4 ADD DUP5 PUSH2 0xF27 JUMP JUMPDEST SWAP8 SWAP7 POP POP POP POP POP POP POP JUMP JUMPDEST PUSH32 0x4F6E6C7920746865206F776E65722063616E2063616C6C20746869732066756E PUSH0 DUP3 ADD MSTORE PUSH32 0x6374696F6E000000000000000000000000000000000000000000000000000000 PUSH1 0x20 DUP3 ADD MSTORE POP JUMP JUMPDEST PUSH0 PUSH2 0xFFD PUSH1 0x25 DUP4 PUSH2 0xE53 JUMP JUMPDEST SWAP2 POP PUSH2 0x1008 DUP3 PUSH2 0xFA3 JUMP JUMPDEST PUSH1 0x40 DUP3 ADD SWAP1 POP SWAP2 SWAP1 POP JUMP JUMPDEST PUSH0 PUSH1 0x20 DUP3 ADD SWAP1 POP DUP2 DUP2 SUB PUSH0 DUP4 ADD MSTORE PUSH2 0x102A DUP2 PUSH2 0xFF1 JUMP JUMPDEST SWAP1 POP SWAP2 SWAP1 POP JUMP JUMPDEST PUSH32 0x46756E6472616973657220646F6573206E6F7420657869737400000000000000 PUSH0 DUP3 ADD MSTORE POP JUMP JUMPDEST PUSH0 PUSH2 0x1065 PUSH1 0x19 DUP4 PUSH2 0xE53 JUMP JUMPDEST SWAP2 POP PUSH2 0x1070 DUP3 PUSH2 0x1031 JUMP JUMPDEST PUSH1 0x20 DUP3 ADD SWAP1 POP SWAP2 SWAP1 POP JUMP JUMPDEST PUSH0 PUSH1 0x20 DUP3 ADD SWAP1 POP DUP2 DUP2 SUB PUSH0 DUP4 ADD MSTORE PUSH2 0x1092 DUP2 PUSH2 0x1059 JUMP JUMPDEST SWAP1 POP SWAP2 SWAP1 POP JUMP JUMPDEST PUSH32 0x4E487B7100000000000000000000000000000000000000000000000000000000 PUSH0 MSTORE PUSH1 0x32 PUSH1 0x4 MSTORE PUSH1 0x24 PUSH0 REVERT JUMPDEST PUSH32 0x46756E64726169736572206973206E6F7420636F6D706C657465640000000000 PUSH0 DUP3 ADD MSTORE POP JUMP JUMPDEST PUSH0 PUSH2 0x10FA PUSH1 0x1B DUP4 PUSH2 0xE53 JUMP JUMPDEST SWAP2 POP PUSH2 0x1105 DUP3 PUSH2 0x10C6 JUMP JUMPDEST PUSH1 0x20 DUP3 ADD SWAP1 POP SWAP2 SWAP1 POP JUMP JUMPDEST PUSH0 PUSH1 0x20 DUP3 ADD SWAP1 POP DUP2 DUP2 SUB PUSH0 DUP4 ADD MSTORE PUSH2 0x1127 DUP2 PUSH2 0x10EE JUMP JUMPDEST SWAP1 POP SWAP2 SWAP1 POP JUMP JUMPDEST PUSH0 DUP2 SWAP1 POP SWAP3 SWAP2 POP POP JUMP JUMPDEST POP JUMP JUMPDEST PUSH0 PUSH2 0x1146 PUSH0 DUP4 PUSH2 0x112E JUMP JUMPDEST SWAP2 POP PUSH2 0x1151 DUP3 PUSH2 0x1138 JUMP JUMPDEST PUSH0 DUP3 ADD SWAP1 POP SWAP2 SWAP1 POP JUMP JUMPDEST PUSH0 PUSH2 0x1165 DUP3 PUSH2 0x113B JUMP JUMPDEST SWAP2 POP DUP2 SWAP1 POP SWAP2 SWAP1 POP JUMP JUMPDEST PUSH32 0x5769746864726177616C206661696C6564000000000000000000000000000000 PUSH0 DUP3 ADD MSTORE POP JUMP JUMPDEST PUSH0 PUSH2 0x11A3 PUSH1 0x11 DUP4 PUSH2 0xE53 JUMP JUMPDEST SWAP2 POP PUSH2 0x11AE DUP3 PUSH2 0x116F JUMP JUMPDEST PUSH1 0x20 DUP3 ADD SWAP1 POP SWAP2 SWAP1 POP JUMP JUMPDEST PUSH0 PUSH1 0x20 DUP3 ADD SWAP1 POP DUP2 DUP2 SUB PUSH0 DUP4 ADD MSTORE PUSH2 0x11D0 DUP2 PUSH2 0x1197 JUMP JUMPDEST SWAP1 POP SWAP2 SWAP1 POP JUMP JUMPDEST PUSH32 0x46756E64726169736572206E616D652063616E6E6F7420626520656D70747900 PUSH0 DUP3 ADD MSTORE POP JUMP JUMPDEST PUSH0 PUSH2 0x120B PUSH1 0x1F DUP4 PUSH2 0xE53 JUMP JUMPDEST SWAP2 POP PUSH2 0x1216 DUP3 PUSH2 0x11D7 JUMP JUMPDEST PUSH1 0x20 DUP3 ADD SWAP1 POP SWAP2 SWAP1 POP JUMP JUMPDEST PUSH0 PUSH1 0x20 DUP3 ADD SWAP1 POP DUP2 DUP2 SUB PUSH0 DUP4 ADD MSTORE PUSH2 0x1238 DUP2 PUSH2 0x11FF JUMP JUMPDEST SWAP1 POP SWAP2 SWAP1 POP JUMP JUMPDEST PUSH32 0x46756E64726169736572206465736372697074696F6E2063616E6E6F74206265 PUSH0 DUP3 ADD MSTORE PUSH32 0x20656D7074790000000000000000000000000000000000000000000000000000 PUSH1 0x20 DUP3 ADD MSTORE POP JUMP JUMPDEST PUSH0 PUSH2 0x1299 PUSH1 0x26 DUP4 PUSH2 0xE53 JUMP JUMPDEST SWAP2 POP PUSH2 0x12A4 DUP3 PUSH2 0x123F JUMP JUMPDEST PUSH1 0x40 DUP3 ADD SWAP1 POP SWAP2 SWAP1 POP JUMP JUMPDEST PUSH0 PUSH1 0x20 DUP3 ADD SWAP1 POP DUP2 DUP2 SUB PUSH0 DUP4 ADD MSTORE PUSH2 0x12C6 DUP2 PUSH2 0x128D JUMP JUMPDEST SWAP1 POP SWAP2 SWAP1 POP JUMP JUMPDEST PUSH32 0x46756E6472616973657220676F616C20616D6F756E74206D7573742062652067 PUSH0 DUP3 ADD MSTORE PUSH32 0x726561746572207468616E203000000000000000000000000000000000000000 PUSH1 0x20 DUP3 ADD MSTORE POP JUMP JUMPDEST PUSH0 PUSH2 0x1327 PUSH1 0x2D DUP4 PUSH2 0xE53 JUMP JUMPDEST SWAP2 POP PUSH2 0x1332 DUP3 PUSH2 0x12CD JUMP JUMPDEST PUSH1 0x40 DUP3 ADD SWAP1 POP SWAP2 SWAP1 POP JUMP JUMPDEST PUSH0 PUSH1 0x20 DUP3 ADD SWAP1 POP DUP2 DUP2 SUB PUSH0 DUP4 ADD MSTORE PUSH2 0x1354 DUP2 PUSH2 0x131B JUMP JUMPDEST SWAP1 POP SWAP2 SWAP1 POP JUMP JUMPDEST PUSH32 0x4E487B7100000000000000000000000000000000000000000000000000000000 PUSH0 MSTORE PUSH1 0x22 PUSH1 0x4 MSTORE PUSH1 0x24 PUSH0 REVERT JUMPDEST PUSH0 PUSH1 0x2 DUP3 DIV SWAP1 POP PUSH1 0x1 DUP3 AND DUP1 PUSH2 0x139F JUMPI PUSH1 0x7F DUP3 AND SWAP2 POP JUMPDEST PUSH1 0x20 DUP3 LT DUP2 SUB PUSH2 0x13B2 JUMPI PUSH2 0x13B1 PUSH2 0x135B JUMP JUMPDEST JUMPDEST POP SWAP2 SWAP1 POP JUMP JUMPDEST PUSH0 DUP2 SWAP1 POP DUP2 PUSH0 MSTORE PUSH1 0x20 PUSH0 KECCAK256 SWAP1 POP SWAP2 SWAP1 POP JUMP JUMPDEST PUSH0 PUSH1 0x20 PUSH1 0x1F DUP4 ADD DIV SWAP1 POP SWAP2 SWAP1 POP JUMP JUMPDEST PUSH0 DUP3 DUP3 SHL SWAP1 POP SWAP3 SWAP2 POP POP JUMP JUMPDEST PUSH0 PUSH1 0x8 DUP4 MUL PUSH2 0x1414 PUSH32 0xFFFFFFFFFFFFFFFFFFFFFFFFFFFFFFFFFFFFFFFFFFFFFFFFFFFFFFFFFFFFFFFF DUP3 PUSH2 0x13D9 JUMP JUMPDEST PUSH2 0x141E DUP7 DUP4 PUSH2 0x13D9 JUMP JUMPDEST SWAP6 POP DUP1 NOT DUP5 AND SWAP4 POP DUP1 DUP7 AND DUP5 OR SWAP3 POP POP POP SWAP4 SWAP3 POP POP POP JUMP JUMPDEST PUSH0 PUSH2 0x1450 PUSH2 0x144B PUSH2 0x1446 DUP5 PUSH2 0xB33 JUMP JUMPDEST PUSH2 0xBD8 JUMP JUMPDEST PUSH2 0xB33 JUMP JUMPDEST SWAP1 POP SWAP2 SWAP1 POP JUMP JUMPDEST PUSH0 DUP2 SWAP1 POP SWAP2 SWAP1 POP JUMP JUMPDEST PUSH2 0x1469 DUP4 PUSH2 0x1436 JUMP JUMPDEST PUSH2 0x147D PUSH2 0x1475 DUP3 PUSH2 0x1457 JUMP JUMPDEST DUP5 DUP5 SLOAD PUSH2 0x13E5 JUMP JUMPDEST DUP3 SSTORE POP POP POP POP JUMP JUMPDEST PUSH0 SWAP1 JUMP JUMPDEST PUSH2 0x1491 PUSH2 0x1485 JUMP JUMPDEST PUSH2 0x149C DUP2 DUP5 DUP5 PUSH2 0x1460 JUMP JUMPDEST POP POP POP JUMP JUMPDEST JUMPDEST DUP2 DUP2 LT ISZERO PUSH2 0x14BF JUMPI PUSH2 0x14B4 PUSH0 DUP3 PUSH2 0x1489 JUMP JUMPDEST PUSH1 0x1 DUP2 ADD SWAP1 POP PUSH2 0x14A2 JUMP JUMPDEST POP POP JUMP JUMPDEST PUSH1 0x1F DUP3 GT ISZERO PUSH2 0x1504 JUMPI PUSH2 0x14D5 DUP2 PUSH2 0x13B8 JUMP JUMPDEST PUSH2 0x14DE DUP5 PUSH2 0x13CA JUMP JUMPDEST DUP2 ADD PUSH1 0x20 DUP6 LT ISZERO PUSH2 0x14ED JUMPI DUP2 SWAP1 POP JUMPDEST PUSH2 0x1501 PUSH2 0x14F9 DUP6 PUSH2 0x13CA JUMP JUMPDEST DUP4 ADD DUP3 PUSH2 0x14A1 JUMP JUMPDEST POP POP JUMPDEST POP POP POP JUMP JUMPDEST PUSH0 DUP3 DUP3 SHR SWAP1 POP SWAP3 SWAP2 POP POP JUMP JUMPDEST PUSH0 PUSH2 0x1524 PUSH0 NOT DUP5 PUSH1 0x8 MUL PUSH2 0x1509 JUMP JUMPDEST NOT DUP1 DUP4 AND SWAP2 POP POP SWAP3 SWAP2 POP POP JUMP JUMPDEST PUSH0 PUSH2 0x153C DUP4 DUP4 PUSH2 0x1515 JUMP JUMPDEST SWAP2 POP DUP3 PUSH1 0x2 MUL DUP3 OR SWAP1 POP SWAP3 SWAP2 POP POP JUMP JUMPDEST PUSH2 0x1555 DUP3 PUSH2 0xE49 JUMP JUMPDEST PUSH8 0xFFFFFFFFFFFFFFFF DUP2 GT ISZERO PUSH2 0x156E JUMPI PUSH2 0x156D PUSH2 0xC9D JUMP JUMPDEST JUMPDEST PUSH2 0x1578 DUP3 SLOAD PUSH2 0x1388 JUMP JUMPDEST PUSH2 0x1583 DUP3 DUP3 DUP6 PUSH2 0x14C3 JUMP JUMPDEST PUSH0 PUSH1 0x20 SWAP1 POP PUSH1 0x1F DUP4 GT PUSH1 0x1 DUP2 EQ PUSH2 0x15B4 JUMPI PUSH0 DUP5 ISZERO PUSH2 0x15A2 JUMPI DUP3 DUP8 ADD MLOAD SWAP1 POP JUMPDEST PUSH2 0x15AC DUP6 DUP3 PUSH2 0x1531 JUMP JUMPDEST DUP7 SSTORE POP PUSH2 0x1613 JUMP JUMPDEST PUSH1 0x1F NOT DUP5 AND PUSH2 0x15C2 DUP7 PUSH2 0x13B8 JUMP JUMPDEST PUSH0 JUMPDEST DUP3 DUP2 LT ISZERO PUSH2 0x15E9 JUMPI DUP5 DUP10 ADD MLOAD DUP3 SSTORE PUSH1 0x1 DUP3 ADD SWAP2 POP PUSH1 0x20 DUP6 ADD SWAP5 POP PUSH1 0x20 DUP2 ADD SWAP1 POP PUSH2 0x15C4 JUMP JUMPDEST DUP7 DUP4 LT ISZERO PUSH2 0x1606 JUMPI DUP5 DUP10 ADD MLOAD PUSH2 0x1602 PUSH1 0x1F DUP10 AND DUP3 PUSH2 0x1515 JUMP JUMPDEST DUP4 SSTORE POP JUMPDEST PUSH1 0x1 PUSH1 0x2 DUP9 MUL ADD DUP9 SSTORE POP POP POP JUMPDEST POP POP POP POP POP POP JUMP JUMPDEST PUSH32 0x46756E64726169736572206973206E6F74206163746976650000000000000000 PUSH0 DUP3 ADD MSTORE POP JUMP JUMPDEST PUSH0 PUSH2 0x164F PUSH1 0x18 DUP4 PUSH2 0xE53 JUMP JUMPDEST SWAP2 POP PUSH2 0x165A DUP3 PUSH2 0x161B JUMP JUMPDEST PUSH1 0x20 DUP3 ADD SWAP1 POP SWAP2 SWAP1 POP JUMP JUMPDEST PUSH0 PUSH1 0x20 DUP3 ADD SWAP1 POP DUP2 DUP2 SUB PUSH0 DUP4 ADD MSTORE PUSH2 0x167C DUP2 PUSH2 0x1643 JUMP JUMPDEST SWAP1 POP SWAP2 SWAP1 POP JUMP JUMPDEST PUSH32 0x53656E7420616D6F756E74206D7573742062652067726561746572207468616E PUSH0 DUP3 ADD MSTORE PUSH32 0x2030000000000000000000000000000000000000000000000000000000000000 PUSH1 0x20 DUP3 ADD MSTORE POP JUMP JUMPDEST PUSH0 PUSH2 0x16DD PUSH1 0x22 DUP4 PUSH2 0xE53 JUMP JUMPDEST SWAP2 POP PUSH2 0x16E8 DUP3 PUSH2 0x1683 JUMP JUMPDEST PUSH1 0x40 DUP3 ADD SWAP1 POP SWAP2 SWAP1 POP JUMP JUMPDEST PUSH0 PUSH1 0x20 DUP3 ADD SWAP1 POP DUP2 DUP2 SUB PUSH0 DUP4 ADD MSTORE PUSH2 0x170A DUP2 PUSH2 0x16D1 JUMP JUMPDEST SWAP1 POP SWAP2 SWAP1 POP JUMP JUMPDEST PUSH32 0x4E487B7100000000000000000000000000000000000000000000000000000000 PUSH0 MSTORE PUSH1 0x11 PUSH1 0x4 MSTORE PUSH1 0x24 PUSH0 REVERT JUMPDEST PUSH0 PUSH2 0x1748 DUP3 PUSH2 0xB33 JUMP JUMPDEST SWAP2 POP PUSH2 0x1753 DUP4 PUSH2 0xB33 JUMP JUMPDEST SWAP3 POP DUP3 DUP3 ADD SWAP1 POP DUP1 DUP3 GT ISZERO PUSH2 0x176B JUMPI PUSH2 0x176A PUSH2 0x1711 JUMP JUMPDEST JUMPDEST SWAP3 SWAP2 POP POP JUMP JUMPDEST PUSH32 0x46756E6472616973657220646F6573206E6F74206D65657420746865206D696E PUSH0 DUP3 ADD MSTORE PUSH32 0x696D756D2066756E64696E6720726571756972656D656E740000000000000000 PUSH1 0x20 DUP3 ADD MSTORE POP JUMP JUMPDEST PUSH0 PUSH2 0x17CB PUSH1 0x38 DUP4 PUSH2 0xE53 JUMP JUMPDEST SWAP2 POP PUSH2 0x17D6 DUP3 PUSH2 0x1771 JUMP JUMPDEST PUSH1 0x40 DUP3 ADD SWAP1 POP SWAP2 SWAP1 POP JUMP JUMPDEST PUSH0 PUSH1 0x20 DUP3 ADD SWAP1 POP DUP2 DUP2 SUB PUSH0 DUP4 ADD MSTORE PUSH2 0x17F8 DUP2 PUSH2 0x17BF JUMP JUMPDEST SWAP1 POP SWAP2 SWAP1 POP JUMP JUMPDEST PUSH0 PUSH1 0x40 DUP3 ADD SWAP1 POP PUSH2 0x1812 PUSH0 DUP4 ADD DUP6 PUSH2 0xB91 JUMP JUMPDEST PUSH2 0x181F PUSH1 0x20 DUP4 ADD DUP5 PUSH2 0xB91 JUMP JUMPDEST SWAP4 SWAP3 POP POP POP JUMP JUMPDEST PUSH0 PUSH2 0x1830 DUP3 PUSH2 0xB33 JUMP JUMPDEST SWAP2 POP PUSH2 0x183B DUP4 PUSH2 0xB33 JUMP JUMPDEST SWAP3 POP DUP3 DUP3 MUL PUSH2 0x1849 DUP2 PUSH2 0xB33 JUMP JUMPDEST SWAP2 POP DUP3 DUP3 DIV DUP5 EQ DUP4 ISZERO OR PUSH2 0x1860 JUMPI PUSH2 0x185F PUSH2 0x1711 JUMP JUMPDEST JUMPDEST POP SWAP3 SWAP2 POP POP JUMP JUMPDEST PUSH32 0x4E487B7100000000000000000000000000000000000000000000000000000000 PUSH0 MSTORE PUSH1 0x12 PUSH1 0x4 MSTORE PUSH1 0x24 PUSH0 REVERT JUMPDEST PUSH0 PUSH2 0x189E DUP3 PUSH2 0xB33 JUMP JUMPDEST SWAP2 POP PUSH2 0x18A9 DUP4 PUSH2 0xB33 JUMP JUMPDEST SWAP3 POP DUP3 PUSH2 0x18B9 JUMPI PUSH2 0x18B8 PUSH2 0x1867 JUMP JUMPDEST JUMPDEST DUP3 DUP3 DIV SWAP1 POP SWAP3 SWAP2 POP POP JUMP JUMPDEST PUSH0 PUSH10 0xFFFFFFFFFFFFFFFFFFFF DUP3 AND SWAP1 POP SWAP2 SWAP1 POP JUMP JUMPDEST PUSH2 0x18E2 DUP2 PUSH2 0x18C4 JUMP JUMPDEST DUP2 EQ PUSH2 0x18EC JUMPI PUSH0 DUP1 REVERT JUMPDEST POP JUMP JUMPDEST PUSH0 DUP2 MLOAD SWAP1 POP PUSH2 0x18FD DUP2 PUSH2 0x18D9 JUMP JUMPDEST SWAP3 SWAP2 POP POP JUMP JUMPDEST PUSH0 DUP2 SWAP1 POP SWAP2 SWAP1 POP JUMP JUMPDEST PUSH2 0x1915 DUP2 PUSH2 0x1903 JUMP JUMPDEST DUP2 EQ PUSH2 0x191F JUMPI PUSH0 DUP1 REVERT JUMPDEST POP JUMP JUMPDEST PUSH0 DUP2 MLOAD SWAP1 POP PUSH2 0x1930 DUP2 PUSH2 0x190C JUMP JUMPDEST SWAP3 SWAP2 POP POP JUMP JUMPDEST PUSH0 DUP2 MLOAD SWAP1 POP PUSH2 0x1944 DUP2 PUSH2 0xB3C JUMP JUMPDEST SWAP3 SWAP2 POP POP JUMP JUMPDEST PUSH0 DUP1 PUSH0 DUP1 PUSH0 PUSH1 0xA0 DUP7 DUP9 SUB SLT ISZERO PUSH2 0x1963 JUMPI PUSH2 0x1962 PUSH2 0xB2B JUMP JUMPDEST JUMPDEST PUSH0 PUSH2 0x1970 DUP9 DUP3 DUP10 ADD PUSH2 0x18EF JUMP JUMPDEST SWAP6 POP POP PUSH1 0x20 PUSH2 0x1981 DUP9 DUP3 DUP10 ADD PUSH2 0x1922 JUMP JUMPDEST SWAP5 POP POP PUSH1 0x40 PUSH2 0x1992 DUP9 DUP3 DUP10 ADD PUSH2 0x1936 JUMP JUMPDEST SWAP4 POP POP PUSH1 0x60 PUSH2 0x19A3 DUP9 DUP3 DUP10 ADD PUSH2 0x1936 JUMP JUMPDEST SWAP3 POP POP PUSH1 0x80 PUSH2 0x19B4 DUP9 DUP3 DUP10 ADD PUSH2 0x18EF JUMP JUMPDEST SWAP2 POP POP SWAP3 SWAP6 POP SWAP3 SWAP6 SWAP1 SWAP4 POP JUMP JUMPDEST PUSH0 PUSH2 0x19CB DUP3 PUSH2 0x1903 JUMP JUMPDEST SWAP2 POP PUSH2 0x19D6 DUP4 PUSH2 0x1903 JUMP JUMPDEST SWAP3 POP DUP3 DUP3 MUL PUSH2 0x19E4 DUP2 PUSH2 0x1903 JUMP JUMPDEST SWAP2 POP PUSH32 0x8000000000000000000000000000000000000000000000000000000000000000 DUP5 EQ PUSH0 DUP5 SLT AND ISZERO PUSH2 0x1A1B JUMPI PUSH2 0x1A1A PUSH2 0x1711 JUMP JUMPDEST JUMPDEST DUP3 DUP3 SDIV DUP5 EQ DUP4 ISZERO OR PUSH2 0x1A30 JUMPI PUSH2 0x1A2F PUSH2 0x1711 JUMP JUMPDEST JUMPDEST POP SWAP3 SWAP2 POP POP JUMP INVALID LOG2 PUSH5 0x6970667358 0x22 SLT KECCAK256 0xD5 LOG0 DUP6 0xDB GASPRICE EXTCODEHASH 0x2D PUSH25 0x8AE92A71D8658DD2674F6176A00D9C4AF5C913FD48B9635764 PUSH20 0x6F6C634300081600330000000000000000000000 "
				},
				"gasEstimates": {
					"creation": {
						"codeDepositCost": "1353000",
						"executionCost": "infinite",
						"totalCost": "infinite"
					},
					"external": {
						"createFundraiser(string,string,uint256)": "infinite",
						"fund(uint256)": "infinite",
						"fundraisers(uint256)": "infinite",
						"minimumUSD()": "2448",
						"owner()": "2508",
						"priceFeed()": "infinite",
						"withdrawFunds(uint256)": "infinite"
					}
				},
				"methodIdentifiers": {
					"createFundraiser(string,string,uint256)": "c50870b1",
					"fund(uint256)": "ca1d209d",
					"fundraisers(uint256)": "f38f72fb",
					"minimumUSD()": "3430a88c",
					"owner()": "8da5cb5b",
					"priceFeed()": "741bef1a",
					"withdrawFunds(uint256)": "155dd5ee"
				}
			},
			"storageLayout": {
				"storage": [
					{
						"astId": 127,
						"contract": "contracts/RealAdvancedFundMe.sol:FundMeAdvanced",
						"label": "fundraisers",
						"offset": 0,
						"slot": "0",
						"type": "t_array(t_struct(Fundraiser)123_storage)dyn_storage"
					},
					{
						"astId": 129,
						"contract": "contracts/RealAdvancedFundMe.sol:FundMeAdvanced",
						"label": "owner",
						"offset": 0,
						"slot": "1",
						"type": "t_address"
					},
					{
						"astId": 136,
						"contract": "contracts/RealAdvancedFundMe.sol:FundMeAdvanced",
						"label": "minimumUSD",
						"offset": 0,
						"slot": "2",
						"type": "t_uint256"
					},
					{
						"astId": 139,
						"contract": "contracts/RealAdvancedFundMe.sol:FundMeAdvanced",
						"label": "priceFeed",
						"offset": 0,
						"slot": "3",
						"type": "t_contract(AggregatorV3Interface)45"
					}
				],
				"types": {
					"t_address": {
						"encoding": "inplace",
						"label": "address",
						"numberOfBytes": "20"
					},
					"t_array(t_struct(Fundraiser)123_storage)dyn_storage": {
						"base": "t_struct(Fundraiser)123_storage",
						"encoding": "dynamic_array",
						"label": "struct FundMeAdvanced.Fundraiser[]",
						"numberOfBytes": "32"
					},
					"t_contract(AggregatorV3Interface)45": {
						"encoding": "inplace",
						"label": "contract AggregatorV3Interface",
						"numberOfBytes": "20"
					},
					"t_enum(FundraiserStatus)109": {
						"encoding": "inplace",
						"label": "enum FundMeAdvanced.FundraiserStatus",
						"numberOfBytes": "1"
					},
					"t_string_storage": {
						"encoding": "bytes",
						"label": "string",
						"numberOfBytes": "32"
					},
					"t_struct(Fundraiser)123_storage": {
						"encoding": "inplace",
						"label": "struct FundMeAdvanced.Fundraiser",
						"members": [
							{
								"astId": 111,
								"contract": "contracts/RealAdvancedFundMe.sol:FundMeAdvanced",
								"label": "creator",
								"offset": 0,
								"slot": "0",
								"type": "t_address"
							},
							{
								"astId": 113,
								"contract": "contracts/RealAdvancedFundMe.sol:FundMeAdvanced",
								"label": "name",
								"offset": 0,
								"slot": "1",
								"type": "t_string_storage"
							},
							{
								"astId": 115,
								"contract": "contracts/RealAdvancedFundMe.sol:FundMeAdvanced",
								"label": "description",
								"offset": 0,
								"slot": "2",
								"type": "t_string_storage"
							},
							{
								"astId": 117,
								"contract": "contracts/RealAdvancedFundMe.sol:FundMeAdvanced",
								"label": "goal",
								"offset": 0,
								"slot": "3",
								"type": "t_uint256"
							},
							{
								"astId": 119,
								"contract": "contracts/RealAdvancedFundMe.sol:FundMeAdvanced",
								"label": "amountRaised",
								"offset": 0,
								"slot": "4",
								"type": "t_uint256"
							},
							{
								"astId": 122,
								"contract": "contracts/RealAdvancedFundMe.sol:FundMeAdvanced",
								"label": "status",
								"offset": 0,
								"slot": "5",
								"type": "t_enum(FundraiserStatus)109"
							}
						],
						"numberOfBytes": "192"
					},
					"t_uint256": {
						"encoding": "inplace",
						"label": "uint256",
						"numberOfBytes": "32"
					}
				}
			},
			"userdoc": {
				"kind": "user",
				"methods": {},
				"version": 1
			}
		}
	}
}