{
	"contracts/AdvancedFundMe.sol": {
		"FundMeAdvanced": {
			"abi": [
				{
					"inputs": [
						{
							"internalType": "address",
							"name": "_priceFeedAddress",
							"type": "address"
						}
					],
					"stateMutability": "nonpayable",
					"type": "constructor"
				},
				{
					"anonymous": false,
					"inputs": [
						{
							"indexed": true,
							"internalType": "address",
							"name": "creator",
							"type": "address"
						},
						{
							"indexed": false,
							"internalType": "uint256",
							"name": "fundraiserIndex",
							"type": "uint256"
						}
					],
					"name": "FundraiserCreated",
					"type": "event"
				},
				{
					"anonymous": false,
					"inputs": [
						{
							"indexed": true,
							"internalType": "address",
							"name": "funder",
							"type": "address"
						},
						{
							"indexed": false,
							"internalType": "uint256",
							"name": "fundraiserIndex",
							"type": "uint256"
						},
						{
							"indexed": false,
							"internalType": "uint256",
							"name": "amount",
							"type": "uint256"
						}
					],
					"name": "FundraiserFunded",
					"type": "event"
				},
				{
					"inputs": [
						{
							"internalType": "string",
							"name": "name",
							"type": "string"
						},
						{
							"internalType": "string",
							"name": "description",
							"type": "string"
						},
						{
							"internalType": "uint256",
							"name": "goal",
							"type": "uint256"
						}
					],
					"name": "createFundraiser",
					"outputs": [],
					"stateMutability": "nonpayable",
					"type": "function"
				},
				{
					"inputs": [
						{
							"internalType": "uint256",
							"name": "fundraiserIndex",
							"type": "uint256"
						}
					],
					"name": "fund",
					"outputs": [],
					"stateMutability": "payable",
					"type": "function"
				},
				{
					"inputs": [
						{
							"internalType": "uint256",
							"name": "",
							"type": "uint256"
						}
					],
					"name": "fundraisers",
					"outputs": [
						{
							"internalType": "address",
							"name": "creator",
							"type": "address"
						},
						{
							"internalType": "string",
							"name": "name",
							"type": "string"
						},
						{
							"internalType": "string",
							"name": "description",
							"type": "string"
						},
						{
							"internalType": "uint256",
							"name": "goal",
							"type": "uint256"
						},
						{
							"internalType": "uint256",
							"name": "amountRaised",
							"type": "uint256"
						},
						{
							"internalType": "enum FundMeAdvanced.FundraiserStatus",
							"name": "status",
							"type": "uint8"
						}
					],
					"stateMutability": "view",
					"type": "function"
				},
				{
					"inputs": [
						{
							"internalType": "uint256",
							"name": "ethAmount",
							"type": "uint256"
						}
					],
					"name": "getETHToUSD",
					"outputs": [
						{
							"internalType": "uint256",
							"name": "",
							"type": "uint256"
						}
					],
					"stateMutability": "view",
					"type": "function"
				},
				{
					"inputs": [],
					"name": "minimumUSD",
					"outputs": [
						{
							"internalType": "uint256",
							"name": "",
							"type": "uint256"
						}
					],
					"stateMutability": "view",
					"type": "function"
				},
				{
					"inputs": [],
					"name": "owner",
					"outputs": [
						{
							"internalType": "address",
							"name": "",
							"type": "address"
						}
					],
					"stateMutability": "view",
					"type": "function"
				},
				{
					"inputs": [],
					"name": "priceFeed",
					"outputs": [
						{
							"internalType": "contract AggregatorV3Interface",
							"name": "",
							"type": "address"
						}
					],
					"stateMutability": "view",
					"type": "function"
				},
				{
					"inputs": [
						{
							"internalType": "uint256",
							"name": "fundraiserIndex",
							"type": "uint256"
						}
					],
					"name": "withdrawFunds",
					"outputs": [],
					"stateMutability": "nonpayable",
					"type": "function"
				}
			],
			"devdoc": {
				"kind": "dev",
				"methods": {},
				"version": 1
			},
			"evm": {
				"assembly": "    /* \"contracts/AdvancedFundMe.sol\":140:3673  contract FundMeAdvanced {... */\n  mstore(0x40, 0x80)\n    /* \"contracts/AdvancedFundMe.sol\":567:579  500 * 10**18 */\n  0x1b1ae4d6e2ef500000\n    /* \"contracts/AdvancedFundMe.sol\":542:579  uint public minimumUSD = 500 * 10**18 */\n  0x02\n  sstore\n    /* \"contracts/AdvancedFundMe.sol\":867:1040  constructor(address _priceFeedAddress) {... */\n  callvalue\n  dup1\n  iszero\n  tag_1\n  jumpi\n  0x00\n  dup1\n  revert\ntag_1:\n  pop\n  mload(0x40)\n  sub(codesize, bytecodeSize)\n  dup1\n  bytecodeSize\n  dup4\n  codecopy\n  dup2\n  dup2\n  add\n  0x40\n  mstore\n  dup2\n  add\n  swap1\n  tag_2\n  swap2\n  swap1\n  tag_3\n  jump\t// in\ntag_2:\n    /* \"contracts/AdvancedFundMe.sol\":925:935  msg.sender */\n  caller\n    /* \"contracts/AdvancedFundMe.sol\":917:922  owner */\n  0x01\n  0x00\n    /* \"contracts/AdvancedFundMe.sol\":917:935  owner = msg.sender */\n  0x0100\n  exp\n  dup2\n  sload\n  dup2\n  0xffffffffffffffffffffffffffffffffffffffff\n  mul\n  not\n  and\n  swap1\n  dup4\n  0xffffffffffffffffffffffffffffffffffffffff\n  and\n  mul\n  or\n  swap1\n  sstore\n  pop\n    /* \"contracts/AdvancedFundMe.sol\":980:997  _priceFeedAddress */\n  dup1\n    /* \"contracts/AdvancedFundMe.sol\":946:955  priceFeed */\n  0x03\n  0x00\n    /* \"contracts/AdvancedFundMe.sol\":946:998  priceFeed = AggregatorV3Interface(_priceFeedAddress) */\n  0x0100\n  exp\n  dup2\n  sload\n  dup2\n  0xffffffffffffffffffffffffffffffffffffffff\n  mul\n  not\n  and\n  swap1\n  dup4\n  0xffffffffffffffffffffffffffffffffffffffff\n  and\n  mul\n  or\n  swap1\n  sstore\n  pop\n    /* \"contracts/AdvancedFundMe.sol\":867:1040  constructor(address _priceFeedAddress) {... */\n  pop\n    /* \"contracts/AdvancedFundMe.sol\":140:3673  contract FundMeAdvanced {... */\n  jump(tag_6)\n    /* \"#utility.yul\":88:205   */\ntag_8:\n    /* \"#utility.yul\":197:198   */\n  0x00\n    /* \"#utility.yul\":194:195   */\n  dup1\n    /* \"#utility.yul\":187:199   */\n  revert\n    /* \"#utility.yul\":334:460   */\ntag_10:\n    /* \"#utility.yul\":371:378   */\n  0x00\n    /* \"#utility.yul\":411:453   */\n  0xffffffffffffffffffffffffffffffffffffffff\n    /* \"#utility.yul\":404:409   */\n  dup3\n    /* \"#utility.yul\":400:454   */\n  and\n    /* \"#utility.yul\":389:454   */\n  swap1\n  pop\n    /* \"#utility.yul\":334:460   */\n  swap2\n  swap1\n  pop\n  jump\t// out\n    /* \"#utility.yul\":466:562   */\ntag_11:\n    /* \"#utility.yul\":503:510   */\n  0x00\n    /* \"#utility.yul\":532:556   */\n  tag_20\n    /* \"#utility.yul\":550:555   */\n  dup3\n    /* \"#utility.yul\":532:556   */\n  tag_10\n  jump\t// in\ntag_20:\n    /* \"#utility.yul\":521:556   */\n  swap1\n  pop\n    /* \"#utility.yul\":466:562   */\n  swap2\n  swap1\n  pop\n  jump\t// out\n    /* \"#utility.yul\":568:690   */\ntag_12:\n    /* \"#utility.yul\":641:665   */\n  tag_22\n    /* \"#utility.yul\":659:664   */\n  dup2\n    /* \"#utility.yul\":641:665   */\n  tag_11\n  jump\t// in\ntag_22:\n    /* \"#utility.yul\":634:639   */\n  dup2\n    /* \"#utility.yul\":631:666   */\n  eq\n    /* \"#utility.yul\":621:684   */\n  tag_23\n  jumpi\n    /* \"#utility.yul\":680:681   */\n  0x00\n    /* \"#utility.yul\":677:678   */\n  dup1\n    /* \"#utility.yul\":670:682   */\n  revert\n    /* \"#utility.yul\":621:684   */\ntag_23:\n    /* \"#utility.yul\":568:690   */\n  pop\n  jump\t// out\n    /* \"#utility.yul\":696:839   */\ntag_13:\n    /* \"#utility.yul\":753:758   */\n  0x00\n    /* \"#utility.yul\":784:790   */\n  dup2\n    /* \"#utility.yul\":778:791   */\n  mload\n    /* \"#utility.yul\":769:791   */\n  swap1\n  pop\n    /* \"#utility.yul\":800:833   */\n  tag_25\n    /* \"#utility.yul\":827:832   */\n  dup2\n    /* \"#utility.yul\":800:833   */\n  tag_12\n  jump\t// in\ntag_25:\n    /* \"#utility.yul\":696:839   */\n  swap3\n  swap2\n  pop\n  pop\n  jump\t// out\n    /* \"#utility.yul\":845:1196   */\ntag_3:\n    /* \"#utility.yul\":915:921   */\n  0x00\n    /* \"#utility.yul\":964:966   */\n  0x20\n    /* \"#utility.yul\":952:961   */\n  dup3\n    /* \"#utility.yul\":943:950   */\n  dup5\n    /* \"#utility.yul\":939:962   */\n  sub\n    /* \"#utility.yul\":935:967   */\n  slt\n    /* \"#utility.yul\":932:1051   */\n  iszero\n  tag_27\n  jumpi\n    /* \"#utility.yul\":970:1049   */\n  tag_28\n  tag_8\n  jump\t// in\ntag_28:\n    /* \"#utility.yul\":932:1051   */\ntag_27:\n    /* \"#utility.yul\":1090:1091   */\n  0x00\n    /* \"#utility.yul\":1115:1179   */\n  tag_29\n    /* \"#utility.yul\":1171:1178   */\n  dup5\n    /* \"#utility.yul\":1162:1168   */\n  dup3\n    /* \"#utility.yul\":1151:1160   */\n  dup6\n    /* \"#utility.yul\":1147:1169   */\n  add\n    /* \"#utility.yul\":1115:1179   */\n  tag_13\n  jump\t// in\ntag_29:\n    /* \"#utility.yul\":1105:1179   */\n  swap2\n  pop\n    /* \"#utility.yul\":1061:1189   */\n  pop\n    /* \"#utility.yul\":845:1196   */\n  swap3\n  swap2\n  pop\n  pop\n  jump\t// out\n    /* \"contracts/AdvancedFundMe.sol\":140:3673  contract FundMeAdvanced {... */\ntag_6:\n  dataSize(sub_0)\n  dup1\n  dataOffset(sub_0)\n  0x00\n  codecopy\n  0x00\n  return\nstop\n\nsub_0: assembly {\n        /* \"contracts/AdvancedFundMe.sol\":140:3673  contract FundMeAdvanced {... */\n      mstore(0x40, 0x80)\n      jumpi(tag_1, lt(calldatasize, 0x04))\n      shr(0xe0, calldataload(0x00))\n      dup1\n      0x8da5cb5b\n      gt\n      tag_10\n      jumpi\n      dup1\n      0x8da5cb5b\n      eq\n      tag_6\n      jumpi\n      dup1\n      0xc50870b1\n      eq\n      tag_7\n      jumpi\n      dup1\n      0xca1d209d\n      eq\n      tag_8\n      jumpi\n      dup1\n      0xf38f72fb\n      eq\n      tag_9\n      jumpi\n      jump(tag_1)\n    tag_10:\n      dup1\n      0x155dd5ee\n      eq\n      tag_2\n      jumpi\n      dup1\n      0x3430a88c\n      eq\n      tag_3\n      jumpi\n      dup1\n      0x66da13c6\n      eq\n      tag_4\n      jumpi\n      dup1\n      0x741bef1a\n      eq\n      tag_5\n      jumpi\n    tag_1:\n      0x00\n      dup1\n      revert\n        /* \"contracts/AdvancedFundMe.sol\":3125:3670  function withdrawFunds(uint fundraiserIndex) public onlyOwner {... */\n    tag_2:\n      callvalue\n      dup1\n      iszero\n      tag_11\n      jumpi\n      0x00\n      dup1\n      revert\n    tag_11:\n      pop\n      tag_12\n      0x04\n      dup1\n      calldatasize\n      sub\n      dup2\n      add\n      swap1\n      tag_13\n      swap2\n      swap1\n      tag_14\n      jump\t// in\n    tag_13:\n      tag_15\n      jump\t// in\n    tag_12:\n      stop\n        /* \"contracts/AdvancedFundMe.sol\":542:579  uint public minimumUSD = 500 * 10**18 */\n    tag_3:\n      callvalue\n      dup1\n      iszero\n      tag_16\n      jumpi\n      0x00\n      dup1\n      revert\n    tag_16:\n      pop\n      tag_17\n      tag_18\n      jump\t// in\n    tag_17:\n      mload(0x40)\n      tag_19\n      swap2\n      swap1\n      tag_20\n      jump\t// in\n    tag_19:\n      mload(0x40)\n      dup1\n      swap2\n      sub\n      swap1\n      return\n        /* \"contracts/AdvancedFundMe.sol\":2899:3117  function getETHToUSD(uint ethAmount) public view returns (uint) {... */\n    tag_4:\n      callvalue\n      dup1\n      iszero\n      tag_21\n      jumpi\n      0x00\n      dup1\n      revert\n    tag_21:\n      pop\n      tag_22\n      0x04\n      dup1\n      calldatasize\n      sub\n      dup2\n      add\n      swap1\n      tag_23\n      swap2\n      swap1\n      tag_14\n      jump\t// in\n    tag_23:\n      tag_24\n      jump\t// in\n    tag_22:\n      mload(0x40)\n      tag_25\n      swap2\n      swap1\n      tag_20\n      jump\t// in\n    tag_25:\n      mload(0x40)\n      dup1\n      swap2\n      sub\n      swap1\n      return\n        /* \"contracts/AdvancedFundMe.sol\":619:657  AggregatorV3Interface public priceFeed */\n    tag_5:\n      callvalue\n      dup1\n      iszero\n      tag_26\n      jumpi\n      0x00\n      dup1\n      revert\n    tag_26:\n      pop\n      tag_27\n      tag_28\n      jump\t// in\n    tag_27:\n      mload(0x40)\n      tag_29\n      swap2\n      swap1\n      tag_30\n      jump\t// in\n    tag_29:\n      mload(0x40)\n      dup1\n      swap2\n      sub\n      swap1\n      return\n        /* \"contracts/AdvancedFundMe.sol\":515:535  address public owner */\n    tag_6:\n      callvalue\n      dup1\n      iszero\n      tag_31\n      jumpi\n      0x00\n      dup1\n      revert\n    tag_31:\n      pop\n      tag_32\n      tag_33\n      jump\t// in\n    tag_32:\n      mload(0x40)\n      tag_34\n      swap2\n      swap1\n      tag_35\n      jump\t// in\n    tag_34:\n      mload(0x40)\n      dup1\n      swap2\n      sub\n      swap1\n      return\n        /* \"contracts/AdvancedFundMe.sol\":1178:1925  function createFundraiser(... */\n    tag_7:\n      callvalue\n      dup1\n      iszero\n      tag_36\n      jumpi\n      0x00\n      dup1\n      revert\n    tag_36:\n      pop\n      tag_37\n      0x04\n      dup1\n      calldatasize\n      sub\n      dup2\n      add\n      swap1\n      tag_38\n      swap2\n      swap1\n      tag_39\n      jump\t// in\n    tag_38:\n      tag_40\n      jump\t// in\n    tag_37:\n      stop\n        /* \"contracts/AdvancedFundMe.sol\":1933:2891  function fund(uint fundraiserIndex) public payable {... */\n    tag_8:\n      tag_41\n      0x04\n      dup1\n      calldatasize\n      sub\n      dup2\n      add\n      swap1\n      tag_42\n      swap2\n      swap1\n      tag_14\n      jump\t// in\n    tag_42:\n      tag_43\n      jump\t// in\n    tag_41:\n      stop\n        /* \"contracts/AdvancedFundMe.sol\":477:508  Fundraiser[] public fundraisers */\n    tag_9:\n      callvalue\n      dup1\n      iszero\n      tag_44\n      jumpi\n      0x00\n      dup1\n      revert\n    tag_44:\n      pop\n      tag_45\n      0x04\n      dup1\n      calldatasize\n      sub\n      dup2\n      add\n      swap1\n      tag_46\n      swap2\n      swap1\n      tag_14\n      jump\t// in\n    tag_46:\n      tag_47\n      jump\t// in\n    tag_45:\n      mload(0x40)\n      tag_48\n      swap7\n      swap6\n      swap5\n      swap4\n      swap3\n      swap2\n      swap1\n      tag_49\n      jump\t// in\n    tag_48:\n      mload(0x40)\n      dup1\n      swap2\n      sub\n      swap1\n      return\n        /* \"contracts/AdvancedFundMe.sol\":3125:3670  function withdrawFunds(uint fundraiserIndex) public onlyOwner {... */\n    tag_15:\n        /* \"contracts/AdvancedFundMe.sol\":1102:1107  owner */\n      0x01\n      0x00\n      swap1\n      sload\n      swap1\n      0x0100\n      exp\n      swap1\n      div\n      0xffffffffffffffffffffffffffffffffffffffff\n      and\n        /* \"contracts/AdvancedFundMe.sol\":1088:1107  msg.sender == owner */\n      0xffffffffffffffffffffffffffffffffffffffff\n      and\n        /* \"contracts/AdvancedFundMe.sol\":1088:1098  msg.sender */\n      caller\n        /* \"contracts/AdvancedFundMe.sol\":1088:1107  msg.sender == owner */\n      0xffffffffffffffffffffffffffffffffffffffff\n      and\n      eq\n        /* \"contracts/AdvancedFundMe.sol\":1080:1150  require(msg.sender == owner, \"Only the owner can call this function.\") */\n      tag_51\n      jumpi\n      mload(0x40)\n      0x08c379a000000000000000000000000000000000000000000000000000000000\n      dup2\n      mstore\n      0x04\n      add\n      tag_52\n      swap1\n      tag_53\n      jump\t// in\n    tag_52:\n      mload(0x40)\n      dup1\n      swap2\n      sub\n      swap1\n      revert\n    tag_51:\n        /* \"contracts/AdvancedFundMe.sol\":3224:3235  fundraisers */\n      0x00\n        /* \"contracts/AdvancedFundMe.sol\":3224:3242  fundraisers.length */\n      dup1\n      sload\n      swap1\n      pop\n        /* \"contracts/AdvancedFundMe.sol\":3206:3221  fundraiserIndex */\n      dup2\n        /* \"contracts/AdvancedFundMe.sol\":3206:3242  fundraiserIndex < fundraisers.length */\n      lt\n        /* \"contracts/AdvancedFundMe.sol\":3198:3272  require(fundraiserIndex < fundraisers.length, \"Fundraiser does not exist\") */\n      tag_55\n      jumpi\n      mload(0x40)\n      0x08c379a000000000000000000000000000000000000000000000000000000000\n      dup2\n      mstore\n      0x04\n      add\n      tag_56\n      swap1\n      tag_57\n      jump\t// in\n    tag_56:\n      mload(0x40)\n      dup1\n      swap2\n      sub\n      swap1\n      revert\n    tag_55:\n        /* \"contracts/AdvancedFundMe.sol\":3283:3312  Fundraiser storage fundraiser */\n      0x00\n        /* \"contracts/AdvancedFundMe.sol\":3315:3326  fundraisers */\n      dup1\n        /* \"contracts/AdvancedFundMe.sol\":3327:3342  fundraiserIndex */\n      dup3\n        /* \"contracts/AdvancedFundMe.sol\":3315:3343  fundraisers[fundraiserIndex] */\n      dup2\n      sload\n      dup2\n      lt\n      tag_58\n      jumpi\n      tag_59\n      tag_60\n      jump\t// in\n    tag_59:\n    tag_58:\n      swap1\n      0x00\n      mstore\n      keccak256(0x00, 0x20)\n      swap1\n      0x06\n      mul\n      add\n        /* \"contracts/AdvancedFundMe.sol\":3283:3343  Fundraiser storage fundraiser = fundraisers[fundraiserIndex] */\n      swap1\n      pop\n        /* \"contracts/AdvancedFundMe.sol\":3385:3411  FundraiserStatus.Completed */\n      0x01\n        /* \"contracts/AdvancedFundMe.sol\":3364:3411  fundraiser.status == FundraiserStatus.Completed */\n      dup1\n      dup2\n      gt\n      iszero\n      tag_62\n      jumpi\n      tag_63\n      tag_64\n      jump\t// in\n    tag_63:\n    tag_62:\n        /* \"contracts/AdvancedFundMe.sol\":3364:3374  fundraiser */\n      dup2\n        /* \"contracts/AdvancedFundMe.sol\":3364:3381  fundraiser.status */\n      0x05\n      add\n      0x00\n      swap1\n      sload\n      swap1\n      0x0100\n      exp\n      swap1\n      div\n      0xff\n      and\n        /* \"contracts/AdvancedFundMe.sol\":3364:3411  fundraiser.status == FundraiserStatus.Completed */\n      0x01\n      dup2\n      gt\n      iszero\n      tag_65\n      jumpi\n      tag_66\n      tag_64\n      jump\t// in\n    tag_66:\n    tag_65:\n      eq\n        /* \"contracts/AdvancedFundMe.sol\":3356:3443  require(fundraiser.status == FundraiserStatus.Completed, \"Fundraiser is not completed\") */\n      tag_67\n      jumpi\n      mload(0x40)\n      0x08c379a000000000000000000000000000000000000000000000000000000000\n      dup2\n      mstore\n      0x04\n      add\n      tag_68\n      swap1\n      tag_69\n      jump\t// in\n    tag_68:\n      mload(0x40)\n      dup1\n      swap2\n      sub\n      swap1\n      revert\n    tag_67:\n        /* \"contracts/AdvancedFundMe.sol\":3456:3478  uint balanceToWithdraw */\n      0x00\n        /* \"contracts/AdvancedFundMe.sol\":3481:3491  fundraiser */\n      dup2\n        /* \"contracts/AdvancedFundMe.sol\":3481:3504  fundraiser.amountRaised */\n      0x04\n      add\n      sload\n        /* \"contracts/AdvancedFundMe.sol\":3456:3504  uint balanceToWithdraw = fundraiser.amountRaised */\n      swap1\n      pop\n        /* \"contracts/AdvancedFundMe.sol\":3541:3542  0 */\n      0x00\n        /* \"contracts/AdvancedFundMe.sol\":3515:3525  fundraiser */\n      dup3\n        /* \"contracts/AdvancedFundMe.sol\":3515:3538  fundraiser.amountRaised */\n      0x04\n      add\n        /* \"contracts/AdvancedFundMe.sol\":3515:3542  fundraiser.amountRaised = 0 */\n      dup2\n      swap1\n      sstore\n      pop\n        /* \"contracts/AdvancedFundMe.sol\":3556:3568  bool success */\n      0x00\n        /* \"contracts/AdvancedFundMe.sol\":3574:3579  owner */\n      0x01\n      0x00\n      swap1\n      sload\n      swap1\n      0x0100\n      exp\n      swap1\n      div\n      0xffffffffffffffffffffffffffffffffffffffff\n      and\n        /* \"contracts/AdvancedFundMe.sol\":3574:3584  owner.call */\n      0xffffffffffffffffffffffffffffffffffffffff\n      and\n        /* \"contracts/AdvancedFundMe.sol\":3592:3609  balanceToWithdraw */\n      dup3\n        /* \"contracts/AdvancedFundMe.sol\":3574:3614  owner.call{value: balanceToWithdraw}(\"\") */\n      mload(0x40)\n      tag_70\n      swap1\n      tag_71\n      jump\t// in\n    tag_70:\n      0x00\n      mload(0x40)\n      dup1\n      dup4\n      sub\n      dup2\n      dup6\n      dup8\n      gas\n      call\n      swap3\n      pop\n      pop\n      pop\n      returndatasize\n      dup1\n      0x00\n      dup2\n      eq\n      tag_74\n      jumpi\n      mload(0x40)\n      swap2\n      pop\n      and(add(returndatasize, 0x3f), not(0x1f))\n      dup3\n      add\n      0x40\n      mstore\n      returndatasize\n      dup3\n      mstore\n      returndatasize\n      0x00\n      0x20\n      dup5\n      add\n      returndatacopy\n      jump(tag_73)\n    tag_74:\n      0x60\n      swap2\n      pop\n    tag_73:\n      pop\n        /* \"contracts/AdvancedFundMe.sol\":3555:3614  (bool success, ) = owner.call{value: balanceToWithdraw}(\"\") */\n      pop\n      swap1\n      pop\n        /* \"contracts/AdvancedFundMe.sol\":3633:3640  success */\n      dup1\n        /* \"contracts/AdvancedFundMe.sol\":3625:3662  require(success, \"Withdrawal failed\") */\n      tag_75\n      jumpi\n      mload(0x40)\n      0x08c379a000000000000000000000000000000000000000000000000000000000\n      dup2\n      mstore\n      0x04\n      add\n      tag_76\n      swap1\n      tag_77\n      jump\t// in\n    tag_76:\n      mload(0x40)\n      dup1\n      swap2\n      sub\n      swap1\n      revert\n    tag_75:\n        /* \"contracts/AdvancedFundMe.sol\":3187:3670  {... */\n      pop\n      pop\n      pop\n        /* \"contracts/AdvancedFundMe.sol\":3125:3670  function withdrawFunds(uint fundraiserIndex) public onlyOwner {... */\n      pop\n      jump\t// out\n        /* \"contracts/AdvancedFundMe.sol\":542:579  uint public minimumUSD = 500 * 10**18 */\n    tag_18:\n      sload(0x02)\n      dup2\n      jump\t// out\n        /* \"contracts/AdvancedFundMe.sol\":2899:3117  function getETHToUSD(uint ethAmount) public view returns (uint) {... */\n    tag_24:\n        /* \"contracts/AdvancedFundMe.sol\":2957:2961  uint */\n      0x00\n        /* \"contracts/AdvancedFundMe.sol\":2977:2986  int price */\n      dup1\n        /* \"contracts/AdvancedFundMe.sol\":2996:3005  priceFeed */\n      0x03\n      0x00\n      swap1\n      sload\n      swap1\n      0x0100\n      exp\n      swap1\n      div\n      0xffffffffffffffffffffffffffffffffffffffff\n      and\n        /* \"contracts/AdvancedFundMe.sol\":2996:3021  priceFeed.latestRoundData */\n      0xffffffffffffffffffffffffffffffffffffffff\n      and\n      0xfeaf968c\n        /* \"contracts/AdvancedFundMe.sol\":2996:3023  priceFeed.latestRoundData() */\n      mload(0x40)\n      dup2\n      0xffffffff\n      and\n      0xe0\n      shl\n      dup2\n      mstore\n      0x04\n      add\n      0xa0\n      mload(0x40)\n      dup1\n      dup4\n      sub\n      dup2\n      dup7\n      gas\n      staticcall\n      iszero\n      dup1\n      iszero\n      tag_80\n      jumpi\n      returndatasize\n      0x00\n      dup1\n      returndatacopy\n      revert(0x00, returndatasize)\n    tag_80:\n      pop\n      pop\n      pop\n      pop\n      mload(0x40)\n      returndatasize\n      not(0x1f)\n      0x1f\n      dup3\n      add\n      and\n      dup3\n      add\n      dup1\n      0x40\n      mstore\n      pop\n      dup2\n      add\n      swap1\n      tag_81\n      swap2\n      swap1\n      tag_82\n      jump\t// in\n    tag_81:\n        /* \"contracts/AdvancedFundMe.sol\":2974:3023  (, int price, , , ) = priceFeed.latestRoundData() */\n      pop\n      pop\n      pop\n      swap2\n      pop\n      pop\n        /* \"contracts/AdvancedFundMe.sol\":3034:3052  uint ethPriceInUSD */\n      0x00\n        /* \"contracts/AdvancedFundMe.sol\":3060:3065  price */\n      dup2\n        /* \"contracts/AdvancedFundMe.sol\":3034:3066  uint ethPriceInUSD = uint(price) */\n      swap1\n      pop\n        /* \"contracts/AdvancedFundMe.sol\":3096:3109  ethPriceInUSD */\n      dup1\n        /* \"contracts/AdvancedFundMe.sol\":3084:3093  ethAmount */\n      dup5\n        /* \"contracts/AdvancedFundMe.sol\":3084:3109  ethAmount * ethPriceInUSD */\n      tag_83\n      swap2\n      swap1\n      tag_84\n      jump\t// in\n    tag_83:\n        /* \"contracts/AdvancedFundMe.sol\":3077:3109  return ethAmount * ethPriceInUSD */\n      swap3\n      pop\n      pop\n      pop\n        /* \"contracts/AdvancedFundMe.sol\":2899:3117  function getETHToUSD(uint ethAmount) public view returns (uint) {... */\n      swap2\n      swap1\n      pop\n      jump\t// out\n        /* \"contracts/AdvancedFundMe.sol\":619:657  AggregatorV3Interface public priceFeed */\n    tag_28:\n      0x03\n      0x00\n      swap1\n      sload\n      swap1\n      0x0100\n      exp\n      swap1\n      div\n      0xffffffffffffffffffffffffffffffffffffffff\n      and\n      dup2\n      jump\t// out\n        /* \"contracts/AdvancedFundMe.sol\":515:535  address public owner */\n    tag_33:\n      0x01\n      0x00\n      swap1\n      sload\n      swap1\n      0x0100\n      exp\n      swap1\n      div\n      0xffffffffffffffffffffffffffffffffffffffff\n      and\n      dup2\n      jump\t// out\n        /* \"contracts/AdvancedFundMe.sol\":1178:1925  function createFundraiser(... */\n    tag_40:\n        /* \"contracts/AdvancedFundMe.sol\":1343:1344  0 */\n      0x00\n        /* \"contracts/AdvancedFundMe.sol\":1328:1332  name */\n      dup4\n        /* \"contracts/AdvancedFundMe.sol\":1322:1340  bytes(name).length */\n      mload\n        /* \"contracts/AdvancedFundMe.sol\":1322:1344  bytes(name).length > 0 */\n      gt\n        /* \"contracts/AdvancedFundMe.sol\":1314:1380  require(bytes(name).length > 0, \"Fundraiser name cannot be empty\") */\n      tag_86\n      jumpi\n      mload(0x40)\n      0x08c379a000000000000000000000000000000000000000000000000000000000\n      dup2\n      mstore\n      0x04\n      add\n      tag_87\n      swap1\n      tag_88\n      jump\t// in\n    tag_87:\n      mload(0x40)\n      dup1\n      swap2\n      sub\n      swap1\n      revert\n    tag_86:\n        /* \"contracts/AdvancedFundMe.sol\":1427:1428  0 */\n      0x00\n        /* \"contracts/AdvancedFundMe.sol\":1405:1416  description */\n      dup3\n        /* \"contracts/AdvancedFundMe.sol\":1399:1424  bytes(description).length */\n      mload\n        /* \"contracts/AdvancedFundMe.sol\":1399:1428  bytes(description).length > 0 */\n      gt\n        /* \"contracts/AdvancedFundMe.sol\":1391:1471  require(bytes(description).length > 0, \"Fundraiser description cannot be empty\") */\n      tag_89\n      jumpi\n      mload(0x40)\n      0x08c379a000000000000000000000000000000000000000000000000000000000\n      dup2\n      mstore\n      0x04\n      add\n      tag_90\n      swap1\n      tag_91\n      jump\t// in\n    tag_90:\n      mload(0x40)\n      dup1\n      swap2\n      sub\n      swap1\n      revert\n    tag_89:\n        /* \"contracts/AdvancedFundMe.sol\":1497:1498  0 */\n      0x00\n        /* \"contracts/AdvancedFundMe.sol\":1490:1494  goal */\n      dup2\n        /* \"contracts/AdvancedFundMe.sol\":1490:1498  goal > 0 */\n      gt\n        /* \"contracts/AdvancedFundMe.sol\":1482:1548  require(goal > 0, \"Fundraiser goal amount must be greater than 0\") */\n      tag_92\n      jumpi\n      mload(0x40)\n      0x08c379a000000000000000000000000000000000000000000000000000000000\n      dup2\n      mstore\n      0x04\n      add\n      tag_93\n      swap1\n      tag_94\n      jump\t// in\n    tag_93:\n      mload(0x40)\n      dup1\n      swap2\n      sub\n      swap1\n      revert\n    tag_92:\n        /* \"contracts/AdvancedFundMe.sol\":1561:1581  uint fundraiserIndex */\n      0x00\n        /* \"contracts/AdvancedFundMe.sol\":1584:1595  fundraisers */\n      dup1\n        /* \"contracts/AdvancedFundMe.sol\":1584:1602  fundraisers.length */\n      dup1\n      sload\n      swap1\n      pop\n        /* \"contracts/AdvancedFundMe.sol\":1561:1602  uint fundraiserIndex = fundraisers.length */\n      swap1\n      pop\n        /* \"contracts/AdvancedFundMe.sol\":1613:1624  fundraisers */\n      0x00\n        /* \"contracts/AdvancedFundMe.sol\":1630:1852  Fundraiser({... */\n      mload(0x40)\n      dup1\n      0xc0\n      add\n      0x40\n      mstore\n      dup1\n        /* \"contracts/AdvancedFundMe.sol\":1665:1675  msg.sender */\n      caller\n        /* \"contracts/AdvancedFundMe.sol\":1630:1852  Fundraiser({... */\n      0xffffffffffffffffffffffffffffffffffffffff\n      and\n      dup2\n      mstore\n      0x20\n      add\n        /* \"contracts/AdvancedFundMe.sol\":1696:1700  name */\n      dup7\n        /* \"contracts/AdvancedFundMe.sol\":1630:1852  Fundraiser({... */\n      dup2\n      mstore\n      0x20\n      add\n        /* \"contracts/AdvancedFundMe.sol\":1728:1739  description */\n      dup6\n        /* \"contracts/AdvancedFundMe.sol\":1630:1852  Fundraiser({... */\n      dup2\n      mstore\n      0x20\n      add\n        /* \"contracts/AdvancedFundMe.sol\":1760:1764  goal */\n      dup5\n        /* \"contracts/AdvancedFundMe.sol\":1630:1852  Fundraiser({... */\n      dup2\n      mstore\n      0x20\n      add\n        /* \"contracts/AdvancedFundMe.sol\":1793:1794  0 */\n      0x00\n        /* \"contracts/AdvancedFundMe.sol\":1630:1852  Fundraiser({... */\n      dup2\n      mstore\n      0x20\n      add\n        /* \"contracts/AdvancedFundMe.sol\":1817:1840  FundraiserStatus.Active */\n      0x00\n        /* \"contracts/AdvancedFundMe.sol\":1630:1852  Fundraiser({... */\n      0x01\n      dup2\n      gt\n      iszero\n      tag_95\n      jumpi\n      tag_96\n      tag_64\n      jump\t// in\n    tag_96:\n    tag_95:\n      dup2\n      mstore\n      pop\n        /* \"contracts/AdvancedFundMe.sol\":1613:1853  fundraisers.push(Fundraiser({... */\n      swap1\n      dup1\n      0x01\n      dup2\n      sload\n      add\n      dup1\n      dup3\n      sstore\n      dup1\n      swap2\n      pop\n      pop\n      0x01\n      swap1\n      sub\n      swap1\n      0x00\n      mstore\n      keccak256(0x00, 0x20)\n      swap1\n      0x06\n      mul\n      add\n      0x00\n      swap1\n      swap2\n      swap1\n      swap2\n      swap1\n      swap2\n      pop\n      0x00\n      dup3\n      add\n      mload\n      dup2\n      0x00\n      add\n      exp(0x0100, 0x00)\n      dup2\n      sload\n      dup2\n      0xffffffffffffffffffffffffffffffffffffffff\n      mul\n      not\n      and\n      swap1\n      dup4\n      0xffffffffffffffffffffffffffffffffffffffff\n      and\n      mul\n      or\n      swap1\n      sstore\n      pop\n      0x20\n      dup3\n      add\n      mload\n      dup2\n      0x01\n      add\n      swap1\n      dup2\n      tag_98\n      swap2\n      swap1\n      tag_99\n      jump\t// in\n    tag_98:\n      pop\n      0x40\n      dup3\n      add\n      mload\n      dup2\n      0x02\n      add\n      swap1\n      dup2\n      tag_100\n      swap2\n      swap1\n      tag_99\n      jump\t// in\n    tag_100:\n      pop\n      0x60\n      dup3\n      add\n      mload\n      dup2\n      0x03\n      add\n      sstore\n      0x80\n      dup3\n      add\n      mload\n      dup2\n      0x04\n      add\n      sstore\n      0xa0\n      dup3\n      add\n      mload\n      dup2\n      0x05\n      add\n      exp(0x0100, 0x00)\n      dup2\n      sload\n      dup2\n      0xff\n      mul\n      not\n      and\n      swap1\n      dup4\n      0x01\n      dup2\n      gt\n      iszero\n      tag_101\n      jumpi\n      tag_102\n      tag_64\n      jump\t// in\n    tag_102:\n    tag_101:\n      mul\n      or\n      swap1\n      sstore\n      pop\n      pop\n      pop\n        /* \"contracts/AdvancedFundMe.sol\":1889:1899  msg.sender */\n      caller\n        /* \"contracts/AdvancedFundMe.sol\":1871:1917  FundraiserCreated(msg.sender, fundraiserIndex) */\n      0xffffffffffffffffffffffffffffffffffffffff\n      and\n      0x04fb5dc09970f675e2e724d4f46a295bbee1e840664a9079b476bbd65d99c0fa\n        /* \"contracts/AdvancedFundMe.sol\":1901:1916  fundraiserIndex */\n      dup3\n        /* \"contracts/AdvancedFundMe.sol\":1871:1917  FundraiserCreated(msg.sender, fundraiserIndex) */\n      mload(0x40)\n      tag_103\n      swap2\n      swap1\n      tag_20\n      jump\t// in\n    tag_103:\n      mload(0x40)\n      dup1\n      swap2\n      sub\n      swap1\n      log2\n        /* \"contracts/AdvancedFundMe.sol\":1303:1925  {... */\n      pop\n        /* \"contracts/AdvancedFundMe.sol\":1178:1925  function createFundraiser(... */\n      pop\n      pop\n      pop\n      jump\t// out\n        /* \"contracts/AdvancedFundMe.sol\":1933:2891  function fund(uint fundraiserIndex) public payable {... */\n    tag_43:\n        /* \"contracts/AdvancedFundMe.sol\":2021:2032  fundraisers */\n      0x00\n        /* \"contracts/AdvancedFundMe.sol\":2021:2039  fundraisers.length */\n      dup1\n      sload\n      swap1\n      pop\n        /* \"contracts/AdvancedFundMe.sol\":2003:2018  fundraiserIndex */\n      dup2\n        /* \"contracts/AdvancedFundMe.sol\":2003:2039  fundraiserIndex < fundraisers.length */\n      lt\n        /* \"contracts/AdvancedFundMe.sol\":1995:2069  require(fundraiserIndex < fundraisers.length, \"Fundraiser does not exist\") */\n      tag_105\n      jumpi\n      mload(0x40)\n      0x08c379a000000000000000000000000000000000000000000000000000000000\n      dup2\n      mstore\n      0x04\n      add\n      tag_106\n      swap1\n      tag_57\n      jump\t// in\n    tag_106:\n      mload(0x40)\n      dup1\n      swap2\n      sub\n      swap1\n      revert\n    tag_105:\n        /* \"contracts/AdvancedFundMe.sol\":2080:2109  Fundraiser storage fundraiser */\n      0x00\n        /* \"contracts/AdvancedFundMe.sol\":2112:2123  fundraisers */\n      dup1\n        /* \"contracts/AdvancedFundMe.sol\":2124:2139  fundraiserIndex */\n      dup3\n        /* \"contracts/AdvancedFundMe.sol\":2112:2140  fundraisers[fundraiserIndex] */\n      dup2\n      sload\n      dup2\n      lt\n      tag_107\n      jumpi\n      tag_108\n      tag_60\n      jump\t// in\n    tag_108:\n    tag_107:\n      swap1\n      0x00\n      mstore\n      keccak256(0x00, 0x20)\n      swap1\n      0x06\n      mul\n      add\n        /* \"contracts/AdvancedFundMe.sol\":2080:2140  Fundraiser storage fundraiser = fundraisers[fundraiserIndex] */\n      swap1\n      pop\n        /* \"contracts/AdvancedFundMe.sol\":2182:2205  FundraiserStatus.Active */\n      0x00\n        /* \"contracts/AdvancedFundMe.sol\":2161:2205  fundraiser.status == FundraiserStatus.Active */\n      0x01\n      dup2\n      gt\n      iszero\n      tag_110\n      jumpi\n      tag_111\n      tag_64\n      jump\t// in\n    tag_111:\n    tag_110:\n        /* \"contracts/AdvancedFundMe.sol\":2161:2171  fundraiser */\n      dup2\n        /* \"contracts/AdvancedFundMe.sol\":2161:2178  fundraiser.status */\n      0x05\n      add\n      0x00\n      swap1\n      sload\n      swap1\n      0x0100\n      exp\n      swap1\n      div\n      0xff\n      and\n        /* \"contracts/AdvancedFundMe.sol\":2161:2205  fundraiser.status == FundraiserStatus.Active */\n      0x01\n      dup2\n      gt\n      iszero\n      tag_112\n      jumpi\n      tag_113\n      tag_64\n      jump\t// in\n    tag_113:\n    tag_112:\n      eq\n        /* \"contracts/AdvancedFundMe.sol\":2153:2234  require(fundraiser.status == FundraiserStatus.Active, \"Fundraiser is not active\") */\n      tag_114\n      jumpi\n      mload(0x40)\n      0x08c379a000000000000000000000000000000000000000000000000000000000\n      dup2\n      mstore\n      0x04\n      add\n      tag_115\n      swap1\n      tag_116\n      jump\t// in\n    tag_115:\n      mload(0x40)\n      dup1\n      swap2\n      sub\n      swap1\n      revert\n    tag_114:\n        /* \"contracts/AdvancedFundMe.sol\":2265:2266  0 */\n      0x00\n        /* \"contracts/AdvancedFundMe.sol\":2253:2262  msg.value */\n      callvalue\n        /* \"contracts/AdvancedFundMe.sol\":2253:2266  msg.value > 0 */\n      gt\n        /* \"contracts/AdvancedFundMe.sol\":2245:2305  require(msg.value > 0, \"Sent amount must be greater than 0\") */\n      tag_117\n      jumpi\n      mload(0x40)\n      0x08c379a000000000000000000000000000000000000000000000000000000000\n      dup2\n      mstore\n      0x04\n      add\n      tag_118\n      swap1\n      tag_119\n      jump\t// in\n    tag_118:\n      mload(0x40)\n      dup1\n      swap2\n      sub\n      swap1\n      revert\n    tag_117:\n        /* \"contracts/AdvancedFundMe.sol\":2397:2410  uint ethToUSD */\n      0x00\n        /* \"contracts/AdvancedFundMe.sol\":2413:2435  getETHToUSD(msg.value) */\n      tag_120\n        /* \"contracts/AdvancedFundMe.sol\":2425:2434  msg.value */\n      callvalue\n        /* \"contracts/AdvancedFundMe.sol\":2413:2424  getETHToUSD */\n      tag_24\n        /* \"contracts/AdvancedFundMe.sol\":2413:2435  getETHToUSD(msg.value) */\n      jump\t// in\n    tag_120:\n        /* \"contracts/AdvancedFundMe.sol\":2397:2435  uint ethToUSD = getETHToUSD(msg.value) */\n      swap1\n      pop\n        /* \"contracts/AdvancedFundMe.sol\":2446:2467  uint currentRaisedUSD */\n      0x00\n        /* \"contracts/AdvancedFundMe.sol\":2470:2506  getETHToUSD(fundraiser.amountRaised) */\n      tag_121\n        /* \"contracts/AdvancedFundMe.sol\":2482:2492  fundraiser */\n      dup4\n        /* \"contracts/AdvancedFundMe.sol\":2482:2505  fundraiser.amountRaised */\n      0x04\n      add\n      sload\n        /* \"contracts/AdvancedFundMe.sol\":2470:2481  getETHToUSD */\n      tag_24\n        /* \"contracts/AdvancedFundMe.sol\":2470:2506  getETHToUSD(fundraiser.amountRaised) */\n      jump\t// in\n    tag_121:\n        /* \"contracts/AdvancedFundMe.sol\":2446:2506  uint currentRaisedUSD = getETHToUSD(fundraiser.amountRaised) */\n      swap1\n      pop\n        /* \"contracts/AdvancedFundMe.sol\":2558:2568  minimumUSD */\n      sload(0x02)\n        /* \"contracts/AdvancedFundMe.sol\":2538:2554  currentRaisedUSD */\n      dup2\n        /* \"contracts/AdvancedFundMe.sol\":2527:2535  ethToUSD */\n      dup4\n        /* \"contracts/AdvancedFundMe.sol\":2527:2554  ethToUSD + currentRaisedUSD */\n      tag_122\n      swap2\n      swap1\n      tag_123\n      jump\t// in\n    tag_122:\n        /* \"contracts/AdvancedFundMe.sol\":2527:2568  ethToUSD + currentRaisedUSD >= minimumUSD */\n      lt\n      iszero\n        /* \"contracts/AdvancedFundMe.sol\":2519:2629  require(ethToUSD + currentRaisedUSD >= minimumUSD, \"Fundraiser does not meet the minimum funding requirement\") */\n      tag_124\n      jumpi\n      mload(0x40)\n      0x08c379a000000000000000000000000000000000000000000000000000000000\n      dup2\n      mstore\n      0x04\n      add\n      tag_125\n      swap1\n      tag_126\n      jump\t// in\n    tag_125:\n      mload(0x40)\n      dup1\n      swap2\n      sub\n      swap1\n      revert\n    tag_124:\n        /* \"contracts/AdvancedFundMe.sol\":2669:2678  msg.value */\n      callvalue\n        /* \"contracts/AdvancedFundMe.sol\":2642:2652  fundraiser */\n      dup4\n        /* \"contracts/AdvancedFundMe.sol\":2642:2665  fundraiser.amountRaised */\n      0x04\n      add\n      0x00\n        /* \"contracts/AdvancedFundMe.sol\":2642:2678  fundraiser.amountRaised += msg.value */\n      dup3\n      dup3\n      sload\n      tag_127\n      swap2\n      swap1\n      tag_123\n      jump\t// in\n    tag_127:\n      swap3\n      pop\n      pop\n      dup2\n      swap1\n      sstore\n      pop\n        /* \"contracts/AdvancedFundMe.sol\":2711:2721  msg.sender */\n      caller\n        /* \"contracts/AdvancedFundMe.sol\":2694:2750  FundraiserFunded(msg.sender, fundraiserIndex, msg.value) */\n      0xffffffffffffffffffffffffffffffffffffffff\n      and\n      0x1b3bc3684e732e6309ed2cfc5bafc8464574a7d92a3fa931a3b83606f087b3e2\n        /* \"contracts/AdvancedFundMe.sol\":2723:2738  fundraiserIndex */\n      dup6\n        /* \"contracts/AdvancedFundMe.sol\":2740:2749  msg.value */\n      callvalue\n        /* \"contracts/AdvancedFundMe.sol\":2694:2750  FundraiserFunded(msg.sender, fundraiserIndex, msg.value) */\n      mload(0x40)\n      tag_128\n      swap3\n      swap2\n      swap1\n      tag_129\n      jump\t// in\n    tag_128:\n      mload(0x40)\n      dup1\n      swap2\n      sub\n      swap1\n      log2\n        /* \"contracts/AdvancedFundMe.sol\":2794:2804  fundraiser */\n      dup3\n        /* \"contracts/AdvancedFundMe.sol\":2794:2809  fundraiser.goal */\n      0x03\n      add\n      sload\n        /* \"contracts/AdvancedFundMe.sol\":2767:2777  fundraiser */\n      dup4\n        /* \"contracts/AdvancedFundMe.sol\":2767:2790  fundraiser.amountRaised */\n      0x04\n      add\n      sload\n        /* \"contracts/AdvancedFundMe.sol\":2767:2809  fundraiser.amountRaised >= fundraiser.goal */\n      lt\n        /* \"contracts/AdvancedFundMe.sol\":2763:2884  if (fundraiser.amountRaised >= fundraiser.goal) {... */\n      tag_130\n      jumpi\n        /* \"contracts/AdvancedFundMe.sol\":2846:2872  FundraiserStatus.Completed */\n      0x01\n        /* \"contracts/AdvancedFundMe.sol\":2826:2836  fundraiser */\n      dup4\n        /* \"contracts/AdvancedFundMe.sol\":2826:2843  fundraiser.status */\n      0x05\n      add\n      0x00\n        /* \"contracts/AdvancedFundMe.sol\":2826:2872  fundraiser.status = FundraiserStatus.Completed */\n      0x0100\n      exp\n      dup2\n      sload\n      dup2\n      0xff\n      mul\n      not\n      and\n      swap1\n      dup4\n      0x01\n      dup2\n      gt\n      iszero\n      tag_131\n      jumpi\n      tag_132\n      tag_64\n      jump\t// in\n    tag_132:\n    tag_131:\n      mul\n      or\n      swap1\n      sstore\n      pop\n        /* \"contracts/AdvancedFundMe.sol\":2763:2884  if (fundraiser.amountRaised >= fundraiser.goal) {... */\n    tag_130:\n        /* \"contracts/AdvancedFundMe.sol\":1984:2891  {... */\n      pop\n      pop\n      pop\n        /* \"contracts/AdvancedFundMe.sol\":1933:2891  function fund(uint fundraiserIndex) public payable {... */\n      pop\n      jump\t// out\n        /* \"contracts/AdvancedFundMe.sol\":477:508  Fundraiser[] public fundraisers */\n    tag_47:\n      0x00\n      dup2\n      dup2\n      sload\n      dup2\n      lt\n      tag_133\n      jumpi\n      0x00\n      dup1\n      revert\n    tag_133:\n      swap1\n      0x00\n      mstore\n      keccak256(0x00, 0x20)\n      swap1\n      0x06\n      mul\n      add\n      0x00\n      swap2\n      pop\n      swap1\n      pop\n      dup1\n      0x00\n      add\n      0x00\n      swap1\n      sload\n      swap1\n      0x0100\n      exp\n      swap1\n      div\n      0xffffffffffffffffffffffffffffffffffffffff\n      and\n      swap1\n      dup1\n      0x01\n      add\n      dup1\n      sload\n      tag_135\n      swap1\n      tag_136\n      jump\t// in\n    tag_135:\n      dup1\n      0x1f\n      add\n      0x20\n      dup1\n      swap2\n      div\n      mul\n      0x20\n      add\n      mload(0x40)\n      swap1\n      dup2\n      add\n      0x40\n      mstore\n      dup1\n      swap3\n      swap2\n      swap1\n      dup2\n      dup2\n      mstore\n      0x20\n      add\n      dup3\n      dup1\n      sload\n      tag_137\n      swap1\n      tag_136\n      jump\t// in\n    tag_137:\n      dup1\n      iszero\n      tag_138\n      jumpi\n      dup1\n      0x1f\n      lt\n      tag_139\n      jumpi\n      0x0100\n      dup1\n      dup4\n      sload\n      div\n      mul\n      dup4\n      mstore\n      swap2\n      0x20\n      add\n      swap2\n      jump(tag_138)\n    tag_139:\n      dup3\n      add\n      swap2\n      swap1\n      0x00\n      mstore\n      keccak256(0x00, 0x20)\n      swap1\n    tag_140:\n      dup2\n      sload\n      dup2\n      mstore\n      swap1\n      0x01\n      add\n      swap1\n      0x20\n      add\n      dup1\n      dup4\n      gt\n      tag_140\n      jumpi\n      dup3\n      swap1\n      sub\n      0x1f\n      and\n      dup3\n      add\n      swap2\n    tag_138:\n      pop\n      pop\n      pop\n      pop\n      pop\n      swap1\n      dup1\n      0x02\n      add\n      dup1\n      sload\n      tag_141\n      swap1\n      tag_136\n      jump\t// in\n    tag_141:\n      dup1\n      0x1f\n      add\n      0x20\n      dup1\n      swap2\n      div\n      mul\n      0x20\n      add\n      mload(0x40)\n      swap1\n      dup2\n      add\n      0x40\n      mstore\n      dup1\n      swap3\n      swap2\n      swap1\n      dup2\n      dup2\n      mstore\n      0x20\n      add\n      dup3\n      dup1\n      sload\n      tag_142\n      swap1\n      tag_136\n      jump\t// in\n    tag_142:\n      dup1\n      iszero\n      tag_143\n      jumpi\n      dup1\n      0x1f\n      lt\n      tag_144\n      jumpi\n      0x0100\n      dup1\n      dup4\n      sload\n      div\n      mul\n      dup4\n      mstore\n      swap2\n      0x20\n      add\n      swap2\n      jump(tag_143)\n    tag_144:\n      dup3\n      add\n      swap2\n      swap1\n      0x00\n      mstore\n      keccak256(0x00, 0x20)\n      swap1\n    tag_145:\n      dup2\n      sload\n      dup2\n      mstore\n      swap1\n      0x01\n      add\n      swap1\n      0x20\n      add\n      dup1\n      dup4\n      gt\n      tag_145\n      jumpi\n      dup3\n      swap1\n      sub\n      0x1f\n      and\n      dup3\n      add\n      swap2\n    tag_143:\n      pop\n      pop\n      pop\n      pop\n      pop\n      swap1\n      dup1\n      0x03\n      add\n      sload\n      swap1\n      dup1\n      0x04\n      add\n      sload\n      swap1\n      dup1\n      0x05\n      add\n      0x00\n      swap1\n      sload\n      swap1\n      0x0100\n      exp\n      swap1\n      div\n      0xff\n      and\n      swap1\n      pop\n      dup7\n      jump\t// out\n        /* \"#utility.yul\":7:82   */\n    tag_146:\n        /* \"#utility.yul\":40:46   */\n      0x00\n        /* \"#utility.yul\":73:75   */\n      0x40\n        /* \"#utility.yul\":67:76   */\n      mload\n        /* \"#utility.yul\":57:76   */\n      swap1\n      pop\n        /* \"#utility.yul\":7:82   */\n      swap1\n      jump\t// out\n        /* \"#utility.yul\":88:205   */\n    tag_147:\n        /* \"#utility.yul\":197:198   */\n      0x00\n        /* \"#utility.yul\":194:195   */\n      dup1\n        /* \"#utility.yul\":187:199   */\n      revert\n        /* \"#utility.yul\":211:328   */\n    tag_148:\n        /* \"#utility.yul\":320:321   */\n      0x00\n        /* \"#utility.yul\":317:318   */\n      dup1\n        /* \"#utility.yul\":310:322   */\n      revert\n        /* \"#utility.yul\":334:411   */\n    tag_149:\n        /* \"#utility.yul\":371:378   */\n      0x00\n        /* \"#utility.yul\":400:405   */\n      dup2\n        /* \"#utility.yul\":389:405   */\n      swap1\n      pop\n        /* \"#utility.yul\":334:411   */\n      swap2\n      swap1\n      pop\n      jump\t// out\n        /* \"#utility.yul\":417:539   */\n    tag_150:\n        /* \"#utility.yul\":490:514   */\n      tag_231\n        /* \"#utility.yul\":508:513   */\n      dup2\n        /* \"#utility.yul\":490:514   */\n      tag_149\n      jump\t// in\n    tag_231:\n        /* \"#utility.yul\":483:488   */\n      dup2\n        /* \"#utility.yul\":480:515   */\n      eq\n        /* \"#utility.yul\":470:533   */\n      tag_232\n      jumpi\n        /* \"#utility.yul\":529:530   */\n      0x00\n        /* \"#utility.yul\":526:527   */\n      dup1\n        /* \"#utility.yul\":519:531   */\n      revert\n        /* \"#utility.yul\":470:533   */\n    tag_232:\n        /* \"#utility.yul\":417:539   */\n      pop\n      jump\t// out\n        /* \"#utility.yul\":545:684   */\n    tag_151:\n        /* \"#utility.yul\":591:596   */\n      0x00\n        /* \"#utility.yul\":629:635   */\n      dup2\n        /* \"#utility.yul\":616:636   */\n      calldataload\n        /* \"#utility.yul\":607:636   */\n      swap1\n      pop\n        /* \"#utility.yul\":645:678   */\n      tag_234\n        /* \"#utility.yul\":672:677   */\n      dup2\n        /* \"#utility.yul\":645:678   */\n      tag_150\n      jump\t// in\n    tag_234:\n        /* \"#utility.yul\":545:684   */\n      swap3\n      swap2\n      pop\n      pop\n      jump\t// out\n        /* \"#utility.yul\":690:1019   */\n    tag_14:\n        /* \"#utility.yul\":749:755   */\n      0x00\n        /* \"#utility.yul\":798:800   */\n      0x20\n        /* \"#utility.yul\":786:795   */\n      dup3\n        /* \"#utility.yul\":777:784   */\n      dup5\n        /* \"#utility.yul\":773:796   */\n      sub\n        /* \"#utility.yul\":769:801   */\n      slt\n        /* \"#utility.yul\":766:885   */\n      iszero\n      tag_236\n      jumpi\n        /* \"#utility.yul\":804:883   */\n      tag_237\n      tag_147\n      jump\t// in\n    tag_237:\n        /* \"#utility.yul\":766:885   */\n    tag_236:\n        /* \"#utility.yul\":924:925   */\n      0x00\n        /* \"#utility.yul\":949:1002   */\n      tag_238\n        /* \"#utility.yul\":994:1001   */\n      dup5\n        /* \"#utility.yul\":985:991   */\n      dup3\n        /* \"#utility.yul\":974:983   */\n      dup6\n        /* \"#utility.yul\":970:992   */\n      add\n        /* \"#utility.yul\":949:1002   */\n      tag_151\n      jump\t// in\n    tag_238:\n        /* \"#utility.yul\":939:1002   */\n      swap2\n      pop\n        /* \"#utility.yul\":895:1012   */\n      pop\n        /* \"#utility.yul\":690:1019   */\n      swap3\n      swap2\n      pop\n      pop\n      jump\t// out\n        /* \"#utility.yul\":1025:1143   */\n    tag_152:\n        /* \"#utility.yul\":1112:1136   */\n      tag_240\n        /* \"#utility.yul\":1130:1135   */\n      dup2\n        /* \"#utility.yul\":1112:1136   */\n      tag_149\n      jump\t// in\n    tag_240:\n        /* \"#utility.yul\":1107:1110   */\n      dup3\n        /* \"#utility.yul\":1100:1137   */\n      mstore\n        /* \"#utility.yul\":1025:1143   */\n      pop\n      pop\n      jump\t// out\n        /* \"#utility.yul\":1149:1371   */\n    tag_20:\n        /* \"#utility.yul\":1242:1246   */\n      0x00\n        /* \"#utility.yul\":1280:1282   */\n      0x20\n        /* \"#utility.yul\":1269:1278   */\n      dup3\n        /* \"#utility.yul\":1265:1283   */\n      add\n        /* \"#utility.yul\":1257:1283   */\n      swap1\n      pop\n        /* \"#utility.yul\":1293:1364   */\n      tag_242\n        /* \"#utility.yul\":1361:1362   */\n      0x00\n        /* \"#utility.yul\":1350:1359   */\n      dup4\n        /* \"#utility.yul\":1346:1363   */\n      add\n        /* \"#utility.yul\":1337:1343   */\n      dup5\n        /* \"#utility.yul\":1293:1364   */\n      tag_152\n      jump\t// in\n    tag_242:\n        /* \"#utility.yul\":1149:1371   */\n      swap3\n      swap2\n      pop\n      pop\n      jump\t// out\n        /* \"#utility.yul\":1377:1503   */\n    tag_153:\n        /* \"#utility.yul\":1414:1421   */\n      0x00\n        /* \"#utility.yul\":1454:1496   */\n      0xffffffffffffffffffffffffffffffffffffffff\n        /* \"#utility.yul\":1447:1452   */\n      dup3\n        /* \"#utility.yul\":1443:1497   */\n      and\n        /* \"#utility.yul\":1432:1497   */\n      swap1\n      pop\n        /* \"#utility.yul\":1377:1503   */\n      swap2\n      swap1\n      pop\n      jump\t// out\n        /* \"#utility.yul\":1509:1569   */\n    tag_154:\n        /* \"#utility.yul\":1537:1540   */\n      0x00\n        /* \"#utility.yul\":1558:1563   */\n      dup2\n        /* \"#utility.yul\":1551:1563   */\n      swap1\n      pop\n        /* \"#utility.yul\":1509:1569   */\n      swap2\n      swap1\n      pop\n      jump\t// out\n        /* \"#utility.yul\":1575:1717   */\n    tag_155:\n        /* \"#utility.yul\":1625:1634   */\n      0x00\n        /* \"#utility.yul\":1658:1711   */\n      tag_246\n        /* \"#utility.yul\":1676:1710   */\n      tag_247\n        /* \"#utility.yul\":1685:1709   */\n      tag_248\n        /* \"#utility.yul\":1703:1708   */\n      dup5\n        /* \"#utility.yul\":1685:1709   */\n      tag_153\n      jump\t// in\n    tag_248:\n        /* \"#utility.yul\":1676:1710   */\n      tag_154\n      jump\t// in\n    tag_247:\n        /* \"#utility.yul\":1658:1711   */\n      tag_153\n      jump\t// in\n    tag_246:\n        /* \"#utility.yul\":1645:1711   */\n      swap1\n      pop\n        /* \"#utility.yul\":1575:1717   */\n      swap2\n      swap1\n      pop\n      jump\t// out\n        /* \"#utility.yul\":1723:1849   */\n    tag_156:\n        /* \"#utility.yul\":1773:1782   */\n      0x00\n        /* \"#utility.yul\":1806:1843   */\n      tag_250\n        /* \"#utility.yul\":1837:1842   */\n      dup3\n        /* \"#utility.yul\":1806:1843   */\n      tag_155\n      jump\t// in\n    tag_250:\n        /* \"#utility.yul\":1793:1843   */\n      swap1\n      pop\n        /* \"#utility.yul\":1723:1849   */\n      swap2\n      swap1\n      pop\n      jump\t// out\n        /* \"#utility.yul\":1855:2009   */\n    tag_157:\n        /* \"#utility.yul\":1933:1942   */\n      0x00\n        /* \"#utility.yul\":1966:2003   */\n      tag_252\n        /* \"#utility.yul\":1997:2002   */\n      dup3\n        /* \"#utility.yul\":1966:2003   */\n      tag_156\n      jump\t// in\n    tag_252:\n        /* \"#utility.yul\":1953:2003   */\n      swap1\n      pop\n        /* \"#utility.yul\":1855:2009   */\n      swap2\n      swap1\n      pop\n      jump\t// out\n        /* \"#utility.yul\":2015:2202   */\n    tag_158:\n        /* \"#utility.yul\":2130:2195   */\n      tag_254\n        /* \"#utility.yul\":2189:2194   */\n      dup2\n        /* \"#utility.yul\":2130:2195   */\n      tag_157\n      jump\t// in\n    tag_254:\n        /* \"#utility.yul\":2125:2128   */\n      dup3\n        /* \"#utility.yul\":2118:2196   */\n      mstore\n        /* \"#utility.yul\":2015:2202   */\n      pop\n      pop\n      jump\t// out\n        /* \"#utility.yul\":2208:2486   */\n    tag_30:\n        /* \"#utility.yul\":2329:2333   */\n      0x00\n        /* \"#utility.yul\":2367:2369   */\n      0x20\n        /* \"#utility.yul\":2356:2365   */\n      dup3\n        /* \"#utility.yul\":2352:2370   */\n      add\n        /* \"#utility.yul\":2344:2370   */\n      swap1\n      pop\n        /* \"#utility.yul\":2380:2479   */\n      tag_256\n        /* \"#utility.yul\":2476:2477   */\n      0x00\n        /* \"#utility.yul\":2465:2474   */\n      dup4\n        /* \"#utility.yul\":2461:2478   */\n      add\n        /* \"#utility.yul\":2452:2458   */\n      dup5\n        /* \"#utility.yul\":2380:2479   */\n      tag_158\n      jump\t// in\n    tag_256:\n        /* \"#utility.yul\":2208:2486   */\n      swap3\n      swap2\n      pop\n      pop\n      jump\t// out\n        /* \"#utility.yul\":2492:2588   */\n    tag_159:\n        /* \"#utility.yul\":2529:2536   */\n      0x00\n        /* \"#utility.yul\":2558:2582   */\n      tag_258\n        /* \"#utility.yul\":2576:2581   */\n      dup3\n        /* \"#utility.yul\":2558:2582   */\n      tag_153\n      jump\t// in\n    tag_258:\n        /* \"#utility.yul\":2547:2582   */\n      swap1\n      pop\n        /* \"#utility.yul\":2492:2588   */\n      swap2\n      swap1\n      pop\n      jump\t// out\n        /* \"#utility.yul\":2594:2712   */\n    tag_160:\n        /* \"#utility.yul\":2681:2705   */\n      tag_260\n        /* \"#utility.yul\":2699:2704   */\n      dup2\n        /* \"#utility.yul\":2681:2705   */\n      tag_159\n      jump\t// in\n    tag_260:\n        /* \"#utility.yul\":2676:2679   */\n      dup3\n        /* \"#utility.yul\":2669:2706   */\n      mstore\n        /* \"#utility.yul\":2594:2712   */\n      pop\n      pop\n      jump\t// out\n        /* \"#utility.yul\":2718:2940   */\n    tag_35:\n        /* \"#utility.yul\":2811:2815   */\n      0x00\n        /* \"#utility.yul\":2849:2851   */\n      0x20\n        /* \"#utility.yul\":2838:2847   */\n      dup3\n        /* \"#utility.yul\":2834:2852   */\n      add\n        /* \"#utility.yul\":2826:2852   */\n      swap1\n      pop\n        /* \"#utility.yul\":2862:2933   */\n      tag_262\n        /* \"#utility.yul\":2930:2931   */\n      0x00\n        /* \"#utility.yul\":2919:2928   */\n      dup4\n        /* \"#utility.yul\":2915:2932   */\n      add\n        /* \"#utility.yul\":2906:2912   */\n      dup5\n        /* \"#utility.yul\":2862:2933   */\n      tag_160\n      jump\t// in\n    tag_262:\n        /* \"#utility.yul\":2718:2940   */\n      swap3\n      swap2\n      pop\n      pop\n      jump\t// out\n        /* \"#utility.yul\":2946:3063   */\n    tag_161:\n        /* \"#utility.yul\":3055:3056   */\n      0x00\n        /* \"#utility.yul\":3052:3053   */\n      dup1\n        /* \"#utility.yul\":3045:3057   */\n      revert\n        /* \"#utility.yul\":3069:3186   */\n    tag_162:\n        /* \"#utility.yul\":3178:3179   */\n      0x00\n        /* \"#utility.yul\":3175:3176   */\n      dup1\n        /* \"#utility.yul\":3168:3180   */\n      revert\n        /* \"#utility.yul\":3192:3294   */\n    tag_163:\n        /* \"#utility.yul\":3233:3239   */\n      0x00\n        /* \"#utility.yul\":3284:3286   */\n      0x1f\n        /* \"#utility.yul\":3280:3287   */\n      not\n        /* \"#utility.yul\":3275:3277   */\n      0x1f\n        /* \"#utility.yul\":3268:3273   */\n      dup4\n        /* \"#utility.yul\":3264:3278   */\n      add\n        /* \"#utility.yul\":3260:3288   */\n      and\n        /* \"#utility.yul\":3250:3288   */\n      swap1\n      pop\n        /* \"#utility.yul\":3192:3294   */\n      swap2\n      swap1\n      pop\n      jump\t// out\n        /* \"#utility.yul\":3300:3480   */\n    tag_164:\n        /* \"#utility.yul\":3348:3425   */\n      0x4e487b7100000000000000000000000000000000000000000000000000000000\n        /* \"#utility.yul\":3345:3346   */\n      0x00\n        /* \"#utility.yul\":3338:3426   */\n      mstore\n        /* \"#utility.yul\":3445:3449   */\n      0x41\n        /* \"#utility.yul\":3442:3443   */\n      0x04\n        /* \"#utility.yul\":3435:3450   */\n      mstore\n        /* \"#utility.yul\":3469:3473   */\n      0x24\n        /* \"#utility.yul\":3466:3467   */\n      0x00\n        /* \"#utility.yul\":3459:3474   */\n      revert\n        /* \"#utility.yul\":3486:3767   */\n    tag_165:\n        /* \"#utility.yul\":3569:3596   */\n      tag_268\n        /* \"#utility.yul\":3591:3595   */\n      dup3\n        /* \"#utility.yul\":3569:3596   */\n      tag_163\n      jump\t// in\n    tag_268:\n        /* \"#utility.yul\":3561:3567   */\n      dup2\n        /* \"#utility.yul\":3557:3597   */\n      add\n        /* \"#utility.yul\":3699:3705   */\n      dup2\n        /* \"#utility.yul\":3687:3697   */\n      dup2\n        /* \"#utility.yul\":3684:3706   */\n      lt\n        /* \"#utility.yul\":3663:3681   */\n      0xffffffffffffffff\n        /* \"#utility.yul\":3651:3661   */\n      dup3\n        /* \"#utility.yul\":3648:3682   */\n      gt\n        /* \"#utility.yul\":3645:3707   */\n      or\n        /* \"#utility.yul\":3642:3730   */\n      iszero\n      tag_269\n      jumpi\n        /* \"#utility.yul\":3710:3728   */\n      tag_270\n      tag_164\n      jump\t// in\n    tag_270:\n        /* \"#utility.yul\":3642:3730   */\n    tag_269:\n        /* \"#utility.yul\":3750:3760   */\n      dup1\n        /* \"#utility.yul\":3746:3748   */\n      0x40\n        /* \"#utility.yul\":3739:3761   */\n      mstore\n        /* \"#utility.yul\":3529:3767   */\n      pop\n        /* \"#utility.yul\":3486:3767   */\n      pop\n      pop\n      jump\t// out\n        /* \"#utility.yul\":3773:3902   */\n    tag_166:\n        /* \"#utility.yul\":3807:3813   */\n      0x00\n        /* \"#utility.yul\":3834:3854   */\n      tag_272\n      tag_146\n      jump\t// in\n    tag_272:\n        /* \"#utility.yul\":3824:3854   */\n      swap1\n      pop\n        /* \"#utility.yul\":3863:3896   */\n      tag_273\n        /* \"#utility.yul\":3891:3895   */\n      dup3\n        /* \"#utility.yul\":3883:3889   */\n      dup3\n        /* \"#utility.yul\":3863:3896   */\n      tag_165\n      jump\t// in\n    tag_273:\n        /* \"#utility.yul\":3773:3902   */\n      swap2\n      swap1\n      pop\n      jump\t// out\n        /* \"#utility.yul\":3908:4216   */\n    tag_167:\n        /* \"#utility.yul\":3970:3974   */\n      0x00\n        /* \"#utility.yul\":4060:4078   */\n      0xffffffffffffffff\n        /* \"#utility.yul\":4052:4058   */\n      dup3\n        /* \"#utility.yul\":4049:4079   */\n      gt\n        /* \"#utility.yul\":4046:4102   */\n      iszero\n      tag_275\n      jumpi\n        /* \"#utility.yul\":4082:4100   */\n      tag_276\n      tag_164\n      jump\t// in\n    tag_276:\n        /* \"#utility.yul\":4046:4102   */\n    tag_275:\n        /* \"#utility.yul\":4120:4149   */\n      tag_277\n        /* \"#utility.yul\":4142:4148   */\n      dup3\n        /* \"#utility.yul\":4120:4149   */\n      tag_163\n      jump\t// in\n    tag_277:\n        /* \"#utility.yul\":4112:4149   */\n      swap1\n      pop\n        /* \"#utility.yul\":4204:4208   */\n      0x20\n        /* \"#utility.yul\":4198:4202   */\n      dup2\n        /* \"#utility.yul\":4194:4209   */\n      add\n        /* \"#utility.yul\":4186:4209   */\n      swap1\n      pop\n        /* \"#utility.yul\":3908:4216   */\n      swap2\n      swap1\n      pop\n      jump\t// out\n        /* \"#utility.yul\":4222:4368   */\n    tag_168:\n        /* \"#utility.yul\":4319:4325   */\n      dup3\n        /* \"#utility.yul\":4314:4317   */\n      dup2\n        /* \"#utility.yul\":4309:4312   */\n      dup4\n        /* \"#utility.yul\":4296:4326   */\n      calldatacopy\n        /* \"#utility.yul\":4360:4361   */\n      0x00\n        /* \"#utility.yul\":4351:4357   */\n      dup4\n        /* \"#utility.yul\":4346:4349   */\n      dup4\n        /* \"#utility.yul\":4342:4358   */\n      add\n        /* \"#utility.yul\":4335:4362   */\n      mstore\n        /* \"#utility.yul\":4222:4368   */\n      pop\n      pop\n      pop\n      jump\t// out\n        /* \"#utility.yul\":4374:4799   */\n    tag_169:\n        /* \"#utility.yul\":4452:4457   */\n      0x00\n        /* \"#utility.yul\":4477:4543   */\n      tag_280\n        /* \"#utility.yul\":4493:4542   */\n      tag_281\n        /* \"#utility.yul\":4535:4541   */\n      dup5\n        /* \"#utility.yul\":4493:4542   */\n      tag_167\n      jump\t// in\n    tag_281:\n        /* \"#utility.yul\":4477:4543   */\n      tag_166\n      jump\t// in\n    tag_280:\n        /* \"#utility.yul\":4468:4543   */\n      swap1\n      pop\n        /* \"#utility.yul\":4566:4572   */\n      dup3\n        /* \"#utility.yul\":4559:4564   */\n      dup2\n        /* \"#utility.yul\":4552:4573   */\n      mstore\n        /* \"#utility.yul\":4604:4608   */\n      0x20\n        /* \"#utility.yul\":4597:4602   */\n      dup2\n        /* \"#utility.yul\":4593:4609   */\n      add\n        /* \"#utility.yul\":4642:4645   */\n      dup5\n        /* \"#utility.yul\":4633:4639   */\n      dup5\n        /* \"#utility.yul\":4628:4631   */\n      dup5\n        /* \"#utility.yul\":4624:4640   */\n      add\n        /* \"#utility.yul\":4621:4646   */\n      gt\n        /* \"#utility.yul\":4618:4730   */\n      iszero\n      tag_282\n      jumpi\n        /* \"#utility.yul\":4649:4728   */\n      tag_283\n      tag_162\n      jump\t// in\n    tag_283:\n        /* \"#utility.yul\":4618:4730   */\n    tag_282:\n        /* \"#utility.yul\":4739:4793   */\n      tag_284\n        /* \"#utility.yul\":4786:4792   */\n      dup5\n        /* \"#utility.yul\":4781:4784   */\n      dup3\n        /* \"#utility.yul\":4776:4779   */\n      dup6\n        /* \"#utility.yul\":4739:4793   */\n      tag_168\n      jump\t// in\n    tag_284:\n        /* \"#utility.yul\":4458:4799   */\n      pop\n        /* \"#utility.yul\":4374:4799   */\n      swap4\n      swap3\n      pop\n      pop\n      pop\n      jump\t// out\n        /* \"#utility.yul\":4819:5159   */\n    tag_170:\n        /* \"#utility.yul\":4875:4880   */\n      0x00\n        /* \"#utility.yul\":4924:4927   */\n      dup3\n        /* \"#utility.yul\":4917:4921   */\n      0x1f\n        /* \"#utility.yul\":4909:4915   */\n      dup4\n        /* \"#utility.yul\":4905:4922   */\n      add\n        /* \"#utility.yul\":4901:4928   */\n      slt\n        /* \"#utility.yul\":4891:5013   */\n      tag_286\n      jumpi\n        /* \"#utility.yul\":4932:5011   */\n      tag_287\n      tag_161\n      jump\t// in\n    tag_287:\n        /* \"#utility.yul\":4891:5013   */\n    tag_286:\n        /* \"#utility.yul\":5049:5055   */\n      dup2\n        /* \"#utility.yul\":5036:5056   */\n      calldataload\n        /* \"#utility.yul\":5074:5153   */\n      tag_288\n        /* \"#utility.yul\":5149:5152   */\n      dup5\n        /* \"#utility.yul\":5141:5147   */\n      dup3\n        /* \"#utility.yul\":5134:5138   */\n      0x20\n        /* \"#utility.yul\":5126:5132   */\n      dup7\n        /* \"#utility.yul\":5122:5139   */\n      add\n        /* \"#utility.yul\":5074:5153   */\n      tag_169\n      jump\t// in\n    tag_288:\n        /* \"#utility.yul\":5065:5153   */\n      swap2\n      pop\n        /* \"#utility.yul\":4881:5159   */\n      pop\n        /* \"#utility.yul\":4819:5159   */\n      swap3\n      swap2\n      pop\n      pop\n      jump\t// out\n        /* \"#utility.yul\":5165:6144   */\n    tag_39:\n        /* \"#utility.yul\":5262:5268   */\n      0x00\n        /* \"#utility.yul\":5270:5276   */\n      dup1\n        /* \"#utility.yul\":5278:5284   */\n      0x00\n        /* \"#utility.yul\":5327:5329   */\n      0x60\n        /* \"#utility.yul\":5315:5324   */\n      dup5\n        /* \"#utility.yul\":5306:5313   */\n      dup7\n        /* \"#utility.yul\":5302:5325   */\n      sub\n        /* \"#utility.yul\":5298:5330   */\n      slt\n        /* \"#utility.yul\":5295:5414   */\n      iszero\n      tag_290\n      jumpi\n        /* \"#utility.yul\":5333:5412   */\n      tag_291\n      tag_147\n      jump\t// in\n    tag_291:\n        /* \"#utility.yul\":5295:5414   */\n    tag_290:\n        /* \"#utility.yul\":5481:5482   */\n      0x00\n        /* \"#utility.yul\":5470:5479   */\n      dup5\n        /* \"#utility.yul\":5466:5483   */\n      add\n        /* \"#utility.yul\":5453:5484   */\n      calldataload\n        /* \"#utility.yul\":5511:5529   */\n      0xffffffffffffffff\n        /* \"#utility.yul\":5503:5509   */\n      dup2\n        /* \"#utility.yul\":5500:5530   */\n      gt\n        /* \"#utility.yul\":5497:5614   */\n      iszero\n      tag_292\n      jumpi\n        /* \"#utility.yul\":5533:5612   */\n      tag_293\n      tag_148\n      jump\t// in\n    tag_293:\n        /* \"#utility.yul\":5497:5614   */\n    tag_292:\n        /* \"#utility.yul\":5638:5701   */\n      tag_294\n        /* \"#utility.yul\":5693:5700   */\n      dup7\n        /* \"#utility.yul\":5684:5690   */\n      dup3\n        /* \"#utility.yul\":5673:5682   */\n      dup8\n        /* \"#utility.yul\":5669:5691   */\n      add\n        /* \"#utility.yul\":5638:5701   */\n      tag_170\n      jump\t// in\n    tag_294:\n        /* \"#utility.yul\":5628:5701   */\n      swap4\n      pop\n        /* \"#utility.yul\":5424:5711   */\n      pop\n        /* \"#utility.yul\":5778:5780   */\n      0x20\n        /* \"#utility.yul\":5767:5776   */\n      dup5\n        /* \"#utility.yul\":5763:5781   */\n      add\n        /* \"#utility.yul\":5750:5782   */\n      calldataload\n        /* \"#utility.yul\":5809:5827   */\n      0xffffffffffffffff\n        /* \"#utility.yul\":5801:5807   */\n      dup2\n        /* \"#utility.yul\":5798:5828   */\n      gt\n        /* \"#utility.yul\":5795:5912   */\n      iszero\n      tag_295\n      jumpi\n        /* \"#utility.yul\":5831:5910   */\n      tag_296\n      tag_148\n      jump\t// in\n    tag_296:\n        /* \"#utility.yul\":5795:5912   */\n    tag_295:\n        /* \"#utility.yul\":5936:5999   */\n      tag_297\n        /* \"#utility.yul\":5991:5998   */\n      dup7\n        /* \"#utility.yul\":5982:5988   */\n      dup3\n        /* \"#utility.yul\":5971:5980   */\n      dup8\n        /* \"#utility.yul\":5967:5989   */\n      add\n        /* \"#utility.yul\":5936:5999   */\n      tag_170\n      jump\t// in\n    tag_297:\n        /* \"#utility.yul\":5926:5999   */\n      swap3\n      pop\n        /* \"#utility.yul\":5721:6009   */\n      pop\n        /* \"#utility.yul\":6048:6050   */\n      0x40\n        /* \"#utility.yul\":6074:6127   */\n      tag_298\n        /* \"#utility.yul\":6119:6126   */\n      dup7\n        /* \"#utility.yul\":6110:6116   */\n      dup3\n        /* \"#utility.yul\":6099:6108   */\n      dup8\n        /* \"#utility.yul\":6095:6117   */\n      add\n        /* \"#utility.yul\":6074:6127   */\n      tag_151\n      jump\t// in\n    tag_298:\n        /* \"#utility.yul\":6064:6127   */\n      swap2\n      pop\n        /* \"#utility.yul\":6019:6137   */\n      pop\n        /* \"#utility.yul\":5165:6144   */\n      swap3\n      pop\n      swap3\n      pop\n      swap3\n      jump\t// out\n        /* \"#utility.yul\":6150:6249   */\n    tag_171:\n        /* \"#utility.yul\":6202:6208   */\n      0x00\n        /* \"#utility.yul\":6236:6241   */\n      dup2\n        /* \"#utility.yul\":6230:6242   */\n      mload\n        /* \"#utility.yul\":6220:6242   */\n      swap1\n      pop\n        /* \"#utility.yul\":6150:6249   */\n      swap2\n      swap1\n      pop\n      jump\t// out\n        /* \"#utility.yul\":6255:6424   */\n    tag_172:\n        /* \"#utility.yul\":6339:6350   */\n      0x00\n        /* \"#utility.yul\":6373:6379   */\n      dup3\n        /* \"#utility.yul\":6368:6371   */\n      dup3\n        /* \"#utility.yul\":6361:6380   */\n      mstore\n        /* \"#utility.yul\":6413:6417   */\n      0x20\n        /* \"#utility.yul\":6408:6411   */\n      dup3\n        /* \"#utility.yul\":6404:6418   */\n      add\n        /* \"#utility.yul\":6389:6418   */\n      swap1\n      pop\n        /* \"#utility.yul\":6255:6424   */\n      swap3\n      swap2\n      pop\n      pop\n      jump\t// out\n        /* \"#utility.yul\":6430:6676   */\n    tag_173:\n        /* \"#utility.yul\":6511:6512   */\n      0x00\n        /* \"#utility.yul\":6521:6634   */\n    tag_302:\n        /* \"#utility.yul\":6535:6541   */\n      dup4\n        /* \"#utility.yul\":6532:6533   */\n      dup2\n        /* \"#utility.yul\":6529:6542   */\n      lt\n        /* \"#utility.yul\":6521:6634   */\n      iszero\n      tag_304\n      jumpi\n        /* \"#utility.yul\":6620:6621   */\n      dup1\n        /* \"#utility.yul\":6615:6618   */\n      dup3\n        /* \"#utility.yul\":6611:6622   */\n      add\n        /* \"#utility.yul\":6605:6623   */\n      mload\n        /* \"#utility.yul\":6601:6602   */\n      dup2\n        /* \"#utility.yul\":6596:6599   */\n      dup5\n        /* \"#utility.yul\":6592:6603   */\n      add\n        /* \"#utility.yul\":6585:6624   */\n      mstore\n        /* \"#utility.yul\":6557:6559   */\n      0x20\n        /* \"#utility.yul\":6554:6555   */\n      dup2\n        /* \"#utility.yul\":6550:6560   */\n      add\n        /* \"#utility.yul\":6545:6560   */\n      swap1\n      pop\n        /* \"#utility.yul\":6521:6634   */\n      jump(tag_302)\n    tag_304:\n        /* \"#utility.yul\":6668:6669   */\n      0x00\n        /* \"#utility.yul\":6659:6665   */\n      dup5\n        /* \"#utility.yul\":6654:6657   */\n      dup5\n        /* \"#utility.yul\":6650:6666   */\n      add\n        /* \"#utility.yul\":6643:6670   */\n      mstore\n        /* \"#utility.yul\":6492:6676   */\n      pop\n        /* \"#utility.yul\":6430:6676   */\n      pop\n      pop\n      pop\n      jump\t// out\n        /* \"#utility.yul\":6682:7059   */\n    tag_174:\n        /* \"#utility.yul\":6770:6773   */\n      0x00\n        /* \"#utility.yul\":6798:6837   */\n      tag_306\n        /* \"#utility.yul\":6831:6836   */\n      dup3\n        /* \"#utility.yul\":6798:6837   */\n      tag_171\n      jump\t// in\n    tag_306:\n        /* \"#utility.yul\":6853:6924   */\n      tag_307\n        /* \"#utility.yul\":6917:6923   */\n      dup2\n        /* \"#utility.yul\":6912:6915   */\n      dup6\n        /* \"#utility.yul\":6853:6924   */\n      tag_172\n      jump\t// in\n    tag_307:\n        /* \"#utility.yul\":6846:6924   */\n      swap4\n      pop\n        /* \"#utility.yul\":6933:6998   */\n      tag_308\n        /* \"#utility.yul\":6991:6997   */\n      dup2\n        /* \"#utility.yul\":6986:6989   */\n      dup6\n        /* \"#utility.yul\":6979:6983   */\n      0x20\n        /* \"#utility.yul\":6972:6977   */\n      dup7\n        /* \"#utility.yul\":6968:6984   */\n      add\n        /* \"#utility.yul\":6933:6998   */\n      tag_173\n      jump\t// in\n    tag_308:\n        /* \"#utility.yul\":7023:7052   */\n      tag_309\n        /* \"#utility.yul\":7045:7051   */\n      dup2\n        /* \"#utility.yul\":7023:7052   */\n      tag_163\n      jump\t// in\n    tag_309:\n        /* \"#utility.yul\":7018:7021   */\n      dup5\n        /* \"#utility.yul\":7014:7053   */\n      add\n        /* \"#utility.yul\":7007:7053   */\n      swap2\n      pop\n        /* \"#utility.yul\":6774:7059   */\n      pop\n        /* \"#utility.yul\":6682:7059   */\n      swap3\n      swap2\n      pop\n      pop\n      jump\t// out\n        /* \"#utility.yul\":7065:7245   */\n    tag_64:\n        /* \"#utility.yul\":7113:7190   */\n      0x4e487b7100000000000000000000000000000000000000000000000000000000\n        /* \"#utility.yul\":7110:7111   */\n      0x00\n        /* \"#utility.yul\":7103:7191   */\n      mstore\n        /* \"#utility.yul\":7210:7214   */\n      0x21\n        /* \"#utility.yul\":7207:7208   */\n      0x04\n        /* \"#utility.yul\":7200:7215   */\n      mstore\n        /* \"#utility.yul\":7234:7238   */\n      0x24\n        /* \"#utility.yul\":7231:7232   */\n      0x00\n        /* \"#utility.yul\":7224:7239   */\n      revert\n        /* \"#utility.yul\":7251:7375   */\n    tag_175:\n        /* \"#utility.yul\":7343:7344   */\n      0x02\n        /* \"#utility.yul\":7336:7341   */\n      dup2\n        /* \"#utility.yul\":7333:7345   */\n      lt\n        /* \"#utility.yul\":7323:7369   */\n      tag_312\n      jumpi\n        /* \"#utility.yul\":7349:7367   */\n      tag_313\n      tag_64\n      jump\t// in\n    tag_313:\n        /* \"#utility.yul\":7323:7369   */\n    tag_312:\n        /* \"#utility.yul\":7251:7375   */\n      pop\n      jump\t// out\n        /* \"#utility.yul\":7381:7530   */\n    tag_176:\n        /* \"#utility.yul\":7437:7444   */\n      0x00\n        /* \"#utility.yul\":7466:7471   */\n      dup2\n        /* \"#utility.yul\":7455:7471   */\n      swap1\n      pop\n        /* \"#utility.yul\":7472:7524   */\n      tag_315\n        /* \"#utility.yul\":7518:7523   */\n      dup3\n        /* \"#utility.yul\":7472:7524   */\n      tag_175\n      jump\t// in\n    tag_315:\n        /* \"#utility.yul\":7381:7530   */\n      swap2\n      swap1\n      pop\n      jump\t// out\n        /* \"#utility.yul\":7536:7685   */\n    tag_177:\n        /* \"#utility.yul\":7603:7612   */\n      0x00\n        /* \"#utility.yul\":7636:7679   */\n      tag_317\n        /* \"#utility.yul\":7673:7678   */\n      dup3\n        /* \"#utility.yul\":7636:7679   */\n      tag_176\n      jump\t// in\n    tag_317:\n        /* \"#utility.yul\":7623:7679   */\n      swap1\n      pop\n        /* \"#utility.yul\":7536:7685   */\n      swap2\n      swap1\n      pop\n      jump\t// out\n        /* \"#utility.yul\":7691:7856   */\n    tag_178:\n        /* \"#utility.yul\":7795:7849   */\n      tag_319\n        /* \"#utility.yul\":7843:7848   */\n      dup2\n        /* \"#utility.yul\":7795:7849   */\n      tag_177\n      jump\t// in\n    tag_319:\n        /* \"#utility.yul\":7790:7793   */\n      dup3\n        /* \"#utility.yul\":7783:7850   */\n      mstore\n        /* \"#utility.yul\":7691:7856   */\n      pop\n      pop\n      jump\t// out\n        /* \"#utility.yul\":7862:8853   */\n    tag_49:\n        /* \"#utility.yul\":8152:8156   */\n      0x00\n        /* \"#utility.yul\":8190:8193   */\n      0xc0\n        /* \"#utility.yul\":8179:8188   */\n      dup3\n        /* \"#utility.yul\":8175:8194   */\n      add\n        /* \"#utility.yul\":8167:8194   */\n      swap1\n      pop\n        /* \"#utility.yul\":8204:8275   */\n      tag_321\n        /* \"#utility.yul\":8272:8273   */\n      0x00\n        /* \"#utility.yul\":8261:8270   */\n      dup4\n        /* \"#utility.yul\":8257:8274   */\n      add\n        /* \"#utility.yul\":8248:8254   */\n      dup10\n        /* \"#utility.yul\":8204:8275   */\n      tag_160\n      jump\t// in\n    tag_321:\n        /* \"#utility.yul\":8322:8331   */\n      dup2\n        /* \"#utility.yul\":8316:8320   */\n      dup2\n        /* \"#utility.yul\":8312:8332   */\n      sub\n        /* \"#utility.yul\":8307:8309   */\n      0x20\n        /* \"#utility.yul\":8296:8305   */\n      dup4\n        /* \"#utility.yul\":8292:8310   */\n      add\n        /* \"#utility.yul\":8285:8333   */\n      mstore\n        /* \"#utility.yul\":8350:8428   */\n      tag_322\n        /* \"#utility.yul\":8423:8427   */\n      dup2\n        /* \"#utility.yul\":8414:8420   */\n      dup9\n        /* \"#utility.yul\":8350:8428   */\n      tag_174\n      jump\t// in\n    tag_322:\n        /* \"#utility.yul\":8342:8428   */\n      swap1\n      pop\n        /* \"#utility.yul\":8475:8484   */\n      dup2\n        /* \"#utility.yul\":8469:8473   */\n      dup2\n        /* \"#utility.yul\":8465:8485   */\n      sub\n        /* \"#utility.yul\":8460:8462   */\n      0x40\n        /* \"#utility.yul\":8449:8458   */\n      dup4\n        /* \"#utility.yul\":8445:8463   */\n      add\n        /* \"#utility.yul\":8438:8486   */\n      mstore\n        /* \"#utility.yul\":8503:8581   */\n      tag_323\n        /* \"#utility.yul\":8576:8580   */\n      dup2\n        /* \"#utility.yul\":8567:8573   */\n      dup8\n        /* \"#utility.yul\":8503:8581   */\n      tag_174\n      jump\t// in\n    tag_323:\n        /* \"#utility.yul\":8495:8581   */\n      swap1\n      pop\n        /* \"#utility.yul\":8591:8663   */\n      tag_324\n        /* \"#utility.yul\":8659:8661   */\n      0x60\n        /* \"#utility.yul\":8648:8657   */\n      dup4\n        /* \"#utility.yul\":8644:8662   */\n      add\n        /* \"#utility.yul\":8635:8641   */\n      dup7\n        /* \"#utility.yul\":8591:8663   */\n      tag_152\n      jump\t// in\n    tag_324:\n        /* \"#utility.yul\":8673:8746   */\n      tag_325\n        /* \"#utility.yul\":8741:8744   */\n      0x80\n        /* \"#utility.yul\":8730:8739   */\n      dup4\n        /* \"#utility.yul\":8726:8745   */\n      add\n        /* \"#utility.yul\":8717:8723   */\n      dup6\n        /* \"#utility.yul\":8673:8746   */\n      tag_152\n      jump\t// in\n    tag_325:\n        /* \"#utility.yul\":8756:8846   */\n      tag_326\n        /* \"#utility.yul\":8841:8844   */\n      0xa0\n        /* \"#utility.yul\":8830:8839   */\n      dup4\n        /* \"#utility.yul\":8826:8845   */\n      add\n        /* \"#utility.yul\":8817:8823   */\n      dup5\n        /* \"#utility.yul\":8756:8846   */\n      tag_178\n      jump\t// in\n    tag_326:\n        /* \"#utility.yul\":7862:8853   */\n      swap8\n      swap7\n      pop\n      pop\n      pop\n      pop\n      pop\n      pop\n      pop\n      jump\t// out\n        /* \"#utility.yul\":8859:9084   */\n    tag_179:\n        /* \"#utility.yul\":8999:9033   */\n      0x4f6e6c7920746865206f776e65722063616e2063616c6c20746869732066756e\n        /* \"#utility.yul\":8995:8996   */\n      0x00\n        /* \"#utility.yul\":8987:8993   */\n      dup3\n        /* \"#utility.yul\":8983:8997   */\n      add\n        /* \"#utility.yul\":8976:9034   */\n      mstore\n        /* \"#utility.yul\":9068:9076   */\n      0x6374696f6e2e0000000000000000000000000000000000000000000000000000\n        /* \"#utility.yul\":9063:9065   */\n      0x20\n        /* \"#utility.yul\":9055:9061   */\n      dup3\n        /* \"#utility.yul\":9051:9066   */\n      add\n        /* \"#utility.yul\":9044:9077   */\n      mstore\n        /* \"#utility.yul\":8859:9084   */\n      pop\n      jump\t// out\n        /* \"#utility.yul\":9090:9456   */\n    tag_180:\n        /* \"#utility.yul\":9232:9235   */\n      0x00\n        /* \"#utility.yul\":9253:9320   */\n      tag_329\n        /* \"#utility.yul\":9317:9319   */\n      0x26\n        /* \"#utility.yul\":9312:9315   */\n      dup4\n        /* \"#utility.yul\":9253:9320   */\n      tag_172\n      jump\t// in\n    tag_329:\n        /* \"#utility.yul\":9246:9320   */\n      swap2\n      pop\n        /* \"#utility.yul\":9329:9422   */\n      tag_330\n        /* \"#utility.yul\":9418:9421   */\n      dup3\n        /* \"#utility.yul\":9329:9422   */\n      tag_179\n      jump\t// in\n    tag_330:\n        /* \"#utility.yul\":9447:9449   */\n      0x40\n        /* \"#utility.yul\":9442:9445   */\n      dup3\n        /* \"#utility.yul\":9438:9450   */\n      add\n        /* \"#utility.yul\":9431:9450   */\n      swap1\n      pop\n        /* \"#utility.yul\":9090:9456   */\n      swap2\n      swap1\n      pop\n      jump\t// out\n        /* \"#utility.yul\":9462:9881   */\n    tag_53:\n        /* \"#utility.yul\":9628:9632   */\n      0x00\n        /* \"#utility.yul\":9666:9668   */\n      0x20\n        /* \"#utility.yul\":9655:9664   */\n      dup3\n        /* \"#utility.yul\":9651:9669   */\n      add\n        /* \"#utility.yul\":9643:9669   */\n      swap1\n      pop\n        /* \"#utility.yul\":9715:9724   */\n      dup2\n        /* \"#utility.yul\":9709:9713   */\n      dup2\n        /* \"#utility.yul\":9705:9725   */\n      sub\n        /* \"#utility.yul\":9701:9702   */\n      0x00\n        /* \"#utility.yul\":9690:9699   */\n      dup4\n        /* \"#utility.yul\":9686:9703   */\n      add\n        /* \"#utility.yul\":9679:9726   */\n      mstore\n        /* \"#utility.yul\":9743:9874   */\n      tag_332\n        /* \"#utility.yul\":9869:9873   */\n      dup2\n        /* \"#utility.yul\":9743:9874   */\n      tag_180\n      jump\t// in\n    tag_332:\n        /* \"#utility.yul\":9735:9874   */\n      swap1\n      pop\n        /* \"#utility.yul\":9462:9881   */\n      swap2\n      swap1\n      pop\n      jump\t// out\n        /* \"#utility.yul\":9887:10062   */\n    tag_181:\n        /* \"#utility.yul\":10027:10054   */\n      0x46756e6472616973657220646f6573206e6f7420657869737400000000000000\n        /* \"#utility.yul\":10023:10024   */\n      0x00\n        /* \"#utility.yul\":10015:10021   */\n      dup3\n        /* \"#utility.yul\":10011:10025   */\n      add\n        /* \"#utility.yul\":10004:10055   */\n      mstore\n        /* \"#utility.yul\":9887:10062   */\n      pop\n      jump\t// out\n        /* \"#utility.yul\":10068:10434   */\n    tag_182:\n        /* \"#utility.yul\":10210:10213   */\n      0x00\n        /* \"#utility.yul\":10231:10298   */\n      tag_335\n        /* \"#utility.yul\":10295:10297   */\n      0x19\n        /* \"#utility.yul\":10290:10293   */\n      dup4\n        /* \"#utility.yul\":10231:10298   */\n      tag_172\n      jump\t// in\n    tag_335:\n        /* \"#utility.yul\":10224:10298   */\n      swap2\n      pop\n        /* \"#utility.yul\":10307:10400   */\n      tag_336\n        /* \"#utility.yul\":10396:10399   */\n      dup3\n        /* \"#utility.yul\":10307:10400   */\n      tag_181\n      jump\t// in\n    tag_336:\n        /* \"#utility.yul\":10425:10427   */\n      0x20\n        /* \"#utility.yul\":10420:10423   */\n      dup3\n        /* \"#utility.yul\":10416:10428   */\n      add\n        /* \"#utility.yul\":10409:10428   */\n      swap1\n      pop\n        /* \"#utility.yul\":10068:10434   */\n      swap2\n      swap1\n      pop\n      jump\t// out\n        /* \"#utility.yul\":10440:10859   */\n    tag_57:\n        /* \"#utility.yul\":10606:10610   */\n      0x00\n        /* \"#utility.yul\":10644:10646   */\n      0x20\n        /* \"#utility.yul\":10633:10642   */\n      dup3\n        /* \"#utility.yul\":10629:10647   */\n      add\n        /* \"#utility.yul\":10621:10647   */\n      swap1\n      pop\n        /* \"#utility.yul\":10693:10702   */\n      dup2\n        /* \"#utility.yul\":10687:10691   */\n      dup2\n        /* \"#utility.yul\":10683:10703   */\n      sub\n        /* \"#utility.yul\":10679:10680   */\n      0x00\n        /* \"#utility.yul\":10668:10677   */\n      dup4\n        /* \"#utility.yul\":10664:10681   */\n      add\n        /* \"#utility.yul\":10657:10704   */\n      mstore\n        /* \"#utility.yul\":10721:10852   */\n      tag_338\n        /* \"#utility.yul\":10847:10851   */\n      dup2\n        /* \"#utility.yul\":10721:10852   */\n      tag_182\n      jump\t// in\n    tag_338:\n        /* \"#utility.yul\":10713:10852   */\n      swap1\n      pop\n        /* \"#utility.yul\":10440:10859   */\n      swap2\n      swap1\n      pop\n      jump\t// out\n        /* \"#utility.yul\":10865:11045   */\n    tag_60:\n        /* \"#utility.yul\":10913:10990   */\n      0x4e487b7100000000000000000000000000000000000000000000000000000000\n        /* \"#utility.yul\":10910:10911   */\n      0x00\n        /* \"#utility.yul\":10903:10991   */\n      mstore\n        /* \"#utility.yul\":11010:11014   */\n      0x32\n        /* \"#utility.yul\":11007:11008   */\n      0x04\n        /* \"#utility.yul\":11000:11015   */\n      mstore\n        /* \"#utility.yul\":11034:11038   */\n      0x24\n        /* \"#utility.yul\":11031:11032   */\n      0x00\n        /* \"#utility.yul\":11024:11039   */\n      revert\n        /* \"#utility.yul\":11051:11228   */\n    tag_183:\n        /* \"#utility.yul\":11191:11220   */\n      0x46756e64726169736572206973206e6f7420636f6d706c657465640000000000\n        /* \"#utility.yul\":11187:11188   */\n      0x00\n        /* \"#utility.yul\":11179:11185   */\n      dup3\n        /* \"#utility.yul\":11175:11189   */\n      add\n        /* \"#utility.yul\":11168:11221   */\n      mstore\n        /* \"#utility.yul\":11051:11228   */\n      pop\n      jump\t// out\n        /* \"#utility.yul\":11234:11600   */\n    tag_184:\n        /* \"#utility.yul\":11376:11379   */\n      0x00\n        /* \"#utility.yul\":11397:11464   */\n      tag_342\n        /* \"#utility.yul\":11461:11463   */\n      0x1b\n        /* \"#utility.yul\":11456:11459   */\n      dup4\n        /* \"#utility.yul\":11397:11464   */\n      tag_172\n      jump\t// in\n    tag_342:\n        /* \"#utility.yul\":11390:11464   */\n      swap2\n      pop\n        /* \"#utility.yul\":11473:11566   */\n      tag_343\n        /* \"#utility.yul\":11562:11565   */\n      dup3\n        /* \"#utility.yul\":11473:11566   */\n      tag_183\n      jump\t// in\n    tag_343:\n        /* \"#utility.yul\":11591:11593   */\n      0x20\n        /* \"#utility.yul\":11586:11589   */\n      dup3\n        /* \"#utility.yul\":11582:11594   */\n      add\n        /* \"#utility.yul\":11575:11594   */\n      swap1\n      pop\n        /* \"#utility.yul\":11234:11600   */\n      swap2\n      swap1\n      pop\n      jump\t// out\n        /* \"#utility.yul\":11606:12025   */\n    tag_69:\n        /* \"#utility.yul\":11772:11776   */\n      0x00\n        /* \"#utility.yul\":11810:11812   */\n      0x20\n        /* \"#utility.yul\":11799:11808   */\n      dup3\n        /* \"#utility.yul\":11795:11813   */\n      add\n        /* \"#utility.yul\":11787:11813   */\n      swap1\n      pop\n        /* \"#utility.yul\":11859:11868   */\n      dup2\n        /* \"#utility.yul\":11853:11857   */\n      dup2\n        /* \"#utility.yul\":11849:11869   */\n      sub\n        /* \"#utility.yul\":11845:11846   */\n      0x00\n        /* \"#utility.yul\":11834:11843   */\n      dup4\n        /* \"#utility.yul\":11830:11847   */\n      add\n        /* \"#utility.yul\":11823:11870   */\n      mstore\n        /* \"#utility.yul\":11887:12018   */\n      tag_345\n        /* \"#utility.yul\":12013:12017   */\n      dup2\n        /* \"#utility.yul\":11887:12018   */\n      tag_184\n      jump\t// in\n    tag_345:\n        /* \"#utility.yul\":11879:12018   */\n      swap1\n      pop\n        /* \"#utility.yul\":11606:12025   */\n      swap2\n      swap1\n      pop\n      jump\t// out\n        /* \"#utility.yul\":12031:12178   */\n    tag_185:\n        /* \"#utility.yul\":12132:12143   */\n      0x00\n        /* \"#utility.yul\":12169:12172   */\n      dup2\n        /* \"#utility.yul\":12154:12172   */\n      swap1\n      pop\n        /* \"#utility.yul\":12031:12178   */\n      swap3\n      swap2\n      pop\n      pop\n      jump\t// out\n        /* \"#utility.yul\":12184:12298   */\n    tag_186:\n      pop\n      jump\t// out\n        /* \"#utility.yul\":12304:12702   */\n    tag_187:\n        /* \"#utility.yul\":12463:12466   */\n      0x00\n        /* \"#utility.yul\":12484:12567   */\n      tag_349\n        /* \"#utility.yul\":12565:12566   */\n      0x00\n        /* \"#utility.yul\":12560:12563   */\n      dup4\n        /* \"#utility.yul\":12484:12567   */\n      tag_185\n      jump\t// in\n    tag_349:\n        /* \"#utility.yul\":12477:12567   */\n      swap2\n      pop\n        /* \"#utility.yul\":12576:12669   */\n      tag_350\n        /* \"#utility.yul\":12665:12668   */\n      dup3\n        /* \"#utility.yul\":12576:12669   */\n      tag_186\n      jump\t// in\n    tag_350:\n        /* \"#utility.yul\":12694:12695   */\n      0x00\n        /* \"#utility.yul\":12689:12692   */\n      dup3\n        /* \"#utility.yul\":12685:12696   */\n      add\n        /* \"#utility.yul\":12678:12696   */\n      swap1\n      pop\n        /* \"#utility.yul\":12304:12702   */\n      swap2\n      swap1\n      pop\n      jump\t// out\n        /* \"#utility.yul\":12708:13087   */\n    tag_71:\n        /* \"#utility.yul\":12892:12895   */\n      0x00\n        /* \"#utility.yul\":12914:13061   */\n      tag_352\n        /* \"#utility.yul\":13057:13060   */\n      dup3\n        /* \"#utility.yul\":12914:13061   */\n      tag_187\n      jump\t// in\n    tag_352:\n        /* \"#utility.yul\":12907:13061   */\n      swap2\n      pop\n        /* \"#utility.yul\":13078:13081   */\n      dup2\n        /* \"#utility.yul\":13071:13081   */\n      swap1\n      pop\n        /* \"#utility.yul\":12708:13087   */\n      swap2\n      swap1\n      pop\n      jump\t// out\n        /* \"#utility.yul\":13093:13260   */\n    tag_188:\n        /* \"#utility.yul\":13233:13252   */\n      0x5769746864726177616c206661696c6564000000000000000000000000000000\n        /* \"#utility.yul\":13229:13230   */\n      0x00\n        /* \"#utility.yul\":13221:13227   */\n      dup3\n        /* \"#utility.yul\":13217:13231   */\n      add\n        /* \"#utility.yul\":13210:13253   */\n      mstore\n        /* \"#utility.yul\":13093:13260   */\n      pop\n      jump\t// out\n        /* \"#utility.yul\":13266:13632   */\n    tag_189:\n        /* \"#utility.yul\":13408:13411   */\n      0x00\n        /* \"#utility.yul\":13429:13496   */\n      tag_355\n        /* \"#utility.yul\":13493:13495   */\n      0x11\n        /* \"#utility.yul\":13488:13491   */\n      dup4\n        /* \"#utility.yul\":13429:13496   */\n      tag_172\n      jump\t// in\n    tag_355:\n        /* \"#utility.yul\":13422:13496   */\n      swap2\n      pop\n        /* \"#utility.yul\":13505:13598   */\n      tag_356\n        /* \"#utility.yul\":13594:13597   */\n      dup3\n        /* \"#utility.yul\":13505:13598   */\n      tag_188\n      jump\t// in\n    tag_356:\n        /* \"#utility.yul\":13623:13625   */\n      0x20\n        /* \"#utility.yul\":13618:13621   */\n      dup3\n        /* \"#utility.yul\":13614:13626   */\n      add\n        /* \"#utility.yul\":13607:13626   */\n      swap1\n      pop\n        /* \"#utility.yul\":13266:13632   */\n      swap2\n      swap1\n      pop\n      jump\t// out\n        /* \"#utility.yul\":13638:14057   */\n    tag_77:\n        /* \"#utility.yul\":13804:13808   */\n      0x00\n        /* \"#utility.yul\":13842:13844   */\n      0x20\n        /* \"#utility.yul\":13831:13840   */\n      dup3\n        /* \"#utility.yul\":13827:13845   */\n      add\n        /* \"#utility.yul\":13819:13845   */\n      swap1\n      pop\n        /* \"#utility.yul\":13891:13900   */\n      dup2\n        /* \"#utility.yul\":13885:13889   */\n      dup2\n        /* \"#utility.yul\":13881:13901   */\n      sub\n        /* \"#utility.yul\":13877:13878   */\n      0x00\n        /* \"#utility.yul\":13866:13875   */\n      dup4\n        /* \"#utility.yul\":13862:13879   */\n      add\n        /* \"#utility.yul\":13855:13902   */\n      mstore\n        /* \"#utility.yul\":13919:14050   */\n      tag_358\n        /* \"#utility.yul\":14045:14049   */\n      dup2\n        /* \"#utility.yul\":13919:14050   */\n      tag_189\n      jump\t// in\n    tag_358:\n        /* \"#utility.yul\":13911:14050   */\n      swap1\n      pop\n        /* \"#utility.yul\":13638:14057   */\n      swap2\n      swap1\n      pop\n      jump\t// out\n        /* \"#utility.yul\":14063:14168   */\n    tag_190:\n        /* \"#utility.yul\":14099:14106   */\n      0x00\n        /* \"#utility.yul\":14139:14161   */\n      0xffffffffffffffffffff\n        /* \"#utility.yul\":14132:14137   */\n      dup3\n        /* \"#utility.yul\":14128:14162   */\n      and\n        /* \"#utility.yul\":14117:14162   */\n      swap1\n      pop\n        /* \"#utility.yul\":14063:14168   */\n      swap2\n      swap1\n      pop\n      jump\t// out\n        /* \"#utility.yul\":14174:14294   */\n    tag_191:\n        /* \"#utility.yul\":14246:14269   */\n      tag_361\n        /* \"#utility.yul\":14263:14268   */\n      dup2\n        /* \"#utility.yul\":14246:14269   */\n      tag_190\n      jump\t// in\n    tag_361:\n        /* \"#utility.yul\":14239:14244   */\n      dup2\n        /* \"#utility.yul\":14236:14270   */\n      eq\n        /* \"#utility.yul\":14226:14288   */\n      tag_362\n      jumpi\n        /* \"#utility.yul\":14284:14285   */\n      0x00\n        /* \"#utility.yul\":14281:14282   */\n      dup1\n        /* \"#utility.yul\":14274:14286   */\n      revert\n        /* \"#utility.yul\":14226:14288   */\n    tag_362:\n        /* \"#utility.yul\":14174:14294   */\n      pop\n      jump\t// out\n        /* \"#utility.yul\":14300:14441   */\n    tag_192:\n        /* \"#utility.yul\":14356:14361   */\n      0x00\n        /* \"#utility.yul\":14387:14393   */\n      dup2\n        /* \"#utility.yul\":14381:14394   */\n      mload\n        /* \"#utility.yul\":14372:14394   */\n      swap1\n      pop\n        /* \"#utility.yul\":14403:14435   */\n      tag_364\n        /* \"#utility.yul\":14429:14434   */\n      dup2\n        /* \"#utility.yul\":14403:14435   */\n      tag_191\n      jump\t// in\n    tag_364:\n        /* \"#utility.yul\":14300:14441   */\n      swap3\n      swap2\n      pop\n      pop\n      jump\t// out\n        /* \"#utility.yul\":14447:14523   */\n    tag_193:\n        /* \"#utility.yul\":14483:14490   */\n      0x00\n        /* \"#utility.yul\":14512:14517   */\n      dup2\n        /* \"#utility.yul\":14501:14517   */\n      swap1\n      pop\n        /* \"#utility.yul\":14447:14523   */\n      swap2\n      swap1\n      pop\n      jump\t// out\n        /* \"#utility.yul\":14529:14649   */\n    tag_194:\n        /* \"#utility.yul\":14601:14624   */\n      tag_367\n        /* \"#utility.yul\":14618:14623   */\n      dup2\n        /* \"#utility.yul\":14601:14624   */\n      tag_193\n      jump\t// in\n    tag_367:\n        /* \"#utility.yul\":14594:14599   */\n      dup2\n        /* \"#utility.yul\":14591:14625   */\n      eq\n        /* \"#utility.yul\":14581:14643   */\n      tag_368\n      jumpi\n        /* \"#utility.yul\":14639:14640   */\n      0x00\n        /* \"#utility.yul\":14636:14637   */\n      dup1\n        /* \"#utility.yul\":14629:14641   */\n      revert\n        /* \"#utility.yul\":14581:14643   */\n    tag_368:\n        /* \"#utility.yul\":14529:14649   */\n      pop\n      jump\t// out\n        /* \"#utility.yul\":14655:14796   */\n    tag_195:\n        /* \"#utility.yul\":14711:14716   */\n      0x00\n        /* \"#utility.yul\":14742:14748   */\n      dup2\n        /* \"#utility.yul\":14736:14749   */\n      mload\n        /* \"#utility.yul\":14727:14749   */\n      swap1\n      pop\n        /* \"#utility.yul\":14758:14790   */\n      tag_370\n        /* \"#utility.yul\":14784:14789   */\n      dup2\n        /* \"#utility.yul\":14758:14790   */\n      tag_194\n      jump\t// in\n    tag_370:\n        /* \"#utility.yul\":14655:14796   */\n      swap3\n      swap2\n      pop\n      pop\n      jump\t// out\n        /* \"#utility.yul\":14802:14945   */\n    tag_196:\n        /* \"#utility.yul\":14859:14864   */\n      0x00\n        /* \"#utility.yul\":14890:14896   */\n      dup2\n        /* \"#utility.yul\":14884:14897   */\n      mload\n        /* \"#utility.yul\":14875:14897   */\n      swap1\n      pop\n        /* \"#utility.yul\":14906:14939   */\n      tag_372\n        /* \"#utility.yul\":14933:14938   */\n      dup2\n        /* \"#utility.yul\":14906:14939   */\n      tag_150\n      jump\t// in\n    tag_372:\n        /* \"#utility.yul\":14802:14945   */\n      swap3\n      swap2\n      pop\n      pop\n      jump\t// out\n        /* \"#utility.yul\":14951:15922   */\n    tag_82:\n        /* \"#utility.yul\":15054:15060   */\n      0x00\n        /* \"#utility.yul\":15062:15068   */\n      dup1\n        /* \"#utility.yul\":15070:15076   */\n      0x00\n        /* \"#utility.yul\":15078:15084   */\n      dup1\n        /* \"#utility.yul\":15086:15092   */\n      0x00\n        /* \"#utility.yul\":15135:15138   */\n      0xa0\n        /* \"#utility.yul\":15123:15132   */\n      dup7\n        /* \"#utility.yul\":15114:15121   */\n      dup9\n        /* \"#utility.yul\":15110:15133   */\n      sub\n        /* \"#utility.yul\":15106:15139   */\n      slt\n        /* \"#utility.yul\":15103:15223   */\n      iszero\n      tag_374\n      jumpi\n        /* \"#utility.yul\":15142:15221   */\n      tag_375\n      tag_147\n      jump\t// in\n    tag_375:\n        /* \"#utility.yul\":15103:15223   */\n    tag_374:\n        /* \"#utility.yul\":15262:15263   */\n      0x00\n        /* \"#utility.yul\":15287:15350   */\n      tag_376\n        /* \"#utility.yul\":15342:15349   */\n      dup9\n        /* \"#utility.yul\":15333:15339   */\n      dup3\n        /* \"#utility.yul\":15322:15331   */\n      dup10\n        /* \"#utility.yul\":15318:15340   */\n      add\n        /* \"#utility.yul\":15287:15350   */\n      tag_192\n      jump\t// in\n    tag_376:\n        /* \"#utility.yul\":15277:15350   */\n      swap6\n      pop\n        /* \"#utility.yul\":15233:15360   */\n      pop\n        /* \"#utility.yul\":15399:15401   */\n      0x20\n        /* \"#utility.yul\":15425:15488   */\n      tag_377\n        /* \"#utility.yul\":15480:15487   */\n      dup9\n        /* \"#utility.yul\":15471:15477   */\n      dup3\n        /* \"#utility.yul\":15460:15469   */\n      dup10\n        /* \"#utility.yul\":15456:15478   */\n      add\n        /* \"#utility.yul\":15425:15488   */\n      tag_195\n      jump\t// in\n    tag_377:\n        /* \"#utility.yul\":15415:15488   */\n      swap5\n      pop\n        /* \"#utility.yul\":15370:15498   */\n      pop\n        /* \"#utility.yul\":15537:15539   */\n      0x40\n        /* \"#utility.yul\":15563:15627   */\n      tag_378\n        /* \"#utility.yul\":15619:15626   */\n      dup9\n        /* \"#utility.yul\":15610:15616   */\n      dup3\n        /* \"#utility.yul\":15599:15608   */\n      dup10\n        /* \"#utility.yul\":15595:15617   */\n      add\n        /* \"#utility.yul\":15563:15627   */\n      tag_196\n      jump\t// in\n    tag_378:\n        /* \"#utility.yul\":15553:15627   */\n      swap4\n      pop\n        /* \"#utility.yul\":15508:15637   */\n      pop\n        /* \"#utility.yul\":15676:15678   */\n      0x60\n        /* \"#utility.yul\":15702:15766   */\n      tag_379\n        /* \"#utility.yul\":15758:15765   */\n      dup9\n        /* \"#utility.yul\":15749:15755   */\n      dup3\n        /* \"#utility.yul\":15738:15747   */\n      dup10\n        /* \"#utility.yul\":15734:15756   */\n      add\n        /* \"#utility.yul\":15702:15766   */\n      tag_196\n      jump\t// in\n    tag_379:\n        /* \"#utility.yul\":15692:15766   */\n      swap3\n      pop\n        /* \"#utility.yul\":15647:15776   */\n      pop\n        /* \"#utility.yul\":15815:15818   */\n      0x80\n        /* \"#utility.yul\":15842:15905   */\n      tag_380\n        /* \"#utility.yul\":15897:15904   */\n      dup9\n        /* \"#utility.yul\":15888:15894   */\n      dup3\n        /* \"#utility.yul\":15877:15886   */\n      dup10\n        /* \"#utility.yul\":15873:15895   */\n      add\n        /* \"#utility.yul\":15842:15905   */\n      tag_192\n      jump\t// in\n    tag_380:\n        /* \"#utility.yul\":15832:15905   */\n      swap2\n      pop\n        /* \"#utility.yul\":15786:15915   */\n      pop\n        /* \"#utility.yul\":14951:15922   */\n      swap3\n      swap6\n      pop\n      swap3\n      swap6\n      swap1\n      swap4\n      pop\n      jump\t// out\n        /* \"#utility.yul\":15928:16108   */\n    tag_197:\n        /* \"#utility.yul\":15976:16053   */\n      0x4e487b7100000000000000000000000000000000000000000000000000000000\n        /* \"#utility.yul\":15973:15974   */\n      0x00\n        /* \"#utility.yul\":15966:16054   */\n      mstore\n        /* \"#utility.yul\":16073:16077   */\n      0x11\n        /* \"#utility.yul\":16070:16071   */\n      0x04\n        /* \"#utility.yul\":16063:16078   */\n      mstore\n        /* \"#utility.yul\":16097:16101   */\n      0x24\n        /* \"#utility.yul\":16094:16095   */\n      0x00\n        /* \"#utility.yul\":16087:16102   */\n      revert\n        /* \"#utility.yul\":16114:16524   */\n    tag_84:\n        /* \"#utility.yul\":16154:16161   */\n      0x00\n        /* \"#utility.yul\":16177:16197   */\n      tag_383\n        /* \"#utility.yul\":16195:16196   */\n      dup3\n        /* \"#utility.yul\":16177:16197   */\n      tag_149\n      jump\t// in\n    tag_383:\n        /* \"#utility.yul\":16172:16197   */\n      swap2\n      pop\n        /* \"#utility.yul\":16211:16231   */\n      tag_384\n        /* \"#utility.yul\":16229:16230   */\n      dup4\n        /* \"#utility.yul\":16211:16231   */\n      tag_149\n      jump\t// in\n    tag_384:\n        /* \"#utility.yul\":16206:16231   */\n      swap3\n      pop\n        /* \"#utility.yul\":16266:16267   */\n      dup3\n        /* \"#utility.yul\":16263:16264   */\n      dup3\n        /* \"#utility.yul\":16259:16268   */\n      mul\n        /* \"#utility.yul\":16288:16318   */\n      tag_385\n        /* \"#utility.yul\":16306:16317   */\n      dup2\n        /* \"#utility.yul\":16288:16318   */\n      tag_149\n      jump\t// in\n    tag_385:\n        /* \"#utility.yul\":16277:16318   */\n      swap2\n      pop\n        /* \"#utility.yul\":16467:16468   */\n      dup3\n        /* \"#utility.yul\":16458:16465   */\n      dup3\n        /* \"#utility.yul\":16454:16469   */\n      div\n        /* \"#utility.yul\":16451:16452   */\n      dup5\n        /* \"#utility.yul\":16448:16470   */\n      eq\n        /* \"#utility.yul\":16428:16429   */\n      dup4\n        /* \"#utility.yul\":16421:16430   */\n      iszero\n        /* \"#utility.yul\":16401:16484   */\n      or\n        /* \"#utility.yul\":16378:16517   */\n      tag_386\n      jumpi\n        /* \"#utility.yul\":16497:16515   */\n      tag_387\n      tag_197\n      jump\t// in\n    tag_387:\n        /* \"#utility.yul\":16378:16517   */\n    tag_386:\n        /* \"#utility.yul\":16162:16524   */\n      pop\n        /* \"#utility.yul\":16114:16524   */\n      swap3\n      swap2\n      pop\n      pop\n      jump\t// out\n        /* \"#utility.yul\":16530:16711   */\n    tag_198:\n        /* \"#utility.yul\":16670:16703   */\n      0x46756e64726169736572206e616d652063616e6e6f7420626520656d70747900\n        /* \"#utility.yul\":16666:16667   */\n      0x00\n        /* \"#utility.yul\":16658:16664   */\n      dup3\n        /* \"#utility.yul\":16654:16668   */\n      add\n        /* \"#utility.yul\":16647:16704   */\n      mstore\n        /* \"#utility.yul\":16530:16711   */\n      pop\n      jump\t// out\n        /* \"#utility.yul\":16717:17083   */\n    tag_199:\n        /* \"#utility.yul\":16859:16862   */\n      0x00\n        /* \"#utility.yul\":16880:16947   */\n      tag_390\n        /* \"#utility.yul\":16944:16946   */\n      0x1f\n        /* \"#utility.yul\":16939:16942   */\n      dup4\n        /* \"#utility.yul\":16880:16947   */\n      tag_172\n      jump\t// in\n    tag_390:\n        /* \"#utility.yul\":16873:16947   */\n      swap2\n      pop\n        /* \"#utility.yul\":16956:17049   */\n      tag_391\n        /* \"#utility.yul\":17045:17048   */\n      dup3\n        /* \"#utility.yul\":16956:17049   */\n      tag_198\n      jump\t// in\n    tag_391:\n        /* \"#utility.yul\":17074:17076   */\n      0x20\n        /* \"#utility.yul\":17069:17072   */\n      dup3\n        /* \"#utility.yul\":17065:17077   */\n      add\n        /* \"#utility.yul\":17058:17077   */\n      swap1\n      pop\n        /* \"#utility.yul\":16717:17083   */\n      swap2\n      swap1\n      pop\n      jump\t// out\n        /* \"#utility.yul\":17089:17508   */\n    tag_88:\n        /* \"#utility.yul\":17255:17259   */\n      0x00\n        /* \"#utility.yul\":17293:17295   */\n      0x20\n        /* \"#utility.yul\":17282:17291   */\n      dup3\n        /* \"#utility.yul\":17278:17296   */\n      add\n        /* \"#utility.yul\":17270:17296   */\n      swap1\n      pop\n        /* \"#utility.yul\":17342:17351   */\n      dup2\n        /* \"#utility.yul\":17336:17340   */\n      dup2\n        /* \"#utility.yul\":17332:17352   */\n      sub\n        /* \"#utility.yul\":17328:17329   */\n      0x00\n        /* \"#utility.yul\":17317:17326   */\n      dup4\n        /* \"#utility.yul\":17313:17330   */\n      add\n        /* \"#utility.yul\":17306:17353   */\n      mstore\n        /* \"#utility.yul\":17370:17501   */\n      tag_393\n        /* \"#utility.yul\":17496:17500   */\n      dup2\n        /* \"#utility.yul\":17370:17501   */\n      tag_199\n      jump\t// in\n    tag_393:\n        /* \"#utility.yul\":17362:17501   */\n      swap1\n      pop\n        /* \"#utility.yul\":17089:17508   */\n      swap2\n      swap1\n      pop\n      jump\t// out\n        /* \"#utility.yul\":17514:17739   */\n    tag_200:\n        /* \"#utility.yul\":17654:17688   */\n      0x46756e64726169736572206465736372697074696f6e2063616e6e6f74206265\n        /* \"#utility.yul\":17650:17651   */\n      0x00\n        /* \"#utility.yul\":17642:17648   */\n      dup3\n        /* \"#utility.yul\":17638:17652   */\n      add\n        /* \"#utility.yul\":17631:17689   */\n      mstore\n        /* \"#utility.yul\":17723:17731   */\n      0x20656d7074790000000000000000000000000000000000000000000000000000\n        /* \"#utility.yul\":17718:17720   */\n      0x20\n        /* \"#utility.yul\":17710:17716   */\n      dup3\n        /* \"#utility.yul\":17706:17721   */\n      add\n        /* \"#utility.yul\":17699:17732   */\n      mstore\n        /* \"#utility.yul\":17514:17739   */\n      pop\n      jump\t// out\n        /* \"#utility.yul\":17745:18111   */\n    tag_201:\n        /* \"#utility.yul\":17887:17890   */\n      0x00\n        /* \"#utility.yul\":17908:17975   */\n      tag_396\n        /* \"#utility.yul\":17972:17974   */\n      0x26\n        /* \"#utility.yul\":17967:17970   */\n      dup4\n        /* \"#utility.yul\":17908:17975   */\n      tag_172\n      jump\t// in\n    tag_396:\n        /* \"#utility.yul\":17901:17975   */\n      swap2\n      pop\n        /* \"#utility.yul\":17984:18077   */\n      tag_397\n        /* \"#utility.yul\":18073:18076   */\n      dup3\n        /* \"#utility.yul\":17984:18077   */\n      tag_200\n      jump\t// in\n    tag_397:\n        /* \"#utility.yul\":18102:18104   */\n      0x40\n        /* \"#utility.yul\":18097:18100   */\n      dup3\n        /* \"#utility.yul\":18093:18105   */\n      add\n        /* \"#utility.yul\":18086:18105   */\n      swap1\n      pop\n        /* \"#utility.yul\":17745:18111   */\n      swap2\n      swap1\n      pop\n      jump\t// out\n        /* \"#utility.yul\":18117:18536   */\n    tag_91:\n        /* \"#utility.yul\":18283:18287   */\n      0x00\n        /* \"#utility.yul\":18321:18323   */\n      0x20\n        /* \"#utility.yul\":18310:18319   */\n      dup3\n        /* \"#utility.yul\":18306:18324   */\n      add\n        /* \"#utility.yul\":18298:18324   */\n      swap1\n      pop\n        /* \"#utility.yul\":18370:18379   */\n      dup2\n        /* \"#utility.yul\":18364:18368   */\n      dup2\n        /* \"#utility.yul\":18360:18380   */\n      sub\n        /* \"#utility.yul\":18356:18357   */\n      0x00\n        /* \"#utility.yul\":18345:18354   */\n      dup4\n        /* \"#utility.yul\":18341:18358   */\n      add\n        /* \"#utility.yul\":18334:18381   */\n      mstore\n        /* \"#utility.yul\":18398:18529   */\n      tag_399\n        /* \"#utility.yul\":18524:18528   */\n      dup2\n        /* \"#utility.yul\":18398:18529   */\n      tag_201\n      jump\t// in\n    tag_399:\n        /* \"#utility.yul\":18390:18529   */\n      swap1\n      pop\n        /* \"#utility.yul\":18117:18536   */\n      swap2\n      swap1\n      pop\n      jump\t// out\n        /* \"#utility.yul\":18542:18774   */\n    tag_202:\n        /* \"#utility.yul\":18682:18716   */\n      0x46756e6472616973657220676f616c20616d6f756e74206d7573742062652067\n        /* \"#utility.yul\":18678:18679   */\n      0x00\n        /* \"#utility.yul\":18670:18676   */\n      dup3\n        /* \"#utility.yul\":18666:18680   */\n      add\n        /* \"#utility.yul\":18659:18717   */\n      mstore\n        /* \"#utility.yul\":18751:18766   */\n      0x726561746572207468616e203000000000000000000000000000000000000000\n        /* \"#utility.yul\":18746:18748   */\n      0x20\n        /* \"#utility.yul\":18738:18744   */\n      dup3\n        /* \"#utility.yul\":18734:18749   */\n      add\n        /* \"#utility.yul\":18727:18767   */\n      mstore\n        /* \"#utility.yul\":18542:18774   */\n      pop\n      jump\t// out\n        /* \"#utility.yul\":18780:19146   */\n    tag_203:\n        /* \"#utility.yul\":18922:18925   */\n      0x00\n        /* \"#utility.yul\":18943:19010   */\n      tag_402\n        /* \"#utility.yul\":19007:19009   */\n      0x2d\n        /* \"#utility.yul\":19002:19005   */\n      dup4\n        /* \"#utility.yul\":18943:19010   */\n      tag_172\n      jump\t// in\n    tag_402:\n        /* \"#utility.yul\":18936:19010   */\n      swap2\n      pop\n        /* \"#utility.yul\":19019:19112   */\n      tag_403\n        /* \"#utility.yul\":19108:19111   */\n      dup3\n        /* \"#utility.yul\":19019:19112   */\n      tag_202\n      jump\t// in\n    tag_403:\n        /* \"#utility.yul\":19137:19139   */\n      0x40\n        /* \"#utility.yul\":19132:19135   */\n      dup3\n        /* \"#utility.yul\":19128:19140   */\n      add\n        /* \"#utility.yul\":19121:19140   */\n      swap1\n      pop\n        /* \"#utility.yul\":18780:19146   */\n      swap2\n      swap1\n      pop\n      jump\t// out\n        /* \"#utility.yul\":19152:19571   */\n    tag_94:\n        /* \"#utility.yul\":19318:19322   */\n      0x00\n        /* \"#utility.yul\":19356:19358   */\n      0x20\n        /* \"#utility.yul\":19345:19354   */\n      dup3\n        /* \"#utility.yul\":19341:19359   */\n      add\n        /* \"#utility.yul\":19333:19359   */\n      swap1\n      pop\n        /* \"#utility.yul\":19405:19414   */\n      dup2\n        /* \"#utility.yul\":19399:19403   */\n      dup2\n        /* \"#utility.yul\":19395:19415   */\n      sub\n        /* \"#utility.yul\":19391:19392   */\n      0x00\n        /* \"#utility.yul\":19380:19389   */\n      dup4\n        /* \"#utility.yul\":19376:19393   */\n      add\n        /* \"#utility.yul\":19369:19416   */\n      mstore\n        /* \"#utility.yul\":19433:19564   */\n      tag_405\n        /* \"#utility.yul\":19559:19563   */\n      dup2\n        /* \"#utility.yul\":19433:19564   */\n      tag_203\n      jump\t// in\n    tag_405:\n        /* \"#utility.yul\":19425:19564   */\n      swap1\n      pop\n        /* \"#utility.yul\":19152:19571   */\n      swap2\n      swap1\n      pop\n      jump\t// out\n        /* \"#utility.yul\":19577:19757   */\n    tag_204:\n        /* \"#utility.yul\":19625:19702   */\n      0x4e487b7100000000000000000000000000000000000000000000000000000000\n        /* \"#utility.yul\":19622:19623   */\n      0x00\n        /* \"#utility.yul\":19615:19703   */\n      mstore\n        /* \"#utility.yul\":19722:19726   */\n      0x22\n        /* \"#utility.yul\":19719:19720   */\n      0x04\n        /* \"#utility.yul\":19712:19727   */\n      mstore\n        /* \"#utility.yul\":19746:19750   */\n      0x24\n        /* \"#utility.yul\":19743:19744   */\n      0x00\n        /* \"#utility.yul\":19736:19751   */\n      revert\n        /* \"#utility.yul\":19763:20083   */\n    tag_136:\n        /* \"#utility.yul\":19807:19813   */\n      0x00\n        /* \"#utility.yul\":19844:19845   */\n      0x02\n        /* \"#utility.yul\":19838:19842   */\n      dup3\n        /* \"#utility.yul\":19834:19846   */\n      div\n        /* \"#utility.yul\":19824:19846   */\n      swap1\n      pop\n        /* \"#utility.yul\":19891:19892   */\n      0x01\n        /* \"#utility.yul\":19885:19889   */\n      dup3\n        /* \"#utility.yul\":19881:19893   */\n      and\n        /* \"#utility.yul\":19912:19930   */\n      dup1\n        /* \"#utility.yul\":19902:19983   */\n      tag_408\n      jumpi\n        /* \"#utility.yul\":19968:19972   */\n      0x7f\n        /* \"#utility.yul\":19960:19966   */\n      dup3\n        /* \"#utility.yul\":19956:19973   */\n      and\n        /* \"#utility.yul\":19946:19973   */\n      swap2\n      pop\n        /* \"#utility.yul\":19902:19983   */\n    tag_408:\n        /* \"#utility.yul\":20030:20032   */\n      0x20\n        /* \"#utility.yul\":20022:20028   */\n      dup3\n        /* \"#utility.yul\":20019:20033   */\n      lt\n        /* \"#utility.yul\":19999:20017   */\n      dup2\n        /* \"#utility.yul\":19996:20034   */\n      sub\n        /* \"#utility.yul\":19993:20077   */\n      tag_409\n      jumpi\n        /* \"#utility.yul\":20049:20067   */\n      tag_410\n      tag_204\n      jump\t// in\n    tag_410:\n        /* \"#utility.yul\":19993:20077   */\n    tag_409:\n        /* \"#utility.yul\":19814:20083   */\n      pop\n        /* \"#utility.yul\":19763:20083   */\n      swap2\n      swap1\n      pop\n      jump\t// out\n        /* \"#utility.yul\":20089:20230   */\n    tag_205:\n        /* \"#utility.yul\":20138:20142   */\n      0x00\n        /* \"#utility.yul\":20161:20164   */\n      dup2\n        /* \"#utility.yul\":20153:20164   */\n      swap1\n      pop\n        /* \"#utility.yul\":20184:20187   */\n      dup2\n        /* \"#utility.yul\":20181:20182   */\n      0x00\n        /* \"#utility.yul\":20174:20188   */\n      mstore\n        /* \"#utility.yul\":20218:20222   */\n      0x20\n        /* \"#utility.yul\":20215:20216   */\n      0x00\n        /* \"#utility.yul\":20205:20223   */\n      keccak256\n        /* \"#utility.yul\":20197:20223   */\n      swap1\n      pop\n        /* \"#utility.yul\":20089:20230   */\n      swap2\n      swap1\n      pop\n      jump\t// out\n        /* \"#utility.yul\":20236:20329   */\n    tag_206:\n        /* \"#utility.yul\":20273:20279   */\n      0x00\n        /* \"#utility.yul\":20320:20322   */\n      0x20\n        /* \"#utility.yul\":20315:20317   */\n      0x1f\n        /* \"#utility.yul\":20308:20313   */\n      dup4\n        /* \"#utility.yul\":20304:20318   */\n      add\n        /* \"#utility.yul\":20300:20323   */\n      div\n        /* \"#utility.yul\":20290:20323   */\n      swap1\n      pop\n        /* \"#utility.yul\":20236:20329   */\n      swap2\n      swap1\n      pop\n      jump\t// out\n        /* \"#utility.yul\":20335:20442   */\n    tag_207:\n        /* \"#utility.yul\":20379:20387   */\n      0x00\n        /* \"#utility.yul\":20429:20434   */\n      dup3\n        /* \"#utility.yul\":20423:20427   */\n      dup3\n        /* \"#utility.yul\":20419:20435   */\n      shl\n        /* \"#utility.yul\":20398:20435   */\n      swap1\n      pop\n        /* \"#utility.yul\":20335:20442   */\n      swap3\n      swap2\n      pop\n      pop\n      jump\t// out\n        /* \"#utility.yul\":20448:20841   */\n    tag_208:\n        /* \"#utility.yul\":20517:20523   */\n      0x00\n        /* \"#utility.yul\":20567:20568   */\n      0x08\n        /* \"#utility.yul\":20555:20565   */\n      dup4\n        /* \"#utility.yul\":20551:20569   */\n      mul\n        /* \"#utility.yul\":20590:20687   */\n      tag_415\n        /* \"#utility.yul\":20620:20686   */\n      0xffffffffffffffffffffffffffffffffffffffffffffffffffffffffffffffff\n        /* \"#utility.yul\":20609:20618   */\n      dup3\n        /* \"#utility.yul\":20590:20687   */\n      tag_207\n      jump\t// in\n    tag_415:\n        /* \"#utility.yul\":20708:20747   */\n      tag_416\n        /* \"#utility.yul\":20738:20746   */\n      dup7\n        /* \"#utility.yul\":20727:20736   */\n      dup4\n        /* \"#utility.yul\":20708:20747   */\n      tag_207\n      jump\t// in\n    tag_416:\n        /* \"#utility.yul\":20696:20747   */\n      swap6\n      pop\n        /* \"#utility.yul\":20780:20784   */\n      dup1\n        /* \"#utility.yul\":20776:20785   */\n      not\n        /* \"#utility.yul\":20769:20774   */\n      dup5\n        /* \"#utility.yul\":20765:20786   */\n      and\n        /* \"#utility.yul\":20756:20786   */\n      swap4\n      pop\n        /* \"#utility.yul\":20829:20833   */\n      dup1\n        /* \"#utility.yul\":20819:20827   */\n      dup7\n        /* \"#utility.yul\":20815:20834   */\n      and\n        /* \"#utility.yul\":20808:20813   */\n      dup5\n        /* \"#utility.yul\":20805:20835   */\n      or\n        /* \"#utility.yul\":20795:20835   */\n      swap3\n      pop\n        /* \"#utility.yul\":20524:20841   */\n      pop\n      pop\n        /* \"#utility.yul\":20448:20841   */\n      swap4\n      swap3\n      pop\n      pop\n      pop\n      jump\t// out\n        /* \"#utility.yul\":20847:20989   */\n    tag_209:\n        /* \"#utility.yul\":20897:20906   */\n      0x00\n        /* \"#utility.yul\":20930:20983   */\n      tag_418\n        /* \"#utility.yul\":20948:20982   */\n      tag_419\n        /* \"#utility.yul\":20957:20981   */\n      tag_420\n        /* \"#utility.yul\":20975:20980   */\n      dup5\n        /* \"#utility.yul\":20957:20981   */\n      tag_149\n      jump\t// in\n    tag_420:\n        /* \"#utility.yul\":20948:20982   */\n      tag_154\n      jump\t// in\n    tag_419:\n        /* \"#utility.yul\":20930:20983   */\n      tag_149\n      jump\t// in\n    tag_418:\n        /* \"#utility.yul\":20917:20983   */\n      swap1\n      pop\n        /* \"#utility.yul\":20847:20989   */\n      swap2\n      swap1\n      pop\n      jump\t// out\n        /* \"#utility.yul\":20995:21070   */\n    tag_210:\n        /* \"#utility.yul\":21038:21041   */\n      0x00\n        /* \"#utility.yul\":21059:21064   */\n      dup2\n        /* \"#utility.yul\":21052:21064   */\n      swap1\n      pop\n        /* \"#utility.yul\":20995:21070   */\n      swap2\n      swap1\n      pop\n      jump\t// out\n        /* \"#utility.yul\":21076:21345   */\n    tag_211:\n        /* \"#utility.yul\":21186:21225   */\n      tag_423\n        /* \"#utility.yul\":21217:21224   */\n      dup4\n        /* \"#utility.yul\":21186:21225   */\n      tag_209\n      jump\t// in\n    tag_423:\n        /* \"#utility.yul\":21247:21338   */\n      tag_424\n        /* \"#utility.yul\":21296:21337   */\n      tag_425\n        /* \"#utility.yul\":21320:21336   */\n      dup3\n        /* \"#utility.yul\":21296:21337   */\n      tag_210\n      jump\t// in\n    tag_425:\n        /* \"#utility.yul\":21288:21294   */\n      dup5\n        /* \"#utility.yul\":21281:21285   */\n      dup5\n        /* \"#utility.yul\":21275:21286   */\n      sload\n        /* \"#utility.yul\":21247:21338   */\n      tag_208\n      jump\t// in\n    tag_424:\n        /* \"#utility.yul\":21241:21245   */\n      dup3\n        /* \"#utility.yul\":21234:21339   */\n      sstore\n        /* \"#utility.yul\":21152:21345   */\n      pop\n        /* \"#utility.yul\":21076:21345   */\n      pop\n      pop\n      pop\n      jump\t// out\n        /* \"#utility.yul\":21351:21424   */\n    tag_212:\n        /* \"#utility.yul\":21396:21399   */\n      0x00\n        /* \"#utility.yul\":21351:21424   */\n      swap1\n      jump\t// out\n        /* \"#utility.yul\":21430:21619   */\n    tag_213:\n        /* \"#utility.yul\":21507:21539   */\n      tag_428\n      tag_212\n      jump\t// in\n    tag_428:\n        /* \"#utility.yul\":21548:21613   */\n      tag_429\n        /* \"#utility.yul\":21606:21612   */\n      dup2\n        /* \"#utility.yul\":21598:21604   */\n      dup5\n        /* \"#utility.yul\":21592:21596   */\n      dup5\n        /* \"#utility.yul\":21548:21613   */\n      tag_211\n      jump\t// in\n    tag_429:\n        /* \"#utility.yul\":21483:21619   */\n      pop\n        /* \"#utility.yul\":21430:21619   */\n      pop\n      pop\n      jump\t// out\n        /* \"#utility.yul\":21625:21811   */\n    tag_214:\n        /* \"#utility.yul\":21685:21805   */\n    tag_431:\n        /* \"#utility.yul\":21702:21705   */\n      dup2\n        /* \"#utility.yul\":21695:21700   */\n      dup2\n        /* \"#utility.yul\":21692:21706   */\n      lt\n        /* \"#utility.yul\":21685:21805   */\n      iszero\n      tag_433\n      jumpi\n        /* \"#utility.yul\":21756:21795   */\n      tag_434\n        /* \"#utility.yul\":21793:21794   */\n      0x00\n        /* \"#utility.yul\":21786:21791   */\n      dup3\n        /* \"#utility.yul\":21756:21795   */\n      tag_213\n      jump\t// in\n    tag_434:\n        /* \"#utility.yul\":21729:21730   */\n      0x01\n        /* \"#utility.yul\":21722:21727   */\n      dup2\n        /* \"#utility.yul\":21718:21731   */\n      add\n        /* \"#utility.yul\":21709:21731   */\n      swap1\n      pop\n        /* \"#utility.yul\":21685:21805   */\n      jump(tag_431)\n    tag_433:\n        /* \"#utility.yul\":21625:21811   */\n      pop\n      pop\n      jump\t// out\n        /* \"#utility.yul\":21817:22360   */\n    tag_215:\n        /* \"#utility.yul\":21918:21920   */\n      0x1f\n        /* \"#utility.yul\":21913:21916   */\n      dup3\n        /* \"#utility.yul\":21910:21921   */\n      gt\n        /* \"#utility.yul\":21907:22353   */\n      iszero\n      tag_436\n      jumpi\n        /* \"#utility.yul\":21952:21990   */\n      tag_437\n        /* \"#utility.yul\":21984:21989   */\n      dup2\n        /* \"#utility.yul\":21952:21990   */\n      tag_205\n      jump\t// in\n    tag_437:\n        /* \"#utility.yul\":22036:22065   */\n      tag_438\n        /* \"#utility.yul\":22054:22064   */\n      dup5\n        /* \"#utility.yul\":22036:22065   */\n      tag_206\n      jump\t// in\n    tag_438:\n        /* \"#utility.yul\":22026:22034   */\n      dup2\n        /* \"#utility.yul\":22022:22066   */\n      add\n        /* \"#utility.yul\":22219:22221   */\n      0x20\n        /* \"#utility.yul\":22207:22217   */\n      dup6\n        /* \"#utility.yul\":22204:22222   */\n      lt\n        /* \"#utility.yul\":22201:22250   */\n      iszero\n      tag_439\n      jumpi\n        /* \"#utility.yul\":22240:22248   */\n      dup2\n        /* \"#utility.yul\":22225:22248   */\n      swap1\n      pop\n        /* \"#utility.yul\":22201:22250   */\n    tag_439:\n        /* \"#utility.yul\":22263:22343   */\n      tag_440\n        /* \"#utility.yul\":22319:22341   */\n      tag_441\n        /* \"#utility.yul\":22337:22340   */\n      dup6\n        /* \"#utility.yul\":22319:22341   */\n      tag_206\n      jump\t// in\n    tag_441:\n        /* \"#utility.yul\":22309:22317   */\n      dup4\n        /* \"#utility.yul\":22305:22342   */\n      add\n        /* \"#utility.yul\":22292:22303   */\n      dup3\n        /* \"#utility.yul\":22263:22343   */\n      tag_214\n      jump\t// in\n    tag_440:\n        /* \"#utility.yul\":21922:22353   */\n      pop\n      pop\n        /* \"#utility.yul\":21907:22353   */\n    tag_436:\n        /* \"#utility.yul\":21817:22360   */\n      pop\n      pop\n      pop\n      jump\t// out\n        /* \"#utility.yul\":22366:22483   */\n    tag_216:\n        /* \"#utility.yul\":22420:22428   */\n      0x00\n        /* \"#utility.yul\":22470:22475   */\n      dup3\n        /* \"#utility.yul\":22464:22468   */\n      dup3\n        /* \"#utility.yul\":22460:22476   */\n      shr\n        /* \"#utility.yul\":22439:22476   */\n      swap1\n      pop\n        /* \"#utility.yul\":22366:22483   */\n      swap3\n      swap2\n      pop\n      pop\n      jump\t// out\n        /* \"#utility.yul\":22489:22658   */\n    tag_217:\n        /* \"#utility.yul\":22533:22539   */\n      0x00\n        /* \"#utility.yul\":22566:22617   */\n      tag_444\n        /* \"#utility.yul\":22614:22615   */\n      0x00\n        /* \"#utility.yul\":22610:22616   */\n      not\n        /* \"#utility.yul\":22602:22607   */\n      dup5\n        /* \"#utility.yul\":22599:22600   */\n      0x08\n        /* \"#utility.yul\":22595:22608   */\n      mul\n        /* \"#utility.yul\":22566:22617   */\n      tag_216\n      jump\t// in\n    tag_444:\n        /* \"#utility.yul\":22562:22618   */\n      not\n        /* \"#utility.yul\":22647:22651   */\n      dup1\n        /* \"#utility.yul\":22641:22645   */\n      dup4\n        /* \"#utility.yul\":22637:22652   */\n      and\n        /* \"#utility.yul\":22627:22652   */\n      swap2\n      pop\n        /* \"#utility.yul\":22540:22658   */\n      pop\n        /* \"#utility.yul\":22489:22658   */\n      swap3\n      swap2\n      pop\n      pop\n      jump\t// out\n        /* \"#utility.yul\":22663:22958   */\n    tag_218:\n        /* \"#utility.yul\":22739:22743   */\n      0x00\n        /* \"#utility.yul\":22885:22914   */\n      tag_446\n        /* \"#utility.yul\":22910:22913   */\n      dup4\n        /* \"#utility.yul\":22904:22908   */\n      dup4\n        /* \"#utility.yul\":22885:22914   */\n      tag_217\n      jump\t// in\n    tag_446:\n        /* \"#utility.yul\":22877:22914   */\n      swap2\n      pop\n        /* \"#utility.yul\":22947:22950   */\n      dup3\n        /* \"#utility.yul\":22944:22945   */\n      0x02\n        /* \"#utility.yul\":22940:22951   */\n      mul\n        /* \"#utility.yul\":22934:22938   */\n      dup3\n        /* \"#utility.yul\":22931:22952   */\n      or\n        /* \"#utility.yul\":22923:22952   */\n      swap1\n      pop\n        /* \"#utility.yul\":22663:22958   */\n      swap3\n      swap2\n      pop\n      pop\n      jump\t// out\n        /* \"#utility.yul\":22963:24358   */\n    tag_99:\n        /* \"#utility.yul\":23080:23117   */\n      tag_448\n        /* \"#utility.yul\":23113:23116   */\n      dup3\n        /* \"#utility.yul\":23080:23117   */\n      tag_171\n      jump\t// in\n    tag_448:\n        /* \"#utility.yul\":23182:23200   */\n      0xffffffffffffffff\n        /* \"#utility.yul\":23174:23180   */\n      dup2\n        /* \"#utility.yul\":23171:23201   */\n      gt\n        /* \"#utility.yul\":23168:23224   */\n      iszero\n      tag_449\n      jumpi\n        /* \"#utility.yul\":23204:23222   */\n      tag_450\n      tag_164\n      jump\t// in\n    tag_450:\n        /* \"#utility.yul\":23168:23224   */\n    tag_449:\n        /* \"#utility.yul\":23248:23286   */\n      tag_451\n        /* \"#utility.yul\":23280:23284   */\n      dup3\n        /* \"#utility.yul\":23274:23285   */\n      sload\n        /* \"#utility.yul\":23248:23286   */\n      tag_136\n      jump\t// in\n    tag_451:\n        /* \"#utility.yul\":23333:23400   */\n      tag_452\n        /* \"#utility.yul\":23393:23399   */\n      dup3\n        /* \"#utility.yul\":23385:23391   */\n      dup3\n        /* \"#utility.yul\":23379:23383   */\n      dup6\n        /* \"#utility.yul\":23333:23400   */\n      tag_215\n      jump\t// in\n    tag_452:\n        /* \"#utility.yul\":23427:23428   */\n      0x00\n        /* \"#utility.yul\":23451:23455   */\n      0x20\n        /* \"#utility.yul\":23438:23455   */\n      swap1\n      pop\n        /* \"#utility.yul\":23483:23485   */\n      0x1f\n        /* \"#utility.yul\":23475:23481   */\n      dup4\n        /* \"#utility.yul\":23472:23486   */\n      gt\n        /* \"#utility.yul\":23500:23501   */\n      0x01\n        /* \"#utility.yul\":23495:24113   */\n      dup2\n      eq\n      tag_454\n      jumpi\n        /* \"#utility.yul\":24157:24158   */\n      0x00\n        /* \"#utility.yul\":24174:24180   */\n      dup5\n        /* \"#utility.yul\":24171:24248   */\n      iszero\n      tag_455\n      jumpi\n        /* \"#utility.yul\":24223:24232   */\n      dup3\n        /* \"#utility.yul\":24218:24221   */\n      dup8\n        /* \"#utility.yul\":24214:24233   */\n      add\n        /* \"#utility.yul\":24208:24234   */\n      mload\n        /* \"#utility.yul\":24199:24234   */\n      swap1\n      pop\n        /* \"#utility.yul\":24171:24248   */\n    tag_455:\n        /* \"#utility.yul\":24274:24341   */\n      tag_456\n        /* \"#utility.yul\":24334:24340   */\n      dup6\n        /* \"#utility.yul\":24327:24332   */\n      dup3\n        /* \"#utility.yul\":24274:24341   */\n      tag_218\n      jump\t// in\n    tag_456:\n        /* \"#utility.yul\":24268:24272   */\n      dup7\n        /* \"#utility.yul\":24261:24342   */\n      sstore\n        /* \"#utility.yul\":24130:24352   */\n      pop\n        /* \"#utility.yul\":23465:24352   */\n      jump(tag_453)\n        /* \"#utility.yul\":23495:24113   */\n    tag_454:\n        /* \"#utility.yul\":23547:23551   */\n      0x1f\n        /* \"#utility.yul\":23543:23552   */\n      not\n        /* \"#utility.yul\":23535:23541   */\n      dup5\n        /* \"#utility.yul\":23531:23553   */\n      and\n        /* \"#utility.yul\":23581:23618   */\n      tag_457\n        /* \"#utility.yul\":23613:23617   */\n      dup7\n        /* \"#utility.yul\":23581:23618   */\n      tag_205\n      jump\t// in\n    tag_457:\n        /* \"#utility.yul\":23640:23641   */\n      0x00\n        /* \"#utility.yul\":23654:23862   */\n    tag_458:\n        /* \"#utility.yul\":23668:23675   */\n      dup3\n        /* \"#utility.yul\":23665:23666   */\n      dup2\n        /* \"#utility.yul\":23662:23676   */\n      lt\n        /* \"#utility.yul\":23654:23862   */\n      iszero\n      tag_460\n      jumpi\n        /* \"#utility.yul\":23747:23756   */\n      dup5\n        /* \"#utility.yul\":23742:23745   */\n      dup10\n        /* \"#utility.yul\":23738:23757   */\n      add\n        /* \"#utility.yul\":23732:23758   */\n      mload\n        /* \"#utility.yul\":23724:23730   */\n      dup3\n        /* \"#utility.yul\":23717:23759   */\n      sstore\n        /* \"#utility.yul\":23798:23799   */\n      0x01\n        /* \"#utility.yul\":23790:23796   */\n      dup3\n        /* \"#utility.yul\":23786:23800   */\n      add\n        /* \"#utility.yul\":23776:23800   */\n      swap2\n      pop\n        /* \"#utility.yul\":23845:23847   */\n      0x20\n        /* \"#utility.yul\":23834:23843   */\n      dup6\n        /* \"#utility.yul\":23830:23848   */\n      add\n        /* \"#utility.yul\":23817:23848   */\n      swap5\n      pop\n        /* \"#utility.yul\":23691:23695   */\n      0x20\n        /* \"#utility.yul\":23688:23689   */\n      dup2\n        /* \"#utility.yul\":23684:23696   */\n      add\n        /* \"#utility.yul\":23679:23696   */\n      swap1\n      pop\n        /* \"#utility.yul\":23654:23862   */\n      jump(tag_458)\n    tag_460:\n        /* \"#utility.yul\":23890:23896   */\n      dup7\n        /* \"#utility.yul\":23881:23888   */\n      dup4\n        /* \"#utility.yul\":23878:23897   */\n      lt\n        /* \"#utility.yul\":23875:24054   */\n      iszero\n      tag_461\n      jumpi\n        /* \"#utility.yul\":23948:23957   */\n      dup5\n        /* \"#utility.yul\":23943:23946   */\n      dup10\n        /* \"#utility.yul\":23939:23958   */\n      add\n        /* \"#utility.yul\":23933:23959   */\n      mload\n        /* \"#utility.yul\":23991:24039   */\n      tag_462\n        /* \"#utility.yul\":24033:24037   */\n      0x1f\n        /* \"#utility.yul\":24025:24031   */\n      dup10\n        /* \"#utility.yul\":24021:24038   */\n      and\n        /* \"#utility.yul\":24010:24019   */\n      dup3\n        /* \"#utility.yul\":23991:24039   */\n      tag_217\n      jump\t// in\n    tag_462:\n        /* \"#utility.yul\":23983:23989   */\n      dup4\n        /* \"#utility.yul\":23976:24040   */\n      sstore\n        /* \"#utility.yul\":23898:24054   */\n      pop\n        /* \"#utility.yul\":23875:24054   */\n    tag_461:\n        /* \"#utility.yul\":24100:24101   */\n      0x01\n        /* \"#utility.yul\":24096:24097   */\n      0x02\n        /* \"#utility.yul\":24088:24094   */\n      dup9\n        /* \"#utility.yul\":24084:24098   */\n      mul\n        /* \"#utility.yul\":24080:24102   */\n      add\n        /* \"#utility.yul\":24074:24078   */\n      dup9\n        /* \"#utility.yul\":24067:24103   */\n      sstore\n        /* \"#utility.yul\":23502:24113   */\n      pop\n      pop\n      pop\n        /* \"#utility.yul\":23465:24352   */\n    tag_453:\n      pop\n        /* \"#utility.yul\":23055:24358   */\n      pop\n      pop\n      pop\n        /* \"#utility.yul\":22963:24358   */\n      pop\n      pop\n      jump\t// out\n        /* \"#utility.yul\":24364:24538   */\n    tag_219:\n        /* \"#utility.yul\":24504:24530   */\n      0x46756e64726169736572206973206e6f74206163746976650000000000000000\n        /* \"#utility.yul\":24500:24501   */\n      0x00\n        /* \"#utility.yul\":24492:24498   */\n      dup3\n        /* \"#utility.yul\":24488:24502   */\n      add\n        /* \"#utility.yul\":24481:24531   */\n      mstore\n        /* \"#utility.yul\":24364:24538   */\n      pop\n      jump\t// out\n        /* \"#utility.yul\":24544:24910   */\n    tag_220:\n        /* \"#utility.yul\":24686:24689   */\n      0x00\n        /* \"#utility.yul\":24707:24774   */\n      tag_465\n        /* \"#utility.yul\":24771:24773   */\n      0x18\n        /* \"#utility.yul\":24766:24769   */\n      dup4\n        /* \"#utility.yul\":24707:24774   */\n      tag_172\n      jump\t// in\n    tag_465:\n        /* \"#utility.yul\":24700:24774   */\n      swap2\n      pop\n        /* \"#utility.yul\":24783:24876   */\n      tag_466\n        /* \"#utility.yul\":24872:24875   */\n      dup3\n        /* \"#utility.yul\":24783:24876   */\n      tag_219\n      jump\t// in\n    tag_466:\n        /* \"#utility.yul\":24901:24903   */\n      0x20\n        /* \"#utility.yul\":24896:24899   */\n      dup3\n        /* \"#utility.yul\":24892:24904   */\n      add\n        /* \"#utility.yul\":24885:24904   */\n      swap1\n      pop\n        /* \"#utility.yul\":24544:24910   */\n      swap2\n      swap1\n      pop\n      jump\t// out\n        /* \"#utility.yul\":24916:25335   */\n    tag_116:\n        /* \"#utility.yul\":25082:25086   */\n      0x00\n        /* \"#utility.yul\":25120:25122   */\n      0x20\n        /* \"#utility.yul\":25109:25118   */\n      dup3\n        /* \"#utility.yul\":25105:25123   */\n      add\n        /* \"#utility.yul\":25097:25123   */\n      swap1\n      pop\n        /* \"#utility.yul\":25169:25178   */\n      dup2\n        /* \"#utility.yul\":25163:25167   */\n      dup2\n        /* \"#utility.yul\":25159:25179   */\n      sub\n        /* \"#utility.yul\":25155:25156   */\n      0x00\n        /* \"#utility.yul\":25144:25153   */\n      dup4\n        /* \"#utility.yul\":25140:25157   */\n      add\n        /* \"#utility.yul\":25133:25180   */\n      mstore\n        /* \"#utility.yul\":25197:25328   */\n      tag_468\n        /* \"#utility.yul\":25323:25327   */\n      dup2\n        /* \"#utility.yul\":25197:25328   */\n      tag_220\n      jump\t// in\n    tag_468:\n        /* \"#utility.yul\":25189:25328   */\n      swap1\n      pop\n        /* \"#utility.yul\":24916:25335   */\n      swap2\n      swap1\n      pop\n      jump\t// out\n        /* \"#utility.yul\":25341:25562   */\n    tag_221:\n        /* \"#utility.yul\":25481:25515   */\n      0x53656e7420616d6f756e74206d7573742062652067726561746572207468616e\n        /* \"#utility.yul\":25477:25478   */\n      0x00\n        /* \"#utility.yul\":25469:25475   */\n      dup3\n        /* \"#utility.yul\":25465:25479   */\n      add\n        /* \"#utility.yul\":25458:25516   */\n      mstore\n        /* \"#utility.yul\":25550:25554   */\n      0x2030000000000000000000000000000000000000000000000000000000000000\n        /* \"#utility.yul\":25545:25547   */\n      0x20\n        /* \"#utility.yul\":25537:25543   */\n      dup3\n        /* \"#utility.yul\":25533:25548   */\n      add\n        /* \"#utility.yul\":25526:25555   */\n      mstore\n        /* \"#utility.yul\":25341:25562   */\n      pop\n      jump\t// out\n        /* \"#utility.yul\":25568:25934   */\n    tag_222:\n        /* \"#utility.yul\":25710:25713   */\n      0x00\n        /* \"#utility.yul\":25731:25798   */\n      tag_471\n        /* \"#utility.yul\":25795:25797   */\n      0x22\n        /* \"#utility.yul\":25790:25793   */\n      dup4\n        /* \"#utility.yul\":25731:25798   */\n      tag_172\n      jump\t// in\n    tag_471:\n        /* \"#utility.yul\":25724:25798   */\n      swap2\n      pop\n        /* \"#utility.yul\":25807:25900   */\n      tag_472\n        /* \"#utility.yul\":25896:25899   */\n      dup3\n        /* \"#utility.yul\":25807:25900   */\n      tag_221\n      jump\t// in\n    tag_472:\n        /* \"#utility.yul\":25925:25927   */\n      0x40\n        /* \"#utility.yul\":25920:25923   */\n      dup3\n        /* \"#utility.yul\":25916:25928   */\n      add\n        /* \"#utility.yul\":25909:25928   */\n      swap1\n      pop\n        /* \"#utility.yul\":25568:25934   */\n      swap2\n      swap1\n      pop\n      jump\t// out\n        /* \"#utility.yul\":25940:26359   */\n    tag_119:\n        /* \"#utility.yul\":26106:26110   */\n      0x00\n        /* \"#utility.yul\":26144:26146   */\n      0x20\n        /* \"#utility.yul\":26133:26142   */\n      dup3\n        /* \"#utility.yul\":26129:26147   */\n      add\n        /* \"#utility.yul\":26121:26147   */\n      swap1\n      pop\n        /* \"#utility.yul\":26193:26202   */\n      dup2\n        /* \"#utility.yul\":26187:26191   */\n      dup2\n        /* \"#utility.yul\":26183:26203   */\n      sub\n        /* \"#utility.yul\":26179:26180   */\n      0x00\n        /* \"#utility.yul\":26168:26177   */\n      dup4\n        /* \"#utility.yul\":26164:26181   */\n      add\n        /* \"#utility.yul\":26157:26204   */\n      mstore\n        /* \"#utility.yul\":26221:26352   */\n      tag_474\n        /* \"#utility.yul\":26347:26351   */\n      dup2\n        /* \"#utility.yul\":26221:26352   */\n      tag_222\n      jump\t// in\n    tag_474:\n        /* \"#utility.yul\":26213:26352   */\n      swap1\n      pop\n        /* \"#utility.yul\":25940:26359   */\n      swap2\n      swap1\n      pop\n      jump\t// out\n        /* \"#utility.yul\":26365:26556   */\n    tag_123:\n        /* \"#utility.yul\":26405:26408   */\n      0x00\n        /* \"#utility.yul\":26424:26444   */\n      tag_476\n        /* \"#utility.yul\":26442:26443   */\n      dup3\n        /* \"#utility.yul\":26424:26444   */\n      tag_149\n      jump\t// in\n    tag_476:\n        /* \"#utility.yul\":26419:26444   */\n      swap2\n      pop\n        /* \"#utility.yul\":26458:26478   */\n      tag_477\n        /* \"#utility.yul\":26476:26477   */\n      dup4\n        /* \"#utility.yul\":26458:26478   */\n      tag_149\n      jump\t// in\n    tag_477:\n        /* \"#utility.yul\":26453:26478   */\n      swap3\n      pop\n        /* \"#utility.yul\":26501:26502   */\n      dup3\n        /* \"#utility.yul\":26498:26499   */\n      dup3\n        /* \"#utility.yul\":26494:26503   */\n      add\n        /* \"#utility.yul\":26487:26503   */\n      swap1\n      pop\n        /* \"#utility.yul\":26522:26525   */\n      dup1\n        /* \"#utility.yul\":26519:26520   */\n      dup3\n        /* \"#utility.yul\":26516:26526   */\n      gt\n        /* \"#utility.yul\":26513:26549   */\n      iszero\n      tag_478\n      jumpi\n        /* \"#utility.yul\":26529:26547   */\n      tag_479\n      tag_197\n      jump\t// in\n    tag_479:\n        /* \"#utility.yul\":26513:26549   */\n    tag_478:\n        /* \"#utility.yul\":26365:26556   */\n      swap3\n      swap2\n      pop\n      pop\n      jump\t// out\n        /* \"#utility.yul\":26562:26805   */\n    tag_223:\n        /* \"#utility.yul\":26702:26736   */\n      0x46756e6472616973657220646f6573206e6f74206d65657420746865206d696e\n        /* \"#utility.yul\":26698:26699   */\n      0x00\n        /* \"#utility.yul\":26690:26696   */\n      dup3\n        /* \"#utility.yul\":26686:26700   */\n      add\n        /* \"#utility.yul\":26679:26737   */\n      mstore\n        /* \"#utility.yul\":26771:26797   */\n      0x696d756d2066756e64696e6720726571756972656d656e740000000000000000\n        /* \"#utility.yul\":26766:26768   */\n      0x20\n        /* \"#utility.yul\":26758:26764   */\n      dup3\n        /* \"#utility.yul\":26754:26769   */\n      add\n        /* \"#utility.yul\":26747:26798   */\n      mstore\n        /* \"#utility.yul\":26562:26805   */\n      pop\n      jump\t// out\n        /* \"#utility.yul\":26811:27177   */\n    tag_224:\n        /* \"#utility.yul\":26953:26956   */\n      0x00\n        /* \"#utility.yul\":26974:27041   */\n      tag_482\n        /* \"#utility.yul\":27038:27040   */\n      0x38\n        /* \"#utility.yul\":27033:27036   */\n      dup4\n        /* \"#utility.yul\":26974:27041   */\n      tag_172\n      jump\t// in\n    tag_482:\n        /* \"#utility.yul\":26967:27041   */\n      swap2\n      pop\n        /* \"#utility.yul\":27050:27143   */\n      tag_483\n        /* \"#utility.yul\":27139:27142   */\n      dup3\n        /* \"#utility.yul\":27050:27143   */\n      tag_223\n      jump\t// in\n    tag_483:\n        /* \"#utility.yul\":27168:27170   */\n      0x40\n        /* \"#utility.yul\":27163:27166   */\n      dup3\n        /* \"#utility.yul\":27159:27171   */\n      add\n        /* \"#utility.yul\":27152:27171   */\n      swap1\n      pop\n        /* \"#utility.yul\":26811:27177   */\n      swap2\n      swap1\n      pop\n      jump\t// out\n        /* \"#utility.yul\":27183:27602   */\n    tag_126:\n        /* \"#utility.yul\":27349:27353   */\n      0x00\n        /* \"#utility.yul\":27387:27389   */\n      0x20\n        /* \"#utility.yul\":27376:27385   */\n      dup3\n        /* \"#utility.yul\":27372:27390   */\n      add\n        /* \"#utility.yul\":27364:27390   */\n      swap1\n      pop\n        /* \"#utility.yul\":27436:27445   */\n      dup2\n        /* \"#utility.yul\":27430:27434   */\n      dup2\n        /* \"#utility.yul\":27426:27446   */\n      sub\n        /* \"#utility.yul\":27422:27423   */\n      0x00\n        /* \"#utility.yul\":27411:27420   */\n      dup4\n        /* \"#utility.yul\":27407:27424   */\n      add\n        /* \"#utility.yul\":27400:27447   */\n      mstore\n        /* \"#utility.yul\":27464:27595   */\n      tag_485\n        /* \"#utility.yul\":27590:27594   */\n      dup2\n        /* \"#utility.yul\":27464:27595   */\n      tag_224\n      jump\t// in\n    tag_485:\n        /* \"#utility.yul\":27456:27595   */\n      swap1\n      pop\n        /* \"#utility.yul\":27183:27602   */\n      swap2\n      swap1\n      pop\n      jump\t// out\n        /* \"#utility.yul\":27608:27940   */\n    tag_129:\n        /* \"#utility.yul\":27729:27733   */\n      0x00\n        /* \"#utility.yul\":27767:27769   */\n      0x40\n        /* \"#utility.yul\":27756:27765   */\n      dup3\n        /* \"#utility.yul\":27752:27770   */\n      add\n        /* \"#utility.yul\":27744:27770   */\n      swap1\n      pop\n        /* \"#utility.yul\":27780:27851   */\n      tag_487\n        /* \"#utility.yul\":27848:27849   */\n      0x00\n        /* \"#utility.yul\":27837:27846   */\n      dup4\n        /* \"#utility.yul\":27833:27850   */\n      add\n        /* \"#utility.yul\":27824:27830   */\n      dup6\n        /* \"#utility.yul\":27780:27851   */\n      tag_152\n      jump\t// in\n    tag_487:\n        /* \"#utility.yul\":27861:27933   */\n      tag_488\n        /* \"#utility.yul\":27929:27931   */\n      0x20\n        /* \"#utility.yul\":27918:27927   */\n      dup4\n        /* \"#utility.yul\":27914:27932   */\n      add\n        /* \"#utility.yul\":27905:27911   */\n      dup5\n        /* \"#utility.yul\":27861:27933   */\n      tag_152\n      jump\t// in\n    tag_488:\n        /* \"#utility.yul\":27608:27940   */\n      swap4\n      swap3\n      pop\n      pop\n      pop\n      jump\t// out\n\n    auxdata: 0xa26469706673582212205f625751c2c25bada0e2768ce0a6c8d1aec927cfc07e4cdfdc1a97483db5e32a64736f6c63430008160033\n}\n",
				"bytecode": {
					"linkReferences": {},
					"object": "6080604052681b1ae4d6e2ef5000006002553480156200001d575f80fd5b5060405162001b2038038062001b2083398181016040528101906200004391906200012f565b3360015f6101000a81548173ffffffffffffffffffffffffffffffffffffffff021916908373ffffffffffffffffffffffffffffffffffffffff1602179055508060035f6101000a81548173ffffffffffffffffffffffffffffffffffffffff021916908373ffffffffffffffffffffffffffffffffffffffff160217905550506200015f565b5f80fd5b5f73ffffffffffffffffffffffffffffffffffffffff82169050919050565b5f620000f982620000ce565b9050919050565b6200010b81620000ed565b811462000116575f80fd5b50565b5f81519050620001298162000100565b92915050565b5f60208284031215620001475762000146620000ca565b5b5f620001568482850162000119565b91505092915050565b6119b3806200016d5f395ff3fe60806040526004361061007a575f3560e01c80638da5cb5b1161004d5780638da5cb5b14610136578063c50870b114610160578063ca1d209d14610188578063f38f72fb146101a45761007a565b8063155dd5ee1461007e5780633430a88c146100a657806366da13c6146100d0578063741bef1a1461010c575b5f80fd5b348015610089575f80fd5b506100a4600480360381019061009f9190610b7f565b6101e5565b005b3480156100b1575f80fd5b506100ba610432565b6040516100c79190610bb9565b60405180910390f35b3480156100db575f80fd5b506100f660048036038101906100f19190610b7f565b610438565b6040516101039190610bb9565b60405180910390f35b348015610117575f80fd5b506101206104e7565b60405161012d9190610c4c565b60405180910390f35b348015610141575f80fd5b5061014a61050c565b6040516101579190610c85565b60405180910390f35b34801561016b575f80fd5b5061018660048036038101906101819190610dda565b610531565b005b6101a2600480360381019061019d9190610b7f565b610786565b005b3480156101af575f80fd5b506101ca60048036038101906101c59190610b7f565b6109be565b6040516101dc96959493929190610f4f565b60405180910390f35b60015f9054906101000a900473ffffffffffffffffffffffffffffffffffffffff1673ffffffffffffffffffffffffffffffffffffffff163373ffffffffffffffffffffffffffffffffffffffff1614610274576040517f08c379a000000000000000000000000000000000000000000000000000000000815260040161026b9061102c565b60405180910390fd5b5f8054905081106102ba576040517f08c379a00000000000000000000000000000000000000000000000000000000081526004016102b190611094565b60405180910390fd5b5f8082815481106102ce576102cd6110b2565b5b905f5260205f20906006020190506001808111156102ef576102ee610edc565b5b816005015f9054906101000a900460ff16600181111561031257610311610edc565b5b14610352576040517f08c379a000000000000000000000000000000000000000000000000000000000815260040161034990611129565b60405180910390fd5b5f816004015490505f82600401819055505f60015f9054906101000a900473ffffffffffffffffffffffffffffffffffffffff1673ffffffffffffffffffffffffffffffffffffffff16826040516103a990611174565b5f6040518083038185875af1925050503d805f81146103e3576040519150601f19603f3d011682016040523d82523d5f602084013e6103e8565b606091505b505090508061042c576040517f08c379a0000000000000000000000000000000000000000000000000000000008152600401610423906111d2565b60405180910390fd5b50505050565b60025481565b5f8060035f9054906101000a900473ffffffffffffffffffffffffffffffffffffffff1673ffffffffffffffffffffffffffffffffffffffff1663feaf968c6040518163ffffffff1660e01b815260040160a060405180830381865afa1580156104a4573d5f803e3d5ffd5b505050506040513d601f19601f820116820180604052508101906104c89190611276565b5050509150505f81905080846104de919061131a565b92505050919050565b60035f9054906101000a900473ffffffffffffffffffffffffffffffffffffffff1681565b60015f9054906101000a900473ffffffffffffffffffffffffffffffffffffffff1681565b5f835111610574576040517f08c379a000000000000000000000000000000000000000000000000000000000815260040161056b906113a5565b60405180910390fd5b5f8251116105b7576040517f08c379a00000000000000000000000000000000000000000000000000000000081526004016105ae90611433565b60405180910390fd5b5f81116105f9576040517f08c379a00000000000000000000000000000000000000000000000000000000081526004016105f0906114c1565b60405180910390fd5b5f808054905090505f6040518060c001604052803373ffffffffffffffffffffffffffffffffffffffff1681526020018681526020018581526020018481526020015f81526020015f600181111561065457610653610edc565b5b815250908060018154018082558091505060019003905f5260205f2090600602015f909190919091505f820151815f015f6101000a81548173ffffffffffffffffffffffffffffffffffffffff021916908373ffffffffffffffffffffffffffffffffffffffff16021790555060208201518160010190816106d691906116d0565b5060408201518160020190816106ec91906116d0565b50606082015181600301556080820151816004015560a0820151816005015f6101000a81548160ff0219169083600181111561072b5761072a610edc565b5b021790555050503373ffffffffffffffffffffffffffffffffffffffff167f04fb5dc09970f675e2e724d4f46a295bbee1e840664a9079b476bbd65d99c0fa826040516107789190610bb9565b60405180910390a250505050565b5f8054905081106107cc576040517f08c379a00000000000000000000000000000000000000000000000000000000081526004016107c390611094565b60405180910390fd5b5f8082815481106107e0576107df6110b2565b5b905f5260205f20906006020190505f600181111561080157610800610edc565b5b816005015f9054906101000a900460ff16600181111561082457610823610edc565b5b14610864576040517f08c379a000000000000000000000000000000000000000000000000000000000815260040161085b906117e9565b60405180910390fd5b5f34116108a6576040517f08c379a000000000000000000000000000000000000000000000000000000000815260040161089d90611877565b60405180910390fd5b5f6108b034610438565b90505f6108c08360040154610438565b905060025481836108d19190611895565b1015610912576040517f08c379a000000000000000000000000000000000000000000000000000000000815260040161090990611938565b60405180910390fd5b34836004015f8282546109259190611895565b925050819055503373ffffffffffffffffffffffffffffffffffffffff167f1b3bc3684e732e6309ed2cfc5bafc8464574a7d92a3fa931a3b83606f087b3e28534604051610974929190611956565b60405180910390a282600301548360040154106109b8576001836005015f6101000a81548160ff021916908360018111156109b2576109b1610edc565b5b02179055505b50505050565b5f81815481106109cc575f80fd5b905f5260205f2090600602015f91509050805f015f9054906101000a900473ffffffffffffffffffffffffffffffffffffffff1690806001018054610a109061150c565b80601f0160208091040260200160405190810160405280929190818152602001828054610a3c9061150c565b8015610a875780601f10610a5e57610100808354040283529160200191610a87565b820191905f5260205f20905b815481529060010190602001808311610a6a57829003601f168201915b505050505090806002018054610a9c9061150c565b80601f0160208091040260200160405190810160405280929190818152602001828054610ac89061150c565b8015610b135780601f10610aea57610100808354040283529160200191610b13565b820191905f5260205f20905b815481529060010190602001808311610af657829003601f168201915b505050505090806003015490806004015490806005015f9054906101000a900460ff16905086565b5f604051905090565b5f80fd5b5f80fd5b5f819050919050565b610b5e81610b4c565b8114610b68575f80fd5b50565b5f81359050610b7981610b55565b92915050565b5f60208284031215610b9457610b93610b44565b5b5f610ba184828501610b6b565b91505092915050565b610bb381610b4c565b82525050565b5f602082019050610bcc5f830184610baa565b92915050565b5f73ffffffffffffffffffffffffffffffffffffffff82169050919050565b5f819050919050565b5f610c14610c0f610c0a84610bd2565b610bf1565b610bd2565b9050919050565b5f610c2582610bfa565b9050919050565b5f610c3682610c1b565b9050919050565b610c4681610c2c565b82525050565b5f602082019050610c5f5f830184610c3d565b92915050565b5f610c6f82610bd2565b9050919050565b610c7f81610c65565b82525050565b5f602082019050610c985f830184610c76565b92915050565b5f80fd5b5f80fd5b5f601f19601f8301169050919050565b7f4e487b71000000000000000000000000000000000000000000000000000000005f52604160045260245ffd5b610cec82610ca6565b810181811067ffffffffffffffff82111715610d0b57610d0a610cb6565b5b80604052505050565b5f610d1d610b3b565b9050610d298282610ce3565b919050565b5f67ffffffffffffffff821115610d4857610d47610cb6565b5b610d5182610ca6565b9050602081019050919050565b828183375f83830152505050565b5f610d7e610d7984610d2e565b610d14565b905082815260208101848484011115610d9a57610d99610ca2565b5b610da5848285610d5e565b509392505050565b5f82601f830112610dc157610dc0610c9e565b5b8135610dd1848260208601610d6c565b91505092915050565b5f805f60608486031215610df157610df0610b44565b5b5f84013567ffffffffffffffff811115610e0e57610e0d610b48565b5b610e1a86828701610dad565b935050602084013567ffffffffffffffff811115610e3b57610e3a610b48565b5b610e4786828701610dad565b9250506040610e5886828701610b6b565b9150509250925092565b5f81519050919050565b5f82825260208201905092915050565b5f5b83811015610e99578082015181840152602081019050610e7e565b5f8484015250505050565b5f610eae82610e62565b610eb88185610e6c565b9350610ec8818560208601610e7c565b610ed181610ca6565b840191505092915050565b7f4e487b71000000000000000000000000000000000000000000000000000000005f52602160045260245ffd5b60028110610f1a57610f19610edc565b5b50565b5f819050610f2a82610f09565b919050565b5f610f3982610f1d565b9050919050565b610f4981610f2f565b82525050565b5f60c082019050610f625f830189610c76565b8181036020830152610f748188610ea4565b90508181036040830152610f888187610ea4565b9050610f976060830186610baa565b610fa46080830185610baa565b610fb160a0830184610f40565b979650505050505050565b7f4f6e6c7920746865206f776e65722063616e2063616c6c20746869732066756e5f8201527f6374696f6e2e0000000000000000000000000000000000000000000000000000602082015250565b5f611016602683610e6c565b915061102182610fbc565b604082019050919050565b5f6020820190508181035f8301526110438161100a565b9050919050565b7f46756e6472616973657220646f6573206e6f74206578697374000000000000005f82015250565b5f61107e601983610e6c565b91506110898261104a565b602082019050919050565b5f6020820190508181035f8301526110ab81611072565b9050919050565b7f4e487b71000000000000000000000000000000000000000000000000000000005f52603260045260245ffd5b7f46756e64726169736572206973206e6f7420636f6d706c6574656400000000005f82015250565b5f611113601b83610e6c565b915061111e826110df565b602082019050919050565b5f6020820190508181035f83015261114081611107565b9050919050565b5f81905092915050565b50565b5f61115f5f83611147565b915061116a82611151565b5f82019050919050565b5f61117e82611154565b9150819050919050565b7f5769746864726177616c206661696c65640000000000000000000000000000005f82015250565b5f6111bc601183610e6c565b91506111c782611188565b602082019050919050565b5f6020820190508181035f8301526111e9816111b0565b9050919050565b5f69ffffffffffffffffffff82169050919050565b61120e816111f0565b8114611218575f80fd5b50565b5f8151905061122981611205565b92915050565b5f819050919050565b6112418161122f565b811461124b575f80fd5b50565b5f8151905061125c81611238565b92915050565b5f8151905061127081610b55565b92915050565b5f805f805f60a0868803121561128f5761128e610b44565b5b5f61129c8882890161121b565b95505060206112ad8882890161124e565b94505060406112be88828901611262565b93505060606112cf88828901611262565b92505060806112e08882890161121b565b9150509295509295909350565b7f4e487b71000000000000000000000000000000000000000000000000000000005f52601160045260245ffd5b5f61132482610b4c565b915061132f83610b4c565b925082820261133d81610b4c565b91508282048414831517611354576113536112ed565b5b5092915050565b7f46756e64726169736572206e616d652063616e6e6f7420626520656d707479005f82015250565b5f61138f601f83610e6c565b915061139a8261135b565b602082019050919050565b5f6020820190508181035f8301526113bc81611383565b9050919050565b7f46756e64726169736572206465736372697074696f6e2063616e6e6f742062655f8201527f20656d7074790000000000000000000000000000000000000000000000000000602082015250565b5f61141d602683610e6c565b9150611428826113c3565b604082019050919050565b5f6020820190508181035f83015261144a81611411565b9050919050565b7f46756e6472616973657220676f616c20616d6f756e74206d75737420626520675f8201527f726561746572207468616e203000000000000000000000000000000000000000602082015250565b5f6114ab602d83610e6c565b91506114b682611451565b604082019050919050565b5f6020820190508181035f8301526114d88161149f565b9050919050565b7f4e487b71000000000000000000000000000000000000000000000000000000005f52602260045260245ffd5b5f600282049050600182168061152357607f821691505b602082108103611536576115356114df565b5b50919050565b5f819050815f5260205f209050919050565b5f6020601f8301049050919050565b5f82821b905092915050565b5f600883026115987fffffffffffffffffffffffffffffffffffffffffffffffffffffffffffffffff8261155d565b6115a2868361155d565b95508019841693508086168417925050509392505050565b5f6115d46115cf6115ca84610b4c565b610bf1565b610b4c565b9050919050565b5f819050919050565b6115ed836115ba565b6116016115f9826115db565b848454611569565b825550505050565b5f90565b611615611609565b6116208184846115e4565b505050565b5b81811015611643576116385f8261160d565b600181019050611626565b5050565b601f821115611688576116598161153c565b6116628461154e565b81016020851015611671578190505b61168561167d8561154e565b830182611625565b50505b505050565b5f82821c905092915050565b5f6116a85f198460080261168d565b1980831691505092915050565b5f6116c08383611699565b9150826002028217905092915050565b6116d982610e62565b67ffffffffffffffff8111156116f2576116f1610cb6565b5b6116fc825461150c565b611707828285611647565b5f60209050601f831160018114611738575f8415611726578287015190505b61173085826116b5565b865550611797565b601f1984166117468661153c565b5f5b8281101561176d57848901518255600182019150602085019450602081019050611748565b8683101561178a5784890151611786601f891682611699565b8355505b6001600288020188555050505b505050505050565b7f46756e64726169736572206973206e6f742061637469766500000000000000005f82015250565b5f6117d3601883610e6c565b91506117de8261179f565b602082019050919050565b5f6020820190508181035f830152611800816117c7565b9050919050565b7f53656e7420616d6f756e74206d7573742062652067726561746572207468616e5f8201527f2030000000000000000000000000000000000000000000000000000000000000602082015250565b5f611861602283610e6c565b915061186c82611807565b604082019050919050565b5f6020820190508181035f83015261188e81611855565b9050919050565b5f61189f82610b4c565b91506118aa83610b4c565b92508282019050808211156118c2576118c16112ed565b5b92915050565b7f46756e6472616973657220646f6573206e6f74206d65657420746865206d696e5f8201527f696d756d2066756e64696e6720726571756972656d656e740000000000000000602082015250565b5f611922603883610e6c565b915061192d826118c8565b604082019050919050565b5f6020820190508181035f83015261194f81611916565b9050919050565b5f6040820190506119695f830185610baa565b6119766020830184610baa565b939250505056fea26469706673582212205f625751c2c25bada0e2768ce0a6c8d1aec927cfc07e4cdfdc1a97483db5e32a64736f6c63430008160033",
					"opcodes": "PUSH1 0x80 PUSH1 0x40 MSTORE PUSH9 0x1B1AE4D6E2EF500000 PUSH1 0x2 SSTORE CALLVALUE DUP1 ISZERO PUSH3 0x1D JUMPI PUSH0 DUP1 REVERT JUMPDEST POP PUSH1 0x40 MLOAD PUSH3 0x1B20 CODESIZE SUB DUP1 PUSH3 0x1B20 DUP4 CODECOPY DUP2 DUP2 ADD PUSH1 0x40 MSTORE DUP2 ADD SWAP1 PUSH3 0x43 SWAP2 SWAP1 PUSH3 0x12F JUMP JUMPDEST CALLER PUSH1 0x1 PUSH0 PUSH2 0x100 EXP DUP2 SLOAD DUP2 PUSH20 0xFFFFFFFFFFFFFFFFFFFFFFFFFFFFFFFFFFFFFFFF MUL NOT AND SWAP1 DUP4 PUSH20 0xFFFFFFFFFFFFFFFFFFFFFFFFFFFFFFFFFFFFFFFF AND MUL OR SWAP1 SSTORE POP DUP1 PUSH1 0x3 PUSH0 PUSH2 0x100 EXP DUP2 SLOAD DUP2 PUSH20 0xFFFFFFFFFFFFFFFFFFFFFFFFFFFFFFFFFFFFFFFF MUL NOT AND SWAP1 DUP4 PUSH20 0xFFFFFFFFFFFFFFFFFFFFFFFFFFFFFFFFFFFFFFFF AND MUL OR SWAP1 SSTORE POP POP PUSH3 0x15F JUMP JUMPDEST PUSH0 DUP1 REVERT JUMPDEST PUSH0 PUSH20 0xFFFFFFFFFFFFFFFFFFFFFFFFFFFFFFFFFFFFFFFF DUP3 AND SWAP1 POP SWAP2 SWAP1 POP JUMP JUMPDEST PUSH0 PUSH3 0xF9 DUP3 PUSH3 0xCE JUMP JUMPDEST SWAP1 POP SWAP2 SWAP1 POP JUMP JUMPDEST PUSH3 0x10B DUP2 PUSH3 0xED JUMP JUMPDEST DUP2 EQ PUSH3 0x116 JUMPI PUSH0 DUP1 REVERT JUMPDEST POP JUMP JUMPDEST PUSH0 DUP2 MLOAD SWAP1 POP PUSH3 0x129 DUP2 PUSH3 0x100 JUMP JUMPDEST SWAP3 SWAP2 POP POP JUMP JUMPDEST PUSH0 PUSH1 0x20 DUP3 DUP5 SUB SLT ISZERO PUSH3 0x147 JUMPI PUSH3 0x146 PUSH3 0xCA JUMP JUMPDEST JUMPDEST PUSH0 PUSH3 0x156 DUP5 DUP3 DUP6 ADD PUSH3 0x119 JUMP JUMPDEST SWAP2 POP POP SWAP3 SWAP2 POP POP JUMP JUMPDEST PUSH2 0x19B3 DUP1 PUSH3 0x16D PUSH0 CODECOPY PUSH0 RETURN INVALID PUSH1 0x80 PUSH1 0x40 MSTORE PUSH1 0x4 CALLDATASIZE LT PUSH2 0x7A JUMPI PUSH0 CALLDATALOAD PUSH1 0xE0 SHR DUP1 PUSH4 0x8DA5CB5B GT PUSH2 0x4D JUMPI DUP1 PUSH4 0x8DA5CB5B EQ PUSH2 0x136 JUMPI DUP1 PUSH4 0xC50870B1 EQ PUSH2 0x160 JUMPI DUP1 PUSH4 0xCA1D209D EQ PUSH2 0x188 JUMPI DUP1 PUSH4 0xF38F72FB EQ PUSH2 0x1A4 JUMPI PUSH2 0x7A JUMP JUMPDEST DUP1 PUSH4 0x155DD5EE EQ PUSH2 0x7E JUMPI DUP1 PUSH4 0x3430A88C EQ PUSH2 0xA6 JUMPI DUP1 PUSH4 0x66DA13C6 EQ PUSH2 0xD0 JUMPI DUP1 PUSH4 0x741BEF1A EQ PUSH2 0x10C JUMPI JUMPDEST PUSH0 DUP1 REVERT JUMPDEST CALLVALUE DUP1 ISZERO PUSH2 0x89 JUMPI PUSH0 DUP1 REVERT JUMPDEST POP PUSH2 0xA4 PUSH1 0x4 DUP1 CALLDATASIZE SUB DUP2 ADD SWAP1 PUSH2 0x9F SWAP2 SWAP1 PUSH2 0xB7F JUMP JUMPDEST PUSH2 0x1E5 JUMP JUMPDEST STOP JUMPDEST CALLVALUE DUP1 ISZERO PUSH2 0xB1 JUMPI PUSH0 DUP1 REVERT JUMPDEST POP PUSH2 0xBA PUSH2 0x432 JUMP JUMPDEST PUSH1 0x40 MLOAD PUSH2 0xC7 SWAP2 SWAP1 PUSH2 0xBB9 JUMP JUMPDEST PUSH1 0x40 MLOAD DUP1 SWAP2 SUB SWAP1 RETURN JUMPDEST CALLVALUE DUP1 ISZERO PUSH2 0xDB JUMPI PUSH0 DUP1 REVERT JUMPDEST POP PUSH2 0xF6 PUSH1 0x4 DUP1 CALLDATASIZE SUB DUP2 ADD SWAP1 PUSH2 0xF1 SWAP2 SWAP1 PUSH2 0xB7F JUMP JUMPDEST PUSH2 0x438 JUMP JUMPDEST PUSH1 0x40 MLOAD PUSH2 0x103 SWAP2 SWAP1 PUSH2 0xBB9 JUMP JUMPDEST PUSH1 0x40 MLOAD DUP1 SWAP2 SUB SWAP1 RETURN JUMPDEST CALLVALUE DUP1 ISZERO PUSH2 0x117 JUMPI PUSH0 DUP1 REVERT JUMPDEST POP PUSH2 0x120 PUSH2 0x4E7 JUMP JUMPDEST PUSH1 0x40 MLOAD PUSH2 0x12D SWAP2 SWAP1 PUSH2 0xC4C JUMP JUMPDEST PUSH1 0x40 MLOAD DUP1 SWAP2 SUB SWAP1 RETURN JUMPDEST CALLVALUE DUP1 ISZERO PUSH2 0x141 JUMPI PUSH0 DUP1 REVERT JUMPDEST POP PUSH2 0x14A PUSH2 0x50C JUMP JUMPDEST PUSH1 0x40 MLOAD PUSH2 0x157 SWAP2 SWAP1 PUSH2 0xC85 JUMP JUMPDEST PUSH1 0x40 MLOAD DUP1 SWAP2 SUB SWAP1 RETURN JUMPDEST CALLVALUE DUP1 ISZERO PUSH2 0x16B JUMPI PUSH0 DUP1 REVERT JUMPDEST POP PUSH2 0x186 PUSH1 0x4 DUP1 CALLDATASIZE SUB DUP2 ADD SWAP1 PUSH2 0x181 SWAP2 SWAP1 PUSH2 0xDDA JUMP JUMPDEST PUSH2 0x531 JUMP JUMPDEST STOP JUMPDEST PUSH2 0x1A2 PUSH1 0x4 DUP1 CALLDATASIZE SUB DUP2 ADD SWAP1 PUSH2 0x19D SWAP2 SWAP1 PUSH2 0xB7F JUMP JUMPDEST PUSH2 0x786 JUMP JUMPDEST STOP JUMPDEST CALLVALUE DUP1 ISZERO PUSH2 0x1AF JUMPI PUSH0 DUP1 REVERT JUMPDEST POP PUSH2 0x1CA PUSH1 0x4 DUP1 CALLDATASIZE SUB DUP2 ADD SWAP1 PUSH2 0x1C5 SWAP2 SWAP1 PUSH2 0xB7F JUMP JUMPDEST PUSH2 0x9BE JUMP JUMPDEST PUSH1 0x40 MLOAD PUSH2 0x1DC SWAP7 SWAP6 SWAP5 SWAP4 SWAP3 SWAP2 SWAP1 PUSH2 0xF4F JUMP JUMPDEST PUSH1 0x40 MLOAD DUP1 SWAP2 SUB SWAP1 RETURN JUMPDEST PUSH1 0x1 PUSH0 SWAP1 SLOAD SWAP1 PUSH2 0x100 EXP SWAP1 DIV PUSH20 0xFFFFFFFFFFFFFFFFFFFFFFFFFFFFFFFFFFFFFFFF AND PUSH20 0xFFFFFFFFFFFFFFFFFFFFFFFFFFFFFFFFFFFFFFFF AND CALLER PUSH20 0xFFFFFFFFFFFFFFFFFFFFFFFFFFFFFFFFFFFFFFFF AND EQ PUSH2 0x274 JUMPI PUSH1 0x40 MLOAD PUSH32 0x8C379A000000000000000000000000000000000000000000000000000000000 DUP2 MSTORE PUSH1 0x4 ADD PUSH2 0x26B SWAP1 PUSH2 0x102C JUMP JUMPDEST PUSH1 0x40 MLOAD DUP1 SWAP2 SUB SWAP1 REVERT JUMPDEST PUSH0 DUP1 SLOAD SWAP1 POP DUP2 LT PUSH2 0x2BA JUMPI PUSH1 0x40 MLOAD PUSH32 0x8C379A000000000000000000000000000000000000000000000000000000000 DUP2 MSTORE PUSH1 0x4 ADD PUSH2 0x2B1 SWAP1 PUSH2 0x1094 JUMP JUMPDEST PUSH1 0x40 MLOAD DUP1 SWAP2 SUB SWAP1 REVERT JUMPDEST PUSH0 DUP1 DUP3 DUP2 SLOAD DUP2 LT PUSH2 0x2CE JUMPI PUSH2 0x2CD PUSH2 0x10B2 JUMP JUMPDEST JUMPDEST SWAP1 PUSH0 MSTORE PUSH1 0x20 PUSH0 KECCAK256 SWAP1 PUSH1 0x6 MUL ADD SWAP1 POP PUSH1 0x1 DUP1 DUP2 GT ISZERO PUSH2 0x2EF JUMPI PUSH2 0x2EE PUSH2 0xEDC JUMP JUMPDEST JUMPDEST DUP2 PUSH1 0x5 ADD PUSH0 SWAP1 SLOAD SWAP1 PUSH2 0x100 EXP SWAP1 DIV PUSH1 0xFF AND PUSH1 0x1 DUP2 GT ISZERO PUSH2 0x312 JUMPI PUSH2 0x311 PUSH2 0xEDC JUMP JUMPDEST JUMPDEST EQ PUSH2 0x352 JUMPI PUSH1 0x40 MLOAD PUSH32 0x8C379A000000000000000000000000000000000000000000000000000000000 DUP2 MSTORE PUSH1 0x4 ADD PUSH2 0x349 SWAP1 PUSH2 0x1129 JUMP JUMPDEST PUSH1 0x40 MLOAD DUP1 SWAP2 SUB SWAP1 REVERT JUMPDEST PUSH0 DUP2 PUSH1 0x4 ADD SLOAD SWAP1 POP PUSH0 DUP3 PUSH1 0x4 ADD DUP2 SWAP1 SSTORE POP PUSH0 PUSH1 0x1 PUSH0 SWAP1 SLOAD SWAP1 PUSH2 0x100 EXP SWAP1 DIV PUSH20 0xFFFFFFFFFFFFFFFFFFFFFFFFFFFFFFFFFFFFFFFF AND PUSH20 0xFFFFFFFFFFFFFFFFFFFFFFFFFFFFFFFFFFFFFFFF AND DUP3 PUSH1 0x40 MLOAD PUSH2 0x3A9 SWAP1 PUSH2 0x1174 JUMP JUMPDEST PUSH0 PUSH1 0x40 MLOAD DUP1 DUP4 SUB DUP2 DUP6 DUP8 GAS CALL SWAP3 POP POP POP RETURNDATASIZE DUP1 PUSH0 DUP2 EQ PUSH2 0x3E3 JUMPI PUSH1 0x40 MLOAD SWAP2 POP PUSH1 0x1F NOT PUSH1 0x3F RETURNDATASIZE ADD AND DUP3 ADD PUSH1 0x40 MSTORE RETURNDATASIZE DUP3 MSTORE RETURNDATASIZE PUSH0 PUSH1 0x20 DUP5 ADD RETURNDATACOPY PUSH2 0x3E8 JUMP JUMPDEST PUSH1 0x60 SWAP2 POP JUMPDEST POP POP SWAP1 POP DUP1 PUSH2 0x42C JUMPI PUSH1 0x40 MLOAD PUSH32 0x8C379A000000000000000000000000000000000000000000000000000000000 DUP2 MSTORE PUSH1 0x4 ADD PUSH2 0x423 SWAP1 PUSH2 0x11D2 JUMP JUMPDEST PUSH1 0x40 MLOAD DUP1 SWAP2 SUB SWAP1 REVERT JUMPDEST POP POP POP POP JUMP JUMPDEST PUSH1 0x2 SLOAD DUP2 JUMP JUMPDEST PUSH0 DUP1 PUSH1 0x3 PUSH0 SWAP1 SLOAD SWAP1 PUSH2 0x100 EXP SWAP1 DIV PUSH20 0xFFFFFFFFFFFFFFFFFFFFFFFFFFFFFFFFFFFFFFFF AND PUSH20 0xFFFFFFFFFFFFFFFFFFFFFFFFFFFFFFFFFFFFFFFF AND PUSH4 0xFEAF968C PUSH1 0x40 MLOAD DUP2 PUSH4 0xFFFFFFFF AND PUSH1 0xE0 SHL DUP2 MSTORE PUSH1 0x4 ADD PUSH1 0xA0 PUSH1 0x40 MLOAD DUP1 DUP4 SUB DUP2 DUP7 GAS STATICCALL ISZERO DUP1 ISZERO PUSH2 0x4A4 JUMPI RETURNDATASIZE PUSH0 DUP1 RETURNDATACOPY RETURNDATASIZE PUSH0 REVERT JUMPDEST POP POP POP POP PUSH1 0x40 MLOAD RETURNDATASIZE PUSH1 0x1F NOT PUSH1 0x1F DUP3 ADD AND DUP3 ADD DUP1 PUSH1 0x40 MSTORE POP DUP2 ADD SWAP1 PUSH2 0x4C8 SWAP2 SWAP1 PUSH2 0x1276 JUMP JUMPDEST POP POP POP SWAP2 POP POP PUSH0 DUP2 SWAP1 POP DUP1 DUP5 PUSH2 0x4DE SWAP2 SWAP1 PUSH2 0x131A JUMP JUMPDEST SWAP3 POP POP POP SWAP2 SWAP1 POP JUMP JUMPDEST PUSH1 0x3 PUSH0 SWAP1 SLOAD SWAP1 PUSH2 0x100 EXP SWAP1 DIV PUSH20 0xFFFFFFFFFFFFFFFFFFFFFFFFFFFFFFFFFFFFFFFF AND DUP2 JUMP JUMPDEST PUSH1 0x1 PUSH0 SWAP1 SLOAD SWAP1 PUSH2 0x100 EXP SWAP1 DIV PUSH20 0xFFFFFFFFFFFFFFFFFFFFFFFFFFFFFFFFFFFFFFFF AND DUP2 JUMP JUMPDEST PUSH0 DUP4 MLOAD GT PUSH2 0x574 JUMPI PUSH1 0x40 MLOAD PUSH32 0x8C379A000000000000000000000000000000000000000000000000000000000 DUP2 MSTORE PUSH1 0x4 ADD PUSH2 0x56B SWAP1 PUSH2 0x13A5 JUMP JUMPDEST PUSH1 0x40 MLOAD DUP1 SWAP2 SUB SWAP1 REVERT JUMPDEST PUSH0 DUP3 MLOAD GT PUSH2 0x5B7 JUMPI PUSH1 0x40 MLOAD PUSH32 0x8C379A000000000000000000000000000000000000000000000000000000000 DUP2 MSTORE PUSH1 0x4 ADD PUSH2 0x5AE SWAP1 PUSH2 0x1433 JUMP JUMPDEST PUSH1 0x40 MLOAD DUP1 SWAP2 SUB SWAP1 REVERT JUMPDEST PUSH0 DUP2 GT PUSH2 0x5F9 JUMPI PUSH1 0x40 MLOAD PUSH32 0x8C379A000000000000000000000000000000000000000000000000000000000 DUP2 MSTORE PUSH1 0x4 ADD PUSH2 0x5F0 SWAP1 PUSH2 0x14C1 JUMP JUMPDEST PUSH1 0x40 MLOAD DUP1 SWAP2 SUB SWAP1 REVERT JUMPDEST PUSH0 DUP1 DUP1 SLOAD SWAP1 POP SWAP1 POP PUSH0 PUSH1 0x40 MLOAD DUP1 PUSH1 0xC0 ADD PUSH1 0x40 MSTORE DUP1 CALLER PUSH20 0xFFFFFFFFFFFFFFFFFFFFFFFFFFFFFFFFFFFFFFFF AND DUP2 MSTORE PUSH1 0x20 ADD DUP7 DUP2 MSTORE PUSH1 0x20 ADD DUP6 DUP2 MSTORE PUSH1 0x20 ADD DUP5 DUP2 MSTORE PUSH1 0x20 ADD PUSH0 DUP2 MSTORE PUSH1 0x20 ADD PUSH0 PUSH1 0x1 DUP2 GT ISZERO PUSH2 0x654 JUMPI PUSH2 0x653 PUSH2 0xEDC JUMP JUMPDEST JUMPDEST DUP2 MSTORE POP SWAP1 DUP1 PUSH1 0x1 DUP2 SLOAD ADD DUP1 DUP3 SSTORE DUP1 SWAP2 POP POP PUSH1 0x1 SWAP1 SUB SWAP1 PUSH0 MSTORE PUSH1 0x20 PUSH0 KECCAK256 SWAP1 PUSH1 0x6 MUL ADD PUSH0 SWAP1 SWAP2 SWAP1 SWAP2 SWAP1 SWAP2 POP PUSH0 DUP3 ADD MLOAD DUP2 PUSH0 ADD PUSH0 PUSH2 0x100 EXP DUP2 SLOAD DUP2 PUSH20 0xFFFFFFFFFFFFFFFFFFFFFFFFFFFFFFFFFFFFFFFF MUL NOT AND SWAP1 DUP4 PUSH20 0xFFFFFFFFFFFFFFFFFFFFFFFFFFFFFFFFFFFFFFFF AND MUL OR SWAP1 SSTORE POP PUSH1 0x20 DUP3 ADD MLOAD DUP2 PUSH1 0x1 ADD SWAP1 DUP2 PUSH2 0x6D6 SWAP2 SWAP1 PUSH2 0x16D0 JUMP JUMPDEST POP PUSH1 0x40 DUP3 ADD MLOAD DUP2 PUSH1 0x2 ADD SWAP1 DUP2 PUSH2 0x6EC SWAP2 SWAP1 PUSH2 0x16D0 JUMP JUMPDEST POP PUSH1 0x60 DUP3 ADD MLOAD DUP2 PUSH1 0x3 ADD SSTORE PUSH1 0x80 DUP3 ADD MLOAD DUP2 PUSH1 0x4 ADD SSTORE PUSH1 0xA0 DUP3 ADD MLOAD DUP2 PUSH1 0x5 ADD PUSH0 PUSH2 0x100 EXP DUP2 SLOAD DUP2 PUSH1 0xFF MUL NOT AND SWAP1 DUP4 PUSH1 0x1 DUP2 GT ISZERO PUSH2 0x72B JUMPI PUSH2 0x72A PUSH2 0xEDC JUMP JUMPDEST JUMPDEST MUL OR SWAP1 SSTORE POP POP POP CALLER PUSH20 0xFFFFFFFFFFFFFFFFFFFFFFFFFFFFFFFFFFFFFFFF AND PUSH32 0x4FB5DC09970F675E2E724D4F46A295BBEE1E840664A9079B476BBD65D99C0FA DUP3 PUSH1 0x40 MLOAD PUSH2 0x778 SWAP2 SWAP1 PUSH2 0xBB9 JUMP JUMPDEST PUSH1 0x40 MLOAD DUP1 SWAP2 SUB SWAP1 LOG2 POP POP POP POP JUMP JUMPDEST PUSH0 DUP1 SLOAD SWAP1 POP DUP2 LT PUSH2 0x7CC JUMPI PUSH1 0x40 MLOAD PUSH32 0x8C379A000000000000000000000000000000000000000000000000000000000 DUP2 MSTORE PUSH1 0x4 ADD PUSH2 0x7C3 SWAP1 PUSH2 0x1094 JUMP JUMPDEST PUSH1 0x40 MLOAD DUP1 SWAP2 SUB SWAP1 REVERT JUMPDEST PUSH0 DUP1 DUP3 DUP2 SLOAD DUP2 LT PUSH2 0x7E0 JUMPI PUSH2 0x7DF PUSH2 0x10B2 JUMP JUMPDEST JUMPDEST SWAP1 PUSH0 MSTORE PUSH1 0x20 PUSH0 KECCAK256 SWAP1 PUSH1 0x6 MUL ADD SWAP1 POP PUSH0 PUSH1 0x1 DUP2 GT ISZERO PUSH2 0x801 JUMPI PUSH2 0x800 PUSH2 0xEDC JUMP JUMPDEST JUMPDEST DUP2 PUSH1 0x5 ADD PUSH0 SWAP1 SLOAD SWAP1 PUSH2 0x100 EXP SWAP1 DIV PUSH1 0xFF AND PUSH1 0x1 DUP2 GT ISZERO PUSH2 0x824 JUMPI PUSH2 0x823 PUSH2 0xEDC JUMP JUMPDEST JUMPDEST EQ PUSH2 0x864 JUMPI PUSH1 0x40 MLOAD PUSH32 0x8C379A000000000000000000000000000000000000000000000000000000000 DUP2 MSTORE PUSH1 0x4 ADD PUSH2 0x85B SWAP1 PUSH2 0x17E9 JUMP JUMPDEST PUSH1 0x40 MLOAD DUP1 SWAP2 SUB SWAP1 REVERT JUMPDEST PUSH0 CALLVALUE GT PUSH2 0x8A6 JUMPI PUSH1 0x40 MLOAD PUSH32 0x8C379A000000000000000000000000000000000000000000000000000000000 DUP2 MSTORE PUSH1 0x4 ADD PUSH2 0x89D SWAP1 PUSH2 0x1877 JUMP JUMPDEST PUSH1 0x40 MLOAD DUP1 SWAP2 SUB SWAP1 REVERT JUMPDEST PUSH0 PUSH2 0x8B0 CALLVALUE PUSH2 0x438 JUMP JUMPDEST SWAP1 POP PUSH0 PUSH2 0x8C0 DUP4 PUSH1 0x4 ADD SLOAD PUSH2 0x438 JUMP JUMPDEST SWAP1 POP PUSH1 0x2 SLOAD DUP2 DUP4 PUSH2 0x8D1 SWAP2 SWAP1 PUSH2 0x1895 JUMP JUMPDEST LT ISZERO PUSH2 0x912 JUMPI PUSH1 0x40 MLOAD PUSH32 0x8C379A000000000000000000000000000000000000000000000000000000000 DUP2 MSTORE PUSH1 0x4 ADD PUSH2 0x909 SWAP1 PUSH2 0x1938 JUMP JUMPDEST PUSH1 0x40 MLOAD DUP1 SWAP2 SUB SWAP1 REVERT JUMPDEST CALLVALUE DUP4 PUSH1 0x4 ADD PUSH0 DUP3 DUP3 SLOAD PUSH2 0x925 SWAP2 SWAP1 PUSH2 0x1895 JUMP JUMPDEST SWAP3 POP POP DUP2 SWAP1 SSTORE POP CALLER PUSH20 0xFFFFFFFFFFFFFFFFFFFFFFFFFFFFFFFFFFFFFFFF AND PUSH32 0x1B3BC3684E732E6309ED2CFC5BAFC8464574A7D92A3FA931A3B83606F087B3E2 DUP6 CALLVALUE PUSH1 0x40 MLOAD PUSH2 0x974 SWAP3 SWAP2 SWAP1 PUSH2 0x1956 JUMP JUMPDEST PUSH1 0x40 MLOAD DUP1 SWAP2 SUB SWAP1 LOG2 DUP3 PUSH1 0x3 ADD SLOAD DUP4 PUSH1 0x4 ADD SLOAD LT PUSH2 0x9B8 JUMPI PUSH1 0x1 DUP4 PUSH1 0x5 ADD PUSH0 PUSH2 0x100 EXP DUP2 SLOAD DUP2 PUSH1 0xFF MUL NOT AND SWAP1 DUP4 PUSH1 0x1 DUP2 GT ISZERO PUSH2 0x9B2 JUMPI PUSH2 0x9B1 PUSH2 0xEDC JUMP JUMPDEST JUMPDEST MUL OR SWAP1 SSTORE POP JUMPDEST POP POP POP POP JUMP JUMPDEST PUSH0 DUP2 DUP2 SLOAD DUP2 LT PUSH2 0x9CC JUMPI PUSH0 DUP1 REVERT JUMPDEST SWAP1 PUSH0 MSTORE PUSH1 0x20 PUSH0 KECCAK256 SWAP1 PUSH1 0x6 MUL ADD PUSH0 SWAP2 POP SWAP1 POP DUP1 PUSH0 ADD PUSH0 SWAP1 SLOAD SWAP1 PUSH2 0x100 EXP SWAP1 DIV PUSH20 0xFFFFFFFFFFFFFFFFFFFFFFFFFFFFFFFFFFFFFFFF AND SWAP1 DUP1 PUSH1 0x1 ADD DUP1 SLOAD PUSH2 0xA10 SWAP1 PUSH2 0x150C JUMP JUMPDEST DUP1 PUSH1 0x1F ADD PUSH1 0x20 DUP1 SWAP2 DIV MUL PUSH1 0x20 ADD PUSH1 0x40 MLOAD SWAP1 DUP2 ADD PUSH1 0x40 MSTORE DUP1 SWAP3 SWAP2 SWAP1 DUP2 DUP2 MSTORE PUSH1 0x20 ADD DUP3 DUP1 SLOAD PUSH2 0xA3C SWAP1 PUSH2 0x150C JUMP JUMPDEST DUP1 ISZERO PUSH2 0xA87 JUMPI DUP1 PUSH1 0x1F LT PUSH2 0xA5E JUMPI PUSH2 0x100 DUP1 DUP4 SLOAD DIV MUL DUP4 MSTORE SWAP2 PUSH1 0x20 ADD SWAP2 PUSH2 0xA87 JUMP JUMPDEST DUP3 ADD SWAP2 SWAP1 PUSH0 MSTORE PUSH1 0x20 PUSH0 KECCAK256 SWAP1 JUMPDEST DUP2 SLOAD DUP2 MSTORE SWAP1 PUSH1 0x1 ADD SWAP1 PUSH1 0x20 ADD DUP1 DUP4 GT PUSH2 0xA6A JUMPI DUP3 SWAP1 SUB PUSH1 0x1F AND DUP3 ADD SWAP2 JUMPDEST POP POP POP POP POP SWAP1 DUP1 PUSH1 0x2 ADD DUP1 SLOAD PUSH2 0xA9C SWAP1 PUSH2 0x150C JUMP JUMPDEST DUP1 PUSH1 0x1F ADD PUSH1 0x20 DUP1 SWAP2 DIV MUL PUSH1 0x20 ADD PUSH1 0x40 MLOAD SWAP1 DUP2 ADD PUSH1 0x40 MSTORE DUP1 SWAP3 SWAP2 SWAP1 DUP2 DUP2 MSTORE PUSH1 0x20 ADD DUP3 DUP1 SLOAD PUSH2 0xAC8 SWAP1 PUSH2 0x150C JUMP JUMPDEST DUP1 ISZERO PUSH2 0xB13 JUMPI DUP1 PUSH1 0x1F LT PUSH2 0xAEA JUMPI PUSH2 0x100 DUP1 DUP4 SLOAD DIV MUL DUP4 MSTORE SWAP2 PUSH1 0x20 ADD SWAP2 PUSH2 0xB13 JUMP JUMPDEST DUP3 ADD SWAP2 SWAP1 PUSH0 MSTORE PUSH1 0x20 PUSH0 KECCAK256 SWAP1 JUMPDEST DUP2 SLOAD DUP2 MSTORE SWAP1 PUSH1 0x1 ADD SWAP1 PUSH1 0x20 ADD DUP1 DUP4 GT PUSH2 0xAF6 JUMPI DUP3 SWAP1 SUB PUSH1 0x1F AND DUP3 ADD SWAP2 JUMPDEST POP POP POP POP POP SWAP1 DUP1 PUSH1 0x3 ADD SLOAD SWAP1 DUP1 PUSH1 0x4 ADD SLOAD SWAP1 DUP1 PUSH1 0x5 ADD PUSH0 SWAP1 SLOAD SWAP1 PUSH2 0x100 EXP SWAP1 DIV PUSH1 0xFF AND SWAP1 POP DUP7 JUMP JUMPDEST PUSH0 PUSH1 0x40 MLOAD SWAP1 POP SWAP1 JUMP JUMPDEST PUSH0 DUP1 REVERT JUMPDEST PUSH0 DUP1 REVERT JUMPDEST PUSH0 DUP2 SWAP1 POP SWAP2 SWAP1 POP JUMP JUMPDEST PUSH2 0xB5E DUP2 PUSH2 0xB4C JUMP JUMPDEST DUP2 EQ PUSH2 0xB68 JUMPI PUSH0 DUP1 REVERT JUMPDEST POP JUMP JUMPDEST PUSH0 DUP2 CALLDATALOAD SWAP1 POP PUSH2 0xB79 DUP2 PUSH2 0xB55 JUMP JUMPDEST SWAP3 SWAP2 POP POP JUMP JUMPDEST PUSH0 PUSH1 0x20 DUP3 DUP5 SUB SLT ISZERO PUSH2 0xB94 JUMPI PUSH2 0xB93 PUSH2 0xB44 JUMP JUMPDEST JUMPDEST PUSH0 PUSH2 0xBA1 DUP5 DUP3 DUP6 ADD PUSH2 0xB6B JUMP JUMPDEST SWAP2 POP POP SWAP3 SWAP2 POP POP JUMP JUMPDEST PUSH2 0xBB3 DUP2 PUSH2 0xB4C JUMP JUMPDEST DUP3 MSTORE POP POP JUMP JUMPDEST PUSH0 PUSH1 0x20 DUP3 ADD SWAP1 POP PUSH2 0xBCC PUSH0 DUP4 ADD DUP5 PUSH2 0xBAA JUMP JUMPDEST SWAP3 SWAP2 POP POP JUMP JUMPDEST PUSH0 PUSH20 0xFFFFFFFFFFFFFFFFFFFFFFFFFFFFFFFFFFFFFFFF DUP3 AND SWAP1 POP SWAP2 SWAP1 POP JUMP JUMPDEST PUSH0 DUP2 SWAP1 POP SWAP2 SWAP1 POP JUMP JUMPDEST PUSH0 PUSH2 0xC14 PUSH2 0xC0F PUSH2 0xC0A DUP5 PUSH2 0xBD2 JUMP JUMPDEST PUSH2 0xBF1 JUMP JUMPDEST PUSH2 0xBD2 JUMP JUMPDEST SWAP1 POP SWAP2 SWAP1 POP JUMP JUMPDEST PUSH0 PUSH2 0xC25 DUP3 PUSH2 0xBFA JUMP JUMPDEST SWAP1 POP SWAP2 SWAP1 POP JUMP JUMPDEST PUSH0 PUSH2 0xC36 DUP3 PUSH2 0xC1B JUMP JUMPDEST SWAP1 POP SWAP2 SWAP1 POP JUMP JUMPDEST PUSH2 0xC46 DUP2 PUSH2 0xC2C JUMP JUMPDEST DUP3 MSTORE POP POP JUMP JUMPDEST PUSH0 PUSH1 0x20 DUP3 ADD SWAP1 POP PUSH2 0xC5F PUSH0 DUP4 ADD DUP5 PUSH2 0xC3D JUMP JUMPDEST SWAP3 SWAP2 POP POP JUMP JUMPDEST PUSH0 PUSH2 0xC6F DUP3 PUSH2 0xBD2 JUMP JUMPDEST SWAP1 POP SWAP2 SWAP1 POP JUMP JUMPDEST PUSH2 0xC7F DUP2 PUSH2 0xC65 JUMP JUMPDEST DUP3 MSTORE POP POP JUMP JUMPDEST PUSH0 PUSH1 0x20 DUP3 ADD SWAP1 POP PUSH2 0xC98 PUSH0 DUP4 ADD DUP5 PUSH2 0xC76 JUMP JUMPDEST SWAP3 SWAP2 POP POP JUMP JUMPDEST PUSH0 DUP1 REVERT JUMPDEST PUSH0 DUP1 REVERT JUMPDEST PUSH0 PUSH1 0x1F NOT PUSH1 0x1F DUP4 ADD AND SWAP1 POP SWAP2 SWAP1 POP JUMP JUMPDEST PUSH32 0x4E487B7100000000000000000000000000000000000000000000000000000000 PUSH0 MSTORE PUSH1 0x41 PUSH1 0x4 MSTORE PUSH1 0x24 PUSH0 REVERT JUMPDEST PUSH2 0xCEC DUP3 PUSH2 0xCA6 JUMP JUMPDEST DUP2 ADD DUP2 DUP2 LT PUSH8 0xFFFFFFFFFFFFFFFF DUP3 GT OR ISZERO PUSH2 0xD0B JUMPI PUSH2 0xD0A PUSH2 0xCB6 JUMP JUMPDEST JUMPDEST DUP1 PUSH1 0x40 MSTORE POP POP POP JUMP JUMPDEST PUSH0 PUSH2 0xD1D PUSH2 0xB3B JUMP JUMPDEST SWAP1 POP PUSH2 0xD29 DUP3 DUP3 PUSH2 0xCE3 JUMP JUMPDEST SWAP2 SWAP1 POP JUMP JUMPDEST PUSH0 PUSH8 0xFFFFFFFFFFFFFFFF DUP3 GT ISZERO PUSH2 0xD48 JUMPI PUSH2 0xD47 PUSH2 0xCB6 JUMP JUMPDEST JUMPDEST PUSH2 0xD51 DUP3 PUSH2 0xCA6 JUMP JUMPDEST SWAP1 POP PUSH1 0x20 DUP2 ADD SWAP1 POP SWAP2 SWAP1 POP JUMP JUMPDEST DUP3 DUP2 DUP4 CALLDATACOPY PUSH0 DUP4 DUP4 ADD MSTORE POP POP POP JUMP JUMPDEST PUSH0 PUSH2 0xD7E PUSH2 0xD79 DUP5 PUSH2 0xD2E JUMP JUMPDEST PUSH2 0xD14 JUMP JUMPDEST SWAP1 POP DUP3 DUP2 MSTORE PUSH1 0x20 DUP2 ADD DUP5 DUP5 DUP5 ADD GT ISZERO PUSH2 0xD9A JUMPI PUSH2 0xD99 PUSH2 0xCA2 JUMP JUMPDEST JUMPDEST PUSH2 0xDA5 DUP5 DUP3 DUP6 PUSH2 0xD5E JUMP JUMPDEST POP SWAP4 SWAP3 POP POP POP JUMP JUMPDEST PUSH0 DUP3 PUSH1 0x1F DUP4 ADD SLT PUSH2 0xDC1 JUMPI PUSH2 0xDC0 PUSH2 0xC9E JUMP JUMPDEST JUMPDEST DUP2 CALLDATALOAD PUSH2 0xDD1 DUP5 DUP3 PUSH1 0x20 DUP7 ADD PUSH2 0xD6C JUMP JUMPDEST SWAP2 POP POP SWAP3 SWAP2 POP POP JUMP JUMPDEST PUSH0 DUP1 PUSH0 PUSH1 0x60 DUP5 DUP7 SUB SLT ISZERO PUSH2 0xDF1 JUMPI PUSH2 0xDF0 PUSH2 0xB44 JUMP JUMPDEST JUMPDEST PUSH0 DUP5 ADD CALLDATALOAD PUSH8 0xFFFFFFFFFFFFFFFF DUP2 GT ISZERO PUSH2 0xE0E JUMPI PUSH2 0xE0D PUSH2 0xB48 JUMP JUMPDEST JUMPDEST PUSH2 0xE1A DUP7 DUP3 DUP8 ADD PUSH2 0xDAD JUMP JUMPDEST SWAP4 POP POP PUSH1 0x20 DUP5 ADD CALLDATALOAD PUSH8 0xFFFFFFFFFFFFFFFF DUP2 GT ISZERO PUSH2 0xE3B JUMPI PUSH2 0xE3A PUSH2 0xB48 JUMP JUMPDEST JUMPDEST PUSH2 0xE47 DUP7 DUP3 DUP8 ADD PUSH2 0xDAD JUMP JUMPDEST SWAP3 POP POP PUSH1 0x40 PUSH2 0xE58 DUP7 DUP3 DUP8 ADD PUSH2 0xB6B JUMP JUMPDEST SWAP2 POP POP SWAP3 POP SWAP3 POP SWAP3 JUMP JUMPDEST PUSH0 DUP2 MLOAD SWAP1 POP SWAP2 SWAP1 POP JUMP JUMPDEST PUSH0 DUP3 DUP3 MSTORE PUSH1 0x20 DUP3 ADD SWAP1 POP SWAP3 SWAP2 POP POP JUMP JUMPDEST PUSH0 JUMPDEST DUP4 DUP2 LT ISZERO PUSH2 0xE99 JUMPI DUP1 DUP3 ADD MLOAD DUP2 DUP5 ADD MSTORE PUSH1 0x20 DUP2 ADD SWAP1 POP PUSH2 0xE7E JUMP JUMPDEST PUSH0 DUP5 DUP5 ADD MSTORE POP POP POP POP JUMP JUMPDEST PUSH0 PUSH2 0xEAE DUP3 PUSH2 0xE62 JUMP JUMPDEST PUSH2 0xEB8 DUP2 DUP6 PUSH2 0xE6C JUMP JUMPDEST SWAP4 POP PUSH2 0xEC8 DUP2 DUP6 PUSH1 0x20 DUP7 ADD PUSH2 0xE7C JUMP JUMPDEST PUSH2 0xED1 DUP2 PUSH2 0xCA6 JUMP JUMPDEST DUP5 ADD SWAP2 POP POP SWAP3 SWAP2 POP POP JUMP JUMPDEST PUSH32 0x4E487B7100000000000000000000000000000000000000000000000000000000 PUSH0 MSTORE PUSH1 0x21 PUSH1 0x4 MSTORE PUSH1 0x24 PUSH0 REVERT JUMPDEST PUSH1 0x2 DUP2 LT PUSH2 0xF1A JUMPI PUSH2 0xF19 PUSH2 0xEDC JUMP JUMPDEST JUMPDEST POP JUMP JUMPDEST PUSH0 DUP2 SWAP1 POP PUSH2 0xF2A DUP3 PUSH2 0xF09 JUMP JUMPDEST SWAP2 SWAP1 POP JUMP JUMPDEST PUSH0 PUSH2 0xF39 DUP3 PUSH2 0xF1D JUMP JUMPDEST SWAP1 POP SWAP2 SWAP1 POP JUMP JUMPDEST PUSH2 0xF49 DUP2 PUSH2 0xF2F JUMP JUMPDEST DUP3 MSTORE POP POP JUMP JUMPDEST PUSH0 PUSH1 0xC0 DUP3 ADD SWAP1 POP PUSH2 0xF62 PUSH0 DUP4 ADD DUP10 PUSH2 0xC76 JUMP JUMPDEST DUP2 DUP2 SUB PUSH1 0x20 DUP4 ADD MSTORE PUSH2 0xF74 DUP2 DUP9 PUSH2 0xEA4 JUMP JUMPDEST SWAP1 POP DUP2 DUP2 SUB PUSH1 0x40 DUP4 ADD MSTORE PUSH2 0xF88 DUP2 DUP8 PUSH2 0xEA4 JUMP JUMPDEST SWAP1 POP PUSH2 0xF97 PUSH1 0x60 DUP4 ADD DUP7 PUSH2 0xBAA JUMP JUMPDEST PUSH2 0xFA4 PUSH1 0x80 DUP4 ADD DUP6 PUSH2 0xBAA JUMP JUMPDEST PUSH2 0xFB1 PUSH1 0xA0 DUP4 ADD DUP5 PUSH2 0xF40 JUMP JUMPDEST SWAP8 SWAP7 POP POP POP POP POP POP POP JUMP JUMPDEST PUSH32 0x4F6E6C7920746865206F776E65722063616E2063616C6C20746869732066756E PUSH0 DUP3 ADD MSTORE PUSH32 0x6374696F6E2E0000000000000000000000000000000000000000000000000000 PUSH1 0x20 DUP3 ADD MSTORE POP JUMP JUMPDEST PUSH0 PUSH2 0x1016 PUSH1 0x26 DUP4 PUSH2 0xE6C JUMP JUMPDEST SWAP2 POP PUSH2 0x1021 DUP3 PUSH2 0xFBC JUMP JUMPDEST PUSH1 0x40 DUP3 ADD SWAP1 POP SWAP2 SWAP1 POP JUMP JUMPDEST PUSH0 PUSH1 0x20 DUP3 ADD SWAP1 POP DUP2 DUP2 SUB PUSH0 DUP4 ADD MSTORE PUSH2 0x1043 DUP2 PUSH2 0x100A JUMP JUMPDEST SWAP1 POP SWAP2 SWAP1 POP JUMP JUMPDEST PUSH32 0x46756E6472616973657220646F6573206E6F7420657869737400000000000000 PUSH0 DUP3 ADD MSTORE POP JUMP JUMPDEST PUSH0 PUSH2 0x107E PUSH1 0x19 DUP4 PUSH2 0xE6C JUMP JUMPDEST SWAP2 POP PUSH2 0x1089 DUP3 PUSH2 0x104A JUMP JUMPDEST PUSH1 0x20 DUP3 ADD SWAP1 POP SWAP2 SWAP1 POP JUMP JUMPDEST PUSH0 PUSH1 0x20 DUP3 ADD SWAP1 POP DUP2 DUP2 SUB PUSH0 DUP4 ADD MSTORE PUSH2 0x10AB DUP2 PUSH2 0x1072 JUMP JUMPDEST SWAP1 POP SWAP2 SWAP1 POP JUMP JUMPDEST PUSH32 0x4E487B7100000000000000000000000000000000000000000000000000000000 PUSH0 MSTORE PUSH1 0x32 PUSH1 0x4 MSTORE PUSH1 0x24 PUSH0 REVERT JUMPDEST PUSH32 0x46756E64726169736572206973206E6F7420636F6D706C657465640000000000 PUSH0 DUP3 ADD MSTORE POP JUMP JUMPDEST PUSH0 PUSH2 0x1113 PUSH1 0x1B DUP4 PUSH2 0xE6C JUMP JUMPDEST SWAP2 POP PUSH2 0x111E DUP3 PUSH2 0x10DF JUMP JUMPDEST PUSH1 0x20 DUP3 ADD SWAP1 POP SWAP2 SWAP1 POP JUMP JUMPDEST PUSH0 PUSH1 0x20 DUP3 ADD SWAP1 POP DUP2 DUP2 SUB PUSH0 DUP4 ADD MSTORE PUSH2 0x1140 DUP2 PUSH2 0x1107 JUMP JUMPDEST SWAP1 POP SWAP2 SWAP1 POP JUMP JUMPDEST PUSH0 DUP2 SWAP1 POP SWAP3 SWAP2 POP POP JUMP JUMPDEST POP JUMP JUMPDEST PUSH0 PUSH2 0x115F PUSH0 DUP4 PUSH2 0x1147 JUMP JUMPDEST SWAP2 POP PUSH2 0x116A DUP3 PUSH2 0x1151 JUMP JUMPDEST PUSH0 DUP3 ADD SWAP1 POP SWAP2 SWAP1 POP JUMP JUMPDEST PUSH0 PUSH2 0x117E DUP3 PUSH2 0x1154 JUMP JUMPDEST SWAP2 POP DUP2 SWAP1 POP SWAP2 SWAP1 POP JUMP JUMPDEST PUSH32 0x5769746864726177616C206661696C6564000000000000000000000000000000 PUSH0 DUP3 ADD MSTORE POP JUMP JUMPDEST PUSH0 PUSH2 0x11BC PUSH1 0x11 DUP4 PUSH2 0xE6C JUMP JUMPDEST SWAP2 POP PUSH2 0x11C7 DUP3 PUSH2 0x1188 JUMP JUMPDEST PUSH1 0x20 DUP3 ADD SWAP1 POP SWAP2 SWAP1 POP JUMP JUMPDEST PUSH0 PUSH1 0x20 DUP3 ADD SWAP1 POP DUP2 DUP2 SUB PUSH0 DUP4 ADD MSTORE PUSH2 0x11E9 DUP2 PUSH2 0x11B0 JUMP JUMPDEST SWAP1 POP SWAP2 SWAP1 POP JUMP JUMPDEST PUSH0 PUSH10 0xFFFFFFFFFFFFFFFFFFFF DUP3 AND SWAP1 POP SWAP2 SWAP1 POP JUMP JUMPDEST PUSH2 0x120E DUP2 PUSH2 0x11F0 JUMP JUMPDEST DUP2 EQ PUSH2 0x1218 JUMPI PUSH0 DUP1 REVERT JUMPDEST POP JUMP JUMPDEST PUSH0 DUP2 MLOAD SWAP1 POP PUSH2 0x1229 DUP2 PUSH2 0x1205 JUMP JUMPDEST SWAP3 SWAP2 POP POP JUMP JUMPDEST PUSH0 DUP2 SWAP1 POP SWAP2 SWAP1 POP JUMP JUMPDEST PUSH2 0x1241 DUP2 PUSH2 0x122F JUMP JUMPDEST DUP2 EQ PUSH2 0x124B JUMPI PUSH0 DUP1 REVERT JUMPDEST POP JUMP JUMPDEST PUSH0 DUP2 MLOAD SWAP1 POP PUSH2 0x125C DUP2 PUSH2 0x1238 JUMP JUMPDEST SWAP3 SWAP2 POP POP JUMP JUMPDEST PUSH0 DUP2 MLOAD SWAP1 POP PUSH2 0x1270 DUP2 PUSH2 0xB55 JUMP JUMPDEST SWAP3 SWAP2 POP POP JUMP JUMPDEST PUSH0 DUP1 PUSH0 DUP1 PUSH0 PUSH1 0xA0 DUP7 DUP9 SUB SLT ISZERO PUSH2 0x128F JUMPI PUSH2 0x128E PUSH2 0xB44 JUMP JUMPDEST JUMPDEST PUSH0 PUSH2 0x129C DUP9 DUP3 DUP10 ADD PUSH2 0x121B JUMP JUMPDEST SWAP6 POP POP PUSH1 0x20 PUSH2 0x12AD DUP9 DUP3 DUP10 ADD PUSH2 0x124E JUMP JUMPDEST SWAP5 POP POP PUSH1 0x40 PUSH2 0x12BE DUP9 DUP3 DUP10 ADD PUSH2 0x1262 JUMP JUMPDEST SWAP4 POP POP PUSH1 0x60 PUSH2 0x12CF DUP9 DUP3 DUP10 ADD PUSH2 0x1262 JUMP JUMPDEST SWAP3 POP POP PUSH1 0x80 PUSH2 0x12E0 DUP9 DUP3 DUP10 ADD PUSH2 0x121B JUMP JUMPDEST SWAP2 POP POP SWAP3 SWAP6 POP SWAP3 SWAP6 SWAP1 SWAP4 POP JUMP JUMPDEST PUSH32 0x4E487B7100000000000000000000000000000000000000000000000000000000 PUSH0 MSTORE PUSH1 0x11 PUSH1 0x4 MSTORE PUSH1 0x24 PUSH0 REVERT JUMPDEST PUSH0 PUSH2 0x1324 DUP3 PUSH2 0xB4C JUMP JUMPDEST SWAP2 POP PUSH2 0x132F DUP4 PUSH2 0xB4C JUMP JUMPDEST SWAP3 POP DUP3 DUP3 MUL PUSH2 0x133D DUP2 PUSH2 0xB4C JUMP JUMPDEST SWAP2 POP DUP3 DUP3 DIV DUP5 EQ DUP4 ISZERO OR PUSH2 0x1354 JUMPI PUSH2 0x1353 PUSH2 0x12ED JUMP JUMPDEST JUMPDEST POP SWAP3 SWAP2 POP POP JUMP JUMPDEST PUSH32 0x46756E64726169736572206E616D652063616E6E6F7420626520656D70747900 PUSH0 DUP3 ADD MSTORE POP JUMP JUMPDEST PUSH0 PUSH2 0x138F PUSH1 0x1F DUP4 PUSH2 0xE6C JUMP JUMPDEST SWAP2 POP PUSH2 0x139A DUP3 PUSH2 0x135B JUMP JUMPDEST PUSH1 0x20 DUP3 ADD SWAP1 POP SWAP2 SWAP1 POP JUMP JUMPDEST PUSH0 PUSH1 0x20 DUP3 ADD SWAP1 POP DUP2 DUP2 SUB PUSH0 DUP4 ADD MSTORE PUSH2 0x13BC DUP2 PUSH2 0x1383 JUMP JUMPDEST SWAP1 POP SWAP2 SWAP1 POP JUMP JUMPDEST PUSH32 0x46756E64726169736572206465736372697074696F6E2063616E6E6F74206265 PUSH0 DUP3 ADD MSTORE PUSH32 0x20656D7074790000000000000000000000000000000000000000000000000000 PUSH1 0x20 DUP3 ADD MSTORE POP JUMP JUMPDEST PUSH0 PUSH2 0x141D PUSH1 0x26 DUP4 PUSH2 0xE6C JUMP JUMPDEST SWAP2 POP PUSH2 0x1428 DUP3 PUSH2 0x13C3 JUMP JUMPDEST PUSH1 0x40 DUP3 ADD SWAP1 POP SWAP2 SWAP1 POP JUMP JUMPDEST PUSH0 PUSH1 0x20 DUP3 ADD SWAP1 POP DUP2 DUP2 SUB PUSH0 DUP4 ADD MSTORE PUSH2 0x144A DUP2 PUSH2 0x1411 JUMP JUMPDEST SWAP1 POP SWAP2 SWAP1 POP JUMP JUMPDEST PUSH32 0x46756E6472616973657220676F616C20616D6F756E74206D7573742062652067 PUSH0 DUP3 ADD MSTORE PUSH32 0x726561746572207468616E203000000000000000000000000000000000000000 PUSH1 0x20 DUP3 ADD MSTORE POP JUMP JUMPDEST PUSH0 PUSH2 0x14AB PUSH1 0x2D DUP4 PUSH2 0xE6C JUMP JUMPDEST SWAP2 POP PUSH2 0x14B6 DUP3 PUSH2 0x1451 JUMP JUMPDEST PUSH1 0x40 DUP3 ADD SWAP1 POP SWAP2 SWAP1 POP JUMP JUMPDEST PUSH0 PUSH1 0x20 DUP3 ADD SWAP1 POP DUP2 DUP2 SUB PUSH0 DUP4 ADD MSTORE PUSH2 0x14D8 DUP2 PUSH2 0x149F JUMP JUMPDEST SWAP1 POP SWAP2 SWAP1 POP JUMP JUMPDEST PUSH32 0x4E487B7100000000000000000000000000000000000000000000000000000000 PUSH0 MSTORE PUSH1 0x22 PUSH1 0x4 MSTORE PUSH1 0x24 PUSH0 REVERT JUMPDEST PUSH0 PUSH1 0x2 DUP3 DIV SWAP1 POP PUSH1 0x1 DUP3 AND DUP1 PUSH2 0x1523 JUMPI PUSH1 0x7F DUP3 AND SWAP2 POP JUMPDEST PUSH1 0x20 DUP3 LT DUP2 SUB PUSH2 0x1536 JUMPI PUSH2 0x1535 PUSH2 0x14DF JUMP JUMPDEST JUMPDEST POP SWAP2 SWAP1 POP JUMP JUMPDEST PUSH0 DUP2 SWAP1 POP DUP2 PUSH0 MSTORE PUSH1 0x20 PUSH0 KECCAK256 SWAP1 POP SWAP2 SWAP1 POP JUMP JUMPDEST PUSH0 PUSH1 0x20 PUSH1 0x1F DUP4 ADD DIV SWAP1 POP SWAP2 SWAP1 POP JUMP JUMPDEST PUSH0 DUP3 DUP3 SHL SWAP1 POP SWAP3 SWAP2 POP POP JUMP JUMPDEST PUSH0 PUSH1 0x8 DUP4 MUL PUSH2 0x1598 PUSH32 0xFFFFFFFFFFFFFFFFFFFFFFFFFFFFFFFFFFFFFFFFFFFFFFFFFFFFFFFFFFFFFFFF DUP3 PUSH2 0x155D JUMP JUMPDEST PUSH2 0x15A2 DUP7 DUP4 PUSH2 0x155D JUMP JUMPDEST SWAP6 POP DUP1 NOT DUP5 AND SWAP4 POP DUP1 DUP7 AND DUP5 OR SWAP3 POP POP POP SWAP4 SWAP3 POP POP POP JUMP JUMPDEST PUSH0 PUSH2 0x15D4 PUSH2 0x15CF PUSH2 0x15CA DUP5 PUSH2 0xB4C JUMP JUMPDEST PUSH2 0xBF1 JUMP JUMPDEST PUSH2 0xB4C JUMP JUMPDEST SWAP1 POP SWAP2 SWAP1 POP JUMP JUMPDEST PUSH0 DUP2 SWAP1 POP SWAP2 SWAP1 POP JUMP JUMPDEST PUSH2 0x15ED DUP4 PUSH2 0x15BA JUMP JUMPDEST PUSH2 0x1601 PUSH2 0x15F9 DUP3 PUSH2 0x15DB JUMP JUMPDEST DUP5 DUP5 SLOAD PUSH2 0x1569 JUMP JUMPDEST DUP3 SSTORE POP POP POP POP JUMP JUMPDEST PUSH0 SWAP1 JUMP JUMPDEST PUSH2 0x1615 PUSH2 0x1609 JUMP JUMPDEST PUSH2 0x1620 DUP2 DUP5 DUP5 PUSH2 0x15E4 JUMP JUMPDEST POP POP POP JUMP JUMPDEST JUMPDEST DUP2 DUP2 LT ISZERO PUSH2 0x1643 JUMPI PUSH2 0x1638 PUSH0 DUP3 PUSH2 0x160D JUMP JUMPDEST PUSH1 0x1 DUP2 ADD SWAP1 POP PUSH2 0x1626 JUMP JUMPDEST POP POP JUMP JUMPDEST PUSH1 0x1F DUP3 GT ISZERO PUSH2 0x1688 JUMPI PUSH2 0x1659 DUP2 PUSH2 0x153C JUMP JUMPDEST PUSH2 0x1662 DUP5 PUSH2 0x154E JUMP JUMPDEST DUP2 ADD PUSH1 0x20 DUP6 LT ISZERO PUSH2 0x1671 JUMPI DUP2 SWAP1 POP JUMPDEST PUSH2 0x1685 PUSH2 0x167D DUP6 PUSH2 0x154E JUMP JUMPDEST DUP4 ADD DUP3 PUSH2 0x1625 JUMP JUMPDEST POP POP JUMPDEST POP POP POP JUMP JUMPDEST PUSH0 DUP3 DUP3 SHR SWAP1 POP SWAP3 SWAP2 POP POP JUMP JUMPDEST PUSH0 PUSH2 0x16A8 PUSH0 NOT DUP5 PUSH1 0x8 MUL PUSH2 0x168D JUMP JUMPDEST NOT DUP1 DUP4 AND SWAP2 POP POP SWAP3 SWAP2 POP POP JUMP JUMPDEST PUSH0 PUSH2 0x16C0 DUP4 DUP4 PUSH2 0x1699 JUMP JUMPDEST SWAP2 POP DUP3 PUSH1 0x2 MUL DUP3 OR SWAP1 POP SWAP3 SWAP2 POP POP JUMP JUMPDEST PUSH2 0x16D9 DUP3 PUSH2 0xE62 JUMP JUMPDEST PUSH8 0xFFFFFFFFFFFFFFFF DUP2 GT ISZERO PUSH2 0x16F2 JUMPI PUSH2 0x16F1 PUSH2 0xCB6 JUMP JUMPDEST JUMPDEST PUSH2 0x16FC DUP3 SLOAD PUSH2 0x150C JUMP JUMPDEST PUSH2 0x1707 DUP3 DUP3 DUP6 PUSH2 0x1647 JUMP JUMPDEST PUSH0 PUSH1 0x20 SWAP1 POP PUSH1 0x1F DUP4 GT PUSH1 0x1 DUP2 EQ PUSH2 0x1738 JUMPI PUSH0 DUP5 ISZERO PUSH2 0x1726 JUMPI DUP3 DUP8 ADD MLOAD SWAP1 POP JUMPDEST PUSH2 0x1730 DUP6 DUP3 PUSH2 0x16B5 JUMP JUMPDEST DUP7 SSTORE POP PUSH2 0x1797 JUMP JUMPDEST PUSH1 0x1F NOT DUP5 AND PUSH2 0x1746 DUP7 PUSH2 0x153C JUMP JUMPDEST PUSH0 JUMPDEST DUP3 DUP2 LT ISZERO PUSH2 0x176D JUMPI DUP5 DUP10 ADD MLOAD DUP3 SSTORE PUSH1 0x1 DUP3 ADD SWAP2 POP PUSH1 0x20 DUP6 ADD SWAP5 POP PUSH1 0x20 DUP2 ADD SWAP1 POP PUSH2 0x1748 JUMP JUMPDEST DUP7 DUP4 LT ISZERO PUSH2 0x178A JUMPI DUP5 DUP10 ADD MLOAD PUSH2 0x1786 PUSH1 0x1F DUP10 AND DUP3 PUSH2 0x1699 JUMP JUMPDEST DUP4 SSTORE POP JUMPDEST PUSH1 0x1 PUSH1 0x2 DUP9 MUL ADD DUP9 SSTORE POP POP POP JUMPDEST POP POP POP POP POP POP JUMP JUMPDEST PUSH32 0x46756E64726169736572206973206E6F74206163746976650000000000000000 PUSH0 DUP3 ADD MSTORE POP JUMP JUMPDEST PUSH0 PUSH2 0x17D3 PUSH1 0x18 DUP4 PUSH2 0xE6C JUMP JUMPDEST SWAP2 POP PUSH2 0x17DE DUP3 PUSH2 0x179F JUMP JUMPDEST PUSH1 0x20 DUP3 ADD SWAP1 POP SWAP2 SWAP1 POP JUMP JUMPDEST PUSH0 PUSH1 0x20 DUP3 ADD SWAP1 POP DUP2 DUP2 SUB PUSH0 DUP4 ADD MSTORE PUSH2 0x1800 DUP2 PUSH2 0x17C7 JUMP JUMPDEST SWAP1 POP SWAP2 SWAP1 POP JUMP JUMPDEST PUSH32 0x53656E7420616D6F756E74206D7573742062652067726561746572207468616E PUSH0 DUP3 ADD MSTORE PUSH32 0x2030000000000000000000000000000000000000000000000000000000000000 PUSH1 0x20 DUP3 ADD MSTORE POP JUMP JUMPDEST PUSH0 PUSH2 0x1861 PUSH1 0x22 DUP4 PUSH2 0xE6C JUMP JUMPDEST SWAP2 POP PUSH2 0x186C DUP3 PUSH2 0x1807 JUMP JUMPDEST PUSH1 0x40 DUP3 ADD SWAP1 POP SWAP2 SWAP1 POP JUMP JUMPDEST PUSH0 PUSH1 0x20 DUP3 ADD SWAP1 POP DUP2 DUP2 SUB PUSH0 DUP4 ADD MSTORE PUSH2 0x188E DUP2 PUSH2 0x1855 JUMP JUMPDEST SWAP1 POP SWAP2 SWAP1 POP JUMP JUMPDEST PUSH0 PUSH2 0x189F DUP3 PUSH2 0xB4C JUMP JUMPDEST SWAP2 POP PUSH2 0x18AA DUP4 PUSH2 0xB4C JUMP JUMPDEST SWAP3 POP DUP3 DUP3 ADD SWAP1 POP DUP1 DUP3 GT ISZERO PUSH2 0x18C2 JUMPI PUSH2 0x18C1 PUSH2 0x12ED JUMP JUMPDEST JUMPDEST SWAP3 SWAP2 POP POP JUMP JUMPDEST PUSH32 0x46756E6472616973657220646F6573206E6F74206D65657420746865206D696E PUSH0 DUP3 ADD MSTORE PUSH32 0x696D756D2066756E64696E6720726571756972656D656E740000000000000000 PUSH1 0x20 DUP3 ADD MSTORE POP JUMP JUMPDEST PUSH0 PUSH2 0x1922 PUSH1 0x38 DUP4 PUSH2 0xE6C JUMP JUMPDEST SWAP2 POP PUSH2 0x192D DUP3 PUSH2 0x18C8 JUMP JUMPDEST PUSH1 0x40 DUP3 ADD SWAP1 POP SWAP2 SWAP1 POP JUMP JUMPDEST PUSH0 PUSH1 0x20 DUP3 ADD SWAP1 POP DUP2 DUP2 SUB PUSH0 DUP4 ADD MSTORE PUSH2 0x194F DUP2 PUSH2 0x1916 JUMP JUMPDEST SWAP1 POP SWAP2 SWAP1 POP JUMP JUMPDEST PUSH0 PUSH1 0x40 DUP3 ADD SWAP1 POP PUSH2 0x1969 PUSH0 DUP4 ADD DUP6 PUSH2 0xBAA JUMP JUMPDEST PUSH2 0x1976 PUSH1 0x20 DUP4 ADD DUP5 PUSH2 0xBAA JUMP JUMPDEST SWAP4 SWAP3 POP POP POP JUMP INVALID LOG2 PUSH5 0x6970667358 0x22 SLT KECCAK256 PUSH0 PUSH3 0x5751C2 0xC2 JUMPDEST 0xAD LOG0 0xE2 PUSH23 0x8CE0A6C8D1AEC927CFC07E4CDFDC1A97483DB5E32A6473 PUSH16 0x6C634300081600330000000000000000 "
				},
				"gasEstimates": {
					"creation": {
						"codeDepositCost": "1315800",
						"executionCost": "infinite",
						"totalCost": "infinite"
					},
					"external": {
						"createFundraiser(string,string,uint256)": "infinite",
						"fund(uint256)": "infinite",
						"fundraisers(uint256)": "infinite",
						"getETHToUSD(uint256)": "infinite",
						"minimumUSD()": "2448",
						"owner()": "2508",
						"priceFeed()": "infinite",
						"withdrawFunds(uint256)": "infinite"
					}
				},
				"methodIdentifiers": {
					"createFundraiser(string,string,uint256)": "c50870b1",
					"fund(uint256)": "ca1d209d",
					"fundraisers(uint256)": "f38f72fb",
					"getETHToUSD(uint256)": "66da13c6",
					"minimumUSD()": "3430a88c",
					"owner()": "8da5cb5b",
					"priceFeed()": "741bef1a",
					"withdrawFunds(uint256)": "155dd5ee"
				}
			},
			"storageLayout": {
				"storage": [
					{
						"astId": 69,
						"contract": "contracts/AdvancedFundMe.sol:FundMeAdvanced",
						"label": "fundraisers",
						"offset": 0,
						"slot": "0",
						"type": "t_array(t_struct(Fundraiser)65_storage)dyn_storage"
					},
					{
						"astId": 71,
						"contract": "contracts/AdvancedFundMe.sol:FundMeAdvanced",
						"label": "owner",
						"offset": 0,
						"slot": "1",
						"type": "t_address"
					},
					{
						"astId": 78,
						"contract": "contracts/AdvancedFundMe.sol:FundMeAdvanced",
						"label": "minimumUSD",
						"offset": 0,
						"slot": "2",
						"type": "t_uint256"
					},
					{
						"astId": 81,
						"contract": "contracts/AdvancedFundMe.sol:FundMeAdvanced",
						"label": "priceFeed",
						"offset": 0,
						"slot": "3",
						"type": "t_contract(AggregatorV3Interface)45"
					}
				],
				"types": {
					"t_address": {
						"encoding": "inplace",
						"label": "address",
						"numberOfBytes": "20"
					},
					"t_array(t_struct(Fundraiser)65_storage)dyn_storage": {
						"base": "t_struct(Fundraiser)65_storage",
						"encoding": "dynamic_array",
						"label": "struct FundMeAdvanced.Fundraiser[]",
						"numberOfBytes": "32"
					},
					"t_contract(AggregatorV3Interface)45": {
						"encoding": "inplace",
						"label": "contract AggregatorV3Interface",
						"numberOfBytes": "20"
					},
					"t_enum(FundraiserStatus)51": {
						"encoding": "inplace",
						"label": "enum FundMeAdvanced.FundraiserStatus",
						"numberOfBytes": "1"
					},
					"t_string_storage": {
						"encoding": "bytes",
						"label": "string",
						"numberOfBytes": "32"
					},
					"t_struct(Fundraiser)65_storage": {
						"encoding": "inplace",
						"label": "struct FundMeAdvanced.Fundraiser",
						"members": [
							{
								"astId": 53,
								"contract": "contracts/AdvancedFundMe.sol:FundMeAdvanced",
								"label": "creator",
								"offset": 0,
								"slot": "0",
								"type": "t_address"
							},
							{
								"astId": 55,
								"contract": "contracts/AdvancedFundMe.sol:FundMeAdvanced",
								"label": "name",
								"offset": 0,
								"slot": "1",
								"type": "t_string_storage"
							},
							{
								"astId": 57,
								"contract": "contracts/AdvancedFundMe.sol:FundMeAdvanced",
								"label": "description",
								"offset": 0,
								"slot": "2",
								"type": "t_string_storage"
							},
							{
								"astId": 59,
								"contract": "contracts/AdvancedFundMe.sol:FundMeAdvanced",
								"label": "goal",
								"offset": 0,
								"slot": "3",
								"type": "t_uint256"
							},
							{
								"astId": 61,
								"contract": "contracts/AdvancedFundMe.sol:FundMeAdvanced",
								"label": "amountRaised",
								"offset": 0,
								"slot": "4",
								"type": "t_uint256"
							},
							{
								"astId": 64,
								"contract": "contracts/AdvancedFundMe.sol:FundMeAdvanced",
								"label": "status",
								"offset": 0,
								"slot": "5",
								"type": "t_enum(FundraiserStatus)51"
							}
						],
						"numberOfBytes": "192"
					},
					"t_uint256": {
						"encoding": "inplace",
						"label": "uint256",
						"numberOfBytes": "32"
					}
				}
			},
			"userdoc": {
				"kind": "user",
				"methods": {},
				"version": 1
			}
		}
	}
}