{
	"contracts/Government2.sol": {
		"Government": {
			"abi": [
				{
					"inputs": [],
					"stateMutability": "nonpayable",
					"type": "constructor"
				},
				{
					"inputs": [
						{
							"internalType": "address",
							"name": "employee",
							"type": "address"
						},
						{
							"internalType": "string",
							"name": "departmentName",
							"type": "string"
						}
					],
					"name": "assignToDepartment",
					"outputs": [],
					"stateMutability": "nonpayable",
					"type": "function"
				},
				{
					"inputs": [
						{
							"internalType": "address",
							"name": "",
							"type": "address"
						}
					],
					"name": "citizenBalances",
					"outputs": [
						{
							"internalType": "uint256",
							"name": "",
							"type": "uint256"
						}
					],
					"stateMutability": "view",
					"type": "function"
				},
				{
					"inputs": [
						{
							"internalType": "address",
							"name": "",
							"type": "address"
						}
					],
					"name": "citizenDepartments",
					"outputs": [
						{
							"internalType": "string",
							"name": "name",
							"type": "string"
						}
					],
					"stateMutability": "view",
					"type": "function"
				},
				{
					"inputs": [
						{
							"internalType": "uint256",
							"name": "",
							"type": "uint256"
						}
					],
					"name": "citizens",
					"outputs": [
						{
							"internalType": "address",
							"name": "",
							"type": "address"
						}
					],
					"stateMutability": "view",
					"type": "function"
				},
				{
					"inputs": [
						{
							"internalType": "string",
							"name": "name",
							"type": "string"
						}
					],
					"name": "createDepartment",
					"outputs": [],
					"stateMutability": "nonpayable",
					"type": "function"
				},
				{
					"inputs": [
						{
							"internalType": "address",
							"name": "",
							"type": "address"
						}
					],
					"name": "departmentBudgets",
					"outputs": [
						{
							"internalType": "uint256",
							"name": "",
							"type": "uint256"
						}
					],
					"stateMutability": "view",
					"type": "function"
				},
				{
					"inputs": [],
					"name": "destroy",
					"outputs": [],
					"stateMutability": "nonpayable",
					"type": "function"
				},
				{
					"inputs": [
						{
							"internalType": "uint256",
							"name": "lawIndex",
							"type": "uint256"
						}
					],
					"name": "enactLaw",
					"outputs": [],
					"stateMutability": "nonpayable",
					"type": "function"
				},
				{
					"inputs": [],
					"name": "getCitizens",
					"outputs": [
						{
							"internalType": "address[]",
							"name": "",
							"type": "address[]"
						}
					],
					"stateMutability": "view",
					"type": "function"
				},
				{
					"inputs": [
						{
							"internalType": "address",
							"name": "departmentOwner",
							"type": "address"
						}
					],
					"name": "getDepartmentEmployees",
					"outputs": [
						{
							"internalType": "address[]",
							"name": "",
							"type": "address[]"
						}
					],
					"stateMutability": "view",
					"type": "function"
				},
				{
					"inputs": [],
					"name": "getLawCount",
					"outputs": [
						{
							"internalType": "uint256",
							"name": "",
							"type": "uint256"
						}
					],
					"stateMutability": "view",
					"type": "function"
				},
				{
					"inputs": [],
					"name": "getOfficials",
					"outputs": [
						{
							"internalType": "address[]",
							"name": "",
							"type": "address[]"
						}
					],
					"stateMutability": "view",
					"type": "function"
				},
				{
					"inputs": [
						{
							"internalType": "address payable",
							"name": "user",
							"type": "address"
						}
					],
					"name": "grantAccess",
					"outputs": [],
					"stateMutability": "nonpayable",
					"type": "function"
				},
				{
					"inputs": [
						{
							"internalType": "address",
							"name": "",
							"type": "address"
						}
					],
					"name": "isLawEnforcement",
					"outputs": [
						{
							"internalType": "bool",
							"name": "",
							"type": "bool"
						}
					],
					"stateMutability": "view",
					"type": "function"
				},
				{
					"inputs": [
						{
							"internalType": "address",
							"name": "",
							"type": "address"
						}
					],
					"name": "isOfficial",
					"outputs": [
						{
							"internalType": "bool",
							"name": "",
							"type": "bool"
						}
					],
					"stateMutability": "view",
					"type": "function"
				},
				{
					"inputs": [
						{
							"internalType": "uint256",
							"name": "",
							"type": "uint256"
						}
					],
					"name": "lawEnforcement",
					"outputs": [
						{
							"internalType": "address",
							"name": "",
							"type": "address"
						}
					],
					"stateMutability": "view",
					"type": "function"
				},
				{
					"inputs": [
						{
							"internalType": "uint256",
							"name": "",
							"type": "uint256"
						}
					],
					"name": "laws",
					"outputs": [
						{
							"internalType": "string",
							"name": "title",
							"type": "string"
						},
						{
							"internalType": "string",
							"name": "content",
							"type": "string"
						},
						{
							"internalType": "address",
							"name": "proposedBy",
							"type": "address"
						},
						{
							"internalType": "bool",
							"name": "enacted",
							"type": "bool"
						}
					],
					"stateMutability": "view",
					"type": "function"
				},
				{
					"inputs": [
						{
							"internalType": "uint256",
							"name": "",
							"type": "uint256"
						}
					],
					"name": "officials",
					"outputs": [
						{
							"internalType": "address",
							"name": "",
							"type": "address"
						}
					],
					"stateMutability": "view",
					"type": "function"
				},
				{
					"inputs": [
						{
							"internalType": "string",
							"name": "title",
							"type": "string"
						},
						{
							"internalType": "string",
							"name": "content",
							"type": "string"
						}
					],
					"name": "proposeLaw",
					"outputs": [],
					"stateMutability": "nonpayable",
					"type": "function"
				},
				{
					"inputs": [],
					"name": "registerAsCitizen",
					"outputs": [],
					"stateMutability": "nonpayable",
					"type": "function"
				},
				{
					"inputs": [],
					"name": "registerAsLawEnforcement",
					"outputs": [],
					"stateMutability": "nonpayable",
					"type": "function"
				},
				{
					"inputs": [],
					"name": "registerAsOfficial",
					"outputs": [],
					"stateMutability": "nonpayable",
					"type": "function"
				},
				{
					"inputs": [
						{
							"internalType": "address payable",
							"name": "user",
							"type": "address"
						}
					],
					"name": "revokeAccess",
					"outputs": [],
					"stateMutability": "nonpayable",
					"type": "function"
				},
				{
					"inputs": [
						{
							"internalType": "address",
							"name": "candidate",
							"type": "address"
						}
					],
					"name": "vote",
					"outputs": [],
					"stateMutability": "nonpayable",
					"type": "function"
				}
			],
			"devdoc": {
				"kind": "dev",
				"methods": {},
				"version": 1
			},
			"evm": {
				"assembly": "    /* \"contracts/Government2.sol\":61:4050  contract Government {... */\n  mstore(0x40, 0x80)\n    /* \"contracts/Government2.sol\":741:801  constructor() {... */\n  callvalue\n  dup1\n  iszero\n  tag_1\n  jumpi\n  0x00\n  dup1\n  revert\ntag_1:\n  pop\n    /* \"contracts/Government2.sol\":782:792  msg.sender */\n  caller\n    /* \"contracts/Government2.sol\":766:771  owner */\n  0x03\n  0x00\n    /* \"contracts/Government2.sol\":766:793  owner = payable(msg.sender) */\n  0x0100\n  exp\n  dup2\n  sload\n  dup2\n  0xffffffffffffffffffffffffffffffffffffffff\n  mul\n  not\n  and\n  swap1\n  dup4\n  0xffffffffffffffffffffffffffffffffffffffff\n  and\n  mul\n  or\n  swap1\n  sstore\n  pop\n    /* \"contracts/Government2.sol\":61:4050  contract Government {... */\n  dataSize(sub_0)\n  dup1\n  dataOffset(sub_0)\n  0x00\n  codecopy\n  0x00\n  return\nstop\n\nsub_0: assembly {\n        /* \"contracts/Government2.sol\":61:4050  contract Government {... */\n      mstore(0x40, 0x80)\n      callvalue\n      dup1\n      iszero\n      tag_1\n      jumpi\n      0x00\n      dup1\n      revert\n    tag_1:\n      pop\n      jumpi(tag_2, lt(calldatasize, 0x04))\n      shr(0xe0, calldataload(0x00))\n      dup1\n      0x77b81aac\n      gt\n      tag_27\n      jumpi\n      dup1\n      0x97ad6afd\n      gt\n      tag_28\n      jumpi\n      dup1\n      0x97ad6afd\n      eq\n      tag_21\n      jumpi\n      dup1\n      0x9dd08259\n      eq\n      tag_22\n      jumpi\n      dup1\n      0xa91703ec\n      eq\n      tag_23\n      jumpi\n      dup1\n      0xbfced66b\n      eq\n      tag_24\n      jumpi\n      dup1\n      0xd41fb138\n      eq\n      tag_25\n      jumpi\n      dup1\n      0xeee8c7db\n      eq\n      tag_26\n      jumpi\n      jump(tag_2)\n    tag_28:\n      dup1\n      0x77b81aac\n      eq\n      tag_15\n      jumpi\n      dup1\n      0x7ebdee0d\n      eq\n      tag_16\n      jumpi\n      dup1\n      0x83197ef0\n      eq\n      tag_17\n      jumpi\n      dup1\n      0x85e68531\n      eq\n      tag_18\n      jumpi\n      dup1\n      0x89907717\n      eq\n      tag_19\n      jumpi\n      dup1\n      0x8dd759a5\n      eq\n      tag_20\n      jumpi\n      jump(tag_2)\n    tag_27:\n      dup1\n      0x58bc7331\n      gt\n      tag_29\n      jumpi\n      dup1\n      0x58bc7331\n      eq\n      tag_9\n      jumpi\n      dup1\n      0x62e36eb8\n      eq\n      tag_10\n      jumpi\n      dup1\n      0x6475f4fe\n      eq\n      tag_11\n      jumpi\n      dup1\n      0x6dd7d8ea\n      eq\n      tag_12\n      jumpi\n      dup1\n      0x703c2bec\n      eq\n      tag_13\n      jumpi\n      dup1\n      0x726d5807\n      eq\n      tag_14\n      jumpi\n      jump(tag_2)\n    tag_29:\n      dup1\n      0x09a34f00\n      eq\n      tag_3\n      jumpi\n      dup1\n      0x0ae5e739\n      eq\n      tag_4\n      jumpi\n      dup1\n      0x1b7b8dac\n      eq\n      tag_5\n      jumpi\n      dup1\n      0x3b9392cf\n      eq\n      tag_6\n      jumpi\n      dup1\n      0x445ed26e\n      eq\n      tag_7\n      jumpi\n      dup1\n      0x535c4ded\n      eq\n      tag_8\n      jumpi\n    tag_2:\n      0x00\n      dup1\n      revert\n        /* \"contracts/Government2.sol\":88:113  address[] public citizens */\n    tag_3:\n      tag_30\n      0x04\n      dup1\n      calldatasize\n      sub\n      dup2\n      add\n      swap1\n      tag_31\n      swap2\n      swap1\n      tag_32\n      jump\t// in\n    tag_31:\n      tag_33\n      jump\t// in\n    tag_30:\n      mload(0x40)\n      tag_34\n      swap2\n      swap1\n      tag_35\n      jump\t// in\n    tag_34:\n      mload(0x40)\n      dup1\n      swap2\n      sub\n      swap1\n      return\n        /* \"contracts/Government2.sol\":3478:3633  function grantAccess(address payable user) public {... */\n    tag_4:\n      tag_36\n      0x04\n      dup1\n      calldatasize\n      sub\n      dup2\n      add\n      swap1\n      tag_37\n      swap2\n      swap1\n      tag_38\n      jump\t// in\n    tag_37:\n      tag_39\n      jump\t// in\n    tag_36:\n      stop\n        /* \"contracts/Government2.sol\":2164:2391  function createDepartment(string memory name) public {... */\n    tag_5:\n      tag_40\n      0x04\n      dup1\n      calldatasize\n      sub\n      dup2\n      add\n      swap1\n      tag_41\n      swap2\n      swap1\n      tag_42\n      jump\t// in\n    tag_41:\n      tag_43\n      jump\t// in\n    tag_40:\n      stop\n        /* \"contracts/Government2.sol\":323:373  mapping(address => uint256) public citizenBalances */\n    tag_6:\n      tag_44\n      0x04\n      dup1\n      calldatasize\n      sub\n      dup2\n      add\n      swap1\n      tag_45\n      swap2\n      swap1\n      tag_46\n      jump\t// in\n    tag_45:\n      tag_47\n      jump\t// in\n    tag_44:\n      mload(0x40)\n      tag_48\n      swap2\n      swap1\n      tag_49\n      jump\t// in\n    tag_48:\n      mload(0x40)\n      dup1\n      swap2\n      sub\n      swap1\n      return\n        /* \"contracts/Government2.sol\":1890:2156  function enactLaw(uint256 lawIndex) public {... */\n    tag_7:\n      tag_50\n      0x04\n      dup1\n      calldatasize\n      sub\n      dup2\n      add\n      swap1\n      tag_51\n      swap2\n      swap1\n      tag_32\n      jump\t// in\n    tag_51:\n      tag_52\n      jump\t// in\n    tag_50:\n      stop\n        /* \"contracts/Government2.sol\":1215:1461  function registerAsLawEnforcement() public {... */\n    tag_8:\n      tag_53\n      tag_54\n      jump\t// in\n    tag_53:\n      stop\n        /* \"contracts/Government2.sol\":2995:3093  function getOfficials() public view returns (address[] memory) {... */\n    tag_9:\n      tag_55\n      tag_56\n      jump\t// in\n    tag_55:\n      mload(0x40)\n      tag_57\n      swap2\n      swap1\n      tag_58\n      jump\t// in\n    tag_57:\n      mload(0x40)\n      dup1\n      swap2\n      sub\n      swap1\n      return\n        /* \"contracts/Government2.sol\":809:983  function registerAsCitizen() public {... */\n    tag_10:\n      tag_59\n      tag_60\n      jump\t// in\n    tag_59:\n      stop\n        /* \"contracts/Government2.sol\":3205:3295  function getLawCount() public view returns (uint256) {... */\n    tag_11:\n      tag_61\n      tag_62\n      jump\t// in\n    tag_61:\n      mload(0x40)\n      tag_63\n      swap2\n      swap1\n      tag_49\n      jump\t// in\n    tag_63:\n      mload(0x40)\n      dup1\n      swap2\n      sub\n      swap1\n      return\n        /* \"contracts/Government2.sol\":1469:1658  function vote(address candidate) public {... */\n    tag_12:\n      tag_64\n      0x04\n      dup1\n      calldatasize\n      sub\n      dup2\n      add\n      swap1\n      tag_65\n      swap2\n      swap1\n      tag_46\n      jump\t// in\n    tag_65:\n      tag_66\n      jump\t// in\n    tag_64:\n      stop\n        /* \"contracts/Government2.sol\":380:432  mapping(address => uint256) public departmentBudgets */\n    tag_13:\n      tag_67\n      0x04\n      dup1\n      calldatasize\n      sub\n      dup2\n      add\n      swap1\n      tag_68\n      swap2\n      swap1\n      tag_46\n      jump\t// in\n    tag_68:\n      tag_69\n      jump\t// in\n    tag_67:\n      mload(0x40)\n      tag_70\n      swap2\n      swap1\n      tag_49\n      jump\t// in\n    tag_70:\n      mload(0x40)\n      dup1\n      swap2\n      sub\n      swap1\n      return\n        /* \"contracts/Government2.sol\":676:732  mapping(address => Department) public citizenDepartments */\n    tag_14:\n      tag_71\n      0x04\n      dup1\n      calldatasize\n      sub\n      dup2\n      add\n      swap1\n      tag_72\n      swap2\n      swap1\n      tag_46\n      jump\t// in\n    tag_72:\n      tag_73\n      jump\t// in\n    tag_71:\n      mload(0x40)\n      tag_74\n      swap2\n      swap1\n      tag_75\n      jump\t// in\n    tag_74:\n      mload(0x40)\n      dup1\n      swap2\n      sub\n      swap1\n      return\n        /* \"contracts/Government2.sol\":219:261  mapping(address => bool) public isOfficial */\n    tag_15:\n      tag_76\n      0x04\n      dup1\n      calldatasize\n      sub\n      dup2\n      add\n      swap1\n      tag_77\n      swap2\n      swap1\n      tag_46\n      jump\t// in\n    tag_77:\n      tag_78\n      jump\t// in\n    tag_76:\n      mload(0x40)\n      tag_79\n      swap2\n      swap1\n      tag_80\n      jump\t// in\n    tag_79:\n      mload(0x40)\n      dup1\n      swap2\n      sub\n      swap1\n      return\n        /* \"contracts/Government2.sol\":566:583  Law[] public laws */\n    tag_16:\n      tag_81\n      0x04\n      dup1\n      calldatasize\n      sub\n      dup2\n      add\n      swap1\n      tag_82\n      swap2\n      swap1\n      tag_32\n      jump\t// in\n    tag_82:\n      tag_83\n      jump\t// in\n    tag_81:\n      mload(0x40)\n      tag_84\n      swap5\n      swap4\n      swap3\n      swap2\n      swap1\n      tag_85\n      jump\t// in\n    tag_84:\n      mload(0x40)\n      dup1\n      swap2\n      sub\n      swap1\n      return\n        /* \"contracts/Government2.sol\":3900:4047  function destroy() public {... */\n    tag_17:\n      tag_86\n      tag_87\n      jump\t// in\n    tag_86:\n      stop\n        /* \"contracts/Government2.sol\":3641:3892  function revokeAccess(address payable user) public {... */\n    tag_18:\n      tag_88\n      0x04\n      dup1\n      calldatasize\n      sub\n      dup2\n      add\n      swap1\n      tag_89\n      swap2\n      swap1\n      tag_38\n      jump\t// in\n    tag_89:\n      tag_90\n      jump\t// in\n    tag_88:\n      stop\n        /* \"contracts/Government2.sol\":991:1207  function registerAsOfficial() public {... */\n    tag_19:\n      tag_91\n      tag_92\n      jump\t// in\n    tag_91:\n      stop\n        /* \"contracts/Government2.sol\":2399:2987  function assignToDepartment(address employee, string memory departmentName) public {... */\n    tag_20:\n      tag_93\n      0x04\n      dup1\n      calldatasize\n      sub\n      dup2\n      add\n      swap1\n      tag_94\n      swap2\n      swap1\n      tag_95\n      jump\t// in\n    tag_94:\n      tag_96\n      jump\t// in\n    tag_93:\n      stop\n        /* \"contracts/Government2.sol\":120:146  address[] public officials */\n    tag_21:\n      tag_97\n      0x04\n      dup1\n      calldatasize\n      sub\n      dup2\n      add\n      swap1\n      tag_98\n      swap2\n      swap1\n      tag_32\n      jump\t// in\n    tag_98:\n      tag_99\n      jump\t// in\n    tag_97:\n      mload(0x40)\n      tag_100\n      swap2\n      swap1\n      tag_35\n      jump\t// in\n    tag_100:\n      mload(0x40)\n      dup1\n      swap2\n      sub\n      swap1\n      return\n        /* \"contracts/Government2.sol\":268:316  mapping(address => bool) public isLawEnforcement */\n    tag_22:\n      tag_101\n      0x04\n      dup1\n      calldatasize\n      sub\n      dup2\n      add\n      swap1\n      tag_102\n      swap2\n      swap1\n      tag_46\n      jump\t// in\n    tag_102:\n      tag_103\n      jump\t// in\n    tag_101:\n      mload(0x40)\n      tag_104\n      swap2\n      swap1\n      tag_80\n      jump\t// in\n    tag_104:\n      mload(0x40)\n      dup1\n      swap2\n      sub\n      swap1\n      return\n        /* \"contracts/Government2.sol\":1666:1882  function proposeLaw(string memory title, string memory content) public {... */\n    tag_23:\n      tag_105\n      0x04\n      dup1\n      calldatasize\n      sub\n      dup2\n      add\n      swap1\n      tag_106\n      swap2\n      swap1\n      tag_107\n      jump\t// in\n    tag_106:\n      tag_108\n      jump\t// in\n    tag_105:\n      stop\n        /* \"contracts/Government2.sol\":3303:3470  function getDepartmentEmployees(address departmentOwner) public view returns (address[] memory) {... */\n    tag_24:\n      tag_109\n      0x04\n      dup1\n      calldatasize\n      sub\n      dup2\n      add\n      swap1\n      tag_110\n      swap2\n      swap1\n      tag_46\n      jump\t// in\n    tag_110:\n      tag_111\n      jump\t// in\n    tag_109:\n      mload(0x40)\n      tag_112\n      swap2\n      swap1\n      tag_58\n      jump\t// in\n    tag_112:\n      mload(0x40)\n      dup1\n      swap2\n      sub\n      swap1\n      return\n        /* \"contracts/Government2.sol\":153:184  address[] public lawEnforcement */\n    tag_25:\n      tag_113\n      0x04\n      dup1\n      calldatasize\n      sub\n      dup2\n      add\n      swap1\n      tag_114\n      swap2\n      swap1\n      tag_32\n      jump\t// in\n    tag_114:\n      tag_115\n      jump\t// in\n    tag_113:\n      mload(0x40)\n      tag_116\n      swap2\n      swap1\n      tag_35\n      jump\t// in\n    tag_116:\n      mload(0x40)\n      dup1\n      swap2\n      sub\n      swap1\n      return\n        /* \"contracts/Government2.sol\":3101:3197  function getCitizens() public view returns (address[] memory) {... */\n    tag_26:\n      tag_117\n      tag_118\n      jump\t// in\n    tag_117:\n      mload(0x40)\n      tag_119\n      swap2\n      swap1\n      tag_58\n      jump\t// in\n    tag_119:\n      mload(0x40)\n      dup1\n      swap2\n      sub\n      swap1\n      return\n        /* \"contracts/Government2.sol\":88:113  address[] public citizens */\n    tag_33:\n      0x00\n      dup2\n      dup2\n      sload\n      dup2\n      lt\n      tag_120\n      jumpi\n      0x00\n      dup1\n      revert\n    tag_120:\n      swap1\n      0x00\n      mstore\n      keccak256(0x00, 0x20)\n      add\n      0x00\n      swap2\n      pop\n      sload\n      swap1\n      0x0100\n      exp\n      swap1\n      div\n      0xffffffffffffffffffffffffffffffffffffffff\n      and\n      dup2\n      jump\t// out\n        /* \"contracts/Government2.sol\":3478:3633  function grantAccess(address payable user) public {... */\n    tag_39:\n        /* \"contracts/Government2.sol\":3561:3566  owner */\n      0x03\n      0x00\n      swap1\n      sload\n      swap1\n      0x0100\n      exp\n      swap1\n      div\n      0xffffffffffffffffffffffffffffffffffffffff\n      and\n        /* \"contracts/Government2.sol\":3547:3566  msg.sender == owner */\n      0xffffffffffffffffffffffffffffffffffffffff\n      and\n        /* \"contracts/Government2.sol\":3547:3557  msg.sender */\n      caller\n        /* \"contracts/Government2.sol\":3547:3566  msg.sender == owner */\n      0xffffffffffffffffffffffffffffffffffffffff\n      and\n      eq\n        /* \"contracts/Government2.sol\":3539:3602  require(msg.sender == owner, \"Only the owner can grant access\") */\n      tag_123\n      jumpi\n      mload(0x40)\n      0x08c379a000000000000000000000000000000000000000000000000000000000\n      dup2\n      mstore\n      0x04\n      add\n      tag_124\n      swap1\n      tag_125\n      jump\t// in\n    tag_124:\n      mload(0x40)\n      dup1\n      swap2\n      sub\n      swap1\n      revert\n    tag_123:\n        /* \"contracts/Government2.sol\":3621:3625  user */\n      dup1\n        /* \"contracts/Government2.sol\":3613:3618  owner */\n      0x03\n      0x00\n        /* \"contracts/Government2.sol\":3613:3625  owner = user */\n      0x0100\n      exp\n      dup2\n      sload\n      dup2\n      0xffffffffffffffffffffffffffffffffffffffff\n      mul\n      not\n      and\n      swap1\n      dup4\n      0xffffffffffffffffffffffffffffffffffffffff\n      and\n      mul\n      or\n      swap1\n      sstore\n      pop\n        /* \"contracts/Government2.sol\":3478:3633  function grantAccess(address payable user) public {... */\n      pop\n      jump\t// out\n        /* \"contracts/Government2.sol\":2164:2391  function createDepartment(string memory name) public {... */\n    tag_43:\n        /* \"contracts/Government2.sol\":2236:2246  isOfficial */\n      0x04\n        /* \"contracts/Government2.sol\":2236:2258  isOfficial[msg.sender] */\n      0x00\n        /* \"contracts/Government2.sol\":2247:2257  msg.sender */\n      caller\n        /* \"contracts/Government2.sol\":2236:2258  isOfficial[msg.sender] */\n      0xffffffffffffffffffffffffffffffffffffffff\n      and\n      0xffffffffffffffffffffffffffffffffffffffff\n      and\n      dup2\n      mstore\n      0x20\n      add\n      swap1\n      dup2\n      mstore\n      0x20\n      add\n      0x00\n      keccak256\n      0x00\n      swap1\n      sload\n      swap1\n      0x0100\n      exp\n      swap1\n      div\n      0xff\n      and\n        /* \"contracts/Government2.sol\":2228:2300  require(isOfficial[msg.sender], \"Only Officials can create departments\") */\n      tag_127\n      jumpi\n      mload(0x40)\n      0x08c379a000000000000000000000000000000000000000000000000000000000\n      dup2\n      mstore\n      0x04\n      add\n      tag_128\n      swap1\n      tag_129\n      jump\t// in\n    tag_128:\n      mload(0x40)\n      dup1\n      swap2\n      sub\n      swap1\n      revert\n    tag_127:\n        /* \"contracts/Government2.sol\":2344:2354  1000 ether */\n      0x3635c9adc5dea00000\n        /* \"contracts/Government2.sol\":2311:2328  departmentBudgets */\n      0x07\n        /* \"contracts/Government2.sol\":2311:2340  departmentBudgets[msg.sender] */\n      0x00\n        /* \"contracts/Government2.sol\":2329:2339  msg.sender */\n      caller\n        /* \"contracts/Government2.sol\":2311:2340  departmentBudgets[msg.sender] */\n      0xffffffffffffffffffffffffffffffffffffffff\n      and\n      0xffffffffffffffffffffffffffffffffffffffff\n      and\n      dup2\n      mstore\n      0x20\n      add\n      swap1\n      dup2\n      mstore\n      0x20\n      add\n      0x00\n      keccak256\n      0x00\n        /* \"contracts/Government2.sol\":2311:2354  departmentBudgets[msg.sender] += 1000 ether */\n      dup3\n      dup3\n      sload\n      tag_130\n      swap2\n      swap1\n      tag_131\n      jump\t// in\n    tag_130:\n      swap3\n      pop\n      pop\n      dup2\n      swap1\n      sstore\n      pop\n        /* \"contracts/Government2.sol\":2164:2391  function createDepartment(string memory name) public {... */\n      pop\n      jump\t// out\n        /* \"contracts/Government2.sol\":323:373  mapping(address => uint256) public citizenBalances */\n    tag_47:\n      mstore(0x20, 0x06)\n      dup1\n      0x00\n      mstore\n      keccak256(0x00, 0x40)\n      0x00\n      swap2\n      pop\n      swap1\n      pop\n      sload\n      dup2\n      jump\t// out\n        /* \"contracts/Government2.sol\":1890:2156  function enactLaw(uint256 lawIndex) public {... */\n    tag_52:\n        /* \"contracts/Government2.sol\":1966:1971  owner */\n      0x03\n      0x00\n      swap1\n      sload\n      swap1\n      0x0100\n      exp\n      swap1\n      div\n      0xffffffffffffffffffffffffffffffffffffffff\n      and\n        /* \"contracts/Government2.sol\":1952:1971  msg.sender == owner */\n      0xffffffffffffffffffffffffffffffffffffffff\n      and\n        /* \"contracts/Government2.sol\":1952:1962  msg.sender */\n      caller\n        /* \"contracts/Government2.sol\":1952:1971  msg.sender == owner */\n      0xffffffffffffffffffffffffffffffffffffffff\n      and\n      eq\n        /* \"contracts/Government2.sol\":1952:1997  msg.sender == owner || isOfficial[msg.sender] */\n      dup1\n      tag_133\n      jumpi\n      pop\n        /* \"contracts/Government2.sol\":1975:1985  isOfficial */\n      0x04\n        /* \"contracts/Government2.sol\":1975:1997  isOfficial[msg.sender] */\n      0x00\n        /* \"contracts/Government2.sol\":1986:1996  msg.sender */\n      caller\n        /* \"contracts/Government2.sol\":1975:1997  isOfficial[msg.sender] */\n      0xffffffffffffffffffffffffffffffffffffffff\n      and\n      0xffffffffffffffffffffffffffffffffffffffff\n      and\n      dup2\n      mstore\n      0x20\n      add\n      swap1\n      dup2\n      mstore\n      0x20\n      add\n      0x00\n      keccak256\n      0x00\n      swap1\n      sload\n      swap1\n      0x0100\n      exp\n      swap1\n      div\n      0xff\n      and\n        /* \"contracts/Government2.sol\":1952:1997  msg.sender == owner || isOfficial[msg.sender] */\n    tag_133:\n        /* \"contracts/Government2.sol\":1944:2045  require(msg.sender == owner || isOfficial[msg.sender], \"Only Officials and the owner can enact laws\") */\n      tag_134\n      jumpi\n      mload(0x40)\n      0x08c379a000000000000000000000000000000000000000000000000000000000\n      dup2\n      mstore\n      0x04\n      add\n      tag_135\n      swap1\n      tag_136\n      jump\t// in\n    tag_135:\n      mload(0x40)\n      dup1\n      swap2\n      sub\n      swap1\n      revert\n    tag_134:\n        /* \"contracts/Government2.sol\":2075:2079  laws */\n      0x08\n        /* \"contracts/Government2.sol\":2075:2086  laws.length */\n      dup1\n      sload\n      swap1\n      pop\n        /* \"contracts/Government2.sol\":2064:2072  lawIndex */\n      dup2\n        /* \"contracts/Government2.sol\":2064:2086  lawIndex < laws.length */\n      lt\n        /* \"contracts/Government2.sol\":2056:2108  require(lawIndex < laws.length, \"Invalid law index\") */\n      tag_137\n      jumpi\n      mload(0x40)\n      0x08c379a000000000000000000000000000000000000000000000000000000000\n      dup2\n      mstore\n      0x04\n      add\n      tag_138\n      swap1\n      tag_139\n      jump\t// in\n    tag_138:\n      mload(0x40)\n      dup1\n      swap2\n      sub\n      swap1\n      revert\n    tag_137:\n        /* \"contracts/Government2.sol\":2144:2148  true */\n      0x01\n        /* \"contracts/Government2.sol\":2119:2123  laws */\n      0x08\n        /* \"contracts/Government2.sol\":2124:2132  lawIndex */\n      dup3\n        /* \"contracts/Government2.sol\":2119:2133  laws[lawIndex] */\n      dup2\n      sload\n      dup2\n      lt\n      tag_140\n      jumpi\n      tag_141\n      tag_142\n      jump\t// in\n    tag_141:\n    tag_140:\n      swap1\n      0x00\n      mstore\n      keccak256(0x00, 0x20)\n      swap1\n      0x03\n      mul\n      add\n        /* \"contracts/Government2.sol\":2119:2141  laws[lawIndex].enacted */\n      0x02\n      add\n      0x14\n        /* \"contracts/Government2.sol\":2119:2148  laws[lawIndex].enacted = true */\n      0x0100\n      exp\n      dup2\n      sload\n      dup2\n      0xff\n      mul\n      not\n      and\n      swap1\n      dup4\n      iszero\n      iszero\n      mul\n      or\n      swap1\n      sstore\n      pop\n        /* \"contracts/Government2.sol\":1890:2156  function enactLaw(uint256 lawIndex) public {... */\n      pop\n      jump\t// out\n        /* \"contracts/Government2.sol\":1215:1461  function registerAsLawEnforcement() public {... */\n    tag_54:\n        /* \"contracts/Government2.sol\":1278:1294  isLawEnforcement */\n      0x05\n        /* \"contracts/Government2.sol\":1278:1306  isLawEnforcement[msg.sender] */\n      0x00\n        /* \"contracts/Government2.sol\":1295:1305  msg.sender */\n      caller\n        /* \"contracts/Government2.sol\":1278:1306  isLawEnforcement[msg.sender] */\n      0xffffffffffffffffffffffffffffffffffffffff\n      and\n      0xffffffffffffffffffffffffffffffffffffffff\n      and\n      dup2\n      mstore\n      0x20\n      add\n      swap1\n      dup2\n      mstore\n      0x20\n      add\n      0x00\n      keccak256\n      0x00\n      swap1\n      sload\n      swap1\n      0x0100\n      exp\n      swap1\n      div\n      0xff\n      and\n        /* \"contracts/Government2.sol\":1277:1306  !isLawEnforcement[msg.sender] */\n      iszero\n        /* \"contracts/Government2.sol\":1269:1365  require(!isLawEnforcement[msg.sender], \"Cannot register as Law Enforcement, Already registered\") */\n      tag_145\n      jumpi\n      mload(0x40)\n      0x08c379a000000000000000000000000000000000000000000000000000000000\n      dup2\n      mstore\n      0x04\n      add\n      tag_146\n      swap1\n      tag_147\n      jump\t// in\n    tag_146:\n      mload(0x40)\n      dup1\n      swap2\n      sub\n      swap1\n      revert\n    tag_145:\n        /* \"contracts/Government2.sol\":1376:1390  lawEnforcement */\n      0x02\n        /* \"contracts/Government2.sol\":1396:1406  msg.sender */\n      caller\n        /* \"contracts/Government2.sol\":1376:1407  lawEnforcement.push(msg.sender) */\n      swap1\n      dup1\n      0x01\n      dup2\n      sload\n      add\n      dup1\n      dup3\n      sstore\n      dup1\n      swap2\n      pop\n      pop\n      0x01\n      swap1\n      sub\n      swap1\n      0x00\n      mstore\n      keccak256(0x00, 0x20)\n      add\n      0x00\n      swap1\n      swap2\n      swap1\n      swap2\n      swap1\n      swap2\n      0x0100\n      exp\n      dup2\n      sload\n      dup2\n      0xffffffffffffffffffffffffffffffffffffffff\n      mul\n      not\n      and\n      swap1\n      dup4\n      0xffffffffffffffffffffffffffffffffffffffff\n      and\n      mul\n      or\n      swap1\n      sstore\n      pop\n        /* \"contracts/Government2.sol\":1449:1453  true */\n      0x01\n        /* \"contracts/Government2.sol\":1418:1434  isLawEnforcement */\n      0x05\n        /* \"contracts/Government2.sol\":1418:1446  isLawEnforcement[msg.sender] */\n      0x00\n        /* \"contracts/Government2.sol\":1435:1445  msg.sender */\n      caller\n        /* \"contracts/Government2.sol\":1418:1446  isLawEnforcement[msg.sender] */\n      0xffffffffffffffffffffffffffffffffffffffff\n      and\n      0xffffffffffffffffffffffffffffffffffffffff\n      and\n      dup2\n      mstore\n      0x20\n      add\n      swap1\n      dup2\n      mstore\n      0x20\n      add\n      0x00\n      keccak256\n      0x00\n        /* \"contracts/Government2.sol\":1418:1453  isLawEnforcement[msg.sender] = true */\n      0x0100\n      exp\n      dup2\n      sload\n      dup2\n      0xff\n      mul\n      not\n      and\n      swap1\n      dup4\n      iszero\n      iszero\n      mul\n      or\n      swap1\n      sstore\n      pop\n        /* \"contracts/Government2.sol\":1215:1461  function registerAsLawEnforcement() public {... */\n      jump\t// out\n        /* \"contracts/Government2.sol\":2995:3093  function getOfficials() public view returns (address[] memory) {... */\n    tag_56:\n        /* \"contracts/Government2.sol\":3040:3056  address[] memory */\n      0x60\n        /* \"contracts/Government2.sol\":3076:3085  officials */\n      0x01\n        /* \"contracts/Government2.sol\":3069:3085  return officials */\n      dup1\n      sload\n      dup1\n      0x20\n      mul\n      0x20\n      add\n      mload(0x40)\n      swap1\n      dup2\n      add\n      0x40\n      mstore\n      dup1\n      swap3\n      swap2\n      swap1\n      dup2\n      dup2\n      mstore\n      0x20\n      add\n      dup3\n      dup1\n      sload\n      dup1\n      iszero\n      tag_150\n      jumpi\n      0x20\n      mul\n      dup3\n      add\n      swap2\n      swap1\n      0x00\n      mstore\n      keccak256(0x00, 0x20)\n      swap1\n    tag_151:\n      dup2\n      0x00\n      swap1\n      sload\n      swap1\n      0x0100\n      exp\n      swap1\n      div\n      0xffffffffffffffffffffffffffffffffffffffff\n      and\n      0xffffffffffffffffffffffffffffffffffffffff\n      and\n      dup2\n      mstore\n      0x20\n      add\n      swap1\n      0x01\n      add\n      swap1\n      dup1\n      dup4\n      gt\n      tag_151\n      jumpi\n    tag_150:\n      pop\n      pop\n      pop\n      pop\n      pop\n      swap1\n      pop\n        /* \"contracts/Government2.sol\":2995:3093  function getOfficials() public view returns (address[] memory) {... */\n      swap1\n      jump\t// out\n        /* \"contracts/Government2.sol\":809:983  function registerAsCitizen() public {... */\n    tag_60:\n        /* \"contracts/Government2.sol\":865:875  isOfficial */\n      0x04\n        /* \"contracts/Government2.sol\":865:887  isOfficial[msg.sender] */\n      0x00\n        /* \"contracts/Government2.sol\":876:886  msg.sender */\n      caller\n        /* \"contracts/Government2.sol\":865:887  isOfficial[msg.sender] */\n      0xffffffffffffffffffffffffffffffffffffffff\n      and\n      0xffffffffffffffffffffffffffffffffffffffff\n      and\n      dup2\n      mstore\n      0x20\n      add\n      swap1\n      dup2\n      mstore\n      0x20\n      add\n      0x00\n      keccak256\n      0x00\n      swap1\n      sload\n      swap1\n      0x0100\n      exp\n      swap1\n      div\n      0xff\n      and\n        /* \"contracts/Government2.sol\":864:887  !isOfficial[msg.sender] */\n      iszero\n        /* \"contracts/Government2.sol\":856:939  require(!isOfficial[msg.sender], \"Cannot register as Citizen, Already an official\") */\n      tag_153\n      jumpi\n      mload(0x40)\n      0x08c379a000000000000000000000000000000000000000000000000000000000\n      dup2\n      mstore\n      0x04\n      add\n      tag_154\n      swap1\n      tag_155\n      jump\t// in\n    tag_154:\n      mload(0x40)\n      dup1\n      swap2\n      sub\n      swap1\n      revert\n    tag_153:\n        /* \"contracts/Government2.sol\":950:958  citizens */\n      0x00\n        /* \"contracts/Government2.sol\":964:974  msg.sender */\n      caller\n        /* \"contracts/Government2.sol\":950:975  citizens.push(msg.sender) */\n      swap1\n      dup1\n      0x01\n      dup2\n      sload\n      add\n      dup1\n      dup3\n      sstore\n      dup1\n      swap2\n      pop\n      pop\n      0x01\n      swap1\n      sub\n      swap1\n      0x00\n      mstore\n      keccak256(0x00, 0x20)\n      add\n      0x00\n      swap1\n      swap2\n      swap1\n      swap2\n      swap1\n      swap2\n      0x0100\n      exp\n      dup2\n      sload\n      dup2\n      0xffffffffffffffffffffffffffffffffffffffff\n      mul\n      not\n      and\n      swap1\n      dup4\n      0xffffffffffffffffffffffffffffffffffffffff\n      and\n      mul\n      or\n      swap1\n      sstore\n      pop\n        /* \"contracts/Government2.sol\":809:983  function registerAsCitizen() public {... */\n      jump\t// out\n        /* \"contracts/Government2.sol\":3205:3295  function getLawCount() public view returns (uint256) {... */\n    tag_62:\n        /* \"contracts/Government2.sol\":3249:3256  uint256 */\n      0x00\n        /* \"contracts/Government2.sol\":3276:3280  laws */\n      0x08\n        /* \"contracts/Government2.sol\":3276:3287  laws.length */\n      dup1\n      sload\n      swap1\n      pop\n        /* \"contracts/Government2.sol\":3269:3287  return laws.length */\n      swap1\n      pop\n        /* \"contracts/Government2.sol\":3205:3295  function getLawCount() public view returns (uint256) {... */\n      swap1\n      jump\t// out\n        /* \"contracts/Government2.sol\":1469:1658  function vote(address candidate) public {... */\n    tag_66:\n        /* \"contracts/Government2.sol\":1529:1539  isOfficial */\n      0x04\n        /* \"contracts/Government2.sol\":1529:1551  isOfficial[msg.sender] */\n      0x00\n        /* \"contracts/Government2.sol\":1540:1550  msg.sender */\n      caller\n        /* \"contracts/Government2.sol\":1529:1551  isOfficial[msg.sender] */\n      0xffffffffffffffffffffffffffffffffffffffff\n      and\n      0xffffffffffffffffffffffffffffffffffffffff\n      and\n      dup2\n      mstore\n      0x20\n      add\n      swap1\n      dup2\n      mstore\n      0x20\n      add\n      0x00\n      keccak256\n      0x00\n      swap1\n      sload\n      swap1\n      0x0100\n      exp\n      swap1\n      div\n      0xff\n      and\n        /* \"contracts/Government2.sol\":1528:1551  !isOfficial[msg.sender] */\n      iszero\n        /* \"contracts/Government2.sol\":1520:1577  require(!isOfficial[msg.sender], \"Officials cannot vote\") */\n      tag_159\n      jumpi\n      mload(0x40)\n      0x08c379a000000000000000000000000000000000000000000000000000000000\n      dup2\n      mstore\n      0x04\n      add\n      tag_160\n      swap1\n      tag_161\n      jump\t// in\n    tag_160:\n      mload(0x40)\n      dup1\n      swap2\n      sub\n      swap1\n      revert\n    tag_159:\n        /* \"contracts/Government2.sol\":1596:1606  isOfficial */\n      0x04\n        /* \"contracts/Government2.sol\":1596:1617  isOfficial[candidate] */\n      0x00\n        /* \"contracts/Government2.sol\":1607:1616  candidate */\n      dup3\n        /* \"contracts/Government2.sol\":1596:1617  isOfficial[candidate] */\n      0xffffffffffffffffffffffffffffffffffffffff\n      and\n      0xffffffffffffffffffffffffffffffffffffffff\n      and\n      dup2\n      mstore\n      0x20\n      add\n      swap1\n      dup2\n      mstore\n      0x20\n      add\n      0x00\n      keccak256\n      0x00\n      swap1\n      sload\n      swap1\n      0x0100\n      exp\n      swap1\n      div\n      0xff\n      and\n        /* \"contracts/Government2.sol\":1588:1650  require(isOfficial[candidate], \"Candidate is not an official\") */\n      tag_162\n      jumpi\n      mload(0x40)\n      0x08c379a000000000000000000000000000000000000000000000000000000000\n      dup2\n      mstore\n      0x04\n      add\n      tag_163\n      swap1\n      tag_164\n      jump\t// in\n    tag_163:\n      mload(0x40)\n      dup1\n      swap2\n      sub\n      swap1\n      revert\n    tag_162:\n        /* \"contracts/Government2.sol\":1469:1658  function vote(address candidate) public {... */\n      pop\n      jump\t// out\n        /* \"contracts/Government2.sol\":380:432  mapping(address => uint256) public departmentBudgets */\n    tag_69:\n      mstore(0x20, 0x07)\n      dup1\n      0x00\n      mstore\n      keccak256(0x00, 0x40)\n      0x00\n      swap2\n      pop\n      swap1\n      pop\n      sload\n      dup2\n      jump\t// out\n        /* \"contracts/Government2.sol\":676:732  mapping(address => Department) public citizenDepartments */\n    tag_73:\n      mstore(0x20, 0x09)\n      dup1\n      0x00\n      mstore\n      keccak256(0x00, 0x40)\n      0x00\n      swap2\n      pop\n      swap1\n      pop\n      dup1\n      0x00\n      add\n      dup1\n      sload\n      tag_165\n      swap1\n      tag_166\n      jump\t// in\n    tag_165:\n      dup1\n      0x1f\n      add\n      0x20\n      dup1\n      swap2\n      div\n      mul\n      0x20\n      add\n      mload(0x40)\n      swap1\n      dup2\n      add\n      0x40\n      mstore\n      dup1\n      swap3\n      swap2\n      swap1\n      dup2\n      dup2\n      mstore\n      0x20\n      add\n      dup3\n      dup1\n      sload\n      tag_167\n      swap1\n      tag_166\n      jump\t// in\n    tag_167:\n      dup1\n      iszero\n      tag_168\n      jumpi\n      dup1\n      0x1f\n      lt\n      tag_169\n      jumpi\n      0x0100\n      dup1\n      dup4\n      sload\n      div\n      mul\n      dup4\n      mstore\n      swap2\n      0x20\n      add\n      swap2\n      jump(tag_168)\n    tag_169:\n      dup3\n      add\n      swap2\n      swap1\n      0x00\n      mstore\n      keccak256(0x00, 0x20)\n      swap1\n    tag_170:\n      dup2\n      sload\n      dup2\n      mstore\n      swap1\n      0x01\n      add\n      swap1\n      0x20\n      add\n      dup1\n      dup4\n      gt\n      tag_170\n      jumpi\n      dup3\n      swap1\n      sub\n      0x1f\n      and\n      dup3\n      add\n      swap2\n    tag_168:\n      pop\n      pop\n      pop\n      pop\n      pop\n      swap1\n      pop\n      dup2\n      jump\t// out\n        /* \"contracts/Government2.sol\":219:261  mapping(address => bool) public isOfficial */\n    tag_78:\n      mstore(0x20, 0x04)\n      dup1\n      0x00\n      mstore\n      keccak256(0x00, 0x40)\n      0x00\n      swap2\n      pop\n      sload\n      swap1\n      0x0100\n      exp\n      swap1\n      div\n      0xff\n      and\n      dup2\n      jump\t// out\n        /* \"contracts/Government2.sol\":566:583  Law[] public laws */\n    tag_83:\n      0x08\n      dup2\n      dup2\n      sload\n      dup2\n      lt\n      tag_171\n      jumpi\n      0x00\n      dup1\n      revert\n    tag_171:\n      swap1\n      0x00\n      mstore\n      keccak256(0x00, 0x20)\n      swap1\n      0x03\n      mul\n      add\n      0x00\n      swap2\n      pop\n      swap1\n      pop\n      dup1\n      0x00\n      add\n      dup1\n      sload\n      tag_173\n      swap1\n      tag_166\n      jump\t// in\n    tag_173:\n      dup1\n      0x1f\n      add\n      0x20\n      dup1\n      swap2\n      div\n      mul\n      0x20\n      add\n      mload(0x40)\n      swap1\n      dup2\n      add\n      0x40\n      mstore\n      dup1\n      swap3\n      swap2\n      swap1\n      dup2\n      dup2\n      mstore\n      0x20\n      add\n      dup3\n      dup1\n      sload\n      tag_174\n      swap1\n      tag_166\n      jump\t// in\n    tag_174:\n      dup1\n      iszero\n      tag_175\n      jumpi\n      dup1\n      0x1f\n      lt\n      tag_176\n      jumpi\n      0x0100\n      dup1\n      dup4\n      sload\n      div\n      mul\n      dup4\n      mstore\n      swap2\n      0x20\n      add\n      swap2\n      jump(tag_175)\n    tag_176:\n      dup3\n      add\n      swap2\n      swap1\n      0x00\n      mstore\n      keccak256(0x00, 0x20)\n      swap1\n    tag_177:\n      dup2\n      sload\n      dup2\n      mstore\n      swap1\n      0x01\n      add\n      swap1\n      0x20\n      add\n      dup1\n      dup4\n      gt\n      tag_177\n      jumpi\n      dup3\n      swap1\n      sub\n      0x1f\n      and\n      dup3\n      add\n      swap2\n    tag_175:\n      pop\n      pop\n      pop\n      pop\n      pop\n      swap1\n      dup1\n      0x01\n      add\n      dup1\n      sload\n      tag_178\n      swap1\n      tag_166\n      jump\t// in\n    tag_178:\n      dup1\n      0x1f\n      add\n      0x20\n      dup1\n      swap2\n      div\n      mul\n      0x20\n      add\n      mload(0x40)\n      swap1\n      dup2\n      add\n      0x40\n      mstore\n      dup1\n      swap3\n      swap2\n      swap1\n      dup2\n      dup2\n      mstore\n      0x20\n      add\n      dup3\n      dup1\n      sload\n      tag_179\n      swap1\n      tag_166\n      jump\t// in\n    tag_179:\n      dup1\n      iszero\n      tag_180\n      jumpi\n      dup1\n      0x1f\n      lt\n      tag_181\n      jumpi\n      0x0100\n      dup1\n      dup4\n      sload\n      div\n      mul\n      dup4\n      mstore\n      swap2\n      0x20\n      add\n      swap2\n      jump(tag_180)\n    tag_181:\n      dup3\n      add\n      swap2\n      swap1\n      0x00\n      mstore\n      keccak256(0x00, 0x20)\n      swap1\n    tag_182:\n      dup2\n      sload\n      dup2\n      mstore\n      swap1\n      0x01\n      add\n      swap1\n      0x20\n      add\n      dup1\n      dup4\n      gt\n      tag_182\n      jumpi\n      dup3\n      swap1\n      sub\n      0x1f\n      and\n      dup3\n      add\n      swap2\n    tag_180:\n      pop\n      pop\n      pop\n      pop\n      pop\n      swap1\n      dup1\n      0x02\n      add\n      0x00\n      swap1\n      sload\n      swap1\n      0x0100\n      exp\n      swap1\n      div\n      0xffffffffffffffffffffffffffffffffffffffff\n      and\n      swap1\n      dup1\n      0x02\n      add\n      0x14\n      swap1\n      sload\n      swap1\n      0x0100\n      exp\n      swap1\n      div\n      0xff\n      and\n      swap1\n      pop\n      dup5\n      jump\t// out\n        /* \"contracts/Government2.sol\":3900:4047  function destroy() public {... */\n    tag_87:\n        /* \"contracts/Government2.sol\":3959:3964  owner */\n      0x03\n      0x00\n      swap1\n      sload\n      swap1\n      0x0100\n      exp\n      swap1\n      div\n      0xffffffffffffffffffffffffffffffffffffffff\n      and\n        /* \"contracts/Government2.sol\":3945:3964  msg.sender == owner */\n      0xffffffffffffffffffffffffffffffffffffffff\n      and\n        /* \"contracts/Government2.sol\":3945:3955  msg.sender */\n      caller\n        /* \"contracts/Government2.sol\":3945:3964  msg.sender == owner */\n      0xffffffffffffffffffffffffffffffffffffffff\n      and\n      eq\n        /* \"contracts/Government2.sol\":3937:4009  require(msg.sender == owner, \"Only the owner can destroy this contract\") */\n      tag_184\n      jumpi\n      mload(0x40)\n      0x08c379a000000000000000000000000000000000000000000000000000000000\n      dup2\n      mstore\n      0x04\n      add\n      tag_185\n      swap1\n      tag_186\n      jump\t// in\n    tag_185:\n      mload(0x40)\n      dup1\n      swap2\n      sub\n      swap1\n      revert\n    tag_184:\n        /* \"contracts/Government2.sol\":4033:4038  owner */\n      0x03\n      0x00\n      swap1\n      sload\n      swap1\n      0x0100\n      exp\n      swap1\n      div\n      0xffffffffffffffffffffffffffffffffffffffff\n      and\n        /* \"contracts/Government2.sol\":4020:4039  selfdestruct(owner) */\n      0xffffffffffffffffffffffffffffffffffffffff\n      and\n      selfdestruct\n        /* \"contracts/Government2.sol\":3641:3892  function revokeAccess(address payable user) public {... */\n    tag_90:\n        /* \"contracts/Government2.sol\":3725:3730  owner */\n      0x03\n      0x00\n      swap1\n      sload\n      swap1\n      0x0100\n      exp\n      swap1\n      div\n      0xffffffffffffffffffffffffffffffffffffffff\n      and\n        /* \"contracts/Government2.sol\":3711:3730  msg.sender == owner */\n      0xffffffffffffffffffffffffffffffffffffffff\n      and\n        /* \"contracts/Government2.sol\":3711:3721  msg.sender */\n      caller\n        /* \"contracts/Government2.sol\":3711:3730  msg.sender == owner */\n      0xffffffffffffffffffffffffffffffffffffffff\n      and\n      eq\n        /* \"contracts/Government2.sol\":3703:3767  require(msg.sender == owner, \"Only the owner can revoke access\") */\n      tag_188\n      jumpi\n      mload(0x40)\n      0x08c379a000000000000000000000000000000000000000000000000000000000\n      dup2\n      mstore\n      0x04\n      add\n      tag_189\n      swap1\n      tag_190\n      jump\t// in\n    tag_189:\n      mload(0x40)\n      dup1\n      swap2\n      sub\n      swap1\n      revert\n    tag_188:\n        /* \"contracts/Government2.sol\":3794:3799  owner */\n      0x03\n      0x00\n      swap1\n      sload\n      swap1\n      0x0100\n      exp\n      swap1\n      div\n      0xffffffffffffffffffffffffffffffffffffffff\n      and\n        /* \"contracts/Government2.sol\":3786:3799  user != owner */\n      0xffffffffffffffffffffffffffffffffffffffff\n      and\n        /* \"contracts/Government2.sol\":3786:3790  user */\n      dup2\n        /* \"contracts/Government2.sol\":3786:3799  user != owner */\n      0xffffffffffffffffffffffffffffffffffffffff\n      and\n      sub\n        /* \"contracts/Government2.sol\":3778:3846  require(user != owner, \"Cannot revoke access for the current owner\") */\n      tag_191\n      jumpi\n      mload(0x40)\n      0x08c379a000000000000000000000000000000000000000000000000000000000\n      dup2\n      mstore\n      0x04\n      add\n      tag_192\n      swap1\n      tag_193\n      jump\t// in\n    tag_192:\n      mload(0x40)\n      dup1\n      swap2\n      sub\n      swap1\n      revert\n    tag_191:\n        /* \"contracts/Government2.sol\":3873:3883  msg.sender */\n      caller\n        /* \"contracts/Government2.sol\":3857:3862  owner */\n      0x03\n      0x00\n        /* \"contracts/Government2.sol\":3857:3884  owner = payable(msg.sender) */\n      0x0100\n      exp\n      dup2\n      sload\n      dup2\n      0xffffffffffffffffffffffffffffffffffffffff\n      mul\n      not\n      and\n      swap1\n      dup4\n      0xffffffffffffffffffffffffffffffffffffffff\n      and\n      mul\n      or\n      swap1\n      sstore\n      pop\n        /* \"contracts/Government2.sol\":3641:3892  function revokeAccess(address payable user) public {... */\n      pop\n      jump\t// out\n        /* \"contracts/Government2.sol\":991:1207  function registerAsOfficial() public {... */\n    tag_92:\n        /* \"contracts/Government2.sol\":1048:1058  isOfficial */\n      0x04\n        /* \"contracts/Government2.sol\":1048:1070  isOfficial[msg.sender] */\n      0x00\n        /* \"contracts/Government2.sol\":1059:1069  msg.sender */\n      caller\n        /* \"contracts/Government2.sol\":1048:1070  isOfficial[msg.sender] */\n      0xffffffffffffffffffffffffffffffffffffffff\n      and\n      0xffffffffffffffffffffffffffffffffffffffff\n      and\n      dup2\n      mstore\n      0x20\n      add\n      swap1\n      dup2\n      mstore\n      0x20\n      add\n      0x00\n      keccak256\n      0x00\n      swap1\n      sload\n      swap1\n      0x0100\n      exp\n      swap1\n      div\n      0xff\n      and\n        /* \"contracts/Government2.sol\":1047:1070  !isOfficial[msg.sender] */\n      iszero\n        /* \"contracts/Government2.sol\":1039:1122  require(!isOfficial[msg.sender], \"Cannot register as Citizen, Already an official\") */\n      tag_195\n      jumpi\n      mload(0x40)\n      0x08c379a000000000000000000000000000000000000000000000000000000000\n      dup2\n      mstore\n      0x04\n      add\n      tag_196\n      swap1\n      tag_155\n      jump\t// in\n    tag_196:\n      mload(0x40)\n      dup1\n      swap2\n      sub\n      swap1\n      revert\n    tag_195:\n        /* \"contracts/Government2.sol\":1133:1142  officials */\n      0x01\n        /* \"contracts/Government2.sol\":1148:1158  msg.sender */\n      caller\n        /* \"contracts/Government2.sol\":1133:1159  officials.push(msg.sender) */\n      swap1\n      dup1\n      0x01\n      dup2\n      sload\n      add\n      dup1\n      dup3\n      sstore\n      dup1\n      swap2\n      pop\n      pop\n      0x01\n      swap1\n      sub\n      swap1\n      0x00\n      mstore\n      keccak256(0x00, 0x20)\n      add\n      0x00\n      swap1\n      swap2\n      swap1\n      swap2\n      swap1\n      swap2\n      0x0100\n      exp\n      dup2\n      sload\n      dup2\n      0xffffffffffffffffffffffffffffffffffffffff\n      mul\n      not\n      and\n      swap1\n      dup4\n      0xffffffffffffffffffffffffffffffffffffffff\n      and\n      mul\n      or\n      swap1\n      sstore\n      pop\n        /* \"contracts/Government2.sol\":1195:1199  true */\n      0x01\n        /* \"contracts/Government2.sol\":1170:1180  isOfficial */\n      0x04\n        /* \"contracts/Government2.sol\":1170:1192  isOfficial[msg.sender] */\n      0x00\n        /* \"contracts/Government2.sol\":1181:1191  msg.sender */\n      caller\n        /* \"contracts/Government2.sol\":1170:1192  isOfficial[msg.sender] */\n      0xffffffffffffffffffffffffffffffffffffffff\n      and\n      0xffffffffffffffffffffffffffffffffffffffff\n      and\n      dup2\n      mstore\n      0x20\n      add\n      swap1\n      dup2\n      mstore\n      0x20\n      add\n      0x00\n      keccak256\n      0x00\n        /* \"contracts/Government2.sol\":1170:1199  isOfficial[msg.sender] = true */\n      0x0100\n      exp\n      dup2\n      sload\n      dup2\n      0xff\n      mul\n      not\n      and\n      swap1\n      dup4\n      iszero\n      iszero\n      mul\n      or\n      swap1\n      sstore\n      pop\n        /* \"contracts/Government2.sol\":991:1207  function registerAsOfficial() public {... */\n      jump\t// out\n        /* \"contracts/Government2.sol\":2399:2987  function assignToDepartment(address employee, string memory departmentName) public {... */\n    tag_96:\n        /* \"contracts/Government2.sol\":2501:2511  isOfficial */\n      0x04\n        /* \"contracts/Government2.sol\":2501:2523  isOfficial[msg.sender] */\n      0x00\n        /* \"contracts/Government2.sol\":2512:2522  msg.sender */\n      caller\n        /* \"contracts/Government2.sol\":2501:2523  isOfficial[msg.sender] */\n      0xffffffffffffffffffffffffffffffffffffffff\n      and\n      0xffffffffffffffffffffffffffffffffffffffff\n      and\n      dup2\n      mstore\n      0x20\n      add\n      swap1\n      dup2\n      mstore\n      0x20\n      add\n      0x00\n      keccak256\n      0x00\n      swap1\n      sload\n      swap1\n      0x0100\n      exp\n      swap1\n      div\n      0xff\n      and\n        /* \"contracts/Government2.sol\":2493:2578  require(isOfficial[msg.sender], \"Only Officials can assign employees to departments\") */\n      tag_199\n      jumpi\n      mload(0x40)\n      0x08c379a000000000000000000000000000000000000000000000000000000000\n      dup2\n      mstore\n      0x04\n      add\n      tag_200\n      swap1\n      tag_201\n      jump\t// in\n    tag_200:\n      mload(0x40)\n      dup1\n      swap2\n      sub\n      swap1\n      revert\n    tag_199:\n        /* \"contracts/Government2.sol\":2597:2607  isOfficial */\n      0x04\n        /* \"contracts/Government2.sol\":2597:2617  isOfficial[employee] */\n      0x00\n        /* \"contracts/Government2.sol\":2608:2616  employee */\n      dup4\n        /* \"contracts/Government2.sol\":2597:2617  isOfficial[employee] */\n      0xffffffffffffffffffffffffffffffffffffffff\n      and\n      0xffffffffffffffffffffffffffffffffffffffff\n      and\n      dup2\n      mstore\n      0x20\n      add\n      swap1\n      dup2\n      mstore\n      0x20\n      add\n      0x00\n      keccak256\n      0x00\n      swap1\n      sload\n      swap1\n      0x0100\n      exp\n      swap1\n      div\n      0xff\n      and\n        /* \"contracts/Government2.sol\":2589:2650  require(isOfficial[employee], \"Employee must be an official\") */\n      tag_202\n      jumpi\n      mload(0x40)\n      0x08c379a000000000000000000000000000000000000000000000000000000000\n      dup2\n      mstore\n      0x04\n      add\n      tag_203\n      swap1\n      tag_204\n      jump\t// in\n    tag_203:\n      mload(0x40)\n      dup1\n      swap2\n      sub\n      swap1\n      revert\n    tag_202:\n        /* \"contracts/Government2.sol\":2701:2702  0 */\n      0x00\n        /* \"contracts/Government2.sol\":2669:2686  departmentBudgets */\n      0x07\n        /* \"contracts/Government2.sol\":2669:2698  departmentBudgets[msg.sender] */\n      0x00\n        /* \"contracts/Government2.sol\":2687:2697  msg.sender */\n      caller\n        /* \"contracts/Government2.sol\":2669:2698  departmentBudgets[msg.sender] */\n      0xffffffffffffffffffffffffffffffffffffffff\n      and\n      0xffffffffffffffffffffffffffffffffffffffff\n      and\n      dup2\n      mstore\n      0x20\n      add\n      swap1\n      dup2\n      mstore\n      0x20\n      add\n      0x00\n      keccak256\n      sload\n        /* \"contracts/Government2.sol\":2669:2702  departmentBudgets[msg.sender] > 0 */\n      gt\n        /* \"contracts/Government2.sol\":2661:2737  require(departmentBudgets[msg.sender] > 0, \"Insufficient department budget\") */\n      tag_205\n      jumpi\n      mload(0x40)\n      0x08c379a000000000000000000000000000000000000000000000000000000000\n      dup2\n      mstore\n      0x04\n      add\n      tag_206\n      swap1\n      tag_207\n      jump\t// in\n    tag_206:\n      mload(0x40)\n      dup1\n      swap2\n      sub\n      swap1\n      revert\n    tag_205:\n        /* \"contracts/Government2.sol\":2779:2823  Department(departmentName, new address[](0)) */\n      mload(0x40)\n      dup1\n      0x40\n      add\n      0x40\n      mstore\n      dup1\n        /* \"contracts/Government2.sol\":2790:2804  departmentName */\n      dup3\n        /* \"contracts/Government2.sol\":2779:2823  Department(departmentName, new address[](0)) */\n      dup2\n      mstore\n      0x20\n      add\n        /* \"contracts/Government2.sol\":2820:2821  0 */\n      0x00\n        /* \"contracts/Government2.sol\":2806:2822  new address[](0) */\n      0xffffffffffffffff\n      dup2\n      gt\n      iszero\n      tag_208\n      jumpi\n      tag_209\n      tag_210\n      jump\t// in\n    tag_209:\n    tag_208:\n      mload(0x40)\n      swap1\n      dup1\n      dup3\n      mstore\n      dup1\n      0x20\n      mul\n      0x20\n      add\n      dup3\n      add\n      0x40\n      mstore\n      dup1\n      iszero\n      tag_211\n      jumpi\n      dup2\n      0x20\n      add\n      0x20\n      dup3\n      mul\n      dup1\n      calldatasize\n      dup4\n      calldatacopy\n      dup1\n      dup3\n      add\n      swap2\n      pop\n      pop\n      swap1\n      pop\n    tag_211:\n      pop\n        /* \"contracts/Government2.sol\":2779:2823  Department(departmentName, new address[](0)) */\n      dup2\n      mstore\n      pop\n        /* \"contracts/Government2.sol\":2748:2766  citizenDepartments */\n      0x09\n        /* \"contracts/Government2.sol\":2748:2776  citizenDepartments[employee] */\n      0x00\n        /* \"contracts/Government2.sol\":2767:2775  employee */\n      dup5\n        /* \"contracts/Government2.sol\":2748:2776  citizenDepartments[employee] */\n      0xffffffffffffffffffffffffffffffffffffffff\n      and\n      0xffffffffffffffffffffffffffffffffffffffff\n      and\n      dup2\n      mstore\n      0x20\n      add\n      swap1\n      dup2\n      mstore\n      0x20\n      add\n      0x00\n      keccak256\n        /* \"contracts/Government2.sol\":2748:2823  citizenDepartments[employee] = Department(departmentName, new address[](0)) */\n      0x00\n      dup3\n      add\n      mload\n      dup2\n      0x00\n      add\n      swap1\n      dup2\n      tag_212\n      swap2\n      swap1\n      tag_213\n      jump\t// in\n    tag_212:\n      pop\n      0x20\n      dup3\n      add\n      mload\n      dup2\n      0x01\n      add\n      swap1\n      dup1\n      mload\n      swap1\n      0x20\n      add\n      swap1\n      tag_214\n      swap3\n      swap2\n      swap1\n      tag_215\n      jump\t// in\n    tag_214:\n      pop\n      swap1\n      pop\n      pop\n        /* \"contracts/Government2.sol\":2834:2852  citizenDepartments */\n      0x09\n        /* \"contracts/Government2.sol\":2834:2862  citizenDepartments[employee] */\n      0x00\n        /* \"contracts/Government2.sol\":2853:2861  employee */\n      dup4\n        /* \"contracts/Government2.sol\":2834:2862  citizenDepartments[employee] */\n      0xffffffffffffffffffffffffffffffffffffffff\n      and\n      0xffffffffffffffffffffffffffffffffffffffff\n      and\n      dup2\n      mstore\n      0x20\n      add\n      swap1\n      dup2\n      mstore\n      0x20\n      add\n      0x00\n      keccak256\n        /* \"contracts/Government2.sol\":2834:2872  citizenDepartments[employee].employees */\n      0x01\n      add\n        /* \"contracts/Government2.sol\":2878:2886  employee */\n      dup3\n        /* \"contracts/Government2.sol\":2834:2887  citizenDepartments[employee].employees.push(employee) */\n      swap1\n      dup1\n      0x01\n      dup2\n      sload\n      add\n      dup1\n      dup3\n      sstore\n      dup1\n      swap2\n      pop\n      pop\n      0x01\n      swap1\n      sub\n      swap1\n      0x00\n      mstore\n      keccak256(0x00, 0x20)\n      add\n      0x00\n      swap1\n      swap2\n      swap1\n      swap2\n      swap1\n      swap2\n      0x0100\n      exp\n      dup2\n      sload\n      dup2\n      0xffffffffffffffffffffffffffffffffffffffff\n      mul\n      not\n      and\n      swap1\n      dup4\n      0xffffffffffffffffffffffffffffffffffffffff\n      and\n      mul\n      or\n      swap1\n      sstore\n      pop\n        /* \"contracts/Government2.sol\":2931:2940  100 ether */\n      0x056bc75e2d63100000\n        /* \"contracts/Government2.sol\":2898:2915  departmentBudgets */\n      0x07\n        /* \"contracts/Government2.sol\":2898:2927  departmentBudgets[msg.sender] */\n      0x00\n        /* \"contracts/Government2.sol\":2916:2926  msg.sender */\n      caller\n        /* \"contracts/Government2.sol\":2898:2927  departmentBudgets[msg.sender] */\n      0xffffffffffffffffffffffffffffffffffffffff\n      and\n      0xffffffffffffffffffffffffffffffffffffffff\n      and\n      dup2\n      mstore\n      0x20\n      add\n      swap1\n      dup2\n      mstore\n      0x20\n      add\n      0x00\n      keccak256\n      0x00\n        /* \"contracts/Government2.sol\":2898:2940  departmentBudgets[msg.sender] -= 100 ether */\n      dup3\n      dup3\n      sload\n      tag_217\n      swap2\n      swap1\n      tag_218\n      jump\t// in\n    tag_217:\n      swap3\n      pop\n      pop\n      dup2\n      swap1\n      sstore\n      pop\n        /* \"contracts/Government2.sol\":2399:2987  function assignToDepartment(address employee, string memory departmentName) public {... */\n      pop\n      pop\n      jump\t// out\n        /* \"contracts/Government2.sol\":120:146  address[] public officials */\n    tag_99:\n      0x01\n      dup2\n      dup2\n      sload\n      dup2\n      lt\n      tag_219\n      jumpi\n      0x00\n      dup1\n      revert\n    tag_219:\n      swap1\n      0x00\n      mstore\n      keccak256(0x00, 0x20)\n      add\n      0x00\n      swap2\n      pop\n      sload\n      swap1\n      0x0100\n      exp\n      swap1\n      div\n      0xffffffffffffffffffffffffffffffffffffffff\n      and\n      dup2\n      jump\t// out\n        /* \"contracts/Government2.sol\":268:316  mapping(address => bool) public isLawEnforcement */\n    tag_103:\n      mstore(0x20, 0x05)\n      dup1\n      0x00\n      mstore\n      keccak256(0x00, 0x40)\n      0x00\n      swap2\n      pop\n      sload\n      swap1\n      0x0100\n      exp\n      swap1\n      div\n      0xff\n      and\n      dup2\n      jump\t// out\n        /* \"contracts/Government2.sol\":1666:1882  function proposeLaw(string memory title, string memory content) public {... */\n    tag_108:\n        /* \"contracts/Government2.sol\":1756:1766  isOfficial */\n      0x04\n        /* \"contracts/Government2.sol\":1756:1778  isOfficial[msg.sender] */\n      0x00\n        /* \"contracts/Government2.sol\":1767:1777  msg.sender */\n      caller\n        /* \"contracts/Government2.sol\":1756:1778  isOfficial[msg.sender] */\n      0xffffffffffffffffffffffffffffffffffffffff\n      and\n      0xffffffffffffffffffffffffffffffffffffffff\n      and\n      dup2\n      mstore\n      0x20\n      add\n      swap1\n      dup2\n      mstore\n      0x20\n      add\n      0x00\n      keccak256\n      0x00\n      swap1\n      sload\n      swap1\n      0x0100\n      exp\n      swap1\n      div\n      0xff\n      and\n        /* \"contracts/Government2.sol\":1748:1814  require(isOfficial[msg.sender], \"Only Officials can propose laws\") */\n      tag_222\n      jumpi\n      mload(0x40)\n      0x08c379a000000000000000000000000000000000000000000000000000000000\n      dup2\n      mstore\n      0x04\n      add\n      tag_223\n      swap1\n      tag_224\n      jump\t// in\n    tag_223:\n      mload(0x40)\n      dup1\n      swap2\n      sub\n      swap1\n      revert\n    tag_222:\n        /* \"contracts/Government2.sol\":1825:1829  laws */\n      0x08\n        /* \"contracts/Government2.sol\":1835:1873  Law(title, content, msg.sender, false) */\n      mload(0x40)\n      dup1\n      0x80\n      add\n      0x40\n      mstore\n      dup1\n        /* \"contracts/Government2.sol\":1839:1844  title */\n      dup5\n        /* \"contracts/Government2.sol\":1835:1873  Law(title, content, msg.sender, false) */\n      dup2\n      mstore\n      0x20\n      add\n        /* \"contracts/Government2.sol\":1846:1853  content */\n      dup4\n        /* \"contracts/Government2.sol\":1835:1873  Law(title, content, msg.sender, false) */\n      dup2\n      mstore\n      0x20\n      add\n        /* \"contracts/Government2.sol\":1855:1865  msg.sender */\n      caller\n        /* \"contracts/Government2.sol\":1835:1873  Law(title, content, msg.sender, false) */\n      0xffffffffffffffffffffffffffffffffffffffff\n      and\n      dup2\n      mstore\n      0x20\n      add\n        /* \"contracts/Government2.sol\":1867:1872  false */\n      0x00\n        /* \"contracts/Government2.sol\":1835:1873  Law(title, content, msg.sender, false) */\n      iszero\n      iszero\n      dup2\n      mstore\n      pop\n        /* \"contracts/Government2.sol\":1825:1874  laws.push(Law(title, content, msg.sender, false)) */\n      swap1\n      dup1\n      0x01\n      dup2\n      sload\n      add\n      dup1\n      dup3\n      sstore\n      dup1\n      swap2\n      pop\n      pop\n      0x01\n      swap1\n      sub\n      swap1\n      0x00\n      mstore\n      keccak256(0x00, 0x20)\n      swap1\n      0x03\n      mul\n      add\n      0x00\n      swap1\n      swap2\n      swap1\n      swap2\n      swap1\n      swap2\n      pop\n      0x00\n      dup3\n      add\n      mload\n      dup2\n      0x00\n      add\n      swap1\n      dup2\n      tag_226\n      swap2\n      swap1\n      tag_213\n      jump\t// in\n    tag_226:\n      pop\n      0x20\n      dup3\n      add\n      mload\n      dup2\n      0x01\n      add\n      swap1\n      dup2\n      tag_227\n      swap2\n      swap1\n      tag_213\n      jump\t// in\n    tag_227:\n      pop\n      0x40\n      dup3\n      add\n      mload\n      dup2\n      0x02\n      add\n      exp(0x0100, 0x00)\n      dup2\n      sload\n      dup2\n      0xffffffffffffffffffffffffffffffffffffffff\n      mul\n      not\n      and\n      swap1\n      dup4\n      0xffffffffffffffffffffffffffffffffffffffff\n      and\n      mul\n      or\n      swap1\n      sstore\n      pop\n      0x60\n      dup3\n      add\n      mload\n      dup2\n      0x02\n      add\n      exp(0x0100, 0x14)\n      dup2\n      sload\n      dup2\n      0xff\n      mul\n      not\n      and\n      swap1\n      dup4\n      iszero\n      iszero\n      mul\n      or\n      swap1\n      sstore\n      pop\n      pop\n      pop\n        /* \"contracts/Government2.sol\":1666:1882  function proposeLaw(string memory title, string memory content) public {... */\n      pop\n      pop\n      jump\t// out\n        /* \"contracts/Government2.sol\":3303:3470  function getDepartmentEmployees(address departmentOwner) public view returns (address[] memory) {... */\n    tag_111:\n        /* \"contracts/Government2.sol\":3381:3397  address[] memory */\n      0x60\n        /* \"contracts/Government2.sol\":3417:3435  citizenDepartments */\n      0x09\n        /* \"contracts/Government2.sol\":3417:3452  citizenDepartments[departmentOwner] */\n      0x00\n        /* \"contracts/Government2.sol\":3436:3451  departmentOwner */\n      dup4\n        /* \"contracts/Government2.sol\":3417:3452  citizenDepartments[departmentOwner] */\n      0xffffffffffffffffffffffffffffffffffffffff\n      and\n      0xffffffffffffffffffffffffffffffffffffffff\n      and\n      dup2\n      mstore\n      0x20\n      add\n      swap1\n      dup2\n      mstore\n      0x20\n      add\n      0x00\n      keccak256\n        /* \"contracts/Government2.sol\":3417:3462  citizenDepartments[departmentOwner].employees */\n      0x01\n      add\n        /* \"contracts/Government2.sol\":3410:3462  return citizenDepartments[departmentOwner].employees */\n      dup1\n      sload\n      dup1\n      0x20\n      mul\n      0x20\n      add\n      mload(0x40)\n      swap1\n      dup2\n      add\n      0x40\n      mstore\n      dup1\n      swap3\n      swap2\n      swap1\n      dup2\n      dup2\n      mstore\n      0x20\n      add\n      dup3\n      dup1\n      sload\n      dup1\n      iszero\n      tag_229\n      jumpi\n      0x20\n      mul\n      dup3\n      add\n      swap2\n      swap1\n      0x00\n      mstore\n      keccak256(0x00, 0x20)\n      swap1\n    tag_230:\n      dup2\n      0x00\n      swap1\n      sload\n      swap1\n      0x0100\n      exp\n      swap1\n      div\n      0xffffffffffffffffffffffffffffffffffffffff\n      and\n      0xffffffffffffffffffffffffffffffffffffffff\n      and\n      dup2\n      mstore\n      0x20\n      add\n      swap1\n      0x01\n      add\n      swap1\n      dup1\n      dup4\n      gt\n      tag_230\n      jumpi\n    tag_229:\n      pop\n      pop\n      pop\n      pop\n      pop\n      swap1\n      pop\n        /* \"contracts/Government2.sol\":3303:3470  function getDepartmentEmployees(address departmentOwner) public view returns (address[] memory) {... */\n      swap2\n      swap1\n      pop\n      jump\t// out\n        /* \"contracts/Government2.sol\":153:184  address[] public lawEnforcement */\n    tag_115:\n      0x02\n      dup2\n      dup2\n      sload\n      dup2\n      lt\n      tag_231\n      jumpi\n      0x00\n      dup1\n      revert\n    tag_231:\n      swap1\n      0x00\n      mstore\n      keccak256(0x00, 0x20)\n      add\n      0x00\n      swap2\n      pop\n      sload\n      swap1\n      0x0100\n      exp\n      swap1\n      div\n      0xffffffffffffffffffffffffffffffffffffffff\n      and\n      dup2\n      jump\t// out\n        /* \"contracts/Government2.sol\":3101:3197  function getCitizens() public view returns (address[] memory) {... */\n    tag_118:\n        /* \"contracts/Government2.sol\":3145:3161  address[] memory */\n      0x60\n        /* \"contracts/Government2.sol\":3181:3189  citizens */\n      0x00\n        /* \"contracts/Government2.sol\":3174:3189  return citizens */\n      dup1\n      sload\n      dup1\n      0x20\n      mul\n      0x20\n      add\n      mload(0x40)\n      swap1\n      dup2\n      add\n      0x40\n      mstore\n      dup1\n      swap3\n      swap2\n      swap1\n      dup2\n      dup2\n      mstore\n      0x20\n      add\n      dup3\n      dup1\n      sload\n      dup1\n      iszero\n      tag_234\n      jumpi\n      0x20\n      mul\n      dup3\n      add\n      swap2\n      swap1\n      0x00\n      mstore\n      keccak256(0x00, 0x20)\n      swap1\n    tag_235:\n      dup2\n      0x00\n      swap1\n      sload\n      swap1\n      0x0100\n      exp\n      swap1\n      div\n      0xffffffffffffffffffffffffffffffffffffffff\n      and\n      0xffffffffffffffffffffffffffffffffffffffff\n      and\n      dup2\n      mstore\n      0x20\n      add\n      swap1\n      0x01\n      add\n      swap1\n      dup1\n      dup4\n      gt\n      tag_235\n      jumpi\n    tag_234:\n      pop\n      pop\n      pop\n      pop\n      pop\n      swap1\n      pop\n        /* \"contracts/Government2.sol\":3101:3197  function getCitizens() public view returns (address[] memory) {... */\n      swap1\n      jump\t// out\n    tag_215:\n      dup3\n      dup1\n      sload\n      dup3\n      dup3\n      sstore\n      swap1\n      0x00\n      mstore\n      keccak256(0x00, 0x20)\n      swap1\n      dup2\n      add\n      swap3\n      dup3\n      iszero\n      tag_236\n      jumpi\n      swap2\n      0x20\n      mul\n      dup3\n      add\n    tag_237:\n      dup3\n      dup2\n      gt\n      iszero\n      tag_238\n      jumpi\n      dup3\n      mload\n      dup3\n      exp(0x0100, 0x00)\n      dup2\n      sload\n      dup2\n      0xffffffffffffffffffffffffffffffffffffffff\n      mul\n      not\n      and\n      swap1\n      dup4\n      0xffffffffffffffffffffffffffffffffffffffff\n      and\n      mul\n      or\n      swap1\n      sstore\n      pop\n      swap2\n      0x20\n      add\n      swap2\n      swap1\n      0x01\n      add\n      swap1\n      jump(tag_237)\n    tag_238:\n    tag_236:\n      pop\n      swap1\n      pop\n      tag_239\n      swap2\n      swap1\n      tag_240\n      jump\t// in\n    tag_239:\n      pop\n      swap1\n      jump\t// out\n    tag_240:\n    tag_241:\n      dup1\n      dup3\n      gt\n      iszero\n      tag_242\n      jumpi\n      0x00\n      dup2\n      0x00\n      swap1\n      sstore\n      pop\n      0x01\n      add\n      jump(tag_241)\n    tag_242:\n      pop\n      swap1\n      jump\t// out\n        /* \"#utility.yul\":7:82   */\n    tag_243:\n        /* \"#utility.yul\":40:46   */\n      0x00\n        /* \"#utility.yul\":73:75   */\n      0x40\n        /* \"#utility.yul\":67:76   */\n      mload\n        /* \"#utility.yul\":57:76   */\n      swap1\n      pop\n        /* \"#utility.yul\":7:82   */\n      swap1\n      jump\t// out\n        /* \"#utility.yul\":88:205   */\n    tag_244:\n        /* \"#utility.yul\":197:198   */\n      0x00\n        /* \"#utility.yul\":194:195   */\n      dup1\n        /* \"#utility.yul\":187:199   */\n      revert\n        /* \"#utility.yul\":211:328   */\n    tag_245:\n        /* \"#utility.yul\":320:321   */\n      0x00\n        /* \"#utility.yul\":317:318   */\n      dup1\n        /* \"#utility.yul\":310:322   */\n      revert\n        /* \"#utility.yul\":334:411   */\n    tag_246:\n        /* \"#utility.yul\":371:378   */\n      0x00\n        /* \"#utility.yul\":400:405   */\n      dup2\n        /* \"#utility.yul\":389:405   */\n      swap1\n      pop\n        /* \"#utility.yul\":334:411   */\n      swap2\n      swap1\n      pop\n      jump\t// out\n        /* \"#utility.yul\":417:539   */\n    tag_247:\n        /* \"#utility.yul\":490:514   */\n      tag_333\n        /* \"#utility.yul\":508:513   */\n      dup2\n        /* \"#utility.yul\":490:514   */\n      tag_246\n      jump\t// in\n    tag_333:\n        /* \"#utility.yul\":483:488   */\n      dup2\n        /* \"#utility.yul\":480:515   */\n      eq\n        /* \"#utility.yul\":470:533   */\n      tag_334\n      jumpi\n        /* \"#utility.yul\":529:530   */\n      0x00\n        /* \"#utility.yul\":526:527   */\n      dup1\n        /* \"#utility.yul\":519:531   */\n      revert\n        /* \"#utility.yul\":470:533   */\n    tag_334:\n        /* \"#utility.yul\":417:539   */\n      pop\n      jump\t// out\n        /* \"#utility.yul\":545:684   */\n    tag_248:\n        /* \"#utility.yul\":591:596   */\n      0x00\n        /* \"#utility.yul\":629:635   */\n      dup2\n        /* \"#utility.yul\":616:636   */\n      calldataload\n        /* \"#utility.yul\":607:636   */\n      swap1\n      pop\n        /* \"#utility.yul\":645:678   */\n      tag_336\n        /* \"#utility.yul\":672:677   */\n      dup2\n        /* \"#utility.yul\":645:678   */\n      tag_247\n      jump\t// in\n    tag_336:\n        /* \"#utility.yul\":545:684   */\n      swap3\n      swap2\n      pop\n      pop\n      jump\t// out\n        /* \"#utility.yul\":690:1019   */\n    tag_32:\n        /* \"#utility.yul\":749:755   */\n      0x00\n        /* \"#utility.yul\":798:800   */\n      0x20\n        /* \"#utility.yul\":786:795   */\n      dup3\n        /* \"#utility.yul\":777:784   */\n      dup5\n        /* \"#utility.yul\":773:796   */\n      sub\n        /* \"#utility.yul\":769:801   */\n      slt\n        /* \"#utility.yul\":766:885   */\n      iszero\n      tag_338\n      jumpi\n        /* \"#utility.yul\":804:883   */\n      tag_339\n      tag_244\n      jump\t// in\n    tag_339:\n        /* \"#utility.yul\":766:885   */\n    tag_338:\n        /* \"#utility.yul\":924:925   */\n      0x00\n        /* \"#utility.yul\":949:1002   */\n      tag_340\n        /* \"#utility.yul\":994:1001   */\n      dup5\n        /* \"#utility.yul\":985:991   */\n      dup3\n        /* \"#utility.yul\":974:983   */\n      dup6\n        /* \"#utility.yul\":970:992   */\n      add\n        /* \"#utility.yul\":949:1002   */\n      tag_248\n      jump\t// in\n    tag_340:\n        /* \"#utility.yul\":939:1002   */\n      swap2\n      pop\n        /* \"#utility.yul\":895:1012   */\n      pop\n        /* \"#utility.yul\":690:1019   */\n      swap3\n      swap2\n      pop\n      pop\n      jump\t// out\n        /* \"#utility.yul\":1025:1151   */\n    tag_249:\n        /* \"#utility.yul\":1062:1069   */\n      0x00\n        /* \"#utility.yul\":1102:1144   */\n      0xffffffffffffffffffffffffffffffffffffffff\n        /* \"#utility.yul\":1095:1100   */\n      dup3\n        /* \"#utility.yul\":1091:1145   */\n      and\n        /* \"#utility.yul\":1080:1145   */\n      swap1\n      pop\n        /* \"#utility.yul\":1025:1151   */\n      swap2\n      swap1\n      pop\n      jump\t// out\n        /* \"#utility.yul\":1157:1253   */\n    tag_250:\n        /* \"#utility.yul\":1194:1201   */\n      0x00\n        /* \"#utility.yul\":1223:1247   */\n      tag_343\n        /* \"#utility.yul\":1241:1246   */\n      dup3\n        /* \"#utility.yul\":1223:1247   */\n      tag_249\n      jump\t// in\n    tag_343:\n        /* \"#utility.yul\":1212:1247   */\n      swap1\n      pop\n        /* \"#utility.yul\":1157:1253   */\n      swap2\n      swap1\n      pop\n      jump\t// out\n        /* \"#utility.yul\":1259:1377   */\n    tag_251:\n        /* \"#utility.yul\":1346:1370   */\n      tag_345\n        /* \"#utility.yul\":1364:1369   */\n      dup2\n        /* \"#utility.yul\":1346:1370   */\n      tag_250\n      jump\t// in\n    tag_345:\n        /* \"#utility.yul\":1341:1344   */\n      dup3\n        /* \"#utility.yul\":1334:1371   */\n      mstore\n        /* \"#utility.yul\":1259:1377   */\n      pop\n      pop\n      jump\t// out\n        /* \"#utility.yul\":1383:1605   */\n    tag_35:\n        /* \"#utility.yul\":1476:1480   */\n      0x00\n        /* \"#utility.yul\":1514:1516   */\n      0x20\n        /* \"#utility.yul\":1503:1512   */\n      dup3\n        /* \"#utility.yul\":1499:1517   */\n      add\n        /* \"#utility.yul\":1491:1517   */\n      swap1\n      pop\n        /* \"#utility.yul\":1527:1598   */\n      tag_347\n        /* \"#utility.yul\":1595:1596   */\n      0x00\n        /* \"#utility.yul\":1584:1593   */\n      dup4\n        /* \"#utility.yul\":1580:1597   */\n      add\n        /* \"#utility.yul\":1571:1577   */\n      dup5\n        /* \"#utility.yul\":1527:1598   */\n      tag_251\n      jump\t// in\n    tag_347:\n        /* \"#utility.yul\":1383:1605   */\n      swap3\n      swap2\n      pop\n      pop\n      jump\t// out\n        /* \"#utility.yul\":1611:1715   */\n    tag_252:\n        /* \"#utility.yul\":1656:1663   */\n      0x00\n        /* \"#utility.yul\":1685:1709   */\n      tag_349\n        /* \"#utility.yul\":1703:1708   */\n      dup3\n        /* \"#utility.yul\":1685:1709   */\n      tag_249\n      jump\t// in\n    tag_349:\n        /* \"#utility.yul\":1674:1709   */\n      swap1\n      pop\n        /* \"#utility.yul\":1611:1715   */\n      swap2\n      swap1\n      pop\n      jump\t// out\n        /* \"#utility.yul\":1721:1859   */\n    tag_253:\n        /* \"#utility.yul\":1802:1834   */\n      tag_351\n        /* \"#utility.yul\":1828:1833   */\n      dup2\n        /* \"#utility.yul\":1802:1834   */\n      tag_252\n      jump\t// in\n    tag_351:\n        /* \"#utility.yul\":1795:1800   */\n      dup2\n        /* \"#utility.yul\":1792:1835   */\n      eq\n        /* \"#utility.yul\":1782:1853   */\n      tag_352\n      jumpi\n        /* \"#utility.yul\":1849:1850   */\n      0x00\n        /* \"#utility.yul\":1846:1847   */\n      dup1\n        /* \"#utility.yul\":1839:1851   */\n      revert\n        /* \"#utility.yul\":1782:1853   */\n    tag_352:\n        /* \"#utility.yul\":1721:1859   */\n      pop\n      jump\t// out\n        /* \"#utility.yul\":1865:2020   */\n    tag_254:\n        /* \"#utility.yul\":1919:1924   */\n      0x00\n        /* \"#utility.yul\":1957:1963   */\n      dup2\n        /* \"#utility.yul\":1944:1964   */\n      calldataload\n        /* \"#utility.yul\":1935:1964   */\n      swap1\n      pop\n        /* \"#utility.yul\":1973:2014   */\n      tag_354\n        /* \"#utility.yul\":2008:2013   */\n      dup2\n        /* \"#utility.yul\":1973:2014   */\n      tag_253\n      jump\t// in\n    tag_354:\n        /* \"#utility.yul\":1865:2020   */\n      swap3\n      swap2\n      pop\n      pop\n      jump\t// out\n        /* \"#utility.yul\":2026:2371   */\n    tag_38:\n        /* \"#utility.yul\":2093:2099   */\n      0x00\n        /* \"#utility.yul\":2142:2144   */\n      0x20\n        /* \"#utility.yul\":2130:2139   */\n      dup3\n        /* \"#utility.yul\":2121:2128   */\n      dup5\n        /* \"#utility.yul\":2117:2140   */\n      sub\n        /* \"#utility.yul\":2113:2145   */\n      slt\n        /* \"#utility.yul\":2110:2229   */\n      iszero\n      tag_356\n      jumpi\n        /* \"#utility.yul\":2148:2227   */\n      tag_357\n      tag_244\n      jump\t// in\n    tag_357:\n        /* \"#utility.yul\":2110:2229   */\n    tag_356:\n        /* \"#utility.yul\":2268:2269   */\n      0x00\n        /* \"#utility.yul\":2293:2354   */\n      tag_358\n        /* \"#utility.yul\":2346:2353   */\n      dup5\n        /* \"#utility.yul\":2337:2343   */\n      dup3\n        /* \"#utility.yul\":2326:2335   */\n      dup6\n        /* \"#utility.yul\":2322:2344   */\n      add\n        /* \"#utility.yul\":2293:2354   */\n      tag_254\n      jump\t// in\n    tag_358:\n        /* \"#utility.yul\":2283:2354   */\n      swap2\n      pop\n        /* \"#utility.yul\":2239:2364   */\n      pop\n        /* \"#utility.yul\":2026:2371   */\n      swap3\n      swap2\n      pop\n      pop\n      jump\t// out\n        /* \"#utility.yul\":2377:2494   */\n    tag_255:\n        /* \"#utility.yul\":2486:2487   */\n      0x00\n        /* \"#utility.yul\":2483:2484   */\n      dup1\n        /* \"#utility.yul\":2476:2488   */\n      revert\n        /* \"#utility.yul\":2500:2617   */\n    tag_256:\n        /* \"#utility.yul\":2609:2610   */\n      0x00\n        /* \"#utility.yul\":2606:2607   */\n      dup1\n        /* \"#utility.yul\":2599:2611   */\n      revert\n        /* \"#utility.yul\":2623:2725   */\n    tag_257:\n        /* \"#utility.yul\":2664:2670   */\n      0x00\n        /* \"#utility.yul\":2715:2717   */\n      0x1f\n        /* \"#utility.yul\":2711:2718   */\n      not\n        /* \"#utility.yul\":2706:2708   */\n      0x1f\n        /* \"#utility.yul\":2699:2704   */\n      dup4\n        /* \"#utility.yul\":2695:2709   */\n      add\n        /* \"#utility.yul\":2691:2719   */\n      and\n        /* \"#utility.yul\":2681:2719   */\n      swap1\n      pop\n        /* \"#utility.yul\":2623:2725   */\n      swap2\n      swap1\n      pop\n      jump\t// out\n        /* \"#utility.yul\":2731:2911   */\n    tag_210:\n        /* \"#utility.yul\":2779:2856   */\n      0x4e487b7100000000000000000000000000000000000000000000000000000000\n        /* \"#utility.yul\":2776:2777   */\n      0x00\n        /* \"#utility.yul\":2769:2857   */\n      mstore\n        /* \"#utility.yul\":2876:2880   */\n      0x41\n        /* \"#utility.yul\":2873:2874   */\n      0x04\n        /* \"#utility.yul\":2866:2881   */\n      mstore\n        /* \"#utility.yul\":2900:2904   */\n      0x24\n        /* \"#utility.yul\":2897:2898   */\n      0x00\n        /* \"#utility.yul\":2890:2905   */\n      revert\n        /* \"#utility.yul\":2917:3198   */\n    tag_258:\n        /* \"#utility.yul\":3000:3027   */\n      tag_364\n        /* \"#utility.yul\":3022:3026   */\n      dup3\n        /* \"#utility.yul\":3000:3027   */\n      tag_257\n      jump\t// in\n    tag_364:\n        /* \"#utility.yul\":2992:2998   */\n      dup2\n        /* \"#utility.yul\":2988:3028   */\n      add\n        /* \"#utility.yul\":3130:3136   */\n      dup2\n        /* \"#utility.yul\":3118:3128   */\n      dup2\n        /* \"#utility.yul\":3115:3137   */\n      lt\n        /* \"#utility.yul\":3094:3112   */\n      0xffffffffffffffff\n        /* \"#utility.yul\":3082:3092   */\n      dup3\n        /* \"#utility.yul\":3079:3113   */\n      gt\n        /* \"#utility.yul\":3076:3138   */\n      or\n        /* \"#utility.yul\":3073:3161   */\n      iszero\n      tag_365\n      jumpi\n        /* \"#utility.yul\":3141:3159   */\n      tag_366\n      tag_210\n      jump\t// in\n    tag_366:\n        /* \"#utility.yul\":3073:3161   */\n    tag_365:\n        /* \"#utility.yul\":3181:3191   */\n      dup1\n        /* \"#utility.yul\":3177:3179   */\n      0x40\n        /* \"#utility.yul\":3170:3192   */\n      mstore\n        /* \"#utility.yul\":2960:3198   */\n      pop\n        /* \"#utility.yul\":2917:3198   */\n      pop\n      pop\n      jump\t// out\n        /* \"#utility.yul\":3204:3333   */\n    tag_259:\n        /* \"#utility.yul\":3238:3244   */\n      0x00\n        /* \"#utility.yul\":3265:3285   */\n      tag_368\n      tag_243\n      jump\t// in\n    tag_368:\n        /* \"#utility.yul\":3255:3285   */\n      swap1\n      pop\n        /* \"#utility.yul\":3294:3327   */\n      tag_369\n        /* \"#utility.yul\":3322:3326   */\n      dup3\n        /* \"#utility.yul\":3314:3320   */\n      dup3\n        /* \"#utility.yul\":3294:3327   */\n      tag_258\n      jump\t// in\n    tag_369:\n        /* \"#utility.yul\":3204:3333   */\n      swap2\n      swap1\n      pop\n      jump\t// out\n        /* \"#utility.yul\":3339:3647   */\n    tag_260:\n        /* \"#utility.yul\":3401:3405   */\n      0x00\n        /* \"#utility.yul\":3491:3509   */\n      0xffffffffffffffff\n        /* \"#utility.yul\":3483:3489   */\n      dup3\n        /* \"#utility.yul\":3480:3510   */\n      gt\n        /* \"#utility.yul\":3477:3533   */\n      iszero\n      tag_371\n      jumpi\n        /* \"#utility.yul\":3513:3531   */\n      tag_372\n      tag_210\n      jump\t// in\n    tag_372:\n        /* \"#utility.yul\":3477:3533   */\n    tag_371:\n        /* \"#utility.yul\":3551:3580   */\n      tag_373\n        /* \"#utility.yul\":3573:3579   */\n      dup3\n        /* \"#utility.yul\":3551:3580   */\n      tag_257\n      jump\t// in\n    tag_373:\n        /* \"#utility.yul\":3543:3580   */\n      swap1\n      pop\n        /* \"#utility.yul\":3635:3639   */\n      0x20\n        /* \"#utility.yul\":3629:3633   */\n      dup2\n        /* \"#utility.yul\":3625:3640   */\n      add\n        /* \"#utility.yul\":3617:3640   */\n      swap1\n      pop\n        /* \"#utility.yul\":3339:3647   */\n      swap2\n      swap1\n      pop\n      jump\t// out\n        /* \"#utility.yul\":3653:3799   */\n    tag_261:\n        /* \"#utility.yul\":3750:3756   */\n      dup3\n        /* \"#utility.yul\":3745:3748   */\n      dup2\n        /* \"#utility.yul\":3740:3743   */\n      dup4\n        /* \"#utility.yul\":3727:3757   */\n      calldatacopy\n        /* \"#utility.yul\":3791:3792   */\n      0x00\n        /* \"#utility.yul\":3782:3788   */\n      dup4\n        /* \"#utility.yul\":3777:3780   */\n      dup4\n        /* \"#utility.yul\":3773:3789   */\n      add\n        /* \"#utility.yul\":3766:3793   */\n      mstore\n        /* \"#utility.yul\":3653:3799   */\n      pop\n      pop\n      pop\n      jump\t// out\n        /* \"#utility.yul\":3805:4230   */\n    tag_262:\n        /* \"#utility.yul\":3883:3888   */\n      0x00\n        /* \"#utility.yul\":3908:3974   */\n      tag_376\n        /* \"#utility.yul\":3924:3973   */\n      tag_377\n        /* \"#utility.yul\":3966:3972   */\n      dup5\n        /* \"#utility.yul\":3924:3973   */\n      tag_260\n      jump\t// in\n    tag_377:\n        /* \"#utility.yul\":3908:3974   */\n      tag_259\n      jump\t// in\n    tag_376:\n        /* \"#utility.yul\":3899:3974   */\n      swap1\n      pop\n        /* \"#utility.yul\":3997:4003   */\n      dup3\n        /* \"#utility.yul\":3990:3995   */\n      dup2\n        /* \"#utility.yul\":3983:4004   */\n      mstore\n        /* \"#utility.yul\":4035:4039   */\n      0x20\n        /* \"#utility.yul\":4028:4033   */\n      dup2\n        /* \"#utility.yul\":4024:4040   */\n      add\n        /* \"#utility.yul\":4073:4076   */\n      dup5\n        /* \"#utility.yul\":4064:4070   */\n      dup5\n        /* \"#utility.yul\":4059:4062   */\n      dup5\n        /* \"#utility.yul\":4055:4071   */\n      add\n        /* \"#utility.yul\":4052:4077   */\n      gt\n        /* \"#utility.yul\":4049:4161   */\n      iszero\n      tag_378\n      jumpi\n        /* \"#utility.yul\":4080:4159   */\n      tag_379\n      tag_256\n      jump\t// in\n    tag_379:\n        /* \"#utility.yul\":4049:4161   */\n    tag_378:\n        /* \"#utility.yul\":4170:4224   */\n      tag_380\n        /* \"#utility.yul\":4217:4223   */\n      dup5\n        /* \"#utility.yul\":4212:4215   */\n      dup3\n        /* \"#utility.yul\":4207:4210   */\n      dup6\n        /* \"#utility.yul\":4170:4224   */\n      tag_261\n      jump\t// in\n    tag_380:\n        /* \"#utility.yul\":3889:4230   */\n      pop\n        /* \"#utility.yul\":3805:4230   */\n      swap4\n      swap3\n      pop\n      pop\n      pop\n      jump\t// out\n        /* \"#utility.yul\":4250:4590   */\n    tag_263:\n        /* \"#utility.yul\":4306:4311   */\n      0x00\n        /* \"#utility.yul\":4355:4358   */\n      dup3\n        /* \"#utility.yul\":4348:4352   */\n      0x1f\n        /* \"#utility.yul\":4340:4346   */\n      dup4\n        /* \"#utility.yul\":4336:4353   */\n      add\n        /* \"#utility.yul\":4332:4359   */\n      slt\n        /* \"#utility.yul\":4322:4444   */\n      tag_382\n      jumpi\n        /* \"#utility.yul\":4363:4442   */\n      tag_383\n      tag_255\n      jump\t// in\n    tag_383:\n        /* \"#utility.yul\":4322:4444   */\n    tag_382:\n        /* \"#utility.yul\":4480:4486   */\n      dup2\n        /* \"#utility.yul\":4467:4487   */\n      calldataload\n        /* \"#utility.yul\":4505:4584   */\n      tag_384\n        /* \"#utility.yul\":4580:4583   */\n      dup5\n        /* \"#utility.yul\":4572:4578   */\n      dup3\n        /* \"#utility.yul\":4565:4569   */\n      0x20\n        /* \"#utility.yul\":4557:4563   */\n      dup7\n        /* \"#utility.yul\":4553:4570   */\n      add\n        /* \"#utility.yul\":4505:4584   */\n      tag_262\n      jump\t// in\n    tag_384:\n        /* \"#utility.yul\":4496:4584   */\n      swap2\n      pop\n        /* \"#utility.yul\":4312:4590   */\n      pop\n        /* \"#utility.yul\":4250:4590   */\n      swap3\n      swap2\n      pop\n      pop\n      jump\t// out\n        /* \"#utility.yul\":4596:5105   */\n    tag_42:\n        /* \"#utility.yul\":4665:4671   */\n      0x00\n        /* \"#utility.yul\":4714:4716   */\n      0x20\n        /* \"#utility.yul\":4702:4711   */\n      dup3\n        /* \"#utility.yul\":4693:4700   */\n      dup5\n        /* \"#utility.yul\":4689:4712   */\n      sub\n        /* \"#utility.yul\":4685:4717   */\n      slt\n        /* \"#utility.yul\":4682:4801   */\n      iszero\n      tag_386\n      jumpi\n        /* \"#utility.yul\":4720:4799   */\n      tag_387\n      tag_244\n      jump\t// in\n    tag_387:\n        /* \"#utility.yul\":4682:4801   */\n    tag_386:\n        /* \"#utility.yul\":4868:4869   */\n      0x00\n        /* \"#utility.yul\":4857:4866   */\n      dup3\n        /* \"#utility.yul\":4853:4870   */\n      add\n        /* \"#utility.yul\":4840:4871   */\n      calldataload\n        /* \"#utility.yul\":4898:4916   */\n      0xffffffffffffffff\n        /* \"#utility.yul\":4890:4896   */\n      dup2\n        /* \"#utility.yul\":4887:4917   */\n      gt\n        /* \"#utility.yul\":4884:5001   */\n      iszero\n      tag_388\n      jumpi\n        /* \"#utility.yul\":4920:4999   */\n      tag_389\n      tag_245\n      jump\t// in\n    tag_389:\n        /* \"#utility.yul\":4884:5001   */\n    tag_388:\n        /* \"#utility.yul\":5025:5088   */\n      tag_390\n        /* \"#utility.yul\":5080:5087   */\n      dup5\n        /* \"#utility.yul\":5071:5077   */\n      dup3\n        /* \"#utility.yul\":5060:5069   */\n      dup6\n        /* \"#utility.yul\":5056:5078   */\n      add\n        /* \"#utility.yul\":5025:5088   */\n      tag_263\n      jump\t// in\n    tag_390:\n        /* \"#utility.yul\":5015:5088   */\n      swap2\n      pop\n        /* \"#utility.yul\":4811:5098   */\n      pop\n        /* \"#utility.yul\":4596:5105   */\n      swap3\n      swap2\n      pop\n      pop\n      jump\t// out\n        /* \"#utility.yul\":5111:5233   */\n    tag_264:\n        /* \"#utility.yul\":5184:5208   */\n      tag_392\n        /* \"#utility.yul\":5202:5207   */\n      dup2\n        /* \"#utility.yul\":5184:5208   */\n      tag_250\n      jump\t// in\n    tag_392:\n        /* \"#utility.yul\":5177:5182   */\n      dup2\n        /* \"#utility.yul\":5174:5209   */\n      eq\n        /* \"#utility.yul\":5164:5227   */\n      tag_393\n      jumpi\n        /* \"#utility.yul\":5223:5224   */\n      0x00\n        /* \"#utility.yul\":5220:5221   */\n      dup1\n        /* \"#utility.yul\":5213:5225   */\n      revert\n        /* \"#utility.yul\":5164:5227   */\n    tag_393:\n        /* \"#utility.yul\":5111:5233   */\n      pop\n      jump\t// out\n        /* \"#utility.yul\":5239:5378   */\n    tag_265:\n        /* \"#utility.yul\":5285:5290   */\n      0x00\n        /* \"#utility.yul\":5323:5329   */\n      dup2\n        /* \"#utility.yul\":5310:5330   */\n      calldataload\n        /* \"#utility.yul\":5301:5330   */\n      swap1\n      pop\n        /* \"#utility.yul\":5339:5372   */\n      tag_395\n        /* \"#utility.yul\":5366:5371   */\n      dup2\n        /* \"#utility.yul\":5339:5372   */\n      tag_264\n      jump\t// in\n    tag_395:\n        /* \"#utility.yul\":5239:5378   */\n      swap3\n      swap2\n      pop\n      pop\n      jump\t// out\n        /* \"#utility.yul\":5384:5713   */\n    tag_46:\n        /* \"#utility.yul\":5443:5449   */\n      0x00\n        /* \"#utility.yul\":5492:5494   */\n      0x20\n        /* \"#utility.yul\":5480:5489   */\n      dup3\n        /* \"#utility.yul\":5471:5478   */\n      dup5\n        /* \"#utility.yul\":5467:5490   */\n      sub\n        /* \"#utility.yul\":5463:5495   */\n      slt\n        /* \"#utility.yul\":5460:5579   */\n      iszero\n      tag_397\n      jumpi\n        /* \"#utility.yul\":5498:5577   */\n      tag_398\n      tag_244\n      jump\t// in\n    tag_398:\n        /* \"#utility.yul\":5460:5579   */\n    tag_397:\n        /* \"#utility.yul\":5618:5619   */\n      0x00\n        /* \"#utility.yul\":5643:5696   */\n      tag_399\n        /* \"#utility.yul\":5688:5695   */\n      dup5\n        /* \"#utility.yul\":5679:5685   */\n      dup3\n        /* \"#utility.yul\":5668:5677   */\n      dup6\n        /* \"#utility.yul\":5664:5686   */\n      add\n        /* \"#utility.yul\":5643:5696   */\n      tag_265\n      jump\t// in\n    tag_399:\n        /* \"#utility.yul\":5633:5696   */\n      swap2\n      pop\n        /* \"#utility.yul\":5589:5706   */\n      pop\n        /* \"#utility.yul\":5384:5713   */\n      swap3\n      swap2\n      pop\n      pop\n      jump\t// out\n        /* \"#utility.yul\":5719:5837   */\n    tag_266:\n        /* \"#utility.yul\":5806:5830   */\n      tag_401\n        /* \"#utility.yul\":5824:5829   */\n      dup2\n        /* \"#utility.yul\":5806:5830   */\n      tag_246\n      jump\t// in\n    tag_401:\n        /* \"#utility.yul\":5801:5804   */\n      dup3\n        /* \"#utility.yul\":5794:5831   */\n      mstore\n        /* \"#utility.yul\":5719:5837   */\n      pop\n      pop\n      jump\t// out\n        /* \"#utility.yul\":5843:6065   */\n    tag_49:\n        /* \"#utility.yul\":5936:5940   */\n      0x00\n        /* \"#utility.yul\":5974:5976   */\n      0x20\n        /* \"#utility.yul\":5963:5972   */\n      dup3\n        /* \"#utility.yul\":5959:5977   */\n      add\n        /* \"#utility.yul\":5951:5977   */\n      swap1\n      pop\n        /* \"#utility.yul\":5987:6058   */\n      tag_403\n        /* \"#utility.yul\":6055:6056   */\n      0x00\n        /* \"#utility.yul\":6044:6053   */\n      dup4\n        /* \"#utility.yul\":6040:6057   */\n      add\n        /* \"#utility.yul\":6031:6037   */\n      dup5\n        /* \"#utility.yul\":5987:6058   */\n      tag_266\n      jump\t// in\n    tag_403:\n        /* \"#utility.yul\":5843:6065   */\n      swap3\n      swap2\n      pop\n      pop\n      jump\t// out\n        /* \"#utility.yul\":6071:6185   */\n    tag_267:\n        /* \"#utility.yul\":6138:6144   */\n      0x00\n        /* \"#utility.yul\":6172:6177   */\n      dup2\n        /* \"#utility.yul\":6166:6178   */\n      mload\n        /* \"#utility.yul\":6156:6178   */\n      swap1\n      pop\n        /* \"#utility.yul\":6071:6185   */\n      swap2\n      swap1\n      pop\n      jump\t// out\n        /* \"#utility.yul\":6191:6375   */\n    tag_268:\n        /* \"#utility.yul\":6290:6301   */\n      0x00\n        /* \"#utility.yul\":6324:6330   */\n      dup3\n        /* \"#utility.yul\":6319:6322   */\n      dup3\n        /* \"#utility.yul\":6312:6331   */\n      mstore\n        /* \"#utility.yul\":6364:6368   */\n      0x20\n        /* \"#utility.yul\":6359:6362   */\n      dup3\n        /* \"#utility.yul\":6355:6369   */\n      add\n        /* \"#utility.yul\":6340:6369   */\n      swap1\n      pop\n        /* \"#utility.yul\":6191:6375   */\n      swap3\n      swap2\n      pop\n      pop\n      jump\t// out\n        /* \"#utility.yul\":6381:6513   */\n    tag_269:\n        /* \"#utility.yul\":6448:6452   */\n      0x00\n        /* \"#utility.yul\":6471:6474   */\n      dup2\n        /* \"#utility.yul\":6463:6474   */\n      swap1\n      pop\n        /* \"#utility.yul\":6501:6505   */\n      0x20\n        /* \"#utility.yul\":6496:6499   */\n      dup3\n        /* \"#utility.yul\":6492:6506   */\n      add\n        /* \"#utility.yul\":6484:6506   */\n      swap1\n      pop\n        /* \"#utility.yul\":6381:6513   */\n      swap2\n      swap1\n      pop\n      jump\t// out\n        /* \"#utility.yul\":6519:6627   */\n    tag_270:\n        /* \"#utility.yul\":6596:6620   */\n      tag_408\n        /* \"#utility.yul\":6614:6619   */\n      dup2\n        /* \"#utility.yul\":6596:6620   */\n      tag_250\n      jump\t// in\n    tag_408:\n        /* \"#utility.yul\":6591:6594   */\n      dup3\n        /* \"#utility.yul\":6584:6621   */\n      mstore\n        /* \"#utility.yul\":6519:6627   */\n      pop\n      pop\n      jump\t// out\n        /* \"#utility.yul\":6633:6812   */\n    tag_271:\n        /* \"#utility.yul\":6702:6712   */\n      0x00\n        /* \"#utility.yul\":6723:6769   */\n      tag_410\n        /* \"#utility.yul\":6765:6768   */\n      dup4\n        /* \"#utility.yul\":6757:6763   */\n      dup4\n        /* \"#utility.yul\":6723:6769   */\n      tag_270\n      jump\t// in\n    tag_410:\n        /* \"#utility.yul\":6801:6805   */\n      0x20\n        /* \"#utility.yul\":6796:6799   */\n      dup4\n        /* \"#utility.yul\":6792:6806   */\n      add\n        /* \"#utility.yul\":6778:6806   */\n      swap1\n      pop\n        /* \"#utility.yul\":6633:6812   */\n      swap3\n      swap2\n      pop\n      pop\n      jump\t// out\n        /* \"#utility.yul\":6818:6931   */\n    tag_272:\n        /* \"#utility.yul\":6888:6892   */\n      0x00\n        /* \"#utility.yul\":6920:6924   */\n      0x20\n        /* \"#utility.yul\":6915:6918   */\n      dup3\n        /* \"#utility.yul\":6911:6925   */\n      add\n        /* \"#utility.yul\":6903:6925   */\n      swap1\n      pop\n        /* \"#utility.yul\":6818:6931   */\n      swap2\n      swap1\n      pop\n      jump\t// out\n        /* \"#utility.yul\":6967:7699   */\n    tag_273:\n        /* \"#utility.yul\":7086:7089   */\n      0x00\n        /* \"#utility.yul\":7115:7169   */\n      tag_413\n        /* \"#utility.yul\":7163:7168   */\n      dup3\n        /* \"#utility.yul\":7115:7169   */\n      tag_267\n      jump\t// in\n    tag_413:\n        /* \"#utility.yul\":7185:7271   */\n      tag_414\n        /* \"#utility.yul\":7264:7270   */\n      dup2\n        /* \"#utility.yul\":7259:7262   */\n      dup6\n        /* \"#utility.yul\":7185:7271   */\n      tag_268\n      jump\t// in\n    tag_414:\n        /* \"#utility.yul\":7178:7271   */\n      swap4\n      pop\n        /* \"#utility.yul\":7295:7351   */\n      tag_415\n        /* \"#utility.yul\":7345:7350   */\n      dup4\n        /* \"#utility.yul\":7295:7351   */\n      tag_269\n      jump\t// in\n    tag_415:\n        /* \"#utility.yul\":7374:7381   */\n      dup1\n        /* \"#utility.yul\":7405:7406   */\n      0x00\n        /* \"#utility.yul\":7390:7674   */\n    tag_416:\n        /* \"#utility.yul\":7415:7421   */\n      dup4\n        /* \"#utility.yul\":7412:7413   */\n      dup2\n        /* \"#utility.yul\":7409:7422   */\n      lt\n        /* \"#utility.yul\":7390:7674   */\n      iszero\n      tag_418\n      jumpi\n        /* \"#utility.yul\":7491:7497   */\n      dup2\n        /* \"#utility.yul\":7485:7498   */\n      mload\n        /* \"#utility.yul\":7518:7581   */\n      tag_419\n        /* \"#utility.yul\":7577:7580   */\n      dup9\n        /* \"#utility.yul\":7562:7575   */\n      dup3\n        /* \"#utility.yul\":7518:7581   */\n      tag_271\n      jump\t// in\n    tag_419:\n        /* \"#utility.yul\":7511:7581   */\n      swap8\n      pop\n        /* \"#utility.yul\":7604:7664   */\n      tag_420\n        /* \"#utility.yul\":7657:7663   */\n      dup4\n        /* \"#utility.yul\":7604:7664   */\n      tag_272\n      jump\t// in\n    tag_420:\n        /* \"#utility.yul\":7594:7664   */\n      swap3\n      pop\n        /* \"#utility.yul\":7450:7674   */\n      pop\n        /* \"#utility.yul\":7437:7438   */\n      0x01\n        /* \"#utility.yul\":7434:7435   */\n      dup2\n        /* \"#utility.yul\":7430:7439   */\n      add\n        /* \"#utility.yul\":7425:7439   */\n      swap1\n      pop\n        /* \"#utility.yul\":7390:7674   */\n      jump(tag_416)\n    tag_418:\n        /* \"#utility.yul\":7394:7408   */\n      pop\n        /* \"#utility.yul\":7690:7693   */\n      dup6\n        /* \"#utility.yul\":7683:7693   */\n      swap4\n      pop\n        /* \"#utility.yul\":7091:7699   */\n      pop\n      pop\n      pop\n        /* \"#utility.yul\":6967:7699   */\n      swap3\n      swap2\n      pop\n      pop\n      jump\t// out\n        /* \"#utility.yul\":7705:8078   */\n    tag_58:\n        /* \"#utility.yul\":7848:7852   */\n      0x00\n        /* \"#utility.yul\":7886:7888   */\n      0x20\n        /* \"#utility.yul\":7875:7884   */\n      dup3\n        /* \"#utility.yul\":7871:7889   */\n      add\n        /* \"#utility.yul\":7863:7889   */\n      swap1\n      pop\n        /* \"#utility.yul\":7935:7944   */\n      dup2\n        /* \"#utility.yul\":7929:7933   */\n      dup2\n        /* \"#utility.yul\":7925:7945   */\n      sub\n        /* \"#utility.yul\":7921:7922   */\n      0x00\n        /* \"#utility.yul\":7910:7919   */\n      dup4\n        /* \"#utility.yul\":7906:7923   */\n      add\n        /* \"#utility.yul\":7899:7946   */\n      mstore\n        /* \"#utility.yul\":7963:8071   */\n      tag_422\n        /* \"#utility.yul\":8066:8070   */\n      dup2\n        /* \"#utility.yul\":8057:8063   */\n      dup5\n        /* \"#utility.yul\":7963:8071   */\n      tag_273\n      jump\t// in\n    tag_422:\n        /* \"#utility.yul\":7955:8071   */\n      swap1\n      pop\n        /* \"#utility.yul\":7705:8078   */\n      swap3\n      swap2\n      pop\n      pop\n      jump\t// out\n        /* \"#utility.yul\":8084:8183   */\n    tag_274:\n        /* \"#utility.yul\":8136:8142   */\n      0x00\n        /* \"#utility.yul\":8170:8175   */\n      dup2\n        /* \"#utility.yul\":8164:8176   */\n      mload\n        /* \"#utility.yul\":8154:8176   */\n      swap1\n      pop\n        /* \"#utility.yul\":8084:8183   */\n      swap2\n      swap1\n      pop\n      jump\t// out\n        /* \"#utility.yul\":8189:8358   */\n    tag_275:\n        /* \"#utility.yul\":8273:8284   */\n      0x00\n        /* \"#utility.yul\":8307:8313   */\n      dup3\n        /* \"#utility.yul\":8302:8305   */\n      dup3\n        /* \"#utility.yul\":8295:8314   */\n      mstore\n        /* \"#utility.yul\":8347:8351   */\n      0x20\n        /* \"#utility.yul\":8342:8345   */\n      dup3\n        /* \"#utility.yul\":8338:8352   */\n      add\n        /* \"#utility.yul\":8323:8352   */\n      swap1\n      pop\n        /* \"#utility.yul\":8189:8358   */\n      swap3\n      swap2\n      pop\n      pop\n      jump\t// out\n        /* \"#utility.yul\":8364:8610   */\n    tag_276:\n        /* \"#utility.yul\":8445:8446   */\n      0x00\n        /* \"#utility.yul\":8455:8568   */\n    tag_426:\n        /* \"#utility.yul\":8469:8475   */\n      dup4\n        /* \"#utility.yul\":8466:8467   */\n      dup2\n        /* \"#utility.yul\":8463:8476   */\n      lt\n        /* \"#utility.yul\":8455:8568   */\n      iszero\n      tag_428\n      jumpi\n        /* \"#utility.yul\":8554:8555   */\n      dup1\n        /* \"#utility.yul\":8549:8552   */\n      dup3\n        /* \"#utility.yul\":8545:8556   */\n      add\n        /* \"#utility.yul\":8539:8557   */\n      mload\n        /* \"#utility.yul\":8535:8536   */\n      dup2\n        /* \"#utility.yul\":8530:8533   */\n      dup5\n        /* \"#utility.yul\":8526:8537   */\n      add\n        /* \"#utility.yul\":8519:8558   */\n      mstore\n        /* \"#utility.yul\":8491:8493   */\n      0x20\n        /* \"#utility.yul\":8488:8489   */\n      dup2\n        /* \"#utility.yul\":8484:8494   */\n      add\n        /* \"#utility.yul\":8479:8494   */\n      swap1\n      pop\n        /* \"#utility.yul\":8455:8568   */\n      jump(tag_426)\n    tag_428:\n        /* \"#utility.yul\":8602:8603   */\n      0x00\n        /* \"#utility.yul\":8593:8599   */\n      dup5\n        /* \"#utility.yul\":8588:8591   */\n      dup5\n        /* \"#utility.yul\":8584:8600   */\n      add\n        /* \"#utility.yul\":8577:8604   */\n      mstore\n        /* \"#utility.yul\":8426:8610   */\n      pop\n        /* \"#utility.yul\":8364:8610   */\n      pop\n      pop\n      pop\n      jump\t// out\n        /* \"#utility.yul\":8616:8993   */\n    tag_277:\n        /* \"#utility.yul\":8704:8707   */\n      0x00\n        /* \"#utility.yul\":8732:8771   */\n      tag_430\n        /* \"#utility.yul\":8765:8770   */\n      dup3\n        /* \"#utility.yul\":8732:8771   */\n      tag_274\n      jump\t// in\n    tag_430:\n        /* \"#utility.yul\":8787:8858   */\n      tag_431\n        /* \"#utility.yul\":8851:8857   */\n      dup2\n        /* \"#utility.yul\":8846:8849   */\n      dup6\n        /* \"#utility.yul\":8787:8858   */\n      tag_275\n      jump\t// in\n    tag_431:\n        /* \"#utility.yul\":8780:8858   */\n      swap4\n      pop\n        /* \"#utility.yul\":8867:8932   */\n      tag_432\n        /* \"#utility.yul\":8925:8931   */\n      dup2\n        /* \"#utility.yul\":8920:8923   */\n      dup6\n        /* \"#utility.yul\":8913:8917   */\n      0x20\n        /* \"#utility.yul\":8906:8911   */\n      dup7\n        /* \"#utility.yul\":8902:8918   */\n      add\n        /* \"#utility.yul\":8867:8932   */\n      tag_276\n      jump\t// in\n    tag_432:\n        /* \"#utility.yul\":8957:8986   */\n      tag_433\n        /* \"#utility.yul\":8979:8985   */\n      dup2\n        /* \"#utility.yul\":8957:8986   */\n      tag_257\n      jump\t// in\n    tag_433:\n        /* \"#utility.yul\":8952:8955   */\n      dup5\n        /* \"#utility.yul\":8948:8987   */\n      add\n        /* \"#utility.yul\":8941:8987   */\n      swap2\n      pop\n        /* \"#utility.yul\":8708:8993   */\n      pop\n        /* \"#utility.yul\":8616:8993   */\n      swap3\n      swap2\n      pop\n      pop\n      jump\t// out\n        /* \"#utility.yul\":8999:9312   */\n    tag_75:\n        /* \"#utility.yul\":9112:9116   */\n      0x00\n        /* \"#utility.yul\":9150:9152   */\n      0x20\n        /* \"#utility.yul\":9139:9148   */\n      dup3\n        /* \"#utility.yul\":9135:9153   */\n      add\n        /* \"#utility.yul\":9127:9153   */\n      swap1\n      pop\n        /* \"#utility.yul\":9199:9208   */\n      dup2\n        /* \"#utility.yul\":9193:9197   */\n      dup2\n        /* \"#utility.yul\":9189:9209   */\n      sub\n        /* \"#utility.yul\":9185:9186   */\n      0x00\n        /* \"#utility.yul\":9174:9183   */\n      dup4\n        /* \"#utility.yul\":9170:9187   */\n      add\n        /* \"#utility.yul\":9163:9210   */\n      mstore\n        /* \"#utility.yul\":9227:9305   */\n      tag_435\n        /* \"#utility.yul\":9300:9304   */\n      dup2\n        /* \"#utility.yul\":9291:9297   */\n      dup5\n        /* \"#utility.yul\":9227:9305   */\n      tag_277\n      jump\t// in\n    tag_435:\n        /* \"#utility.yul\":9219:9305   */\n      swap1\n      pop\n        /* \"#utility.yul\":8999:9312   */\n      swap3\n      swap2\n      pop\n      pop\n      jump\t// out\n        /* \"#utility.yul\":9318:9408   */\n    tag_278:\n        /* \"#utility.yul\":9352:9359   */\n      0x00\n        /* \"#utility.yul\":9395:9400   */\n      dup2\n        /* \"#utility.yul\":9388:9401   */\n      iszero\n        /* \"#utility.yul\":9381:9402   */\n      iszero\n        /* \"#utility.yul\":9370:9402   */\n      swap1\n      pop\n        /* \"#utility.yul\":9318:9408   */\n      swap2\n      swap1\n      pop\n      jump\t// out\n        /* \"#utility.yul\":9414:9523   */\n    tag_279:\n        /* \"#utility.yul\":9495:9516   */\n      tag_438\n        /* \"#utility.yul\":9510:9515   */\n      dup2\n        /* \"#utility.yul\":9495:9516   */\n      tag_278\n      jump\t// in\n    tag_438:\n        /* \"#utility.yul\":9490:9493   */\n      dup3\n        /* \"#utility.yul\":9483:9517   */\n      mstore\n        /* \"#utility.yul\":9414:9523   */\n      pop\n      pop\n      jump\t// out\n        /* \"#utility.yul\":9529:9739   */\n    tag_80:\n        /* \"#utility.yul\":9616:9620   */\n      0x00\n        /* \"#utility.yul\":9654:9656   */\n      0x20\n        /* \"#utility.yul\":9643:9652   */\n      dup3\n        /* \"#utility.yul\":9639:9657   */\n      add\n        /* \"#utility.yul\":9631:9657   */\n      swap1\n      pop\n        /* \"#utility.yul\":9667:9732   */\n      tag_440\n        /* \"#utility.yul\":9729:9730   */\n      0x00\n        /* \"#utility.yul\":9718:9727   */\n      dup4\n        /* \"#utility.yul\":9714:9731   */\n      add\n        /* \"#utility.yul\":9705:9711   */\n      dup5\n        /* \"#utility.yul\":9667:9732   */\n      tag_279\n      jump\t// in\n    tag_440:\n        /* \"#utility.yul\":9529:9739   */\n      swap3\n      swap2\n      pop\n      pop\n      jump\t// out\n        /* \"#utility.yul\":9745:10468   */\n    tag_85:\n        /* \"#utility.yul\":9956:9960   */\n      0x00\n        /* \"#utility.yul\":9994:9997   */\n      0x80\n        /* \"#utility.yul\":9983:9992   */\n      dup3\n        /* \"#utility.yul\":9979:9998   */\n      add\n        /* \"#utility.yul\":9971:9998   */\n      swap1\n      pop\n        /* \"#utility.yul\":10044:10053   */\n      dup2\n        /* \"#utility.yul\":10038:10042   */\n      dup2\n        /* \"#utility.yul\":10034:10054   */\n      sub\n        /* \"#utility.yul\":10030:10031   */\n      0x00\n        /* \"#utility.yul\":10019:10028   */\n      dup4\n        /* \"#utility.yul\":10015:10032   */\n      add\n        /* \"#utility.yul\":10008:10055   */\n      mstore\n        /* \"#utility.yul\":10072:10150   */\n      tag_442\n        /* \"#utility.yul\":10145:10149   */\n      dup2\n        /* \"#utility.yul\":10136:10142   */\n      dup8\n        /* \"#utility.yul\":10072:10150   */\n      tag_277\n      jump\t// in\n    tag_442:\n        /* \"#utility.yul\":10064:10150   */\n      swap1\n      pop\n        /* \"#utility.yul\":10197:10206   */\n      dup2\n        /* \"#utility.yul\":10191:10195   */\n      dup2\n        /* \"#utility.yul\":10187:10207   */\n      sub\n        /* \"#utility.yul\":10182:10184   */\n      0x20\n        /* \"#utility.yul\":10171:10180   */\n      dup4\n        /* \"#utility.yul\":10167:10185   */\n      add\n        /* \"#utility.yul\":10160:10208   */\n      mstore\n        /* \"#utility.yul\":10225:10303   */\n      tag_443\n        /* \"#utility.yul\":10298:10302   */\n      dup2\n        /* \"#utility.yul\":10289:10295   */\n      dup7\n        /* \"#utility.yul\":10225:10303   */\n      tag_277\n      jump\t// in\n    tag_443:\n        /* \"#utility.yul\":10217:10303   */\n      swap1\n      pop\n        /* \"#utility.yul\":10313:10385   */\n      tag_444\n        /* \"#utility.yul\":10381:10383   */\n      0x40\n        /* \"#utility.yul\":10370:10379   */\n      dup4\n        /* \"#utility.yul\":10366:10384   */\n      add\n        /* \"#utility.yul\":10357:10363   */\n      dup6\n        /* \"#utility.yul\":10313:10385   */\n      tag_251\n      jump\t// in\n    tag_444:\n        /* \"#utility.yul\":10395:10461   */\n      tag_445\n        /* \"#utility.yul\":10457:10459   */\n      0x60\n        /* \"#utility.yul\":10446:10455   */\n      dup4\n        /* \"#utility.yul\":10442:10460   */\n      add\n        /* \"#utility.yul\":10433:10439   */\n      dup5\n        /* \"#utility.yul\":10395:10461   */\n      tag_279\n      jump\t// in\n    tag_445:\n        /* \"#utility.yul\":9745:10468   */\n      swap6\n      swap5\n      pop\n      pop\n      pop\n      pop\n      pop\n      jump\t// out\n        /* \"#utility.yul\":10474:11128   */\n    tag_95:\n        /* \"#utility.yul\":10552:10558   */\n      0x00\n        /* \"#utility.yul\":10560:10566   */\n      dup1\n        /* \"#utility.yul\":10609:10611   */\n      0x40\n        /* \"#utility.yul\":10597:10606   */\n      dup4\n        /* \"#utility.yul\":10588:10595   */\n      dup6\n        /* \"#utility.yul\":10584:10607   */\n      sub\n        /* \"#utility.yul\":10580:10612   */\n      slt\n        /* \"#utility.yul\":10577:10696   */\n      iszero\n      tag_447\n      jumpi\n        /* \"#utility.yul\":10615:10694   */\n      tag_448\n      tag_244\n      jump\t// in\n    tag_448:\n        /* \"#utility.yul\":10577:10696   */\n    tag_447:\n        /* \"#utility.yul\":10735:10736   */\n      0x00\n        /* \"#utility.yul\":10760:10813   */\n      tag_449\n        /* \"#utility.yul\":10805:10812   */\n      dup6\n        /* \"#utility.yul\":10796:10802   */\n      dup3\n        /* \"#utility.yul\":10785:10794   */\n      dup7\n        /* \"#utility.yul\":10781:10803   */\n      add\n        /* \"#utility.yul\":10760:10813   */\n      tag_265\n      jump\t// in\n    tag_449:\n        /* \"#utility.yul\":10750:10813   */\n      swap3\n      pop\n        /* \"#utility.yul\":10706:10823   */\n      pop\n        /* \"#utility.yul\":10890:10892   */\n      0x20\n        /* \"#utility.yul\":10879:10888   */\n      dup4\n        /* \"#utility.yul\":10875:10893   */\n      add\n        /* \"#utility.yul\":10862:10894   */\n      calldataload\n        /* \"#utility.yul\":10921:10939   */\n      0xffffffffffffffff\n        /* \"#utility.yul\":10913:10919   */\n      dup2\n        /* \"#utility.yul\":10910:10940   */\n      gt\n        /* \"#utility.yul\":10907:11024   */\n      iszero\n      tag_450\n      jumpi\n        /* \"#utility.yul\":10943:11022   */\n      tag_451\n      tag_245\n      jump\t// in\n    tag_451:\n        /* \"#utility.yul\":10907:11024   */\n    tag_450:\n        /* \"#utility.yul\":11048:11111   */\n      tag_452\n        /* \"#utility.yul\":11103:11110   */\n      dup6\n        /* \"#utility.yul\":11094:11100   */\n      dup3\n        /* \"#utility.yul\":11083:11092   */\n      dup7\n        /* \"#utility.yul\":11079:11101   */\n      add\n        /* \"#utility.yul\":11048:11111   */\n      tag_263\n      jump\t// in\n    tag_452:\n        /* \"#utility.yul\":11038:11111   */\n      swap2\n      pop\n        /* \"#utility.yul\":10833:11121   */\n      pop\n        /* \"#utility.yul\":10474:11128   */\n      swap3\n      pop\n      swap3\n      swap1\n      pop\n      jump\t// out\n        /* \"#utility.yul\":11134:11968   */\n    tag_107:\n        /* \"#utility.yul\":11222:11228   */\n      0x00\n        /* \"#utility.yul\":11230:11236   */\n      dup1\n        /* \"#utility.yul\":11279:11281   */\n      0x40\n        /* \"#utility.yul\":11267:11276   */\n      dup4\n        /* \"#utility.yul\":11258:11265   */\n      dup6\n        /* \"#utility.yul\":11254:11277   */\n      sub\n        /* \"#utility.yul\":11250:11282   */\n      slt\n        /* \"#utility.yul\":11247:11366   */\n      iszero\n      tag_454\n      jumpi\n        /* \"#utility.yul\":11285:11364   */\n      tag_455\n      tag_244\n      jump\t// in\n    tag_455:\n        /* \"#utility.yul\":11247:11366   */\n    tag_454:\n        /* \"#utility.yul\":11433:11434   */\n      0x00\n        /* \"#utility.yul\":11422:11431   */\n      dup4\n        /* \"#utility.yul\":11418:11435   */\n      add\n        /* \"#utility.yul\":11405:11436   */\n      calldataload\n        /* \"#utility.yul\":11463:11481   */\n      0xffffffffffffffff\n        /* \"#utility.yul\":11455:11461   */\n      dup2\n        /* \"#utility.yul\":11452:11482   */\n      gt\n        /* \"#utility.yul\":11449:11566   */\n      iszero\n      tag_456\n      jumpi\n        /* \"#utility.yul\":11485:11564   */\n      tag_457\n      tag_245\n      jump\t// in\n    tag_457:\n        /* \"#utility.yul\":11449:11566   */\n    tag_456:\n        /* \"#utility.yul\":11590:11653   */\n      tag_458\n        /* \"#utility.yul\":11645:11652   */\n      dup6\n        /* \"#utility.yul\":11636:11642   */\n      dup3\n        /* \"#utility.yul\":11625:11634   */\n      dup7\n        /* \"#utility.yul\":11621:11643   */\n      add\n        /* \"#utility.yul\":11590:11653   */\n      tag_263\n      jump\t// in\n    tag_458:\n        /* \"#utility.yul\":11580:11653   */\n      swap3\n      pop\n        /* \"#utility.yul\":11376:11663   */\n      pop\n        /* \"#utility.yul\":11730:11732   */\n      0x20\n        /* \"#utility.yul\":11719:11728   */\n      dup4\n        /* \"#utility.yul\":11715:11733   */\n      add\n        /* \"#utility.yul\":11702:11734   */\n      calldataload\n        /* \"#utility.yul\":11761:11779   */\n      0xffffffffffffffff\n        /* \"#utility.yul\":11753:11759   */\n      dup2\n        /* \"#utility.yul\":11750:11780   */\n      gt\n        /* \"#utility.yul\":11747:11864   */\n      iszero\n      tag_459\n      jumpi\n        /* \"#utility.yul\":11783:11862   */\n      tag_460\n      tag_245\n      jump\t// in\n    tag_460:\n        /* \"#utility.yul\":11747:11864   */\n    tag_459:\n        /* \"#utility.yul\":11888:11951   */\n      tag_461\n        /* \"#utility.yul\":11943:11950   */\n      dup6\n        /* \"#utility.yul\":11934:11940   */\n      dup3\n        /* \"#utility.yul\":11923:11932   */\n      dup7\n        /* \"#utility.yul\":11919:11941   */\n      add\n        /* \"#utility.yul\":11888:11951   */\n      tag_263\n      jump\t// in\n    tag_461:\n        /* \"#utility.yul\":11878:11951   */\n      swap2\n      pop\n        /* \"#utility.yul\":11673:11961   */\n      pop\n        /* \"#utility.yul\":11134:11968   */\n      swap3\n      pop\n      swap3\n      swap1\n      pop\n      jump\t// out\n        /* \"#utility.yul\":11974:12155   */\n    tag_280:\n        /* \"#utility.yul\":12114:12147   */\n      0x4f6e6c7920746865206f776e65722063616e206772616e742061636365737300\n        /* \"#utility.yul\":12110:12111   */\n      0x00\n        /* \"#utility.yul\":12102:12108   */\n      dup3\n        /* \"#utility.yul\":12098:12112   */\n      add\n        /* \"#utility.yul\":12091:12148   */\n      mstore\n        /* \"#utility.yul\":11974:12155   */\n      pop\n      jump\t// out\n        /* \"#utility.yul\":12161:12527   */\n    tag_281:\n        /* \"#utility.yul\":12303:12306   */\n      0x00\n        /* \"#utility.yul\":12324:12391   */\n      tag_464\n        /* \"#utility.yul\":12388:12390   */\n      0x1f\n        /* \"#utility.yul\":12383:12386   */\n      dup4\n        /* \"#utility.yul\":12324:12391   */\n      tag_275\n      jump\t// in\n    tag_464:\n        /* \"#utility.yul\":12317:12391   */\n      swap2\n      pop\n        /* \"#utility.yul\":12400:12493   */\n      tag_465\n        /* \"#utility.yul\":12489:12492   */\n      dup3\n        /* \"#utility.yul\":12400:12493   */\n      tag_280\n      jump\t// in\n    tag_465:\n        /* \"#utility.yul\":12518:12520   */\n      0x20\n        /* \"#utility.yul\":12513:12516   */\n      dup3\n        /* \"#utility.yul\":12509:12521   */\n      add\n        /* \"#utility.yul\":12502:12521   */\n      swap1\n      pop\n        /* \"#utility.yul\":12161:12527   */\n      swap2\n      swap1\n      pop\n      jump\t// out\n        /* \"#utility.yul\":12533:12952   */\n    tag_125:\n        /* \"#utility.yul\":12699:12703   */\n      0x00\n        /* \"#utility.yul\":12737:12739   */\n      0x20\n        /* \"#utility.yul\":12726:12735   */\n      dup3\n        /* \"#utility.yul\":12722:12740   */\n      add\n        /* \"#utility.yul\":12714:12740   */\n      swap1\n      pop\n        /* \"#utility.yul\":12786:12795   */\n      dup2\n        /* \"#utility.yul\":12780:12784   */\n      dup2\n        /* \"#utility.yul\":12776:12796   */\n      sub\n        /* \"#utility.yul\":12772:12773   */\n      0x00\n        /* \"#utility.yul\":12761:12770   */\n      dup4\n        /* \"#utility.yul\":12757:12774   */\n      add\n        /* \"#utility.yul\":12750:12797   */\n      mstore\n        /* \"#utility.yul\":12814:12945   */\n      tag_467\n        /* \"#utility.yul\":12940:12944   */\n      dup2\n        /* \"#utility.yul\":12814:12945   */\n      tag_281\n      jump\t// in\n    tag_467:\n        /* \"#utility.yul\":12806:12945   */\n      swap1\n      pop\n        /* \"#utility.yul\":12533:12952   */\n      swap2\n      swap1\n      pop\n      jump\t// out\n        /* \"#utility.yul\":12958:13182   */\n    tag_282:\n        /* \"#utility.yul\":13098:13132   */\n      0x4f6e6c79204f6666696369616c732063616e2063726561746520646570617274\n        /* \"#utility.yul\":13094:13095   */\n      0x00\n        /* \"#utility.yul\":13086:13092   */\n      dup3\n        /* \"#utility.yul\":13082:13096   */\n      add\n        /* \"#utility.yul\":13075:13133   */\n      mstore\n        /* \"#utility.yul\":13167:13174   */\n      0x6d656e7473000000000000000000000000000000000000000000000000000000\n        /* \"#utility.yul\":13162:13164   */\n      0x20\n        /* \"#utility.yul\":13154:13160   */\n      dup3\n        /* \"#utility.yul\":13150:13165   */\n      add\n        /* \"#utility.yul\":13143:13175   */\n      mstore\n        /* \"#utility.yul\":12958:13182   */\n      pop\n      jump\t// out\n        /* \"#utility.yul\":13188:13554   */\n    tag_283:\n        /* \"#utility.yul\":13330:13333   */\n      0x00\n        /* \"#utility.yul\":13351:13418   */\n      tag_470\n        /* \"#utility.yul\":13415:13417   */\n      0x25\n        /* \"#utility.yul\":13410:13413   */\n      dup4\n        /* \"#utility.yul\":13351:13418   */\n      tag_275\n      jump\t// in\n    tag_470:\n        /* \"#utility.yul\":13344:13418   */\n      swap2\n      pop\n        /* \"#utility.yul\":13427:13520   */\n      tag_471\n        /* \"#utility.yul\":13516:13519   */\n      dup3\n        /* \"#utility.yul\":13427:13520   */\n      tag_282\n      jump\t// in\n    tag_471:\n        /* \"#utility.yul\":13545:13547   */\n      0x40\n        /* \"#utility.yul\":13540:13543   */\n      dup3\n        /* \"#utility.yul\":13536:13548   */\n      add\n        /* \"#utility.yul\":13529:13548   */\n      swap1\n      pop\n        /* \"#utility.yul\":13188:13554   */\n      swap2\n      swap1\n      pop\n      jump\t// out\n        /* \"#utility.yul\":13560:13979   */\n    tag_129:\n        /* \"#utility.yul\":13726:13730   */\n      0x00\n        /* \"#utility.yul\":13764:13766   */\n      0x20\n        /* \"#utility.yul\":13753:13762   */\n      dup3\n        /* \"#utility.yul\":13749:13767   */\n      add\n        /* \"#utility.yul\":13741:13767   */\n      swap1\n      pop\n        /* \"#utility.yul\":13813:13822   */\n      dup2\n        /* \"#utility.yul\":13807:13811   */\n      dup2\n        /* \"#utility.yul\":13803:13823   */\n      sub\n        /* \"#utility.yul\":13799:13800   */\n      0x00\n        /* \"#utility.yul\":13788:13797   */\n      dup4\n        /* \"#utility.yul\":13784:13801   */\n      add\n        /* \"#utility.yul\":13777:13824   */\n      mstore\n        /* \"#utility.yul\":13841:13972   */\n      tag_473\n        /* \"#utility.yul\":13967:13971   */\n      dup2\n        /* \"#utility.yul\":13841:13972   */\n      tag_283\n      jump\t// in\n    tag_473:\n        /* \"#utility.yul\":13833:13972   */\n      swap1\n      pop\n        /* \"#utility.yul\":13560:13979   */\n      swap2\n      swap1\n      pop\n      jump\t// out\n        /* \"#utility.yul\":13985:14165   */\n    tag_284:\n        /* \"#utility.yul\":14033:14110   */\n      0x4e487b7100000000000000000000000000000000000000000000000000000000\n        /* \"#utility.yul\":14030:14031   */\n      0x00\n        /* \"#utility.yul\":14023:14111   */\n      mstore\n        /* \"#utility.yul\":14130:14134   */\n      0x11\n        /* \"#utility.yul\":14127:14128   */\n      0x04\n        /* \"#utility.yul\":14120:14135   */\n      mstore\n        /* \"#utility.yul\":14154:14158   */\n      0x24\n        /* \"#utility.yul\":14151:14152   */\n      0x00\n        /* \"#utility.yul\":14144:14159   */\n      revert\n        /* \"#utility.yul\":14171:14362   */\n    tag_131:\n        /* \"#utility.yul\":14211:14214   */\n      0x00\n        /* \"#utility.yul\":14230:14250   */\n      tag_476\n        /* \"#utility.yul\":14248:14249   */\n      dup3\n        /* \"#utility.yul\":14230:14250   */\n      tag_246\n      jump\t// in\n    tag_476:\n        /* \"#utility.yul\":14225:14250   */\n      swap2\n      pop\n        /* \"#utility.yul\":14264:14284   */\n      tag_477\n        /* \"#utility.yul\":14282:14283   */\n      dup4\n        /* \"#utility.yul\":14264:14284   */\n      tag_246\n      jump\t// in\n    tag_477:\n        /* \"#utility.yul\":14259:14284   */\n      swap3\n      pop\n        /* \"#utility.yul\":14307:14308   */\n      dup3\n        /* \"#utility.yul\":14304:14305   */\n      dup3\n        /* \"#utility.yul\":14300:14309   */\n      add\n        /* \"#utility.yul\":14293:14309   */\n      swap1\n      pop\n        /* \"#utility.yul\":14328:14331   */\n      dup1\n        /* \"#utility.yul\":14325:14326   */\n      dup3\n        /* \"#utility.yul\":14322:14332   */\n      gt\n        /* \"#utility.yul\":14319:14355   */\n      iszero\n      tag_478\n      jumpi\n        /* \"#utility.yul\":14335:14353   */\n      tag_479\n      tag_284\n      jump\t// in\n    tag_479:\n        /* \"#utility.yul\":14319:14355   */\n    tag_478:\n        /* \"#utility.yul\":14171:14362   */\n      swap3\n      swap2\n      pop\n      pop\n      jump\t// out\n        /* \"#utility.yul\":14368:14598   */\n    tag_285:\n        /* \"#utility.yul\":14508:14542   */\n      0x4f6e6c79204f6666696369616c7320616e6420746865206f776e65722063616e\n        /* \"#utility.yul\":14504:14505   */\n      0x00\n        /* \"#utility.yul\":14496:14502   */\n      dup3\n        /* \"#utility.yul\":14492:14506   */\n      add\n        /* \"#utility.yul\":14485:14543   */\n      mstore\n        /* \"#utility.yul\":14577:14590   */\n      0x20656e616374206c617773000000000000000000000000000000000000000000\n        /* \"#utility.yul\":14572:14574   */\n      0x20\n        /* \"#utility.yul\":14564:14570   */\n      dup3\n        /* \"#utility.yul\":14560:14575   */\n      add\n        /* \"#utility.yul\":14553:14591   */\n      mstore\n        /* \"#utility.yul\":14368:14598   */\n      pop\n      jump\t// out\n        /* \"#utility.yul\":14604:14970   */\n    tag_286:\n        /* \"#utility.yul\":14746:14749   */\n      0x00\n        /* \"#utility.yul\":14767:14834   */\n      tag_482\n        /* \"#utility.yul\":14831:14833   */\n      0x2b\n        /* \"#utility.yul\":14826:14829   */\n      dup4\n        /* \"#utility.yul\":14767:14834   */\n      tag_275\n      jump\t// in\n    tag_482:\n        /* \"#utility.yul\":14760:14834   */\n      swap2\n      pop\n        /* \"#utility.yul\":14843:14936   */\n      tag_483\n        /* \"#utility.yul\":14932:14935   */\n      dup3\n        /* \"#utility.yul\":14843:14936   */\n      tag_285\n      jump\t// in\n    tag_483:\n        /* \"#utility.yul\":14961:14963   */\n      0x40\n        /* \"#utility.yul\":14956:14959   */\n      dup3\n        /* \"#utility.yul\":14952:14964   */\n      add\n        /* \"#utility.yul\":14945:14964   */\n      swap1\n      pop\n        /* \"#utility.yul\":14604:14970   */\n      swap2\n      swap1\n      pop\n      jump\t// out\n        /* \"#utility.yul\":14976:15395   */\n    tag_136:\n        /* \"#utility.yul\":15142:15146   */\n      0x00\n        /* \"#utility.yul\":15180:15182   */\n      0x20\n        /* \"#utility.yul\":15169:15178   */\n      dup3\n        /* \"#utility.yul\":15165:15183   */\n      add\n        /* \"#utility.yul\":15157:15183   */\n      swap1\n      pop\n        /* \"#utility.yul\":15229:15238   */\n      dup2\n        /* \"#utility.yul\":15223:15227   */\n      dup2\n        /* \"#utility.yul\":15219:15239   */\n      sub\n        /* \"#utility.yul\":15215:15216   */\n      0x00\n        /* \"#utility.yul\":15204:15213   */\n      dup4\n        /* \"#utility.yul\":15200:15217   */\n      add\n        /* \"#utility.yul\":15193:15240   */\n      mstore\n        /* \"#utility.yul\":15257:15388   */\n      tag_485\n        /* \"#utility.yul\":15383:15387   */\n      dup2\n        /* \"#utility.yul\":15257:15388   */\n      tag_286\n      jump\t// in\n    tag_485:\n        /* \"#utility.yul\":15249:15388   */\n      swap1\n      pop\n        /* \"#utility.yul\":14976:15395   */\n      swap2\n      swap1\n      pop\n      jump\t// out\n        /* \"#utility.yul\":15401:15568   */\n    tag_287:\n        /* \"#utility.yul\":15541:15560   */\n      0x496e76616c6964206c617720696e646578000000000000000000000000000000\n        /* \"#utility.yul\":15537:15538   */\n      0x00\n        /* \"#utility.yul\":15529:15535   */\n      dup3\n        /* \"#utility.yul\":15525:15539   */\n      add\n        /* \"#utility.yul\":15518:15561   */\n      mstore\n        /* \"#utility.yul\":15401:15568   */\n      pop\n      jump\t// out\n        /* \"#utility.yul\":15574:15940   */\n    tag_288:\n        /* \"#utility.yul\":15716:15719   */\n      0x00\n        /* \"#utility.yul\":15737:15804   */\n      tag_488\n        /* \"#utility.yul\":15801:15803   */\n      0x11\n        /* \"#utility.yul\":15796:15799   */\n      dup4\n        /* \"#utility.yul\":15737:15804   */\n      tag_275\n      jump\t// in\n    tag_488:\n        /* \"#utility.yul\":15730:15804   */\n      swap2\n      pop\n        /* \"#utility.yul\":15813:15906   */\n      tag_489\n        /* \"#utility.yul\":15902:15905   */\n      dup3\n        /* \"#utility.yul\":15813:15906   */\n      tag_287\n      jump\t// in\n    tag_489:\n        /* \"#utility.yul\":15931:15933   */\n      0x20\n        /* \"#utility.yul\":15926:15929   */\n      dup3\n        /* \"#utility.yul\":15922:15934   */\n      add\n        /* \"#utility.yul\":15915:15934   */\n      swap1\n      pop\n        /* \"#utility.yul\":15574:15940   */\n      swap2\n      swap1\n      pop\n      jump\t// out\n        /* \"#utility.yul\":15946:16365   */\n    tag_139:\n        /* \"#utility.yul\":16112:16116   */\n      0x00\n        /* \"#utility.yul\":16150:16152   */\n      0x20\n        /* \"#utility.yul\":16139:16148   */\n      dup3\n        /* \"#utility.yul\":16135:16153   */\n      add\n        /* \"#utility.yul\":16127:16153   */\n      swap1\n      pop\n        /* \"#utility.yul\":16199:16208   */\n      dup2\n        /* \"#utility.yul\":16193:16197   */\n      dup2\n        /* \"#utility.yul\":16189:16209   */\n      sub\n        /* \"#utility.yul\":16185:16186   */\n      0x00\n        /* \"#utility.yul\":16174:16183   */\n      dup4\n        /* \"#utility.yul\":16170:16187   */\n      add\n        /* \"#utility.yul\":16163:16210   */\n      mstore\n        /* \"#utility.yul\":16227:16358   */\n      tag_491\n        /* \"#utility.yul\":16353:16357   */\n      dup2\n        /* \"#utility.yul\":16227:16358   */\n      tag_288\n      jump\t// in\n    tag_491:\n        /* \"#utility.yul\":16219:16358   */\n      swap1\n      pop\n        /* \"#utility.yul\":15946:16365   */\n      swap2\n      swap1\n      pop\n      jump\t// out\n        /* \"#utility.yul\":16371:16551   */\n    tag_142:\n        /* \"#utility.yul\":16419:16496   */\n      0x4e487b7100000000000000000000000000000000000000000000000000000000\n        /* \"#utility.yul\":16416:16417   */\n      0x00\n        /* \"#utility.yul\":16409:16497   */\n      mstore\n        /* \"#utility.yul\":16516:16520   */\n      0x32\n        /* \"#utility.yul\":16513:16514   */\n      0x04\n        /* \"#utility.yul\":16506:16521   */\n      mstore\n        /* \"#utility.yul\":16540:16544   */\n      0x24\n        /* \"#utility.yul\":16537:16538   */\n      0x00\n        /* \"#utility.yul\":16530:16545   */\n      revert\n        /* \"#utility.yul\":16557:16798   */\n    tag_289:\n        /* \"#utility.yul\":16697:16731   */\n      0x43616e6e6f74207265676973746572206173204c617720456e666f7263656d65\n        /* \"#utility.yul\":16693:16694   */\n      0x00\n        /* \"#utility.yul\":16685:16691   */\n      dup3\n        /* \"#utility.yul\":16681:16695   */\n      add\n        /* \"#utility.yul\":16674:16732   */\n      mstore\n        /* \"#utility.yul\":16766:16790   */\n      0x6e742c20416c7265616479207265676973746572656400000000000000000000\n        /* \"#utility.yul\":16761:16763   */\n      0x20\n        /* \"#utility.yul\":16753:16759   */\n      dup3\n        /* \"#utility.yul\":16749:16764   */\n      add\n        /* \"#utility.yul\":16742:16791   */\n      mstore\n        /* \"#utility.yul\":16557:16798   */\n      pop\n      jump\t// out\n        /* \"#utility.yul\":16804:17170   */\n    tag_290:\n        /* \"#utility.yul\":16946:16949   */\n      0x00\n        /* \"#utility.yul\":16967:17034   */\n      tag_495\n        /* \"#utility.yul\":17031:17033   */\n      0x36\n        /* \"#utility.yul\":17026:17029   */\n      dup4\n        /* \"#utility.yul\":16967:17034   */\n      tag_275\n      jump\t// in\n    tag_495:\n        /* \"#utility.yul\":16960:17034   */\n      swap2\n      pop\n        /* \"#utility.yul\":17043:17136   */\n      tag_496\n        /* \"#utility.yul\":17132:17135   */\n      dup3\n        /* \"#utility.yul\":17043:17136   */\n      tag_289\n      jump\t// in\n    tag_496:\n        /* \"#utility.yul\":17161:17163   */\n      0x40\n        /* \"#utility.yul\":17156:17159   */\n      dup3\n        /* \"#utility.yul\":17152:17164   */\n      add\n        /* \"#utility.yul\":17145:17164   */\n      swap1\n      pop\n        /* \"#utility.yul\":16804:17170   */\n      swap2\n      swap1\n      pop\n      jump\t// out\n        /* \"#utility.yul\":17176:17595   */\n    tag_147:\n        /* \"#utility.yul\":17342:17346   */\n      0x00\n        /* \"#utility.yul\":17380:17382   */\n      0x20\n        /* \"#utility.yul\":17369:17378   */\n      dup3\n        /* \"#utility.yul\":17365:17383   */\n      add\n        /* \"#utility.yul\":17357:17383   */\n      swap1\n      pop\n        /* \"#utility.yul\":17429:17438   */\n      dup2\n        /* \"#utility.yul\":17423:17427   */\n      dup2\n        /* \"#utility.yul\":17419:17439   */\n      sub\n        /* \"#utility.yul\":17415:17416   */\n      0x00\n        /* \"#utility.yul\":17404:17413   */\n      dup4\n        /* \"#utility.yul\":17400:17417   */\n      add\n        /* \"#utility.yul\":17393:17440   */\n      mstore\n        /* \"#utility.yul\":17457:17588   */\n      tag_498\n        /* \"#utility.yul\":17583:17587   */\n      dup2\n        /* \"#utility.yul\":17457:17588   */\n      tag_290\n      jump\t// in\n    tag_498:\n        /* \"#utility.yul\":17449:17588   */\n      swap1\n      pop\n        /* \"#utility.yul\":17176:17595   */\n      swap2\n      swap1\n      pop\n      jump\t// out\n        /* \"#utility.yul\":17601:17835   */\n    tag_291:\n        /* \"#utility.yul\":17741:17775   */\n      0x43616e6e6f7420726567697374657220617320436974697a656e2c20416c7265\n        /* \"#utility.yul\":17737:17738   */\n      0x00\n        /* \"#utility.yul\":17729:17735   */\n      dup3\n        /* \"#utility.yul\":17725:17739   */\n      add\n        /* \"#utility.yul\":17718:17776   */\n      mstore\n        /* \"#utility.yul\":17810:17827   */\n      0x61647920616e206f6666696369616c0000000000000000000000000000000000\n        /* \"#utility.yul\":17805:17807   */\n      0x20\n        /* \"#utility.yul\":17797:17803   */\n      dup3\n        /* \"#utility.yul\":17793:17808   */\n      add\n        /* \"#utility.yul\":17786:17828   */\n      mstore\n        /* \"#utility.yul\":17601:17835   */\n      pop\n      jump\t// out\n        /* \"#utility.yul\":17841:18207   */\n    tag_292:\n        /* \"#utility.yul\":17983:17986   */\n      0x00\n        /* \"#utility.yul\":18004:18071   */\n      tag_501\n        /* \"#utility.yul\":18068:18070   */\n      0x2f\n        /* \"#utility.yul\":18063:18066   */\n      dup4\n        /* \"#utility.yul\":18004:18071   */\n      tag_275\n      jump\t// in\n    tag_501:\n        /* \"#utility.yul\":17997:18071   */\n      swap2\n      pop\n        /* \"#utility.yul\":18080:18173   */\n      tag_502\n        /* \"#utility.yul\":18169:18172   */\n      dup3\n        /* \"#utility.yul\":18080:18173   */\n      tag_291\n      jump\t// in\n    tag_502:\n        /* \"#utility.yul\":18198:18200   */\n      0x40\n        /* \"#utility.yul\":18193:18196   */\n      dup3\n        /* \"#utility.yul\":18189:18201   */\n      add\n        /* \"#utility.yul\":18182:18201   */\n      swap1\n      pop\n        /* \"#utility.yul\":17841:18207   */\n      swap2\n      swap1\n      pop\n      jump\t// out\n        /* \"#utility.yul\":18213:18632   */\n    tag_155:\n        /* \"#utility.yul\":18379:18383   */\n      0x00\n        /* \"#utility.yul\":18417:18419   */\n      0x20\n        /* \"#utility.yul\":18406:18415   */\n      dup3\n        /* \"#utility.yul\":18402:18420   */\n      add\n        /* \"#utility.yul\":18394:18420   */\n      swap1\n      pop\n        /* \"#utility.yul\":18466:18475   */\n      dup2\n        /* \"#utility.yul\":18460:18464   */\n      dup2\n        /* \"#utility.yul\":18456:18476   */\n      sub\n        /* \"#utility.yul\":18452:18453   */\n      0x00\n        /* \"#utility.yul\":18441:18450   */\n      dup4\n        /* \"#utility.yul\":18437:18454   */\n      add\n        /* \"#utility.yul\":18430:18477   */\n      mstore\n        /* \"#utility.yul\":18494:18625   */\n      tag_504\n        /* \"#utility.yul\":18620:18624   */\n      dup2\n        /* \"#utility.yul\":18494:18625   */\n      tag_292\n      jump\t// in\n    tag_504:\n        /* \"#utility.yul\":18486:18625   */\n      swap1\n      pop\n        /* \"#utility.yul\":18213:18632   */\n      swap2\n      swap1\n      pop\n      jump\t// out\n        /* \"#utility.yul\":18638:18809   */\n    tag_293:\n        /* \"#utility.yul\":18778:18801   */\n      0x4f6666696369616c732063616e6e6f7420766f74650000000000000000000000\n        /* \"#utility.yul\":18774:18775   */\n      0x00\n        /* \"#utility.yul\":18766:18772   */\n      dup3\n        /* \"#utility.yul\":18762:18776   */\n      add\n        /* \"#utility.yul\":18755:18802   */\n      mstore\n        /* \"#utility.yul\":18638:18809   */\n      pop\n      jump\t// out\n        /* \"#utility.yul\":18815:19181   */\n    tag_294:\n        /* \"#utility.yul\":18957:18960   */\n      0x00\n        /* \"#utility.yul\":18978:19045   */\n      tag_507\n        /* \"#utility.yul\":19042:19044   */\n      0x15\n        /* \"#utility.yul\":19037:19040   */\n      dup4\n        /* \"#utility.yul\":18978:19045   */\n      tag_275\n      jump\t// in\n    tag_507:\n        /* \"#utility.yul\":18971:19045   */\n      swap2\n      pop\n        /* \"#utility.yul\":19054:19147   */\n      tag_508\n        /* \"#utility.yul\":19143:19146   */\n      dup3\n        /* \"#utility.yul\":19054:19147   */\n      tag_293\n      jump\t// in\n    tag_508:\n        /* \"#utility.yul\":19172:19174   */\n      0x20\n        /* \"#utility.yul\":19167:19170   */\n      dup3\n        /* \"#utility.yul\":19163:19175   */\n      add\n        /* \"#utility.yul\":19156:19175   */\n      swap1\n      pop\n        /* \"#utility.yul\":18815:19181   */\n      swap2\n      swap1\n      pop\n      jump\t// out\n        /* \"#utility.yul\":19187:19606   */\n    tag_161:\n        /* \"#utility.yul\":19353:19357   */\n      0x00\n        /* \"#utility.yul\":19391:19393   */\n      0x20\n        /* \"#utility.yul\":19380:19389   */\n      dup3\n        /* \"#utility.yul\":19376:19394   */\n      add\n        /* \"#utility.yul\":19368:19394   */\n      swap1\n      pop\n        /* \"#utility.yul\":19440:19449   */\n      dup2\n        /* \"#utility.yul\":19434:19438   */\n      dup2\n        /* \"#utility.yul\":19430:19450   */\n      sub\n        /* \"#utility.yul\":19426:19427   */\n      0x00\n        /* \"#utility.yul\":19415:19424   */\n      dup4\n        /* \"#utility.yul\":19411:19428   */\n      add\n        /* \"#utility.yul\":19404:19451   */\n      mstore\n        /* \"#utility.yul\":19468:19599   */\n      tag_510\n        /* \"#utility.yul\":19594:19598   */\n      dup2\n        /* \"#utility.yul\":19468:19599   */\n      tag_294\n      jump\t// in\n    tag_510:\n        /* \"#utility.yul\":19460:19599   */\n      swap1\n      pop\n        /* \"#utility.yul\":19187:19606   */\n      swap2\n      swap1\n      pop\n      jump\t// out\n        /* \"#utility.yul\":19612:19790   */\n    tag_295:\n        /* \"#utility.yul\":19752:19782   */\n      0x43616e646964617465206973206e6f7420616e206f6666696369616c00000000\n        /* \"#utility.yul\":19748:19749   */\n      0x00\n        /* \"#utility.yul\":19740:19746   */\n      dup3\n        /* \"#utility.yul\":19736:19750   */\n      add\n        /* \"#utility.yul\":19729:19783   */\n      mstore\n        /* \"#utility.yul\":19612:19790   */\n      pop\n      jump\t// out\n        /* \"#utility.yul\":19796:20162   */\n    tag_296:\n        /* \"#utility.yul\":19938:19941   */\n      0x00\n        /* \"#utility.yul\":19959:20026   */\n      tag_513\n        /* \"#utility.yul\":20023:20025   */\n      0x1c\n        /* \"#utility.yul\":20018:20021   */\n      dup4\n        /* \"#utility.yul\":19959:20026   */\n      tag_275\n      jump\t// in\n    tag_513:\n        /* \"#utility.yul\":19952:20026   */\n      swap2\n      pop\n        /* \"#utility.yul\":20035:20128   */\n      tag_514\n        /* \"#utility.yul\":20124:20127   */\n      dup3\n        /* \"#utility.yul\":20035:20128   */\n      tag_295\n      jump\t// in\n    tag_514:\n        /* \"#utility.yul\":20153:20155   */\n      0x20\n        /* \"#utility.yul\":20148:20151   */\n      dup3\n        /* \"#utility.yul\":20144:20156   */\n      add\n        /* \"#utility.yul\":20137:20156   */\n      swap1\n      pop\n        /* \"#utility.yul\":19796:20162   */\n      swap2\n      swap1\n      pop\n      jump\t// out\n        /* \"#utility.yul\":20168:20587   */\n    tag_164:\n        /* \"#utility.yul\":20334:20338   */\n      0x00\n        /* \"#utility.yul\":20372:20374   */\n      0x20\n        /* \"#utility.yul\":20361:20370   */\n      dup3\n        /* \"#utility.yul\":20357:20375   */\n      add\n        /* \"#utility.yul\":20349:20375   */\n      swap1\n      pop\n        /* \"#utility.yul\":20421:20430   */\n      dup2\n        /* \"#utility.yul\":20415:20419   */\n      dup2\n        /* \"#utility.yul\":20411:20431   */\n      sub\n        /* \"#utility.yul\":20407:20408   */\n      0x00\n        /* \"#utility.yul\":20396:20405   */\n      dup4\n        /* \"#utility.yul\":20392:20409   */\n      add\n        /* \"#utility.yul\":20385:20432   */\n      mstore\n        /* \"#utility.yul\":20449:20580   */\n      tag_516\n        /* \"#utility.yul\":20575:20579   */\n      dup2\n        /* \"#utility.yul\":20449:20580   */\n      tag_296\n      jump\t// in\n    tag_516:\n        /* \"#utility.yul\":20441:20580   */\n      swap1\n      pop\n        /* \"#utility.yul\":20168:20587   */\n      swap2\n      swap1\n      pop\n      jump\t// out\n        /* \"#utility.yul\":20593:20773   */\n    tag_297:\n        /* \"#utility.yul\":20641:20718   */\n      0x4e487b7100000000000000000000000000000000000000000000000000000000\n        /* \"#utility.yul\":20638:20639   */\n      0x00\n        /* \"#utility.yul\":20631:20719   */\n      mstore\n        /* \"#utility.yul\":20738:20742   */\n      0x22\n        /* \"#utility.yul\":20735:20736   */\n      0x04\n        /* \"#utility.yul\":20728:20743   */\n      mstore\n        /* \"#utility.yul\":20762:20766   */\n      0x24\n        /* \"#utility.yul\":20759:20760   */\n      0x00\n        /* \"#utility.yul\":20752:20767   */\n      revert\n        /* \"#utility.yul\":20779:21099   */\n    tag_166:\n        /* \"#utility.yul\":20823:20829   */\n      0x00\n        /* \"#utility.yul\":20860:20861   */\n      0x02\n        /* \"#utility.yul\":20854:20858   */\n      dup3\n        /* \"#utility.yul\":20850:20862   */\n      div\n        /* \"#utility.yul\":20840:20862   */\n      swap1\n      pop\n        /* \"#utility.yul\":20907:20908   */\n      0x01\n        /* \"#utility.yul\":20901:20905   */\n      dup3\n        /* \"#utility.yul\":20897:20909   */\n      and\n        /* \"#utility.yul\":20928:20946   */\n      dup1\n        /* \"#utility.yul\":20918:20999   */\n      tag_519\n      jumpi\n        /* \"#utility.yul\":20984:20988   */\n      0x7f\n        /* \"#utility.yul\":20976:20982   */\n      dup3\n        /* \"#utility.yul\":20972:20989   */\n      and\n        /* \"#utility.yul\":20962:20989   */\n      swap2\n      pop\n        /* \"#utility.yul\":20918:20999   */\n    tag_519:\n        /* \"#utility.yul\":21046:21048   */\n      0x20\n        /* \"#utility.yul\":21038:21044   */\n      dup3\n        /* \"#utility.yul\":21035:21049   */\n      lt\n        /* \"#utility.yul\":21015:21033   */\n      dup2\n        /* \"#utility.yul\":21012:21050   */\n      sub\n        /* \"#utility.yul\":21009:21093   */\n      tag_520\n      jumpi\n        /* \"#utility.yul\":21065:21083   */\n      tag_521\n      tag_297\n      jump\t// in\n    tag_521:\n        /* \"#utility.yul\":21009:21093   */\n    tag_520:\n        /* \"#utility.yul\":20830:21099   */\n      pop\n        /* \"#utility.yul\":20779:21099   */\n      swap2\n      swap1\n      pop\n      jump\t// out\n        /* \"#utility.yul\":21105:21332   */\n    tag_298:\n        /* \"#utility.yul\":21245:21279   */\n      0x4f6e6c7920746865206f776e65722063616e2064657374726f79207468697320\n        /* \"#utility.yul\":21241:21242   */\n      0x00\n        /* \"#utility.yul\":21233:21239   */\n      dup3\n        /* \"#utility.yul\":21229:21243   */\n      add\n        /* \"#utility.yul\":21222:21280   */\n      mstore\n        /* \"#utility.yul\":21314:21324   */\n      0x636f6e7472616374000000000000000000000000000000000000000000000000\n        /* \"#utility.yul\":21309:21311   */\n      0x20\n        /* \"#utility.yul\":21301:21307   */\n      dup3\n        /* \"#utility.yul\":21297:21312   */\n      add\n        /* \"#utility.yul\":21290:21325   */\n      mstore\n        /* \"#utility.yul\":21105:21332   */\n      pop\n      jump\t// out\n        /* \"#utility.yul\":21338:21704   */\n    tag_299:\n        /* \"#utility.yul\":21480:21483   */\n      0x00\n        /* \"#utility.yul\":21501:21568   */\n      tag_524\n        /* \"#utility.yul\":21565:21567   */\n      0x28\n        /* \"#utility.yul\":21560:21563   */\n      dup4\n        /* \"#utility.yul\":21501:21568   */\n      tag_275\n      jump\t// in\n    tag_524:\n        /* \"#utility.yul\":21494:21568   */\n      swap2\n      pop\n        /* \"#utility.yul\":21577:21670   */\n      tag_525\n        /* \"#utility.yul\":21666:21669   */\n      dup3\n        /* \"#utility.yul\":21577:21670   */\n      tag_298\n      jump\t// in\n    tag_525:\n        /* \"#utility.yul\":21695:21697   */\n      0x40\n        /* \"#utility.yul\":21690:21693   */\n      dup3\n        /* \"#utility.yul\":21686:21698   */\n      add\n        /* \"#utility.yul\":21679:21698   */\n      swap1\n      pop\n        /* \"#utility.yul\":21338:21704   */\n      swap2\n      swap1\n      pop\n      jump\t// out\n        /* \"#utility.yul\":21710:22129   */\n    tag_186:\n        /* \"#utility.yul\":21876:21880   */\n      0x00\n        /* \"#utility.yul\":21914:21916   */\n      0x20\n        /* \"#utility.yul\":21903:21912   */\n      dup3\n        /* \"#utility.yul\":21899:21917   */\n      add\n        /* \"#utility.yul\":21891:21917   */\n      swap1\n      pop\n        /* \"#utility.yul\":21963:21972   */\n      dup2\n        /* \"#utility.yul\":21957:21961   */\n      dup2\n        /* \"#utility.yul\":21953:21973   */\n      sub\n        /* \"#utility.yul\":21949:21950   */\n      0x00\n        /* \"#utility.yul\":21938:21947   */\n      dup4\n        /* \"#utility.yul\":21934:21951   */\n      add\n        /* \"#utility.yul\":21927:21974   */\n      mstore\n        /* \"#utility.yul\":21991:22122   */\n      tag_527\n        /* \"#utility.yul\":22117:22121   */\n      dup2\n        /* \"#utility.yul\":21991:22122   */\n      tag_299\n      jump\t// in\n    tag_527:\n        /* \"#utility.yul\":21983:22122   */\n      swap1\n      pop\n        /* \"#utility.yul\":21710:22129   */\n      swap2\n      swap1\n      pop\n      jump\t// out\n        /* \"#utility.yul\":22135:22317   */\n    tag_300:\n        /* \"#utility.yul\":22275:22309   */\n      0x4f6e6c7920746865206f776e65722063616e207265766f6b6520616363657373\n        /* \"#utility.yul\":22271:22272   */\n      0x00\n        /* \"#utility.yul\":22263:22269   */\n      dup3\n        /* \"#utility.yul\":22259:22273   */\n      add\n        /* \"#utility.yul\":22252:22310   */\n      mstore\n        /* \"#utility.yul\":22135:22317   */\n      pop\n      jump\t// out\n        /* \"#utility.yul\":22323:22689   */\n    tag_301:\n        /* \"#utility.yul\":22465:22468   */\n      0x00\n        /* \"#utility.yul\":22486:22553   */\n      tag_530\n        /* \"#utility.yul\":22550:22552   */\n      0x20\n        /* \"#utility.yul\":22545:22548   */\n      dup4\n        /* \"#utility.yul\":22486:22553   */\n      tag_275\n      jump\t// in\n    tag_530:\n        /* \"#utility.yul\":22479:22553   */\n      swap2\n      pop\n        /* \"#utility.yul\":22562:22655   */\n      tag_531\n        /* \"#utility.yul\":22651:22654   */\n      dup3\n        /* \"#utility.yul\":22562:22655   */\n      tag_300\n      jump\t// in\n    tag_531:\n        /* \"#utility.yul\":22680:22682   */\n      0x20\n        /* \"#utility.yul\":22675:22678   */\n      dup3\n        /* \"#utility.yul\":22671:22683   */\n      add\n        /* \"#utility.yul\":22664:22683   */\n      swap1\n      pop\n        /* \"#utility.yul\":22323:22689   */\n      swap2\n      swap1\n      pop\n      jump\t// out\n        /* \"#utility.yul\":22695:23114   */\n    tag_190:\n        /* \"#utility.yul\":22861:22865   */\n      0x00\n        /* \"#utility.yul\":22899:22901   */\n      0x20\n        /* \"#utility.yul\":22888:22897   */\n      dup3\n        /* \"#utility.yul\":22884:22902   */\n      add\n        /* \"#utility.yul\":22876:22902   */\n      swap1\n      pop\n        /* \"#utility.yul\":22948:22957   */\n      dup2\n        /* \"#utility.yul\":22942:22946   */\n      dup2\n        /* \"#utility.yul\":22938:22958   */\n      sub\n        /* \"#utility.yul\":22934:22935   */\n      0x00\n        /* \"#utility.yul\":22923:22932   */\n      dup4\n        /* \"#utility.yul\":22919:22936   */\n      add\n        /* \"#utility.yul\":22912:22959   */\n      mstore\n        /* \"#utility.yul\":22976:23107   */\n      tag_533\n        /* \"#utility.yul\":23102:23106   */\n      dup2\n        /* \"#utility.yul\":22976:23107   */\n      tag_301\n      jump\t// in\n    tag_533:\n        /* \"#utility.yul\":22968:23107   */\n      swap1\n      pop\n        /* \"#utility.yul\":22695:23114   */\n      swap2\n      swap1\n      pop\n      jump\t// out\n        /* \"#utility.yul\":23120:23349   */\n    tag_302:\n        /* \"#utility.yul\":23260:23294   */\n      0x43616e6e6f74207265766f6b652061636365737320666f722074686520637572\n        /* \"#utility.yul\":23256:23257   */\n      0x00\n        /* \"#utility.yul\":23248:23254   */\n      dup3\n        /* \"#utility.yul\":23244:23258   */\n      add\n        /* \"#utility.yul\":23237:23295   */\n      mstore\n        /* \"#utility.yul\":23329:23341   */\n      0x72656e74206f776e657200000000000000000000000000000000000000000000\n        /* \"#utility.yul\":23324:23326   */\n      0x20\n        /* \"#utility.yul\":23316:23322   */\n      dup3\n        /* \"#utility.yul\":23312:23327   */\n      add\n        /* \"#utility.yul\":23305:23342   */\n      mstore\n        /* \"#utility.yul\":23120:23349   */\n      pop\n      jump\t// out\n        /* \"#utility.yul\":23355:23721   */\n    tag_303:\n        /* \"#utility.yul\":23497:23500   */\n      0x00\n        /* \"#utility.yul\":23518:23585   */\n      tag_536\n        /* \"#utility.yul\":23582:23584   */\n      0x2a\n        /* \"#utility.yul\":23577:23580   */\n      dup4\n        /* \"#utility.yul\":23518:23585   */\n      tag_275\n      jump\t// in\n    tag_536:\n        /* \"#utility.yul\":23511:23585   */\n      swap2\n      pop\n        /* \"#utility.yul\":23594:23687   */\n      tag_537\n        /* \"#utility.yul\":23683:23686   */\n      dup3\n        /* \"#utility.yul\":23594:23687   */\n      tag_302\n      jump\t// in\n    tag_537:\n        /* \"#utility.yul\":23712:23714   */\n      0x40\n        /* \"#utility.yul\":23707:23710   */\n      dup3\n        /* \"#utility.yul\":23703:23715   */\n      add\n        /* \"#utility.yul\":23696:23715   */\n      swap1\n      pop\n        /* \"#utility.yul\":23355:23721   */\n      swap2\n      swap1\n      pop\n      jump\t// out\n        /* \"#utility.yul\":23727:24146   */\n    tag_193:\n        /* \"#utility.yul\":23893:23897   */\n      0x00\n        /* \"#utility.yul\":23931:23933   */\n      0x20\n        /* \"#utility.yul\":23920:23929   */\n      dup3\n        /* \"#utility.yul\":23916:23934   */\n      add\n        /* \"#utility.yul\":23908:23934   */\n      swap1\n      pop\n        /* \"#utility.yul\":23980:23989   */\n      dup2\n        /* \"#utility.yul\":23974:23978   */\n      dup2\n        /* \"#utility.yul\":23970:23990   */\n      sub\n        /* \"#utility.yul\":23966:23967   */\n      0x00\n        /* \"#utility.yul\":23955:23964   */\n      dup4\n        /* \"#utility.yul\":23951:23968   */\n      add\n        /* \"#utility.yul\":23944:23991   */\n      mstore\n        /* \"#utility.yul\":24008:24139   */\n      tag_539\n        /* \"#utility.yul\":24134:24138   */\n      dup2\n        /* \"#utility.yul\":24008:24139   */\n      tag_303\n      jump\t// in\n    tag_539:\n        /* \"#utility.yul\":24000:24139   */\n      swap1\n      pop\n        /* \"#utility.yul\":23727:24146   */\n      swap2\n      swap1\n      pop\n      jump\t// out\n        /* \"#utility.yul\":24152:24389   */\n    tag_304:\n        /* \"#utility.yul\":24292:24326   */\n      0x4f6e6c79204f6666696369616c732063616e2061737369676e20656d706c6f79\n        /* \"#utility.yul\":24288:24289   */\n      0x00\n        /* \"#utility.yul\":24280:24286   */\n      dup3\n        /* \"#utility.yul\":24276:24290   */\n      add\n        /* \"#utility.yul\":24269:24327   */\n      mstore\n        /* \"#utility.yul\":24361:24381   */\n      0x65657320746f206465706172746d656e74730000000000000000000000000000\n        /* \"#utility.yul\":24356:24358   */\n      0x20\n        /* \"#utility.yul\":24348:24354   */\n      dup3\n        /* \"#utility.yul\":24344:24359   */\n      add\n        /* \"#utility.yul\":24337:24382   */\n      mstore\n        /* \"#utility.yul\":24152:24389   */\n      pop\n      jump\t// out\n        /* \"#utility.yul\":24395:24761   */\n    tag_305:\n        /* \"#utility.yul\":24537:24540   */\n      0x00\n        /* \"#utility.yul\":24558:24625   */\n      tag_542\n        /* \"#utility.yul\":24622:24624   */\n      0x32\n        /* \"#utility.yul\":24617:24620   */\n      dup4\n        /* \"#utility.yul\":24558:24625   */\n      tag_275\n      jump\t// in\n    tag_542:\n        /* \"#utility.yul\":24551:24625   */\n      swap2\n      pop\n        /* \"#utility.yul\":24634:24727   */\n      tag_543\n        /* \"#utility.yul\":24723:24726   */\n      dup3\n        /* \"#utility.yul\":24634:24727   */\n      tag_304\n      jump\t// in\n    tag_543:\n        /* \"#utility.yul\":24752:24754   */\n      0x40\n        /* \"#utility.yul\":24747:24750   */\n      dup3\n        /* \"#utility.yul\":24743:24755   */\n      add\n        /* \"#utility.yul\":24736:24755   */\n      swap1\n      pop\n        /* \"#utility.yul\":24395:24761   */\n      swap2\n      swap1\n      pop\n      jump\t// out\n        /* \"#utility.yul\":24767:25186   */\n    tag_201:\n        /* \"#utility.yul\":24933:24937   */\n      0x00\n        /* \"#utility.yul\":24971:24973   */\n      0x20\n        /* \"#utility.yul\":24960:24969   */\n      dup3\n        /* \"#utility.yul\":24956:24974   */\n      add\n        /* \"#utility.yul\":24948:24974   */\n      swap1\n      pop\n        /* \"#utility.yul\":25020:25029   */\n      dup2\n        /* \"#utility.yul\":25014:25018   */\n      dup2\n        /* \"#utility.yul\":25010:25030   */\n      sub\n        /* \"#utility.yul\":25006:25007   */\n      0x00\n        /* \"#utility.yul\":24995:25004   */\n      dup4\n        /* \"#utility.yul\":24991:25008   */\n      add\n        /* \"#utility.yul\":24984:25031   */\n      mstore\n        /* \"#utility.yul\":25048:25179   */\n      tag_545\n        /* \"#utility.yul\":25174:25178   */\n      dup2\n        /* \"#utility.yul\":25048:25179   */\n      tag_305\n      jump\t// in\n    tag_545:\n        /* \"#utility.yul\":25040:25179   */\n      swap1\n      pop\n        /* \"#utility.yul\":24767:25186   */\n      swap2\n      swap1\n      pop\n      jump\t// out\n        /* \"#utility.yul\":25192:25370   */\n    tag_306:\n        /* \"#utility.yul\":25332:25362   */\n      0x456d706c6f796565206d75737420626520616e206f6666696369616c00000000\n        /* \"#utility.yul\":25328:25329   */\n      0x00\n        /* \"#utility.yul\":25320:25326   */\n      dup3\n        /* \"#utility.yul\":25316:25330   */\n      add\n        /* \"#utility.yul\":25309:25363   */\n      mstore\n        /* \"#utility.yul\":25192:25370   */\n      pop\n      jump\t// out\n        /* \"#utility.yul\":25376:25742   */\n    tag_307:\n        /* \"#utility.yul\":25518:25521   */\n      0x00\n        /* \"#utility.yul\":25539:25606   */\n      tag_548\n        /* \"#utility.yul\":25603:25605   */\n      0x1c\n        /* \"#utility.yul\":25598:25601   */\n      dup4\n        /* \"#utility.yul\":25539:25606   */\n      tag_275\n      jump\t// in\n    tag_548:\n        /* \"#utility.yul\":25532:25606   */\n      swap2\n      pop\n        /* \"#utility.yul\":25615:25708   */\n      tag_549\n        /* \"#utility.yul\":25704:25707   */\n      dup3\n        /* \"#utility.yul\":25615:25708   */\n      tag_306\n      jump\t// in\n    tag_549:\n        /* \"#utility.yul\":25733:25735   */\n      0x20\n        /* \"#utility.yul\":25728:25731   */\n      dup3\n        /* \"#utility.yul\":25724:25736   */\n      add\n        /* \"#utility.yul\":25717:25736   */\n      swap1\n      pop\n        /* \"#utility.yul\":25376:25742   */\n      swap2\n      swap1\n      pop\n      jump\t// out\n        /* \"#utility.yul\":25748:26167   */\n    tag_204:\n        /* \"#utility.yul\":25914:25918   */\n      0x00\n        /* \"#utility.yul\":25952:25954   */\n      0x20\n        /* \"#utility.yul\":25941:25950   */\n      dup3\n        /* \"#utility.yul\":25937:25955   */\n      add\n        /* \"#utility.yul\":25929:25955   */\n      swap1\n      pop\n        /* \"#utility.yul\":26001:26010   */\n      dup2\n        /* \"#utility.yul\":25995:25999   */\n      dup2\n        /* \"#utility.yul\":25991:26011   */\n      sub\n        /* \"#utility.yul\":25987:25988   */\n      0x00\n        /* \"#utility.yul\":25976:25985   */\n      dup4\n        /* \"#utility.yul\":25972:25989   */\n      add\n        /* \"#utility.yul\":25965:26012   */\n      mstore\n        /* \"#utility.yul\":26029:26160   */\n      tag_551\n        /* \"#utility.yul\":26155:26159   */\n      dup2\n        /* \"#utility.yul\":26029:26160   */\n      tag_307\n      jump\t// in\n    tag_551:\n        /* \"#utility.yul\":26021:26160   */\n      swap1\n      pop\n        /* \"#utility.yul\":25748:26167   */\n      swap2\n      swap1\n      pop\n      jump\t// out\n        /* \"#utility.yul\":26173:26353   */\n    tag_308:\n        /* \"#utility.yul\":26313:26345   */\n      0x496e73756666696369656e74206465706172746d656e74206275646765740000\n        /* \"#utility.yul\":26309:26310   */\n      0x00\n        /* \"#utility.yul\":26301:26307   */\n      dup3\n        /* \"#utility.yul\":26297:26311   */\n      add\n        /* \"#utility.yul\":26290:26346   */\n      mstore\n        /* \"#utility.yul\":26173:26353   */\n      pop\n      jump\t// out\n        /* \"#utility.yul\":26359:26725   */\n    tag_309:\n        /* \"#utility.yul\":26501:26504   */\n      0x00\n        /* \"#utility.yul\":26522:26589   */\n      tag_554\n        /* \"#utility.yul\":26586:26588   */\n      0x1e\n        /* \"#utility.yul\":26581:26584   */\n      dup4\n        /* \"#utility.yul\":26522:26589   */\n      tag_275\n      jump\t// in\n    tag_554:\n        /* \"#utility.yul\":26515:26589   */\n      swap2\n      pop\n        /* \"#utility.yul\":26598:26691   */\n      tag_555\n        /* \"#utility.yul\":26687:26690   */\n      dup3\n        /* \"#utility.yul\":26598:26691   */\n      tag_308\n      jump\t// in\n    tag_555:\n        /* \"#utility.yul\":26716:26718   */\n      0x20\n        /* \"#utility.yul\":26711:26714   */\n      dup3\n        /* \"#utility.yul\":26707:26719   */\n      add\n        /* \"#utility.yul\":26700:26719   */\n      swap1\n      pop\n        /* \"#utility.yul\":26359:26725   */\n      swap2\n      swap1\n      pop\n      jump\t// out\n        /* \"#utility.yul\":26731:27150   */\n    tag_207:\n        /* \"#utility.yul\":26897:26901   */\n      0x00\n        /* \"#utility.yul\":26935:26937   */\n      0x20\n        /* \"#utility.yul\":26924:26933   */\n      dup3\n        /* \"#utility.yul\":26920:26938   */\n      add\n        /* \"#utility.yul\":26912:26938   */\n      swap1\n      pop\n        /* \"#utility.yul\":26984:26993   */\n      dup2\n        /* \"#utility.yul\":26978:26982   */\n      dup2\n        /* \"#utility.yul\":26974:26994   */\n      sub\n        /* \"#utility.yul\":26970:26971   */\n      0x00\n        /* \"#utility.yul\":26959:26968   */\n      dup4\n        /* \"#utility.yul\":26955:26972   */\n      add\n        /* \"#utility.yul\":26948:26995   */\n      mstore\n        /* \"#utility.yul\":27012:27143   */\n      tag_557\n        /* \"#utility.yul\":27138:27142   */\n      dup2\n        /* \"#utility.yul\":27012:27143   */\n      tag_309\n      jump\t// in\n    tag_557:\n        /* \"#utility.yul\":27004:27143   */\n      swap1\n      pop\n        /* \"#utility.yul\":26731:27150   */\n      swap2\n      swap1\n      pop\n      jump\t// out\n        /* \"#utility.yul\":27156:27297   */\n    tag_310:\n        /* \"#utility.yul\":27205:27209   */\n      0x00\n        /* \"#utility.yul\":27228:27231   */\n      dup2\n        /* \"#utility.yul\":27220:27231   */\n      swap1\n      pop\n        /* \"#utility.yul\":27251:27254   */\n      dup2\n        /* \"#utility.yul\":27248:27249   */\n      0x00\n        /* \"#utility.yul\":27241:27255   */\n      mstore\n        /* \"#utility.yul\":27285:27289   */\n      0x20\n        /* \"#utility.yul\":27282:27283   */\n      0x00\n        /* \"#utility.yul\":27272:27290   */\n      keccak256\n        /* \"#utility.yul\":27264:27290   */\n      swap1\n      pop\n        /* \"#utility.yul\":27156:27297   */\n      swap2\n      swap1\n      pop\n      jump\t// out\n        /* \"#utility.yul\":27303:27396   */\n    tag_311:\n        /* \"#utility.yul\":27340:27346   */\n      0x00\n        /* \"#utility.yul\":27387:27389   */\n      0x20\n        /* \"#utility.yul\":27382:27384   */\n      0x1f\n        /* \"#utility.yul\":27375:27380   */\n      dup4\n        /* \"#utility.yul\":27371:27385   */\n      add\n        /* \"#utility.yul\":27367:27390   */\n      div\n        /* \"#utility.yul\":27357:27390   */\n      swap1\n      pop\n        /* \"#utility.yul\":27303:27396   */\n      swap2\n      swap1\n      pop\n      jump\t// out\n        /* \"#utility.yul\":27402:27509   */\n    tag_312:\n        /* \"#utility.yul\":27446:27454   */\n      0x00\n        /* \"#utility.yul\":27496:27501   */\n      dup3\n        /* \"#utility.yul\":27490:27494   */\n      dup3\n        /* \"#utility.yul\":27486:27502   */\n      shl\n        /* \"#utility.yul\":27465:27502   */\n      swap1\n      pop\n        /* \"#utility.yul\":27402:27509   */\n      swap3\n      swap2\n      pop\n      pop\n      jump\t// out\n        /* \"#utility.yul\":27515:27908   */\n    tag_313:\n        /* \"#utility.yul\":27584:27590   */\n      0x00\n        /* \"#utility.yul\":27634:27635   */\n      0x08\n        /* \"#utility.yul\":27622:27632   */\n      dup4\n        /* \"#utility.yul\":27618:27636   */\n      mul\n        /* \"#utility.yul\":27657:27754   */\n      tag_562\n        /* \"#utility.yul\":27687:27753   */\n      0xffffffffffffffffffffffffffffffffffffffffffffffffffffffffffffffff\n        /* \"#utility.yul\":27676:27685   */\n      dup3\n        /* \"#utility.yul\":27657:27754   */\n      tag_312\n      jump\t// in\n    tag_562:\n        /* \"#utility.yul\":27775:27814   */\n      tag_563\n        /* \"#utility.yul\":27805:27813   */\n      dup7\n        /* \"#utility.yul\":27794:27803   */\n      dup4\n        /* \"#utility.yul\":27775:27814   */\n      tag_312\n      jump\t// in\n    tag_563:\n        /* \"#utility.yul\":27763:27814   */\n      swap6\n      pop\n        /* \"#utility.yul\":27847:27851   */\n      dup1\n        /* \"#utility.yul\":27843:27852   */\n      not\n        /* \"#utility.yul\":27836:27841   */\n      dup5\n        /* \"#utility.yul\":27832:27853   */\n      and\n        /* \"#utility.yul\":27823:27853   */\n      swap4\n      pop\n        /* \"#utility.yul\":27896:27900   */\n      dup1\n        /* \"#utility.yul\":27886:27894   */\n      dup7\n        /* \"#utility.yul\":27882:27901   */\n      and\n        /* \"#utility.yul\":27875:27880   */\n      dup5\n        /* \"#utility.yul\":27872:27902   */\n      or\n        /* \"#utility.yul\":27862:27902   */\n      swap3\n      pop\n        /* \"#utility.yul\":27591:27908   */\n      pop\n      pop\n        /* \"#utility.yul\":27515:27908   */\n      swap4\n      swap3\n      pop\n      pop\n      pop\n      jump\t// out\n        /* \"#utility.yul\":27914:27974   */\n    tag_314:\n        /* \"#utility.yul\":27942:27945   */\n      0x00\n        /* \"#utility.yul\":27963:27968   */\n      dup2\n        /* \"#utility.yul\":27956:27968   */\n      swap1\n      pop\n        /* \"#utility.yul\":27914:27974   */\n      swap2\n      swap1\n      pop\n      jump\t// out\n        /* \"#utility.yul\":27980:28122   */\n    tag_315:\n        /* \"#utility.yul\":28030:28039   */\n      0x00\n        /* \"#utility.yul\":28063:28116   */\n      tag_566\n        /* \"#utility.yul\":28081:28115   */\n      tag_567\n        /* \"#utility.yul\":28090:28114   */\n      tag_568\n        /* \"#utility.yul\":28108:28113   */\n      dup5\n        /* \"#utility.yul\":28090:28114   */\n      tag_246\n      jump\t// in\n    tag_568:\n        /* \"#utility.yul\":28081:28115   */\n      tag_314\n      jump\t// in\n    tag_567:\n        /* \"#utility.yul\":28063:28116   */\n      tag_246\n      jump\t// in\n    tag_566:\n        /* \"#utility.yul\":28050:28116   */\n      swap1\n      pop\n        /* \"#utility.yul\":27980:28122   */\n      swap2\n      swap1\n      pop\n      jump\t// out\n        /* \"#utility.yul\":28128:28203   */\n    tag_316:\n        /* \"#utility.yul\":28171:28174   */\n      0x00\n        /* \"#utility.yul\":28192:28197   */\n      dup2\n        /* \"#utility.yul\":28185:28197   */\n      swap1\n      pop\n        /* \"#utility.yul\":28128:28203   */\n      swap2\n      swap1\n      pop\n      jump\t// out\n        /* \"#utility.yul\":28209:28478   */\n    tag_317:\n        /* \"#utility.yul\":28319:28358   */\n      tag_571\n        /* \"#utility.yul\":28350:28357   */\n      dup4\n        /* \"#utility.yul\":28319:28358   */\n      tag_315\n      jump\t// in\n    tag_571:\n        /* \"#utility.yul\":28380:28471   */\n      tag_572\n        /* \"#utility.yul\":28429:28470   */\n      tag_573\n        /* \"#utility.yul\":28453:28469   */\n      dup3\n        /* \"#utility.yul\":28429:28470   */\n      tag_316\n      jump\t// in\n    tag_573:\n        /* \"#utility.yul\":28421:28427   */\n      dup5\n        /* \"#utility.yul\":28414:28418   */\n      dup5\n        /* \"#utility.yul\":28408:28419   */\n      sload\n        /* \"#utility.yul\":28380:28471   */\n      tag_313\n      jump\t// in\n    tag_572:\n        /* \"#utility.yul\":28374:28378   */\n      dup3\n        /* \"#utility.yul\":28367:28472   */\n      sstore\n        /* \"#utility.yul\":28285:28478   */\n      pop\n        /* \"#utility.yul\":28209:28478   */\n      pop\n      pop\n      pop\n      jump\t// out\n        /* \"#utility.yul\":28484:28557   */\n    tag_318:\n        /* \"#utility.yul\":28529:28532   */\n      0x00\n        /* \"#utility.yul\":28484:28557   */\n      swap1\n      jump\t// out\n        /* \"#utility.yul\":28563:28752   */\n    tag_319:\n        /* \"#utility.yul\":28640:28672   */\n      tag_576\n      tag_318\n      jump\t// in\n    tag_576:\n        /* \"#utility.yul\":28681:28746   */\n      tag_577\n        /* \"#utility.yul\":28739:28745   */\n      dup2\n        /* \"#utility.yul\":28731:28737   */\n      dup5\n        /* \"#utility.yul\":28725:28729   */\n      dup5\n        /* \"#utility.yul\":28681:28746   */\n      tag_317\n      jump\t// in\n    tag_577:\n        /* \"#utility.yul\":28616:28752   */\n      pop\n        /* \"#utility.yul\":28563:28752   */\n      pop\n      pop\n      jump\t// out\n        /* \"#utility.yul\":28758:28944   */\n    tag_320:\n        /* \"#utility.yul\":28818:28938   */\n    tag_579:\n        /* \"#utility.yul\":28835:28838   */\n      dup2\n        /* \"#utility.yul\":28828:28833   */\n      dup2\n        /* \"#utility.yul\":28825:28839   */\n      lt\n        /* \"#utility.yul\":28818:28938   */\n      iszero\n      tag_581\n      jumpi\n        /* \"#utility.yul\":28889:28928   */\n      tag_582\n        /* \"#utility.yul\":28926:28927   */\n      0x00\n        /* \"#utility.yul\":28919:28924   */\n      dup3\n        /* \"#utility.yul\":28889:28928   */\n      tag_319\n      jump\t// in\n    tag_582:\n        /* \"#utility.yul\":28862:28863   */\n      0x01\n        /* \"#utility.yul\":28855:28860   */\n      dup2\n        /* \"#utility.yul\":28851:28864   */\n      add\n        /* \"#utility.yul\":28842:28864   */\n      swap1\n      pop\n        /* \"#utility.yul\":28818:28938   */\n      jump(tag_579)\n    tag_581:\n        /* \"#utility.yul\":28758:28944   */\n      pop\n      pop\n      jump\t// out\n        /* \"#utility.yul\":28950:29493   */\n    tag_321:\n        /* \"#utility.yul\":29051:29053   */\n      0x1f\n        /* \"#utility.yul\":29046:29049   */\n      dup3\n        /* \"#utility.yul\":29043:29054   */\n      gt\n        /* \"#utility.yul\":29040:29486   */\n      iszero\n      tag_584\n      jumpi\n        /* \"#utility.yul\":29085:29123   */\n      tag_585\n        /* \"#utility.yul\":29117:29122   */\n      dup2\n        /* \"#utility.yul\":29085:29123   */\n      tag_310\n      jump\t// in\n    tag_585:\n        /* \"#utility.yul\":29169:29198   */\n      tag_586\n        /* \"#utility.yul\":29187:29197   */\n      dup5\n        /* \"#utility.yul\":29169:29198   */\n      tag_311\n      jump\t// in\n    tag_586:\n        /* \"#utility.yul\":29159:29167   */\n      dup2\n        /* \"#utility.yul\":29155:29199   */\n      add\n        /* \"#utility.yul\":29352:29354   */\n      0x20\n        /* \"#utility.yul\":29340:29350   */\n      dup6\n        /* \"#utility.yul\":29337:29355   */\n      lt\n        /* \"#utility.yul\":29334:29383   */\n      iszero\n      tag_587\n      jumpi\n        /* \"#utility.yul\":29373:29381   */\n      dup2\n        /* \"#utility.yul\":29358:29381   */\n      swap1\n      pop\n        /* \"#utility.yul\":29334:29383   */\n    tag_587:\n        /* \"#utility.yul\":29396:29476   */\n      tag_588\n        /* \"#utility.yul\":29452:29474   */\n      tag_589\n        /* \"#utility.yul\":29470:29473   */\n      dup6\n        /* \"#utility.yul\":29452:29474   */\n      tag_311\n      jump\t// in\n    tag_589:\n        /* \"#utility.yul\":29442:29450   */\n      dup4\n        /* \"#utility.yul\":29438:29475   */\n      add\n        /* \"#utility.yul\":29425:29436   */\n      dup3\n        /* \"#utility.yul\":29396:29476   */\n      tag_320\n      jump\t// in\n    tag_588:\n        /* \"#utility.yul\":29055:29486   */\n      pop\n      pop\n        /* \"#utility.yul\":29040:29486   */\n    tag_584:\n        /* \"#utility.yul\":28950:29493   */\n      pop\n      pop\n      pop\n      jump\t// out\n        /* \"#utility.yul\":29499:29616   */\n    tag_322:\n        /* \"#utility.yul\":29553:29561   */\n      0x00\n        /* \"#utility.yul\":29603:29608   */\n      dup3\n        /* \"#utility.yul\":29597:29601   */\n      dup3\n        /* \"#utility.yul\":29593:29609   */\n      shr\n        /* \"#utility.yul\":29572:29609   */\n      swap1\n      pop\n        /* \"#utility.yul\":29499:29616   */\n      swap3\n      swap2\n      pop\n      pop\n      jump\t// out\n        /* \"#utility.yul\":29622:29791   */\n    tag_323:\n        /* \"#utility.yul\":29666:29672   */\n      0x00\n        /* \"#utility.yul\":29699:29750   */\n      tag_592\n        /* \"#utility.yul\":29747:29748   */\n      0x00\n        /* \"#utility.yul\":29743:29749   */\n      not\n        /* \"#utility.yul\":29735:29740   */\n      dup5\n        /* \"#utility.yul\":29732:29733   */\n      0x08\n        /* \"#utility.yul\":29728:29741   */\n      mul\n        /* \"#utility.yul\":29699:29750   */\n      tag_322\n      jump\t// in\n    tag_592:\n        /* \"#utility.yul\":29695:29751   */\n      not\n        /* \"#utility.yul\":29780:29784   */\n      dup1\n        /* \"#utility.yul\":29774:29778   */\n      dup4\n        /* \"#utility.yul\":29770:29785   */\n      and\n        /* \"#utility.yul\":29760:29785   */\n      swap2\n      pop\n        /* \"#utility.yul\":29673:29791   */\n      pop\n        /* \"#utility.yul\":29622:29791   */\n      swap3\n      swap2\n      pop\n      pop\n      jump\t// out\n        /* \"#utility.yul\":29796:30091   */\n    tag_324:\n        /* \"#utility.yul\":29872:29876   */\n      0x00\n        /* \"#utility.yul\":30018:30047   */\n      tag_594\n        /* \"#utility.yul\":30043:30046   */\n      dup4\n        /* \"#utility.yul\":30037:30041   */\n      dup4\n        /* \"#utility.yul\":30018:30047   */\n      tag_323\n      jump\t// in\n    tag_594:\n        /* \"#utility.yul\":30010:30047   */\n      swap2\n      pop\n        /* \"#utility.yul\":30080:30083   */\n      dup3\n        /* \"#utility.yul\":30077:30078   */\n      0x02\n        /* \"#utility.yul\":30073:30084   */\n      mul\n        /* \"#utility.yul\":30067:30071   */\n      dup3\n        /* \"#utility.yul\":30064:30085   */\n      or\n        /* \"#utility.yul\":30056:30085   */\n      swap1\n      pop\n        /* \"#utility.yul\":29796:30091   */\n      swap3\n      swap2\n      pop\n      pop\n      jump\t// out\n        /* \"#utility.yul\":30096:31491   */\n    tag_213:\n        /* \"#utility.yul\":30213:30250   */\n      tag_596\n        /* \"#utility.yul\":30246:30249   */\n      dup3\n        /* \"#utility.yul\":30213:30250   */\n      tag_274\n      jump\t// in\n    tag_596:\n        /* \"#utility.yul\":30315:30333   */\n      0xffffffffffffffff\n        /* \"#utility.yul\":30307:30313   */\n      dup2\n        /* \"#utility.yul\":30304:30334   */\n      gt\n        /* \"#utility.yul\":30301:30357   */\n      iszero\n      tag_597\n      jumpi\n        /* \"#utility.yul\":30337:30355   */\n      tag_598\n      tag_210\n      jump\t// in\n    tag_598:\n        /* \"#utility.yul\":30301:30357   */\n    tag_597:\n        /* \"#utility.yul\":30381:30419   */\n      tag_599\n        /* \"#utility.yul\":30413:30417   */\n      dup3\n        /* \"#utility.yul\":30407:30418   */\n      sload\n        /* \"#utility.yul\":30381:30419   */\n      tag_166\n      jump\t// in\n    tag_599:\n        /* \"#utility.yul\":30466:30533   */\n      tag_600\n        /* \"#utility.yul\":30526:30532   */\n      dup3\n        /* \"#utility.yul\":30518:30524   */\n      dup3\n        /* \"#utility.yul\":30512:30516   */\n      dup6\n        /* \"#utility.yul\":30466:30533   */\n      tag_321\n      jump\t// in\n    tag_600:\n        /* \"#utility.yul\":30560:30561   */\n      0x00\n        /* \"#utility.yul\":30584:30588   */\n      0x20\n        /* \"#utility.yul\":30571:30588   */\n      swap1\n      pop\n        /* \"#utility.yul\":30616:30618   */\n      0x1f\n        /* \"#utility.yul\":30608:30614   */\n      dup4\n        /* \"#utility.yul\":30605:30619   */\n      gt\n        /* \"#utility.yul\":30633:30634   */\n      0x01\n        /* \"#utility.yul\":30628:31246   */\n      dup2\n      eq\n      tag_602\n      jumpi\n        /* \"#utility.yul\":31290:31291   */\n      0x00\n        /* \"#utility.yul\":31307:31313   */\n      dup5\n        /* \"#utility.yul\":31304:31381   */\n      iszero\n      tag_603\n      jumpi\n        /* \"#utility.yul\":31356:31365   */\n      dup3\n        /* \"#utility.yul\":31351:31354   */\n      dup8\n        /* \"#utility.yul\":31347:31366   */\n      add\n        /* \"#utility.yul\":31341:31367   */\n      mload\n        /* \"#utility.yul\":31332:31367   */\n      swap1\n      pop\n        /* \"#utility.yul\":31304:31381   */\n    tag_603:\n        /* \"#utility.yul\":31407:31474   */\n      tag_604\n        /* \"#utility.yul\":31467:31473   */\n      dup6\n        /* \"#utility.yul\":31460:31465   */\n      dup3\n        /* \"#utility.yul\":31407:31474   */\n      tag_324\n      jump\t// in\n    tag_604:\n        /* \"#utility.yul\":31401:31405   */\n      dup7\n        /* \"#utility.yul\":31394:31475   */\n      sstore\n        /* \"#utility.yul\":31263:31485   */\n      pop\n        /* \"#utility.yul\":30598:31485   */\n      jump(tag_601)\n        /* \"#utility.yul\":30628:31246   */\n    tag_602:\n        /* \"#utility.yul\":30680:30684   */\n      0x1f\n        /* \"#utility.yul\":30676:30685   */\n      not\n        /* \"#utility.yul\":30668:30674   */\n      dup5\n        /* \"#utility.yul\":30664:30686   */\n      and\n        /* \"#utility.yul\":30714:30751   */\n      tag_605\n        /* \"#utility.yul\":30746:30750   */\n      dup7\n        /* \"#utility.yul\":30714:30751   */\n      tag_310\n      jump\t// in\n    tag_605:\n        /* \"#utility.yul\":30773:30774   */\n      0x00\n        /* \"#utility.yul\":30787:30995   */\n    tag_606:\n        /* \"#utility.yul\":30801:30808   */\n      dup3\n        /* \"#utility.yul\":30798:30799   */\n      dup2\n        /* \"#utility.yul\":30795:30809   */\n      lt\n        /* \"#utility.yul\":30787:30995   */\n      iszero\n      tag_608\n      jumpi\n        /* \"#utility.yul\":30880:30889   */\n      dup5\n        /* \"#utility.yul\":30875:30878   */\n      dup10\n        /* \"#utility.yul\":30871:30890   */\n      add\n        /* \"#utility.yul\":30865:30891   */\n      mload\n        /* \"#utility.yul\":30857:30863   */\n      dup3\n        /* \"#utility.yul\":30850:30892   */\n      sstore\n        /* \"#utility.yul\":30931:30932   */\n      0x01\n        /* \"#utility.yul\":30923:30929   */\n      dup3\n        /* \"#utility.yul\":30919:30933   */\n      add\n        /* \"#utility.yul\":30909:30933   */\n      swap2\n      pop\n        /* \"#utility.yul\":30978:30980   */\n      0x20\n        /* \"#utility.yul\":30967:30976   */\n      dup6\n        /* \"#utility.yul\":30963:30981   */\n      add\n        /* \"#utility.yul\":30950:30981   */\n      swap5\n      pop\n        /* \"#utility.yul\":30824:30828   */\n      0x20\n        /* \"#utility.yul\":30821:30822   */\n      dup2\n        /* \"#utility.yul\":30817:30829   */\n      add\n        /* \"#utility.yul\":30812:30829   */\n      swap1\n      pop\n        /* \"#utility.yul\":30787:30995   */\n      jump(tag_606)\n    tag_608:\n        /* \"#utility.yul\":31023:31029   */\n      dup7\n        /* \"#utility.yul\":31014:31021   */\n      dup4\n        /* \"#utility.yul\":31011:31030   */\n      lt\n        /* \"#utility.yul\":31008:31187   */\n      iszero\n      tag_609\n      jumpi\n        /* \"#utility.yul\":31081:31090   */\n      dup5\n        /* \"#utility.yul\":31076:31079   */\n      dup10\n        /* \"#utility.yul\":31072:31091   */\n      add\n        /* \"#utility.yul\":31066:31092   */\n      mload\n        /* \"#utility.yul\":31124:31172   */\n      tag_610\n        /* \"#utility.yul\":31166:31170   */\n      0x1f\n        /* \"#utility.yul\":31158:31164   */\n      dup10\n        /* \"#utility.yul\":31154:31171   */\n      and\n        /* \"#utility.yul\":31143:31152   */\n      dup3\n        /* \"#utility.yul\":31124:31172   */\n      tag_323\n      jump\t// in\n    tag_610:\n        /* \"#utility.yul\":31116:31122   */\n      dup4\n        /* \"#utility.yul\":31109:31173   */\n      sstore\n        /* \"#utility.yul\":31031:31187   */\n      pop\n        /* \"#utility.yul\":31008:31187   */\n    tag_609:\n        /* \"#utility.yul\":31233:31234   */\n      0x01\n        /* \"#utility.yul\":31229:31230   */\n      0x02\n        /* \"#utility.yul\":31221:31227   */\n      dup9\n        /* \"#utility.yul\":31217:31231   */\n      mul\n        /* \"#utility.yul\":31213:31235   */\n      add\n        /* \"#utility.yul\":31207:31211   */\n      dup9\n        /* \"#utility.yul\":31200:31236   */\n      sstore\n        /* \"#utility.yul\":30635:31246   */\n      pop\n      pop\n      pop\n        /* \"#utility.yul\":30598:31485   */\n    tag_601:\n      pop\n        /* \"#utility.yul\":30188:31491   */\n      pop\n      pop\n      pop\n        /* \"#utility.yul\":30096:31491   */\n      pop\n      pop\n      jump\t// out\n        /* \"#utility.yul\":31497:31691   */\n    tag_218:\n        /* \"#utility.yul\":31537:31541   */\n      0x00\n        /* \"#utility.yul\":31557:31577   */\n      tag_612\n        /* \"#utility.yul\":31575:31576   */\n      dup3\n        /* \"#utility.yul\":31557:31577   */\n      tag_246\n      jump\t// in\n    tag_612:\n        /* \"#utility.yul\":31552:31577   */\n      swap2\n      pop\n        /* \"#utility.yul\":31591:31611   */\n      tag_613\n        /* \"#utility.yul\":31609:31610   */\n      dup4\n        /* \"#utility.yul\":31591:31611   */\n      tag_246\n      jump\t// in\n    tag_613:\n        /* \"#utility.yul\":31586:31611   */\n      swap3\n      pop\n        /* \"#utility.yul\":31635:31636   */\n      dup3\n        /* \"#utility.yul\":31632:31633   */\n      dup3\n        /* \"#utility.yul\":31628:31637   */\n      sub\n        /* \"#utility.yul\":31620:31637   */\n      swap1\n      pop\n        /* \"#utility.yul\":31659:31660   */\n      dup2\n        /* \"#utility.yul\":31653:31657   */\n      dup2\n        /* \"#utility.yul\":31650:31661   */\n      gt\n        /* \"#utility.yul\":31647:31684   */\n      iszero\n      tag_614\n      jumpi\n        /* \"#utility.yul\":31664:31682   */\n      tag_615\n      tag_284\n      jump\t// in\n    tag_615:\n        /* \"#utility.yul\":31647:31684   */\n    tag_614:\n        /* \"#utility.yul\":31497:31691   */\n      swap3\n      swap2\n      pop\n      pop\n      jump\t// out\n        /* \"#utility.yul\":31697:31878   */\n    tag_325:\n        /* \"#utility.yul\":31837:31870   */\n      0x4f6e6c79204f6666696369616c732063616e2070726f706f7365206c61777300\n        /* \"#utility.yul\":31833:31834   */\n      0x00\n        /* \"#utility.yul\":31825:31831   */\n      dup3\n        /* \"#utility.yul\":31821:31835   */\n      add\n        /* \"#utility.yul\":31814:31871   */\n      mstore\n        /* \"#utility.yul\":31697:31878   */\n      pop\n      jump\t// out\n        /* \"#utility.yul\":31884:32250   */\n    tag_326:\n        /* \"#utility.yul\":32026:32029   */\n      0x00\n        /* \"#utility.yul\":32047:32114   */\n      tag_618\n        /* \"#utility.yul\":32111:32113   */\n      0x1f\n        /* \"#utility.yul\":32106:32109   */\n      dup4\n        /* \"#utility.yul\":32047:32114   */\n      tag_275\n      jump\t// in\n    tag_618:\n        /* \"#utility.yul\":32040:32114   */\n      swap2\n      pop\n        /* \"#utility.yul\":32123:32216   */\n      tag_619\n        /* \"#utility.yul\":32212:32215   */\n      dup3\n        /* \"#utility.yul\":32123:32216   */\n      tag_325\n      jump\t// in\n    tag_619:\n        /* \"#utility.yul\":32241:32243   */\n      0x20\n        /* \"#utility.yul\":32236:32239   */\n      dup3\n        /* \"#utility.yul\":32232:32244   */\n      add\n        /* \"#utility.yul\":32225:32244   */\n      swap1\n      pop\n        /* \"#utility.yul\":31884:32250   */\n      swap2\n      swap1\n      pop\n      jump\t// out\n        /* \"#utility.yul\":32256:32675   */\n    tag_224:\n        /* \"#utility.yul\":32422:32426   */\n      0x00\n        /* \"#utility.yul\":32460:32462   */\n      0x20\n        /* \"#utility.yul\":32449:32458   */\n      dup3\n        /* \"#utility.yul\":32445:32463   */\n      add\n        /* \"#utility.yul\":32437:32463   */\n      swap1\n      pop\n        /* \"#utility.yul\":32509:32518   */\n      dup2\n        /* \"#utility.yul\":32503:32507   */\n      dup2\n        /* \"#utility.yul\":32499:32519   */\n      sub\n        /* \"#utility.yul\":32495:32496   */\n      0x00\n        /* \"#utility.yul\":32484:32493   */\n      dup4\n        /* \"#utility.yul\":32480:32497   */\n      add\n        /* \"#utility.yul\":32473:32520   */\n      mstore\n        /* \"#utility.yul\":32537:32668   */\n      tag_621\n        /* \"#utility.yul\":32663:32667   */\n      dup2\n        /* \"#utility.yul\":32537:32668   */\n      tag_326\n      jump\t// in\n    tag_621:\n        /* \"#utility.yul\":32529:32668   */\n      swap1\n      pop\n        /* \"#utility.yul\":32256:32675   */\n      swap2\n      swap1\n      pop\n      jump\t// out\n\n    auxdata: 0xa2646970667358221220a45b3de236e7e2c5e7683c70ee8f81c00a7dfd04cd2fba3d4625654143aa033464736f6c63430008160033\n}\n",
				"bytecode": {
					"linkReferences": {},
					"object": "608060405234801561000f575f80fd5b503360035f6101000a81548173ffffffffffffffffffffffffffffffffffffffff021916908373ffffffffffffffffffffffffffffffffffffffff1602179055506129b58061005d5f395ff3fe608060405234801561000f575f80fd5b5060043610610156575f3560e01c806377b81aac116100c157806397ad6afd1161007a57806397ad6afd146103895780639dd08259146103b9578063a91703ec146103e9578063bfced66b14610405578063d41fb13814610435578063eee8c7db1461046557610156565b806377b81aac146102da5780637ebdee0d1461030a57806383197ef01461033d57806385e685311461034757806389907717146103635780638dd759a51461036d57610156565b806358bc73311161011357806358bc73311461021857806362e36eb8146102365780636475f4fe146102405780636dd7d8ea1461025e578063703c2bec1461027a578063726d5807146102aa57610156565b806309a34f001461015a5780630ae5e7391461018a5780631b7b8dac146101a65780633b9392cf146101c2578063445ed26e146101f2578063535c4ded1461020e575b5f80fd5b610174600480360381019061016f9190611926565b610483565b6040516101819190611990565b60405180910390f35b6101a4600480360381019061019f91906119e4565b6104bd565b005b6101c060048036038101906101bb9190611b4b565b61058f565b005b6101dc60048036038101906101d79190611bbc565b610677565b6040516101e99190611bf6565b60405180910390f35b61020c60048036038101906102079190611926565b61068c565b005b6102166107f2565b005b610220610933565b60405161022d9190611cc6565b60405180910390f35b61023e6109be565b005b610248610aa9565b6040516102559190611bf6565b60405180910390f35b61027860048036038101906102739190611bbc565b610ab5565b005b610294600480360381019061028f9190611bbc565b610bcb565b6040516102a19190611bf6565b60405180910390f35b6102c460048036038101906102bf9190611bbc565b610be0565b6040516102d19190611d60565b60405180910390f35b6102f460048036038101906102ef9190611bbc565b610c80565b6040516103019190611d9a565b60405180910390f35b610324600480360381019061031f9190611926565b610c9d565b6040516103349493929190611db3565b60405180910390f35b610345610e10565b005b610361600480360381019061035c91906119e4565b610ed9565b005b61036b61103a565b005b61038760048036038101906103829190611e04565b61117b565b005b6103a3600480360381019061039e9190611926565b6114d8565b6040516103b09190611990565b60405180910390f35b6103d360048036038101906103ce9190611bbc565b611513565b6040516103e09190611d9a565b60405180910390f35b61040360048036038101906103fe9190611e5e565b611530565b005b61041f600480360381019061041a9190611bbc565b6116b0565b60405161042c9190611cc6565b60405180910390f35b61044f600480360381019061044a9190611926565b61177b565b60405161045c9190611990565b60405180910390f35b61046d6117b6565b60405161047a9190611cc6565b60405180910390f35b5f8181548110610491575f80fd5b905f5260205f20015f915054906101000a900473ffffffffffffffffffffffffffffffffffffffff1681565b60035f9054906101000a900473ffffffffffffffffffffffffffffffffffffffff1673ffffffffffffffffffffffffffffffffffffffff163373ffffffffffffffffffffffffffffffffffffffff161461054c576040517f08c379a000000000000000000000000000000000000000000000000000000000815260040161054390611f1e565b60405180910390fd5b8060035f6101000a81548173ffffffffffffffffffffffffffffffffffffffff021916908373ffffffffffffffffffffffffffffffffffffffff16021790555050565b60045f3373ffffffffffffffffffffffffffffffffffffffff1673ffffffffffffffffffffffffffffffffffffffff1681526020019081526020015f205f9054906101000a900460ff16610618576040517f08c379a000000000000000000000000000000000000000000000000000000000815260040161060f90611fac565b60405180910390fd5b683635c9adc5dea0000060075f3373ffffffffffffffffffffffffffffffffffffffff1673ffffffffffffffffffffffffffffffffffffffff1681526020019081526020015f205f82825461066d9190611ff7565b9250508190555050565b6006602052805f5260405f205f915090505481565b60035f9054906101000a900473ffffffffffffffffffffffffffffffffffffffff1673ffffffffffffffffffffffffffffffffffffffff163373ffffffffffffffffffffffffffffffffffffffff16148061072d575060045f3373ffffffffffffffffffffffffffffffffffffffff1673ffffffffffffffffffffffffffffffffffffffff1681526020019081526020015f205f9054906101000a900460ff165b61076c576040517f08c379a00000000000000000000000000000000000000000000000000000000081526004016107639061209a565b60405180910390fd5b60088054905081106107b3576040517f08c379a00000000000000000000000000000000000000000000000000000000081526004016107aa90612102565b60405180910390fd5b6001600882815481106107c9576107c8612120565b5b905f5260205f20906003020160020160146101000a81548160ff02191690831515021790555050565b60055f3373ffffffffffffffffffffffffffffffffffffffff1673ffffffffffffffffffffffffffffffffffffffff1681526020019081526020015f205f9054906101000a900460ff161561087c576040517f08c379a0000000000000000000000000000000000000000000000000000000008152600401610873906121bd565b60405180910390fd5b600233908060018154018082558091505060019003905f5260205f20015f9091909190916101000a81548173ffffffffffffffffffffffffffffffffffffffff021916908373ffffffffffffffffffffffffffffffffffffffff160217905550600160055f3373ffffffffffffffffffffffffffffffffffffffff1673ffffffffffffffffffffffffffffffffffffffff1681526020019081526020015f205f6101000a81548160ff021916908315150217905550565b606060018054806020026020016040519081016040528092919081815260200182805480156109b457602002820191905f5260205f20905b815f9054906101000a900473ffffffffffffffffffffffffffffffffffffffff1673ffffffffffffffffffffffffffffffffffffffff168152602001906001019080831161096b575b5050505050905090565b60045f3373ffffffffffffffffffffffffffffffffffffffff1673ffffffffffffffffffffffffffffffffffffffff1681526020019081526020015f205f9054906101000a900460ff1615610a48576040517f08c379a0000000000000000000000000000000000000000000000000000000008152600401610a3f9061224b565b60405180910390fd5b5f33908060018154018082558091505060019003905f5260205f20015f9091909190916101000a81548173ffffffffffffffffffffffffffffffffffffffff021916908373ffffffffffffffffffffffffffffffffffffffff160217905550565b5f600880549050905090565b60045f3373ffffffffffffffffffffffffffffffffffffffff1673ffffffffffffffffffffffffffffffffffffffff1681526020019081526020015f205f9054906101000a900460ff1615610b3f576040517f08c379a0000000000000000000000000000000000000000000000000000000008152600401610b36906122b3565b60405180910390fd5b60045f8273ffffffffffffffffffffffffffffffffffffffff1673ffffffffffffffffffffffffffffffffffffffff1681526020019081526020015f205f9054906101000a900460ff16610bc8576040517f08c379a0000000000000000000000000000000000000000000000000000000008152600401610bbf9061231b565b60405180910390fd5b50565b6007602052805f5260405f205f915090505481565b6009602052805f5260405f205f91509050805f018054610bff90612366565b80601f0160208091040260200160405190810160405280929190818152602001828054610c2b90612366565b8015610c765780601f10610c4d57610100808354040283529160200191610c76565b820191905f5260205f20905b815481529060010190602001808311610c5957829003601f168201915b5050505050905081565b6004602052805f5260405f205f915054906101000a900460ff1681565b60088181548110610cac575f80fd5b905f5260205f2090600302015f91509050805f018054610ccb90612366565b80601f0160208091040260200160405190810160405280929190818152602001828054610cf790612366565b8015610d425780601f10610d1957610100808354040283529160200191610d42565b820191905f5260205f20905b815481529060010190602001808311610d2557829003601f168201915b505050505090806001018054610d5790612366565b80601f0160208091040260200160405190810160405280929190818152602001828054610d8390612366565b8015610dce5780601f10610da557610100808354040283529160200191610dce565b820191905f5260205f20905b815481529060010190602001808311610db157829003601f168201915b505050505090806002015f9054906101000a900473ffffffffffffffffffffffffffffffffffffffff16908060020160149054906101000a900460ff16905084565b60035f9054906101000a900473ffffffffffffffffffffffffffffffffffffffff1673ffffffffffffffffffffffffffffffffffffffff163373ffffffffffffffffffffffffffffffffffffffff1614610e9f576040517f08c379a0000000000000000000000000000000000000000000000000000000008152600401610e9690612406565b60405180910390fd5b60035f9054906101000a900473ffffffffffffffffffffffffffffffffffffffff1673ffffffffffffffffffffffffffffffffffffffff16ff5b60035f9054906101000a900473ffffffffffffffffffffffffffffffffffffffff1673ffffffffffffffffffffffffffffffffffffffff163373ffffffffffffffffffffffffffffffffffffffff1614610f68576040517f08c379a0000000000000000000000000000000000000000000000000000000008152600401610f5f9061246e565b60405180910390fd5b60035f9054906101000a900473ffffffffffffffffffffffffffffffffffffffff1673ffffffffffffffffffffffffffffffffffffffff168173ffffffffffffffffffffffffffffffffffffffff1603610ff7576040517f08c379a0000000000000000000000000000000000000000000000000000000008152600401610fee906124fc565b60405180910390fd5b3360035f6101000a81548173ffffffffffffffffffffffffffffffffffffffff021916908373ffffffffffffffffffffffffffffffffffffffff16021790555050565b60045f3373ffffffffffffffffffffffffffffffffffffffff1673ffffffffffffffffffffffffffffffffffffffff1681526020019081526020015f205f9054906101000a900460ff16156110c4576040517f08c379a00000000000000000000000000000000000000000000000000000000081526004016110bb9061224b565b60405180910390fd5b600133908060018154018082558091505060019003905f5260205f20015f9091909190916101000a81548173ffffffffffffffffffffffffffffffffffffffff021916908373ffffffffffffffffffffffffffffffffffffffff160217905550600160045f3373ffffffffffffffffffffffffffffffffffffffff1673ffffffffffffffffffffffffffffffffffffffff1681526020019081526020015f205f6101000a81548160ff021916908315150217905550565b60045f3373ffffffffffffffffffffffffffffffffffffffff1673ffffffffffffffffffffffffffffffffffffffff1681526020019081526020015f205f9054906101000a900460ff16611204576040517f08c379a00000000000000000000000000000000000000000000000000000000081526004016111fb9061258a565b60405180910390fd5b60045f8373ffffffffffffffffffffffffffffffffffffffff1673ffffffffffffffffffffffffffffffffffffffff1681526020019081526020015f205f9054906101000a900460ff1661128d576040517f08c379a0000000000000000000000000000000000000000000000000000000008152600401611284906125f2565b60405180910390fd5b5f60075f3373ffffffffffffffffffffffffffffffffffffffff1673ffffffffffffffffffffffffffffffffffffffff1681526020019081526020015f20541161130c576040517f08c379a00000000000000000000000000000000000000000000000000000000081526004016113039061265a565b60405180910390fd5b60405180604001604052808281526020015f67ffffffffffffffff81111561133757611336611a27565b5b6040519080825280602002602001820160405280156113655781602001602082028036833780820191505090505b5081525060095f8473ffffffffffffffffffffffffffffffffffffffff1673ffffffffffffffffffffffffffffffffffffffff1681526020019081526020015f205f820151815f0190816113b99190612815565b5060208201518160010190805190602001906113d6929190611840565b5090505060095f8373ffffffffffffffffffffffffffffffffffffffff1673ffffffffffffffffffffffffffffffffffffffff1681526020019081526020015f2060010182908060018154018082558091505060019003905f5260205f20015f9091909190916101000a81548173ffffffffffffffffffffffffffffffffffffffff021916908373ffffffffffffffffffffffffffffffffffffffff16021790555068056bc75e2d6310000060075f3373ffffffffffffffffffffffffffffffffffffffff1673ffffffffffffffffffffffffffffffffffffffff1681526020019081526020015f205f8282546114cd91906128e4565b925050819055505050565b600181815481106114e7575f80fd5b905f5260205f20015f915054906101000a900473ffffffffffffffffffffffffffffffffffffffff1681565b6005602052805f5260405f205f915054906101000a900460ff1681565b60045f3373ffffffffffffffffffffffffffffffffffffffff1673ffffffffffffffffffffffffffffffffffffffff1681526020019081526020015f205f9054906101000a900460ff166115b9576040517f08c379a00000000000000000000000000000000000000000000000000000000081526004016115b090612961565b60405180910390fd5b600860405180608001604052808481526020018381526020013373ffffffffffffffffffffffffffffffffffffffff1681526020015f1515815250908060018154018082558091505060019003905f5260205f2090600302015f909190919091505f820151815f01908161162d9190612815565b5060208201518160010190816116439190612815565b506040820151816002015f6101000a81548173ffffffffffffffffffffffffffffffffffffffff021916908373ffffffffffffffffffffffffffffffffffffffff16021790555060608201518160020160146101000a81548160ff02191690831515021790555050505050565b606060095f8373ffffffffffffffffffffffffffffffffffffffff1673ffffffffffffffffffffffffffffffffffffffff1681526020019081526020015f2060010180548060200260200160405190810160405280929190818152602001828054801561176f57602002820191905f5260205f20905b815f9054906101000a900473ffffffffffffffffffffffffffffffffffffffff1673ffffffffffffffffffffffffffffffffffffffff1681526020019060010190808311611726575b50505050509050919050565b6002818154811061178a575f80fd5b905f5260205f20015f915054906101000a900473ffffffffffffffffffffffffffffffffffffffff1681565b60605f80548060200260200160405190810160405280929190818152602001828054801561183657602002820191905f5260205f20905b815f9054906101000a900473ffffffffffffffffffffffffffffffffffffffff1673ffffffffffffffffffffffffffffffffffffffff16815260200190600101908083116117ed575b5050505050905090565b828054828255905f5260205f209081019282156118b6579160200282015b828111156118b5578251825f6101000a81548173ffffffffffffffffffffffffffffffffffffffff021916908373ffffffffffffffffffffffffffffffffffffffff1602179055509160200191906001019061185e565b5b5090506118c391906118c7565b5090565b5b808211156118de575f815f9055506001016118c8565b5090565b5f604051905090565b5f80fd5b5f80fd5b5f819050919050565b611905816118f3565b811461190f575f80fd5b50565b5f81359050611920816118fc565b92915050565b5f6020828403121561193b5761193a6118eb565b5b5f61194884828501611912565b91505092915050565b5f73ffffffffffffffffffffffffffffffffffffffff82169050919050565b5f61197a82611951565b9050919050565b61198a81611970565b82525050565b5f6020820190506119a35f830184611981565b92915050565b5f6119b382611951565b9050919050565b6119c3816119a9565b81146119cd575f80fd5b50565b5f813590506119de816119ba565b92915050565b5f602082840312156119f9576119f86118eb565b5b5f611a06848285016119d0565b91505092915050565b5f80fd5b5f80fd5b5f601f19601f8301169050919050565b7f4e487b71000000000000000000000000000000000000000000000000000000005f52604160045260245ffd5b611a5d82611a17565b810181811067ffffffffffffffff82111715611a7c57611a7b611a27565b5b80604052505050565b5f611a8e6118e2565b9050611a9a8282611a54565b919050565b5f67ffffffffffffffff821115611ab957611ab8611a27565b5b611ac282611a17565b9050602081019050919050565b828183375f83830152505050565b5f611aef611aea84611a9f565b611a85565b905082815260208101848484011115611b0b57611b0a611a13565b5b611b16848285611acf565b509392505050565b5f82601f830112611b3257611b31611a0f565b5b8135611b42848260208601611add565b91505092915050565b5f60208284031215611b6057611b5f6118eb565b5b5f82013567ffffffffffffffff811115611b7d57611b7c6118ef565b5b611b8984828501611b1e565b91505092915050565b611b9b81611970565b8114611ba5575f80fd5b50565b5f81359050611bb681611b92565b92915050565b5f60208284031215611bd157611bd06118eb565b5b5f611bde84828501611ba8565b91505092915050565b611bf0816118f3565b82525050565b5f602082019050611c095f830184611be7565b92915050565b5f81519050919050565b5f82825260208201905092915050565b5f819050602082019050919050565b611c4181611970565b82525050565b5f611c528383611c38565b60208301905092915050565b5f602082019050919050565b5f611c7482611c0f565b611c7e8185611c19565b9350611c8983611c29565b805f5b83811015611cb9578151611ca08882611c47565b9750611cab83611c5e565b925050600181019050611c8c565b5085935050505092915050565b5f6020820190508181035f830152611cde8184611c6a565b905092915050565b5f81519050919050565b5f82825260208201905092915050565b5f5b83811015611d1d578082015181840152602081019050611d02565b5f8484015250505050565b5f611d3282611ce6565b611d3c8185611cf0565b9350611d4c818560208601611d00565b611d5581611a17565b840191505092915050565b5f6020820190508181035f830152611d788184611d28565b905092915050565b5f8115159050919050565b611d9481611d80565b82525050565b5f602082019050611dad5f830184611d8b565b92915050565b5f6080820190508181035f830152611dcb8187611d28565b90508181036020830152611ddf8186611d28565b9050611dee6040830185611981565b611dfb6060830184611d8b565b95945050505050565b5f8060408385031215611e1a57611e196118eb565b5b5f611e2785828601611ba8565b925050602083013567ffffffffffffffff811115611e4857611e476118ef565b5b611e5485828601611b1e565b9150509250929050565b5f8060408385031215611e7457611e736118eb565b5b5f83013567ffffffffffffffff811115611e9157611e906118ef565b5b611e9d85828601611b1e565b925050602083013567ffffffffffffffff811115611ebe57611ebd6118ef565b5b611eca85828601611b1e565b9150509250929050565b7f4f6e6c7920746865206f776e65722063616e206772616e7420616363657373005f82015250565b5f611f08601f83611cf0565b9150611f1382611ed4565b602082019050919050565b5f6020820190508181035f830152611f3581611efc565b9050919050565b7f4f6e6c79204f6666696369616c732063616e20637265617465206465706172745f8201527f6d656e7473000000000000000000000000000000000000000000000000000000602082015250565b5f611f96602583611cf0565b9150611fa182611f3c565b604082019050919050565b5f6020820190508181035f830152611fc381611f8a565b9050919050565b7f4e487b71000000000000000000000000000000000000000000000000000000005f52601160045260245ffd5b5f612001826118f3565b915061200c836118f3565b925082820190508082111561202457612023611fca565b5b92915050565b7f4f6e6c79204f6666696369616c7320616e6420746865206f776e65722063616e5f8201527f20656e616374206c617773000000000000000000000000000000000000000000602082015250565b5f612084602b83611cf0565b915061208f8261202a565b604082019050919050565b5f6020820190508181035f8301526120b181612078565b9050919050565b7f496e76616c6964206c617720696e6465780000000000000000000000000000005f82015250565b5f6120ec601183611cf0565b91506120f7826120b8565b602082019050919050565b5f6020820190508181035f830152612119816120e0565b9050919050565b7f4e487b71000000000000000000000000000000000000000000000000000000005f52603260045260245ffd5b7f43616e6e6f74207265676973746572206173204c617720456e666f7263656d655f8201527f6e742c20416c7265616479207265676973746572656400000000000000000000602082015250565b5f6121a7603683611cf0565b91506121b28261214d565b604082019050919050565b5f6020820190508181035f8301526121d48161219b565b9050919050565b7f43616e6e6f7420726567697374657220617320436974697a656e2c20416c72655f8201527f61647920616e206f6666696369616c0000000000000000000000000000000000602082015250565b5f612235602f83611cf0565b9150612240826121db565b604082019050919050565b5f6020820190508181035f83015261226281612229565b9050919050565b7f4f6666696369616c732063616e6e6f7420766f746500000000000000000000005f82015250565b5f61229d601583611cf0565b91506122a882612269565b602082019050919050565b5f6020820190508181035f8301526122ca81612291565b9050919050565b7f43616e646964617465206973206e6f7420616e206f6666696369616c000000005f82015250565b5f612305601c83611cf0565b9150612310826122d1565b602082019050919050565b5f6020820190508181035f830152612332816122f9565b9050919050565b7f4e487b71000000000000000000000000000000000000000000000000000000005f52602260045260245ffd5b5f600282049050600182168061237d57607f821691505b6020821081036123905761238f612339565b5b50919050565b7f4f6e6c7920746865206f776e65722063616e2064657374726f792074686973205f8201527f636f6e7472616374000000000000000000000000000000000000000000000000602082015250565b5f6123f0602883611cf0565b91506123fb82612396565b604082019050919050565b5f6020820190508181035f83015261241d816123e4565b9050919050565b7f4f6e6c7920746865206f776e65722063616e207265766f6b65206163636573735f82015250565b5f612458602083611cf0565b915061246382612424565b602082019050919050565b5f6020820190508181035f8301526124858161244c565b9050919050565b7f43616e6e6f74207265766f6b652061636365737320666f7220746865206375725f8201527f72656e74206f776e657200000000000000000000000000000000000000000000602082015250565b5f6124e6602a83611cf0565b91506124f18261248c565b604082019050919050565b5f6020820190508181035f830152612513816124da565b9050919050565b7f4f6e6c79204f6666696369616c732063616e2061737369676e20656d706c6f795f8201527f65657320746f206465706172746d656e74730000000000000000000000000000602082015250565b5f612574603283611cf0565b915061257f8261251a565b604082019050919050565b5f6020820190508181035f8301526125a181612568565b9050919050565b7f456d706c6f796565206d75737420626520616e206f6666696369616c000000005f82015250565b5f6125dc601c83611cf0565b91506125e7826125a8565b602082019050919050565b5f6020820190508181035f830152612609816125d0565b9050919050565b7f496e73756666696369656e74206465706172746d656e742062756467657400005f82015250565b5f612644601e83611cf0565b915061264f82612610565b602082019050919050565b5f6020820190508181035f83015261267181612638565b9050919050565b5f819050815f5260205f209050919050565b5f6020601f8301049050919050565b5f82821b905092915050565b5f600883026126d47fffffffffffffffffffffffffffffffffffffffffffffffffffffffffffffffff82612699565b6126de8683612699565b95508019841693508086168417925050509392505050565b5f819050919050565b5f61271961271461270f846118f3565b6126f6565b6118f3565b9050919050565b5f819050919050565b612732836126ff565b61274661273e82612720565b8484546126a5565b825550505050565b5f90565b61275a61274e565b612765818484612729565b505050565b5b818110156127885761277d5f82612752565b60018101905061276b565b5050565b601f8211156127cd5761279e81612678565b6127a78461268a565b810160208510156127b6578190505b6127ca6127c28561268a565b83018261276a565b50505b505050565b5f82821c905092915050565b5f6127ed5f19846008026127d2565b1980831691505092915050565b5f61280583836127de565b9150826002028217905092915050565b61281e82611ce6565b67ffffffffffffffff81111561283757612836611a27565b5b6128418254612366565b61284c82828561278c565b5f60209050601f83116001811461287d575f841561286b578287015190505b61287585826127fa565b8655506128dc565b601f19841661288b86612678565b5f5b828110156128b25784890151825560018201915060208501945060208101905061288d565b868310156128cf57848901516128cb601f8916826127de565b8355505b6001600288020188555050505b505050505050565b5f6128ee826118f3565b91506128f9836118f3565b925082820390508181111561291157612910611fca565b5b92915050565b7f4f6e6c79204f6666696369616c732063616e2070726f706f7365206c617773005f82015250565b5f61294b601f83611cf0565b915061295682612917565b602082019050919050565b5f6020820190508181035f8301526129788161293f565b905091905056fea2646970667358221220a45b3de236e7e2c5e7683c70ee8f81c00a7dfd04cd2fba3d4625654143aa033464736f6c63430008160033",
					"opcodes": "PUSH1 0x80 PUSH1 0x40 MSTORE CALLVALUE DUP1 ISZERO PUSH2 0xF JUMPI PUSH0 DUP1 REVERT JUMPDEST POP CALLER PUSH1 0x3 PUSH0 PUSH2 0x100 EXP DUP2 SLOAD DUP2 PUSH20 0xFFFFFFFFFFFFFFFFFFFFFFFFFFFFFFFFFFFFFFFF MUL NOT AND SWAP1 DUP4 PUSH20 0xFFFFFFFFFFFFFFFFFFFFFFFFFFFFFFFFFFFFFFFF AND MUL OR SWAP1 SSTORE POP PUSH2 0x29B5 DUP1 PUSH2 0x5D PUSH0 CODECOPY PUSH0 RETURN INVALID PUSH1 0x80 PUSH1 0x40 MSTORE CALLVALUE DUP1 ISZERO PUSH2 0xF JUMPI PUSH0 DUP1 REVERT JUMPDEST POP PUSH1 0x4 CALLDATASIZE LT PUSH2 0x156 JUMPI PUSH0 CALLDATALOAD PUSH1 0xE0 SHR DUP1 PUSH4 0x77B81AAC GT PUSH2 0xC1 JUMPI DUP1 PUSH4 0x97AD6AFD GT PUSH2 0x7A JUMPI DUP1 PUSH4 0x97AD6AFD EQ PUSH2 0x389 JUMPI DUP1 PUSH4 0x9DD08259 EQ PUSH2 0x3B9 JUMPI DUP1 PUSH4 0xA91703EC EQ PUSH2 0x3E9 JUMPI DUP1 PUSH4 0xBFCED66B EQ PUSH2 0x405 JUMPI DUP1 PUSH4 0xD41FB138 EQ PUSH2 0x435 JUMPI DUP1 PUSH4 0xEEE8C7DB EQ PUSH2 0x465 JUMPI PUSH2 0x156 JUMP JUMPDEST DUP1 PUSH4 0x77B81AAC EQ PUSH2 0x2DA JUMPI DUP1 PUSH4 0x7EBDEE0D EQ PUSH2 0x30A JUMPI DUP1 PUSH4 0x83197EF0 EQ PUSH2 0x33D JUMPI DUP1 PUSH4 0x85E68531 EQ PUSH2 0x347 JUMPI DUP1 PUSH4 0x89907717 EQ PUSH2 0x363 JUMPI DUP1 PUSH4 0x8DD759A5 EQ PUSH2 0x36D JUMPI PUSH2 0x156 JUMP JUMPDEST DUP1 PUSH4 0x58BC7331 GT PUSH2 0x113 JUMPI DUP1 PUSH4 0x58BC7331 EQ PUSH2 0x218 JUMPI DUP1 PUSH4 0x62E36EB8 EQ PUSH2 0x236 JUMPI DUP1 PUSH4 0x6475F4FE EQ PUSH2 0x240 JUMPI DUP1 PUSH4 0x6DD7D8EA EQ PUSH2 0x25E JUMPI DUP1 PUSH4 0x703C2BEC EQ PUSH2 0x27A JUMPI DUP1 PUSH4 0x726D5807 EQ PUSH2 0x2AA JUMPI PUSH2 0x156 JUMP JUMPDEST DUP1 PUSH4 0x9A34F00 EQ PUSH2 0x15A JUMPI DUP1 PUSH4 0xAE5E739 EQ PUSH2 0x18A JUMPI DUP1 PUSH4 0x1B7B8DAC EQ PUSH2 0x1A6 JUMPI DUP1 PUSH4 0x3B9392CF EQ PUSH2 0x1C2 JUMPI DUP1 PUSH4 0x445ED26E EQ PUSH2 0x1F2 JUMPI DUP1 PUSH4 0x535C4DED EQ PUSH2 0x20E JUMPI JUMPDEST PUSH0 DUP1 REVERT JUMPDEST PUSH2 0x174 PUSH1 0x4 DUP1 CALLDATASIZE SUB DUP2 ADD SWAP1 PUSH2 0x16F SWAP2 SWAP1 PUSH2 0x1926 JUMP JUMPDEST PUSH2 0x483 JUMP JUMPDEST PUSH1 0x40 MLOAD PUSH2 0x181 SWAP2 SWAP1 PUSH2 0x1990 JUMP JUMPDEST PUSH1 0x40 MLOAD DUP1 SWAP2 SUB SWAP1 RETURN JUMPDEST PUSH2 0x1A4 PUSH1 0x4 DUP1 CALLDATASIZE SUB DUP2 ADD SWAP1 PUSH2 0x19F SWAP2 SWAP1 PUSH2 0x19E4 JUMP JUMPDEST PUSH2 0x4BD JUMP JUMPDEST STOP JUMPDEST PUSH2 0x1C0 PUSH1 0x4 DUP1 CALLDATASIZE SUB DUP2 ADD SWAP1 PUSH2 0x1BB SWAP2 SWAP1 PUSH2 0x1B4B JUMP JUMPDEST PUSH2 0x58F JUMP JUMPDEST STOP JUMPDEST PUSH2 0x1DC PUSH1 0x4 DUP1 CALLDATASIZE SUB DUP2 ADD SWAP1 PUSH2 0x1D7 SWAP2 SWAP1 PUSH2 0x1BBC JUMP JUMPDEST PUSH2 0x677 JUMP JUMPDEST PUSH1 0x40 MLOAD PUSH2 0x1E9 SWAP2 SWAP1 PUSH2 0x1BF6 JUMP JUMPDEST PUSH1 0x40 MLOAD DUP1 SWAP2 SUB SWAP1 RETURN JUMPDEST PUSH2 0x20C PUSH1 0x4 DUP1 CALLDATASIZE SUB DUP2 ADD SWAP1 PUSH2 0x207 SWAP2 SWAP1 PUSH2 0x1926 JUMP JUMPDEST PUSH2 0x68C JUMP JUMPDEST STOP JUMPDEST PUSH2 0x216 PUSH2 0x7F2 JUMP JUMPDEST STOP JUMPDEST PUSH2 0x220 PUSH2 0x933 JUMP JUMPDEST PUSH1 0x40 MLOAD PUSH2 0x22D SWAP2 SWAP1 PUSH2 0x1CC6 JUMP JUMPDEST PUSH1 0x40 MLOAD DUP1 SWAP2 SUB SWAP1 RETURN JUMPDEST PUSH2 0x23E PUSH2 0x9BE JUMP JUMPDEST STOP JUMPDEST PUSH2 0x248 PUSH2 0xAA9 JUMP JUMPDEST PUSH1 0x40 MLOAD PUSH2 0x255 SWAP2 SWAP1 PUSH2 0x1BF6 JUMP JUMPDEST PUSH1 0x40 MLOAD DUP1 SWAP2 SUB SWAP1 RETURN JUMPDEST PUSH2 0x278 PUSH1 0x4 DUP1 CALLDATASIZE SUB DUP2 ADD SWAP1 PUSH2 0x273 SWAP2 SWAP1 PUSH2 0x1BBC JUMP JUMPDEST PUSH2 0xAB5 JUMP JUMPDEST STOP JUMPDEST PUSH2 0x294 PUSH1 0x4 DUP1 CALLDATASIZE SUB DUP2 ADD SWAP1 PUSH2 0x28F SWAP2 SWAP1 PUSH2 0x1BBC JUMP JUMPDEST PUSH2 0xBCB JUMP JUMPDEST PUSH1 0x40 MLOAD PUSH2 0x2A1 SWAP2 SWAP1 PUSH2 0x1BF6 JUMP JUMPDEST PUSH1 0x40 MLOAD DUP1 SWAP2 SUB SWAP1 RETURN JUMPDEST PUSH2 0x2C4 PUSH1 0x4 DUP1 CALLDATASIZE SUB DUP2 ADD SWAP1 PUSH2 0x2BF SWAP2 SWAP1 PUSH2 0x1BBC JUMP JUMPDEST PUSH2 0xBE0 JUMP JUMPDEST PUSH1 0x40 MLOAD PUSH2 0x2D1 SWAP2 SWAP1 PUSH2 0x1D60 JUMP JUMPDEST PUSH1 0x40 MLOAD DUP1 SWAP2 SUB SWAP1 RETURN JUMPDEST PUSH2 0x2F4 PUSH1 0x4 DUP1 CALLDATASIZE SUB DUP2 ADD SWAP1 PUSH2 0x2EF SWAP2 SWAP1 PUSH2 0x1BBC JUMP JUMPDEST PUSH2 0xC80 JUMP JUMPDEST PUSH1 0x40 MLOAD PUSH2 0x301 SWAP2 SWAP1 PUSH2 0x1D9A JUMP JUMPDEST PUSH1 0x40 MLOAD DUP1 SWAP2 SUB SWAP1 RETURN JUMPDEST PUSH2 0x324 PUSH1 0x4 DUP1 CALLDATASIZE SUB DUP2 ADD SWAP1 PUSH2 0x31F SWAP2 SWAP1 PUSH2 0x1926 JUMP JUMPDEST PUSH2 0xC9D JUMP JUMPDEST PUSH1 0x40 MLOAD PUSH2 0x334 SWAP5 SWAP4 SWAP3 SWAP2 SWAP1 PUSH2 0x1DB3 JUMP JUMPDEST PUSH1 0x40 MLOAD DUP1 SWAP2 SUB SWAP1 RETURN JUMPDEST PUSH2 0x345 PUSH2 0xE10 JUMP JUMPDEST STOP JUMPDEST PUSH2 0x361 PUSH1 0x4 DUP1 CALLDATASIZE SUB DUP2 ADD SWAP1 PUSH2 0x35C SWAP2 SWAP1 PUSH2 0x19E4 JUMP JUMPDEST PUSH2 0xED9 JUMP JUMPDEST STOP JUMPDEST PUSH2 0x36B PUSH2 0x103A JUMP JUMPDEST STOP JUMPDEST PUSH2 0x387 PUSH1 0x4 DUP1 CALLDATASIZE SUB DUP2 ADD SWAP1 PUSH2 0x382 SWAP2 SWAP1 PUSH2 0x1E04 JUMP JUMPDEST PUSH2 0x117B JUMP JUMPDEST STOP JUMPDEST PUSH2 0x3A3 PUSH1 0x4 DUP1 CALLDATASIZE SUB DUP2 ADD SWAP1 PUSH2 0x39E SWAP2 SWAP1 PUSH2 0x1926 JUMP JUMPDEST PUSH2 0x14D8 JUMP JUMPDEST PUSH1 0x40 MLOAD PUSH2 0x3B0 SWAP2 SWAP1 PUSH2 0x1990 JUMP JUMPDEST PUSH1 0x40 MLOAD DUP1 SWAP2 SUB SWAP1 RETURN JUMPDEST PUSH2 0x3D3 PUSH1 0x4 DUP1 CALLDATASIZE SUB DUP2 ADD SWAP1 PUSH2 0x3CE SWAP2 SWAP1 PUSH2 0x1BBC JUMP JUMPDEST PUSH2 0x1513 JUMP JUMPDEST PUSH1 0x40 MLOAD PUSH2 0x3E0 SWAP2 SWAP1 PUSH2 0x1D9A JUMP JUMPDEST PUSH1 0x40 MLOAD DUP1 SWAP2 SUB SWAP1 RETURN JUMPDEST PUSH2 0x403 PUSH1 0x4 DUP1 CALLDATASIZE SUB DUP2 ADD SWAP1 PUSH2 0x3FE SWAP2 SWAP1 PUSH2 0x1E5E JUMP JUMPDEST PUSH2 0x1530 JUMP JUMPDEST STOP JUMPDEST PUSH2 0x41F PUSH1 0x4 DUP1 CALLDATASIZE SUB DUP2 ADD SWAP1 PUSH2 0x41A SWAP2 SWAP1 PUSH2 0x1BBC JUMP JUMPDEST PUSH2 0x16B0 JUMP JUMPDEST PUSH1 0x40 MLOAD PUSH2 0x42C SWAP2 SWAP1 PUSH2 0x1CC6 JUMP JUMPDEST PUSH1 0x40 MLOAD DUP1 SWAP2 SUB SWAP1 RETURN JUMPDEST PUSH2 0x44F PUSH1 0x4 DUP1 CALLDATASIZE SUB DUP2 ADD SWAP1 PUSH2 0x44A SWAP2 SWAP1 PUSH2 0x1926 JUMP JUMPDEST PUSH2 0x177B JUMP JUMPDEST PUSH1 0x40 MLOAD PUSH2 0x45C SWAP2 SWAP1 PUSH2 0x1990 JUMP JUMPDEST PUSH1 0x40 MLOAD DUP1 SWAP2 SUB SWAP1 RETURN JUMPDEST PUSH2 0x46D PUSH2 0x17B6 JUMP JUMPDEST PUSH1 0x40 MLOAD PUSH2 0x47A SWAP2 SWAP1 PUSH2 0x1CC6 JUMP JUMPDEST PUSH1 0x40 MLOAD DUP1 SWAP2 SUB SWAP1 RETURN JUMPDEST PUSH0 DUP2 DUP2 SLOAD DUP2 LT PUSH2 0x491 JUMPI PUSH0 DUP1 REVERT JUMPDEST SWAP1 PUSH0 MSTORE PUSH1 0x20 PUSH0 KECCAK256 ADD PUSH0 SWAP2 POP SLOAD SWAP1 PUSH2 0x100 EXP SWAP1 DIV PUSH20 0xFFFFFFFFFFFFFFFFFFFFFFFFFFFFFFFFFFFFFFFF AND DUP2 JUMP JUMPDEST PUSH1 0x3 PUSH0 SWAP1 SLOAD SWAP1 PUSH2 0x100 EXP SWAP1 DIV PUSH20 0xFFFFFFFFFFFFFFFFFFFFFFFFFFFFFFFFFFFFFFFF AND PUSH20 0xFFFFFFFFFFFFFFFFFFFFFFFFFFFFFFFFFFFFFFFF AND CALLER PUSH20 0xFFFFFFFFFFFFFFFFFFFFFFFFFFFFFFFFFFFFFFFF AND EQ PUSH2 0x54C JUMPI PUSH1 0x40 MLOAD PUSH32 0x8C379A000000000000000000000000000000000000000000000000000000000 DUP2 MSTORE PUSH1 0x4 ADD PUSH2 0x543 SWAP1 PUSH2 0x1F1E JUMP JUMPDEST PUSH1 0x40 MLOAD DUP1 SWAP2 SUB SWAP1 REVERT JUMPDEST DUP1 PUSH1 0x3 PUSH0 PUSH2 0x100 EXP DUP2 SLOAD DUP2 PUSH20 0xFFFFFFFFFFFFFFFFFFFFFFFFFFFFFFFFFFFFFFFF MUL NOT AND SWAP1 DUP4 PUSH20 0xFFFFFFFFFFFFFFFFFFFFFFFFFFFFFFFFFFFFFFFF AND MUL OR SWAP1 SSTORE POP POP JUMP JUMPDEST PUSH1 0x4 PUSH0 CALLER PUSH20 0xFFFFFFFFFFFFFFFFFFFFFFFFFFFFFFFFFFFFFFFF AND PUSH20 0xFFFFFFFFFFFFFFFFFFFFFFFFFFFFFFFFFFFFFFFF AND DUP2 MSTORE PUSH1 0x20 ADD SWAP1 DUP2 MSTORE PUSH1 0x20 ADD PUSH0 KECCAK256 PUSH0 SWAP1 SLOAD SWAP1 PUSH2 0x100 EXP SWAP1 DIV PUSH1 0xFF AND PUSH2 0x618 JUMPI PUSH1 0x40 MLOAD PUSH32 0x8C379A000000000000000000000000000000000000000000000000000000000 DUP2 MSTORE PUSH1 0x4 ADD PUSH2 0x60F SWAP1 PUSH2 0x1FAC JUMP JUMPDEST PUSH1 0x40 MLOAD DUP1 SWAP2 SUB SWAP1 REVERT JUMPDEST PUSH9 0x3635C9ADC5DEA00000 PUSH1 0x7 PUSH0 CALLER PUSH20 0xFFFFFFFFFFFFFFFFFFFFFFFFFFFFFFFFFFFFFFFF AND PUSH20 0xFFFFFFFFFFFFFFFFFFFFFFFFFFFFFFFFFFFFFFFF AND DUP2 MSTORE PUSH1 0x20 ADD SWAP1 DUP2 MSTORE PUSH1 0x20 ADD PUSH0 KECCAK256 PUSH0 DUP3 DUP3 SLOAD PUSH2 0x66D SWAP2 SWAP1 PUSH2 0x1FF7 JUMP JUMPDEST SWAP3 POP POP DUP2 SWAP1 SSTORE POP POP JUMP JUMPDEST PUSH1 0x6 PUSH1 0x20 MSTORE DUP1 PUSH0 MSTORE PUSH1 0x40 PUSH0 KECCAK256 PUSH0 SWAP2 POP SWAP1 POP SLOAD DUP2 JUMP JUMPDEST PUSH1 0x3 PUSH0 SWAP1 SLOAD SWAP1 PUSH2 0x100 EXP SWAP1 DIV PUSH20 0xFFFFFFFFFFFFFFFFFFFFFFFFFFFFFFFFFFFFFFFF AND PUSH20 0xFFFFFFFFFFFFFFFFFFFFFFFFFFFFFFFFFFFFFFFF AND CALLER PUSH20 0xFFFFFFFFFFFFFFFFFFFFFFFFFFFFFFFFFFFFFFFF AND EQ DUP1 PUSH2 0x72D JUMPI POP PUSH1 0x4 PUSH0 CALLER PUSH20 0xFFFFFFFFFFFFFFFFFFFFFFFFFFFFFFFFFFFFFFFF AND PUSH20 0xFFFFFFFFFFFFFFFFFFFFFFFFFFFFFFFFFFFFFFFF AND DUP2 MSTORE PUSH1 0x20 ADD SWAP1 DUP2 MSTORE PUSH1 0x20 ADD PUSH0 KECCAK256 PUSH0 SWAP1 SLOAD SWAP1 PUSH2 0x100 EXP SWAP1 DIV PUSH1 0xFF AND JUMPDEST PUSH2 0x76C JUMPI PUSH1 0x40 MLOAD PUSH32 0x8C379A000000000000000000000000000000000000000000000000000000000 DUP2 MSTORE PUSH1 0x4 ADD PUSH2 0x763 SWAP1 PUSH2 0x209A JUMP JUMPDEST PUSH1 0x40 MLOAD DUP1 SWAP2 SUB SWAP1 REVERT JUMPDEST PUSH1 0x8 DUP1 SLOAD SWAP1 POP DUP2 LT PUSH2 0x7B3 JUMPI PUSH1 0x40 MLOAD PUSH32 0x8C379A000000000000000000000000000000000000000000000000000000000 DUP2 MSTORE PUSH1 0x4 ADD PUSH2 0x7AA SWAP1 PUSH2 0x2102 JUMP JUMPDEST PUSH1 0x40 MLOAD DUP1 SWAP2 SUB SWAP1 REVERT JUMPDEST PUSH1 0x1 PUSH1 0x8 DUP3 DUP2 SLOAD DUP2 LT PUSH2 0x7C9 JUMPI PUSH2 0x7C8 PUSH2 0x2120 JUMP JUMPDEST JUMPDEST SWAP1 PUSH0 MSTORE PUSH1 0x20 PUSH0 KECCAK256 SWAP1 PUSH1 0x3 MUL ADD PUSH1 0x2 ADD PUSH1 0x14 PUSH2 0x100 EXP DUP2 SLOAD DUP2 PUSH1 0xFF MUL NOT AND SWAP1 DUP4 ISZERO ISZERO MUL OR SWAP1 SSTORE POP POP JUMP JUMPDEST PUSH1 0x5 PUSH0 CALLER PUSH20 0xFFFFFFFFFFFFFFFFFFFFFFFFFFFFFFFFFFFFFFFF AND PUSH20 0xFFFFFFFFFFFFFFFFFFFFFFFFFFFFFFFFFFFFFFFF AND DUP2 MSTORE PUSH1 0x20 ADD SWAP1 DUP2 MSTORE PUSH1 0x20 ADD PUSH0 KECCAK256 PUSH0 SWAP1 SLOAD SWAP1 PUSH2 0x100 EXP SWAP1 DIV PUSH1 0xFF AND ISZERO PUSH2 0x87C JUMPI PUSH1 0x40 MLOAD PUSH32 0x8C379A000000000000000000000000000000000000000000000000000000000 DUP2 MSTORE PUSH1 0x4 ADD PUSH2 0x873 SWAP1 PUSH2 0x21BD JUMP JUMPDEST PUSH1 0x40 MLOAD DUP1 SWAP2 SUB SWAP1 REVERT JUMPDEST PUSH1 0x2 CALLER SWAP1 DUP1 PUSH1 0x1 DUP2 SLOAD ADD DUP1 DUP3 SSTORE DUP1 SWAP2 POP POP PUSH1 0x1 SWAP1 SUB SWAP1 PUSH0 MSTORE PUSH1 0x20 PUSH0 KECCAK256 ADD PUSH0 SWAP1 SWAP2 SWAP1 SWAP2 SWAP1 SWAP2 PUSH2 0x100 EXP DUP2 SLOAD DUP2 PUSH20 0xFFFFFFFFFFFFFFFFFFFFFFFFFFFFFFFFFFFFFFFF MUL NOT AND SWAP1 DUP4 PUSH20 0xFFFFFFFFFFFFFFFFFFFFFFFFFFFFFFFFFFFFFFFF AND MUL OR SWAP1 SSTORE POP PUSH1 0x1 PUSH1 0x5 PUSH0 CALLER PUSH20 0xFFFFFFFFFFFFFFFFFFFFFFFFFFFFFFFFFFFFFFFF AND PUSH20 0xFFFFFFFFFFFFFFFFFFFFFFFFFFFFFFFFFFFFFFFF AND DUP2 MSTORE PUSH1 0x20 ADD SWAP1 DUP2 MSTORE PUSH1 0x20 ADD PUSH0 KECCAK256 PUSH0 PUSH2 0x100 EXP DUP2 SLOAD DUP2 PUSH1 0xFF MUL NOT AND SWAP1 DUP4 ISZERO ISZERO MUL OR SWAP1 SSTORE POP JUMP JUMPDEST PUSH1 0x60 PUSH1 0x1 DUP1 SLOAD DUP1 PUSH1 0x20 MUL PUSH1 0x20 ADD PUSH1 0x40 MLOAD SWAP1 DUP2 ADD PUSH1 0x40 MSTORE DUP1 SWAP3 SWAP2 SWAP1 DUP2 DUP2 MSTORE PUSH1 0x20 ADD DUP3 DUP1 SLOAD DUP1 ISZERO PUSH2 0x9B4 JUMPI PUSH1 0x20 MUL DUP3 ADD SWAP2 SWAP1 PUSH0 MSTORE PUSH1 0x20 PUSH0 KECCAK256 SWAP1 JUMPDEST DUP2 PUSH0 SWAP1 SLOAD SWAP1 PUSH2 0x100 EXP SWAP1 DIV PUSH20 0xFFFFFFFFFFFFFFFFFFFFFFFFFFFFFFFFFFFFFFFF AND PUSH20 0xFFFFFFFFFFFFFFFFFFFFFFFFFFFFFFFFFFFFFFFF AND DUP2 MSTORE PUSH1 0x20 ADD SWAP1 PUSH1 0x1 ADD SWAP1 DUP1 DUP4 GT PUSH2 0x96B JUMPI JUMPDEST POP POP POP POP POP SWAP1 POP SWAP1 JUMP JUMPDEST PUSH1 0x4 PUSH0 CALLER PUSH20 0xFFFFFFFFFFFFFFFFFFFFFFFFFFFFFFFFFFFFFFFF AND PUSH20 0xFFFFFFFFFFFFFFFFFFFFFFFFFFFFFFFFFFFFFFFF AND DUP2 MSTORE PUSH1 0x20 ADD SWAP1 DUP2 MSTORE PUSH1 0x20 ADD PUSH0 KECCAK256 PUSH0 SWAP1 SLOAD SWAP1 PUSH2 0x100 EXP SWAP1 DIV PUSH1 0xFF AND ISZERO PUSH2 0xA48 JUMPI PUSH1 0x40 MLOAD PUSH32 0x8C379A000000000000000000000000000000000000000000000000000000000 DUP2 MSTORE PUSH1 0x4 ADD PUSH2 0xA3F SWAP1 PUSH2 0x224B JUMP JUMPDEST PUSH1 0x40 MLOAD DUP1 SWAP2 SUB SWAP1 REVERT JUMPDEST PUSH0 CALLER SWAP1 DUP1 PUSH1 0x1 DUP2 SLOAD ADD DUP1 DUP3 SSTORE DUP1 SWAP2 POP POP PUSH1 0x1 SWAP1 SUB SWAP1 PUSH0 MSTORE PUSH1 0x20 PUSH0 KECCAK256 ADD PUSH0 SWAP1 SWAP2 SWAP1 SWAP2 SWAP1 SWAP2 PUSH2 0x100 EXP DUP2 SLOAD DUP2 PUSH20 0xFFFFFFFFFFFFFFFFFFFFFFFFFFFFFFFFFFFFFFFF MUL NOT AND SWAP1 DUP4 PUSH20 0xFFFFFFFFFFFFFFFFFFFFFFFFFFFFFFFFFFFFFFFF AND MUL OR SWAP1 SSTORE POP JUMP JUMPDEST PUSH0 PUSH1 0x8 DUP1 SLOAD SWAP1 POP SWAP1 POP SWAP1 JUMP JUMPDEST PUSH1 0x4 PUSH0 CALLER PUSH20 0xFFFFFFFFFFFFFFFFFFFFFFFFFFFFFFFFFFFFFFFF AND PUSH20 0xFFFFFFFFFFFFFFFFFFFFFFFFFFFFFFFFFFFFFFFF AND DUP2 MSTORE PUSH1 0x20 ADD SWAP1 DUP2 MSTORE PUSH1 0x20 ADD PUSH0 KECCAK256 PUSH0 SWAP1 SLOAD SWAP1 PUSH2 0x100 EXP SWAP1 DIV PUSH1 0xFF AND ISZERO PUSH2 0xB3F JUMPI PUSH1 0x40 MLOAD PUSH32 0x8C379A000000000000000000000000000000000000000000000000000000000 DUP2 MSTORE PUSH1 0x4 ADD PUSH2 0xB36 SWAP1 PUSH2 0x22B3 JUMP JUMPDEST PUSH1 0x40 MLOAD DUP1 SWAP2 SUB SWAP1 REVERT JUMPDEST PUSH1 0x4 PUSH0 DUP3 PUSH20 0xFFFFFFFFFFFFFFFFFFFFFFFFFFFFFFFFFFFFFFFF AND PUSH20 0xFFFFFFFFFFFFFFFFFFFFFFFFFFFFFFFFFFFFFFFF AND DUP2 MSTORE PUSH1 0x20 ADD SWAP1 DUP2 MSTORE PUSH1 0x20 ADD PUSH0 KECCAK256 PUSH0 SWAP1 SLOAD SWAP1 PUSH2 0x100 EXP SWAP1 DIV PUSH1 0xFF AND PUSH2 0xBC8 JUMPI PUSH1 0x40 MLOAD PUSH32 0x8C379A000000000000000000000000000000000000000000000000000000000 DUP2 MSTORE PUSH1 0x4 ADD PUSH2 0xBBF SWAP1 PUSH2 0x231B JUMP JUMPDEST PUSH1 0x40 MLOAD DUP1 SWAP2 SUB SWAP1 REVERT JUMPDEST POP JUMP JUMPDEST PUSH1 0x7 PUSH1 0x20 MSTORE DUP1 PUSH0 MSTORE PUSH1 0x40 PUSH0 KECCAK256 PUSH0 SWAP2 POP SWAP1 POP SLOAD DUP2 JUMP JUMPDEST PUSH1 0x9 PUSH1 0x20 MSTORE DUP1 PUSH0 MSTORE PUSH1 0x40 PUSH0 KECCAK256 PUSH0 SWAP2 POP SWAP1 POP DUP1 PUSH0 ADD DUP1 SLOAD PUSH2 0xBFF SWAP1 PUSH2 0x2366 JUMP JUMPDEST DUP1 PUSH1 0x1F ADD PUSH1 0x20 DUP1 SWAP2 DIV MUL PUSH1 0x20 ADD PUSH1 0x40 MLOAD SWAP1 DUP2 ADD PUSH1 0x40 MSTORE DUP1 SWAP3 SWAP2 SWAP1 DUP2 DUP2 MSTORE PUSH1 0x20 ADD DUP3 DUP1 SLOAD PUSH2 0xC2B SWAP1 PUSH2 0x2366 JUMP JUMPDEST DUP1 ISZERO PUSH2 0xC76 JUMPI DUP1 PUSH1 0x1F LT PUSH2 0xC4D JUMPI PUSH2 0x100 DUP1 DUP4 SLOAD DIV MUL DUP4 MSTORE SWAP2 PUSH1 0x20 ADD SWAP2 PUSH2 0xC76 JUMP JUMPDEST DUP3 ADD SWAP2 SWAP1 PUSH0 MSTORE PUSH1 0x20 PUSH0 KECCAK256 SWAP1 JUMPDEST DUP2 SLOAD DUP2 MSTORE SWAP1 PUSH1 0x1 ADD SWAP1 PUSH1 0x20 ADD DUP1 DUP4 GT PUSH2 0xC59 JUMPI DUP3 SWAP1 SUB PUSH1 0x1F AND DUP3 ADD SWAP2 JUMPDEST POP POP POP POP POP SWAP1 POP DUP2 JUMP JUMPDEST PUSH1 0x4 PUSH1 0x20 MSTORE DUP1 PUSH0 MSTORE PUSH1 0x40 PUSH0 KECCAK256 PUSH0 SWAP2 POP SLOAD SWAP1 PUSH2 0x100 EXP SWAP1 DIV PUSH1 0xFF AND DUP2 JUMP JUMPDEST PUSH1 0x8 DUP2 DUP2 SLOAD DUP2 LT PUSH2 0xCAC JUMPI PUSH0 DUP1 REVERT JUMPDEST SWAP1 PUSH0 MSTORE PUSH1 0x20 PUSH0 KECCAK256 SWAP1 PUSH1 0x3 MUL ADD PUSH0 SWAP2 POP SWAP1 POP DUP1 PUSH0 ADD DUP1 SLOAD PUSH2 0xCCB SWAP1 PUSH2 0x2366 JUMP JUMPDEST DUP1 PUSH1 0x1F ADD PUSH1 0x20 DUP1 SWAP2 DIV MUL PUSH1 0x20 ADD PUSH1 0x40 MLOAD SWAP1 DUP2 ADD PUSH1 0x40 MSTORE DUP1 SWAP3 SWAP2 SWAP1 DUP2 DUP2 MSTORE PUSH1 0x20 ADD DUP3 DUP1 SLOAD PUSH2 0xCF7 SWAP1 PUSH2 0x2366 JUMP JUMPDEST DUP1 ISZERO PUSH2 0xD42 JUMPI DUP1 PUSH1 0x1F LT PUSH2 0xD19 JUMPI PUSH2 0x100 DUP1 DUP4 SLOAD DIV MUL DUP4 MSTORE SWAP2 PUSH1 0x20 ADD SWAP2 PUSH2 0xD42 JUMP JUMPDEST DUP3 ADD SWAP2 SWAP1 PUSH0 MSTORE PUSH1 0x20 PUSH0 KECCAK256 SWAP1 JUMPDEST DUP2 SLOAD DUP2 MSTORE SWAP1 PUSH1 0x1 ADD SWAP1 PUSH1 0x20 ADD DUP1 DUP4 GT PUSH2 0xD25 JUMPI DUP3 SWAP1 SUB PUSH1 0x1F AND DUP3 ADD SWAP2 JUMPDEST POP POP POP POP POP SWAP1 DUP1 PUSH1 0x1 ADD DUP1 SLOAD PUSH2 0xD57 SWAP1 PUSH2 0x2366 JUMP JUMPDEST DUP1 PUSH1 0x1F ADD PUSH1 0x20 DUP1 SWAP2 DIV MUL PUSH1 0x20 ADD PUSH1 0x40 MLOAD SWAP1 DUP2 ADD PUSH1 0x40 MSTORE DUP1 SWAP3 SWAP2 SWAP1 DUP2 DUP2 MSTORE PUSH1 0x20 ADD DUP3 DUP1 SLOAD PUSH2 0xD83 SWAP1 PUSH2 0x2366 JUMP JUMPDEST DUP1 ISZERO PUSH2 0xDCE JUMPI DUP1 PUSH1 0x1F LT PUSH2 0xDA5 JUMPI PUSH2 0x100 DUP1 DUP4 SLOAD DIV MUL DUP4 MSTORE SWAP2 PUSH1 0x20 ADD SWAP2 PUSH2 0xDCE JUMP JUMPDEST DUP3 ADD SWAP2 SWAP1 PUSH0 MSTORE PUSH1 0x20 PUSH0 KECCAK256 SWAP1 JUMPDEST DUP2 SLOAD DUP2 MSTORE SWAP1 PUSH1 0x1 ADD SWAP1 PUSH1 0x20 ADD DUP1 DUP4 GT PUSH2 0xDB1 JUMPI DUP3 SWAP1 SUB PUSH1 0x1F AND DUP3 ADD SWAP2 JUMPDEST POP POP POP POP POP SWAP1 DUP1 PUSH1 0x2 ADD PUSH0 SWAP1 SLOAD SWAP1 PUSH2 0x100 EXP SWAP1 DIV PUSH20 0xFFFFFFFFFFFFFFFFFFFFFFFFFFFFFFFFFFFFFFFF AND SWAP1 DUP1 PUSH1 0x2 ADD PUSH1 0x14 SWAP1 SLOAD SWAP1 PUSH2 0x100 EXP SWAP1 DIV PUSH1 0xFF AND SWAP1 POP DUP5 JUMP JUMPDEST PUSH1 0x3 PUSH0 SWAP1 SLOAD SWAP1 PUSH2 0x100 EXP SWAP1 DIV PUSH20 0xFFFFFFFFFFFFFFFFFFFFFFFFFFFFFFFFFFFFFFFF AND PUSH20 0xFFFFFFFFFFFFFFFFFFFFFFFFFFFFFFFFFFFFFFFF AND CALLER PUSH20 0xFFFFFFFFFFFFFFFFFFFFFFFFFFFFFFFFFFFFFFFF AND EQ PUSH2 0xE9F JUMPI PUSH1 0x40 MLOAD PUSH32 0x8C379A000000000000000000000000000000000000000000000000000000000 DUP2 MSTORE PUSH1 0x4 ADD PUSH2 0xE96 SWAP1 PUSH2 0x2406 JUMP JUMPDEST PUSH1 0x40 MLOAD DUP1 SWAP2 SUB SWAP1 REVERT JUMPDEST PUSH1 0x3 PUSH0 SWAP1 SLOAD SWAP1 PUSH2 0x100 EXP SWAP1 DIV PUSH20 0xFFFFFFFFFFFFFFFFFFFFFFFFFFFFFFFFFFFFFFFF AND PUSH20 0xFFFFFFFFFFFFFFFFFFFFFFFFFFFFFFFFFFFFFFFF AND SELFDESTRUCT JUMPDEST PUSH1 0x3 PUSH0 SWAP1 SLOAD SWAP1 PUSH2 0x100 EXP SWAP1 DIV PUSH20 0xFFFFFFFFFFFFFFFFFFFFFFFFFFFFFFFFFFFFFFFF AND PUSH20 0xFFFFFFFFFFFFFFFFFFFFFFFFFFFFFFFFFFFFFFFF AND CALLER PUSH20 0xFFFFFFFFFFFFFFFFFFFFFFFFFFFFFFFFFFFFFFFF AND EQ PUSH2 0xF68 JUMPI PUSH1 0x40 MLOAD PUSH32 0x8C379A000000000000000000000000000000000000000000000000000000000 DUP2 MSTORE PUSH1 0x4 ADD PUSH2 0xF5F SWAP1 PUSH2 0x246E JUMP JUMPDEST PUSH1 0x40 MLOAD DUP1 SWAP2 SUB SWAP1 REVERT JUMPDEST PUSH1 0x3 PUSH0 SWAP1 SLOAD SWAP1 PUSH2 0x100 EXP SWAP1 DIV PUSH20 0xFFFFFFFFFFFFFFFFFFFFFFFFFFFFFFFFFFFFFFFF AND PUSH20 0xFFFFFFFFFFFFFFFFFFFFFFFFFFFFFFFFFFFFFFFF AND DUP2 PUSH20 0xFFFFFFFFFFFFFFFFFFFFFFFFFFFFFFFFFFFFFFFF AND SUB PUSH2 0xFF7 JUMPI PUSH1 0x40 MLOAD PUSH32 0x8C379A000000000000000000000000000000000000000000000000000000000 DUP2 MSTORE PUSH1 0x4 ADD PUSH2 0xFEE SWAP1 PUSH2 0x24FC JUMP JUMPDEST PUSH1 0x40 MLOAD DUP1 SWAP2 SUB SWAP1 REVERT JUMPDEST CALLER PUSH1 0x3 PUSH0 PUSH2 0x100 EXP DUP2 SLOAD DUP2 PUSH20 0xFFFFFFFFFFFFFFFFFFFFFFFFFFFFFFFFFFFFFFFF MUL NOT AND SWAP1 DUP4 PUSH20 0xFFFFFFFFFFFFFFFFFFFFFFFFFFFFFFFFFFFFFFFF AND MUL OR SWAP1 SSTORE POP POP JUMP JUMPDEST PUSH1 0x4 PUSH0 CALLER PUSH20 0xFFFFFFFFFFFFFFFFFFFFFFFFFFFFFFFFFFFFFFFF AND PUSH20 0xFFFFFFFFFFFFFFFFFFFFFFFFFFFFFFFFFFFFFFFF AND DUP2 MSTORE PUSH1 0x20 ADD SWAP1 DUP2 MSTORE PUSH1 0x20 ADD PUSH0 KECCAK256 PUSH0 SWAP1 SLOAD SWAP1 PUSH2 0x100 EXP SWAP1 DIV PUSH1 0xFF AND ISZERO PUSH2 0x10C4 JUMPI PUSH1 0x40 MLOAD PUSH32 0x8C379A000000000000000000000000000000000000000000000000000000000 DUP2 MSTORE PUSH1 0x4 ADD PUSH2 0x10BB SWAP1 PUSH2 0x224B JUMP JUMPDEST PUSH1 0x40 MLOAD DUP1 SWAP2 SUB SWAP1 REVERT JUMPDEST PUSH1 0x1 CALLER SWAP1 DUP1 PUSH1 0x1 DUP2 SLOAD ADD DUP1 DUP3 SSTORE DUP1 SWAP2 POP POP PUSH1 0x1 SWAP1 SUB SWAP1 PUSH0 MSTORE PUSH1 0x20 PUSH0 KECCAK256 ADD PUSH0 SWAP1 SWAP2 SWAP1 SWAP2 SWAP1 SWAP2 PUSH2 0x100 EXP DUP2 SLOAD DUP2 PUSH20 0xFFFFFFFFFFFFFFFFFFFFFFFFFFFFFFFFFFFFFFFF MUL NOT AND SWAP1 DUP4 PUSH20 0xFFFFFFFFFFFFFFFFFFFFFFFFFFFFFFFFFFFFFFFF AND MUL OR SWAP1 SSTORE POP PUSH1 0x1 PUSH1 0x4 PUSH0 CALLER PUSH20 0xFFFFFFFFFFFFFFFFFFFFFFFFFFFFFFFFFFFFFFFF AND PUSH20 0xFFFFFFFFFFFFFFFFFFFFFFFFFFFFFFFFFFFFFFFF AND DUP2 MSTORE PUSH1 0x20 ADD SWAP1 DUP2 MSTORE PUSH1 0x20 ADD PUSH0 KECCAK256 PUSH0 PUSH2 0x100 EXP DUP2 SLOAD DUP2 PUSH1 0xFF MUL NOT AND SWAP1 DUP4 ISZERO ISZERO MUL OR SWAP1 SSTORE POP JUMP JUMPDEST PUSH1 0x4 PUSH0 CALLER PUSH20 0xFFFFFFFFFFFFFFFFFFFFFFFFFFFFFFFFFFFFFFFF AND PUSH20 0xFFFFFFFFFFFFFFFFFFFFFFFFFFFFFFFFFFFFFFFF AND DUP2 MSTORE PUSH1 0x20 ADD SWAP1 DUP2 MSTORE PUSH1 0x20 ADD PUSH0 KECCAK256 PUSH0 SWAP1 SLOAD SWAP1 PUSH2 0x100 EXP SWAP1 DIV PUSH1 0xFF AND PUSH2 0x1204 JUMPI PUSH1 0x40 MLOAD PUSH32 0x8C379A000000000000000000000000000000000000000000000000000000000 DUP2 MSTORE PUSH1 0x4 ADD PUSH2 0x11FB SWAP1 PUSH2 0x258A JUMP JUMPDEST PUSH1 0x40 MLOAD DUP1 SWAP2 SUB SWAP1 REVERT JUMPDEST PUSH1 0x4 PUSH0 DUP4 PUSH20 0xFFFFFFFFFFFFFFFFFFFFFFFFFFFFFFFFFFFFFFFF AND PUSH20 0xFFFFFFFFFFFFFFFFFFFFFFFFFFFFFFFFFFFFFFFF AND DUP2 MSTORE PUSH1 0x20 ADD SWAP1 DUP2 MSTORE PUSH1 0x20 ADD PUSH0 KECCAK256 PUSH0 SWAP1 SLOAD SWAP1 PUSH2 0x100 EXP SWAP1 DIV PUSH1 0xFF AND PUSH2 0x128D JUMPI PUSH1 0x40 MLOAD PUSH32 0x8C379A000000000000000000000000000000000000000000000000000000000 DUP2 MSTORE PUSH1 0x4 ADD PUSH2 0x1284 SWAP1 PUSH2 0x25F2 JUMP JUMPDEST PUSH1 0x40 MLOAD DUP1 SWAP2 SUB SWAP1 REVERT JUMPDEST PUSH0 PUSH1 0x7 PUSH0 CALLER PUSH20 0xFFFFFFFFFFFFFFFFFFFFFFFFFFFFFFFFFFFFFFFF AND PUSH20 0xFFFFFFFFFFFFFFFFFFFFFFFFFFFFFFFFFFFFFFFF AND DUP2 MSTORE PUSH1 0x20 ADD SWAP1 DUP2 MSTORE PUSH1 0x20 ADD PUSH0 KECCAK256 SLOAD GT PUSH2 0x130C JUMPI PUSH1 0x40 MLOAD PUSH32 0x8C379A000000000000000000000000000000000000000000000000000000000 DUP2 MSTORE PUSH1 0x4 ADD PUSH2 0x1303 SWAP1 PUSH2 0x265A JUMP JUMPDEST PUSH1 0x40 MLOAD DUP1 SWAP2 SUB SWAP1 REVERT JUMPDEST PUSH1 0x40 MLOAD DUP1 PUSH1 0x40 ADD PUSH1 0x40 MSTORE DUP1 DUP3 DUP2 MSTORE PUSH1 0x20 ADD PUSH0 PUSH8 0xFFFFFFFFFFFFFFFF DUP2 GT ISZERO PUSH2 0x1337 JUMPI PUSH2 0x1336 PUSH2 0x1A27 JUMP JUMPDEST JUMPDEST PUSH1 0x40 MLOAD SWAP1 DUP1 DUP3 MSTORE DUP1 PUSH1 0x20 MUL PUSH1 0x20 ADD DUP3 ADD PUSH1 0x40 MSTORE DUP1 ISZERO PUSH2 0x1365 JUMPI DUP2 PUSH1 0x20 ADD PUSH1 0x20 DUP3 MUL DUP1 CALLDATASIZE DUP4 CALLDATACOPY DUP1 DUP3 ADD SWAP2 POP POP SWAP1 POP JUMPDEST POP DUP2 MSTORE POP PUSH1 0x9 PUSH0 DUP5 PUSH20 0xFFFFFFFFFFFFFFFFFFFFFFFFFFFFFFFFFFFFFFFF AND PUSH20 0xFFFFFFFFFFFFFFFFFFFFFFFFFFFFFFFFFFFFFFFF AND DUP2 MSTORE PUSH1 0x20 ADD SWAP1 DUP2 MSTORE PUSH1 0x20 ADD PUSH0 KECCAK256 PUSH0 DUP3 ADD MLOAD DUP2 PUSH0 ADD SWAP1 DUP2 PUSH2 0x13B9 SWAP2 SWAP1 PUSH2 0x2815 JUMP JUMPDEST POP PUSH1 0x20 DUP3 ADD MLOAD DUP2 PUSH1 0x1 ADD SWAP1 DUP1 MLOAD SWAP1 PUSH1 0x20 ADD SWAP1 PUSH2 0x13D6 SWAP3 SWAP2 SWAP1 PUSH2 0x1840 JUMP JUMPDEST POP SWAP1 POP POP PUSH1 0x9 PUSH0 DUP4 PUSH20 0xFFFFFFFFFFFFFFFFFFFFFFFFFFFFFFFFFFFFFFFF AND PUSH20 0xFFFFFFFFFFFFFFFFFFFFFFFFFFFFFFFFFFFFFFFF AND DUP2 MSTORE PUSH1 0x20 ADD SWAP1 DUP2 MSTORE PUSH1 0x20 ADD PUSH0 KECCAK256 PUSH1 0x1 ADD DUP3 SWAP1 DUP1 PUSH1 0x1 DUP2 SLOAD ADD DUP1 DUP3 SSTORE DUP1 SWAP2 POP POP PUSH1 0x1 SWAP1 SUB SWAP1 PUSH0 MSTORE PUSH1 0x20 PUSH0 KECCAK256 ADD PUSH0 SWAP1 SWAP2 SWAP1 SWAP2 SWAP1 SWAP2 PUSH2 0x100 EXP DUP2 SLOAD DUP2 PUSH20 0xFFFFFFFFFFFFFFFFFFFFFFFFFFFFFFFFFFFFFFFF MUL NOT AND SWAP1 DUP4 PUSH20 0xFFFFFFFFFFFFFFFFFFFFFFFFFFFFFFFFFFFFFFFF AND MUL OR SWAP1 SSTORE POP PUSH9 0x56BC75E2D63100000 PUSH1 0x7 PUSH0 CALLER PUSH20 0xFFFFFFFFFFFFFFFFFFFFFFFFFFFFFFFFFFFFFFFF AND PUSH20 0xFFFFFFFFFFFFFFFFFFFFFFFFFFFFFFFFFFFFFFFF AND DUP2 MSTORE PUSH1 0x20 ADD SWAP1 DUP2 MSTORE PUSH1 0x20 ADD PUSH0 KECCAK256 PUSH0 DUP3 DUP3 SLOAD PUSH2 0x14CD SWAP2 SWAP1 PUSH2 0x28E4 JUMP JUMPDEST SWAP3 POP POP DUP2 SWAP1 SSTORE POP POP POP JUMP JUMPDEST PUSH1 0x1 DUP2 DUP2 SLOAD DUP2 LT PUSH2 0x14E7 JUMPI PUSH0 DUP1 REVERT JUMPDEST SWAP1 PUSH0 MSTORE PUSH1 0x20 PUSH0 KECCAK256 ADD PUSH0 SWAP2 POP SLOAD SWAP1 PUSH2 0x100 EXP SWAP1 DIV PUSH20 0xFFFFFFFFFFFFFFFFFFFFFFFFFFFFFFFFFFFFFFFF AND DUP2 JUMP JUMPDEST PUSH1 0x5 PUSH1 0x20 MSTORE DUP1 PUSH0 MSTORE PUSH1 0x40 PUSH0 KECCAK256 PUSH0 SWAP2 POP SLOAD SWAP1 PUSH2 0x100 EXP SWAP1 DIV PUSH1 0xFF AND DUP2 JUMP JUMPDEST PUSH1 0x4 PUSH0 CALLER PUSH20 0xFFFFFFFFFFFFFFFFFFFFFFFFFFFFFFFFFFFFFFFF AND PUSH20 0xFFFFFFFFFFFFFFFFFFFFFFFFFFFFFFFFFFFFFFFF AND DUP2 MSTORE PUSH1 0x20 ADD SWAP1 DUP2 MSTORE PUSH1 0x20 ADD PUSH0 KECCAK256 PUSH0 SWAP1 SLOAD SWAP1 PUSH2 0x100 EXP SWAP1 DIV PUSH1 0xFF AND PUSH2 0x15B9 JUMPI PUSH1 0x40 MLOAD PUSH32 0x8C379A000000000000000000000000000000000000000000000000000000000 DUP2 MSTORE PUSH1 0x4 ADD PUSH2 0x15B0 SWAP1 PUSH2 0x2961 JUMP JUMPDEST PUSH1 0x40 MLOAD DUP1 SWAP2 SUB SWAP1 REVERT JUMPDEST PUSH1 0x8 PUSH1 0x40 MLOAD DUP1 PUSH1 0x80 ADD PUSH1 0x40 MSTORE DUP1 DUP5 DUP2 MSTORE PUSH1 0x20 ADD DUP4 DUP2 MSTORE PUSH1 0x20 ADD CALLER PUSH20 0xFFFFFFFFFFFFFFFFFFFFFFFFFFFFFFFFFFFFFFFF AND DUP2 MSTORE PUSH1 0x20 ADD PUSH0 ISZERO ISZERO DUP2 MSTORE POP SWAP1 DUP1 PUSH1 0x1 DUP2 SLOAD ADD DUP1 DUP3 SSTORE DUP1 SWAP2 POP POP PUSH1 0x1 SWAP1 SUB SWAP1 PUSH0 MSTORE PUSH1 0x20 PUSH0 KECCAK256 SWAP1 PUSH1 0x3 MUL ADD PUSH0 SWAP1 SWAP2 SWAP1 SWAP2 SWAP1 SWAP2 POP PUSH0 DUP3 ADD MLOAD DUP2 PUSH0 ADD SWAP1 DUP2 PUSH2 0x162D SWAP2 SWAP1 PUSH2 0x2815 JUMP JUMPDEST POP PUSH1 0x20 DUP3 ADD MLOAD DUP2 PUSH1 0x1 ADD SWAP1 DUP2 PUSH2 0x1643 SWAP2 SWAP1 PUSH2 0x2815 JUMP JUMPDEST POP PUSH1 0x40 DUP3 ADD MLOAD DUP2 PUSH1 0x2 ADD PUSH0 PUSH2 0x100 EXP DUP2 SLOAD DUP2 PUSH20 0xFFFFFFFFFFFFFFFFFFFFFFFFFFFFFFFFFFFFFFFF MUL NOT AND SWAP1 DUP4 PUSH20 0xFFFFFFFFFFFFFFFFFFFFFFFFFFFFFFFFFFFFFFFF AND MUL OR SWAP1 SSTORE POP PUSH1 0x60 DUP3 ADD MLOAD DUP2 PUSH1 0x2 ADD PUSH1 0x14 PUSH2 0x100 EXP DUP2 SLOAD DUP2 PUSH1 0xFF MUL NOT AND SWAP1 DUP4 ISZERO ISZERO MUL OR SWAP1 SSTORE POP POP POP POP POP JUMP JUMPDEST PUSH1 0x60 PUSH1 0x9 PUSH0 DUP4 PUSH20 0xFFFFFFFFFFFFFFFFFFFFFFFFFFFFFFFFFFFFFFFF AND PUSH20 0xFFFFFFFFFFFFFFFFFFFFFFFFFFFFFFFFFFFFFFFF AND DUP2 MSTORE PUSH1 0x20 ADD SWAP1 DUP2 MSTORE PUSH1 0x20 ADD PUSH0 KECCAK256 PUSH1 0x1 ADD DUP1 SLOAD DUP1 PUSH1 0x20 MUL PUSH1 0x20 ADD PUSH1 0x40 MLOAD SWAP1 DUP2 ADD PUSH1 0x40 MSTORE DUP1 SWAP3 SWAP2 SWAP1 DUP2 DUP2 MSTORE PUSH1 0x20 ADD DUP3 DUP1 SLOAD DUP1 ISZERO PUSH2 0x176F JUMPI PUSH1 0x20 MUL DUP3 ADD SWAP2 SWAP1 PUSH0 MSTORE PUSH1 0x20 PUSH0 KECCAK256 SWAP1 JUMPDEST DUP2 PUSH0 SWAP1 SLOAD SWAP1 PUSH2 0x100 EXP SWAP1 DIV PUSH20 0xFFFFFFFFFFFFFFFFFFFFFFFFFFFFFFFFFFFFFFFF AND PUSH20 0xFFFFFFFFFFFFFFFFFFFFFFFFFFFFFFFFFFFFFFFF AND DUP2 MSTORE PUSH1 0x20 ADD SWAP1 PUSH1 0x1 ADD SWAP1 DUP1 DUP4 GT PUSH2 0x1726 JUMPI JUMPDEST POP POP POP POP POP SWAP1 POP SWAP2 SWAP1 POP JUMP JUMPDEST PUSH1 0x2 DUP2 DUP2 SLOAD DUP2 LT PUSH2 0x178A JUMPI PUSH0 DUP1 REVERT JUMPDEST SWAP1 PUSH0 MSTORE PUSH1 0x20 PUSH0 KECCAK256 ADD PUSH0 SWAP2 POP SLOAD SWAP1 PUSH2 0x100 EXP SWAP1 DIV PUSH20 0xFFFFFFFFFFFFFFFFFFFFFFFFFFFFFFFFFFFFFFFF AND DUP2 JUMP JUMPDEST PUSH1 0x60 PUSH0 DUP1 SLOAD DUP1 PUSH1 0x20 MUL PUSH1 0x20 ADD PUSH1 0x40 MLOAD SWAP1 DUP2 ADD PUSH1 0x40 MSTORE DUP1 SWAP3 SWAP2 SWAP1 DUP2 DUP2 MSTORE PUSH1 0x20 ADD DUP3 DUP1 SLOAD DUP1 ISZERO PUSH2 0x1836 JUMPI PUSH1 0x20 MUL DUP3 ADD SWAP2 SWAP1 PUSH0 MSTORE PUSH1 0x20 PUSH0 KECCAK256 SWAP1 JUMPDEST DUP2 PUSH0 SWAP1 SLOAD SWAP1 PUSH2 0x100 EXP SWAP1 DIV PUSH20 0xFFFFFFFFFFFFFFFFFFFFFFFFFFFFFFFFFFFFFFFF AND PUSH20 0xFFFFFFFFFFFFFFFFFFFFFFFFFFFFFFFFFFFFFFFF AND DUP2 MSTORE PUSH1 0x20 ADD SWAP1 PUSH1 0x1 ADD SWAP1 DUP1 DUP4 GT PUSH2 0x17ED JUMPI JUMPDEST POP POP POP POP POP SWAP1 POP SWAP1 JUMP JUMPDEST DUP3 DUP1 SLOAD DUP3 DUP3 SSTORE SWAP1 PUSH0 MSTORE PUSH1 0x20 PUSH0 KECCAK256 SWAP1 DUP2 ADD SWAP3 DUP3 ISZERO PUSH2 0x18B6 JUMPI SWAP2 PUSH1 0x20 MUL DUP3 ADD JUMPDEST DUP3 DUP2 GT ISZERO PUSH2 0x18B5 JUMPI DUP3 MLOAD DUP3 PUSH0 PUSH2 0x100 EXP DUP2 SLOAD DUP2 PUSH20 0xFFFFFFFFFFFFFFFFFFFFFFFFFFFFFFFFFFFFFFFF MUL NOT AND SWAP1 DUP4 PUSH20 0xFFFFFFFFFFFFFFFFFFFFFFFFFFFFFFFFFFFFFFFF AND MUL OR SWAP1 SSTORE POP SWAP2 PUSH1 0x20 ADD SWAP2 SWAP1 PUSH1 0x1 ADD SWAP1 PUSH2 0x185E JUMP JUMPDEST JUMPDEST POP SWAP1 POP PUSH2 0x18C3 SWAP2 SWAP1 PUSH2 0x18C7 JUMP JUMPDEST POP SWAP1 JUMP JUMPDEST JUMPDEST DUP1 DUP3 GT ISZERO PUSH2 0x18DE JUMPI PUSH0 DUP2 PUSH0 SWAP1 SSTORE POP PUSH1 0x1 ADD PUSH2 0x18C8 JUMP JUMPDEST POP SWAP1 JUMP JUMPDEST PUSH0 PUSH1 0x40 MLOAD SWAP1 POP SWAP1 JUMP JUMPDEST PUSH0 DUP1 REVERT JUMPDEST PUSH0 DUP1 REVERT JUMPDEST PUSH0 DUP2 SWAP1 POP SWAP2 SWAP1 POP JUMP JUMPDEST PUSH2 0x1905 DUP2 PUSH2 0x18F3 JUMP JUMPDEST DUP2 EQ PUSH2 0x190F JUMPI PUSH0 DUP1 REVERT JUMPDEST POP JUMP JUMPDEST PUSH0 DUP2 CALLDATALOAD SWAP1 POP PUSH2 0x1920 DUP2 PUSH2 0x18FC JUMP JUMPDEST SWAP3 SWAP2 POP POP JUMP JUMPDEST PUSH0 PUSH1 0x20 DUP3 DUP5 SUB SLT ISZERO PUSH2 0x193B JUMPI PUSH2 0x193A PUSH2 0x18EB JUMP JUMPDEST JUMPDEST PUSH0 PUSH2 0x1948 DUP5 DUP3 DUP6 ADD PUSH2 0x1912 JUMP JUMPDEST SWAP2 POP POP SWAP3 SWAP2 POP POP JUMP JUMPDEST PUSH0 PUSH20 0xFFFFFFFFFFFFFFFFFFFFFFFFFFFFFFFFFFFFFFFF DUP3 AND SWAP1 POP SWAP2 SWAP1 POP JUMP JUMPDEST PUSH0 PUSH2 0x197A DUP3 PUSH2 0x1951 JUMP JUMPDEST SWAP1 POP SWAP2 SWAP1 POP JUMP JUMPDEST PUSH2 0x198A DUP2 PUSH2 0x1970 JUMP JUMPDEST DUP3 MSTORE POP POP JUMP JUMPDEST PUSH0 PUSH1 0x20 DUP3 ADD SWAP1 POP PUSH2 0x19A3 PUSH0 DUP4 ADD DUP5 PUSH2 0x1981 JUMP JUMPDEST SWAP3 SWAP2 POP POP JUMP JUMPDEST PUSH0 PUSH2 0x19B3 DUP3 PUSH2 0x1951 JUMP JUMPDEST SWAP1 POP SWAP2 SWAP1 POP JUMP JUMPDEST PUSH2 0x19C3 DUP2 PUSH2 0x19A9 JUMP JUMPDEST DUP2 EQ PUSH2 0x19CD JUMPI PUSH0 DUP1 REVERT JUMPDEST POP JUMP JUMPDEST PUSH0 DUP2 CALLDATALOAD SWAP1 POP PUSH2 0x19DE DUP2 PUSH2 0x19BA JUMP JUMPDEST SWAP3 SWAP2 POP POP JUMP JUMPDEST PUSH0 PUSH1 0x20 DUP3 DUP5 SUB SLT ISZERO PUSH2 0x19F9 JUMPI PUSH2 0x19F8 PUSH2 0x18EB JUMP JUMPDEST JUMPDEST PUSH0 PUSH2 0x1A06 DUP5 DUP3 DUP6 ADD PUSH2 0x19D0 JUMP JUMPDEST SWAP2 POP POP SWAP3 SWAP2 POP POP JUMP JUMPDEST PUSH0 DUP1 REVERT JUMPDEST PUSH0 DUP1 REVERT JUMPDEST PUSH0 PUSH1 0x1F NOT PUSH1 0x1F DUP4 ADD AND SWAP1 POP SWAP2 SWAP1 POP JUMP JUMPDEST PUSH32 0x4E487B7100000000000000000000000000000000000000000000000000000000 PUSH0 MSTORE PUSH1 0x41 PUSH1 0x4 MSTORE PUSH1 0x24 PUSH0 REVERT JUMPDEST PUSH2 0x1A5D DUP3 PUSH2 0x1A17 JUMP JUMPDEST DUP2 ADD DUP2 DUP2 LT PUSH8 0xFFFFFFFFFFFFFFFF DUP3 GT OR ISZERO PUSH2 0x1A7C JUMPI PUSH2 0x1A7B PUSH2 0x1A27 JUMP JUMPDEST JUMPDEST DUP1 PUSH1 0x40 MSTORE POP POP POP JUMP JUMPDEST PUSH0 PUSH2 0x1A8E PUSH2 0x18E2 JUMP JUMPDEST SWAP1 POP PUSH2 0x1A9A DUP3 DUP3 PUSH2 0x1A54 JUMP JUMPDEST SWAP2 SWAP1 POP JUMP JUMPDEST PUSH0 PUSH8 0xFFFFFFFFFFFFFFFF DUP3 GT ISZERO PUSH2 0x1AB9 JUMPI PUSH2 0x1AB8 PUSH2 0x1A27 JUMP JUMPDEST JUMPDEST PUSH2 0x1AC2 DUP3 PUSH2 0x1A17 JUMP JUMPDEST SWAP1 POP PUSH1 0x20 DUP2 ADD SWAP1 POP SWAP2 SWAP1 POP JUMP JUMPDEST DUP3 DUP2 DUP4 CALLDATACOPY PUSH0 DUP4 DUP4 ADD MSTORE POP POP POP JUMP JUMPDEST PUSH0 PUSH2 0x1AEF PUSH2 0x1AEA DUP5 PUSH2 0x1A9F JUMP JUMPDEST PUSH2 0x1A85 JUMP JUMPDEST SWAP1 POP DUP3 DUP2 MSTORE PUSH1 0x20 DUP2 ADD DUP5 DUP5 DUP5 ADD GT ISZERO PUSH2 0x1B0B JUMPI PUSH2 0x1B0A PUSH2 0x1A13 JUMP JUMPDEST JUMPDEST PUSH2 0x1B16 DUP5 DUP3 DUP6 PUSH2 0x1ACF JUMP JUMPDEST POP SWAP4 SWAP3 POP POP POP JUMP JUMPDEST PUSH0 DUP3 PUSH1 0x1F DUP4 ADD SLT PUSH2 0x1B32 JUMPI PUSH2 0x1B31 PUSH2 0x1A0F JUMP JUMPDEST JUMPDEST DUP2 CALLDATALOAD PUSH2 0x1B42 DUP5 DUP3 PUSH1 0x20 DUP7 ADD PUSH2 0x1ADD JUMP JUMPDEST SWAP2 POP POP SWAP3 SWAP2 POP POP JUMP JUMPDEST PUSH0 PUSH1 0x20 DUP3 DUP5 SUB SLT ISZERO PUSH2 0x1B60 JUMPI PUSH2 0x1B5F PUSH2 0x18EB JUMP JUMPDEST JUMPDEST PUSH0 DUP3 ADD CALLDATALOAD PUSH8 0xFFFFFFFFFFFFFFFF DUP2 GT ISZERO PUSH2 0x1B7D JUMPI PUSH2 0x1B7C PUSH2 0x18EF JUMP JUMPDEST JUMPDEST PUSH2 0x1B89 DUP5 DUP3 DUP6 ADD PUSH2 0x1B1E JUMP JUMPDEST SWAP2 POP POP SWAP3 SWAP2 POP POP JUMP JUMPDEST PUSH2 0x1B9B DUP2 PUSH2 0x1970 JUMP JUMPDEST DUP2 EQ PUSH2 0x1BA5 JUMPI PUSH0 DUP1 REVERT JUMPDEST POP JUMP JUMPDEST PUSH0 DUP2 CALLDATALOAD SWAP1 POP PUSH2 0x1BB6 DUP2 PUSH2 0x1B92 JUMP JUMPDEST SWAP3 SWAP2 POP POP JUMP JUMPDEST PUSH0 PUSH1 0x20 DUP3 DUP5 SUB SLT ISZERO PUSH2 0x1BD1 JUMPI PUSH2 0x1BD0 PUSH2 0x18EB JUMP JUMPDEST JUMPDEST PUSH0 PUSH2 0x1BDE DUP5 DUP3 DUP6 ADD PUSH2 0x1BA8 JUMP JUMPDEST SWAP2 POP POP SWAP3 SWAP2 POP POP JUMP JUMPDEST PUSH2 0x1BF0 DUP2 PUSH2 0x18F3 JUMP JUMPDEST DUP3 MSTORE POP POP JUMP JUMPDEST PUSH0 PUSH1 0x20 DUP3 ADD SWAP1 POP PUSH2 0x1C09 PUSH0 DUP4 ADD DUP5 PUSH2 0x1BE7 JUMP JUMPDEST SWAP3 SWAP2 POP POP JUMP JUMPDEST PUSH0 DUP2 MLOAD SWAP1 POP SWAP2 SWAP1 POP JUMP JUMPDEST PUSH0 DUP3 DUP3 MSTORE PUSH1 0x20 DUP3 ADD SWAP1 POP SWAP3 SWAP2 POP POP JUMP JUMPDEST PUSH0 DUP2 SWAP1 POP PUSH1 0x20 DUP3 ADD SWAP1 POP SWAP2 SWAP1 POP JUMP JUMPDEST PUSH2 0x1C41 DUP2 PUSH2 0x1970 JUMP JUMPDEST DUP3 MSTORE POP POP JUMP JUMPDEST PUSH0 PUSH2 0x1C52 DUP4 DUP4 PUSH2 0x1C38 JUMP JUMPDEST PUSH1 0x20 DUP4 ADD SWAP1 POP SWAP3 SWAP2 POP POP JUMP JUMPDEST PUSH0 PUSH1 0x20 DUP3 ADD SWAP1 POP SWAP2 SWAP1 POP JUMP JUMPDEST PUSH0 PUSH2 0x1C74 DUP3 PUSH2 0x1C0F JUMP JUMPDEST PUSH2 0x1C7E DUP2 DUP6 PUSH2 0x1C19 JUMP JUMPDEST SWAP4 POP PUSH2 0x1C89 DUP4 PUSH2 0x1C29 JUMP JUMPDEST DUP1 PUSH0 JUMPDEST DUP4 DUP2 LT ISZERO PUSH2 0x1CB9 JUMPI DUP2 MLOAD PUSH2 0x1CA0 DUP9 DUP3 PUSH2 0x1C47 JUMP JUMPDEST SWAP8 POP PUSH2 0x1CAB DUP4 PUSH2 0x1C5E JUMP JUMPDEST SWAP3 POP POP PUSH1 0x1 DUP2 ADD SWAP1 POP PUSH2 0x1C8C JUMP JUMPDEST POP DUP6 SWAP4 POP POP POP POP SWAP3 SWAP2 POP POP JUMP JUMPDEST PUSH0 PUSH1 0x20 DUP3 ADD SWAP1 POP DUP2 DUP2 SUB PUSH0 DUP4 ADD MSTORE PUSH2 0x1CDE DUP2 DUP5 PUSH2 0x1C6A JUMP JUMPDEST SWAP1 POP SWAP3 SWAP2 POP POP JUMP JUMPDEST PUSH0 DUP2 MLOAD SWAP1 POP SWAP2 SWAP1 POP JUMP JUMPDEST PUSH0 DUP3 DUP3 MSTORE PUSH1 0x20 DUP3 ADD SWAP1 POP SWAP3 SWAP2 POP POP JUMP JUMPDEST PUSH0 JUMPDEST DUP4 DUP2 LT ISZERO PUSH2 0x1D1D JUMPI DUP1 DUP3 ADD MLOAD DUP2 DUP5 ADD MSTORE PUSH1 0x20 DUP2 ADD SWAP1 POP PUSH2 0x1D02 JUMP JUMPDEST PUSH0 DUP5 DUP5 ADD MSTORE POP POP POP POP JUMP JUMPDEST PUSH0 PUSH2 0x1D32 DUP3 PUSH2 0x1CE6 JUMP JUMPDEST PUSH2 0x1D3C DUP2 DUP6 PUSH2 0x1CF0 JUMP JUMPDEST SWAP4 POP PUSH2 0x1D4C DUP2 DUP6 PUSH1 0x20 DUP7 ADD PUSH2 0x1D00 JUMP JUMPDEST PUSH2 0x1D55 DUP2 PUSH2 0x1A17 JUMP JUMPDEST DUP5 ADD SWAP2 POP POP SWAP3 SWAP2 POP POP JUMP JUMPDEST PUSH0 PUSH1 0x20 DUP3 ADD SWAP1 POP DUP2 DUP2 SUB PUSH0 DUP4 ADD MSTORE PUSH2 0x1D78 DUP2 DUP5 PUSH2 0x1D28 JUMP JUMPDEST SWAP1 POP SWAP3 SWAP2 POP POP JUMP JUMPDEST PUSH0 DUP2 ISZERO ISZERO SWAP1 POP SWAP2 SWAP1 POP JUMP JUMPDEST PUSH2 0x1D94 DUP2 PUSH2 0x1D80 JUMP JUMPDEST DUP3 MSTORE POP POP JUMP JUMPDEST PUSH0 PUSH1 0x20 DUP3 ADD SWAP1 POP PUSH2 0x1DAD PUSH0 DUP4 ADD DUP5 PUSH2 0x1D8B JUMP JUMPDEST SWAP3 SWAP2 POP POP JUMP JUMPDEST PUSH0 PUSH1 0x80 DUP3 ADD SWAP1 POP DUP2 DUP2 SUB PUSH0 DUP4 ADD MSTORE PUSH2 0x1DCB DUP2 DUP8 PUSH2 0x1D28 JUMP JUMPDEST SWAP1 POP DUP2 DUP2 SUB PUSH1 0x20 DUP4 ADD MSTORE PUSH2 0x1DDF DUP2 DUP7 PUSH2 0x1D28 JUMP JUMPDEST SWAP1 POP PUSH2 0x1DEE PUSH1 0x40 DUP4 ADD DUP6 PUSH2 0x1981 JUMP JUMPDEST PUSH2 0x1DFB PUSH1 0x60 DUP4 ADD DUP5 PUSH2 0x1D8B JUMP JUMPDEST SWAP6 SWAP5 POP POP POP POP POP JUMP JUMPDEST PUSH0 DUP1 PUSH1 0x40 DUP4 DUP6 SUB SLT ISZERO PUSH2 0x1E1A JUMPI PUSH2 0x1E19 PUSH2 0x18EB JUMP JUMPDEST JUMPDEST PUSH0 PUSH2 0x1E27 DUP6 DUP3 DUP7 ADD PUSH2 0x1BA8 JUMP JUMPDEST SWAP3 POP POP PUSH1 0x20 DUP4 ADD CALLDATALOAD PUSH8 0xFFFFFFFFFFFFFFFF DUP2 GT ISZERO PUSH2 0x1E48 JUMPI PUSH2 0x1E47 PUSH2 0x18EF JUMP JUMPDEST JUMPDEST PUSH2 0x1E54 DUP6 DUP3 DUP7 ADD PUSH2 0x1B1E JUMP JUMPDEST SWAP2 POP POP SWAP3 POP SWAP3 SWAP1 POP JUMP JUMPDEST PUSH0 DUP1 PUSH1 0x40 DUP4 DUP6 SUB SLT ISZERO PUSH2 0x1E74 JUMPI PUSH2 0x1E73 PUSH2 0x18EB JUMP JUMPDEST JUMPDEST PUSH0 DUP4 ADD CALLDATALOAD PUSH8 0xFFFFFFFFFFFFFFFF DUP2 GT ISZERO PUSH2 0x1E91 JUMPI PUSH2 0x1E90 PUSH2 0x18EF JUMP JUMPDEST JUMPDEST PUSH2 0x1E9D DUP6 DUP3 DUP7 ADD PUSH2 0x1B1E JUMP JUMPDEST SWAP3 POP POP PUSH1 0x20 DUP4 ADD CALLDATALOAD PUSH8 0xFFFFFFFFFFFFFFFF DUP2 GT ISZERO PUSH2 0x1EBE JUMPI PUSH2 0x1EBD PUSH2 0x18EF JUMP JUMPDEST JUMPDEST PUSH2 0x1ECA DUP6 DUP3 DUP7 ADD PUSH2 0x1B1E JUMP JUMPDEST SWAP2 POP POP SWAP3 POP SWAP3 SWAP1 POP JUMP JUMPDEST PUSH32 0x4F6E6C7920746865206F776E65722063616E206772616E742061636365737300 PUSH0 DUP3 ADD MSTORE POP JUMP JUMPDEST PUSH0 PUSH2 0x1F08 PUSH1 0x1F DUP4 PUSH2 0x1CF0 JUMP JUMPDEST SWAP2 POP PUSH2 0x1F13 DUP3 PUSH2 0x1ED4 JUMP JUMPDEST PUSH1 0x20 DUP3 ADD SWAP1 POP SWAP2 SWAP1 POP JUMP JUMPDEST PUSH0 PUSH1 0x20 DUP3 ADD SWAP1 POP DUP2 DUP2 SUB PUSH0 DUP4 ADD MSTORE PUSH2 0x1F35 DUP2 PUSH2 0x1EFC JUMP JUMPDEST SWAP1 POP SWAP2 SWAP1 POP JUMP JUMPDEST PUSH32 0x4F6E6C79204F6666696369616C732063616E2063726561746520646570617274 PUSH0 DUP3 ADD MSTORE PUSH32 0x6D656E7473000000000000000000000000000000000000000000000000000000 PUSH1 0x20 DUP3 ADD MSTORE POP JUMP JUMPDEST PUSH0 PUSH2 0x1F96 PUSH1 0x25 DUP4 PUSH2 0x1CF0 JUMP JUMPDEST SWAP2 POP PUSH2 0x1FA1 DUP3 PUSH2 0x1F3C JUMP JUMPDEST PUSH1 0x40 DUP3 ADD SWAP1 POP SWAP2 SWAP1 POP JUMP JUMPDEST PUSH0 PUSH1 0x20 DUP3 ADD SWAP1 POP DUP2 DUP2 SUB PUSH0 DUP4 ADD MSTORE PUSH2 0x1FC3 DUP2 PUSH2 0x1F8A JUMP JUMPDEST SWAP1 POP SWAP2 SWAP1 POP JUMP JUMPDEST PUSH32 0x4E487B7100000000000000000000000000000000000000000000000000000000 PUSH0 MSTORE PUSH1 0x11 PUSH1 0x4 MSTORE PUSH1 0x24 PUSH0 REVERT JUMPDEST PUSH0 PUSH2 0x2001 DUP3 PUSH2 0x18F3 JUMP JUMPDEST SWAP2 POP PUSH2 0x200C DUP4 PUSH2 0x18F3 JUMP JUMPDEST SWAP3 POP DUP3 DUP3 ADD SWAP1 POP DUP1 DUP3 GT ISZERO PUSH2 0x2024 JUMPI PUSH2 0x2023 PUSH2 0x1FCA JUMP JUMPDEST JUMPDEST SWAP3 SWAP2 POP POP JUMP JUMPDEST PUSH32 0x4F6E6C79204F6666696369616C7320616E6420746865206F776E65722063616E PUSH0 DUP3 ADD MSTORE PUSH32 0x20656E616374206C617773000000000000000000000000000000000000000000 PUSH1 0x20 DUP3 ADD MSTORE POP JUMP JUMPDEST PUSH0 PUSH2 0x2084 PUSH1 0x2B DUP4 PUSH2 0x1CF0 JUMP JUMPDEST SWAP2 POP PUSH2 0x208F DUP3 PUSH2 0x202A JUMP JUMPDEST PUSH1 0x40 DUP3 ADD SWAP1 POP SWAP2 SWAP1 POP JUMP JUMPDEST PUSH0 PUSH1 0x20 DUP3 ADD SWAP1 POP DUP2 DUP2 SUB PUSH0 DUP4 ADD MSTORE PUSH2 0x20B1 DUP2 PUSH2 0x2078 JUMP JUMPDEST SWAP1 POP SWAP2 SWAP1 POP JUMP JUMPDEST PUSH32 0x496E76616C6964206C617720696E646578000000000000000000000000000000 PUSH0 DUP3 ADD MSTORE POP JUMP JUMPDEST PUSH0 PUSH2 0x20EC PUSH1 0x11 DUP4 PUSH2 0x1CF0 JUMP JUMPDEST SWAP2 POP PUSH2 0x20F7 DUP3 PUSH2 0x20B8 JUMP JUMPDEST PUSH1 0x20 DUP3 ADD SWAP1 POP SWAP2 SWAP1 POP JUMP JUMPDEST PUSH0 PUSH1 0x20 DUP3 ADD SWAP1 POP DUP2 DUP2 SUB PUSH0 DUP4 ADD MSTORE PUSH2 0x2119 DUP2 PUSH2 0x20E0 JUMP JUMPDEST SWAP1 POP SWAP2 SWAP1 POP JUMP JUMPDEST PUSH32 0x4E487B7100000000000000000000000000000000000000000000000000000000 PUSH0 MSTORE PUSH1 0x32 PUSH1 0x4 MSTORE PUSH1 0x24 PUSH0 REVERT JUMPDEST PUSH32 0x43616E6E6F74207265676973746572206173204C617720456E666F7263656D65 PUSH0 DUP3 ADD MSTORE PUSH32 0x6E742C20416C7265616479207265676973746572656400000000000000000000 PUSH1 0x20 DUP3 ADD MSTORE POP JUMP JUMPDEST PUSH0 PUSH2 0x21A7 PUSH1 0x36 DUP4 PUSH2 0x1CF0 JUMP JUMPDEST SWAP2 POP PUSH2 0x21B2 DUP3 PUSH2 0x214D JUMP JUMPDEST PUSH1 0x40 DUP3 ADD SWAP1 POP SWAP2 SWAP1 POP JUMP JUMPDEST PUSH0 PUSH1 0x20 DUP3 ADD SWAP1 POP DUP2 DUP2 SUB PUSH0 DUP4 ADD MSTORE PUSH2 0x21D4 DUP2 PUSH2 0x219B JUMP JUMPDEST SWAP1 POP SWAP2 SWAP1 POP JUMP JUMPDEST PUSH32 0x43616E6E6F7420726567697374657220617320436974697A656E2C20416C7265 PUSH0 DUP3 ADD MSTORE PUSH32 0x61647920616E206F6666696369616C0000000000000000000000000000000000 PUSH1 0x20 DUP3 ADD MSTORE POP JUMP JUMPDEST PUSH0 PUSH2 0x2235 PUSH1 0x2F DUP4 PUSH2 0x1CF0 JUMP JUMPDEST SWAP2 POP PUSH2 0x2240 DUP3 PUSH2 0x21DB JUMP JUMPDEST PUSH1 0x40 DUP3 ADD SWAP1 POP SWAP2 SWAP1 POP JUMP JUMPDEST PUSH0 PUSH1 0x20 DUP3 ADD SWAP1 POP DUP2 DUP2 SUB PUSH0 DUP4 ADD MSTORE PUSH2 0x2262 DUP2 PUSH2 0x2229 JUMP JUMPDEST SWAP1 POP SWAP2 SWAP1 POP JUMP JUMPDEST PUSH32 0x4F6666696369616C732063616E6E6F7420766F74650000000000000000000000 PUSH0 DUP3 ADD MSTORE POP JUMP JUMPDEST PUSH0 PUSH2 0x229D PUSH1 0x15 DUP4 PUSH2 0x1CF0 JUMP JUMPDEST SWAP2 POP PUSH2 0x22A8 DUP3 PUSH2 0x2269 JUMP JUMPDEST PUSH1 0x20 DUP3 ADD SWAP1 POP SWAP2 SWAP1 POP JUMP JUMPDEST PUSH0 PUSH1 0x20 DUP3 ADD SWAP1 POP DUP2 DUP2 SUB PUSH0 DUP4 ADD MSTORE PUSH2 0x22CA DUP2 PUSH2 0x2291 JUMP JUMPDEST SWAP1 POP SWAP2 SWAP1 POP JUMP JUMPDEST PUSH32 0x43616E646964617465206973206E6F7420616E206F6666696369616C00000000 PUSH0 DUP3 ADD MSTORE POP JUMP JUMPDEST PUSH0 PUSH2 0x2305 PUSH1 0x1C DUP4 PUSH2 0x1CF0 JUMP JUMPDEST SWAP2 POP PUSH2 0x2310 DUP3 PUSH2 0x22D1 JUMP JUMPDEST PUSH1 0x20 DUP3 ADD SWAP1 POP SWAP2 SWAP1 POP JUMP JUMPDEST PUSH0 PUSH1 0x20 DUP3 ADD SWAP1 POP DUP2 DUP2 SUB PUSH0 DUP4 ADD MSTORE PUSH2 0x2332 DUP2 PUSH2 0x22F9 JUMP JUMPDEST SWAP1 POP SWAP2 SWAP1 POP JUMP JUMPDEST PUSH32 0x4E487B7100000000000000000000000000000000000000000000000000000000 PUSH0 MSTORE PUSH1 0x22 PUSH1 0x4 MSTORE PUSH1 0x24 PUSH0 REVERT JUMPDEST PUSH0 PUSH1 0x2 DUP3 DIV SWAP1 POP PUSH1 0x1 DUP3 AND DUP1 PUSH2 0x237D JUMPI PUSH1 0x7F DUP3 AND SWAP2 POP JUMPDEST PUSH1 0x20 DUP3 LT DUP2 SUB PUSH2 0x2390 JUMPI PUSH2 0x238F PUSH2 0x2339 JUMP JUMPDEST JUMPDEST POP SWAP2 SWAP1 POP JUMP JUMPDEST PUSH32 0x4F6E6C7920746865206F776E65722063616E2064657374726F79207468697320 PUSH0 DUP3 ADD MSTORE PUSH32 0x636F6E7472616374000000000000000000000000000000000000000000000000 PUSH1 0x20 DUP3 ADD MSTORE POP JUMP JUMPDEST PUSH0 PUSH2 0x23F0 PUSH1 0x28 DUP4 PUSH2 0x1CF0 JUMP JUMPDEST SWAP2 POP PUSH2 0x23FB DUP3 PUSH2 0x2396 JUMP JUMPDEST PUSH1 0x40 DUP3 ADD SWAP1 POP SWAP2 SWAP1 POP JUMP JUMPDEST PUSH0 PUSH1 0x20 DUP3 ADD SWAP1 POP DUP2 DUP2 SUB PUSH0 DUP4 ADD MSTORE PUSH2 0x241D DUP2 PUSH2 0x23E4 JUMP JUMPDEST SWAP1 POP SWAP2 SWAP1 POP JUMP JUMPDEST PUSH32 0x4F6E6C7920746865206F776E65722063616E207265766F6B6520616363657373 PUSH0 DUP3 ADD MSTORE POP JUMP JUMPDEST PUSH0 PUSH2 0x2458 PUSH1 0x20 DUP4 PUSH2 0x1CF0 JUMP JUMPDEST SWAP2 POP PUSH2 0x2463 DUP3 PUSH2 0x2424 JUMP JUMPDEST PUSH1 0x20 DUP3 ADD SWAP1 POP SWAP2 SWAP1 POP JUMP JUMPDEST PUSH0 PUSH1 0x20 DUP3 ADD SWAP1 POP DUP2 DUP2 SUB PUSH0 DUP4 ADD MSTORE PUSH2 0x2485 DUP2 PUSH2 0x244C JUMP JUMPDEST SWAP1 POP SWAP2 SWAP1 POP JUMP JUMPDEST PUSH32 0x43616E6E6F74207265766F6B652061636365737320666F722074686520637572 PUSH0 DUP3 ADD MSTORE PUSH32 0x72656E74206F776E657200000000000000000000000000000000000000000000 PUSH1 0x20 DUP3 ADD MSTORE POP JUMP JUMPDEST PUSH0 PUSH2 0x24E6 PUSH1 0x2A DUP4 PUSH2 0x1CF0 JUMP JUMPDEST SWAP2 POP PUSH2 0x24F1 DUP3 PUSH2 0x248C JUMP JUMPDEST PUSH1 0x40 DUP3 ADD SWAP1 POP SWAP2 SWAP1 POP JUMP JUMPDEST PUSH0 PUSH1 0x20 DUP3 ADD SWAP1 POP DUP2 DUP2 SUB PUSH0 DUP4 ADD MSTORE PUSH2 0x2513 DUP2 PUSH2 0x24DA JUMP JUMPDEST SWAP1 POP SWAP2 SWAP1 POP JUMP JUMPDEST PUSH32 0x4F6E6C79204F6666696369616C732063616E2061737369676E20656D706C6F79 PUSH0 DUP3 ADD MSTORE PUSH32 0x65657320746F206465706172746D656E74730000000000000000000000000000 PUSH1 0x20 DUP3 ADD MSTORE POP JUMP JUMPDEST PUSH0 PUSH2 0x2574 PUSH1 0x32 DUP4 PUSH2 0x1CF0 JUMP JUMPDEST SWAP2 POP PUSH2 0x257F DUP3 PUSH2 0x251A JUMP JUMPDEST PUSH1 0x40 DUP3 ADD SWAP1 POP SWAP2 SWAP1 POP JUMP JUMPDEST PUSH0 PUSH1 0x20 DUP3 ADD SWAP1 POP DUP2 DUP2 SUB PUSH0 DUP4 ADD MSTORE PUSH2 0x25A1 DUP2 PUSH2 0x2568 JUMP JUMPDEST SWAP1 POP SWAP2 SWAP1 POP JUMP JUMPDEST PUSH32 0x456D706C6F796565206D75737420626520616E206F6666696369616C00000000 PUSH0 DUP3 ADD MSTORE POP JUMP JUMPDEST PUSH0 PUSH2 0x25DC PUSH1 0x1C DUP4 PUSH2 0x1CF0 JUMP JUMPDEST SWAP2 POP PUSH2 0x25E7 DUP3 PUSH2 0x25A8 JUMP JUMPDEST PUSH1 0x20 DUP3 ADD SWAP1 POP SWAP2 SWAP1 POP JUMP JUMPDEST PUSH0 PUSH1 0x20 DUP3 ADD SWAP1 POP DUP2 DUP2 SUB PUSH0 DUP4 ADD MSTORE PUSH2 0x2609 DUP2 PUSH2 0x25D0 JUMP JUMPDEST SWAP1 POP SWAP2 SWAP1 POP JUMP JUMPDEST PUSH32 0x496E73756666696369656E74206465706172746D656E74206275646765740000 PUSH0 DUP3 ADD MSTORE POP JUMP JUMPDEST PUSH0 PUSH2 0x2644 PUSH1 0x1E DUP4 PUSH2 0x1CF0 JUMP JUMPDEST SWAP2 POP PUSH2 0x264F DUP3 PUSH2 0x2610 JUMP JUMPDEST PUSH1 0x20 DUP3 ADD SWAP1 POP SWAP2 SWAP1 POP JUMP JUMPDEST PUSH0 PUSH1 0x20 DUP3 ADD SWAP1 POP DUP2 DUP2 SUB PUSH0 DUP4 ADD MSTORE PUSH2 0x2671 DUP2 PUSH2 0x2638 JUMP JUMPDEST SWAP1 POP SWAP2 SWAP1 POP JUMP JUMPDEST PUSH0 DUP2 SWAP1 POP DUP2 PUSH0 MSTORE PUSH1 0x20 PUSH0 KECCAK256 SWAP1 POP SWAP2 SWAP1 POP JUMP JUMPDEST PUSH0 PUSH1 0x20 PUSH1 0x1F DUP4 ADD DIV SWAP1 POP SWAP2 SWAP1 POP JUMP JUMPDEST PUSH0 DUP3 DUP3 SHL SWAP1 POP SWAP3 SWAP2 POP POP JUMP JUMPDEST PUSH0 PUSH1 0x8 DUP4 MUL PUSH2 0x26D4 PUSH32 0xFFFFFFFFFFFFFFFFFFFFFFFFFFFFFFFFFFFFFFFFFFFFFFFFFFFFFFFFFFFFFFFF DUP3 PUSH2 0x2699 JUMP JUMPDEST PUSH2 0x26DE DUP7 DUP4 PUSH2 0x2699 JUMP JUMPDEST SWAP6 POP DUP1 NOT DUP5 AND SWAP4 POP DUP1 DUP7 AND DUP5 OR SWAP3 POP POP POP SWAP4 SWAP3 POP POP POP JUMP JUMPDEST PUSH0 DUP2 SWAP1 POP SWAP2 SWAP1 POP JUMP JUMPDEST PUSH0 PUSH2 0x2719 PUSH2 0x2714 PUSH2 0x270F DUP5 PUSH2 0x18F3 JUMP JUMPDEST PUSH2 0x26F6 JUMP JUMPDEST PUSH2 0x18F3 JUMP JUMPDEST SWAP1 POP SWAP2 SWAP1 POP JUMP JUMPDEST PUSH0 DUP2 SWAP1 POP SWAP2 SWAP1 POP JUMP JUMPDEST PUSH2 0x2732 DUP4 PUSH2 0x26FF JUMP JUMPDEST PUSH2 0x2746 PUSH2 0x273E DUP3 PUSH2 0x2720 JUMP JUMPDEST DUP5 DUP5 SLOAD PUSH2 0x26A5 JUMP JUMPDEST DUP3 SSTORE POP POP POP POP JUMP JUMPDEST PUSH0 SWAP1 JUMP JUMPDEST PUSH2 0x275A PUSH2 0x274E JUMP JUMPDEST PUSH2 0x2765 DUP2 DUP5 DUP5 PUSH2 0x2729 JUMP JUMPDEST POP POP POP JUMP JUMPDEST JUMPDEST DUP2 DUP2 LT ISZERO PUSH2 0x2788 JUMPI PUSH2 0x277D PUSH0 DUP3 PUSH2 0x2752 JUMP JUMPDEST PUSH1 0x1 DUP2 ADD SWAP1 POP PUSH2 0x276B JUMP JUMPDEST POP POP JUMP JUMPDEST PUSH1 0x1F DUP3 GT ISZERO PUSH2 0x27CD JUMPI PUSH2 0x279E DUP2 PUSH2 0x2678 JUMP JUMPDEST PUSH2 0x27A7 DUP5 PUSH2 0x268A JUMP JUMPDEST DUP2 ADD PUSH1 0x20 DUP6 LT ISZERO PUSH2 0x27B6 JUMPI DUP2 SWAP1 POP JUMPDEST PUSH2 0x27CA PUSH2 0x27C2 DUP6 PUSH2 0x268A JUMP JUMPDEST DUP4 ADD DUP3 PUSH2 0x276A JUMP JUMPDEST POP POP JUMPDEST POP POP POP JUMP JUMPDEST PUSH0 DUP3 DUP3 SHR SWAP1 POP SWAP3 SWAP2 POP POP JUMP JUMPDEST PUSH0 PUSH2 0x27ED PUSH0 NOT DUP5 PUSH1 0x8 MUL PUSH2 0x27D2 JUMP JUMPDEST NOT DUP1 DUP4 AND SWAP2 POP POP SWAP3 SWAP2 POP POP JUMP JUMPDEST PUSH0 PUSH2 0x2805 DUP4 DUP4 PUSH2 0x27DE JUMP JUMPDEST SWAP2 POP DUP3 PUSH1 0x2 MUL DUP3 OR SWAP1 POP SWAP3 SWAP2 POP POP JUMP JUMPDEST PUSH2 0x281E DUP3 PUSH2 0x1CE6 JUMP JUMPDEST PUSH8 0xFFFFFFFFFFFFFFFF DUP2 GT ISZERO PUSH2 0x2837 JUMPI PUSH2 0x2836 PUSH2 0x1A27 JUMP JUMPDEST JUMPDEST PUSH2 0x2841 DUP3 SLOAD PUSH2 0x2366 JUMP JUMPDEST PUSH2 0x284C DUP3 DUP3 DUP6 PUSH2 0x278C JUMP JUMPDEST PUSH0 PUSH1 0x20 SWAP1 POP PUSH1 0x1F DUP4 GT PUSH1 0x1 DUP2 EQ PUSH2 0x287D JUMPI PUSH0 DUP5 ISZERO PUSH2 0x286B JUMPI DUP3 DUP8 ADD MLOAD SWAP1 POP JUMPDEST PUSH2 0x2875 DUP6 DUP3 PUSH2 0x27FA JUMP JUMPDEST DUP7 SSTORE POP PUSH2 0x28DC JUMP JUMPDEST PUSH1 0x1F NOT DUP5 AND PUSH2 0x288B DUP7 PUSH2 0x2678 JUMP JUMPDEST PUSH0 JUMPDEST DUP3 DUP2 LT ISZERO PUSH2 0x28B2 JUMPI DUP5 DUP10 ADD MLOAD DUP3 SSTORE PUSH1 0x1 DUP3 ADD SWAP2 POP PUSH1 0x20 DUP6 ADD SWAP5 POP PUSH1 0x20 DUP2 ADD SWAP1 POP PUSH2 0x288D JUMP JUMPDEST DUP7 DUP4 LT ISZERO PUSH2 0x28CF JUMPI DUP5 DUP10 ADD MLOAD PUSH2 0x28CB PUSH1 0x1F DUP10 AND DUP3 PUSH2 0x27DE JUMP JUMPDEST DUP4 SSTORE POP JUMPDEST PUSH1 0x1 PUSH1 0x2 DUP9 MUL ADD DUP9 SSTORE POP POP POP JUMPDEST POP POP POP POP POP POP JUMP JUMPDEST PUSH0 PUSH2 0x28EE DUP3 PUSH2 0x18F3 JUMP JUMPDEST SWAP2 POP PUSH2 0x28F9 DUP4 PUSH2 0x18F3 JUMP JUMPDEST SWAP3 POP DUP3 DUP3 SUB SWAP1 POP DUP2 DUP2 GT ISZERO PUSH2 0x2911 JUMPI PUSH2 0x2910 PUSH2 0x1FCA JUMP JUMPDEST JUMPDEST SWAP3 SWAP2 POP POP JUMP JUMPDEST PUSH32 0x4F6E6C79204F6666696369616C732063616E2070726F706F7365206C61777300 PUSH0 DUP3 ADD MSTORE POP JUMP JUMPDEST PUSH0 PUSH2 0x294B PUSH1 0x1F DUP4 PUSH2 0x1CF0 JUMP JUMPDEST SWAP2 POP PUSH2 0x2956 DUP3 PUSH2 0x2917 JUMP JUMPDEST PUSH1 0x20 DUP3 ADD SWAP1 POP SWAP2 SWAP1 POP JUMP JUMPDEST PUSH0 PUSH1 0x20 DUP3 ADD SWAP1 POP DUP2 DUP2 SUB PUSH0 DUP4 ADD MSTORE PUSH2 0x2978 DUP2 PUSH2 0x293F JUMP JUMPDEST SWAP1 POP SWAP2 SWAP1 POP JUMP INVALID LOG2 PUSH5 0x6970667358 0x22 SLT KECCAK256 LOG4 JUMPDEST RETURNDATASIZE 0xE2 CALLDATASIZE 0xE7 0xE2 0xC5 0xE7 PUSH9 0x3C70EE8F81C00A7DFD DIV 0xCD 0x2F 0xBA RETURNDATASIZE CHAINID 0x25 PUSH6 0x4143AA033464 PUSH20 0x6F6C634300081600330000000000000000000000 "
				},
				"gasEstimates": {
					"creation": {
						"codeDepositCost": "2135400",
						"executionCost": "26535",
						"totalCost": "2161935"
					},
					"external": {
						"assignToDepartment(address,string)": "infinite",
						"citizenBalances(address)": "2892",
						"citizenDepartments(address)": "infinite",
						"citizens(uint256)": "4967",
						"createDepartment(string)": "infinite",
						"departmentBudgets(address)": "2913",
						"destroy()": "32114",
						"enactLaw(uint256)": "33569",
						"getCitizens()": "infinite",
						"getDepartmentEmployees(address)": "infinite",
						"getLawCount()": "2507",
						"getOfficials()": "infinite",
						"grantAccess(address)": "26930",
						"isLawEnforcement(address)": "2877",
						"isOfficial(address)": "2856",
						"lawEnforcement(uint256)": "5054",
						"laws(uint256)": "infinite",
						"officials(uint256)": "4966",
						"proposeLaw(string,string)": "infinite",
						"registerAsCitizen()": "51004",
						"registerAsLawEnforcement()": "75447",
						"registerAsOfficial()": "75424",
						"revokeAccess(address)": "29142",
						"vote(address)": "5302"
					}
				},
				"methodIdentifiers": {
					"assignToDepartment(address,string)": "8dd759a5",
					"citizenBalances(address)": "3b9392cf",
					"citizenDepartments(address)": "726d5807",
					"citizens(uint256)": "09a34f00",
					"createDepartment(string)": "1b7b8dac",
					"departmentBudgets(address)": "703c2bec",
					"destroy()": "83197ef0",
					"enactLaw(uint256)": "445ed26e",
					"getCitizens()": "eee8c7db",
					"getDepartmentEmployees(address)": "bfced66b",
					"getLawCount()": "6475f4fe",
					"getOfficials()": "58bc7331",
					"grantAccess(address)": "0ae5e739",
					"isLawEnforcement(address)": "9dd08259",
					"isOfficial(address)": "77b81aac",
					"lawEnforcement(uint256)": "d41fb138",
					"laws(uint256)": "7ebdee0d",
					"officials(uint256)": "97ad6afd",
					"proposeLaw(string,string)": "a91703ec",
					"registerAsCitizen()": "62e36eb8",
					"registerAsLawEnforcement()": "535c4ded",
					"registerAsOfficial()": "89907717",
					"revokeAccess(address)": "85e68531",
					"vote(address)": "6dd7d8ea"
				}
			},
			"storageLayout": {
				"storage": [
					{
						"astId": 4,
						"contract": "contracts/Government2.sol:Government",
						"label": "citizens",
						"offset": 0,
						"slot": "0",
						"type": "t_array(t_address)dyn_storage"
					},
					{
						"astId": 7,
						"contract": "contracts/Government2.sol:Government",
						"label": "officials",
						"offset": 0,
						"slot": "1",
						"type": "t_array(t_address)dyn_storage"
					},
					{
						"astId": 10,
						"contract": "contracts/Government2.sol:Government",
						"label": "lawEnforcement",
						"offset": 0,
						"slot": "2",
						"type": "t_array(t_address)dyn_storage"
					},
					{
						"astId": 12,
						"contract": "contracts/Government2.sol:Government",
						"label": "owner",
						"offset": 0,
						"slot": "3",
						"type": "t_address_payable"
					},
					{
						"astId": 16,
						"contract": "contracts/Government2.sol:Government",
						"label": "isOfficial",
						"offset": 0,
						"slot": "4",
						"type": "t_mapping(t_address,t_bool)"
					},
					{
						"astId": 20,
						"contract": "contracts/Government2.sol:Government",
						"label": "isLawEnforcement",
						"offset": 0,
						"slot": "5",
						"type": "t_mapping(t_address,t_bool)"
					},
					{
						"astId": 24,
						"contract": "contracts/Government2.sol:Government",
						"label": "citizenBalances",
						"offset": 0,
						"slot": "6",
						"type": "t_mapping(t_address,t_uint256)"
					},
					{
						"astId": 28,
						"contract": "contracts/Government2.sol:Government",
						"label": "departmentBudgets",
						"offset": 0,
						"slot": "7",
						"type": "t_mapping(t_address,t_uint256)"
					},
					{
						"astId": 41,
						"contract": "contracts/Government2.sol:Government",
						"label": "laws",
						"offset": 0,
						"slot": "8",
						"type": "t_array(t_struct(Law)37_storage)dyn_storage"
					},
					{
						"astId": 52,
						"contract": "contracts/Government2.sol:Government",
						"label": "citizenDepartments",
						"offset": 0,
						"slot": "9",
						"type": "t_mapping(t_address,t_struct(Department)47_storage)"
					}
				],
				"types": {
					"t_address": {
						"encoding": "inplace",
						"label": "address",
						"numberOfBytes": "20"
					},
					"t_address_payable": {
						"encoding": "inplace",
						"label": "address payable",
						"numberOfBytes": "20"
					},
					"t_array(t_address)dyn_storage": {
						"base": "t_address",
						"encoding": "dynamic_array",
						"label": "address[]",
						"numberOfBytes": "32"
					},
					"t_array(t_struct(Law)37_storage)dyn_storage": {
						"base": "t_struct(Law)37_storage",
						"encoding": "dynamic_array",
						"label": "struct Government.Law[]",
						"numberOfBytes": "32"
					},
					"t_bool": {
						"encoding": "inplace",
						"label": "bool",
						"numberOfBytes": "1"
					},
					"t_mapping(t_address,t_bool)": {
						"encoding": "mapping",
						"key": "t_address",
						"label": "mapping(address => bool)",
						"numberOfBytes": "32",
						"value": "t_bool"
					},
					"t_mapping(t_address,t_struct(Department)47_storage)": {
						"encoding": "mapping",
						"key": "t_address",
						"label": "mapping(address => struct Government.Department)",
						"numberOfBytes": "32",
						"value": "t_struct(Department)47_storage"
					},
					"t_mapping(t_address,t_uint256)": {
						"encoding": "mapping",
						"key": "t_address",
						"label": "mapping(address => uint256)",
						"numberOfBytes": "32",
						"value": "t_uint256"
					},
					"t_string_storage": {
						"encoding": "bytes",
						"label": "string",
						"numberOfBytes": "32"
					},
					"t_struct(Department)47_storage": {
						"encoding": "inplace",
						"label": "struct Government.Department",
						"members": [
							{
								"astId": 43,
								"contract": "contracts/Government2.sol:Government",
								"label": "name",
								"offset": 0,
								"slot": "0",
								"type": "t_string_storage"
							},
							{
								"astId": 46,
								"contract": "contracts/Government2.sol:Government",
								"label": "employees",
								"offset": 0,
								"slot": "1",
								"type": "t_array(t_address)dyn_storage"
							}
						],
						"numberOfBytes": "64"
					},
					"t_struct(Law)37_storage": {
						"encoding": "inplace",
						"label": "struct Government.Law",
						"members": [
							{
								"astId": 30,
								"contract": "contracts/Government2.sol:Government",
								"label": "title",
								"offset": 0,
								"slot": "0",
								"type": "t_string_storage"
							},
							{
								"astId": 32,
								"contract": "contracts/Government2.sol:Government",
								"label": "content",
								"offset": 0,
								"slot": "1",
								"type": "t_string_storage"
							},
							{
								"astId": 34,
								"contract": "contracts/Government2.sol:Government",
								"label": "proposedBy",
								"offset": 0,
								"slot": "2",
								"type": "t_address"
							},
							{
								"astId": 36,
								"contract": "contracts/Government2.sol:Government",
								"label": "enacted",
								"offset": 20,
								"slot": "2",
								"type": "t_bool"
							}
						],
						"numberOfBytes": "96"
					},
					"t_uint256": {
						"encoding": "inplace",
						"label": "uint256",
						"numberOfBytes": "32"
					}
				}
			},
			"userdoc": {
				"kind": "user",
				"methods": {},
				"version": 1
			}
		}
	}
}